{
  "abi": [
    {
      "inputs": [
        {
          "internalType": "address",
          "name": "_masset",
          "type": "address"
        },
        {
          "internalType": "address",
          "name": "_savingsContract",
          "type": "address"
        }
      ],
      "stateMutability": "nonpayable",
      "type": "constructor"
    },
    {
      "inputs": [],
      "name": "InvalidDeposit",
      "type": "error"
    },
    {
      "inputs": [],
      "name": "LockupIsActive",
      "type": "error"
    },
    {
      "inputs": [],
      "name": "OneDepositPerLockup",
      "type": "error"
    },
    {
      "inputs": [],
      "name": "ReentrantCall",
      "type": "error"
    },
    {
      "inputs": [],
      "name": "ThresholdNotReached",
      "type": "error"
    },
    {
      "inputs": [],
      "name": "UnAuthorisedBatchExecution",
      "type": "error"
    },
    {
      "inputs": [],
      "name": "UnAuthorisedWithdrawal",
      "type": "error"
    },
    {
      "anonymous": false,
      "inputs": [
        {
          "indexed": true,
          "internalType": "uint256",
          "name": "_amountExecuted",
          "type": "uint256"
        },
        {
          "indexed": true,
          "internalType": "uint256",
          "name": "_time",
          "type": "uint256"
        }
      ],
      "name": "ExecutionComplete",
      "type": "event"
    },
    {
      "anonymous": false,
      "inputs": [
        {
          "indexed": true,
          "internalType": "address",
          "name": "_from",
          "type": "address"
        },
        {
          "indexed": true,
          "internalType": "uint256",
          "name": "_amount",
          "type": "uint256"
        },
        {
          "indexed": true,
          "internalType": "uint256",
          "name": "_time",
          "type": "uint256"
        }
      ],
      "name": "NewDeposit",
      "type": "event"
    },
    {
      "anonymous": false,
      "inputs": [
        {
          "indexed": true,
          "internalType": "address",
          "name": "_who",
          "type": "address"
        },
        {
          "indexed": true,
          "internalType": "uint256",
          "name": "_returned",
          "type": "uint256"
        },
        {
          "indexed": true,
          "internalType": "uint256",
          "name": "_time",
          "type": "uint256"
        }
      ],
      "name": "NewWithdrawal",
      "type": "event"
    },
    {
      "inputs": [],
      "name": "LOCK_DURATION",
      "outputs": [
        {
          "internalType": "uint256",
          "name": "",
          "type": "uint256"
        }
      ],
      "stateMutability": "view",
      "type": "function"
    },
    {
      "inputs": [
        {
          "internalType": "address",
          "name": "savingsContract",
          "type": "address"
        }
      ],
      "name": "batchExecute",
      "outputs": [],
      "stateMutability": "nonpayable",
      "type": "function"
    },
    {
      "inputs": [],
      "name": "checkExecutionStatus",
      "outputs": [
        {
          "internalType": "bool",
          "name": "canExecute",
          "type": "bool"
        }
      ],
      "stateMutability": "view",
      "type": "function"
    },
    {
      "inputs": [],
      "name": "contractCache",
      "outputs": [
        {
          "internalType": "uint256",
          "name": "",
          "type": "uint256"
        }
      ],
      "stateMutability": "view",
      "type": "function"
    },
    {
      "inputs": [
        {
          "internalType": "uint256",
          "name": "amount",
          "type": "uint256"
        }
      ],
      "name": "deposit",
      "outputs": [],
      "stateMutability": "nonpayable",
      "type": "function"
    },
    {
      "inputs": [
        {
          "internalType": "address",
          "name": "",
          "type": "address"
        }
      ],
      "name": "depositStatus",
      "outputs": [
        {
          "internalType": "bool",
          "name": "",
          "type": "bool"
        }
      ],
      "stateMutability": "view",
      "type": "function"
    },
    {
      "inputs": [
        {
          "internalType": "address",
          "name": "target",
          "type": "address"
        }
      ],
      "name": "getBalance",
      "outputs": [
        {
          "internalType": "uint256",
          "name": "balance",
          "type": "uint256"
        }
      ],
      "stateMutability": "view",
      "type": "function"
    },
    {
      "inputs": [
        {
          "internalType": "address",
          "name": "target",
          "type": "address"
        }
      ],
      "name": "getCredit",
      "outputs": [
        {
          "internalType": "uint256",
          "name": "credit",
          "type": "uint256"
        }
      ],
      "stateMutability": "view",
      "type": "function"
    },
    {
      "inputs": [],
      "name": "mUSD",
      "outputs": [
        {
          "internalType": "contract IERC20",
          "name": "",
          "type": "address"
        }
      ],
      "stateMutability": "view",
      "type": "function"
    },
    {
      "inputs": [],
      "name": "savingsInterface",
      "outputs": [
        {
          "internalType": "contract ISavingsContractV3",
          "name": "",
          "type": "address"
        }
      ],
      "stateMutability": "view",
      "type": "function"
    },
    {
      "inputs": [],
      "name": "timeIn",
      "outputs": [
        {
          "internalType": "uint256",
          "name": "",
          "type": "uint256"
        }
      ],
      "stateMutability": "view",
      "type": "function"
    },
    {
      "inputs": [
        {
          "internalType": "address",
          "name": "",
          "type": "address"
        }
      ],
      "name": "userBalances",
      "outputs": [
        {
          "internalType": "uint256",
          "name": "",
          "type": "uint256"
        }
      ],
      "stateMutability": "view",
      "type": "function"
    },
    {
      "inputs": [
        {
          "internalType": "address",
          "name": "",
          "type": "address"
        }
      ],
      "name": "userCreditBalance",
      "outputs": [
        {
          "internalType": "uint256",
          "name": "",
          "type": "uint256"
        }
      ],
      "stateMutability": "view",
      "type": "function"
    },
    {
      "inputs": [
        {
          "internalType": "address",
          "name": "target",
          "type": "address"
        }
      ],
      "name": "userStatus",
      "outputs": [
        {
          "internalType": "bool",
          "name": "status",
          "type": "bool"
        }
      ],
      "stateMutability": "view",
      "type": "function"
    },
    {
      "inputs": [
        {
          "internalType": "uint256",
          "name": "amount",
          "type": "uint256"
        }
      ],
      "name": "withdraw",
      "outputs": [
        {
          "internalType": "uint256",
          "name": "",
          "type": "uint256"
        }
      ],
      "stateMutability": "nonpayable",
      "type": "function"
    }
  ],
  "bytecode": {
    "object": "0x608060405261271060065534801561001657600080fd5b50604051610cb6380380610cb683398101604081905261003591610087565b6001600781905580546001600160a01b039384166001600160a01b031991821617909155600080549290931691161790556100ba565b80516001600160a01b038116811461008257600080fd5b919050565b6000806040838503121561009a57600080fd5b6100a38361006b565b91506100b16020840161006b565b90509250929050565b610bed806100c96000396000f3fe608060405234801561001057600080fd5b50600436106100f55760003560e01c80638cd3559311610097578063ed88bb2211610066578063ed88bb2214610211578063f09a1d001461023c578063f3205dfa1461024f578063f8b2cb4f1461027257600080fd5b80638cd35593146101cd578063b6b55f25146101d5578063b98e5d55146101e8578063d23be075146101f157600080fd5b80632e1a7d4d116100d35780632e1a7d4d14610172578063485d38341461018557806357344e6f1461018f5780635cb7eba9146101b857600080fd5b806312cc4af4146100fa578063225d29a11461011657806326224c6414610152575b600080fd5b61010360055481565b6040519081526020015b60405180910390f35b610142610124366004610aee565b6001600160a01b031660009081526004602052604090205460ff1690565b604051901515815260200161010d565b610103610160366004610aee565b60026020526000908152604090205481565b610103610180366004610b40565b61029b565b61010362f1428081565b61010361019d366004610aee565b6001600160a01b031660009081526003602052604090205490565b6101cb6101c6366004610aee565b61059a565b005b61014261085b565b6101cb6101e3366004610b40565b6108f6565b61010360065481565b6101036101ff366004610aee565b60036020526000908152604090205481565b600054610224906001600160a01b031681565b6040516001600160a01b03909116815260200161010d565b600154610224906001600160a01b031681565b61014261025d366004610aee565b60046020526000908152604090205460ff1681565b610103610280366004610aee565b6001600160a01b031660009081526002602052604090205490565b600754600090600214156102c2576040516306fda65d60e31b815260040160405180910390fd5b60026007556005546102d762f1428082610b72565b4210156102f7576040516323621ef360e21b815260040160405180910390fd5b3360009081526004602052604090205460ff166103275760405163aba6bc2360e01b815260040160405180910390fd5b33600090815260036020526040902054808411156103825760405162461bcd60e51b8152602060048201526014602482015273496e73756666696369656e742042616c616e636560601b604482015260640160405180910390fd5b6000805460405163c9f18ebd60e01b8152600481018790526001600160a01b039091169063c9f18ebd90602401602060405180830381600087803b1580156103c957600080fd5b505af11580156103dd573d6000803e3d6000fd5b505050506040513d601f19601f820116820180604052508101906104019190610b59565b33600090815260026020526040812080549293508392909190610425908490610b72565b90915550503360009081526003602052604081208054879290610449908490610b8a565b909155505060015460405163095ea7b360e01b8152306004820152602481018390526001600160a01b039091169063095ea7b390604401602060405180830381600087803b15801561049a57600080fd5b505af11580156104ae573d6000803e3d6000fd5b505050506040513d601f19601f820116820180604052508101906104d29190610b1e565b506001546040516323b872dd60e01b8152306004820152336024820152604481018390526001600160a01b03909116906323b872dd90606401602060405180830381600087803b15801561052557600080fd5b505af1158015610539573d6000803e3d6000fd5b505050506040513d601f19601f8201168201806040525081019061055d9190610b1e565b506040514290829033907f3f359711bf851c641ab8820dd8ca6347edc1ec81030ab5eb5cff40874c6fbdaf90600090a46001600755949350505050565b6006546001546040516370a0823160e01b81523060048201526000916001600160a01b0316906370a082319060240160206040518083038186803b1580156105e157600080fd5b505afa1580156105f5573d6000803e3d6000fd5b505050506040513d601f19601f820116820180604052508101906106199190610b59565b90508181111561063c57604051631b7c609b60e11b815260040160405180910390fd5b60075460021415610660576040516306fda65d60e31b815260040160405180910390fd5b60026007553360009081526004602052604090205460ff1661069557604051630d4d993960e21b815260040160405180910390fd5b426005556001546040516370a0823160e01b81523060048201526000916001600160a01b0316906370a082319060240160206040518083038186803b1580156106dd57600080fd5b505afa1580156106f1573d6000803e3d6000fd5b505050506040513d601f19601f820116820180604052508101906107159190610b59565b60015460405163095ea7b360e01b81526001600160a01b0387811660048301526024820184905292935091169063095ea7b390604401602060405180830381600087803b15801561076557600080fd5b505af1158015610779573d6000803e3d6000fd5b505050506040513d601f19601f8201168201806040525081019061079d9190610b1e565b5060005460405163590745c560e01b8152600481018390523060248201526001600160a01b039091169063590745c590604401602060405180830381600087803b1580156107ea57600080fd5b505af11580156107fe573d6000803e3d6000fd5b505050506040513d601f19601f820116820180604052508101906108229190610b59565b50604051429082907fa5c161c00513f418a46087cd9b227e8bd80530af34b872fb22878b455674ff9a90600090a3505060016007555050565b6006546001546040516370a0823160e01b81523060048201526000929183916001600160a01b03909116906370a082319060240160206040518083038186803b1580156108a757600080fd5b505afa1580156108bb573d6000803e3d6000fd5b505050506040513d601f19601f820116820180604052508101906108df9190610b59565b90508181106108f15760019250505090565b505090565b6007546002141561091a576040516306fda65d60e31b815260040160405180910390fd5b60026007553360009081526004602052604090205460ff161515600114156109555760405163a46e1ab760e01b815260040160405180910390fd5b8061097357604051635972996f60e11b815260040160405180910390fd5b336000908152600260209081526040808320849055600491829052808320805460ff191660011790558254905163087c71b560e31b81529182018490526001600160a01b0316906343e38da89060240160206040518083038186803b1580156109db57600080fd5b505afa1580156109ef573d6000803e3d6000fd5b505050506040513d601f19601f82011682018060405250810190610a139190610b59565b336000818152600360205260409081902083905560015490516323b872dd60e01b81526004810192909252306024830152604482018590529192506001600160a01b03909116906323b872dd90606401602060405180830381600087803b158015610a7d57600080fd5b505af1158015610a91573d6000803e3d6000fd5b505050506040513d601f19601f82011682018060405250810190610ab59190610b1e565b506040514290839033907fa91e0c3165215fe453f5bf3de083d5fd6c4e62c491849155a042a647588c53a090600090a450506001600755565b600060208284031215610b0057600080fd5b81356001600160a01b0381168114610b1757600080fd5b9392505050565b600060208284031215610b3057600080fd5b81518015158114610b1757600080fd5b600060208284031215610b5257600080fd5b5035919050565b600060208284031215610b6b57600080fd5b5051919050565b60008219821115610b8557610b85610ba1565b500190565b600082821015610b9c57610b9c610ba1565b500390565b634e487b7160e01b600052601160045260246000fdfea2646970667358221220960a64e6e69f1b35baf6df6571cea00c27f34f1dfafc43885aaec7caa12781f264736f6c63430008060033",
    "linkReferences": {}
  }
}