{
  "contractName": "ClaimableGovernor",
  "abi": [
    {
      "inputs": [
        {
          "internalType": "address",
          "name": "_governor",
          "type": "address"
        }
      ],
      "payable": false,
      "stateMutability": "nonpayable",
      "type": "constructor"
    },
    {
      "anonymous": false,
      "inputs": [
        {
          "indexed": true,
          "internalType": "address",
          "name": "governor",
          "type": "address"
        },
        {
          "indexed": true,
          "internalType": "address",
          "name": "proposed",
          "type": "address"
        }
      ],
      "name": "GovernorChangeCancelled",
      "type": "event"
    },
    {
      "anonymous": false,
      "inputs": [
        {
          "indexed": true,
          "internalType": "address",
          "name": "previous",
          "type": "address"
        },
        {
          "indexed": true,
          "internalType": "address",
          "name": "newGovernor",
          "type": "address"
        }
      ],
      "name": "GovernorChangeClaimed",
      "type": "event"
    },
    {
      "anonymous": false,
      "inputs": [
        {
          "indexed": true,
          "internalType": "address",
          "name": "governor",
          "type": "address"
        },
        {
          "indexed": true,
          "internalType": "address",
          "name": "proposed",
          "type": "address"
        }
      ],
      "name": "GovernorChangeRequested",
      "type": "event"
    },
    {
      "anonymous": false,
      "inputs": [
        {
          "indexed": true,
          "internalType": "address",
          "name": "previousGovernor",
          "type": "address"
        },
        {
          "indexed": true,
          "internalType": "address",
          "name": "newGovernor",
          "type": "address"
        }
      ],
      "name": "GovernorChanged",
      "type": "event"
    },
    {
      "constant": true,
      "inputs": [],
      "name": "governor",
      "outputs": [
        {
          "internalType": "address",
          "name": "",
          "type": "address"
        }
      ],
      "payable": false,
      "stateMutability": "view",
      "type": "function"
    },
    {
      "constant": true,
      "inputs": [],
      "name": "isGovernor",
      "outputs": [
        {
          "internalType": "bool",
          "name": "",
          "type": "bool"
        }
      ],
      "payable": false,
      "stateMutability": "view",
      "type": "function"
    },
    {
      "constant": true,
      "inputs": [],
      "name": "proposedGovernor",
      "outputs": [
        {
          "internalType": "address",
          "name": "",
          "type": "address"
        }
      ],
      "payable": false,
      "stateMutability": "view",
      "type": "function"
    },
    {
      "constant": false,
      "inputs": [
        {
          "internalType": "address",
          "name": "",
          "type": "address"
        }
      ],
      "name": "changeGovernor",
      "outputs": [],
      "payable": false,
      "stateMutability": "nonpayable",
      "type": "function"
    },
    {
      "constant": false,
      "inputs": [
        {
          "internalType": "address",
          "name": "_proposedGovernor",
          "type": "address"
        }
      ],
      "name": "requestGovernorChange",
      "outputs": [],
      "payable": false,
      "stateMutability": "nonpayable",
      "type": "function"
    },
    {
      "constant": false,
      "inputs": [],
      "name": "cancelGovernorChange",
      "outputs": [],
      "payable": false,
      "stateMutability": "nonpayable",
      "type": "function"
    },
    {
      "constant": false,
      "inputs": [],
      "name": "claimGovernorChange",
      "outputs": [],
      "payable": false,
      "stateMutability": "nonpayable",
      "type": "function"
    }
  ],
  "bytecode": "0x608060405234801561001057600080fd5b506040516107c83803806107c88339818101604052602081101561003357600080fd5b5051600080546001600160a01b03191633178082556040516001600160a01b0391909116919060008051602061077c833981519152908290a361007e816001600160e01b0361008416565b50610112565b6001600160a01b0381166100c95760405162461bcd60e51b815260040180806020018281038252602c81526020018061079c602c913960400191505060405180910390fd5b600080546040516001600160a01b038085169392169160008051602061077c83398151915291a3600080546001600160a01b0319166001600160a01b0392909216919091179055565b61065b806101216000396000f3fe608060405234801561001057600080fd5b506004361061007d5760003560e01c80638c33c19c1161005b5780638c33c19c146100d6578063ad339d7a146100de578063c7af3352146100e6578063e4c0aaf4146101025761007d565b8063099c47bc146100825780630c340a24146100aa5780638a11a370146100ce575b600080fd5b6100a86004803603602081101561009857600080fd5b50356001600160a01b0316610128565b005b6100b261026c565b604080516001600160a01b039092168252519081900360200190f35b6100b261027b565b6100a861028a565b6100a8610385565b6100ee610439565b604080519115158252519081900360200190f35b6100a86004803603602081101561011857600080fd5b50356001600160a01b031661044a565b610130610439565b61016b5760405162461bcd60e51b815260040180806020018281038252602681526020018061058a6026913960400191505060405180910390fd5b6001600160a01b0381166101b05760405162461bcd60e51b815260040180806020018281038252602a8152602001806105b0602a913960400191505060405180910390fd5b6001546001600160a01b03161561020e576040805162461bcd60e51b815260206004820152601d60248201527f50726f706f73656420676f7665726e6f7220616c726561647920736574000000604482015290519081900360640190fd5b600180546001600160a01b0319166001600160a01b03831690811790915561023461026c565b6001600160a01b03167fa48c163cc46eb28aba8bdb525da18f15a83020cc18f439c933d79ea3ad9b50bb60405160405180910390a350565b6000546001600160a01b031690565b6001546001600160a01b031681565b610292610439565b6102cd5760405162461bcd60e51b815260040180806020018281038252602681526020018061058a6026913960400191505060405180910390fd5b6001546001600160a01b031661032a576040805162461bcd60e51b815260206004820152601960248201527f50726f706f73656420476f7665726e6f72206e6f742073657400000000000000604482015290519081900360640190fd5b6001546001600160a01b031661033e61026c565b6001600160a01b03167f2f7bb10f75b8694ea78291d7ca4c9f2a75bc45f0f97046164ad3ee984bdf4bba60405160405180910390a3600180546001600160a01b0319169055565b6001546001600160a01b031633146103ce5760405162461bcd60e51b81526004018080602001828103825260218152602001806106066021913960400191505060405180910390fd5b6001546103e3906001600160a01b03166104c4565b6103eb61026c565b6001546040516001600160a01b0392831692909116907f6898bac81eb5fd0fc83271b744dfb186bba5a0ad4ac339fa0d824faad5ace18290600090a3600180546001600160a01b0319169055565b6000546001600160a01b0316331490565b610452610439565b61048d5760405162461bcd60e51b815260040180806020018281038252602681526020018061058a6026913960400191505060405180910390fd5b60405162461bcd60e51b81526004018080602001828103825260258152602001806105656025913960400191505060405180910390fd5b6001600160a01b0381166105095760405162461bcd60e51b815260040180806020018281038252602c8152602001806105da602c913960400191505060405180910390fd5b600080546040516001600160a01b03808516939216917fde4b3f61490b74c0ed6237523974fe299126bbbf8a8a7482fd220104c59b0c8491a3600080546001600160a01b0319166001600160a01b039290921691909117905556fe446972656374206368616e6765206f6620476f7665726e6f72206e6f7420616c6c6f776564476f7665726e61626c653a2063616c6c6572206973206e6f742074686520476f7665726e6f7250726f706f73656420676f7665726e6f7220697320746865207a65726f207a65726f2061646472657373476f7665726e61626c653a206e657720476f7665726e6f7220697320746865207a65726f206164647265737353656e646572206973206e6f7420612070726f706f73656420676f7665726e6f72a265627a7a72315820892134f7bb4ca8f6301117301c2bcf28be7ef26c93e8ccef84b81687d07afb4664736f6c63430005100032de4b3f61490b74c0ed6237523974fe299126bbbf8a8a7482fd220104c59b0c84476f7665726e61626c653a206e657720476f7665726e6f7220697320746865207a65726f2061646472657373",
  "source": "pragma solidity ^0.5.12;\n\nimport { Governable } from \"./Governable.sol\";\n\n/**\n * @title 2 way handshake for Governance transfer\n */\ncontract ClaimableGovernor is Governable {\n\n    address public proposedGovernor;\n\n    event GovernorChangeClaimed(address indexed previous, address indexed newGovernor);\n    event GovernorChangeCancelled(address indexed governor, address indexed proposed);\n    event GovernorChangeRequested(address indexed governor, address indexed proposed);\n\n    /**\n     * @dev Throws if called by any account other than the Proposed Governor.\n     */\n    modifier onlyProposedGovernor() {\n        require(msg.sender == proposedGovernor, \"Sender is not a proposed governor\");\n        _;\n    }\n\n    constructor(address _governor) public {\n        _changeGovernor(_governor);\n    }\n\n    //@override\n    function changeGovernor(address) public onlyGovernor {\n        revert(\"Direct change of Governor not allowed\");\n    }\n\n    /**\n     * @dev Current Governor request to proposes a new Governor\n     * @param _proposedGovernor Address of the proposed Governor\n     */\n    function requestGovernorChange(address _proposedGovernor) public onlyGovernor {\n        require(_proposedGovernor != address(0), \"Proposed governor is the zero zero address\");\n        require(proposedGovernor == address(0), \"Proposed governor already set\");\n\n        proposedGovernor = _proposedGovernor;\n        emit GovernorChangeRequested(governor(), _proposedGovernor);\n    }\n\n    /**\n     * @dev Current Governor cancel Governor change request\n     */\n    function cancelGovernorChange() public onlyGovernor {\n        require(proposedGovernor != address(0), \"Proposed Governor not set\");\n\n        emit GovernorChangeCancelled(governor(), proposedGovernor);\n        proposedGovernor = address(0);\n    }\n\n    /**\n     * @dev Proposed Governor can claim governance ownership\n     */\n    function claimGovernorChange() public onlyProposedGovernor {\n        _changeGovernor(proposedGovernor);\n        emit GovernorChangeClaimed(proposedGovernor, governor());\n        proposedGovernor = address(0);\n    }\n}\n",
  "sourcePath": "/home/alex/projects/stability-labs/mstable/mstable-contracts/contracts/governance/ClaimableGovernor.sol",
  "compiler": {
    "name": "solc",
    "version": "0.5.16+commit.9c3226ce.Emscripten.clang"
  },
  "schemaVersion": "3.0.23",
  "updatedAt": "2020-02-17T19:56:32.767Z",
  "devdoc": {
    "methods": {
      "cancelGovernorChange()": {
        "details": "Current Governor cancel Governor change request"
      },
      "claimGovernorChange()": {
        "details": "Proposed Governor can claim governance ownership"
      },
      "governor()": {
        "details": "Returns the address of the current Governor."
      },
      "isGovernor()": {
        "details": "Returns true if the caller is the current Governor."
      },
      "requestGovernorChange(address)": {
        "details": "Current Governor request to proposes a new Governor",
        "params": {
          "_proposedGovernor": "Address of the proposed Governor"
        }
      }
    },
    "title": "2 way handshake for Governance transfer"
  },
  "userdoc": {
    "methods": {}
  }
}