{
  "contractName": "DelayedClaimableGovernor",
  "abi": [
    {
      "inputs": [
        {
          "internalType": "address",
          "name": "_governor",
          "type": "address"
        },
        {
          "internalType": "uint256",
          "name": "_delay",
          "type": "uint256"
        }
      ],
      "payable": false,
      "stateMutability": "nonpayable",
      "type": "constructor"
    },
    {
      "anonymous": false,
      "inputs": [
        {
          "indexed": true,
          "internalType": "address",
          "name": "governor",
          "type": "address"
        },
        {
          "indexed": true,
          "internalType": "address",
          "name": "proposed",
          "type": "address"
        }
      ],
      "name": "GovernorChangeCancelled",
      "type": "event"
    },
    {
      "anonymous": false,
      "inputs": [
        {
          "indexed": true,
          "internalType": "address",
          "name": "proposedGovernor",
          "type": "address"
        }
      ],
      "name": "GovernorChangeClaimed",
      "type": "event"
    },
    {
      "anonymous": false,
      "inputs": [
        {
          "indexed": true,
          "internalType": "address",
          "name": "governor",
          "type": "address"
        },
        {
          "indexed": true,
          "internalType": "address",
          "name": "proposed",
          "type": "address"
        }
      ],
      "name": "GovernorChangeRequested",
      "type": "event"
    },
    {
      "anonymous": false,
      "inputs": [
        {
          "indexed": true,
          "internalType": "address",
          "name": "previousGovernor",
          "type": "address"
        },
        {
          "indexed": true,
          "internalType": "address",
          "name": "newGovernor",
          "type": "address"
        }
      ],
      "name": "GovernorChanged",
      "type": "event"
    },
    {
      "constant": false,
      "inputs": [
        {
          "internalType": "address",
          "name": "",
          "type": "address"
        }
      ],
      "name": "changeGovernor",
      "outputs": [],
      "payable": false,
      "stateMutability": "nonpayable",
      "type": "function"
    },
    {
      "constant": true,
      "inputs": [],
      "name": "delay",
      "outputs": [
        {
          "internalType": "uint256",
          "name": "",
          "type": "uint256"
        }
      ],
      "payable": false,
      "stateMutability": "view",
      "type": "function"
    },
    {
      "constant": true,
      "inputs": [],
      "name": "governor",
      "outputs": [
        {
          "internalType": "address",
          "name": "",
          "type": "address"
        }
      ],
      "payable": false,
      "stateMutability": "view",
      "type": "function"
    },
    {
      "constant": true,
      "inputs": [],
      "name": "isGovernor",
      "outputs": [
        {
          "internalType": "bool",
          "name": "",
          "type": "bool"
        }
      ],
      "payable": false,
      "stateMutability": "view",
      "type": "function"
    },
    {
      "constant": true,
      "inputs": [],
      "name": "proposedGovernor",
      "outputs": [
        {
          "internalType": "address",
          "name": "",
          "type": "address"
        }
      ],
      "payable": false,
      "stateMutability": "view",
      "type": "function"
    },
    {
      "constant": true,
      "inputs": [],
      "name": "requestTime",
      "outputs": [
        {
          "internalType": "uint256",
          "name": "",
          "type": "uint256"
        }
      ],
      "payable": false,
      "stateMutability": "view",
      "type": "function"
    },
    {
      "constant": false,
      "inputs": [
        {
          "internalType": "address",
          "name": "_proposedGovernor",
          "type": "address"
        }
      ],
      "name": "requestGovernorChange",
      "outputs": [],
      "payable": false,
      "stateMutability": "nonpayable",
      "type": "function"
    },
    {
      "constant": false,
      "inputs": [],
      "name": "cancelGovernorChange",
      "outputs": [],
      "payable": false,
      "stateMutability": "nonpayable",
      "type": "function"
    },
    {
      "constant": false,
      "inputs": [],
      "name": "claimGovernorChange",
      "outputs": [],
      "payable": false,
      "stateMutability": "nonpayable",
      "type": "function"
    }
  ],
  "bytecode": "0x608060405234801561001057600080fd5b50604051610a1a380380610a1a8339818101604052604081101561003357600080fd5b508051602090910151600080546001600160a01b031916331780825560405184926001600160a01b039290921691906000805160206109ce833981519152908290a3610087816001600160e01b036100e616565b50600081116100dd576040805162461bcd60e51b815260206004820152601f60248201527f44656c6179206d7573742062652067726561746572207468656e207a65726f00604482015290519081900360640190fd5b60025550610174565b6001600160a01b03811661012b5760405162461bcd60e51b815260040180806020018281038252602c8152602001806109ee602c913960400191505060405180910390fd5b600080546040516001600160a01b03808516939216916000805160206109ce83398151915291a3600080546001600160a01b0319166001600160a01b0392909216919091179055565b61084b806101836000396000f3fe608060405234801561001057600080fd5b50600436106100935760003560e01c80638c33c19c116100665780638c33c19c14610106578063ad339d7a1461010e578063c7af335214610116578063d7fd0e7714610132578063e4c0aaf41461013a57610093565b8063099c47bc146100985780630c340a24146100c05780636a42b8f8146100e45780638a11a370146100fe575b600080fd5b6100be600480360360208110156100ae57600080fd5b50356001600160a01b0316610160565b005b6100c86101b3565b604080516001600160a01b039092168252519081900360200190f35b6100ec6101c2565b60408051918252519081900360200190f35b6100c86101c8565b6100be6101d7565b6100be610229565b61011e6102db565b604080519115158252519081900360200190f35b6100ec6102ec565b6100be6004803603602081101561015057600080fd5b50356001600160a01b03166102f2565b6101686102db565b6101a35760405162461bcd60e51b815260040180806020018281038252602681526020018061077a6026913960400191505060405180910390fd5b426003556101b08161036c565b50565b6000546001600160a01b031690565b60025481565b6001546001600160a01b031681565b6101df6102db565b61021a5760405162461bcd60e51b815260040180806020018281038252602681526020018061077a6026913960400191505060405180910390fd5b60006003556102276104b0565b565b6001546001600160a01b031633146102725760405162461bcd60e51b81526004018080602001828103825260218152602001806107f66021913960400191505060405180910390fd5b6002546003546102879163ffffffff6105ab16565b4210156102cc576040805162461bcd60e51b815260206004820152600e60248201526d2232b630bc903737ba1037bb32b960911b604482015290519081900360640190fd5b6102d461060c565b6000600355565b6000546001600160a01b0316331490565b60035481565b6102fa6102db565b6103355760405162461bcd60e51b815260040180806020018281038252602681526020018061077a6026913960400191505060405180910390fd5b60405162461bcd60e51b81526004018080602001828103825260258152602001806107556025913960400191505060405180910390fd5b6103746102db565b6103af5760405162461bcd60e51b815260040180806020018281038252602681526020018061077a6026913960400191505060405180910390fd5b6001600160a01b0381166103f45760405162461bcd60e51b815260040180806020018281038252602a8152602001806107a0602a913960400191505060405180910390fd5b6001546001600160a01b031615610452576040805162461bcd60e51b815260206004820152601d60248201527f50726f706f73656420676f7665726e6f7220616c726561647920736574000000604482015290519081900360640190fd5b600180546001600160a01b0319166001600160a01b0383169081179091556104786101b3565b6001600160a01b03167fa48c163cc46eb28aba8bdb525da18f15a83020cc18f439c933d79ea3ad9b50bb60405160405180910390a350565b6104b86102db565b6104f35760405162461bcd60e51b815260040180806020018281038252602681526020018061077a6026913960400191505060405180910390fd5b6001546001600160a01b0316610550576040805162461bcd60e51b815260206004820152601960248201527f50726f706f73656420476f7665726e6f72206e6f742073657400000000000000604482015290519081900360640190fd5b6001546001600160a01b03166105646101b3565b6001600160a01b03167f2f7bb10f75b8694ea78291d7ca4c9f2a75bc45f0f97046164ad3ee984bdf4bba60405160405180910390a3600180546001600160a01b0319169055565b600082820183811015610605576040805162461bcd60e51b815260206004820152601b60248201527f536166654d6174683a206164646974696f6e206f766572666c6f770000000000604482015290519081900360640190fd5b9392505050565b6001546001600160a01b031633146106555760405162461bcd60e51b81526004018080602001828103825260218152602001806107f66021913960400191505060405180910390fd5b60015461066a906001600160a01b03166106b4565b6001546040516001600160a01b03909116907f0ad714cb5607f3b529b5d3292190925ae992a77b291e39ec09c390d4787896ba90600090a2600180546001600160a01b0319169055565b6001600160a01b0381166106f95760405162461bcd60e51b815260040180806020018281038252602c8152602001806107ca602c913960400191505060405180910390fd5b600080546040516001600160a01b03808516939216917fde4b3f61490b74c0ed6237523974fe299126bbbf8a8a7482fd220104c59b0c8491a3600080546001600160a01b0319166001600160a01b039290921691909117905556fe446972656374206368616e6765206f6620476f7665726e6f72206e6f7420616c6c6f776564476f7665726e61626c653a2063616c6c6572206973206e6f742074686520476f7665726e6f7250726f706f73656420676f7665726e6f7220697320746865207a65726f207a65726f2061646472657373476f7665726e61626c653a206e657720476f7665726e6f7220697320746865207a65726f206164647265737353656e646572206973206e6f7420612070726f706f73656420676f7665726e6f72a265627a7a72315820c36ab4b1b41502a0677c79c090b2f7c5a0fe43873aa239a5ac384787906cad3564736f6c63430005100032de4b3f61490b74c0ed6237523974fe299126bbbf8a8a7482fd220104c59b0c84476f7665726e61626c653a206e657720476f7665726e6f7220697320746865207a65726f2061646472657373",
  "source": "pragma solidity ^0.5.12;\n\nimport { ClaimableGovernor } from \"./ClaimableGovernor.sol\";\nimport { SafeMath } from \"openzeppelin-solidity/contracts/math/SafeMath.sol\";\n\n/**\n * @title Current Goverenor can initiate governance change request.\n * After a defined delay, proposed Governor can claim governance\n * ownership.\n */\ncontract DelayedClaimableGovernor is ClaimableGovernor {\n\n    using SafeMath for uint256;\n\n    uint256 public delay;\n    uint256 public requestTime;\n\n    /**\n     * @dev Initializes the contract with given delay\n     * @param _delay Delay in seconds for 2 way handshake\n     */\n    constructor(address _governor, uint256 _delay)\n    public\n    ClaimableGovernor(_governor) {\n        require(_delay > 0, \"Delay must be greater then zero\");\n        delay = _delay;\n    }\n\n    //@override\n    /**\n     * @notice Requests change of governor and logs request time\n     * @param _proposedGovernor Address of the new governor\n     */\n    function requestGovernorChange(address _proposedGovernor) public onlyGovernor {\n        requestTime = now;\n        super.requestGovernorChange(_proposedGovernor);\n    }\n\n    //override\n    /**\n     * @notice Cancels an outstanding governor change request by resetting request time\n     */\n    function cancelGovernorChange() public onlyGovernor {\n        requestTime = 0;\n        super.cancelGovernorChange();\n    }\n\n    //override\n    /**\n     * @notice Proposed governor claims new position, callable after time elapsed\n     */\n    function claimGovernorChange() public onlyProposedGovernor {\n        require(now >= (requestTime.add(delay)), \"Delay not over\");\n        super.claimGovernorChange();\n        requestTime = 0;\n    }\n}",
  "sourcePath": "/home/alex/projects/stability-labs/mstable/mstable-contracts/contracts/governance/DelayedClaimableGovernor.sol",
  "compiler": {
    "name": "solc",
    "version": "0.5.16+commit.9c3226ce.Emscripten.clang"
  },
  "schemaVersion": "3.0.23",
  "updatedAt": "2020-02-19T11:32:10.575Z",
  "devdoc": {
    "methods": {
      "constructor": {
        "details": "Initializes the contract with given delay",
        "params": {
          "_delay": "Delay in seconds for 2 way handshake"
        }
      },
      "governor()": {
        "details": "Returns the address of the current Governor."
      },
      "isGovernor()": {
        "details": "Returns true if the caller is the current Governor."
      },
      "requestGovernorChange(address)": {
        "params": {
          "_proposedGovernor": "Address of the new governor"
        }
      }
    },
    "title": "Current Goverenor can initiate governance change request. After a defined delay, proposed Governor can claim governance ownership."
  },
  "userdoc": {
    "methods": {
      "cancelGovernorChange()": {
        "notice": "Cancels an outstanding governor change request by resetting request time"
      },
      "claimGovernorChange()": {
        "notice": "Proposed governor claims new position, callable after time elapsed"
      },
      "requestGovernorChange(address)": {
        "notice": "Requests change of governor and logs request time"
      }
    }
  }
}