{
  "contractName": "ForgeRewardsMUSD",
  "abi": [
    {
      "inputs": [
        {
          "internalType": "contract IMasset",
          "name": "_mUSD",
          "type": "address"
        },
        {
          "internalType": "contract ISystok",
          "name": "_MTA",
          "type": "address"
        },
        {
          "internalType": "address",
          "name": "_governor",
          "type": "address"
        }
      ],
      "payable": false,
      "stateMutability": "nonpayable",
      "type": "constructor"
    },
    {
      "anonymous": false,
      "inputs": [
        {
          "indexed": true,
          "internalType": "uint256",
          "name": "trancheNumber",
          "type": "uint256"
        },
        {
          "indexed": false,
          "internalType": "uint256",
          "name": "mintVolume",
          "type": "uint256"
        }
      ],
      "name": "MintVolumeIncreased",
      "type": "event"
    },
    {
      "anonymous": false,
      "inputs": [
        {
          "indexed": true,
          "internalType": "address",
          "name": "rewardee",
          "type": "address"
        },
        {
          "indexed": false,
          "internalType": "uint256",
          "name": "trancheNumber",
          "type": "uint256"
        },
        {
          "indexed": false,
          "internalType": "uint256",
          "name": "rewardAllocation",
          "type": "uint256"
        }
      ],
      "name": "RewardClaimed",
      "type": "event"
    },
    {
      "anonymous": false,
      "inputs": [
        {
          "indexed": true,
          "internalType": "address",
          "name": "rewardee",
          "type": "address"
        },
        {
          "indexed": false,
          "internalType": "uint256",
          "name": "trancheNumber",
          "type": "uint256"
        },
        {
          "indexed": false,
          "internalType": "uint256",
          "name": "rewardAllocation",
          "type": "uint256"
        }
      ],
      "name": "RewardRedeemed",
      "type": "event"
    },
    {
      "anonymous": false,
      "inputs": [
        {
          "indexed": true,
          "internalType": "uint256",
          "name": "trancheNumber",
          "type": "uint256"
        },
        {
          "indexed": true,
          "internalType": "address",
          "name": "rewardee",
          "type": "address"
        },
        {
          "indexed": false,
          "internalType": "uint256",
          "name": "mintVolume",
          "type": "uint256"
        }
      ],
      "name": "RewardeeMintVolumeIncreased",
      "type": "event"
    },
    {
      "anonymous": false,
      "inputs": [
        {
          "indexed": true,
          "internalType": "uint256",
          "name": "trancheNumber",
          "type": "uint256"
        },
        {
          "indexed": false,
          "internalType": "uint256",
          "name": "fundAmount",
          "type": "uint256"
        }
      ],
      "name": "TrancheFunded",
      "type": "event"
    },
    {
      "anonymous": false,
      "inputs": [
        {
          "indexed": true,
          "internalType": "uint256",
          "name": "trancheNumber",
          "type": "uint256"
        },
        {
          "indexed": false,
          "internalType": "uint256",
          "name": "amountWithdrawn",
          "type": "uint256"
        }
      ],
      "name": "UnclaimedRewardWithdrawn",
      "type": "event"
    },
    {
      "constant": true,
      "inputs": [],
      "name": "MTA",
      "outputs": [
        {
          "internalType": "contract ISystok",
          "name": "",
          "type": "address"
        }
      ],
      "payable": false,
      "stateMutability": "view",
      "type": "function"
    },
    {
      "constant": true,
      "inputs": [],
      "name": "claimPeriod",
      "outputs": [
        {
          "internalType": "uint256",
          "name": "",
          "type": "uint256"
        }
      ],
      "payable": false,
      "stateMutability": "view",
      "type": "function"
    },
    {
      "constant": true,
      "inputs": [],
      "name": "governor",
      "outputs": [
        {
          "internalType": "address",
          "name": "",
          "type": "address"
        }
      ],
      "payable": false,
      "stateMutability": "view",
      "type": "function"
    },
    {
      "constant": true,
      "inputs": [],
      "name": "lockupPeriod",
      "outputs": [
        {
          "internalType": "uint256",
          "name": "",
          "type": "uint256"
        }
      ],
      "payable": false,
      "stateMutability": "view",
      "type": "function"
    },
    {
      "constant": true,
      "inputs": [],
      "name": "mUSD",
      "outputs": [
        {
          "internalType": "contract IMasset",
          "name": "",
          "type": "address"
        }
      ],
      "payable": false,
      "stateMutability": "view",
      "type": "function"
    },
    {
      "constant": true,
      "inputs": [],
      "name": "rewardStartTime",
      "outputs": [
        {
          "internalType": "uint256",
          "name": "",
          "type": "uint256"
        }
      ],
      "payable": false,
      "stateMutability": "view",
      "type": "function"
    },
    {
      "constant": true,
      "inputs": [],
      "name": "tranchePeriod",
      "outputs": [
        {
          "internalType": "uint256",
          "name": "",
          "type": "uint256"
        }
      ],
      "payable": false,
      "stateMutability": "view",
      "type": "function"
    },
    {
      "constant": false,
      "inputs": [
        {
          "internalType": "address",
          "name": "_newGovernor",
          "type": "address"
        }
      ],
      "name": "changeGovernor",
      "outputs": [],
      "payable": false,
      "stateMutability": "nonpayable",
      "type": "function"
    },
    {
      "constant": false,
      "inputs": [],
      "name": "approveAllBassets",
      "outputs": [],
      "payable": false,
      "stateMutability": "nonpayable",
      "type": "function"
    },
    {
      "constant": false,
      "inputs": [
        {
          "internalType": "address",
          "name": "_bAsset",
          "type": "address"
        }
      ],
      "name": "approveFor",
      "outputs": [],
      "payable": false,
      "stateMutability": "nonpayable",
      "type": "function"
    },
    {
      "constant": false,
      "inputs": [
        {
          "internalType": "uint32",
          "name": "_bAssetBitmap",
          "type": "uint32"
        },
        {
          "internalType": "uint256[]",
          "name": "_bassetQuantities",
          "type": "uint256[]"
        },
        {
          "internalType": "address",
          "name": "_massetRecipient",
          "type": "address"
        },
        {
          "internalType": "address",
          "name": "_rewardRecipient",
          "type": "address"
        }
      ],
      "name": "mintTo",
      "outputs": [
        {
          "internalType": "uint256",
          "name": "massetMinted",
          "type": "uint256"
        }
      ],
      "payable": false,
      "stateMutability": "nonpayable",
      "type": "function"
    },
    {
      "constant": false,
      "inputs": [
        {
          "internalType": "address",
          "name": "_basset",
          "type": "address"
        },
        {
          "internalType": "uint256",
          "name": "_bassetQuantity",
          "type": "uint256"
        },
        {
          "internalType": "address",
          "name": "_massetRecipient",
          "type": "address"
        },
        {
          "internalType": "address",
          "name": "_rewardRecipient",
          "type": "address"
        }
      ],
      "name": "mintSingleTo",
      "outputs": [
        {
          "internalType": "uint256",
          "name": "massetMinted",
          "type": "uint256"
        }
      ],
      "payable": false,
      "stateMutability": "nonpayable",
      "type": "function"
    },
    {
      "constant": false,
      "inputs": [
        {
          "internalType": "uint256",
          "name": "_trancheNumber",
          "type": "uint256"
        }
      ],
      "name": "claimReward",
      "outputs": [
        {
          "internalType": "bool",
          "name": "claimed",
          "type": "bool"
        }
      ],
      "payable": false,
      "stateMutability": "nonpayable",
      "type": "function"
    },
    {
      "constant": false,
      "inputs": [
        {
          "internalType": "uint256",
          "name": "_trancheNumber",
          "type": "uint256"
        },
        {
          "internalType": "address",
          "name": "_rewardee",
          "type": "address"
        }
      ],
      "name": "claimReward",
      "outputs": [
        {
          "internalType": "bool",
          "name": "claimed",
          "type": "bool"
        }
      ],
      "payable": false,
      "stateMutability": "nonpayable",
      "type": "function"
    },
    {
      "constant": false,
      "inputs": [
        {
          "internalType": "uint256",
          "name": "_trancheNumber",
          "type": "uint256"
        }
      ],
      "name": "redeemReward",
      "outputs": [
        {
          "internalType": "bool",
          "name": "redeemed",
          "type": "bool"
        }
      ],
      "payable": false,
      "stateMutability": "nonpayable",
      "type": "function"
    },
    {
      "constant": false,
      "inputs": [
        {
          "internalType": "uint256",
          "name": "_trancheNumber",
          "type": "uint256"
        },
        {
          "internalType": "address",
          "name": "_rewardee",
          "type": "address"
        }
      ],
      "name": "redeemReward",
      "outputs": [
        {
          "internalType": "bool",
          "name": "redeemed",
          "type": "bool"
        }
      ],
      "payable": false,
      "stateMutability": "nonpayable",
      "type": "function"
    },
    {
      "constant": false,
      "inputs": [
        {
          "internalType": "uint256",
          "name": "_trancheNumber",
          "type": "uint256"
        },
        {
          "internalType": "uint256",
          "name": "_fundQuantity",
          "type": "uint256"
        }
      ],
      "name": "fundTranche",
      "outputs": [],
      "payable": false,
      "stateMutability": "nonpayable",
      "type": "function"
    },
    {
      "constant": false,
      "inputs": [
        {
          "internalType": "uint256",
          "name": "_trancheNumber",
          "type": "uint256"
        }
      ],
      "name": "withdrawUnclaimedRewards",
      "outputs": [],
      "payable": false,
      "stateMutability": "nonpayable",
      "type": "function"
    },
    {
      "constant": true,
      "inputs": [
        {
          "internalType": "uint256",
          "name": "_trancheNumber",
          "type": "uint256"
        }
      ],
      "name": "getTrancheData",
      "outputs": [
        {
          "internalType": "uint256",
          "name": "startTime",
          "type": "uint256"
        },
        {
          "internalType": "uint256",
          "name": "endTime",
          "type": "uint256"
        },
        {
          "internalType": "uint256",
          "name": "claimEndTime",
          "type": "uint256"
        },
        {
          "internalType": "uint256",
          "name": "unlockTime",
          "type": "uint256"
        },
        {
          "internalType": "uint256",
          "name": "totalMintVolume",
          "type": "uint256"
        },
        {
          "internalType": "uint256",
          "name": "totalRewardUnits",
          "type": "uint256"
        },
        {
          "internalType": "uint256",
          "name": "unclaimedRewardUnits",
          "type": "uint256"
        },
        {
          "internalType": "address[]",
          "name": "rewardees",
          "type": "address[]"
        }
      ],
      "payable": false,
      "stateMutability": "view",
      "type": "function"
    },
    {
      "constant": true,
      "inputs": [
        {
          "internalType": "uint256",
          "name": "_trancheNumber",
          "type": "uint256"
        },
        {
          "internalType": "address",
          "name": "_rewardee",
          "type": "address"
        }
      ],
      "name": "getRewardeeData",
      "outputs": [
        {
          "internalType": "bool",
          "name": "mintWindowClosed",
          "type": "bool"
        },
        {
          "internalType": "bool",
          "name": "claimWindowClosed",
          "type": "bool"
        },
        {
          "internalType": "bool",
          "name": "unlocked",
          "type": "bool"
        },
        {
          "internalType": "uint256",
          "name": "mintVolume",
          "type": "uint256"
        },
        {
          "internalType": "bool",
          "name": "claimed",
          "type": "bool"
        },
        {
          "internalType": "uint256",
          "name": "rewardAllocation",
          "type": "uint256"
        },
        {
          "internalType": "bool",
          "name": "redeemed",
          "type": "bool"
        }
      ],
      "payable": false,
      "stateMutability": "view",
      "type": "function"
    },
    {
      "constant": true,
      "inputs": [
        {
          "internalType": "uint256[]",
          "name": "_trancheNumbers",
          "type": "uint256[]"
        },
        {
          "internalType": "address",
          "name": "_rewardee",
          "type": "address"
        }
      ],
      "name": "getRewardeeData",
      "outputs": [
        {
          "internalType": "bool[]",
          "name": "mintWindowClosed",
          "type": "bool[]"
        },
        {
          "internalType": "bool[]",
          "name": "claimWindowClosed",
          "type": "bool[]"
        },
        {
          "internalType": "bool[]",
          "name": "unlocked",
          "type": "bool[]"
        },
        {
          "internalType": "uint256[]",
          "name": "mintVolume",
          "type": "uint256[]"
        },
        {
          "internalType": "bool[]",
          "name": "claimed",
          "type": "bool[]"
        },
        {
          "internalType": "uint256[]",
          "name": "rewardAllocation",
          "type": "uint256[]"
        },
        {
          "internalType": "bool[]",
          "name": "redeemed",
          "type": "bool[]"
        }
      ],
      "payable": false,
      "stateMutability": "view",
      "type": "function"
    },
    {
      "constant": true,
      "inputs": [
        {
          "internalType": "uint256",
          "name": "_trancheNumber",
          "type": "uint256"
        },
        {
          "internalType": "address[]",
          "name": "_rewardees",
          "type": "address[]"
        }
      ],
      "name": "getRewardeesData",
      "outputs": [
        {
          "internalType": "uint256[]",
          "name": "mintVolume",
          "type": "uint256[]"
        },
        {
          "internalType": "bool[]",
          "name": "claimed",
          "type": "bool[]"
        },
        {
          "internalType": "uint256[]",
          "name": "rewardAllocation",
          "type": "uint256[]"
        },
        {
          "internalType": "bool[]",
          "name": "redeemed",
          "type": "bool[]"
        }
      ],
      "payable": false,
      "stateMutability": "view",
      "type": "function"
    }
  ],
  "bytecode": "0x60806040523480156200001157600080fd5b5060405162002a3d38038062002a3d833981810160405260608110156200003757600080fd5b50805160208201516040909201516001600055600280546001600160a01b038085166001600160a01b03199283161790925560038054838716908316179055600480549284169290911691909117905542600555909190620000a16001600160e01b03620000aa16565b5050506200039f565b6004546001600160a01b031633146200010a576040805162461bcd60e51b815260206004820152601e60248201527f4d7573742062652063616c6c65642062792074686520676f7665726e6f720000604482015290519081900360640190fd5b60025460408051631433d0c360e21b815290516060926001600160a01b0316916350cf430c916004808301926000929190829003018186803b1580156200015057600080fd5b505afa15801562000165573d6000803e3d6000fd5b505050506040513d6000823e601f3d908101601f1916820160405260208110156200018f57600080fd5b8101908080516040519392919084640100000000821115620001b057600080fd5b908301906020820185811115620001c657600080fd5b8251866020820283011164010000000082111715620001e457600080fd5b82525081516020918201928201910280838360005b8381101562000213578181015183820152602001620001f9565b50505050905001604052505050905060008090505b81518110156200026057620002578282815181106200024357fe5b60200260200101516200026460201b60201c565b60010162000228565b5050565b6004546001600160a01b03163314620002c4576040805162461bcd60e51b815260206004820152601e60248201527f4d7573742062652063616c6c65642062792074686520676f7665726e6f720000604482015290519081900360640190fd5b6002546040805163095ea7b360e01b81526001600160a01b039283166004820152600019602482015290519183169163095ea7b3916044808201926020929091908290030181600087803b1580156200031c57600080fd5b505af115801562000331573d6000803e3d6000fd5b505050506040513d60208110156200034857600080fd5b50516200039c576040805162461bcd60e51b815260206004820152601960248201527f417070726f76616c206f6620624173736574206661696c656400000000000000604482015290519081900360640190fd5b50565b61268e80620003af6000396000f3fe608060405234801561001057600080fd5b50600436106101425760003560e01c8063ae169a50116100b8578063e21a0aea1161007c578063e21a0aea146106a7578063e4c0aaf41461083f578063e70eb39214610865578063ee947a7c14610891578063f09a1d0014610899578063f0bbc2aa146108a157610142565b8063ae169a50146103ca578063bffbeac9146103e7578063c4fd31471461040a578063c896383a14610436578063ce8e7a121461043e57610142565b80633dd301f41161010a5780633dd301f41461026b57806351a71b17146102f75780635792aec01461032857806364668022146103305780636fa6a5da146103585780637dc2cd98146103c257610142565b80630c340a24146101475780630ff569221461016b5780632211ef6b1461020d5780632cc138be1461025b5780633969255614610263575b600080fd5b61014f6108be565b604080516001600160a01b039092168252519081900360200190f35b6101886004803603602081101561018157600080fd5b50356108cd565b6040518089815260200188815260200187815260200186815260200185815260200184815260200183815260200180602001828103825283818151815260200191508051906020019060200280838360005b838110156101f25781810151838201526020016101da565b50505050905001995050505050505050505060405180910390f35b6102496004803603608081101561022357600080fd5b506001600160a01b038135811691602081013591604082013581169160600135166109ce565b60408051918252519081900360200190f35b610249610b2b565b610249610b31565b6102496004803603608081101561028157600080fd5b63ffffffff8235169190810190604081016020820135600160201b8111156102a857600080fd5b8201836020820111156102ba57600080fd5b803590602001918460208302840111600160201b831117156102db57600080fd5b91935091506001600160a01b0381358116916020013516610b38565b6103146004803603602081101561030d57600080fd5b5035610e70565b604080519115158252519081900360200190f35b61014f610e82565b6103566004803603602081101561034657600080fd5b50356001600160a01b0316610e91565b005b6103846004803603604081101561036e57600080fd5b50803590602001356001600160a01b0316610fb5565b60408051971515885295151560208801529315158686015260608601929092521515608085015260a0840152151560c0830152519081900360e00190f35b61024961107f565b610314600480360360208110156103e057600080fd5b5035611086565b610356600480360360408110156103fd57600080fd5b5080359060200135611092565b6103146004803603604081101561042057600080fd5b50803590602001356001600160a01b03166112b4565b6103566115ca565b6104b56004803603604081101561045457600080fd5b810190602081018135600160201b81111561046e57600080fd5b82018360208201111561048057600080fd5b803590602001918460208302840111600160201b831117156104a157600080fd5b9193509150356001600160a01b031661175c565b604051808060200180602001806020018060200180602001806020018060200188810388528f818151815260200191508051906020019060200280838360005b8381101561050d5781810151838201526020016104f5565b5050505090500188810387528e818151815260200191508051906020019060200280838360005b8381101561054c578181015183820152602001610534565b5050505090500188810386528d818151815260200191508051906020019060200280838360005b8381101561058b578181015183820152602001610573565b5050505090500188810385528c818151815260200191508051906020019060200280838360005b838110156105ca5781810151838201526020016105b2565b5050505090500188810384528b818151815260200191508051906020019060200280838360005b838110156106095781810151838201526020016105f1565b5050505090500188810383528a818151815260200191508051906020019060200280838360005b83811015610648578181015183820152602001610630565b50505050905001888103825289818151815260200191508051906020019060200280838360005b8381101561068757818101518382015260200161066f565b505050509050019e50505050505050505050505050505060405180910390f35b61071c600480360360408110156106bd57600080fd5b81359190810190604081016020820135600160201b8111156106de57600080fd5b8201836020820111156106f057600080fd5b803590602001918460208302840111600160201b8311171561071157600080fd5b50909250905061193f565b6040518080602001806020018060200180602001858103855289818151815260200191508051906020019060200280838360005b83811015610768578181015183820152602001610750565b50505050905001858103845288818151815260200191508051906020019060200280838360005b838110156107a757818101518382015260200161078f565b50505050905001858103835287818151815260200191508051906020019060200280838360005b838110156107e65781810151838201526020016107ce565b50505050905001858103825286818151815260200191508051906020019060200280838360005b8381101561082557818101518382015260200161080d565b505050509050019850505050505050505060405180910390f35b6103566004803603602081101561085557600080fd5b50356001600160a01b0316611a66565b6103146004803603604081101561087b57600080fd5b50803590602001356001600160a01b0316611b28565b610249611db5565b61014f611dbd565b610356600480360360208110156108b757600080fd5b5035611dcc565b6004546001600160a01b031681565b600080600080600080600060606108e26123e9565b60008a815260016020818152604092839020835160808101855281548152928101548383015260028101548385015260048101805485518185028101850190965280865293949193606086019383018282801561096857602002820191906000526020600020905b81546001600160a01b0316815260019091019060200180831161094a575b505050505081525050905061097b612411565b6109848b611fde565b905080600001518160200151826040015183606001518560000151866020015187604001518860600151809050995099509950995099509950995099505050919395975091939597565b604080516323b872dd60e01b81523360048201523060248201526044810185905290516000916001600160a01b038716916323b872dd9160648082019260209290919082900301818787803b158015610a2657600080fd5b505af1158015610a3a573d6000803e3d6000fd5b505050506040513d6020811015610a5057600080fd5b5051610a8d5760405162461bcd60e51b815260040180806020018281038252602a815260200180612508602a913960400191505060405180910390fd5b600254604080516351492f6b60e01b81526001600160a01b038881166004830152602482018890528681166044830152915191909216916351492f6b9160648083019260209291908290030181600087803b158015610aeb57600080fd5b505af1158015610aff573d6000803e3d6000fd5b505050506040513d6020811015610b1557600080fd5b50519050610b238183612063565b949350505050565b60055481565b6224ea0081565b60025460408051632114b99960e21b815263ffffffff8816600482015260ff8616602482015290516000926060926001600160a01b0390911691638452e664916044808201928792909190829003018186803b158015610b9757600080fd5b505afa158015610bab573d6000803e3d6000fd5b505050506040513d6000823e601f3d908101601f191682016040526020811015610bd457600080fd5b8101908080516040519392919084600160201b821115610bf357600080fd5b908301906020820185811115610c0857600080fd5b82518660208202830111600160201b82111715610c2457600080fd5b82525081516020918201928201910280838360005b83811015610c51578181015183820152602001610c39565b50505050905001604052505050905060008090505b8151811015610d98576000878783818110610c7d57fe5b905060200201351115610d9057818181518110610c9657fe5b60200260200101516001600160a01b03166323b872dd33308a8a86818110610cba57fe5b905060200201356040518463ffffffff1660e01b815260040180846001600160a01b03166001600160a01b03168152602001836001600160a01b03166001600160a01b031681526020018281526020019350505050602060405180830381600087803b158015610d2957600080fd5b505af1158015610d3d573d6000803e3d6000fd5b505050506040513d6020811015610d5357600080fd5b5051610d905760405162461bcd60e51b815260040180806020018281038252602a815260200180612508602a913960400191505060405180910390fd5b600101610c66565b50600254604051634d8b06a760e01b815263ffffffff8916600482019081526001600160a01b038781166044840152606060248401908152606484018a9052931692634d8b06a7928b928b928b928b929190608401856020860280828437600081840152601f19601f82011690508083019250505095505050505050602060405180830381600087803b158015610e2e57600080fd5b505af1158015610e42573d6000803e3d6000fd5b505050506040513d6020811015610e5857600080fd5b50519150610e668284612063565b5095945050505050565b6000610e7c82336112b4565b92915050565b6003546001600160a01b031681565b6004546001600160a01b03163314610ede576040805162461bcd60e51b815260206004820152601e602482015260008051602061263a833981519152604482015290519081900360640190fd5b6002546040805163095ea7b360e01b81526001600160a01b039283166004820152600019602482015290519183169163095ea7b3916044808201926020929091908290030181600087803b158015610f3557600080fd5b505af1158015610f49573d6000803e3d6000fd5b505050506040513d6020811015610f5f57600080fd5b5051610fb2576040805162461bcd60e51b815260206004820152601960248201527f417070726f76616c206f6620624173736574206661696c656400000000000000604482015290519081900360640190fd5b50565b6000806000806000806000610fc8612439565b5060008981526001602081815260408084206001600160a01b038d16855260030182529283902083516080810185528154815292810154918301919091526002015460ff80821615159383019390935261010090049091161515606082015261102f612411565b6110388b611fde565b905080602001514211816040015142118260600151421184600001518560400151866020015187606001519850985098509850985098509850505092959891949750929550565b6249d40081565b6000610e7c8233611b28565b6004546001600160a01b031633146110df576040805162461bcd60e51b815260206004820152601e602482015260008051602061263a833981519152604482015290519081900360640190fd5b60008281526001602052604090206110f5612411565b6110fe84611fde565b9050806020015142111561118f5760018201541561114d5760405162461bcd60e51b815260040180806020018281038252602b815260200180612466602b913960400191505060405180910390fd5b8060400151421061118f5760405162461bcd60e51b815260040180806020018281038252602a815260200180612562602a913960400191505060405180910390fd5b60035460048054604080516323b872dd60e01b81526001600160a01b039283169381019390935230602484015260448301879052519216916323b872dd916064808201926020929091908290030181600087803b1580156111ef57600080fd5b505af1158015611203573d6000803e3d6000fd5b505050506040513d602081101561121957600080fd5b50516112565760405162461bcd60e51b81526004018080602001828103825260228152602001806124b46022913960400191505060405180910390fd5b600182015461126b908463ffffffff6121e116565b6001830181905560028301819055604080519182525185917fdb6804f4e038bb69765f0a7999284c9bb4fa6d1da1bf05669a02265a59f93e2a919081900360200190a250505050565b600080546001018082556112c6612411565b6112cf85611fde565b905080606001514211611329576040805162461bcd60e51b815260206004820152601760248201527f526577617264206d75737420626520756e6c6f636b6564000000000000000000604482015290519081900360640190fd5b60008581526001602090815260408083206001600160a01b03881684526003019091529020600281015460ff166113915760405162461bcd60e51b81526004018080602001828103825260328152602001806124d66032913960400191505060405180910390fd5b60008160010154116113d45760405162461bcd60e51b815260040180806020018281038252602c8152602001806125b1602c913960400191505060405180910390fd5b6002810154610100900460ff1615611433576040805162461bcd60e51b815260206004820181905260248201527f5265776172642068617320616c7265616479206265656e2072656465656d6564604482015290519081900360640190fd5b60028101805461ff00191661010017905560035460018201546040805163a9059cbb60e01b81526001600160a01b03898116600483015260248201939093529051919092169163a9059cbb9160448083019260209291908290030181600087803b1580156114a057600080fd5b505af11580156114b4573d6000803e3d6000fd5b505050506040513d60208110156114ca57600080fd5b505161151d576040805162461bcd60e51b815260206004820152601c60248201527f5265776172646565206d75737420726563656976652072657761726400000000604482015290519081900360640190fd5b600181015460408051888152602081019290925280516001600160a01b038816927fc37465ff193f774057dca6e5213393c0be6539811e14d27361449666b618ecff92908290030190a260019350505060005481146115c3576040805162461bcd60e51b815260206004820152601f60248201527f5265656e7472616e637947756172643a207265656e7472616e742063616c6c00604482015290519081900360640190fd5b5092915050565b6004546001600160a01b03163314611617576040805162461bcd60e51b815260206004820152601e602482015260008051602061263a833981519152604482015290519081900360640190fd5b60025460408051631433d0c360e21b815290516060926001600160a01b0316916350cf430c916004808301926000929190829003018186803b15801561165c57600080fd5b505afa158015611670573d6000803e3d6000fd5b505050506040513d6000823e601f3d908101601f19168201604052602081101561169957600080fd5b8101908080516040519392919084600160201b8211156116b857600080fd5b9083019060208201858111156116cd57600080fd5b82518660208202830111600160201b821117156116e957600080fd5b82525081516020918201928201910280838360005b838110156117165781810151838201526020016116fe565b50505050905001604052505050905060008090505b81518110156117585761175082828151811061174357fe5b6020026020010151610e91565b60010161172b565b5050565b60608080808080808860005b8181101561193057611778612411565b6117938d8d8481811061178757fe5b90506020020135611fde565b905061179d612439565b600160008f8f868181106117ad57fe5b90506020020135815260200190815260200160002060030160008d6001600160a01b03166001600160a01b0316815260200190815260200160002060405180608001604052908160008201548152602001600182015481526020016002820160009054906101000a900460ff161515151581526020016002820160019054906101000a900460ff1615151515815250509050816020015142118b848151811061185257fe5b602002602001019015159081151581525050816040015142118a848151811061187757fe5b6020026020010190151590811515815250508160600151421189848151811061189c57fe5b91151560209283029190910190910152805188518990859081106118bc57fe5b60200260200101818152505080604001518784815181106118d957fe5b91151560209283029190910182015281015186518790859081106118f957fe5b602002602001018181525050806060015185848151811061191657fe5b911515602092830291909101909101525050600101611768565b50509397509397509397909450565b60608080808460005b81811015611a5b57611958612439565b60008a8152600160205260408120600301908a8a8581811061197657fe5b602090810292909201356001600160a01b03168352508181019290925260409081016000208151608081018352815480825260018301549482019490945260029091015460ff80821615159383019390935261010090049091161515606082015288519092508890849081106119e857fe5b6020026020010181815250508060400151868381518110611a0557fe5b9115156020928302919091018201528101518551869084908110611a2557fe5b6020026020010181815250508060600151848381518110611a4257fe5b9115156020928302919091019091015250600101611948565b505093509350935093565b6004546001600160a01b03163314611ab3576040805162461bcd60e51b815260206004820152601e602482015260008051602061263a833981519152604482015290519081900360640190fd5b6001600160a01b038116611b06576040805162461bcd60e51b81526020600482015260156024820152744d7573742062652076616c6964206164647265737360581b604482015290519081900360640190fd5b600480546001600160a01b0319166001600160a01b0392909216919091179055565b60008054600190810180835584835260208290526040832091820154909190611b825760405162461bcd60e51b81526004018080602001828103825260308152602001806125326030913960400191505060405180910390fd5b611b8a612411565b611b9386611fde565b9050806020015142118015611bab5750806040015142105b611bfc576040805162461bcd60e51b815260206004820152601e60248201527f526577617264206d75737420626520696e20636c61696d20706572696f640000604482015290519081900360640190fd5b6001600160a01b038516600090815260038301602052604090208054611c535760405162461bcd60e51b81526004018080602001828103825260328152602001806125dd6032913960400191505060405180910390fd5b600281015460ff1615611cad576040805162461bcd60e51b815260206004820152601f60248201527f5265776172642068617320616c7265616479206265656e20636c61696d656400604482015290519081900360640190fd5b82548154600091611cc4919063ffffffff61223916565b9050611cdd84600101548261225a90919063ffffffff16565b60018084018290556002808501805460ff1916909217909155850154611d089163ffffffff61227616565b60028501556001820154604080518a8152602081019290925280516001600160a01b038a16927ff01da32686223933d8a18a391060918c7f11a3648639edd87ae013e2e273174392908290030190a2600195505050505060005481146115c3576040805162461bcd60e51b815260206004820152601f60248201527f5265656e7472616e637947756172643a207265656e7472616e742063616c6c00604482015290519081900360640190fd5b6301dfe20081565b6002546001600160a01b031681565b6004546001600160a01b03163314611e19576040805162461bcd60e51b815260206004820152601e602482015260008051602061263a833981519152604482015290519081900360640190fd5b6000818152600160205260409020611e2f612411565b611e3883611fde565b905080604001514211611e92576040805162461bcd60e51b815260206004820152601e60248201527f436c61696d20706572696f64206d757374206861766520656c61707365640000604482015290519081900360640190fd5b6000826002015411611ed55760405162461bcd60e51b815260040180806020018281038252602b81526020018061260f602b913960400191505060405180910390fd5b600060028301819055600354600480546040805163a9059cbb60e01b81526001600160a01b0392831693810193909352602483018590525192169263a9059cbb926044808401936020939083900390910190829087803b158015611f3857600080fd5b505af1158015611f4c573d6000803e3d6000fd5b505050506040513d6020811015611f6257600080fd5b5051611f9f5760405162461bcd60e51b815260040180806020018281038252602581526020018061258c6025913960400191505060405180910390fd5b6001820154604080519182525184917f41d46715f3130dfd602468173bdabc5e429dd14fd1b1f57fc473ad0389c31ea5919081900360200190a2505050565b611fe6612411565b61200b611ffc836224ea0063ffffffff6122d316565b6005549063ffffffff6121e116565b808252612021906224ea0063ffffffff6121e116565b6020820181905261203b906249d40063ffffffff6121e116565b60408201526020810151612059906301dfe20063ffffffff6121e116565b6060820152919050565b600080546001018082559061207661232d565b600081815260016020526040812080549293509161209a908763ffffffff6121e116565b80835560408051828152905191925084917f5e0f1080ef37d0914c562e18737bebf9f1db427c05c9889699e212c64a3fd9029181900360200190a26001600160a01b0385166000908152600383016020526040902080548061212757600484018054600181018255600091825260209091200180546001600160a01b0319166001600160a01b0389161790555b6000612139828a63ffffffff6121e116565b8084556040805182815290519192506001600160a01b038a169188917f769cf39474b5705c0605646ab0d80dd20114c848b062e7bac015e49d060e2c11919081900360200190a350505050505060005481146121dc576040805162461bcd60e51b815260206004820152601f60248201527f5265656e7472616e637947756172643a207265656e7472616e742063616c6c00604482015290519081900360640190fd5b505050565b81810182811015610e7c576040805162461bcd60e51b815260206004820152601d60248201527f537461626c654d6174683a206164646974696f6e206f766572666c6f77000000604482015290519081900360640190fd5b60008061224e84670de0b6b3a76400006122d3565b9050610b238184612360565b600061226f8383670de0b6b3a76400006123c7565b9392505050565b6000828211156122cd576040805162461bcd60e51b815260206004820181905260248201527f537461626c654d6174683a207375627472616374696f6e206f766572666c6f77604482015290519081900360640190fd5b50900390565b6000826122e257506000610e7c565b50818102818382816122f057fe5b0414610e7c5760405162461bcd60e51b81526004018080602001828103825260238152602001806124916023913960400191505060405180910390fd5b6000806123456005544261227690919063ffffffff16565b905061235a816224ea0063ffffffff61236016565b91505090565b60008082116123b6576040805162461bcd60e51b815260206004820152601c60248201527f537461626c654d6174683a206469766973696f6e206279207a65726f00000000604482015290519081900360640190fd5b8183816123bf57fe5b049392505050565b6000806123d485856122d3565b90506123e08184612360565b95945050505050565b6040518060800160405280600081526020016000815260200160008152602001606081525090565b6040518060800160405280600081526020016000815260200160008152602001600081525090565b60405180608001604052806000815260200160008152602001600015158152602001600015158152509056fe43616e6e6f7420696e6372656173652072657761726420756e69747320616674657220656e642074696d65537461626c654d6174683a206d756c7469706c69636174696f6e206f766572666c6f77476f7665726e6f72206d7573742073656e64207468652066756e64696e67204d54415265776172646565206d7573742068617665206f726967696e616c6c7920636c61696d6564207468656972207265776172644d696e746572206d75737420617070726f766520746865207370656e64696e67206f66206241737365745472616e636865206d7573742062652066756e646564206265666f726520636c61696d696e672063616e20626567696e43616e6e6f742066756e64207472616e6368652061667465722074686520636c61696d20706572696f64476f7665726e6f72206d7573742072656365697665207468652066756e64696e67204d54415265776172646565206d757374206861766520736f6d6520616c6c6f636174696f6e20746f2072656465656d5265776172646565206d7573742068617665206d696e74656420736f6d657468696e6720746f20626520656c696761626c655472616e636865206d75737420636f6e7461696e20756e636c61696d65642072657761726420756e6974734d7573742062652063616c6c65642062792074686520676f7665726e6f720000a265627a7a723158201413913335e33e07e73a9bb2b53b3d0e90f1187521e7493e80e9f4464b4f891c64736f6c63430005100032",
  "source": "pragma solidity ^0.5.12;\n\nimport { IMassetForgeRewards } from \"./IMassetForgeRewards.sol\";\nimport { IMasset } from \"../interfaces/IMasset.sol\";\nimport { ISystok } from \"../interfaces/ISystok.sol\";\nimport { IERC20 } from \"openzeppelin-solidity/contracts/token/ERC20/IERC20.sol\";\nimport { StableMath } from \"../shared/math/StableMath.sol\";\nimport { ReentrancyGuard } from \"../shared/ReentrancyGuard.sol\";\n\n\n/**\n * @title ForgeRewardsMUSD\n * @dev Forge wrapper that rewards minters for their contribution to mUSD liquidity.\n *      Flow is as follows:\n *        - Tranche is funded in MTA by the 'Governor'\n *        - Participants use the mint functions to mint mUSD\n *        - Mint quantity is logged to the specified rewardee in the current tranche\n *        - Tranche period ends, and participants have 8 weeks in which to claim their reward\n *           - Reward allocation is calculated proportionately as f(mintVolume, totalMintVolume, trancheFunding)\n *           - Unclaimed rewards can be retrieved by 'Governor' for future tranches\n *        - Reward allocation is unlocked for redemption after 52 weeks\n */\ncontract ForgeRewardsMUSD is IMassetForgeRewards, ReentrancyGuard {\n\n    using StableMath for uint256;\n\n    event RewardeeMintVolumeIncreased(uint256 indexed trancheNumber, address indexed rewardee, uint256 mintVolume);\n    event MintVolumeIncreased(uint256 indexed trancheNumber, uint256 mintVolume);\n    event RewardClaimed(address indexed rewardee, uint256 trancheNumber, uint256 rewardAllocation);\n    event RewardRedeemed(address indexed rewardee, uint256 trancheNumber, uint256 rewardAllocation);\n    event TrancheFunded(uint256 indexed trancheNumber, uint256 fundAmount);\n    event UnclaimedRewardWithdrawn(uint256 indexed trancheNumber, uint256 amountWithdrawn);\n\n    struct Reward {\n        /** @dev Quantity of mUSD the rewardee has logged this tranche */\n        uint256 mintVolume;\n        /** @dev Quantity of reward the rewardee is allocated */\n        uint256 rewardAllocation;\n        /** @dev Has the rewardee converted her mintVolume into a reward */\n        bool claimed;\n        /** @dev Has the rewardee redeemed her reward */\n        bool redeemed;\n    }\n\n    struct Tranche {\n        /** @dev Total Massets minted in this tranche from all participants */\n        uint256 totalMintVolume;\n\n        /** @dev Total funding received from the rewards Governor */\n        uint256 totalRewardUnits;\n        /** @dev Remaining reward units left unclaimed */\n        uint256 unclaimedRewardUnits;\n\n        mapping(address => Reward) rewardeeData;\n        address[] rewardees;\n    }\n\n    struct TrancheDates {\n        /** @dev Timestamp that minting opens for this tranche */\n        uint256 startTime;\n        /** @dev Timestamp that minting ends for this tranche */\n        uint256 endTime;\n        /** @dev Timestamp that claims finish for the tranche */\n        uint256 claimEndTime;\n        /** @dev Timestamp that the rewarded tokens become unlocked */\n        uint256 unlockTime;\n    }\n\n    /** @dev All data for keeping track of rewards. Tranche ID starts at 0 (see _currentTrancheNumber) */\n    mapping(uint256 => Tranche) private trancheData;\n\n    /** @dev Core connections */\n    IMasset public mUSD;\n    ISystok public MTA;\n\n    /** @dev Governor is responsible for funding the tranches */\n    address public governor;\n\n    /** @dev Timestamp of the initialisation of rewards (start of the contract) */\n    uint256 public rewardStartTime;\n\n    /** @dev Constant timestamps on the tranche data */\n    uint256 constant public tranchePeriod = 4 weeks;\n    uint256 constant public claimPeriod = 8 weeks;\n    uint256 constant public lockupPeriod = 52 weeks;\n\n    constructor(IMasset _mUSD, ISystok _MTA, address _governor) public {\n        mUSD = _mUSD;\n        MTA = _MTA;\n        governor = _governor;\n        rewardStartTime = now;\n        approveAllBassets();\n    }\n\n\n    /***************************************\n                  GOVERNANCE\n    ****************************************/\n\n    /** @dev Verifies that the caller is the Rewards Governor */\n    modifier onlyGovernor() {\n        require(governor == msg.sender, \"Must be called by the governor\");\n        _;\n    }\n\n    /** @dev Rewards governor can choose another governor to fund the tranches */\n    function changeGovernor(address _newGovernor)\n    external\n    onlyGovernor {\n        require(_newGovernor != address(0), \"Must be valid address\");\n        governor = _newGovernor;\n    }\n\n    /***************************************\n                    APPROVAL\n    ****************************************/\n\n    /**\n     * @dev Approve max tokens for mUSD contract for each bAsset\n     */\n    function approveAllBassets() public onlyGovernor {\n        address[] memory bAssets = mUSD.getAllBassetsAddress();\n        for(uint256 i = 0; i < bAssets.length; i++) {\n            approveFor(bAssets[i]);\n        }\n    }\n\n    /**\n     * @dev Approve max tokens for mUSD contact of a given bAsset token contract\n     * @param _bAsset bAsset token address\n     */\n    function approveFor(address _bAsset) public onlyGovernor {\n        require(IERC20(_bAsset).approve(address(mUSD), uint256(-1)), \"Approval of bAsset failed\");\n    }\n\n\n    /***************************************\n                    FORGING\n    ****************************************/\n\n    /**\n     * @dev Mint mUSD to a specified recipient and then log the minted quantity to rewardee.\n     *      bAssets used in the mint must be first transferred here from msg.sender, before\n     *      being approved for spending by the mUSD contract\n     * @param _bassetQuantities   bAsset quantities that will be used during the mint (ordered as per Basket composition)\n     * @param _massetRecipient    Address to which the newly minted mUSD will be sent\n     * @param _rewardRecipient    Address to which the rewards will be attributed\n     * @return massetMinted       Units of mUSD that were minted\n     */\n    function mintTo(\n        uint32 _bAssetBitmap,\n        uint256[] calldata _bassetQuantities,\n        address _massetRecipient,\n        address _rewardRecipient\n    )\n        external\n        returns (uint256 massetMinted)\n    {\n        address[] memory bAssetAddresses = mUSD.convertBitmapToBassetsAddress(_bAssetBitmap, uint8(_bassetQuantities.length));\n        for(uint256 i = 0; i < bAssetAddresses.length; i++) {\n            if(_bassetQuantities[i] > 0){\n                // Transfer the bAssets from sender to rewards contract\n                require(IERC20(bAssetAddresses[i]).transferFrom(msg.sender, address(this), _bassetQuantities[i]),\n                    \"Minter must approve the spending of bAsset\");\n            }\n        }\n        // Do the mUSD mint\n        massetMinted = mUSD.mintBitmapTo(_bAssetBitmap, _bassetQuantities, _massetRecipient);\n\n        // Log volume of minting\n        _logMintVolume(massetMinted, _rewardRecipient);\n    }\n\n    /**\n     * @dev Mint mUSD to a specified recipient and then log the minted quantity to rewardee.\n     *      bAsset used in the mint must be first transferred here from msg.sender, before\n     *      being approved for spending by the mUSD contract\n     * @param _basset             bAsset address that will be used as minting collateral\n     * @param _bassetQuantity     Quantity of the above basset\n     * @param _massetRecipient    Address to which the newly minted mUSD will be sent\n     * @param _rewardRecipient    Address to which the rewards will be attributed\n     * @return massetMinted       Units of mUSD that were minted\n     */\n    function mintSingleTo(\n        address _basset,\n        uint256 _bassetQuantity,\n        address _massetRecipient,\n        address _rewardRecipient\n    )\n        external\n        returns (uint256 massetMinted)\n    {\n        // Option 1: Sender approved this, transfer Bassets here as intermediary, approve mAsset, call mint\n        // Option 2: Sender approves mAsset, call mint, mint calls xfer straight from sender. Caveat is that mAsset must\n        //           have rewards contract whitelisted. If anyone could call, then anyone with an approved balance would be\n        //           subject to robbery\n        // Tradeoff == ~20-40k extra gas vs optionality\n        require(IERC20(_basset).transferFrom(msg.sender, address(this), _bassetQuantity), \"Minter must approve the spending of bAsset\");\n        \n        // Mint the mAsset\n        massetMinted = mUSD.mintSingleTo(_basset, _bassetQuantity, _massetRecipient);\n\n        // Log minting volume\n        _logMintVolume(massetMinted, _rewardRecipient);\n    }\n\n    /**\n     * @dev Internal function to log the minting contribution\n     * @param _volume       Units of mUSD that have been minted, where 1 == 1e18\n     * @param _rewardee     Address to which the volume should be attributed\n     */\n    function _logMintVolume(\n        uint256 _volume,\n        address _rewardee\n    )\n        internal\n        nonReentrant\n    {\n        // Get current tranche based on timestamp\n        uint256 trancheNumber = _currentTrancheNumber();\n        Tranche storage tranche = trancheData[trancheNumber];\n\n        // Add to total minting\n        uint256 newTotalMintVolume = tranche.totalMintVolume.add(_volume);\n        tranche.totalMintVolume = newTotalMintVolume;\n        emit MintVolumeIncreased(trancheNumber, newTotalMintVolume);\n\n        // Set individual user rewards\n        Reward storage reward = tranche.rewardeeData[_rewardee];\n        uint256 currentMintVolume = reward.mintVolume;\n\n        // If this is a new rewardee, add it to array\n        if(currentMintVolume == 0){\n            tranche.rewardees.push(_rewardee);\n        }\n\n        uint256 newMintVolume = currentMintVolume.add(_volume);\n        reward.mintVolume = newMintVolume;\n        emit RewardeeMintVolumeIncreased(trancheNumber, _rewardee, newMintVolume);\n    }\n\n    /***************************************\n                    CLAIMING\n    ****************************************/\n\n    /**\n     * @dev Allows a rewardee to claim their reward allocation. Reward allocation is calculated\n     *      proportionately as f(mintVolume, totalMintVolume, trancheFunding). This must be\n     *      called after the tranche period has ended, and before the claim period has elapsed.\n     * @param _trancheNumber    Number of the tranche to attempt to claim\n     * @return claimed          Bool result of claim\n     */\n    function claimReward(uint256 _trancheNumber)\n    external\n    returns(bool claimed) {\n        return claimReward(_trancheNumber, msg.sender);\n    }\n\n    /**\n     * @dev Allows a rewardee to claim their reward allocation. Reward allocation is calculated\n     *      proportionately as f(mintVolume, totalMintVolume, trancheFunding). This must be\n     *      called after the tranche period has ended, and before the claim period has elapsed.\n     * @param _trancheNumber    Number of the tranche to attempt to claim\n     * @param _rewardee         Address for which the reward should be claimed\n     * @return claimed          Bool result of claim\n     */\n    function claimReward(uint256 _trancheNumber, address _rewardee)\n    public\n    nonReentrant\n    returns(bool claimed) {\n        Tranche storage tranche = trancheData[_trancheNumber];\n        require(tranche.totalRewardUnits > 0, \"Tranche must be funded before claiming can begin\");\n\n        TrancheDates memory trancheDates = _getTrancheDates(_trancheNumber);\n        require(now > trancheDates.endTime && now < trancheDates.claimEndTime, \"Reward must be in claim period\");\n\n        Reward storage reward = tranche.rewardeeData[_rewardee];\n        require(reward.mintVolume > 0, \"Rewardee must have minted something to be eligable\");\n        require(!reward.claimed, \"Reward has already been claimed\");\n\n        // Relative reward is calculated a percentage of total mint\n        // e.g. (1,000e18 * 1e18)/1,000,000e18 == 0.1% or 1e15\n        uint256 rewardeeRelativeMintVolume = reward.mintVolume.divPrecisely(tranche.totalMintVolume);\n        // Allocation is calculated as relative volume * total reward units\n        // e.g. (1e15 * 100,000e18)/1e18 = 100e18\n        reward.rewardAllocation = rewardeeRelativeMintVolume.mulTruncate(tranche.totalRewardUnits);\n        reward.claimed = true;\n        tranche.unclaimedRewardUnits = tranche.unclaimedRewardUnits.sub(reward.rewardAllocation);\n\n        emit RewardClaimed(_rewardee, _trancheNumber, reward.rewardAllocation);\n        return true;\n    }\n\n    /***************************************\n                  REDEMPTION\n    ****************************************/\n\n    /**\n     * @dev Redemption of the previously claimed reward. Must be called after the lockup\n     *      period has elapsed. Only withdraws if the rewardee has > 0 allocated.\n     * @param _trancheNumber    Number of the tranche to attempt to redeem\n     * @return redeemed         Bool to signal the successful redemption\n     */\n    function redeemReward(uint256 _trancheNumber)\n    external\n    returns(bool redeemed) {\n        return redeemReward(_trancheNumber, msg.sender);\n    }\n\n    /**\n     * @dev Redemption of the previously claimed reward. Must be called after the lockup\n     *      period has elapsed. Only withdraws if the rewardee has > 0 allocated.\n     * @param _trancheNumber    Number of the tranche to attempt to redeem\n     * @param _rewardee         Rewardee for whom the redemption should be processed\n     * @return redeemed         Bool to signal the successfull redemption\n     */\n    function redeemReward(uint256 _trancheNumber, address _rewardee)\n    public\n    nonReentrant\n    returns(bool redeemed) {\n        TrancheDates memory trancheDates = _getTrancheDates(_trancheNumber);\n        require(now > trancheDates.unlockTime, \"Reward must be unlocked\");\n\n        Reward storage reward = trancheData[_trancheNumber].rewardeeData[_rewardee];\n        require(reward.claimed, \"Rewardee must have originally claimed their reward\");\n        require(reward.rewardAllocation > 0, \"Rewardee must have some allocation to redeem\");\n        require(!reward.redeemed, \"Reward has already been redeemed\");\n\n        reward.redeemed = true;\n        require(MTA.transfer(_rewardee, reward.rewardAllocation), \"Rewardee must receive reward\");\n\n        emit RewardRedeemed(_rewardee, _trancheNumber, reward.rewardAllocation);\n        return true;\n    }\n\n\n    /***************************************\n                    FUNDING\n    ****************************************/\n\n    /**\n     * @dev Governor funds the tranche with MTA by sending it to the contract.\n     *      Funding times                 Behaviour\n     *      Before tranche 'endTime'      Able to add or top up rewards\n     *      Between 'endTime' and         Only able to add if current funding == 0\n     *              'claimEndTime'\n     *      After 'claimEndTime'          No funding allowed\n     * @param _trancheNumber    Tranche number to fund (starting at 0)\n     * @param _fundQuantity     Amount of MTA to allocate to the tranche\n     */\n    function fundTranche(uint256 _trancheNumber, uint256 _fundQuantity)\n    external\n    onlyGovernor {\n        Tranche storage tranche = trancheData[_trancheNumber];\n        TrancheDates memory trancheDates = _getTrancheDates(_trancheNumber);\n\n        // If the tranche has already closed, the only circumstances the reward may be added\n        // is if the current funding is 0, and the claim period has not yet elapsed\n        // This is for backup circumstances in the event that the tranche was not funded in time\n        if(now > trancheDates.endTime){\n            require(tranche.totalRewardUnits == 0, \"Cannot increase reward units after end time\");\n            require(now < trancheDates.claimEndTime, \"Cannot fund tranche after the claim period\");\n        }\n\n        require(MTA.transferFrom(governor, address(this), _fundQuantity), \"Governor must send the funding MTA\");\n        tranche.totalRewardUnits = tranche.totalRewardUnits.add(_fundQuantity);\n        tranche.unclaimedRewardUnits = tranche.totalRewardUnits;\n\n        emit TrancheFunded(_trancheNumber, tranche.totalRewardUnits);\n    }\n\n    /**\n     * @dev Allows the governor to withdraw any MTA that has not been claimed\n     * @param _trancheNumber  ID of the tranche for which to claim back MTA\n     */\n    function withdrawUnclaimedRewards(uint256 _trancheNumber)\n    external\n    onlyGovernor {\n        Tranche storage tranche = trancheData[_trancheNumber];\n        TrancheDates memory trancheDates = _getTrancheDates(_trancheNumber);\n\n        require(now > trancheDates.claimEndTime, \"Claim period must have elapsed\");\n        require(tranche.unclaimedRewardUnits > 0, \"Tranche must contain unclaimed reward units\");\n\n        tranche.unclaimedRewardUnits = 0;\n        require(MTA.transfer(governor, tranche.unclaimedRewardUnits), \"Governor must receive the funding MTA\");\n\n        emit UnclaimedRewardWithdrawn(_trancheNumber, tranche.totalRewardUnits);\n    }\n\n\n    /***************************************\n              GETTERS - INTERNAL\n    ****************************************/\n\n    /**\n     * @dev Internal helper to fetch the current tranche number based on the timestamp\n     * @return trancheNumber starting with 0\n     */\n    function _currentTrancheNumber() internal view returns(uint256 trancheNumber) {\n        // e.g. now (1000), startTime (600), tranchePeriod (150)\n        // (1000-600)/150 = 2\n        // e.g. now == 650 => 50/150 = 0\n        uint256 totalTimeElapsed = now.sub(rewardStartTime);\n        trancheNumber = totalTimeElapsed.div(tranchePeriod);\n    }\n\n    /**\n     * @dev Gets the relevant start, end, claimEnd and unlock times for a particular tranche.\n     *      Tranche number 0 begins at contract start time.\n     * @param _trancheNumber    ID of the tranche for which to retrieve dates\n     * @return trancheDates     Struct containing accessors for every date\n     */\n    function _getTrancheDates(uint256 _trancheNumber)\n    internal\n    view\n    returns (\n        TrancheDates memory trancheDates\n    ) {\n        // Tranche memory tranche = trancheData[_trancheNumber];\n        // StartTime = contractStart + (# * period)\n        // e.g. 300 + (0 * 50) = 300\n        // e.g. 300 + (2 * 50) = 400\n        trancheDates.startTime = rewardStartTime.add(_trancheNumber.mul(tranchePeriod));\n        // EndTime = startTime + length of tranche period\n        // e.g. 300 + 50 = 350\n        trancheDates.endTime = trancheDates.startTime.add(tranchePeriod);\n        // ClaimEndTime = endTime + claimPeriod\n        // e.g. 350 + 100 = 450\n        trancheDates.claimEndTime = trancheDates.endTime.add(claimPeriod);\n        // unlockTime = endTime + lockupPeriod\n        // e.g. 350 + 650 = 1000\n        trancheDates.unlockTime = trancheDates.endTime.add(lockupPeriod);\n    }\n\n\n    /***************************************\n              GETTERS - EXTERNAL\n    ****************************************/\n\n    /**\n     * @dev Basic getter to retrieve all relevant data from the tranche struct and dates\n     * @param _trancheNumber          Tranche ID for which to retrieve data\n     * @return startTime              Time the Tranche opened for Minting\n     * @return endTime                Time the Tranche minting window closed\n     * @return claimEndTime           Time the Tranche claim window closed\n     * @return unlockTime             Time the rewards for this Tranche unlocked\n     * @return totalMintVolume        Total minting volume occurred during Tranche\n     * @return totalRewardUnits       Total units of funding provided by governance\n     * @return unclaimedRewardUnits   Total units of funding remaining unclaimed\n     * @return rewardees              Array of reward participants\n     */\n    function getTrancheData(uint256 _trancheNumber)\n    external\n    view\n    returns (\n        uint256 startTime,\n        uint256 endTime,\n        uint256 claimEndTime,\n        uint256 unlockTime,\n        uint256 totalMintVolume,\n        uint256 totalRewardUnits,\n        uint256 unclaimedRewardUnits,\n        address[] memory rewardees\n    ) {\n        Tranche memory tranche = trancheData[_trancheNumber];\n        TrancheDates memory trancheDates = _getTrancheDates(_trancheNumber);\n        return (\n          trancheDates.startTime,\n          trancheDates.endTime,\n          trancheDates.claimEndTime,\n          trancheDates.unlockTime,\n          tranche.totalMintVolume,\n          tranche.totalRewardUnits,\n          tranche.unclaimedRewardUnits,\n          tranche.rewardees\n        );\n    }\n\n    /**\n     * @dev Get data for a particular rewardee at a particular tranche\n     * @param _trancheNumber        ID of the tranche\n     * @param _rewardee             Address of the rewardee\n     * @return mintWindowClosed     Time at which window closed\n     * @return claimWindowClosed    Time at which claim window closed\n     * @return unlocked             Time the rewards unlocked\n     * @return mintVolume           Rewardee mint volume in tranche\n     * @return claimed              Bool to signify that the rewardee has claimed\n     * @return rewardAllocation     Units of MTA claimed by the rewardee\n     * @return redeemed             Bool - has the rewardee withdrawn their reward\n     */\n    function getRewardeeData(uint256 _trancheNumber, address _rewardee)\n    external\n    view\n    returns (\n        bool mintWindowClosed,\n        bool claimWindowClosed,\n        bool unlocked,\n        uint256 mintVolume,\n        bool claimed,\n        uint256 rewardAllocation,\n        bool redeemed\n    ) {\n        Reward memory reward = trancheData[_trancheNumber].rewardeeData[_rewardee];\n        TrancheDates memory trancheDates = _getTrancheDates(_trancheNumber);\n        return (\n          now > trancheDates.endTime,\n          now > trancheDates.claimEndTime,\n          now > trancheDates.unlockTime,\n          reward.mintVolume,\n          reward.claimed,\n          reward.rewardAllocation,\n          reward.redeemed\n        );\n    }\n\n    /**\n     * @dev Get rewardee data over an array of tranches\n     * @param _trancheNumbers       ID's for all tranches to retrieve\n     * @param _rewardee             Rewardee address\n     * @return mintWindowClosed     Arr Tranche minting window closed\n     * @return claimWindowClosed    Arr Time the claim window closed\n     * @return unlocked             Arr Unlock time for tranche\n     * @return mintVolume           Arr Rewardees mint volume\n     * @return claimed              Arr Rewardee claim bool\n     * @return rewardAllocation     Arr Rewardee allocated units of MTA\n     * @return redeemed             Arr Redeemed\n     */\n    function getRewardeeData(uint256[] calldata _trancheNumbers, address _rewardee)\n    external\n    view\n    returns(\n        bool[] memory mintWindowClosed,\n        bool[] memory claimWindowClosed,\n        bool[] memory unlocked,\n        uint256[] memory mintVolume,\n        bool[] memory claimed,\n        uint256[] memory rewardAllocation,\n        bool[] memory redeemed\n    ) {\n        uint256 len = _trancheNumbers.length;\n        for(uint256 i = 0; i < len; i++){\n            TrancheDates memory trancheDates = _getTrancheDates(_trancheNumbers[i]);\n            Reward memory reward = trancheData[_trancheNumbers[i]].rewardeeData[_rewardee];\n            mintWindowClosed[i] = now > trancheDates.endTime;\n            claimWindowClosed[i] = now > trancheDates.claimEndTime;\n            unlocked[i] = now > trancheDates.unlockTime;\n            mintVolume[i] = reward.mintVolume;\n            claimed[i] = reward.claimed;\n            rewardAllocation[i] = reward.rewardAllocation;\n            redeemed[i] = reward.redeemed;\n        }\n    }\n\n    /**\n     * @dev Get array of rewardees data in a particular tranche\n     * @param _trancheNumber        ID of the tranche\n     * @param _rewardees            Array of rewardee addresses\n     * @return mintVolume           Arr Rewardee mint volume\n     * @return claimed              Arr Rewardee claimed\n     * @return rewardAllocation     Arr Rewardee allocation\n     * @return redeemed             Arr Rewardee redeemed\n     */\n    function getRewardeesData(uint256 _trancheNumber, address[] calldata _rewardees)\n    external\n    view\n    returns(\n        uint256[] memory mintVolume,\n        bool[] memory claimed,\n        uint256[] memory rewardAllocation,\n        bool[] memory redeemed\n    ) {\n        uint256 len = _rewardees.length;\n        for(uint256 i = 0; i < len; i++){\n            Reward memory reward = trancheData[_trancheNumber].rewardeeData[_rewardees[i]];\n            mintVolume[i] = reward.mintVolume;\n            claimed[i] = reward.claimed;\n            rewardAllocation[i] = reward.rewardAllocation;\n            redeemed[i] = reward.redeemed;\n        }\n    }\n}\n",
  "sourcePath": "/Users/james/mstable/mStable-contracts/contracts/rewards/ForgeRewardsMUSD.sol",
  "compiler": {
    "name": "solc",
    "version": "0.5.16+commit.9c3226ce.Emscripten.clang"
  },
  "schemaVersion": "3.0.23",
  "updatedAt": "2020-02-12T09:10:20.905Z",
  "devdoc": {
    "details": "Forge wrapper that rewards minters for their contribution to mUSD liquidity.     Flow is as follows:       - Tranche is funded in MTA by the 'Governor'       - Participants use the mint functions to mint mUSD       - Mint quantity is logged to the specified rewardee in the current tranche       - Tranche period ends, and participants have 8 weeks in which to claim their reward          - Reward allocation is calculated proportionately as f(mintVolume, totalMintVolume, trancheFunding)          - Unclaimed rewards can be retrieved by 'Governor' for future tranches       - Reward allocation is unlocked for redemption after 52 weeks",
    "methods": {
      "approveAllBassets()": {
        "details": "Approve max tokens for mUSD contract for each bAsset"
      },
      "approveFor(address)": {
        "details": "Approve max tokens for mUSD contact of a given bAsset token contract",
        "params": {
          "_bAsset": "bAsset token address"
        }
      },
      "changeGovernor(address)": {
        "details": "Rewards governor can choose another governor to fund the tranches "
      },
      "claimReward(uint256)": {
        "details": "Allows a rewardee to claim their reward allocation. Reward allocation is calculated     proportionately as f(mintVolume, totalMintVolume, trancheFunding). This must be     called after the tranche period has ended, and before the claim period has elapsed.",
        "params": {
          "_trancheNumber": "Number of the tranche to attempt to claim"
        },
        "return": "claimed          Bool result of claim"
      },
      "claimReward(uint256,address)": {
        "details": "Allows a rewardee to claim their reward allocation. Reward allocation is calculated     proportionately as f(mintVolume, totalMintVolume, trancheFunding). This must be     called after the tranche period has ended, and before the claim period has elapsed.",
        "params": {
          "_rewardee": "Address for which the reward should be claimed",
          "_trancheNumber": "Number of the tranche to attempt to claim"
        },
        "return": "claimed          Bool result of claim"
      },
      "fundTranche(uint256,uint256)": {
        "details": "Governor funds the tranche with MTA by sending it to the contract.     Funding times                 Behaviour     Before tranche 'endTime'      Able to add or top up rewards     Between 'endTime' and         Only able to add if current funding == 0             'claimEndTime'     After 'claimEndTime'          No funding allowed",
        "params": {
          "_fundQuantity": "Amount of MTA to allocate to the tranche",
          "_trancheNumber": "Tranche number to fund (starting at 0)"
        }
      },
      "getRewardeeData(uint256,address)": {
        "details": "Get data for a particular rewardee at a particular tranche",
        "params": {
          "_rewardee": "Address of the rewardee",
          "_trancheNumber": "ID of the tranche"
        },
        "return": "mintWindowClosed     Time at which window closedclaimWindowClosed    Time at which claim window closedunlocked             Time the rewards unlockedmintVolume           Rewardee mint volume in trancheclaimed              Bool to signify that the rewardee has claimedrewardAllocation     Units of MTA claimed by the rewardeeredeemed             Bool - has the rewardee withdrawn their reward"
      },
      "getRewardeeData(uint256[],address)": {
        "details": "Get rewardee data over an array of tranches",
        "params": {
          "_rewardee": "Rewardee address",
          "_trancheNumbers": "ID's for all tranches to retrieve"
        },
        "return": "mintWindowClosed     Arr Tranche minting window closedclaimWindowClosed    Arr Time the claim window closedunlocked             Arr Unlock time for tranchemintVolume           Arr Rewardees mint volumeclaimed              Arr Rewardee claim boolrewardAllocation     Arr Rewardee allocated units of MTAredeemed             Arr Redeemed"
      },
      "getRewardeesData(uint256,address[])": {
        "details": "Get array of rewardees data in a particular tranche",
        "params": {
          "_rewardees": "Array of rewardee addresses",
          "_trancheNumber": "ID of the tranche"
        },
        "return": "mintVolume           Arr Rewardee mint volumeclaimed              Arr Rewardee claimedrewardAllocation     Arr Rewardee allocationredeemed             Arr Rewardee redeemed"
      },
      "getTrancheData(uint256)": {
        "details": "Basic getter to retrieve all relevant data from the tranche struct and dates",
        "params": {
          "_trancheNumber": "Tranche ID for which to retrieve data"
        },
        "return": "startTime              Time the Tranche opened for MintingendTime                Time the Tranche minting window closedclaimEndTime           Time the Tranche claim window closedunlockTime             Time the rewards for this Tranche unlockedtotalMintVolume        Total minting volume occurred during TranchetotalRewardUnits       Total units of funding provided by governanceunclaimedRewardUnits   Total units of funding remaining unclaimedrewardees              Array of reward participants"
      },
      "mintSingleTo(address,uint256,address,address)": {
        "details": "Mint mUSD to a specified recipient and then log the minted quantity to rewardee.     bAsset used in the mint must be first transferred here from msg.sender, before     being approved for spending by the mUSD contract",
        "params": {
          "_basset": "bAsset address that will be used as minting collateral",
          "_bassetQuantity": "Quantity of the above basset",
          "_massetRecipient": "Address to which the newly minted mUSD will be sent",
          "_rewardRecipient": "Address to which the rewards will be attributed"
        },
        "return": "massetMinted       Units of mUSD that were minted"
      },
      "mintTo(uint32,uint256[],address,address)": {
        "details": "Mint mUSD to a specified recipient and then log the minted quantity to rewardee.     bAssets used in the mint must be first transferred here from msg.sender, before     being approved for spending by the mUSD contract",
        "params": {
          "_bassetQuantities": "bAsset quantities that will be used during the mint (ordered as per Basket composition)",
          "_massetRecipient": "Address to which the newly minted mUSD will be sent",
          "_rewardRecipient": "Address to which the rewards will be attributed"
        },
        "return": "massetMinted       Units of mUSD that were minted"
      },
      "redeemReward(uint256)": {
        "details": "Redemption of the previously claimed reward. Must be called after the lockup     period has elapsed. Only withdraws if the rewardee has > 0 allocated.",
        "params": {
          "_trancheNumber": "Number of the tranche to attempt to redeem"
        },
        "return": "redeemed         Bool to signal the successful redemption"
      },
      "redeemReward(uint256,address)": {
        "details": "Redemption of the previously claimed reward. Must be called after the lockup     period has elapsed. Only withdraws if the rewardee has > 0 allocated.",
        "params": {
          "_rewardee": "Rewardee for whom the redemption should be processed",
          "_trancheNumber": "Number of the tranche to attempt to redeem"
        },
        "return": "redeemed         Bool to signal the successfull redemption"
      },
      "withdrawUnclaimedRewards(uint256)": {
        "details": "Allows the governor to withdraw any MTA that has not been claimed",
        "params": {
          "_trancheNumber": "ID of the tranche for which to claim back MTA"
        }
      }
    },
    "title": "ForgeRewardsMUSD"
  },
  "userdoc": {
    "methods": {}
  }
}