{
  "contractName": "ForgeValidator",
  "abi": [
    {
      "constant": true,
      "inputs": [
        {
          "internalType": "uint256",
          "name": "_totalVault",
          "type": "uint256"
        },
        {
          "components": [
            {
              "internalType": "address",
              "name": "addr",
              "type": "address"
            },
            {
              "internalType": "bytes32",
              "name": "key",
              "type": "bytes32"
            },
            {
              "internalType": "uint256",
              "name": "ratio",
              "type": "uint256"
            },
            {
              "internalType": "uint256",
              "name": "maxWeight",
              "type": "uint256"
            },
            {
              "internalType": "uint256",
              "name": "vaultBalance",
              "type": "uint256"
            },
            {
              "internalType": "enum MassetStructs.BassetStatus",
              "name": "status",
              "type": "uint8"
            }
          ],
          "internalType": "struct MassetStructs.Basset[]",
          "name": "_bassets",
          "type": "tuple[]"
        },
        {
          "internalType": "uint256[]",
          "name": "_bassetQuantity",
          "type": "uint256[]"
        }
      ],
      "name": "validateMint",
      "outputs": [],
      "payable": false,
      "stateMutability": "pure",
      "type": "function"
    },
    {
      "constant": true,
      "inputs": [
        {
          "internalType": "uint256",
          "name": "_totalVault",
          "type": "uint256"
        },
        {
          "components": [
            {
              "internalType": "address",
              "name": "addr",
              "type": "address"
            },
            {
              "internalType": "bytes32",
              "name": "key",
              "type": "bytes32"
            },
            {
              "internalType": "uint256",
              "name": "ratio",
              "type": "uint256"
            },
            {
              "internalType": "uint256",
              "name": "maxWeight",
              "type": "uint256"
            },
            {
              "internalType": "uint256",
              "name": "vaultBalance",
              "type": "uint256"
            },
            {
              "internalType": "enum MassetStructs.BassetStatus",
              "name": "status",
              "type": "uint8"
            }
          ],
          "internalType": "struct MassetStructs.Basset",
          "name": "_basset",
          "type": "tuple"
        },
        {
          "internalType": "uint256",
          "name": "_bassetQuantity",
          "type": "uint256"
        }
      ],
      "name": "validateMint",
      "outputs": [],
      "payable": false,
      "stateMutability": "pure",
      "type": "function"
    },
    {
      "constant": true,
      "inputs": [
        {
          "components": [
            {
              "internalType": "address",
              "name": "addr",
              "type": "address"
            },
            {
              "internalType": "bytes32",
              "name": "key",
              "type": "bytes32"
            },
            {
              "internalType": "uint256",
              "name": "ratio",
              "type": "uint256"
            },
            {
              "internalType": "uint256",
              "name": "maxWeight",
              "type": "uint256"
            },
            {
              "internalType": "uint256",
              "name": "vaultBalance",
              "type": "uint256"
            },
            {
              "internalType": "enum MassetStructs.BassetStatus",
              "name": "status",
              "type": "uint8"
            }
          ],
          "internalType": "struct MassetStructs.Basset[]",
          "name": "_allBassets",
          "type": "tuple[]"
        },
        {
          "internalType": "bool",
          "name": "basketIsFailed",
          "type": "bool"
        },
        {
          "internalType": "uint256",
          "name": "_totalVault",
          "type": "uint256"
        },
        {
          "internalType": "uint8[]",
          "name": "_idxs",
          "type": "uint8[]"
        },
        {
          "internalType": "uint256[]",
          "name": "_bassetQuantities",
          "type": "uint256[]"
        }
      ],
      "name": "validateRedemption",
      "outputs": [],
      "payable": false,
      "stateMutability": "pure",
      "type": "function"
    },
    {
      "constant": true,
      "inputs": [
        {
          "components": [
            {
              "internalType": "address",
              "name": "addr",
              "type": "address"
            },
            {
              "internalType": "bytes32",
              "name": "key",
              "type": "bytes32"
            },
            {
              "internalType": "uint256",
              "name": "ratio",
              "type": "uint256"
            },
            {
              "internalType": "uint256",
              "name": "maxWeight",
              "type": "uint256"
            },
            {
              "internalType": "uint256",
              "name": "vaultBalance",
              "type": "uint256"
            },
            {
              "internalType": "enum MassetStructs.BassetStatus",
              "name": "status",
              "type": "uint8"
            }
          ],
          "internalType": "struct MassetStructs.Basset[]",
          "name": "_allBassets",
          "type": "tuple[]"
        },
        {
          "internalType": "bool",
          "name": "basketIsFailed",
          "type": "bool"
        },
        {
          "internalType": "uint256",
          "name": "_totalVault",
          "type": "uint256"
        },
        {
          "internalType": "uint256",
          "name": "_indexToRedeem",
          "type": "uint256"
        },
        {
          "internalType": "uint256",
          "name": "_bassetQuantity",
          "type": "uint256"
        }
      ],
      "name": "validateRedemption",
      "outputs": [],
      "payable": false,
      "stateMutability": "pure",
      "type": "function"
    }
  ],
  "bytecode": "0x608060405234801561001057600080fd5b506114fd806100206000396000f3fe608060405234801561001057600080fd5b506004361061004c5760003560e01c806301eb1ec81461005157806345a306351461006657806399d50af814610079578063c5c492171461008c575b600080fd5b61006461005f366004610d6a565b61009f565b005b610064610074366004610efe565b6103b9565b610064610087366004610e33565b610584565b61006461009a366004610f85565b610764565b828181146100c85760405162461bcd60e51b81526004016100bf90611406565b60405180910390fd5b60606000606061012a898d8d808060200260200160405190810160405280939291908181526020016000905b828210156101205761011160c08302860136819003810190610ee0565b815260200190600101906100f4565b505050505061084e565b919450925090508860005b858110156102b65760028e8e8c8c8581811061014d57fe5b90506020020160206101629190810190610fd3565b60ff1681811061016e57fe5b905060c0020160a00160206101869190810190610ec2565b600581111561019157fe5b14158061019b57508b5b6101b75760405162461bcd60e51b81526004016100bf90611376565b60006102168f8f8d8d868181106101ca57fe5b90506020020160206101df9190810190610fd3565b60ff168181106101eb57fe5b905060c00201604001358a8a8581811061020157fe5b90506020020135610a0e90919063ffffffff16565b905061026181858d8d8681811061022957fe5b905060200201602061023e9190810190610fd3565b60ff168151811061024b57fe5b6020026020010151610a2890919063ffffffff16565b848c8c8581811061026e57fe5b90506020020160206102839190810190610fd3565b60ff168151811061029057fe5b60209081029190910101526102ab838263ffffffff610a2816565b925050600101610135565b5082156103295760005b8581101561032357848a8a838181106102d557fe5b90506020020160206102ea9190810190610fd3565b60ff16815181106102f757fe5b602002602001015161031b5760405162461bcd60e51b81526004016100bf90611386565b6001016102c0565b506103aa565b6000610388828f8f808060200260200160405190810160405280939291908181526020016000905b8282101561037d5761036e60c08302860136819003810190610ee0565b81526020019060010190610351565b505050505085610a50565b905080156103a85760405162461bcd60e51b81526004016100bf906113c6565b505b50505050505050505050505050565b828181146103d95760405162461bcd60e51b81526004016100bf90611356565b606081604051908082528060200260200182016040528015610405578160200160208202803883390190505b5090508660005b838110156105055761041c610bc6565b88888381811061042857fe5b905060c0020180360361043e9190810190610ee0565b60a0810151909150600181600581111561045457fe5b1415801561046e5750600381600581111561046b57fe5b14155b61048a5760405162461bcd60e51b81526004016100bf90611396565b60006104a083604001518a8a8781811061020157fe5b90506104cd816104c185604001518660800151610a0e90919063ffffffff16565b9063ffffffff610ada16565b8685815181106104d957fe5b60209081029190910101526104f4858263ffffffff610ada16565b9450506001909201915061040c9050565b5060005b838110156105795760006105398385848151811061052357fe5b6020026020010151610afd90919063ffffffff16565b905088888381811061054757fe5b905060c00201606001358111156105705760405162461bcd60e51b81526004016100bf906113a6565b50600101610509565b505050505050505050565b61058c610bc6565b86868481811061059857fe5b905060c002018036036105ae9190810190610ee0565b905060028160a0015160058111156105c257fe5b1415806105cc5750845b6105e85760405162461bcd60e51b81526004016100bf906113e6565b606060006060610640878b8b808060200260200160405190810160405280939291908181526020016000905b828210156101205761063160c08302860136819003810190610ee0565b81526020019060010190610614565b925092509250600061065f856040015187610a0e90919063ffffffff16565b90506106718183898151811061024b57fe5b82888151811061067d57fe5b6020908102919091010152600061069a898363ffffffff610a2816565b905083156106d7578488815181106106ae57fe5b60200260200101516106d25760405162461bcd60e51b81526004016100bf90611386565b610756565b6000610736828e8e808060200260200160405190810160405280939291908181526020016000905b8282101561072b5761071c60c08302860136819003810190610ee0565b815260200190600101906106ff565b505050505086610a50565b905080156103aa5760405162461bcd60e51b81526004016100bf906113c6565b505050505050505050505050565b600161077660c0840160a08501610ec2565b600581111561078157fe5b141580156107aa5750600361079c60c0840160a08501610ec2565b60058111156107a757fe5b14155b6107c65760405162461bcd60e51b81526004016100bf90611396565b60006107dc82604085013563ffffffff610a0e16565b905060006107fc826104c16080870135604088013563ffffffff610a0e16565b90506000610820610813878563ffffffff610ada16565b839063ffffffff610afd16565b905084606001358111156108465760405162461bcd60e51b81526004016100bf906113a6565b505050505050565b60606000606060008451905080604051908082528060200260200182016040528015610884578160200160208202803883390190505b509350806040519080825280602002602001820160405280156108b1578160200160208202803883390190505b50600093509150825b81811015610a055760008682815181106108d057fe5b602002602001015160a001519050600360058111156108eb57fe5b8160058111156108f757fe5b14156109155760405162461bcd60e51b81526004016100bf906113b6565b61095687838151811061092457fe5b60200260200101516040015188848151811061093c57fe5b602002602001015160800151610a0e90919063ffffffff16565b84838151811061096257fe5b602002602001018181525050600061099a8989858151811061098057fe5b602002602001015160600151610b2690919063ffffffff16565b90506000818685815181106109ab57fe5b60200260200101511180156109cc575060028360058111156109c957fe5b14155b9050808885815181106109db57fe5b9115156020928302919091019091015286806109f45750805b965050600190920191506108ba9050565b50509250925092565b6000610a1f83836305f5e100610b37565b90505b92915050565b600082821115610a4a5760405162461bcd60e51b81526004016100bf90611416565b50900390565b8051600090815b81811015610ad1576000610a718787848151811061098057fe5b9050600081868481518110610a8257fe5b6020026020010151118015610aba57506002878481518110610aa057fe5b602002602001015160a001516005811115610ab757fe5b14155b90508480610ac55750805b94505050600101610a57565b50509392505050565b81810182811015610a225760405162461bcd60e51b81526004016100bf906113d6565b600080610b1284670de0b6b3a7640000610b59565b9050610b1e8184610b94565b949350505050565b6000610a1f8383670de0b6b3a76400005b600080610b448585610b59565b9050610b508184610b94565b95945050505050565b600082610b6857506000610a22565b5081810281838281610b7657fe5b0414610a225760405162461bcd60e51b81526004016100bf90611366565b6000808211610bb55760405162461bcd60e51b81526004016100bf906113f6565b818381610bbe57fe5b049392505050565b6040805160c08101825260008082526020820181905291810182905260608101829052608081018290529060a082015290565b8035610a228161147b565b60008083601f840112610c1657600080fd5b50813567ffffffffffffffff811115610c2e57600080fd5b6020830191508360c0820283011115610c4657600080fd5b9250929050565b60008083601f840112610c5f57600080fd5b50813567ffffffffffffffff811115610c7757600080fd5b602083019150836020820283011115610c4657600080fd5b8035610a2281611492565b8035610a228161149b565b8035610a22816114a4565b600060c08284031215610cc257600080fd5b50919050565b600060c08284031215610cda57600080fd5b610ce460c0611426565b90506000610cf28484610bf9565b8252506020610d0384848301610c9a565b6020830152506040610d1784828501610c9a565b6040830152506060610d2b84828501610c9a565b6060830152506080610d3f84828501610c9a565b60808301525060a0610d5384828501610ca5565b60a08301525092915050565b8035610a22816114b1565b60008060008060008060008060a0898b031215610d8657600080fd5b883567ffffffffffffffff811115610d9d57600080fd5b610da98b828c01610c04565b98509850506020610dbc8b828c01610c8f565b9650506040610dcd8b828c01610c9a565b955050606089013567ffffffffffffffff811115610dea57600080fd5b610df68b828c01610c4d565b9450945050608089013567ffffffffffffffff811115610e1557600080fd5b610e218b828c01610c4d565b92509250509295985092959890939650565b60008060008060008060a08789031215610e4c57600080fd5b863567ffffffffffffffff811115610e6357600080fd5b610e6f89828a01610c04565b96509650506020610e8289828a01610c8f565b9450506040610e9389828a01610c9a565b9350506060610ea489828a01610c9a565b9250506080610eb589828a01610c9a565b9150509295509295509295565b600060208284031215610ed457600080fd5b6000610b1e8484610ca5565b600060c08284031215610ef257600080fd5b6000610b1e8484610cc8565b600080600080600060608688031215610f1657600080fd5b6000610f228888610c9a565b955050602086013567ffffffffffffffff811115610f3f57600080fd5b610f4b88828901610c04565b9450945050604086013567ffffffffffffffff811115610f6a57600080fd5b610f7688828901610c4d565b92509250509295509295909350565b60008060006101008486031215610f9b57600080fd5b6000610fa78686610c9a565b9350506020610fb886828701610cb0565b92505060e0610fc986828701610c9a565b9150509250925092565b600060208284031215610fe557600080fd5b6000610b1e8484610d5f565b6000610ffe602b8361144d565b7f696e64657865732026205f624173736574517479206c656e6774682073686f7581526a1b1908189948195c5d585b60aa1b602082015260400192915050565b600061104b60238361144d565b7f537461626c654d6174683a206d756c7469706c69636174696f6e206f766572668152626c6f7760e81b602082015260400192915050565b600061109060358361144d565b7f43616e6e6f742072656465656d2064657065676765642062417373657420756e8152741b195cdcc810985cdad95d081a5cc819985a5b1959605a1b602082015260400192915050565b60006110e7601e8361144d565b7f4d7573742072656465656d206f76657277656967687420624173736574730000815260200192915050565b6000611120601a8361144d565b7f426173736574206e6f7420616c6c6f77656420696e206d696e74000000000000815260200192915050565b6000611159601b8361144d565b7f4d7573742062652062656c6f77206d617820776569676874696e670000000000815260200192915050565b6000611192601e8361144d565b7f6241737365747320756e646572676f696e67206c69717569646174696f6e0000815260200192915050565b60006111cb60298361144d565b7f526564656d7074696f6e2063616e6e6f7420707573682062417373657473206f8152681d995c9dd95a59da1d60ba1b602082015260400192915050565b6000611216601d8361144d565b7f537461626c654d6174683a206164646974696f6e206f766572666c6f77000000815260200192915050565b600061124f60318361144d565b7f43616e6e6f742072656465656d20746869732062417373657420756e6c6573738152700810985cdad95d081a5cc819985a5b1959607a1b602082015260400192915050565b60006112a2601c8361144d565b7f537461626c654d6174683a206469766973696f6e206279207a65726f00000000815260200192915050565b60006112db602d8361144d565b7f4d7573742070726f766964652076616c75657320666f7220616c6c204261737381526c65747320696e2073797374656d60981b602082015260400192915050565b600061132a60208361144d565b7f537461626c654d6174683a207375627472616374696f6e206f766572666c6f77815260200192915050565b60208082528101610a2281610ff1565b60208082528101610a228161103e565b60208082528101610a2281611083565b60208082528101610a22816110da565b60208082528101610a2281611113565b60208082528101610a228161114c565b60208082528101610a2281611185565b60208082528101610a22816111be565b60208082528101610a2281611209565b60208082528101610a2281611242565b60208082528101610a2281611295565b60208082528101610a22816112ce565b60208082528101610a228161131d565b60405181810167ffffffffffffffff8111828210171561144557600080fd5b604052919050565b90815260200190565b6000610a2282611469565b151590565b90565b6001600160a01b031690565b60ff1690565b61148481611456565b811461148f57600080fd5b50565b61148481611461565b61148481611466565b6006811061148f57600080fd5b6114848161147556fea365627a7a723158209621a14372afc200aa99eff7b1f6ec21a8b424f4a6662f0ca17161693c7000ff6c6578706572696d656e74616cf564736f6c63430005100040",
  "source": "pragma solidity ^0.5.12;\npragma experimental ABIEncoderV2;\n\nimport { IForgeValidator, MassetStructs } from \"./IForgeValidator.sol\";\nimport { StableMath } from \"../../shared/math/StableMath.sol\";\n\n/**\n  * @title ForgeValidator\n  * @dev Contract responsible for validating that the Forging of a particular bAsset set is allowed\n  */\ncontract ForgeValidator is IForgeValidator {\n\n    using StableMath for uint256;\n\n    /**\n      * @dev Checks whether a given mint is valid\n      */\n    function validateMint(uint256 _totalVault, Basset calldata _basset, uint256 _bassetQuantity)\n    external\n    pure {\n        require(_basset.status != BassetStatus.BrokenBelowPeg &&\n            _basset.status != BassetStatus.Liquidating, \"Basset not allowed in mint\");\n\n        // How much mAsset is this _bassetQuantity worth?\n        uint256 mintAmountInMasset = _bassetQuantity.mulRatioTruncate(_basset.ratio);\n        // How much of this bAsset do we have in the vault, in terms of mAsset?\n        uint256 newBalanceInMasset = _basset.vaultBalance.mulRatioTruncate(_basset.ratio).add(mintAmountInMasset);\n        // What is the percentage of this bAsset in the basket?\n        uint256 weighting = newBalanceInMasset.divPrecisely(_totalVault.add(mintAmountInMasset));\n\n        require(weighting <= _basset.maxWeight, \"Must be below max weighting\");\n    }\n\n    /**\n      * @dev Checks whether a given mint is valid\n      */\n    function validateMint(uint256 _totalVault, Basset[] calldata _bassets, uint256[] calldata _bassetQuantity)\n    external\n    pure {\n        uint256 bassetCount = _bassets.length;\n        require(bassetCount == _bassetQuantity.length, \"indexes & _bAssetQty length should be equal\");\n\n        uint256[] memory newBalances = new uint256[](bassetCount);\n        uint256 newTotalVault = _totalVault;\n\n        // Theoretically add the mint quantities to the vault\n        for(uint j = 0; j < bassetCount; j++){\n            Basset memory b = _bassets[j];\n            BassetStatus bAssetStatus = b.status;\n\n            require(bAssetStatus != BassetStatus.BrokenBelowPeg && bAssetStatus != BassetStatus.Liquidating, \"Basset not allowed in mint\");\n\n            // How much mAsset is this _bassetQuantity worth?\n            uint256 mintAmountInMasset = _bassetQuantity[j].mulRatioTruncate(b.ratio);\n            // How much of this bAsset do we have in the vault, in terms of mAsset?\n            newBalances[j] = b.vaultBalance.mulRatioTruncate(b.ratio).add(mintAmountInMasset);\n\n            newTotalVault = newTotalVault.add(mintAmountInMasset);\n        }\n\n        for(uint k = 0; k < bassetCount; k++){\n            // What is the percentage of this bAsset in the basket?\n            uint256 weighting = newBalances[k].divPrecisely(newTotalVault);\n\n            require(weighting <= _bassets[k].maxWeight, \"Must be below max weighting\");\n        }\n    }\n\n\n    /**\n      * @dev Checks whether a given mint is valid\n      */\n    function validateRedemption(\n        Basset[] calldata _allBassets,\n        bool basketIsFailed,\n        uint256 _totalVault,\n        uint256 _indexToRedeem,\n        uint256 _bassetQuantity\n    )\n        external\n        pure\n    {\n        Basset memory bAsset = _allBassets[_indexToRedeem];\n        require(bAsset.status != BassetStatus.BrokenAbovePeg || basketIsFailed, \"Cannot redeem this bAsset unless Basket is failed\");\n        // require(bAsset.vaultBalance >= _bassetQuantity, \"Insufficient vault balance\"); // This gets checked implicity through sub, xfer\n\n        // Get current weightings, and cache some outputs from the loop to avoid unecessary recursion\n        (\n            bool[] memory overweightBassetsBefore,\n            bool atLeastOneOverweightBefore,\n            uint256[] memory ratioedBassetVaults\n        ) = _getOverweightBassets(_totalVault, _allBassets);\n\n        // Calculate ratioed redemption amount in mAsset terms\n        uint256 ratioedRedemptionAmount = _bassetQuantity.mulRatioTruncate(bAsset.ratio);\n        // Subtract ratioed redemption amount from both vault and total supply\n        ratioedBassetVaults[_indexToRedeem] = ratioedBassetVaults[_indexToRedeem].sub(ratioedRedemptionAmount);\n        uint256 newTotalVault = _totalVault.sub(ratioedRedemptionAmount);\n\n        // If there is at least one overweight bAsset before, we must redeem it\n        if(atLeastOneOverweightBefore){\n            require(overweightBassetsBefore[_indexToRedeem], \"Must redeem overweight bAssets\");\n        }\n        // Else, redemption is valid so long as no bAssets end up overweight\n        else {\n            (bool atLeastOneOverweightAfter) = _getOverweightBassetsAfter(newTotalVault, _allBassets, ratioedBassetVaults);\n            require(!atLeastOneOverweightAfter, \"Redemption cannot push bAssets overweight\");\n        }\n    }\n\n    /**\n      * @dev Checks whether a given redemption is valid\n      */\n    function validateRedemption(\n        Basset[] calldata _allBassets,\n        bool basketIsFailed,\n        uint256 _totalVault,\n        uint8[] calldata _idxs,\n        uint256[] calldata _bassetQuantities\n    )\n        external\n        pure\n    {\n        uint idxCount = _idxs.length;\n        require(idxCount == _bassetQuantities.length, \"Must provide values for all Bassets in system\");\n\n        (\n            bool[] memory overweightBassetsBefore,\n            bool atLeastOneOverweightBefore,\n            uint256[] memory ratioedBassetVaults\n        ) = _getOverweightBassets(_totalVault, _allBassets);\n\n        uint256 newTotalVault = _totalVault;\n\n        for(uint i = 0; i < idxCount; i++){\n            require(_allBassets[_idxs[i]].status != BassetStatus.BrokenAbovePeg || basketIsFailed,\n                \"Cannot redeem depegged bAsset unless Basket is failed\");\n\n            uint256 ratioedRedemptionAmount = _bassetQuantities[i].mulRatioTruncate(_allBassets[_idxs[i]].ratio);\n            ratioedBassetVaults[_idxs[i]] = ratioedBassetVaults[_idxs[i]].sub(ratioedRedemptionAmount);\n            newTotalVault = newTotalVault.sub(ratioedRedemptionAmount);\n        }\n\n        // If any bAssets are overweight before, all bAssets we redeem must be overweight\n        if(atLeastOneOverweightBefore){\n            //  Note, there is an edge case where redeeming these Bassets may push others above weightings, however\n            //  it is a side effect of simplicity\n            for(uint j = 0; j < idxCount; j++){\n                require(overweightBassetsBefore[_idxs[j]], \"Must redeem overweight bAssets\");\n            }\n        }\n        // Else, redemption is valid so long as no bAssets end up overweight\n        else {\n            (bool atLeastOneOverweightAfter) = _getOverweightBassetsAfter(newTotalVault, _allBassets, ratioedBassetVaults);\n            require(!atLeastOneOverweightAfter, \"Redemption cannot push bAssets overweight\");\n        }\n    }\n\n    /***************************************\n                    HELPERS\n    ****************************************/\n\n    /**\n      * @dev Something\n      */\n    function _getOverweightBassets(uint256 _total, Basset[] memory _bassets)\n    private\n    pure\n    returns (\n        bool[] memory isOverWeight,\n        bool atLeastOneOverweight,\n        uint256[] memory ratioedBassets\n    ) {\n        uint256 len = _bassets.length;\n        isOverWeight = new bool[](len);\n        ratioedBassets = new uint256[](len);\n        atLeastOneOverweight = false;\n\n        for(uint256 i = 0; i < len; i++) {\n            BassetStatus status = _bassets[i].status;\n            require(status != BassetStatus.Liquidating, \"bAssets undergoing liquidation\");\n\n            ratioedBassets[i] = _bassets[i].vaultBalance.mulRatioTruncate(_bassets[i].ratio);\n            uint256 maxWeightInUnits = _bassets[i].maxWeight.mulTruncate(_total);\n\n            // If the bAsset is de-pegged on the up-side, it doesn't matter if it goes above max\n            bool bassetOverWeight = ratioedBassets[i] > maxWeightInUnits && status != BassetStatus.BrokenAbovePeg;\n            isOverWeight[i] = bassetOverWeight;\n\n            atLeastOneOverweight = atLeastOneOverweight || bassetOverWeight;\n        }\n    }\n\n    /**\n      * @dev Something\n      */\n    function _getOverweightBassetsAfter(\n        uint256 _newTotal,\n        Basset[] memory _bAssets,\n        uint256[] memory _ratioedBassetVaultsAfter\n    )\n        private\n        pure\n        returns (bool atLeastOneOverweight)\n    {\n        uint256 len = _ratioedBassetVaultsAfter.length;\n        atLeastOneOverweight = false;\n\n        for(uint256 i = 0; i < len; i++) {\n            uint256 maxWeightInUnits = _bAssets[i].maxWeight.mulTruncate(_newTotal);\n            // If the bAsset is de-pegged on the up-side, it doesn't matter if it goes above max\n            bool bassetOverWeight = _ratioedBassetVaultsAfter[i] > maxWeightInUnits&& _bAssets[i].status != BassetStatus.BrokenAbovePeg;\n\n            atLeastOneOverweight = atLeastOneOverweight || bassetOverWeight;\n        }\n    }\n}\n",
  "sourcePath": "/Users/james/mstable/mStable-contracts/contracts/masset/forge-validator/ForgeValidator.sol",
  "compiler": {
    "name": "solc",
    "version": "0.5.16+commit.9c3226ce.Emscripten.clang"
  },
  "schemaVersion": "3.0.23",
  "updatedAt": "2020-02-12T09:10:20.835Z",
  "devdoc": {
    "details": "Contract responsible for validating that the Forging of a particular bAsset set is allowed",
    "methods": {
      "validateMint(uint256,(address,bytes32,uint256,uint256,uint256,uint8),uint256)": {
        "details": "Checks whether a given mint is valid"
      },
      "validateMint(uint256,(address,bytes32,uint256,uint256,uint256,uint8)[],uint256[])": {
        "details": "Checks whether a given mint is valid"
      },
      "validateRedemption((address,bytes32,uint256,uint256,uint256,uint8)[],bool,uint256,uint256,uint256)": {
        "details": "Checks whether a given mint is valid"
      },
      "validateRedemption((address,bytes32,uint256,uint256,uint256,uint8)[],bool,uint256,uint8[],uint256[])": {
        "details": "Checks whether a given redemption is valid"
      }
    },
    "title": "ForgeValidator"
  },
  "userdoc": {
    "methods": {}
  }
}