{
  "contractName": "ForgeLib",
  "abi": [
    {
      "constant": true,
      "inputs": [
        {
          "internalType": "uint256",
          "name": "_totalVault",
          "type": "uint256"
        },
        {
          "components": [
            {
              "internalType": "address",
              "name": "addr",
              "type": "address"
            },
            {
              "internalType": "bytes32",
              "name": "key",
              "type": "bytes32"
            },
            {
              "internalType": "uint256",
              "name": "ratio",
              "type": "uint256"
            },
            {
              "internalType": "uint256",
              "name": "maxWeight",
              "type": "uint256"
            },
            {
              "internalType": "uint256",
              "name": "vaultBalance",
              "type": "uint256"
            },
            {
              "internalType": "enum MassetStructs.BassetStatus",
              "name": "status",
              "type": "uint8"
            }
          ],
          "internalType": "struct MassetStructs.Basset[]",
          "name": "_bassets",
          "type": "tuple[]"
        },
        {
          "internalType": "uint256[]",
          "name": "_bassetQuantity",
          "type": "uint256[]"
        }
      ],
      "name": "validateMint",
      "outputs": [],
      "payable": false,
      "stateMutability": "pure",
      "type": "function"
    },
    {
      "constant": true,
      "inputs": [
        {
          "internalType": "uint256",
          "name": "_totalVault",
          "type": "uint256"
        },
        {
          "components": [
            {
              "internalType": "address",
              "name": "addr",
              "type": "address"
            },
            {
              "internalType": "bytes32",
              "name": "key",
              "type": "bytes32"
            },
            {
              "internalType": "uint256",
              "name": "ratio",
              "type": "uint256"
            },
            {
              "internalType": "uint256",
              "name": "maxWeight",
              "type": "uint256"
            },
            {
              "internalType": "uint256",
              "name": "vaultBalance",
              "type": "uint256"
            },
            {
              "internalType": "enum MassetStructs.BassetStatus",
              "name": "status",
              "type": "uint8"
            }
          ],
          "internalType": "struct MassetStructs.Basset",
          "name": "_basset",
          "type": "tuple"
        },
        {
          "internalType": "uint256",
          "name": "_bassetQuantity",
          "type": "uint256"
        }
      ],
      "name": "validateMint",
      "outputs": [],
      "payable": false,
      "stateMutability": "pure",
      "type": "function"
    },
    {
      "constant": true,
      "inputs": [
        {
          "internalType": "bool",
          "name": "isBasketFailed",
          "type": "bool"
        },
        {
          "components": [
            {
              "internalType": "address",
              "name": "addr",
              "type": "address"
            },
            {
              "internalType": "bytes32",
              "name": "key",
              "type": "bytes32"
            },
            {
              "internalType": "uint256",
              "name": "ratio",
              "type": "uint256"
            },
            {
              "internalType": "uint256",
              "name": "maxWeight",
              "type": "uint256"
            },
            {
              "internalType": "uint256",
              "name": "vaultBalance",
              "type": "uint256"
            },
            {
              "internalType": "enum MassetStructs.BassetStatus",
              "name": "status",
              "type": "uint8"
            }
          ],
          "internalType": "struct MassetStructs.Basset[]",
          "name": "_bassets",
          "type": "tuple[]"
        },
        {
          "internalType": "uint256[]",
          "name": "_bassetQuantity",
          "type": "uint256[]"
        }
      ],
      "name": "validateRedemption",
      "outputs": [],
      "payable": false,
      "stateMutability": "pure",
      "type": "function"
    }
  ],
  "bytecode": "0x608060405234801561001057600080fd5b5061126c806100206000396000f3fe608060405234801561001057600080fd5b50600436106100415760003560e01c806316c40f0a1461004657806345a306351461005b578063c5c492171461006e575b600080fd5b610059610054366004610c45565b610081565b005b610059610069366004610cc2565b61044c565b61005961007c366004610ce3565b610672565b8151815181146100ac5760405162461bcd60e51b81526004016100a390611163565b60405180910390fd5b60008080805b8481101561024f5760008782815181106100c857fe5b602002602001015160a001519050600360058111156100e357fe5b8160058111156100ef57fe5b141561010d5760405162461bcd60e51b81526004016100a390611123565b60008961012857600282600581111561012257fe5b1461012b565b60005b905080156101d95787838151811061013f57fe5b60200260200101516000146101665760405162461bcd60e51b81526004016100a390611153565b60018501945061019689848151811061017b57fe5b6020026020010151606001518561077390919063ffffffff16565b935060008984815181106101a657fe5b6020026020010151606001818152505060008984815181106101c457fe5b60200260200101516080018181525050610245565b60008884815181106101e757fe5b602002602001015111156102455760018601955087838151811061020757fe5b602002602001015189848151811061021b57fe5b60200260200101516080015110156102455760405162461bcd60e51b81526004016100a3906110f3565b50506001016100b2565b50600083116102705760405162461bcd60e51b81526004016100a3906110c3565b606061027b8761079c565b90506000808461028c5760006102ac565b6102ac61029f888763ffffffff6108bf16565b859063ffffffff6108e716565b905060005b878110156103105760006102e5838c84815181106102cb57fe5b60200260200101516060015161077390919063ffffffff16565b905083806103055750808583815181106102fb57fe5b6020026020010151115b9350506001016102b1565b5060005b8781101561037c5761035989828151811061032b57fe5b60200260200101518b838151811061033f57fe5b6020026020010151608001516108bf90919063ffffffff16565b8a828151811061036557fe5b602090810291909101015160800152600101610314565b5060606103888a61079c565b905060005b8881101561043e5760006103a7848d84815181106102cb57fe5b905084156104025760008b83815181106103bd57fe5b602002602001015111156103fd57808683815181106103d857fe5b6020026020010151116103fd5760405162461bcd60e51b81526004016100a390611103565b610435565b8083838151811061040f57fe5b602002602001015111156104355760405162461bcd60e51b81526004016100a3906110b3565b5060010161038d565b505050505050505050505050565b81518151811461046e5760405162461bcd60e51b81526004016100a390611163565b60608160405190808252806020026020018201604052801561049a578160200160208202803883390190505b5090506060826040519080825280602002602001820160405280156104c9578160200160208202803883390190505b5090508560005b848110156105f6576104e0610a5e565b8782815181106104ec57fe5b602002602001015190506001600581111561050357fe5b8160a00151600581111561051357fe5b14158015610531575060038160a00151600581111561052e57fe5b14155b61054d5760405162461bcd60e51b81526004016100a3906110d3565b806060015184838151811061055e57fe5b6020026020010181815250506000610596826040015189858151811061058057fe5b602002602001015161091990919063ffffffff16565b90506105c3816105b78460400151856080015161091990919063ffffffff16565b9063ffffffff61077316565b8684815181106105cf57fe5b60209081029190910101526105ea848263ffffffff61077316565b935050506001016104d0565b5060005b8481101561066857600061062a8386848151811061061457fe5b602002602001015161093190919063ffffffff16565b905083828151811061063857fe5b602002602001015181111561065f5760405162461bcd60e51b81526004016100a3906110e3565b506001016105fa565b5050505050505050565b81516001600160a01b03166106995760405162461bcd60e51b81526004016100a390611143565b60018260a0015160058111156106ab57fe5b141580156106c9575060038260a0015160058111156106c657fe5b14155b6106e55760405162461bcd60e51b81526004016100a3906110d3565b60006106fe83604001518361091990919063ffffffff16565b90506000610721826105b78660400151876080015161091990919063ffffffff16565b90506000610745610738878563ffffffff61077316565b839063ffffffff61093116565b9050846060015181111561076b5760405162461bcd60e51b81526004016100a3906110e3565b505050505050565b818101828110156107965760405162461bcd60e51b81526004016100a390611113565b92915050565b6060806107a88361095a565b90506000805b82518110156107e7576107dd8382815181106107c657fe5b60200260200101518361077390919063ffffffff16565b91506001016107ae565b508151604080518281526020808402820101909152818015610813578160200160208202803883390190505b50935060005b818110156108b6578261085b5785818151811061083257fe5b60200260200101516060015185828151811061084a57fe5b6020026020010181815250506108ae565b83818151811061086757fe5b60200260200101516000141561088557600085828151811061084a57fe5b6108958385838151811061061457fe5b8582815181106108a157fe5b6020026020010181815250505b600101610819565b50505050919050565b6000828211156108e15760405162461bcd60e51b81526004016100a390611173565b50900390565b60008082116109085760405162461bcd60e51b81526004016100a390611133565b81838161091157fe5b049392505050565b600061092a83836305f5e100610a01565b9392505050565b60008061094684670de0b6b3a7640000610a23565b905061095281846108e7565b949350505050565b60606000825190508060405190808252806020026020018201604052801561098c578160200160208202803883390190505b50915060005b818110156109fa576109db8482815181106109a957fe5b6020026020010151604001518583815181106109c157fe5b60200260200101516080015161091990919063ffffffff16565b8382815181106109e757fe5b6020908102919091010152600101610992565b5050919050565b600080610a0e8585610a23565b9050610a1a81846108e7565b95945050505050565b600082610a3257506000610796565b5081810281838281610a4057fe5b04146107965760405162461bcd60e51b81526004016100a3906110a3565b6040805160c08101825260008082526020820181905291810182905260608101829052608081018290529060a082015290565b8035610796816111f3565b600082601f830112610aad57600080fd5b8135610ac0610abb826111aa565b611183565b915081818352602084019350602081019050838560c0840282011115610ae557600080fd5b60005b83811015610b135781610afb8882610bae565b84525060209092019160c09190910190600101610ae8565b5050505092915050565b600082601f830112610b2e57600080fd5b8135610b3c610abb826111aa565b91508181835260208401935060208101905083856020840282011115610b6157600080fd5b60005b83811015610b135781610b778882610b98565b8452506020928301929190910190600101610b64565b80356107968161120a565b803561079681611213565b80356107968161121c565b600060c08284031215610bc057600080fd5b610bca60c0611183565b90506000610bd88484610a91565b8252506020610be984848301610b98565b6020830152506040610bfd84828501610b98565b6040830152506060610c1184828501610b98565b6060830152506080610c2584828501610b98565b60808301525060a0610c3984828501610ba3565b60a08301525092915050565b600080600060608486031215610c5a57600080fd5b6000610c668686610b8d565b935050602084013567ffffffffffffffff811115610c8357600080fd5b610c8f86828701610a9c565b925050604084013567ffffffffffffffff811115610cac57600080fd5b610cb886828701610b1d565b9150509250925092565b600080600060608486031215610cd757600080fd5b6000610c668686610b98565b60008060006101008486031215610cf957600080fd5b6000610d058686610b98565b9350506020610d1686828701610bae565b92505060e0610cb886828701610b98565b6000610d346023836111cb565b7f537461626c654d6174683a206d756c7469706c69636174696f6e206f766572668152626c6f7760e81b602082015260400192915050565b6000610d796030836111cb565b7f556e72656465656d65642062617373657473206d75737420737461792062656c81526f6f77206d617820776569676874696e6760801b602082015260400192915050565b6000610dcb6022836111cb565b7f4d7573742063686f6f736520736f6d65204261737365747320746f2072656465815261656d60f01b602082015260400192915050565b6000610e0f601a836111cb565b7f426173736574206e6f7420616c6c6f77656420696e206d696e74000000000000815260200192915050565b6000610e48601b836111cb565b7f4d7573742062652062656c6f77206d617820776569676874696e670000000000815260200192915050565b6000610e81602c836111cb565b7f5661756c74206d75737420686176652073756666696369656e742062616c616e81526b636520746f2072656465656d60a01b602082015260400192915050565b6000610ecf6036836111cb565b7f52656465656d65642042617373657473206d757374206265206f76657277656981527567687420647572696e672061646a7573746d656e747360501b602082015260400192915050565b6000610f27601d836111cb565b7f537461626c654d6174683a206164646974696f6e206f766572666c6f77000000815260200192915050565b6000610f606027836111cb565b7f4261736b65742063616e6e6f7420626520756e646572676f696e67206c69717581526634b230ba34b7b760c91b602082015260400192915050565b6000610fa9601c836111cb565b7f537461626c654d6174683a206469766973696f6e206279207a65726f00000000815260200192915050565b60006107966000836111cb565b6000610fef601e836111cb565b7f43616e6e6f742072656465656d2069736f6c6174656420426173736574730000815260200192915050565b6000611028602d836111cb565b7f4d7573742070726f766964652076616c75657320666f7220616c6c204261737381526c65747320696e2073797374656d60981b602082015260400192915050565b60006110776020836111cb565b7f537461626c654d6174683a207375627472616374696f6e206f766572666c6f77815260200192915050565b6020808252810161079681610d27565b6020808252810161079681610d6c565b6020808252810161079681610dbe565b6020808252810161079681610e02565b6020808252810161079681610e3b565b6020808252810161079681610e74565b6020808252810161079681610ec2565b6020808252810161079681610f1a565b6020808252810161079681610f53565b6020808252810161079681610f9c565b6020808252810161079681610fd5565b6020808252810161079681610fe2565b602080825281016107968161101b565b602080825281016107968161106a565b60405181810167ffffffffffffffff811182821017156111a257600080fd5b604052919050565b600067ffffffffffffffff8211156111c157600080fd5b5060209081020190565b90815260200190565b6000610796826111e7565b151590565b90565b6001600160a01b031690565b6111fc816111d4565b811461120757600080fd5b50565b6111fc816111df565b6111fc816111e4565b6006811061120757600080fdfea365627a7a72315820fafedffa37c8f5a953de04e71a169c4dfc7dc7f44c3a81d3b328c9eb6894919a6c6578706572696d656e74616cf564736f6c63430005100040",
  "source": "pragma solidity ^0.5.12;\npragma experimental ABIEncoderV2;\n\nimport { IForgeLib, MassetStructs } from \"./IForgeLib.sol\";\nimport { StableMath } from \"../../shared/math/StableMath.sol\";\n\n/**\n  * @title ForgeLib\n  * @dev Library that validates forge arguments. V2 employs a net difference algorithm, meaning\n  * that the forge is valid if it pushes the net weightings of the basket towards its target.\n  */\ncontract ForgeLib is IForgeLib {\n\n    using StableMath for uint256;\n\n\n    /**\n      * @dev Checks whether a given mint is valid\n      */\n    function validateMint(uint256 _totalVault, Basset memory _basset, uint256 _bassetQuantity)\n    public\n    pure {\n        require(_basset.addr != address(0), \"\");\n\n\n        require(_basset.status != BassetStatus.BrokenBelowPeg &&\n            _basset.status != BassetStatus.Liquidating, \"Basset not allowed in mint\");\n\n        // How much mAsset is this _bassetQuantity worth?\n        uint256 mintAmountInMasset = _bassetQuantity.mulRatioTruncate(_basset.ratio);\n        // How much of this bAsset do we have in the vault, in terms of mAsset?\n        uint256 newBalanceInMasset = _basset.vaultBalance.mulRatioTruncate(_basset.ratio).add(mintAmountInMasset);\n        // What is the percentage of this bAsset in the basket?\n        uint256 weighting = newBalanceInMasset.divPrecisely(_totalVault.add(mintAmountInMasset));\n\n        require(weighting <= _basset.maxWeight, \"Must be below max weighting\");\n    }\n\n    /**\n      * @dev Checks whether a given mint is valid\n      */\n    function validateMint(uint256 _totalVault, Basset[] memory _bassets, uint256[] memory _bassetQuantity)\n    public\n    pure {\n        uint256 bassetCount = _bassets.length;\n        require(_bassetQuantity.length == bassetCount, \"Must provide values for all Bassets in system\");\n        //require(!_basket.failed, \"Basket must be alive\");\n\n        uint256[] memory newBalances = new uint256[](bassetCount);\n        uint256[] memory maxWeights = new uint256[](bassetCount);\n        uint256 newTotalVault = _totalVault;\n        // Theoretically add the mint quantities to the vault\n        for(uint j = 0; j < bassetCount; j++){\n            // _basket.bassets[j].vaultBalance = _basket.bassets[j].vaultBalance.add(_bassetQuantity[j]);\n            Basset memory b = _bassets[j];\n            require(b.status != BassetStatus.BrokenBelowPeg && b.status != BassetStatus.Liquidating, \"Basset not allowed in mint\");\n            maxWeights[j] = b.maxWeight;\n            // How much mAsset is this _bassetQuantity worth?\n            uint256 mintAmountInMasset = _bassetQuantity[j].mulRatioTruncate(b.ratio);\n            // How much of this bAsset do we have in the vault, in terms of mAsset?\n            newBalances[j] = b.vaultBalance.mulRatioTruncate(b.ratio).add(mintAmountInMasset);\n\n            newTotalVault = newTotalVault.add(mintAmountInMasset);\n        }\n\n      for(uint k = 0; k < bassetCount; k++){\n            // What is the percentage of this bAsset in the basket?\n            uint256 weighting = newBalances[k].divPrecisely(newTotalVault);\n\n            require(weighting <= maxWeights[k], \"Must be below max weighting\");\n      }\n    }\n\n    /**\n      * @dev Checks whether a given redemption is valid\n      * @param _bassets          Array of bassets\n      * @param _bassetQuantity  Array of basset quantities to use in the redemption\n      */\n    function validateRedemption(bool isBasketFailed, Basset[] memory _bassets, uint256[] memory _bassetQuantity)\n    public\n    pure {\n        uint256 bassetCount = _bassets.length;\n        require(_bassetQuantity.length == bassetCount, \"Must provide values for all Bassets in system\");\n\n        uint256 bassetsToRedeem = 0;\n        uint256 isolatedBassets = 0;\n        uint256 totalIsolatedWeightings = 0;\n\n        // Reformat basket to exclude affected Bassets and allow for relative calculations\n        for(uint i = 0; i < bassetCount; i++){\n            BassetStatus status = _bassets[i].status;\n            require(status != BassetStatus.Liquidating, \"Basket cannot be undergoing liquidation\");\n            bool isIsolated = isBasketFailed ? false : status == BassetStatus.BrokenAbovePeg;\n            if(isIsolated){\n                // If the Basset is supposed to be isolated from redemtion, ignore it from the basket\n                require(_bassetQuantity[i] == 0, \"Cannot redeem isolated Bassets\");\n\n                // Total the Isolated weightings and redistribute to non-affected assets\n                isolatedBassets += 1;\n                totalIsolatedWeightings = totalIsolatedWeightings.add(_bassets[i].maxWeight);\n\n                _bassets[i].maxWeight = 0;\n                _bassets[i].vaultBalance = 0;\n            } else if (_bassetQuantity[i] > 0) {\n                bassetsToRedeem += 1;\n                require(_bassets[i].vaultBalance >= _bassetQuantity[i], \"Vault must have sufficient balance to redeem\");\n            }\n        }\n\n        require(bassetsToRedeem > 0, \"Must choose some Bassets to redeem\");\n\n        uint256[] memory preBassets = _getBassetWeightings(_bassets);\n\n        bool isInAdjustment = false;\n\n        // If totalIsolatedWeightings = 80e16, and there are 2 bassets un-isolated - given them 40 each\n        uint256 redistributedWeighting = isolatedBassets > 0 ? totalIsolatedWeightings.div(bassetCount.sub(isolatedBassets)) : 0;\n        for (uint k = 0; k < bassetCount; k++) {\n            uint maxWeight = _bassets[k].maxWeight.add(redistributedWeighting);\n            isInAdjustment = isInAdjustment || preBassets[k] > maxWeight;\n        }\n\n        // Theoretically redeem the bassets from the vault\n        for (uint j = 0; j < bassetCount; j++) {\n            _bassets[j].vaultBalance = _bassets[j].vaultBalance.sub(_bassetQuantity[j]);\n        }\n\n        uint256[] memory postBassets = _getBassetWeightings(_bassets);\n\n        // Check that the forge is valid, given the relative target weightings and vault balances\n        // isInAdjustment?\n        //     Bassets redeemed must be overweight\n        //     Note, there is an edge case where redeeming these Bassets may push others above weightings, however\n        //     it is a side effect of simplicity\n        // no\n        //     all unredeemed bassets must remain underweight\n        for (uint m = 0; m < bassetCount; m++){\n            uint maxWeight = _bassets[m].maxWeight.add(redistributedWeighting);\n            if(isInAdjustment){\n                if(_bassetQuantity[m] > 0) {\n                    require(preBassets[m] > maxWeight, \"Redeemed Bassets must be overweight during adjustments\");\n                }\n            } else {\n                require(postBassets[m] <= maxWeight, \"Unredeemed bassets must stay below max weighting\");\n            }\n        }\n    }\n\n\n    /***************************************\n                    HELPERS\n    ****************************************/\n\n    /**\n      * @dev Gets the proportionate weightings of all the Bassets, relative to Total Collateral levels\n      * @param _bassets Array of bassets\n      * @return uint256[] Relative weightings of all Bassets where 100% == 1e18\n      */\n    function _getBassetWeightings(Basset[] memory _bassets)\n    private\n    pure\n    returns (uint256[] memory relativeWeights) {\n        uint256[] memory ratioedBassets = _getRatioedBassets(_bassets);\n\n        uint256 sumOfRatioedBassets = 0;\n        for(uint i = 0; i < ratioedBassets.length; i++) {\n            sumOfRatioedBassets = sumOfRatioedBassets.add(ratioedBassets[i]);\n        }\n\n        uint256 len = ratioedBassets.length;\n        relativeWeights = new uint256[](len);\n\n        for(uint256 i = 0; i < len; i++) {\n            if(sumOfRatioedBassets == 0){\n                relativeWeights[i] = _bassets[i].maxWeight;\n                continue;\n            }\n            if(ratioedBassets[i] == 0) {\n                relativeWeights[i] = 0;\n                continue;\n            }\n\n            relativeWeights[i] = ratioedBassets[i].divPrecisely(sumOfRatioedBassets);\n        }\n\n        return relativeWeights;\n    }\n\n    /**\n      * @dev Gets the value of all Bassets in Masset terms, using the given ratio\n      * @param _bassets    Array of bassets\n      * @return uint256[] Of Ratioed Assets\n      */\n    function _getRatioedBassets(Basset[] memory _bassets)\n    private\n    pure\n    returns (uint256[] memory ratioedAssets) {\n        uint256 len = _bassets.length;\n\n        ratioedAssets = new uint256[](len);\n        for(uint256 i = 0; i < len; i++) {\n            // If the Basset is isolated, it will have already been excluded from this calc\n            ratioedAssets[i] = _bassets[i].vaultBalance.mulRatioTruncate(_bassets[i].ratio);\n        }\n    }\n}\n",
  "sourcePath": "/Users/james/mstable/mStable-contracts/contracts/masset/libs/ForgeLib.sol",
  "compiler": {
    "name": "solc",
    "version": "0.5.16+commit.9c3226ce.Emscripten.clang"
  },
  "schemaVersion": "3.0.23",
  "updatedAt": "2020-02-06T13:43:23.282Z",
  "networkType": "ethereum",
  "devdoc": {
    "details": "Library that validates forge arguments. V2 employs a net difference algorithm, meaning that the forge is valid if it pushes the net weightings of the basket towards its target.",
    "methods": {
      "validateMint(uint256,(address,bytes32,uint256,uint256,uint256,uint8),uint256)": {
        "details": "Checks whether a given mint is valid"
      },
      "validateMint(uint256,(address,bytes32,uint256,uint256,uint256,uint8)[],uint256[])": {
        "details": "Checks whether a given mint is valid"
      },
      "validateRedemption(bool,(address,bytes32,uint256,uint256,uint256,uint8)[],uint256[])": {
        "details": "Checks whether a given redemption is valid",
        "params": {
          "_bassetQuantity": "Array of basset quantities to use in the redemption",
          "_bassets": "Array of bassets"
        }
      }
    },
    "title": "ForgeLib"
  },
  "userdoc": {
    "methods": {}
  }
}