{
  "contractName": "GovernancePortalModule",
  "abi": [
    {
      "inputs": [
        {
          "internalType": "address",
          "name": "_pub",
          "type": "address"
        }
      ],
      "payable": false,
      "stateMutability": "nonpayable",
      "type": "constructor"
    },
    {
      "anonymous": false,
      "inputs": [
        {
          "indexed": true,
          "internalType": "bytes32",
          "name": "key",
          "type": "bytes32"
        },
        {
          "indexed": false,
          "internalType": "address",
          "name": "addr",
          "type": "address"
        }
      ],
      "name": "ModuleActivated",
      "type": "event"
    },
    {
      "constant": true,
      "inputs": [],
      "name": "Key_Governance",
      "outputs": [
        {
          "internalType": "bytes32",
          "name": "",
          "type": "bytes32"
        }
      ],
      "payable": false,
      "stateMutability": "view",
      "type": "function"
    },
    {
      "constant": true,
      "inputs": [],
      "name": "Key_Manager",
      "outputs": [
        {
          "internalType": "bytes32",
          "name": "",
          "type": "bytes32"
        }
      ],
      "payable": false,
      "stateMutability": "view",
      "type": "function"
    },
    {
      "constant": true,
      "inputs": [],
      "name": "Key_Nexus",
      "outputs": [
        {
          "internalType": "bytes32",
          "name": "",
          "type": "bytes32"
        }
      ],
      "payable": false,
      "stateMutability": "view",
      "type": "function"
    },
    {
      "constant": true,
      "inputs": [],
      "name": "Key_OracleHub",
      "outputs": [
        {
          "internalType": "bytes32",
          "name": "",
          "type": "bytes32"
        }
      ],
      "payable": false,
      "stateMutability": "view",
      "type": "function"
    },
    {
      "constant": true,
      "inputs": [],
      "name": "Key_Recollateraliser",
      "outputs": [
        {
          "internalType": "bytes32",
          "name": "",
          "type": "bytes32"
        }
      ],
      "payable": false,
      "stateMutability": "view",
      "type": "function"
    },
    {
      "constant": true,
      "inputs": [],
      "name": "Key_Systok",
      "outputs": [
        {
          "internalType": "bytes32",
          "name": "",
          "type": "bytes32"
        }
      ],
      "payable": false,
      "stateMutability": "view",
      "type": "function"
    },
    {
      "constant": false,
      "inputs": [
        {
          "internalType": "bytes32",
          "name": "_key",
          "type": "bytes32"
        },
        {
          "internalType": "address",
          "name": "_newAddress",
          "type": "address"
        }
      ],
      "name": "updateModule",
      "outputs": [],
      "payable": false,
      "stateMutability": "nonpayable",
      "type": "function"
    }
  ],
  "bytecode": "0x608060405234801561001057600080fd5b506040516105623803806105628339818101604052602081101561003357600080fd5b5051600080546001600160a01b0319166001600160a01b03831690811782556040805163b2494df360e01b81529051849392606092839263b2494df391600480820192889290919082900301818387803b15801561009057600080fd5b505af11580156100a4573d6000803e3d6000fd5b505050506040513d6000823e601f3d908101601f1916820160405260608110156100cd57600080fd5b8151602083018051604051929492938301929190846401000000008211156100f457600080fd5b90830190602082018581111561010957600080fd5b825186602082028301116401000000008211171561012657600080fd5b82525081516020918201928201910280838360005b8381101561015357818101518382015260200161013b565b505050509050016040526020018051604051939291908464010000000082111561017c57600080fd5b90830190602082018581111561019157600080fd5b82518660208202830111640100000000821117156101ae57600080fd5b82525081516020918201928201910280838360005b838110156101db5781810151838201526020016101c3565b5050505090500160405250505092509250925060008090505b8381101561023a5761023283828151811061020b57fe5b602002602001015183838151811061021f57fe5b602002602001015161024560201b60201c565b6001016101f4565b5050505050506102b6565b6626b0b730b3b2b960c91b82141561027357600180546001600160a01b0319166001600160a01b0383161790555b604080516001600160a01b0383168152905183917f2c3a36efbdfa911a184db421fbcbf41e9cb462349d71ce1ab6979275fec8e109919081900360200190a25050565b61029d806102c56000396000f3fe608060405234801561001057600080fd5b506004361061007d5760003560e01c8063b97e0ac61161005b578063b97e0ac6146100ac578063c097b1fb146100b4578063e5517841146100e2578063f3bdedd2146100ea5761007d565b80635eae58b9146100825780637b4aec791461009c578063ae2efd91146100a4575b600080fd5b61008a6100f2565b60408051918252519081900360200190f35b61008a6100ff565b61008a61010d565b61008a610124565b6100e0600480360360408110156100ca57600080fd5b50803590602001356001600160a01b0316610134565b005b61008a6101b7565b61008a6101c3565b65537973746f6b60d01b81565b6626b0b730b3b2b960c91b81565b6f2932b1b7b63630ba32b930b634b9b2b960811b81565b6827b930b1b632a43ab160b91b81565b6000546001600160a01b0316331461017d5760405162461bcd60e51b81526004018080602001828103825260238152602001806102466023913960400191505060405180910390fd5b644e6578757360d81b8214156101a957600080546001600160a01b0319166001600160a01b0383161790555b6101b382826101d4565b5050565b644e6578757360d81b81565b69476f7665726e616e636560b01b81565b6626b0b730b3b2b960c91b82141561020257600180546001600160a01b0319166001600160a01b0383161790555b604080516001600160a01b0383168152905183917f2c3a36efbdfa911a184db421fbcbf41e9cb462349d71ce1ab6979275fec8e109919081900360200190a2505056fe4f6e6c79207075626c6973686572206d61792063616c6c2074686973206d6574686f64a265627a7a7231582023cb52e4386cfe2d8a98959c787f503a87fb02971abcf2cf153d99ebf7d2508464736f6c63430005100032",
  "source": "pragma solidity ^0.5.12;\n\nimport { ModuleSub, IModulePub } from \"../shared/pubsub/ModuleSub.sol\";\n\nimport { IManager } from \"../interfaces/IManager.sol\";\n\n/**\n * @title GovernancePortalModule\n * @dev Acts as a subscriber to the Nexus, which publishes each new Module that is introduced\n * to the system\n */\ncontract GovernancePortalModule is ModuleSub {\n\n    /** @dev Events to emit */\n    event ModuleActivated(bytes32 indexed key, address addr);\n\n    /** @dev Keep track of the Manager address */\n    IManager manager;\n\n    /**\n      * @dev Initialises this Module by setting the publisher on ModuleSub\n      * @param _pub Address of the Publisher (Nexus) module\n      */\n    constructor(address _pub) ModuleSub(_pub) public {}\n\n\n    modifier onlyManager() {\n        require(msg.sender == address(manager), \"Only Manager may perform this action\");\n        _;\n    }\n\n    /**\n      * @dev Internally handles updates to the system modules\n      * @param _key         Module key\n      * @param _newAddress  Address of the updated Module\n      */\n    function _internalUpdateModule(bytes32 _key, address _newAddress)\n    internal {\n        if(_key == Key_Manager){\n            manager = IManager(_newAddress);\n        }\n        emit ModuleActivated(_key, _newAddress);\n    }\n}",
  "sourcePath": "/Users/james/mstable/mStable-contracts/contracts/governance/GovernancePortalModule.sol",
  "compiler": {
    "name": "solc",
    "version": "0.5.16+commit.9c3226ce.Emscripten.clang"
  },
  "schemaVersion": "3.0.23",
  "updatedAt": "2020-02-05T09:31:38.180Z",
  "devdoc": {
    "details": "Acts as a subscriber to the Nexus, which publishes each new Module that is introduced to the system",
    "methods": {
      "constructor": {
        "details": "Initialises this Module by setting the publisher on ModuleSub",
        "params": {
          "_pub": "Address of the Publisher (Nexus) module"
        }
      },
      "updateModule(bytes32,address)": {
        "details": "Higher order function to allow for module updates only via publisher",
        "params": {
          "_key": "Key of the new module",
          "_newAddress": "Address of the new module"
        }
      }
    },
    "title": "GovernancePortalModule"
  },
  "userdoc": {
    "methods": {}
  }
}