{
  "contractName": "GovernancePortalMock",
  "abi": [
    {
      "inputs": [
        {
          "internalType": "address",
          "name": "_nexus",
          "type": "address"
        },
        {
          "internalType": "address[]",
          "name": "_owners",
          "type": "address[]"
        },
        {
          "internalType": "uint256",
          "name": "_requiredQuorum",
          "type": "uint256"
        }
      ],
      "payable": false,
      "stateMutability": "nonpayable",
      "type": "constructor"
    },
    {
      "anonymous": false,
      "inputs": [
        {
          "indexed": true,
          "internalType": "address",
          "name": "sender",
          "type": "address"
        },
        {
          "indexed": true,
          "internalType": "uint256",
          "name": "transactionId",
          "type": "uint256"
        }
      ],
      "name": "Confirmation",
      "type": "event"
    },
    {
      "anonymous": false,
      "inputs": [
        {
          "indexed": true,
          "internalType": "address",
          "name": "sender",
          "type": "address"
        },
        {
          "indexed": false,
          "internalType": "uint256",
          "name": "value",
          "type": "uint256"
        }
      ],
      "name": "Deposit",
      "type": "event"
    },
    {
      "anonymous": false,
      "inputs": [
        {
          "indexed": true,
          "internalType": "uint256",
          "name": "transactionId",
          "type": "uint256"
        }
      ],
      "name": "Execution",
      "type": "event"
    },
    {
      "anonymous": false,
      "inputs": [
        {
          "indexed": true,
          "internalType": "uint256",
          "name": "transactionId",
          "type": "uint256"
        }
      ],
      "name": "ExecutionFailure",
      "type": "event"
    },
    {
      "anonymous": false,
      "inputs": [
        {
          "indexed": true,
          "internalType": "bytes32",
          "name": "key",
          "type": "bytes32"
        },
        {
          "indexed": false,
          "internalType": "address",
          "name": "addr",
          "type": "address"
        }
      ],
      "name": "ModuleActivated",
      "type": "event"
    },
    {
      "anonymous": false,
      "inputs": [
        {
          "indexed": true,
          "internalType": "address",
          "name": "owner",
          "type": "address"
        }
      ],
      "name": "OwnerAddition",
      "type": "event"
    },
    {
      "anonymous": false,
      "inputs": [
        {
          "indexed": true,
          "internalType": "address",
          "name": "owner",
          "type": "address"
        }
      ],
      "name": "OwnerRemoval",
      "type": "event"
    },
    {
      "anonymous": false,
      "inputs": [
        {
          "indexed": false,
          "internalType": "uint256",
          "name": "required",
          "type": "uint256"
        }
      ],
      "name": "RequirementChange",
      "type": "event"
    },
    {
      "anonymous": false,
      "inputs": [
        {
          "indexed": true,
          "internalType": "address",
          "name": "sender",
          "type": "address"
        },
        {
          "indexed": true,
          "internalType": "uint256",
          "name": "transactionId",
          "type": "uint256"
        }
      ],
      "name": "Revocation",
      "type": "event"
    },
    {
      "anonymous": false,
      "inputs": [
        {
          "indexed": true,
          "internalType": "uint256",
          "name": "transactionId",
          "type": "uint256"
        }
      ],
      "name": "Submission",
      "type": "event"
    },
    {
      "payable": true,
      "stateMutability": "payable",
      "type": "fallback"
    },
    {
      "constant": true,
      "inputs": [],
      "name": "Key_Governance",
      "outputs": [
        {
          "internalType": "bytes32",
          "name": "",
          "type": "bytes32"
        }
      ],
      "payable": false,
      "stateMutability": "view",
      "type": "function"
    },
    {
      "constant": true,
      "inputs": [],
      "name": "Key_Manager",
      "outputs": [
        {
          "internalType": "bytes32",
          "name": "",
          "type": "bytes32"
        }
      ],
      "payable": false,
      "stateMutability": "view",
      "type": "function"
    },
    {
      "constant": true,
      "inputs": [],
      "name": "Key_Nexus",
      "outputs": [
        {
          "internalType": "bytes32",
          "name": "",
          "type": "bytes32"
        }
      ],
      "payable": false,
      "stateMutability": "view",
      "type": "function"
    },
    {
      "constant": true,
      "inputs": [],
      "name": "Key_OracleHub",
      "outputs": [
        {
          "internalType": "bytes32",
          "name": "",
          "type": "bytes32"
        }
      ],
      "payable": false,
      "stateMutability": "view",
      "type": "function"
    },
    {
      "constant": true,
      "inputs": [],
      "name": "Key_Recollateraliser",
      "outputs": [
        {
          "internalType": "bytes32",
          "name": "",
          "type": "bytes32"
        }
      ],
      "payable": false,
      "stateMutability": "view",
      "type": "function"
    },
    {
      "constant": true,
      "inputs": [],
      "name": "Key_Systok",
      "outputs": [
        {
          "internalType": "bytes32",
          "name": "",
          "type": "bytes32"
        }
      ],
      "payable": false,
      "stateMutability": "view",
      "type": "function"
    },
    {
      "constant": true,
      "inputs": [],
      "name": "MAX_OWNER_COUNT",
      "outputs": [
        {
          "internalType": "uint256",
          "name": "",
          "type": "uint256"
        }
      ],
      "payable": false,
      "stateMutability": "view",
      "type": "function"
    },
    {
      "constant": false,
      "inputs": [
        {
          "internalType": "address",
          "name": "owner",
          "type": "address"
        }
      ],
      "name": "addOwner",
      "outputs": [],
      "payable": false,
      "stateMutability": "nonpayable",
      "type": "function"
    },
    {
      "constant": false,
      "inputs": [
        {
          "internalType": "uint256",
          "name": "_required",
          "type": "uint256"
        }
      ],
      "name": "changeRequirement",
      "outputs": [],
      "payable": false,
      "stateMutability": "nonpayable",
      "type": "function"
    },
    {
      "constant": false,
      "inputs": [
        {
          "internalType": "uint256",
          "name": "transactionId",
          "type": "uint256"
        }
      ],
      "name": "confirmTransaction",
      "outputs": [],
      "payable": false,
      "stateMutability": "nonpayable",
      "type": "function"
    },
    {
      "constant": true,
      "inputs": [
        {
          "internalType": "uint256",
          "name": "",
          "type": "uint256"
        },
        {
          "internalType": "address",
          "name": "",
          "type": "address"
        }
      ],
      "name": "confirmations",
      "outputs": [
        {
          "internalType": "bool",
          "name": "",
          "type": "bool"
        }
      ],
      "payable": false,
      "stateMutability": "view",
      "type": "function"
    },
    {
      "constant": false,
      "inputs": [
        {
          "internalType": "uint256",
          "name": "transactionId",
          "type": "uint256"
        }
      ],
      "name": "executeTransaction",
      "outputs": [],
      "payable": false,
      "stateMutability": "nonpayable",
      "type": "function"
    },
    {
      "constant": true,
      "inputs": [
        {
          "internalType": "uint256",
          "name": "transactionId",
          "type": "uint256"
        }
      ],
      "name": "getConfirmationCount",
      "outputs": [
        {
          "internalType": "uint256",
          "name": "count",
          "type": "uint256"
        }
      ],
      "payable": false,
      "stateMutability": "view",
      "type": "function"
    },
    {
      "constant": true,
      "inputs": [
        {
          "internalType": "uint256",
          "name": "transactionId",
          "type": "uint256"
        }
      ],
      "name": "getConfirmations",
      "outputs": [
        {
          "internalType": "address[]",
          "name": "_confirmations",
          "type": "address[]"
        }
      ],
      "payable": false,
      "stateMutability": "view",
      "type": "function"
    },
    {
      "constant": true,
      "inputs": [],
      "name": "getOwners",
      "outputs": [
        {
          "internalType": "address[]",
          "name": "",
          "type": "address[]"
        }
      ],
      "payable": false,
      "stateMutability": "view",
      "type": "function"
    },
    {
      "constant": true,
      "inputs": [
        {
          "internalType": "bool",
          "name": "pending",
          "type": "bool"
        },
        {
          "internalType": "bool",
          "name": "executed",
          "type": "bool"
        }
      ],
      "name": "getTransactionCount",
      "outputs": [
        {
          "internalType": "uint256",
          "name": "count",
          "type": "uint256"
        }
      ],
      "payable": false,
      "stateMutability": "view",
      "type": "function"
    },
    {
      "constant": true,
      "inputs": [
        {
          "internalType": "uint256",
          "name": "from",
          "type": "uint256"
        },
        {
          "internalType": "uint256",
          "name": "to",
          "type": "uint256"
        },
        {
          "internalType": "bool",
          "name": "pending",
          "type": "bool"
        },
        {
          "internalType": "bool",
          "name": "executed",
          "type": "bool"
        }
      ],
      "name": "getTransactionIds",
      "outputs": [
        {
          "internalType": "uint256[]",
          "name": "_transactionIds",
          "type": "uint256[]"
        }
      ],
      "payable": false,
      "stateMutability": "view",
      "type": "function"
    },
    {
      "constant": true,
      "inputs": [
        {
          "internalType": "uint256",
          "name": "transactionId",
          "type": "uint256"
        }
      ],
      "name": "isConfirmed",
      "outputs": [
        {
          "internalType": "bool",
          "name": "",
          "type": "bool"
        }
      ],
      "payable": false,
      "stateMutability": "view",
      "type": "function"
    },
    {
      "constant": true,
      "inputs": [
        {
          "internalType": "address",
          "name": "",
          "type": "address"
        }
      ],
      "name": "isOwner",
      "outputs": [
        {
          "internalType": "bool",
          "name": "",
          "type": "bool"
        }
      ],
      "payable": false,
      "stateMutability": "view",
      "type": "function"
    },
    {
      "constant": true,
      "inputs": [
        {
          "internalType": "uint256",
          "name": "",
          "type": "uint256"
        }
      ],
      "name": "owners",
      "outputs": [
        {
          "internalType": "address",
          "name": "",
          "type": "address"
        }
      ],
      "payable": false,
      "stateMutability": "view",
      "type": "function"
    },
    {
      "constant": false,
      "inputs": [
        {
          "internalType": "address",
          "name": "owner",
          "type": "address"
        }
      ],
      "name": "removeOwner",
      "outputs": [],
      "payable": false,
      "stateMutability": "nonpayable",
      "type": "function"
    },
    {
      "constant": false,
      "inputs": [
        {
          "internalType": "address",
          "name": "owner",
          "type": "address"
        },
        {
          "internalType": "address",
          "name": "newOwner",
          "type": "address"
        }
      ],
      "name": "replaceOwner",
      "outputs": [],
      "payable": false,
      "stateMutability": "nonpayable",
      "type": "function"
    },
    {
      "constant": true,
      "inputs": [],
      "name": "required",
      "outputs": [
        {
          "internalType": "uint256",
          "name": "",
          "type": "uint256"
        }
      ],
      "payable": false,
      "stateMutability": "view",
      "type": "function"
    },
    {
      "constant": false,
      "inputs": [
        {
          "internalType": "uint256",
          "name": "transactionId",
          "type": "uint256"
        }
      ],
      "name": "revokeConfirmation",
      "outputs": [],
      "payable": false,
      "stateMutability": "nonpayable",
      "type": "function"
    },
    {
      "constant": false,
      "inputs": [
        {
          "internalType": "address",
          "name": "destination",
          "type": "address"
        },
        {
          "internalType": "uint256",
          "name": "value",
          "type": "uint256"
        },
        {
          "internalType": "bytes",
          "name": "data",
          "type": "bytes"
        }
      ],
      "name": "submitTransaction",
      "outputs": [
        {
          "internalType": "uint256",
          "name": "transactionId",
          "type": "uint256"
        }
      ],
      "payable": false,
      "stateMutability": "nonpayable",
      "type": "function"
    },
    {
      "constant": true,
      "inputs": [],
      "name": "transactionCount",
      "outputs": [
        {
          "internalType": "uint256",
          "name": "",
          "type": "uint256"
        }
      ],
      "payable": false,
      "stateMutability": "view",
      "type": "function"
    },
    {
      "constant": true,
      "inputs": [
        {
          "internalType": "uint256",
          "name": "",
          "type": "uint256"
        }
      ],
      "name": "transactions",
      "outputs": [
        {
          "internalType": "address",
          "name": "destination",
          "type": "address"
        },
        {
          "internalType": "uint256",
          "name": "value",
          "type": "uint256"
        },
        {
          "internalType": "bytes",
          "name": "data",
          "type": "bytes"
        },
        {
          "internalType": "bool",
          "name": "executed",
          "type": "bool"
        }
      ],
      "payable": false,
      "stateMutability": "view",
      "type": "function"
    },
    {
      "constant": false,
      "inputs": [
        {
          "internalType": "bytes32",
          "name": "_key",
          "type": "bytes32"
        },
        {
          "internalType": "address",
          "name": "_newAddress",
          "type": "address"
        }
      ],
      "name": "updateModule",
      "outputs": [],
      "payable": false,
      "stateMutability": "nonpayable",
      "type": "function"
    }
  ],
  "bytecode": "0x60806040523480156200001157600080fd5b50604051620022e7380380620022e7833981810160405260608110156200003757600080fd5b8151602083018051604051929492938301929190846401000000008211156200005f57600080fd5b9083019060208201858111156200007557600080fd5b82518660208202830111640100000000821117156200009357600080fd5b82525081516020918201928201910280838360005b83811015620000c2578181015183820152602001620000a8565b50505050905001604052602001805190602001909291905050508282828280838381518160328211158015620000f85750818111155b80156200010457508015155b80156200011057508115155b6200011a57600080fd5b60005b84518110156200023457600260008683815181106200013857fe5b6020908102919091018101516001600160a01b031682528101919091526040016000205460ff1615801562000194575060006001600160a01b03168582815181106200018057fe5b60200260200101516001600160a01b031614155b620001e6576040805162461bcd60e51b815260206004820152601360248201527f4d7573742062652076616c6964206f776e657200000000000000000000000000604482015290519081900360640190fd5b600160026000878481518110620001f957fe5b6020908102919091018101516001600160a01b03168252810191909152604001600020805460ff19169115159190911790556001016200011d565b5083516200024a906003906020870190620004ec565b5050506004908155600680546001600160a01b0319166001600160a01b0385169081179091556040805163b2494df360e01b815290516000945060609384939263b2494df39281830192889282900301818387803b158015620002ac57600080fd5b505af1158015620002c1573d6000803e3d6000fd5b505050506040513d6000823e601f3d908101601f191682016040526060811015620002eb57600080fd5b8151602083018051604051929492938301929190846401000000008211156200031357600080fd5b9083019060208201858111156200032957600080fd5b82518660208202830111640100000000821117156200034757600080fd5b82525081516020918201928201910280838360005b83811015620003765781810151838201526020016200035c565b5050505090500160405260200180516040519392919084640100000000821115620003a057600080fd5b908301906020820185811115620003b657600080fd5b8251866020820283011164010000000082111715620003d457600080fd5b82525081516020918201928201910280838360005b8381101562000403578181015183820152602001620003e9565b5050505090500160405250505092509250925060008090505b8381101562000468576200045f8382815181106200043657fe5b60200260200101518383815181106200044b57fe5b60200260200101516200047a60201b60201c565b6001016200041c565b50505050505050505050505062000580565b6626b0b730b3b2b960c91b821415620004a957600780546001600160a01b0319166001600160a01b0383161790555b604080516001600160a01b0383168152905183917f2c3a36efbdfa911a184db421fbcbf41e9cb462349d71ce1ab6979275fec8e109919081900360200190a25050565b82805482825590600052602060002090810192821562000544579160200282015b828111156200054457825182546001600160a01b0319166001600160a01b039091161782556020909201916001909101906200050d565b506200055292915062000556565b5090565b6200057d91905b80821115620005525780546001600160a01b03191681556001016200055d565b90565b611d5780620005906000396000f3fe6080604052600436106101b75760003560e01c8063ae2efd91116100ec578063c64274741161008a578063e20056e611610064578063e20056e61461076a578063e5517841146107a5578063ee22610b146107ba578063f3bdedd2146107e4576101b7565b8063c642747414610678578063d74f8edd14610740578063dc8452cd14610755576101b7565b8063b97e0ac6116100c6578063b97e0ac6146105d6578063ba51a6df146105eb578063c01a8c8414610615578063c097b1fb1461063f576101b7565b8063ae2efd9114610582578063b5dc40c314610597578063b77bf600146105c1576101b7565b80637065cb48116101595780638b51d13f116101335780638b51d13f146103e65780639ace38c214610410578063a0e67e2b146104dd578063a8abe69a14610542576101b7565b80637065cb4814610374578063784547a7146103a75780637b4aec79146103d1576101b7565b80632f54bf6e116101955780632f54bf6e146102995780633411c81c146102e057806354741525146103195780635eae58b91461035f576101b7565b8063025e7c27146101f6578063173825d91461023c57806320ea8d861461026f575b34156101f45760408051348152905133917fe1fffcc4923d04b559f4d29a8bfc6cda04eb5b0d3c460751c2402c5c5cc9109c919081900360200190a25b005b34801561020257600080fd5b506102206004803603602081101561021957600080fd5b50356107f9565b604080516001600160a01b039092168252519081900360200190f35b34801561024857600080fd5b506101f46004803603602081101561025f57600080fd5b50356001600160a01b0316610820565b34801561027b57600080fd5b506101f46004803603602081101561029257600080fd5b5035610a06565b3480156102a557600080fd5b506102cc600480360360208110156102bc57600080fd5b50356001600160a01b0316610b72565b604080519115158252519081900360200190f35b3480156102ec57600080fd5b506102cc6004803603604081101561030357600080fd5b50803590602001356001600160a01b0316610b87565b34801561032557600080fd5b5061034d6004803603604081101561033c57600080fd5b508035151590602001351515610ba7565b60408051918252519081900360200190f35b34801561036b57600080fd5b5061034d610c13565b34801561038057600080fd5b506101f46004803603602081101561039757600080fd5b50356001600160a01b0316610c20565b3480156103b357600080fd5b506102cc600480360360208110156103ca57600080fd5b5035610df2565b3480156103dd57600080fd5b5061034d610e79565b3480156103f257600080fd5b5061034d6004803603602081101561040957600080fd5b5035610e87565b34801561041c57600080fd5b5061043a6004803603602081101561043357600080fd5b5035610ef6565b60405180856001600160a01b03166001600160a01b031681526020018481526020018060200183151515158152602001828103825284818151815260200191508051906020019080838360005b8381101561049f578181015183820152602001610487565b50505050905090810190601f1680156104cc5780820380516001836020036101000a031916815260200191505b509550505050505060405180910390f35b3480156104e957600080fd5b506104f2610fb4565b60408051602080825283518183015283519192839290830191858101910280838360005b8381101561052e578181015183820152602001610516565b505050509050019250505060405180910390f35b34801561054e57600080fd5b506104f26004803603608081101561056557600080fd5b508035906020810135906040810135151590606001351515611017565b34801561058e57600080fd5b5061034d611142565b3480156105a357600080fd5b506104f2600480360360208110156105ba57600080fd5b5035611159565b3480156105cd57600080fd5b5061034d6112d0565b3480156105e257600080fd5b5061034d6112d6565b3480156105f757600080fd5b506101f46004803603602081101561060e57600080fd5b50356112e6565b34801561062157600080fd5b506101f46004803603602081101561063857600080fd5b50356113a2565b34801561064b57600080fd5b506101f46004803603604081101561066257600080fd5b50803590602001356001600160a01b031661151c565b34801561068457600080fd5b5061034d6004803603606081101561069b57600080fd5b6001600160a01b03823516916020810135918101906060810160408201356401000000008111156106cb57600080fd5b8201836020820111156106dd57600080fd5b803590602001918460018302840111640100000000831117156106ff57600080fd5b91908080601f01602080910402602001604051908101604052809392919081815260200183838082843760009201919091525092955061159f945050505050565b34801561074c57600080fd5b5061034d6115be565b34801561076157600080fd5b5061034d6115c3565b34801561077657600080fd5b506101f46004803603604081101561078d57600080fd5b506001600160a01b03813581169160200135166115c9565b3480156107b157600080fd5b5061034d6117ff565b3480156107c657600080fd5b506101f4600480360360208110156107dd57600080fd5b503561180b565b3480156107f057600080fd5b5061034d611a78565b6003818154811061080657fe5b6000918252602090912001546001600160a01b0316905081565b33301461086b576040805162461bcd60e51b81526020600482015260146024820152734f6e6c792077616c6c65742063616e206578656360601b604482015290519081900360640190fd5b6001600160a01b038116600090815260026020526040902054819060ff166108cd576040805162461bcd60e51b815260206004820152601060248201526f13dddb995c881b5d5cdd08195e1a5cdd60821b604482015290519081900360640190fd5b6001600160a01b0382166000908152600260205260408120805460ff191690555b600354600019018110156109a157826001600160a01b03166003828154811061091357fe5b6000918252602090912001546001600160a01b031614156109995760038054600019810190811061094057fe5b600091825260209091200154600380546001600160a01b03909216918390811061096657fe5b9060005260206000200160006101000a8154816001600160a01b0302191690836001600160a01b031602179055506109a1565b6001016108ee565b506003805460001901906109b59082611c3e565b5060035460045411156109ce576003546109ce906112e6565b6040516001600160a01b038316907f8001553a916ef2f495d26a907cc54d96ed840d7bda71e73194bf5a9df7a76b9090600090a25050565b3360008181526002602052604090205460ff16610a5d576040805162461bcd60e51b815260206004820152601060248201526f13dddb995c881b5d5cdd08195e1a5cdd60821b604482015290519081900360640190fd5b60008281526001602090815260408083203380855292529091205483919060ff16610ac3576040805162461bcd60e51b8152602060048201526011602482015270135d5cdd0818994818dbdb999a5c9b5959607a1b604482015290519081900360640190fd5b600084815260208190526040902060030154849060ff1615610b23576040805162461bcd60e51b8152602060048201526014602482015273135d5cdd081b9bdd08189948195e1958dd5d195960621b604482015290519081900360640190fd5b6000858152600160209081526040808320338085529252808320805460ff191690555187927ff6a317157440607f36269043eb55f1287a5a19ba2216afeab88cd46cbcfb88e991a35050505050565b60026020526000908152604090205460ff1681565b600160209081526000928352604080842090915290825290205460ff1681565b6000805b600554811015610c0c57838015610bd4575060008181526020819052604090206003015460ff16155b80610bf85750828015610bf8575060008181526020819052604090206003015460ff165b15610c04576001820191505b600101610bab565b5092915050565b65537973746f6b60d01b81565b333014610c6b576040805162461bcd60e51b81526020600482015260146024820152734f6e6c792077616c6c65742063616e206578656360601b604482015290519081900360640190fd5b6001600160a01b038116600090815260026020526040902054819060ff1615610cd2576040805162461bcd60e51b815260206004820152601460248201527313dddb995c881b5d5cdd081b9bdd08195e1a5cdd60621b604482015290519081900360640190fd5b816001600160a01b038116610d26576040805162461bcd60e51b815260206004820152601560248201527426bab9ba103132903737b710373ab6361030b2323960591b604482015290519081900360640190fd5b60038054905060010160045460328211158015610d435750818111155b8015610d4e57508015155b8015610d5957508115155b610d6257600080fd5b6001600160a01b038516600081815260026020526040808220805460ff1916600190811790915560038054918201815583527fc2575a0e9e593c00f959f8c92f12db2869c3395a3b0502d05e2516446f71f85b0180546001600160a01b03191684179055517ff39e6e1eb0edcf53c221607b54b00cd28f3196fed0a24994dc308b8f611b682d9190a25050505050565b600080805b600354811015610e715760008481526001602052604081206003805491929184908110610e2057fe5b60009182526020808320909101546001600160a01b0316835282019290925260400190205460ff1615610e54576001820191505b600454821415610e6957600192505050610e74565b600101610df7565b50505b919050565b6626b0b730b3b2b960c91b81565b6000805b600354811015610ef05760008381526001602052604081206003805491929184908110610eb457fe5b60009182526020808320909101546001600160a01b0316835282019290925260400190205460ff1615610ee8576001820191505b600101610e8b565b50919050565b6000602081815291815260409081902080546001808301546002808501805487516101009582161595909502600019011691909104601f81018890048802840188019096528583526001600160a01b0390931695909491929190830182828015610fa15780601f10610f7657610100808354040283529160200191610fa1565b820191906000526020600020905b815481529060010190602001808311610f8457829003601f168201915b5050506003909301549192505060ff1684565b6060600380548060200260200160405190810160405280929190818152602001828054801561100c57602002820191906000526020600020905b81546001600160a01b03168152600190910190602001808311610fee575b505050505090505b90565b606080600554604051908082528060200260200182016040528015611046578160200160208202803883390190505b5090506000805b6005548110156110c757858015611076575060008181526020819052604090206003015460ff16155b8061109a575084801561109a575060008181526020819052604090206003015460ff165b156110bf57808383815181106110ac57fe5b6020026020010181815250506001820191505b60010161104d565b8787036040519080825280602002602001820160405280156110f3578160200160208202803883390190505b5093508790505b868110156111375782818151811061110e57fe5b6020026020010151848983038151811061112457fe5b60209081029190910101526001016110fa565b505050949350505050565b6f2932b1b7b63630ba32b930b634b9b2b960811b81565b60608060038054905060405190808252806020026020018201604052801561118b578160200160208202803883390190505b5090506000805b60035481101561124e57600085815260016020526040812060038054919291849081106111bb57fe5b60009182526020808320909101546001600160a01b0316835282019290925260400190205460ff161561124657600381815481106111f557fe5b9060005260206000200160009054906101000a90046001600160a01b031683838151811061121f57fe5b60200260200101906001600160a01b031690816001600160a01b0316815250506001820191505b600101611192565b81604051908082528060200260200182016040528015611278578160200160208202803883390190505b509350600090505b818110156112c85782818151811061129457fe5b60200260200101518482815181106112a857fe5b6001600160a01b0390921660209283029190910190910152600101611280565b505050919050565b60055481565b6827b930b1b632a43ab160b91b81565b333014611331576040805162461bcd60e51b81526020600482015260146024820152734f6e6c792077616c6c65742063616e206578656360601b604482015290519081900360640190fd5b60035481603282118015906113465750818111155b801561135157508015155b801561135c57508115155b61136557600080fd5b60048390556040805184815290517fa3f1ee9126a074d9326c682f561767f710e927faa811f7a99829d49dc421797a9181900360200190a1505050565b3360008181526002602052604090205460ff166113f9576040805162461bcd60e51b815260206004820152601060248201526f13dddb995c881b5d5cdd08195e1a5cdd60821b604482015290519081900360640190fd5b60008281526020819052604090205482906001600160a01b0316611454576040805162461bcd60e51b815260206004820152600d60248201526c151e081b5d5cdd08195e1a5cdd609a1b604482015290519081900360640190fd5b60008381526001602090815260408083203380855292529091205484919060ff16156114bf576040805162461bcd60e51b8152602060048201526015602482015274135d5cdd081b9bdd0818994818dbdb999a5c9b5959605a1b604482015290519081900360640190fd5b6000858152600160208181526040808420338086529252808420805460ff1916909317909255905187927f4a504a94899432a9846e1aa406dceb1bcfd538bb839071d49d1e5e23f5be30ef91a36115158561180b565b5050505050565b6006546001600160a01b031633146115655760405162461bcd60e51b8152600401808060200182810382526023815260200180611d006023913960400191505060405180910390fd5b644e6578757360d81b82141561159157600680546001600160a01b0319166001600160a01b0383161790555b61159b8282611a89565b5050565b60006115ac848484611afa565b90506115b7816113a2565b9392505050565b603281565b60045481565b333014611614576040805162461bcd60e51b81526020600482015260146024820152734f6e6c792077616c6c65742063616e206578656360601b604482015290519081900360640190fd5b6001600160a01b038216600090815260026020526040902054829060ff16611676576040805162461bcd60e51b815260206004820152601060248201526f13dddb995c881b5d5cdd08195e1a5cdd60821b604482015290519081900360640190fd5b6001600160a01b038216600090815260026020526040902054829060ff16156116dd576040805162461bcd60e51b815260206004820152601460248201527313dddb995c881b5d5cdd081b9bdd08195e1a5cdd60621b604482015290519081900360640190fd5b60005b60035481101561176557846001600160a01b03166003828154811061170157fe5b6000918252602090912001546001600160a01b0316141561175d57836003828154811061172a57fe5b9060005260206000200160006101000a8154816001600160a01b0302191690836001600160a01b03160217905550611765565b6001016116e0565b506001600160a01b03808516600081815260026020526040808220805460ff1990811690915593871682528082208054909416600117909355915190917f8001553a916ef2f495d26a907cc54d96ed840d7bda71e73194bf5a9df7a76b9091a26040516001600160a01b038416907ff39e6e1eb0edcf53c221607b54b00cd28f3196fed0a24994dc308b8f611b682d90600090a250505050565b644e6578757360d81b81565b3360008181526002602052604090205460ff16611862576040805162461bcd60e51b815260206004820152601060248201526f13dddb995c881b5d5cdd08195e1a5cdd60821b604482015290519081900360640190fd5b60008281526001602090815260408083203380855292529091205483919060ff166118c8576040805162461bcd60e51b8152602060048201526011602482015270135d5cdd0818994818dbdb999a5c9b5959607a1b604482015290519081900360640190fd5b600084815260208190526040902060030154849060ff1615611928576040805162461bcd60e51b8152602060048201526014602482015273135d5cdd081b9bdd08189948195e1958dd5d195960621b604482015290519081900360640190fd5b61193185610df2565b15611515576000858152602081815260409182902060038101805460ff19166001908117909155815481830154600280850180548851601f600019978316156101000297909701909116929092049485018790048702820187019097528381529395611a03956001600160a01b039093169491939283908301828280156119f95780601f106119ce576101008083540402835291602001916119f9565b820191906000526020600020905b8154815290600101906020018083116119dc57829003601f168201915b5050505050611c1b565b15611a385760405186907f33e13ecb54c3076d8e8bb8c2881800a4d972b792045ffae98fdf46df365fed7590600090a2611a70565b60405186907f526441bb6c1aba3c9a4a6ca1d6545da9c2333c8c48343ef398eb858d72b7923690600090a260038101805460ff191690555b505050505050565b69476f7665726e616e636560b01b81565b6626b0b730b3b2b960c91b821415611ab757600780546001600160a01b0319166001600160a01b0383161790555b604080516001600160a01b0383168152905183917f2c3a36efbdfa911a184db421fbcbf41e9cb462349d71ce1ab6979275fec8e109919081900360200190a25050565b6000836001600160a01b038116611b50576040805162461bcd60e51b815260206004820152601560248201527426bab9ba103132903737b710373ab6361030b2323960591b604482015290519081900360640190fd5b600554604080516080810182526001600160a01b038881168252602080830189815283850189815260006060860181905287815280845295909520845181546001600160a01b03191694169390931783555160018301559251805194965091939092611bc3926002850192910190611c67565b50606091909101516003909101805460ff191691151591909117905560058054600101905560405182907fc0ba8fe4b176c1714197d43b9cc6bcf797a4a7461c5fe8d0ef6e184ae7601e5190600090a2509392505050565b6000806040516020840160008287838a8c6187965a03f198975050505050505050565b815481835581811115611c6257600083815260209020611c62918101908301611ce5565b505050565b828054600181600116156101000203166002900490600052602060002090601f016020900481019282601f10611ca857805160ff1916838001178555611cd5565b82800160010185558215611cd5579182015b82811115611cd5578251825591602001919060010190611cba565b50611ce1929150611ce5565b5090565b61101491905b80821115611ce15760008155600101611ceb56fe4f6e6c79207075626c6973686572206d61792063616c6c2074686973206d6574686f64a265627a7a72315820d45e92750f0d4a706e4861eba29b53cc3117c7beda4d57e749e7ef785ce02f8864736f6c63430005100032",
  "source": "pragma solidity ^0.5.12;\n\nimport { GovernancePortal } from \"../../governance/GovernancePortal.sol\";\n\n/**\n * @title GovernancePortalMock\n */\ncontract GovernancePortalMock is GovernancePortal {\n\n\n    constructor(\n        address _nexus,\n        address[] memory _owners,\n        uint _requiredQuorum\n    )\n        GovernancePortal(\n            _nexus,\n            _owners,\n            _requiredQuorum\n        )\n        public\n    {\n      \n    }\n}\n\n\n",
  "sourcePath": "/Users/james/mstable/mStable-contracts/contracts/z_mocks/governance/GovernancePortalMock.sol",
  "compiler": {
    "name": "solc",
    "version": "0.5.16+commit.9c3226ce.Emscripten.clang"
  },
  "schemaVersion": "3.0.23",
  "updatedAt": "2020-02-05T09:31:38.639Z",
  "devdoc": {
    "methods": {
      "addOwner(address)": {
        "details": "Allows to add a new owner. Transaction has to be sent by wallet.",
        "params": {
          "owner": "Address of new owner."
        }
      },
      "changeRequirement(uint256)": {
        "details": "Allows to change the number of required confirmations. Transaction has to be sent by wallet.",
        "params": {
          "_required": "Number of required confirmations."
        }
      },
      "confirmTransaction(uint256)": {
        "details": "Allows an owner to confirm a transaction.",
        "params": {
          "transactionId": "Transaction ID."
        }
      },
      "executeTransaction(uint256)": {
        "details": "Allows anyone to execute a confirmed transaction.",
        "params": {
          "transactionId": "Transaction ID."
        }
      },
      "getConfirmationCount(uint256)": {
        "details": "Returns number of confirmations of a transaction.",
        "params": {
          "transactionId": "Transaction ID."
        },
        "return": "Number of confirmations."
      },
      "getConfirmations(uint256)": {
        "details": "Returns array with owner addresses, which confirmed transaction.",
        "params": {
          "transactionId": "Transaction ID."
        },
        "return": "Returns array of owner addresses."
      },
      "getOwners()": {
        "details": "Returns list of owners.",
        "return": "List of owner addresses."
      },
      "getTransactionCount(bool,bool)": {
        "details": "Returns total number of transactions after filers are applied.",
        "params": {
          "executed": "Include executed transactions.",
          "pending": "Include pending transactions."
        },
        "return": "Total number of transactions after filters are applied."
      },
      "getTransactionIds(uint256,uint256,bool,bool)": {
        "details": "Returns list of transaction IDs in defined range.",
        "params": {
          "executed": "Include executed transactions.",
          "from": "Index start position of transaction array.",
          "pending": "Include pending transactions.",
          "to": "Index end position of transaction array."
        },
        "return": "Returns array of transaction IDs."
      },
      "isConfirmed(uint256)": {
        "details": "Returns the confirmation status of a transaction.",
        "params": {
          "transactionId": "Transaction ID."
        },
        "return": "Confirmation status."
      },
      "removeOwner(address)": {
        "details": "Allows to remove an owner. Transaction has to be sent by wallet.",
        "params": {
          "owner": "Address of owner."
        }
      },
      "replaceOwner(address,address)": {
        "details": "Allows to replace an owner with a new owner. Transaction has to be sent by wallet.",
        "params": {
          "newOwner": "Address of new owner.",
          "owner": "Address of owner to be replaced."
        }
      },
      "revokeConfirmation(uint256)": {
        "details": "Allows an owner to revoke a confirmation for a transaction.",
        "params": {
          "transactionId": "Transaction ID."
        }
      },
      "submitTransaction(address,uint256,bytes)": {
        "details": "Allows an owner to submit and confirm a transaction.",
        "params": {
          "data": "Transaction data payload.",
          "destination": "Transaction target address.",
          "value": "Transaction ether value."
        },
        "return": "Returns transaction ID."
      },
      "updateModule(bytes32,address)": {
        "details": "Higher order function to allow for module updates only via publisher",
        "params": {
          "_key": "Key of the new module",
          "_newAddress": "Address of the new module"
        }
      }
    },
    "title": "GovernancePortalMock"
  },
  "userdoc": {
    "methods": {}
  }
}