{
  "contractName": "ManagerModule",
  "abi": [
    {
      "inputs": [
        {
          "internalType": "address",
          "name": "_pub",
          "type": "address"
        }
      ],
      "payable": false,
      "stateMutability": "nonpayable",
      "type": "constructor"
    },
    {
      "anonymous": false,
      "inputs": [
        {
          "indexed": true,
          "internalType": "bytes32",
          "name": "key",
          "type": "bytes32"
        },
        {
          "indexed": false,
          "internalType": "address",
          "name": "newAddress",
          "type": "address"
        }
      ],
      "name": "ModuleUpdated",
      "type": "event"
    },
    {
      "constant": true,
      "inputs": [],
      "name": "Key_Governance",
      "outputs": [
        {
          "internalType": "bytes32",
          "name": "",
          "type": "bytes32"
        }
      ],
      "payable": false,
      "stateMutability": "view",
      "type": "function"
    },
    {
      "constant": true,
      "inputs": [],
      "name": "Key_Manager",
      "outputs": [
        {
          "internalType": "bytes32",
          "name": "",
          "type": "bytes32"
        }
      ],
      "payable": false,
      "stateMutability": "view",
      "type": "function"
    },
    {
      "constant": true,
      "inputs": [],
      "name": "Key_Nexus",
      "outputs": [
        {
          "internalType": "bytes32",
          "name": "",
          "type": "bytes32"
        }
      ],
      "payable": false,
      "stateMutability": "view",
      "type": "function"
    },
    {
      "constant": true,
      "inputs": [],
      "name": "Key_OracleHub",
      "outputs": [
        {
          "internalType": "bytes32",
          "name": "",
          "type": "bytes32"
        }
      ],
      "payable": false,
      "stateMutability": "view",
      "type": "function"
    },
    {
      "constant": true,
      "inputs": [],
      "name": "Key_Recollateraliser",
      "outputs": [
        {
          "internalType": "bytes32",
          "name": "",
          "type": "bytes32"
        }
      ],
      "payable": false,
      "stateMutability": "view",
      "type": "function"
    },
    {
      "constant": true,
      "inputs": [],
      "name": "Key_Systok",
      "outputs": [
        {
          "internalType": "bytes32",
          "name": "",
          "type": "bytes32"
        }
      ],
      "payable": false,
      "stateMutability": "view",
      "type": "function"
    },
    {
      "constant": true,
      "inputs": [],
      "name": "forgeLib",
      "outputs": [
        {
          "internalType": "address",
          "name": "",
          "type": "address"
        }
      ],
      "payable": false,
      "stateMutability": "view",
      "type": "function"
    },
    {
      "constant": true,
      "inputs": [],
      "name": "getMassets",
      "outputs": [
        {
          "internalType": "address[]",
          "name": "addr",
          "type": "address[]"
        },
        {
          "internalType": "bytes32[]",
          "name": "keys",
          "type": "bytes32[]"
        }
      ],
      "payable": false,
      "stateMutability": "view",
      "type": "function"
    },
    {
      "constant": false,
      "inputs": [
        {
          "internalType": "bytes32",
          "name": "_key",
          "type": "bytes32"
        },
        {
          "internalType": "address",
          "name": "_newAddress",
          "type": "address"
        }
      ],
      "name": "updateModule",
      "outputs": [],
      "payable": false,
      "stateMutability": "nonpayable",
      "type": "function"
    }
  ],
  "bytecode": "0x6080604052624d544160e81b6005553480156200001b57600080fd5b5060405162000c2c38038062000c2c833981810160405260208110156200004157600080fd5b5051600080546001600160a01b0319166001600160a01b03831690811782556040805163b2494df360e01b81529051849392606092839263b2494df391600480820192889290919082900301818387803b1580156200009f57600080fd5b505af1158015620000b4573d6000803e3d6000fd5b505050506040513d6000823e601f3d908101601f191682016040526060811015620000de57600080fd5b8151602083018051604051929492938301929190846401000000008211156200010657600080fd5b9083019060208201858111156200011c57600080fd5b82518660208202830111640100000000821117156200013a57600080fd5b82525081516020918201928201910280838360005b83811015620001695781810151838201526020016200014f565b50505050905001604052602001805160405193929190846401000000008211156200019357600080fd5b908301906020820185811115620001a957600080fd5b8251866020820283011164010000000082111715620001c757600080fd5b82525081516020918201928201910280838360005b83811015620001f6578181015183820152602001620001dc565b5050505090500160405250505092509250925060008090505b838110156200025b57620002528382815181106200022957fe5b60200260200101518383815181106200023e57fe5b60200260200101516200026760201b60201c565b6001016200020f565b50505050505062000539565b604080516001600160a01b0383168152905183917ff0d0fe9ecd941ad0096a6b95e0998ddcd76ba6a240a106fef284fc2d4f0caa41919081900360200190a269476f7665726e616e636560b01b821415620003e257600180546001600160a01b0319166001600160a01b0383161790556006805460408051602080840282018101909252828152606093909290918301828280156200033057602002820191906000526020600020905b81546001600160a01b0316815260019091019060200180831162000311575b50939450600093505050505b8151811015620003df5760008282815181106200035557fe5b60200260200101519050806001600160a01b031663ab033ea9856040518263ffffffff1660e01b815260040180826001600160a01b03166001600160a01b03168152602001915050600060405180830381600087803b158015620003b857600080fd5b505af1158015620003cd573d6000803e3d6000fd5b5050600190930192506200033c915050565b50505b6626b0b730b3b2b960c91b8214156200050457606060066000018054806020026020016040519081016040528092919081815260200182805480156200045257602002820191906000526020600020905b81546001600160a01b0316815260019091019060200180831162000433575b50939450600093505050505b8151811015620005015760008282815181106200047757fe5b60200260200101519050806001600160a01b031663d0ebdbe7856040518263ffffffff1660e01b815260040180826001600160a01b03166001600160a01b03168152602001915050600060405180830381600087803b158015620004da57600080fd5b505af1158015620004ef573d6000803e3d6000fd5b5050600190930192506200045e915050565b50505b6827b930b1b632a43ab160b91b8214156200053557600380546001600160a01b0319166001600160a01b0383161790555b5050565b6106e380620005496000396000f3fe608060405234801561001057600080fd5b50600436106100935760003560e01c8063ae2efd9111610066578063ae2efd911461017f578063b97e0ac614610187578063c097b1fb1461018f578063e5517841146101bd578063f3bdedd2146101c557610093565b80635eae58b9146100985780636e1b1b80146100b25780637b4aec79146100d65780638908a41a146100de575b600080fd5b6100a06101cd565b60408051918252519081900360200190f35b6100ba6101da565b604080516001600160a01b039092168252519081900360200190f35b6100a06101e9565b6100e66101f7565b604051808060200180602001838103835285818151815260200191508051906020019060200280838360005b8381101561012a578181015183820152602001610112565b50505050905001838103825284818151815260200191508051906020019060200280838360005b83811015610169578181015183820152602001610151565b5050505090500194505050505060405180910390f35b6100a0610265565b6100a061027c565b6101bb600480360360408110156101a557600080fd5b50803590602001356001600160a01b031661028c565b005b6100a061030f565b6100a061031b565b65537973746f6b60d01b81565b6004546001600160a01b031681565b6626b0b730b3b2b960c91b81565b60608060066102058161032c565b81546040805160208084028201810190925282815291849183018282801561025657602002820191906000526020600020905b81546001600160a01b03168152600190910190602001808311610238575b50505050509150915091509091565b6f2932b1b7b63630ba32b930b634b9b2b960811b81565b6827b930b1b632a43ab160b91b81565b6000546001600160a01b031633146102d55760405162461bcd60e51b815260040180806020018281038252602381526020018061068c6023913960400191505060405180910390fd5b644e6578757360d81b82141561030157600080546001600160a01b0319166001600160a01b0383161790555b61030b82826103c9565b5050565b644e6578757360d81b81565b69476f7665726e616e636560b01b81565b80546040805182815260208084028201019091526060918015610359578160200160208202803883390190505b50905060005b81518110156103c35782600101600084600001838154811061037d57fe5b60009182526020808320909101546001600160a01b0316835282019290925260400190205482518390839081106103b057fe5b602090810291909101015260010161035f565b50919050565b604080516001600160a01b0383168152905183917ff0d0fe9ecd941ad0096a6b95e0998ddcd76ba6a240a106fef284fc2d4f0caa41919081900360200190a269476f7665726e616e636560b01b82141561053c57600180546001600160a01b0319166001600160a01b03831617905560068054604080516020808402820181019092528281526060939092909183018282801561048f57602002820191906000526020600020905b81546001600160a01b03168152600190910190602001808311610471575b50939450600093505050505b81518110156105395760008282815181106104b257fe5b60200260200101519050806001600160a01b031663ab033ea9856040518263ffffffff1660e01b815260040180826001600160a01b03166001600160a01b03168152602001915050600060405180830381600087803b15801561051457600080fd5b505af1158015610528573d6000803e3d6000fd5b50506001909301925061049b915050565b50505b6626b0b730b3b2b960c91b82141561065657606060066000018054806020026020016040519081016040528092919081815260200182805480156105a957602002820191906000526020600020905b81546001600160a01b0316815260019091019060200180831161058b575b50939450600093505050505b81518110156106535760008282815181106105cc57fe5b60200260200101519050806001600160a01b031663d0ebdbe7856040518263ffffffff1660e01b815260040180826001600160a01b03166001600160a01b03168152602001915050600060405180830381600087803b15801561062e57600080fd5b505af1158015610642573d6000803e3d6000fd5b5050600190930192506105b5915050565b50505b6827b930b1b632a43ab160b91b82141561030b57600380546001600160a01b0383166001600160a01b0319909116179055505056fe4f6e6c79207075626c6973686572206d61792063616c6c2074686973206d6574686f64a265627a7a72315820ff1401407fe346f67ed108fad5720905127e3f9490b69926c16dff50e6cea12b64736f6c63430005100032",
  "source": "pragma solidity ^0.5.12;\n\nimport { ModuleSub } from \"../shared/pubsub/ModuleSub.sol\";\nimport {\n  ManagerState,\n  IGovernancePortal,\n  ISystok,\n  IManager,\n  IOracleHub,\n  IMasset\n} from \"./ManagerState.sol\";\n\n/**\n * @title ManagerModule\n * @dev Acts as a subscriber to the Nexus, which publishes each new Module that is introduced\n * to the system. If the module is relevant to the Manager, we will listen for it here and\n * update its reference, and those of the Massets too\n */\ncontract ManagerModule is ModuleSub, ManagerState {\n\n    /** @dev Events to emit */\n    event ModuleUpdated(bytes32 indexed key, address newAddress);\n\n\n    /**\n      * @dev Initialises this Module by setting the publisher on ModuleSub\n      * @param _pub Address of the Publisher (Nexus) module\n      */\n    constructor(address _pub) ModuleSub(_pub) public {}\n\n\n    /**\n      * @dev Internally handles updates to the system modules\n      * @param _key         Module key\n      * @param _newAddress  Address of the updated Module\n      */\n    function _internalUpdateModule(bytes32 _key, address _newAddress)\n    internal {\n        emit ModuleUpdated(_key, _newAddress);\n\n        if (_key == Key_Governance) {\n            governance = IGovernancePortal(_newAddress);\n\n            address[] memory massets = massets.keys;\n            for(uint256 i = 0; i < massets.length; i++) {\n                IMasset tempMasset = IMasset(massets[i]);\n                tempMasset.setGovernance(_newAddress);\n            }\n        }\n\n        if (_key == Key_Manager) {\n            address[] memory massets = massets.keys;\n            for(uint256 i = 0; i < massets.length; i++) {\n                IMasset tempMasset = IMasset(massets[i]);\n                tempMasset.setManager(IManager(_newAddress));\n            }\n        }\n\n        if (_key == Key_OracleHub) {\n            oracleHub = IOracleHub(_newAddress);\n        }\n    }\n}",
  "sourcePath": "/Users/james/mstable/mStable-contracts/contracts/manager/ManagerModule.sol",
  "compiler": {
    "name": "solc",
    "version": "0.5.16+commit.9c3226ce.Emscripten.clang"
  },
  "schemaVersion": "3.0.23",
  "updatedAt": "2020-02-05T09:31:38.271Z",
  "devdoc": {
    "details": "Acts as a subscriber to the Nexus, which publishes each new Module that is introduced to the system. If the module is relevant to the Manager, we will listen for it here and update its reference, and those of the Massets too",
    "methods": {
      "constructor": {
        "details": "Initialises this Module by setting the publisher on ModuleSub",
        "params": {
          "_pub": "Address of the Publisher (Nexus) module"
        }
      },
      "getMassets()": {
        "details": "Get the addresses and oracle keys for all the Massets",
        "return": "bytes32 Array of Masset identifiers"
      },
      "updateModule(bytes32,address)": {
        "details": "Higher order function to allow for module updates only via publisher",
        "params": {
          "_key": "Key of the new module",
          "_newAddress": "Address of the new module"
        }
      }
    },
    "title": "ManagerModule"
  },
  "userdoc": {
    "methods": {}
  }
}