{
  "contractName": "Manager",
  "abi": [
    {
      "inputs": [
        {
          "internalType": "address",
          "name": "_nexus",
          "type": "address"
        },
        {
          "internalType": "address",
          "name": "_forgeValidator",
          "type": "address"
        }
      ],
      "payable": false,
      "stateMutability": "nonpayable",
      "type": "constructor"
    },
    {
      "anonymous": false,
      "inputs": [
        {
          "indexed": true,
          "internalType": "bytes32",
          "name": "key",
          "type": "bytes32"
        },
        {
          "indexed": false,
          "internalType": "address",
          "name": "addr",
          "type": "address"
        }
      ],
      "name": "MassetAdded",
      "type": "event"
    },
    {
      "anonymous": false,
      "inputs": [
        {
          "indexed": true,
          "internalType": "bytes32",
          "name": "key",
          "type": "bytes32"
        },
        {
          "indexed": false,
          "internalType": "address",
          "name": "addr",
          "type": "address"
        }
      ],
      "name": "MassetEjected",
      "type": "event"
    },
    {
      "constant": true,
      "inputs": [],
      "name": "Key_Governance",
      "outputs": [
        {
          "internalType": "bytes32",
          "name": "",
          "type": "bytes32"
        }
      ],
      "payable": false,
      "stateMutability": "view",
      "type": "function"
    },
    {
      "constant": true,
      "inputs": [],
      "name": "Key_Manager",
      "outputs": [
        {
          "internalType": "bytes32",
          "name": "",
          "type": "bytes32"
        }
      ],
      "payable": false,
      "stateMutability": "view",
      "type": "function"
    },
    {
      "constant": true,
      "inputs": [],
      "name": "Key_Nexus",
      "outputs": [
        {
          "internalType": "bytes32",
          "name": "",
          "type": "bytes32"
        }
      ],
      "payable": false,
      "stateMutability": "view",
      "type": "function"
    },
    {
      "constant": true,
      "inputs": [],
      "name": "Key_OracleHub",
      "outputs": [
        {
          "internalType": "bytes32",
          "name": "",
          "type": "bytes32"
        }
      ],
      "payable": false,
      "stateMutability": "view",
      "type": "function"
    },
    {
      "constant": true,
      "inputs": [],
      "name": "Key_Recollateraliser",
      "outputs": [
        {
          "internalType": "bytes32",
          "name": "",
          "type": "bytes32"
        }
      ],
      "payable": false,
      "stateMutability": "view",
      "type": "function"
    },
    {
      "constant": true,
      "inputs": [],
      "name": "Key_Staking",
      "outputs": [
        {
          "internalType": "bytes32",
          "name": "",
          "type": "bytes32"
        }
      ],
      "payable": false,
      "stateMutability": "view",
      "type": "function"
    },
    {
      "constant": true,
      "inputs": [],
      "name": "Key_Systok",
      "outputs": [
        {
          "internalType": "bytes32",
          "name": "",
          "type": "bytes32"
        }
      ],
      "payable": false,
      "stateMutability": "view",
      "type": "function"
    },
    {
      "constant": true,
      "inputs": [],
      "name": "forgeValidator",
      "outputs": [
        {
          "internalType": "address",
          "name": "",
          "type": "address"
        }
      ],
      "payable": false,
      "stateMutability": "view",
      "type": "function"
    },
    {
      "constant": true,
      "inputs": [],
      "name": "getMassets",
      "outputs": [
        {
          "internalType": "address[]",
          "name": "addr",
          "type": "address[]"
        },
        {
          "internalType": "bytes32[]",
          "name": "keys",
          "type": "bytes32[]"
        }
      ],
      "payable": false,
      "stateMutability": "view",
      "type": "function"
    },
    {
      "constant": true,
      "inputs": [],
      "name": "nexus",
      "outputs": [
        {
          "internalType": "contract INexus",
          "name": "",
          "type": "address"
        }
      ],
      "payable": false,
      "stateMutability": "view",
      "type": "function"
    },
    {
      "constant": false,
      "inputs": [
        {
          "internalType": "address",
          "name": "_newForgeValidator",
          "type": "address"
        }
      ],
      "name": "upgradeForgeValidator",
      "outputs": [],
      "payable": false,
      "stateMutability": "nonpayable",
      "type": "function"
    },
    {
      "constant": true,
      "inputs": [
        {
          "internalType": "address",
          "name": "_addr",
          "type": "address"
        }
      ],
      "name": "getMassetPrice",
      "outputs": [
        {
          "internalType": "uint256",
          "name": "massetPrice",
          "type": "uint256"
        },
        {
          "internalType": "uint256",
          "name": "systokPrice",
          "type": "uint256"
        }
      ],
      "payable": false,
      "stateMutability": "view",
      "type": "function"
    },
    {
      "constant": false,
      "inputs": [
        {
          "internalType": "bytes32",
          "name": "_massetKey",
          "type": "bytes32"
        },
        {
          "internalType": "address",
          "name": "_masset",
          "type": "address"
        }
      ],
      "name": "addMasset",
      "outputs": [
        {
          "internalType": "address",
          "name": "",
          "type": "address"
        }
      ],
      "payable": false,
      "stateMutability": "nonpayable",
      "type": "function"
    },
    {
      "constant": false,
      "inputs": [
        {
          "internalType": "address",
          "name": "_masset",
          "type": "address"
        }
      ],
      "name": "ejectMasset",
      "outputs": [],
      "payable": false,
      "stateMutability": "nonpayable",
      "type": "function"
    }
  ],
  "bytecode": "0x6080604052624d544160e81b60025534801561001a57600080fd5b50604051620010db380380620010db83398101604081905261003b9161007d565b600080546001600160a01b039384166001600160a01b031991821617909155600180549290931691161790556100df565b8051610077816100c8565b92915050565b6000806040838503121561009057600080fd5b600061009c858561006c565b92505060206100ad8582860161006c565b9150509250929050565b60006001600160a01b038216610077565b6100d1816100b7565b81146100dc57600080fd5b50565b610fec80620000ef6000396000f3fe608060405234801561001057600080fd5b50600436106100ea5760003560e01c8063a3f5c1d21161008c578063b97e0ac611610066578063b97e0ac6146101b9578063d7d52266146101c1578063e5517841146101c9578063f3bdedd2146101d1576100ea565b8063a3f5c1d21461017c578063ae2efd9114610191578063b8fc195714610199576100ea565b80634c7e06a5116100c85780634c7e06a5146101435780635eae58b9146101565780637b4aec791461015e5780638908a41a14610166576100ea565b806301f9c64f146100ef5780630aa8d59a1461011957806326bbe60a1461012e575b600080fd5b6101026100fd366004610b89565b6101d9565b604051610110929190610ebe565b60405180910390f35b61012161033d565b6040516101109190610e72565b61014161013c366004610b89565b61034b565b005b610141610151366004610b89565b61047b565b610121610558565b610121610565565b61016e610573565b604051610110929190610e3f565b6101846105e1565b6040516101109190610e80565b6101216105f0565b6101ac6101a7366004610c07565b610607565b6040516101109190610e31565b6101216106ba565b6101ac6106ca565b6101216106d9565b6101216106e5565b600080806101ee60038563ffffffff6106f616565b90506101f8610a26565b610200610a26565b610208610715565b60408051808201825285815260025460208201529051635b3e92f160e01b81526001600160a01b039290921691635b3e92f19161024791600401610e64565b60806040518083038186803b15801561025f57600080fd5b505afa158015610273573d6000803e3d6000fd5b505050506040513d601f19601f820116820180604052506102979190810190610bcd565b90925090506102aa565b60405180910390fd5b60005b6002811015610311578281600281106102c257fe5b602002015180156102ed575060008282600281106102dc57fe5b602002015167ffffffffffffffff16115b6103095760405162461bcd60e51b81526004016102a190610e9e565b6001016102ad565b50805160209091015167ffffffffffffffff64e8d4a51000928302811698929091021695509350505050565b665374616b696e6760c81b81565b6103536107a8565b6001600160a01b0316336001600160a01b0316146103835760405162461bcd60e51b81526004016102a190610eae565b606060036000018054806020026020016040519081016040528092919081815260200182805480156103de57602002820191906000526020600020905b81546001600160a01b031681526001909101906020018083116103c0575b50939450600093505050505b815181101561047657600082828151811061040157fe5b60200260200101519050806001600160a01b03166326bbe60a856040518263ffffffff1660e01b81526004016104379190610e31565b600060405180830381600087803b15801561045157600080fd5b505af1158015610465573d6000803e3d6000fd5b5050600190930192506103ea915050565b505050565b6104836107a8565b6001600160a01b0316336001600160a01b0316146104b35760405162461bcd60e51b81526004016102a190610eae565b6001600160a01b0381166104d95760405162461bcd60e51b81526004016102a190610e8e565b60006104ec60038363ffffffff6106f616565b90508061050b5760405162461bcd60e51b81526004016102a190610e8e565b61051c60038363ffffffff6107f716565b807f53833a8e3695b7a7ed65575d04bcbbd45546c0992abda788723b6a2bc5ec01788360405161054c9190610e31565b60405180910390a25050565b65537973746f6b60d01b81565b6626b0b730b3b2b960c91b81565b606080600361058181610847565b8154604080516020808402820181019092528281529184918301828280156105d257602002820191906000526020600020905b81546001600160a01b031681526001909101906020018083116105b4575b50505050509150915091509091565b6000546001600160a01b031681565b6f2932b1b7b63630ba32b930b634b9b2b960811b81565b60006106116107a8565b6001600160a01b0316336001600160a01b0316146106415760405162461bcd60e51b81526004016102a190610eae565b6001600160a01b0382166106675760405162461bcd60e51b81526004016102a190610e8e565b6106796003838563ffffffff6108e416565b827fec3e610db6ddb8c3fd224816464f695ab8977b6780a5aba102505ad544c3433e836040516106a99190610e31565b60405180910390a250805b92915050565b6827b930b1b632a43ab160b91b81565b6001546001600160a01b031681565b644e6578757360d81b81565b69476f7665726e616e636560b01b81565b6001600160a01b03166000908152600191909101602052604090205490565b600080546040516385acd64160e01b81526001600160a01b03909116906385acd64190610752906827b930b1b632a43ab160b91b90600401610e72565b60206040518083038186803b15801561076a57600080fd5b505afa15801561077e573d6000803e3d6000fd5b505050506040513d601f19601f820116820180604052506107a29190810190610baf565b90505b90565b60008060009054906101000a90046001600160a01b03166001600160a01b0316630c340a246040518163ffffffff1660e01b815260040160206040518083038186803b15801561076a57600080fd5b6001600160a01b03811660009081526001830160205260409020541561084357610827828263ffffffff61096516565b6001600160a01b03811660009081526001830160205260408120555b5050565b80546040805182815260208084028201019091526060918015610874578160200160208202803883390190505b50905060005b81518110156108de5782600101600084600001838154811061089857fe5b60009182526020808320909101546001600160a01b0316835282019290925260400190205482518390839081106108cb57fe5b602090810291909101015260010161087a565b50919050565b806108f8576108f383836107f7565b610476565b6001600160a01b03821660009081526001840160205260409020546109435782546001810184556000848152602090200180546001600160a01b0319166001600160a01b0384161790555b6001600160a01b03821660009081526001840160205260409020819055505050565b60005b825481101561047657816001600160a01b031683828154811061098757fe5b6000918252602090912001546001600160a01b03161415610a1e578254839060001981019081106109b457fe5b9060005260206000200160009054906101000a90046001600160a01b03168382815481106109de57fe5b600091825260209091200180546001600160a01b0319166001600160a01b03929092169190911790558254610a17846000198301610a44565b5050610843565b600101610968565b60405180604001604052806002906020820280388339509192915050565b815481835581811115610476576000838152602090206104769181019083016107a591905b80821115610a7d5760008155600101610a69565b5090565b80356106b481610f77565b80516106b481610f77565b600082601f830112610aa857600080fd5b6002610abb610ab682610f07565b610ee0565b91508183856020840282011115610ad157600080fd5b60005b83811015610afd5781610ae78882610b68565b8452506020928301929190910190600101610ad4565b5050505092915050565b600082601f830112610b1857600080fd5b6002610b26610ab682610f07565b91508183856020840282011115610b3c57600080fd5b60005b83811015610afd5781610b528882610b7e565b8452506020928301929190910190600101610b3f565b80516106b481610f8e565b80356106b481610f97565b80516106b481610fa0565b600060208284031215610b9b57600080fd5b6000610ba78484610a81565b949350505050565b600060208284031215610bc157600080fd5b6000610ba78484610a8c565b60008060808385031215610be057600080fd5b6000610bec8585610a97565b9250506040610bfd85828601610b07565b9150509250929050565b60008060408385031215610c1a57600080fd5b6000610c268585610b73565b9250506020610bfd85828601610a81565b6000610c438383610c57565b505060200190565b6000610c438383610d61565b610c6081610f43565b82525050565b6000610c7182610f2b565b610c7b8185610f35565b9350610c8683610f25565b8060005b83811015610cb4578151610c9e8882610c37565b9750610ca983610f25565b925050600101610c8a565b509495945050505050565b610cc881610f2f565b610cd28184610f3e565b9250610cdd826107a5565b8060005b83811015610d0b578151610cf58782610c4b565b9650610d0083610f25565b925050600101610ce1565b505050505050565b6000610d1e82610f2b565b610d288185610f35565b9350610d3383610f25565b8060005b83811015610cb4578151610d4b8882610c4b565b9750610d5683610f25565b925050600101610d37565b610c60816107a5565b610c6081610f6c565b6000610d80602a83610f35565b7f4d6173736574206d7573742062652061207265666572656e63656420696d706c81526932b6b2b73a30ba34b7b760b11b602082015260400192915050565b6000610dcc601e83610f35565b7f507269636573206d75737420657869737420616e642062652066726573680000815260200192915050565b6000610e05601983610f35565b7f4f6e6c7920676f7665726e6f722063616e206578656375746500000000000000815260200192915050565b602081016106b48284610c57565b60408082528101610e508185610c66565b90508181036020830152610ba78184610d13565b604081016106b48284610cbf565b602081016106b48284610d61565b602081016106b48284610d6a565b602080825281016106b481610d73565b602080825281016106b481610dbf565b602080825281016106b481610df8565b60408101610ecc8285610d61565b610ed96020830184610d61565b9392505050565b60405181810167ffffffffffffffff81118282101715610eff57600080fd5b604052919050565b600067ffffffffffffffff821115610f1e57600080fd5b5060200290565b60200190565b5190565b50600290565b90815260200190565b919050565b60006106b482610f53565b151590565b6001600160a01b031690565b67ffffffffffffffff1690565b60006106b482610f43565b610f8081610f43565b8114610f8b57600080fd5b50565b610f8081610f4e565b610f80816107a5565b610f8081610f5f56fea365627a7a7231582048a5bbb23bdb295fa4c522e44a6a3302a0fbb8be413dd6886d79c570fa956f6c6c6578706572696d656e74616cf564736f6c63430005100040",
  "source": "pragma solidity ^0.5.12;\npragma experimental ABIEncoderV2;\n\nimport { IManager } from \"../interfaces/IManager.sol\";\nimport { IMasset } from \"../interfaces/IMasset.sol\";\nimport { ISystok } from \"../interfaces/ISystok.sol\";\nimport { IOracleHub } from \"../interfaces/IOracleHub.sol\";\n\nimport { ManagerState } from \"./ManagerState.sol\";\n\nimport { StableMath } from \"../shared/math/StableMath.sol\";\n\n/**\n * @title Manager\n * @dev Base class for managing mStable Assets (Massets)\n * Manager:\n * - Manages the basket\n * - Coordinates recollateralisation\n * - Maintains State\n * Module: Handles new module updates published by the Nexus\n * Portal: Provides Massets with prices and general interface into system\n * FactoryHub: Creates more Massets\n */\ncontract Manager is\n    IManager,\n    ManagerState\n{\n    using StableMath for uint256;\n\n    /** @dev Events to emit */\n    event MassetAdded(bytes32 indexed key, address addr);\n    event MassetEjected(bytes32 indexed key, address addr);\n\n    /**\n      * @dev Sets up the core state of the Manager\n      * @param _nexus             Nexus module\n      * @param _forgeValidator          Address of current ForgeValidator\n      */\n    constructor(\n        address _nexus,\n        address _forgeValidator\n    )\n        ManagerState(_nexus)\n        public\n    {\n        forgeValidator = _forgeValidator;\n    }\n\n\n    /***************************************\n              BASKET MANAGEMENT\n    ****************************************/\n\n    /**\n      * @dev Upgrades the version of ForgeValidator referenced across the Massets\n      * @param _newForgeValidator Address of the new ForgeValidator\n      */\n    function upgradeForgeValidator(address _newForgeValidator)\n    external\n    onlyGovernor {\n        address[] memory _massets = massets.keys;\n        for(uint256 i = 0; i < _massets.length; i++) {\n            IMasset tempMasset = IMasset(_massets[i]);\n            tempMasset.upgradeForgeValidator(_newForgeValidator);\n        }\n    }\n\n    /***************************************\n                      ETC\n    ****************************************/\n\n    /**\n      * @dev Fetch the price of a Masset from OracleHub\n      * Reverts if price is not available\n      * @param _addr Address of the Masset\n      * @return uint256 Price of Masset where $1 == 1e18\n      * @return uint256 Price of Systok where $1 == 1e18\n      */\n    function getMassetPrice(address _addr)\n    external\n    view\n    returns(uint256 massetPrice, uint256 systokPrice) {\n        // Get the relevant masset key\n        bytes32 key = massets.get(_addr);\n\n        // Fetch the prices where $1 == 1e6\n        (bool[2] memory isFresh, uint64[2] memory prices) = IOracleHub(_oracleHub()).readPricePair([key, oracle_key_systok]);\n\n        // Validate state of the response\n        require(prices.length == 2, \"Must return valid pair\");\n        for(uint i = 0; i < prices.length; i++){\n          require(isFresh[i] && prices[i] > 0, \"Prices must exist and be fresh\");\n        }\n\n        // Cast prices into relevant format\n        return (prices[0] * 1e12, prices[1] * 1e12);\n    }\n\n\n    /***************************************\n                  FACTORY\n    ****************************************/\n\n    /**\n      * @dev Adds an already and initialised Masset to the stack, storing the relevant data in the ManagerState\n      * @param _massetKey     Key identifier for the Masset\n      * @param _masset        Address of the Masset contract\n      * @return               Address of new Masset\n      */\n    function addMasset(\n        bytes32 _massetKey,\n        address _masset\n    )\n        external\n        onlyGovernor\n        returns (address)\n    {\n        require(_masset != address(0), \"Masset must be a referenced implementation\");\n\n        massets.add(_masset, _massetKey);\n\n        emit MassetAdded(_massetKey, _masset);\n        return _masset;\n    }\n\n    /**\n      * @dev Removes a Masset from the system and thus releases from recollateraliastion protection\n      * @param _masset        Address of the Masset contract\n      */\n    function ejectMasset(\n        address _masset\n    )\n        external\n        onlyGovernor\n    {\n        require(_masset != address(0), \"Masset must be a referenced implementation\");\n        bytes32 key = massets.get(_masset);\n        require(key != bytes32(0x0), \"Masset must be a referenced implementation\");\n\n        massets.remove(_masset);\n\n        emit MassetEjected(key, _masset);\n    }\n}\n",
  "sourcePath": "/home/alex/projects/stability-labs/mstable/mstable-contracts/contracts/manager/Manager.sol",
  "compiler": {
    "name": "solc",
    "version": "0.5.16+commit.9c3226ce.Emscripten.clang"
  },
  "schemaVersion": "3.0.23",
  "updatedAt": "2020-02-17T19:56:32.802Z",
  "devdoc": {
    "details": "Base class for managing mStable Assets (Massets) Manager: - Manages the basket - Coordinates recollateralisation - Maintains State Module: Handles new module updates published by the Nexus Portal: Provides Massets with prices and general interface into system FactoryHub: Creates more Massets",
    "methods": {
      "addMasset(bytes32,address)": {
        "details": "Adds an already and initialised Masset to the stack, storing the relevant data in the ManagerState",
        "params": {
          "_masset": "Address of the Masset contract",
          "_massetKey": "Key identifier for the Masset"
        },
        "return": "Address of new Masset"
      },
      "constructor": {
        "details": "Sets up the core state of the Manager",
        "params": {
          "_forgeValidator": "Address of current ForgeValidator",
          "_nexus": "Nexus module"
        }
      },
      "ejectMasset(address)": {
        "details": "Removes a Masset from the system and thus releases from recollateraliastion protection",
        "params": {
          "_masset": "Address of the Masset contract"
        }
      },
      "getMassetPrice(address)": {
        "details": "Fetch the price of a Masset from OracleHub Reverts if price is not available",
        "params": {
          "_addr": "Address of the Masset"
        },
        "return": "uint256 Price of Masset where $1 == 1e18uint256 Price of Systok where $1 == 1e18"
      },
      "getMassets()": {
        "details": "Get the addresses and oracle keys for all the Massets",
        "return": "bytes32 Array of Masset identifiers"
      },
      "upgradeForgeValidator(address)": {
        "details": "Upgrades the version of ForgeValidator referenced across the Massets",
        "params": {
          "_newForgeValidator": "Address of the new ForgeValidator"
        }
      }
    },
    "title": "Manager"
  },
  "userdoc": {
    "methods": {}
  }
}