{
  "contractName": "ManagerMock",
  "abi": [
    {
      "inputs": [
        {
          "internalType": "contract IGovernancePortal",
          "name": "_governor",
          "type": "address"
        },
        {
          "internalType": "address",
          "name": "_nexus",
          "type": "address"
        },
        {
          "internalType": "contract ISystok",
          "name": "_systok",
          "type": "address"
        },
        {
          "internalType": "contract IOracleHub",
          "name": "_oracleHub",
          "type": "address"
        },
        {
          "internalType": "address",
          "name": "_forgeLib",
          "type": "address"
        }
      ],
      "payable": false,
      "stateMutability": "nonpayable",
      "type": "constructor"
    },
    {
      "anonymous": false,
      "inputs": [
        {
          "indexed": true,
          "internalType": "bytes32",
          "name": "key",
          "type": "bytes32"
        },
        {
          "indexed": false,
          "internalType": "address",
          "name": "addr",
          "type": "address"
        }
      ],
      "name": "MassetAdded",
      "type": "event"
    },
    {
      "anonymous": false,
      "inputs": [
        {
          "indexed": true,
          "internalType": "bytes32",
          "name": "key",
          "type": "bytes32"
        },
        {
          "indexed": false,
          "internalType": "address",
          "name": "addr",
          "type": "address"
        }
      ],
      "name": "MassetEjected",
      "type": "event"
    },
    {
      "anonymous": false,
      "inputs": [
        {
          "indexed": true,
          "internalType": "bytes32",
          "name": "key",
          "type": "bytes32"
        },
        {
          "indexed": false,
          "internalType": "address",
          "name": "newAddress",
          "type": "address"
        }
      ],
      "name": "ModuleUpdated",
      "type": "event"
    },
    {
      "constant": true,
      "inputs": [],
      "name": "Key_Governance",
      "outputs": [
        {
          "internalType": "bytes32",
          "name": "",
          "type": "bytes32"
        }
      ],
      "payable": false,
      "stateMutability": "view",
      "type": "function"
    },
    {
      "constant": true,
      "inputs": [],
      "name": "Key_Manager",
      "outputs": [
        {
          "internalType": "bytes32",
          "name": "",
          "type": "bytes32"
        }
      ],
      "payable": false,
      "stateMutability": "view",
      "type": "function"
    },
    {
      "constant": true,
      "inputs": [],
      "name": "Key_Nexus",
      "outputs": [
        {
          "internalType": "bytes32",
          "name": "",
          "type": "bytes32"
        }
      ],
      "payable": false,
      "stateMutability": "view",
      "type": "function"
    },
    {
      "constant": true,
      "inputs": [],
      "name": "Key_OracleHub",
      "outputs": [
        {
          "internalType": "bytes32",
          "name": "",
          "type": "bytes32"
        }
      ],
      "payable": false,
      "stateMutability": "view",
      "type": "function"
    },
    {
      "constant": true,
      "inputs": [],
      "name": "Key_Recollateraliser",
      "outputs": [
        {
          "internalType": "bytes32",
          "name": "",
          "type": "bytes32"
        }
      ],
      "payable": false,
      "stateMutability": "view",
      "type": "function"
    },
    {
      "constant": true,
      "inputs": [],
      "name": "Key_Systok",
      "outputs": [
        {
          "internalType": "bytes32",
          "name": "",
          "type": "bytes32"
        }
      ],
      "payable": false,
      "stateMutability": "view",
      "type": "function"
    },
    {
      "constant": false,
      "inputs": [
        {
          "internalType": "bytes32",
          "name": "_massetKey",
          "type": "bytes32"
        },
        {
          "internalType": "address",
          "name": "_masset",
          "type": "address"
        }
      ],
      "name": "addMasset",
      "outputs": [
        {
          "internalType": "address",
          "name": "",
          "type": "address"
        }
      ],
      "payable": false,
      "stateMutability": "nonpayable",
      "type": "function"
    },
    {
      "constant": false,
      "inputs": [
        {
          "internalType": "address",
          "name": "_masset",
          "type": "address"
        }
      ],
      "name": "ejectMasset",
      "outputs": [],
      "payable": false,
      "stateMutability": "nonpayable",
      "type": "function"
    },
    {
      "constant": true,
      "inputs": [],
      "name": "forgeLib",
      "outputs": [
        {
          "internalType": "address",
          "name": "",
          "type": "address"
        }
      ],
      "payable": false,
      "stateMutability": "view",
      "type": "function"
    },
    {
      "constant": true,
      "inputs": [
        {
          "internalType": "address",
          "name": "_addr",
          "type": "address"
        }
      ],
      "name": "getMassetPrice",
      "outputs": [
        {
          "internalType": "uint256",
          "name": "massetPrice",
          "type": "uint256"
        },
        {
          "internalType": "uint256",
          "name": "systokPrice",
          "type": "uint256"
        }
      ],
      "payable": false,
      "stateMutability": "view",
      "type": "function"
    },
    {
      "constant": true,
      "inputs": [],
      "name": "getMassets",
      "outputs": [
        {
          "internalType": "address[]",
          "name": "addr",
          "type": "address[]"
        },
        {
          "internalType": "bytes32[]",
          "name": "keys",
          "type": "bytes32[]"
        }
      ],
      "payable": false,
      "stateMutability": "view",
      "type": "function"
    },
    {
      "constant": true,
      "inputs": [],
      "name": "getModuleAddresses",
      "outputs": [
        {
          "internalType": "address",
          "name": "",
          "type": "address"
        },
        {
          "internalType": "address",
          "name": "",
          "type": "address"
        },
        {
          "internalType": "address",
          "name": "",
          "type": "address"
        }
      ],
      "payable": false,
      "stateMutability": "view",
      "type": "function"
    },
    {
      "constant": true,
      "inputs": [],
      "name": "getSystokPrice",
      "outputs": [
        {
          "internalType": "uint256",
          "name": "",
          "type": "uint256"
        }
      ],
      "payable": false,
      "stateMutability": "view",
      "type": "function"
    },
    {
      "constant": false,
      "inputs": [
        {
          "internalType": "bytes32",
          "name": "_key",
          "type": "bytes32"
        },
        {
          "internalType": "address",
          "name": "_newAddress",
          "type": "address"
        }
      ],
      "name": "updateModule",
      "outputs": [],
      "payable": false,
      "stateMutability": "nonpayable",
      "type": "function"
    },
    {
      "constant": false,
      "inputs": [
        {
          "internalType": "address",
          "name": "_newForgeLib",
          "type": "address"
        }
      ],
      "name": "upgradeForgeLib",
      "outputs": [],
      "payable": false,
      "stateMutability": "nonpayable",
      "type": "function"
    }
  ],
  "bytecode": "0x6080604052624d544160e81b6005553480156200001b57600080fd5b5060405162001b7438038062001b748339810160408190526200003e916200057e565b84848484848380806000806101000a8154816001600160a01b0302191690836001600160a01b031602179055506000606080836001600160a01b031663b2494df36040518163ffffffff1660e01b8152600401600060405180830381600087803b158015620000ac57600080fd5b505af1158015620000c1573d6000803e3d6000fd5b505050506040513d6000823e601f3d908101601f19168201604052620000eb9190810190620005fe565b9194509250905060005b838110156200014157620001388382815181106200010f57fe5b60200260200101518383815181106200012457fe5b6020026020010151620001a260201b60201c565b600101620000f5565b5050600180546001600160a01b03199081166001600160a01b039b8c1617909155600280548216988b169890981790975550506003805486169488169490941790935550600480549093169416939093179055506200075f95505050505050565b817ff0d0fe9ecd941ad0096a6b95e0998ddcd76ba6a240a106fef284fc2d4f0caa4182604051620001d491906200069e565b60405180910390a269476f7665726e616e636560b01b8214156200030857600180546001600160a01b0319166001600160a01b0383161790556006805460408051602080840282018101909252828152606093909290918301828280156200026657602002820191906000526020600020905b81546001600160a01b0316815260019091019060200180831162000247575b50939450600093505050505b8151811015620003055760008282815181106200028b57fe5b60200260200101519050806001600160a01b031663ab033ea9856040518263ffffffff1660e01b8152600401620002c391906200069e565b600060405180830381600087803b158015620002de57600080fd5b505af1158015620002f3573d6000803e3d6000fd5b50506001909301925062000272915050565b50505b6626b0b730b3b2b960c91b8214156200041a57606060066000018054806020026020016040519081016040528092919081815260200182805480156200037857602002820191906000526020600020905b81546001600160a01b0316815260019091019060200180831162000359575b50939450600093505050505b8151811015620004175760008282815181106200039d57fe5b60200260200101519050806001600160a01b031663d0ebdbe7856040518263ffffffff1660e01b8152600401620003d59190620006ae565b600060405180830381600087803b158015620003f057600080fd5b505af115801562000405573d6000803e3d6000fd5b50506001909301925062000384915050565b50505b6827b930b1b632a43ab160b91b8214156200044b57600380546001600160a01b0319166001600160a01b0383161790555b5050565b80516200045c816200072f565b92915050565b600082601f8301126200047457600080fd5b81516200048b6200048582620006e5565b620006be565b91508181835260208401935060208101905083856020840282011115620004b157600080fd5b60005b83811015620004e15781620004ca88826200044f565b8452506020928301929190910190600101620004b4565b5050505092915050565b600082601f830112620004fd57600080fd5b81516200050e6200048582620006e5565b915081818352602084019350602081019050838560208402820111156200053457600080fd5b60005b83811015620004e157816200054d888262000564565b845250602092830192919091019060010162000537565b80516200045c8162000749565b80516200045c8162000754565b600080600080600060a086880312156200059757600080fd5b6000620005a5888862000571565b9550506020620005b8888289016200044f565b9450506040620005cb8882890162000571565b9350506060620005de8882890162000571565b9250506080620005f1888289016200044f565b9150509295509295909350565b6000806000606084860312156200061457600080fd5b600062000622868662000564565b93505060208401516001600160401b038111156200063f57600080fd5b6200064d86828701620004eb565b92505060408401516001600160401b038111156200066a57600080fd5b620006788682870162000462565b9150509250925092565b6200068d8162000706565b82525050565b6200068d8162000716565b602081016200045c828462000682565b602081016200045c828462000693565b6040518181016001600160401b0381118282101715620006dd57600080fd5b604052919050565b60006001600160401b03821115620006fc57600080fd5b5060209081020190565b60006200045c8262000723565b90565b60006200045c8262000706565b6001600160a01b031690565b6200073a8162000706565b81146200074657600080fd5b50565b6200073a8162000713565b6200073a8162000716565b611405806200076f6000396000f3fe608060405234801561001057600080fd5b50600436106100f55760003560e01c8063ae2efd9111610097578063c097b1fb11610066578063c097b1fb146101c3578063dcf60c9f146101d6578063e5517841146101e9578063f3bdedd2146101f1576100f5565b8063ae2efd9114610198578063aed41115146101a0578063b8fc1957146101a8578063b97e0ac6146101bb576100f5565b80636e1b1b80116100d35780636e1b1b801461014e5780637b4aec79146101635780638908a41a1461016b5780639b507fdc14610181576100f5565b806301f9c64f146100fa5780634c7e06a5146101245780635eae58b914610139575b600080fd5b61010d610108366004610e94565b6101f9565b60405161011b9291906112de565b60405180910390f35b610137610132366004610e94565b610357565b005b610141610426565b60405161011b9190611262565b610156610433565b60405161011b91906111f9565b610141610442565b610173610450565b60405161011b92919061122f565b6101896104be565b60405161011b93929190611207565b6101416104db565b6101416104f2565b6101566101b6366004610f24565b610505565b6101416105ab565b6101376101d1366004610f24565b6105bb565b6101376101e4366004610e94565b61061f565b610141610741565b61014161074d565b6000808061020e60068563ffffffff61075e16565b9050610218610d3c565b610220610d3c565b60035460408051808201825285815260055460208201529051635b3e92f160e01b81526001600160a01b0390921691635b3e92f19161026191600401611254565b60806040518083038186803b15801561027957600080fd5b505afa15801561028d573d6000803e3d6000fd5b505050506040513d601f19601f820116820180604052506102b19190810190610eba565b90925090506102c4565b60405180910390fd5b60005b600281101561032b578281600281106102dc57fe5b60200201518015610307575060008282600281106102f657fe5b602002015167ffffffffffffffff16115b6103235760405162461bcd60e51b81526004016102bb9061129e565b6001016102c7565b50805160209091015167ffffffffffffffff64e8d4a51000928302811698929091021695509350505050565b6001546001600160a01b031633146103815760405162461bcd60e51b81526004016102bb906112be565b6001600160a01b0381166103a75760405162461bcd60e51b81526004016102bb9061128e565b60006103ba60068363ffffffff61075e16565b9050806103d95760405162461bcd60e51b81526004016102bb9061128e565b6103ea60068363ffffffff61077d16565b807f53833a8e3695b7a7ed65575d04bcbbd45546c0992abda788723b6a2bc5ec01788360405161041a91906111f9565b60405180910390a25050565b65537973746f6b60d01b81565b6004546001600160a01b031681565b6626b0b730b3b2b960c91b81565b606080600661045e816107cb565b8154604080516020808402820181019092528281529184918301828280156104af57602002820191906000526020600020905b81546001600160a01b03168152600190910190602001808311610491575b50505050509150915091509091565b6002546004546001546001600160a01b0392831693918316921690565b6f2932b1b7b63630ba32b930b634b9b2b960811b81565b60006104ff600554610868565b90505b90565b6001546000906001600160a01b031633146105325760405162461bcd60e51b81526004016102bb906112be565b6001600160a01b0382166105585760405162461bcd60e51b81526004016102bb9061128e565b61056a6006838563ffffffff6108be16565b827fec3e610db6ddb8c3fd224816464f695ab8977b6780a5aba102505ad544c3433e8360405161059a91906111f9565b60405180910390a250805b92915050565b6827b930b1b632a43ab160b91b81565b6000546001600160a01b031633146105e55760405162461bcd60e51b81526004016102bb9061127e565b644e6578757360d81b82141561061157600080546001600160a01b0319166001600160a01b0383161790555b61061b828261093f565b5050565b6001546001600160a01b031633146106495760405162461bcd60e51b81526004016102bb906112be565b606060066000018054806020026020016040519081016040528092919081815260200182805480156106a457602002820191906000526020600020905b81546001600160a01b03168152600190910190602001808311610686575b50939450600093505050505b815181101561073c5760008282815181106106c757fe5b60200260200101519050806001600160a01b031663dcf60c9f856040518263ffffffff1660e01b81526004016106fd91906111f9565b600060405180830381600087803b15801561071757600080fd5b505af115801561072b573d6000803e3d6000fd5b5050600190930192506106b0915050565b505050565b644e6578757360d81b81565b69476f7665726e616e636560b01b81565b6001600160a01b03166000908152600191909101602052604090205490565b6001600160a01b03811660009081526001830160205260409020541561061b576107ad828263ffffffff610bd616565b6001600160a01b031660009081526001919091016020526040812055565b805460408051828152602080840282010190915260609180156107f8578160200160208202803883390190505b50905060005b81518110156108625782600101600084600001838154811061081c57fe5b60009182526020808320909101546001600160a01b03168352820192909252604001902054825183908390811061084f57fe5b60209081029190910101526001016107fe565b50919050565b600080600061087684610c97565b915091506000811161089a5760405162461bcd60e51b81526004016102bb906112ce565b816108b75760405162461bcd60e51b81526004016102bb906112ae565b9392505050565b806108d2576108cd838361077d565b61073c565b6001600160a01b038216600090815260018401602052604090205461091d5782546001810184556000848152602090200180546001600160a01b0319166001600160a01b0384161790555b6001600160a01b03821660009081526001840160205260409020819055505050565b817ff0d0fe9ecd941ad0096a6b95e0998ddcd76ba6a240a106fef284fc2d4f0caa418260405161096f91906111f9565b60405180910390a269476f7665726e616e636560b01b821415610a9957600180546001600160a01b0319166001600160a01b0383161790556006805460408051602080840282018101909252828152606093909290918301828280156109fe57602002820191906000526020600020905b81546001600160a01b031681526001909101906020018083116109e0575b50939450600093505050505b8151811015610a96576000828281518110610a2157fe5b60200260200101519050806001600160a01b031663ab033ea9856040518263ffffffff1660e01b8152600401610a5791906111f9565b600060405180830381600087803b158015610a7157600080fd5b505af1158015610a85573d6000803e3d6000fd5b505060019093019250610a0a915050565b50505b6626b0b730b3b2b960c91b821415610ba15760606006600001805480602002602001604051908101604052809291908181526020018280548015610b0657602002820191906000526020600020905b81546001600160a01b03168152600190910190602001808311610ae8575b50939450600093505050505b8151811015610b9e576000828281518110610b2957fe5b60200260200101519050806001600160a01b031663d0ebdbe7856040518263ffffffff1660e01b8152600401610b5f9190611270565b600060405180830381600087803b158015610b7957600080fd5b505af1158015610b8d573d6000803e3d6000fd5b505060019093019250610b12915050565b50505b6827b930b1b632a43ab160b91b82141561061b57600380546001600160a01b0383166001600160a01b03199091161790555050565b60005b825481101561073c57816001600160a01b0316838281548110610bf857fe5b6000918252602090912001546001600160a01b03161415610c8f57825483906000198101908110610c2557fe5b9060005260206000200160009054906101000a90046001600160a01b0316838281548110610c4f57fe5b600091825260209091200180546001600160a01b0319166001600160a01b03929092169190911790558254610c88846000198301610d5a565b505061061b565b600101610bd9565b6003546040516247a61960e51b81526000918291829182916001600160a01b03909116906308f4c32090610ccf908890600401611262565b604080518083038186803b158015610ce657600080fd5b505afa158015610cfa573d6000803e3d6000fd5b505050506040513d601f19601f82011682018060405250610d1e9190810190610ef4565b909664e8d4a5100090910267ffffffffffffffff1695509350505050565b60405180604001604052806002906020820280388339509192915050565b81548183558181111561073c5760008381526020902061073c91810190830161050291905b80821115610d935760008155600101610d7f565b5090565b80356105a581611390565b600082601f830112610db357600080fd5b6002610dc6610dc182611320565b6112f9565b91508183856020840282011115610ddc57600080fd5b60005b83811015610e085781610df28882610e73565b8452506020928301929190910190600101610ddf565b5050505092915050565b600082601f830112610e2357600080fd5b6002610e31610dc182611320565b91508183856020840282011115610e4757600080fd5b60005b83811015610e085781610e5d8882610e89565b8452506020928301929190910190600101610e4a565b80516105a5816113a7565b80356105a5816113b0565b80516105a5816113b9565b600060208284031215610ea657600080fd5b6000610eb28484610d97565b949350505050565b60008060808385031215610ecd57600080fd5b6000610ed98585610da2565b9250506040610eea85828601610e12565b9150509250929050565b60008060408385031215610f0757600080fd5b6000610f138585610e73565b9250506020610eea85828601610e89565b60008060408385031215610f3757600080fd5b6000610f438585610e7e565b9250506020610eea85828601610d97565b6000610f608383610f74565b505060200190565b6000610f60838361107e565b610f7d8161135c565b82525050565b6000610f8e82611344565b610f98818561134e565b9350610fa38361133e565b8060005b83811015610fd1578151610fbb8882610f54565b9750610fc68361133e565b925050600101610fa7565b509495945050505050565b610fe581611348565b610fef8184611357565b9250610ffa82610502565b8060005b838110156110285781516110128782610f68565b965061101d8361133e565b925050600101610ffe565b505050505050565b600061103b82611344565b611045818561134e565b93506110508361133e565b8060005b83811015610fd15781516110688882610f68565b97506110738361133e565b925050600101611054565b610f7d81610502565b610f7d81611385565b600061109d60238361134e565b7f4f6e6c79207075626c6973686572206d61792063616c6c2074686973206d65748152621a1bd960ea1b602082015260400192915050565b60006110e2602a8361134e565b7f4d6173736574206d7573742062652061207265666572656e63656420696d706c81526932b6b2b73a30ba34b7b760b11b602082015260400192915050565b600061112e601e8361134e565b7f507269636573206d75737420657869737420616e642062652066726573680000815260200192915050565b6000611167601d8361134e565b7f5072696365206d75737420626520667265736820696e204f7261636c65000000815260200192915050565b60006111a060118361134e565b7027b7363c903a34329033b7bb32b93737b960791b815260200192915050565b60006111cd601a8361134e565b7f5072696365206d75737420657869737420696e204f7261636c65000000000000815260200192915050565b602081016105a58284610f74565b606081016112158286610f74565b6112226020830185610f74565b610eb26040830184610f74565b604080825281016112408185610f83565b90508181036020830152610eb28184611030565b604081016105a58284610fdc565b602081016105a5828461107e565b602081016105a58284611087565b602080825281016105a581611090565b602080825281016105a5816110d5565b602080825281016105a581611121565b602080825281016105a58161115a565b602080825281016105a581611193565b602080825281016105a5816111c0565b604081016112ec828561107e565b6108b7602083018461107e565b60405181810167ffffffffffffffff8111828210171561131857600080fd5b604052919050565b600067ffffffffffffffff82111561133757600080fd5b5060200290565b60200190565b5190565b50600290565b90815260200190565b919050565b60006105a58261136c565b151590565b6001600160a01b031690565b67ffffffffffffffff1690565b60006105a58261135c565b6113998161135c565b81146113a457600080fd5b50565b61139981611367565b61139981610502565b6113998161137856fea365627a7a723158208006b798dd81f1e2e9ff0d0d3c0f203c73b7b87a365f51d5b4683e17cdbb54f76c6578706572696d656e74616cf564736f6c63430005100040",
  "source": "pragma solidity ^0.5.12;\npragma experimental ABIEncoderV2;\n\nimport { Manager, ISystok, IOracleHub, IGovernancePortal } from \"../../manager/Manager.sol\";\n\n/**\n * @title ManagerMock so we can manipulate the storage for use in testing\n */\ncontract ManagerMock is Manager {\n\n    constructor(\n        IGovernancePortal _governor,\n        address _nexus,\n        ISystok _systok,\n        IOracleHub _oracleHub,\n        address _forgeLib\n    )\n        Manager(\n            _governor,\n            _nexus,\n            _systok,\n            _oracleHub,\n            _forgeLib\n        )\n        public\n    {\n\n    }\n\n}\n\n\n",
  "sourcePath": "/Users/james/mstable/mStable-contracts/contracts/z_mocks/manager/ManagerMock.sol",
  "compiler": {
    "name": "solc",
    "version": "0.5.16+commit.9c3226ce.Emscripten.clang"
  },
  "schemaVersion": "3.0.23",
  "updatedAt": "2020-02-06T13:06:09.632Z",
  "devdoc": {
    "methods": {
      "addMasset(bytes32,address)": {
        "details": "Adds an already and initialised Masset to the stack, storing the relevant data in the ManagerState",
        "params": {
          "_masset": "Address of the Masset contract",
          "_massetKey": "Key identifier for the Masset"
        },
        "return": "Address of new Masset"
      },
      "ejectMasset(address)": {
        "details": "Removes a Masset from the system and thus releases from recollateraliastion protection",
        "params": {
          "_masset": "Address of the Masset contract"
        }
      },
      "getMassetPrice(address)": {
        "details": "Fetch the price of a Masset from OracleHub Reverts if price is not available",
        "params": {
          "_addr": "Address of the Masset"
        },
        "return": "uint256 Price of Masset where $1 == 1e18uint256 Price of Systok where $1 == 1e18"
      },
      "getMassets()": {
        "details": "Get the addresses and oracle keys for all the Massets",
        "return": "bytes32 Array of Masset identifiers"
      },
      "getModuleAddresses()": {
        "details": "Fetch relevant information used for setting up a Masset",
        "return": "Systok addressForgeLib addressGovernance address"
      },
      "getSystokPrice()": {
        "details": "Fetch the price of Systok from OracleHub Reverts if price is not available",
        "return": "uint256 Price of Systok where $1 == 1e18"
      },
      "updateModule(bytes32,address)": {
        "details": "Higher order function to allow for module updates only via publisher",
        "params": {
          "_key": "Key of the new module",
          "_newAddress": "Address of the new module"
        }
      },
      "upgradeForgeLib(address)": {
        "details": "Upgrades the version of ForgeLib referenced across the Massets",
        "params": {
          "_newForgeLib": "Address of the new ForgeLib"
        }
      }
    },
    "title": "ManagerMock so we can manipulate the storage for use in testing"
  },
  "userdoc": {
    "methods": {}
  }
}