{
  "contractName": "Manager",
  "abi": [
    {
      "inputs": [
        {
          "internalType": "address",
          "name": "_nexus",
          "type": "address"
        },
        {
          "internalType": "address",
          "name": "_forgeValidator",
          "type": "address"
        }
      ],
      "payable": false,
      "stateMutability": "nonpayable",
      "type": "constructor"
    },
    {
      "anonymous": false,
      "inputs": [
        {
          "indexed": true,
          "internalType": "bytes32",
          "name": "key",
          "type": "bytes32"
        },
        {
          "indexed": false,
          "internalType": "address",
          "name": "addr",
          "type": "address"
        }
      ],
      "name": "MassetAdded",
      "type": "event"
    },
    {
      "anonymous": false,
      "inputs": [
        {
          "indexed": true,
          "internalType": "bytes32",
          "name": "key",
          "type": "bytes32"
        },
        {
          "indexed": false,
          "internalType": "address",
          "name": "addr",
          "type": "address"
        }
      ],
      "name": "MassetEjected",
      "type": "event"
    },
    {
      "constant": true,
      "inputs": [],
      "name": "Key_Governance",
      "outputs": [
        {
          "internalType": "bytes32",
          "name": "",
          "type": "bytes32"
        }
      ],
      "payable": false,
      "stateMutability": "view",
      "type": "function"
    },
    {
      "constant": true,
      "inputs": [],
      "name": "Key_Governor",
      "outputs": [
        {
          "internalType": "bytes32",
          "name": "",
          "type": "bytes32"
        }
      ],
      "payable": false,
      "stateMutability": "view",
      "type": "function"
    },
    {
      "constant": true,
      "inputs": [],
      "name": "Key_Manager",
      "outputs": [
        {
          "internalType": "bytes32",
          "name": "",
          "type": "bytes32"
        }
      ],
      "payable": false,
      "stateMutability": "view",
      "type": "function"
    },
    {
      "constant": true,
      "inputs": [],
      "name": "Key_Nexus",
      "outputs": [
        {
          "internalType": "bytes32",
          "name": "",
          "type": "bytes32"
        }
      ],
      "payable": false,
      "stateMutability": "view",
      "type": "function"
    },
    {
      "constant": true,
      "inputs": [],
      "name": "Key_OracleHub",
      "outputs": [
        {
          "internalType": "bytes32",
          "name": "",
          "type": "bytes32"
        }
      ],
      "payable": false,
      "stateMutability": "view",
      "type": "function"
    },
    {
      "constant": true,
      "inputs": [],
      "name": "Key_Recollateraliser",
      "outputs": [
        {
          "internalType": "bytes32",
          "name": "",
          "type": "bytes32"
        }
      ],
      "payable": false,
      "stateMutability": "view",
      "type": "function"
    },
    {
      "constant": true,
      "inputs": [],
      "name": "Key_Staking",
      "outputs": [
        {
          "internalType": "bytes32",
          "name": "",
          "type": "bytes32"
        }
      ],
      "payable": false,
      "stateMutability": "view",
      "type": "function"
    },
    {
      "constant": true,
      "inputs": [],
      "name": "Key_Systok",
      "outputs": [
        {
          "internalType": "bytes32",
          "name": "",
          "type": "bytes32"
        }
      ],
      "payable": false,
      "stateMutability": "view",
      "type": "function"
    },
    {
      "constant": true,
      "inputs": [],
      "name": "forgeValidator",
      "outputs": [
        {
          "internalType": "address",
          "name": "",
          "type": "address"
        }
      ],
      "payable": false,
      "stateMutability": "view",
      "type": "function"
    },
    {
      "constant": true,
      "inputs": [],
      "name": "getMassets",
      "outputs": [
        {
          "internalType": "address[]",
          "name": "addr",
          "type": "address[]"
        },
        {
          "internalType": "bytes32[]",
          "name": "keys",
          "type": "bytes32[]"
        }
      ],
      "payable": false,
      "stateMutability": "view",
      "type": "function"
    },
    {
      "constant": true,
      "inputs": [],
      "name": "nexus",
      "outputs": [
        {
          "internalType": "contract INexus",
          "name": "",
          "type": "address"
        }
      ],
      "payable": false,
      "stateMutability": "view",
      "type": "function"
    },
    {
      "constant": false,
      "inputs": [
        {
          "internalType": "address",
          "name": "_newForgeValidator",
          "type": "address"
        }
      ],
      "name": "upgradeForgeValidator",
      "outputs": [],
      "payable": false,
      "stateMutability": "nonpayable",
      "type": "function"
    },
    {
      "constant": true,
      "inputs": [
        {
          "internalType": "address",
          "name": "_addr",
          "type": "address"
        }
      ],
      "name": "getMassetPrice",
      "outputs": [
        {
          "internalType": "uint256",
          "name": "massetPrice",
          "type": "uint256"
        },
        {
          "internalType": "uint256",
          "name": "systokPrice",
          "type": "uint256"
        }
      ],
      "payable": false,
      "stateMutability": "view",
      "type": "function"
    },
    {
      "constant": false,
      "inputs": [
        {
          "internalType": "bytes32",
          "name": "_massetKey",
          "type": "bytes32"
        },
        {
          "internalType": "address",
          "name": "_masset",
          "type": "address"
        }
      ],
      "name": "addMasset",
      "outputs": [
        {
          "internalType": "address",
          "name": "",
          "type": "address"
        }
      ],
      "payable": false,
      "stateMutability": "nonpayable",
      "type": "function"
    },
    {
      "constant": false,
      "inputs": [
        {
          "internalType": "address",
          "name": "_masset",
          "type": "address"
        }
      ],
      "name": "ejectMasset",
      "outputs": [],
      "payable": false,
      "stateMutability": "nonpayable",
      "type": "function"
    }
  ],
  "bytecode": "0x6080604052624d544160e81b60025534801561001a57600080fd5b50604051620010ea380380620010ea83398101604081905261003b9161007d565b600080546001600160a01b039384166001600160a01b031991821617909155600180549290931691161790556100df565b8051610077816100c8565b92915050565b6000806040838503121561009057600080fd5b600061009c858561006c565b92505060206100ad8582860161006c565b9150509250929050565b60006001600160a01b038216610077565b6100d1816100b7565b81146100dc57600080fd5b50565b610ffb80620000ef6000396000f3fe608060405234801561001057600080fd5b50600436106100f55760003560e01c80638908a41a11610097578063b97e0ac611610066578063b97e0ac6146101cc578063d7d52266146101d4578063e5517841146101dc578063f3bdedd2146101e4576100f5565b80638908a41a14610179578063a3f5c1d21461018f578063ae2efd91146101a4578063b8fc1957146101ac576100f5565b80634c7e06a5116100d35780634c7e06a51461014e5780634fa16790146101615780635eae58b9146101695780637b4aec7914610171576100f5565b806301f9c64f146100fa5780630aa8d59a1461012457806326bbe60a14610139575b600080fd5b61010d610108366004610b98565b6101ec565b60405161011b929190610ecd565b60405180910390f35b61012c610350565b60405161011b9190610e81565b61014c610147366004610b98565b61035e565b005b61014c61015c366004610b98565b61048e565b61012c61056b565b61012c61057a565b61012c610587565b610181610595565b60405161011b929190610e4e565b610197610603565b60405161011b9190610e8f565b61012c610612565b6101bf6101ba366004610c16565b610629565b60405161011b9190610e40565b61012c6106dc565b6101bf6106ec565b61012c6106fb565b61012c610707565b6000808061020160038563ffffffff61071816565b905061020b610a35565b610213610a35565b61021b610737565b60408051808201825285815260025460208201529051635b3e92f160e01b81526001600160a01b039290921691635b3e92f19161025a91600401610e73565b60806040518083038186803b15801561027257600080fd5b505afa158015610286573d6000803e3d6000fd5b505050506040513d601f19601f820116820180604052506102aa9190810190610bdc565b90925090506102bd565b60405180910390fd5b60005b6002811015610324578281600281106102d557fe5b60200201518015610300575060008282600281106102ef57fe5b602002015167ffffffffffffffff16115b61031c5760405162461bcd60e51b81526004016102b490610ead565b6001016102c0565b50805160209091015167ffffffffffffffff64e8d4a51000928302811698929091021695509350505050565b665374616b696e6760c81b81565b6103666107ca565b6001600160a01b0316336001600160a01b0316146103965760405162461bcd60e51b81526004016102b490610ebd565b606060036000018054806020026020016040519081016040528092919081815260200182805480156103f157602002820191906000526020600020905b81546001600160a01b031681526001909101906020018083116103d3575b50939450600093505050505b815181101561048957600082828151811061041457fe5b60200260200101519050806001600160a01b03166326bbe60a856040518263ffffffff1660e01b815260040161044a9190610e40565b600060405180830381600087803b15801561046457600080fd5b505af1158015610478573d6000803e3d6000fd5b5050600190930192506103fd915050565b505050565b6104966107ca565b6001600160a01b0316336001600160a01b0316146104c65760405162461bcd60e51b81526004016102b490610ebd565b6001600160a01b0381166104ec5760405162461bcd60e51b81526004016102b490610e9d565b60006104ff60038363ffffffff61071816565b90508061051e5760405162461bcd60e51b81526004016102b490610e9d565b61052f60038363ffffffff61080616565b807f53833a8e3695b7a7ed65575d04bcbbd45546c0992abda788723b6a2bc5ec01788360405161055f9190610e40565b60405180910390a25050565b6723b7bb32b93737b960c11b81565b65537973746f6b60d01b81565b6626b0b730b3b2b960c91b81565b60608060036105a381610856565b8154604080516020808402820181019092528281529184918301828280156105f457602002820191906000526020600020905b81546001600160a01b031681526001909101906020018083116105d6575b50505050509150915091509091565b6000546001600160a01b031681565b6f2932b1b7b63630ba32b930b634b9b2b960811b81565b60006106336107ca565b6001600160a01b0316336001600160a01b0316146106635760405162461bcd60e51b81526004016102b490610ebd565b6001600160a01b0382166106895760405162461bcd60e51b81526004016102b490610e9d565b61069b6003838563ffffffff6108f316565b827fec3e610db6ddb8c3fd224816464f695ab8977b6780a5aba102505ad544c3433e836040516106cb9190610e40565b60405180910390a250805b92915050565b6827b930b1b632a43ab160b91b81565b6001546001600160a01b031681565b644e6578757360d81b81565b69476f7665726e616e636560b01b81565b6001600160a01b03166000908152600191909101602052604090205490565b600080546040516385acd64160e01b81526001600160a01b03909116906385acd64190610774906827b930b1b632a43ab160b91b90600401610e81565b60206040518083038186803b15801561078c57600080fd5b505afa1580156107a0573d6000803e3d6000fd5b505050506040513d601f19601f820116820180604052506107c49190810190610bbe565b90505b90565b600080546040516385acd64160e01b81526001600160a01b03909116906385acd64190610774906723b7bb32b93737b960c11b90600401610e81565b6001600160a01b03811660009081526001830160205260409020541561085257610836828263ffffffff61097416565b6001600160a01b03811660009081526001830160205260408120555b5050565b80546040805182815260208084028201019091526060918015610883578160200160208202803883390190505b50905060005b81518110156108ed578260010160008460000183815481106108a757fe5b60009182526020808320909101546001600160a01b0316835282019290925260400190205482518390839081106108da57fe5b6020908102919091010152600101610889565b50919050565b80610907576109028383610806565b610489565b6001600160a01b03821660009081526001840160205260409020546109525782546001810184556000848152602090200180546001600160a01b0319166001600160a01b0384161790555b6001600160a01b03821660009081526001840160205260409020819055505050565b60005b825481101561048957816001600160a01b031683828154811061099657fe5b6000918252602090912001546001600160a01b03161415610a2d578254839060001981019081106109c357fe5b9060005260206000200160009054906101000a90046001600160a01b03168382815481106109ed57fe5b600091825260209091200180546001600160a01b0319166001600160a01b03929092169190911790558254610a26846000198301610a53565b5050610852565b600101610977565b60405180604001604052806002906020820280388339509192915050565b815481835581811115610489576000838152602090206104899181019083016107c791905b80821115610a8c5760008155600101610a78565b5090565b80356106d681610f86565b80516106d681610f86565b600082601f830112610ab757600080fd5b6002610aca610ac582610f16565b610eef565b91508183856020840282011115610ae057600080fd5b60005b83811015610b0c5781610af68882610b77565b8452506020928301929190910190600101610ae3565b5050505092915050565b600082601f830112610b2757600080fd5b6002610b35610ac582610f16565b91508183856020840282011115610b4b57600080fd5b60005b83811015610b0c5781610b618882610b8d565b8452506020928301929190910190600101610b4e565b80516106d681610f9d565b80356106d681610fa6565b80516106d681610faf565b600060208284031215610baa57600080fd5b6000610bb68484610a90565b949350505050565b600060208284031215610bd057600080fd5b6000610bb68484610a9b565b60008060808385031215610bef57600080fd5b6000610bfb8585610aa6565b9250506040610c0c85828601610b16565b9150509250929050565b60008060408385031215610c2957600080fd5b6000610c358585610b82565b9250506020610c0c85828601610a90565b6000610c528383610c66565b505060200190565b6000610c528383610d70565b610c6f81610f52565b82525050565b6000610c8082610f3a565b610c8a8185610f44565b9350610c9583610f34565b8060005b83811015610cc3578151610cad8882610c46565b9750610cb883610f34565b925050600101610c99565b509495945050505050565b610cd781610f3e565b610ce18184610f4d565b9250610cec826107c7565b8060005b83811015610d1a578151610d048782610c5a565b9650610d0f83610f34565b925050600101610cf0565b505050505050565b6000610d2d82610f3a565b610d378185610f44565b9350610d4283610f34565b8060005b83811015610cc3578151610d5a8882610c5a565b9750610d6583610f34565b925050600101610d46565b610c6f816107c7565b610c6f81610f7b565b6000610d8f602a83610f44565b7f4d6173736574206d7573742062652061207265666572656e63656420696d706c81526932b6b2b73a30ba34b7b760b11b602082015260400192915050565b6000610ddb601e83610f44565b7f507269636573206d75737420657869737420616e642062652066726573680000815260200192915050565b6000610e14601983610f44565b7f4f6e6c7920676f7665726e6f722063616e206578656375746500000000000000815260200192915050565b602081016106d68284610c66565b60408082528101610e5f8185610c75565b90508181036020830152610bb68184610d22565b604081016106d68284610cce565b602081016106d68284610d70565b602081016106d68284610d79565b602080825281016106d681610d82565b602080825281016106d681610dce565b602080825281016106d681610e07565b60408101610edb8285610d70565b610ee86020830184610d70565b9392505050565b60405181810167ffffffffffffffff81118282101715610f0e57600080fd5b604052919050565b600067ffffffffffffffff821115610f2d57600080fd5b5060200290565b60200190565b5190565b50600290565b90815260200190565b919050565b60006106d682610f62565b151590565b6001600160a01b031690565b67ffffffffffffffff1690565b60006106d682610f52565b610f8f81610f52565b8114610f9a57600080fd5b50565b610f8f81610f5d565b610f8f816107c7565b610f8f81610f6e56fea365627a7a72315820babad23756eb41b02d5e9a85b07822f0c272a0f9803fcd27716e8af2e5503aed6c6578706572696d656e74616cf564736f6c63430005100040",
  "source": "pragma solidity ^0.5.12;\npragma experimental ABIEncoderV2;\n\nimport { IManager } from \"../interfaces/IManager.sol\";\nimport { IMasset } from \"../interfaces/IMasset.sol\";\nimport { ISystok } from \"../interfaces/ISystok.sol\";\nimport { IOracleHub } from \"../interfaces/IOracleHub.sol\";\n\nimport { ManagerState } from \"./ManagerState.sol\";\n\nimport { StableMath } from \"../shared/math/StableMath.sol\";\n\n/**\n * @title Manager\n * @dev Base class for managing mStable Assets (Massets)\n * Manager:\n * - Manages the basket\n * - Coordinates recollateralisation\n * - Maintains State\n * Module: Handles new module updates published by the Nexus\n * Portal: Provides Massets with prices and general interface into system\n * FactoryHub: Creates more Massets\n */\ncontract Manager is\n    IManager,\n    ManagerState\n{\n    using StableMath for uint256;\n\n    /** @dev Events to emit */\n    event MassetAdded(bytes32 indexed key, address addr);\n    event MassetEjected(bytes32 indexed key, address addr);\n\n    /**\n      * @dev Sets up the core state of the Manager\n      * @param _nexus             Nexus module\n      * @param _forgeValidator          Address of current ForgeValidator\n      */\n    constructor(\n        address _nexus,\n        address _forgeValidator\n    )\n        ManagerState(_nexus)\n        public\n    {\n        forgeValidator = _forgeValidator;\n    }\n\n\n    /***************************************\n              BASKET MANAGEMENT\n    ****************************************/\n\n    /**\n      * @dev Upgrades the version of ForgeValidator referenced across the Massets\n      * @param _newForgeValidator Address of the new ForgeValidator\n      */\n    function upgradeForgeValidator(address _newForgeValidator)\n    external\n    onlyGovernor {\n        address[] memory _massets = massets.keys;\n        for(uint256 i = 0; i < _massets.length; i++) {\n            IMasset tempMasset = IMasset(_massets[i]);\n            tempMasset.upgradeForgeValidator(_newForgeValidator);\n        }\n    }\n\n    /***************************************\n                      ETC\n    ****************************************/\n\n    /**\n      * @dev Fetch the price of a Masset from OracleHub\n      * Reverts if price is not available\n      * @param _addr Address of the Masset\n      * @return uint256 Price of Masset where $1 == 1e18\n      * @return uint256 Price of Systok where $1 == 1e18\n      */\n    function getMassetPrice(address _addr)\n    external\n    view\n    returns(uint256 massetPrice, uint256 systokPrice) {\n        // Get the relevant masset key\n        bytes32 key = massets.get(_addr);\n\n        // Fetch the prices where $1 == 1e6\n        (bool[2] memory isFresh, uint64[2] memory prices) = IOracleHub(_oracleHub()).readPricePair([key, oracle_key_systok]);\n\n        // Validate state of the response\n        require(prices.length == 2, \"Must return valid pair\");\n        for(uint i = 0; i < prices.length; i++){\n          require(isFresh[i] && prices[i] > 0, \"Prices must exist and be fresh\");\n        }\n\n        // Cast prices into relevant format\n        return (prices[0] * 1e12, prices[1] * 1e12);\n    }\n\n\n    /***************************************\n                  FACTORY\n    ****************************************/\n\n    /**\n      * @dev Adds an already and initialised Masset to the stack, storing the relevant data in the ManagerState\n      * @param _massetKey     Key identifier for the Masset\n      * @param _masset        Address of the Masset contract\n      * @return               Address of new Masset\n      */\n    function addMasset(\n        bytes32 _massetKey,\n        address _masset\n    )\n        external\n        onlyGovernor\n        returns (address)\n    {\n        require(_masset != address(0), \"Masset must be a referenced implementation\");\n\n        massets.add(_masset, _massetKey);\n\n        emit MassetAdded(_massetKey, _masset);\n        return _masset;\n    }\n\n    /**\n      * @dev Removes a Masset from the system and thus releases from recollateraliastion protection\n      * @param _masset        Address of the Masset contract\n      */\n    function ejectMasset(\n        address _masset\n    )\n        external\n        onlyGovernor\n    {\n        require(_masset != address(0), \"Masset must be a referenced implementation\");\n        bytes32 key = massets.get(_masset);\n        require(key != bytes32(0x0), \"Masset must be a referenced implementation\");\n\n        massets.remove(_masset);\n\n        emit MassetEjected(key, _masset);\n    }\n}\n",
  "sourcePath": "/Users/james/mstable/mStable-contracts/contracts/manager/Manager.sol",
  "compiler": {
    "name": "solc",
    "version": "0.5.16+commit.9c3226ce.Emscripten.clang"
  },
  "schemaVersion": "3.0.23",
  "updatedAt": "2020-02-12T09:10:20.771Z",
  "devdoc": {
    "details": "Base class for managing mStable Assets (Massets) Manager: - Manages the basket - Coordinates recollateralisation - Maintains State Module: Handles new module updates published by the Nexus Portal: Provides Massets with prices and general interface into system FactoryHub: Creates more Massets",
    "methods": {
      "addMasset(bytes32,address)": {
        "details": "Adds an already and initialised Masset to the stack, storing the relevant data in the ManagerState",
        "params": {
          "_masset": "Address of the Masset contract",
          "_massetKey": "Key identifier for the Masset"
        },
        "return": "Address of new Masset"
      },
      "constructor": {
        "details": "Sets up the core state of the Manager",
        "params": {
          "_forgeValidator": "Address of current ForgeValidator",
          "_nexus": "Nexus module"
        }
      },
      "ejectMasset(address)": {
        "details": "Removes a Masset from the system and thus releases from recollateraliastion protection",
        "params": {
          "_masset": "Address of the Masset contract"
        }
      },
      "getMassetPrice(address)": {
        "details": "Fetch the price of a Masset from OracleHub Reverts if price is not available",
        "params": {
          "_addr": "Address of the Masset"
        },
        "return": "uint256 Price of Masset where $1 == 1e18uint256 Price of Systok where $1 == 1e18"
      },
      "getMassets()": {
        "details": "Get the addresses and oracle keys for all the Massets",
        "return": "bytes32 Array of Masset identifiers"
      },
      "upgradeForgeValidator(address)": {
        "details": "Upgrades the version of ForgeValidator referenced across the Massets",
        "params": {
          "_newForgeValidator": "Address of the new ForgeValidator"
        }
      }
    },
    "title": "Manager"
  },
  "userdoc": {
    "methods": {}
  }
}