{
  "contractName": "ManagerPortal",
  "abi": [
    {
      "constant": true,
      "inputs": [],
      "name": "forgeLib",
      "outputs": [
        {
          "internalType": "address",
          "name": "",
          "type": "address"
        }
      ],
      "payable": false,
      "stateMutability": "view",
      "type": "function"
    },
    {
      "constant": true,
      "inputs": [],
      "name": "getMassets",
      "outputs": [
        {
          "internalType": "address[]",
          "name": "addr",
          "type": "address[]"
        },
        {
          "internalType": "bytes32[]",
          "name": "keys",
          "type": "bytes32[]"
        }
      ],
      "payable": false,
      "stateMutability": "view",
      "type": "function"
    },
    {
      "constant": true,
      "inputs": [],
      "name": "getModuleAddresses",
      "outputs": [
        {
          "internalType": "address",
          "name": "",
          "type": "address"
        },
        {
          "internalType": "address",
          "name": "",
          "type": "address"
        },
        {
          "internalType": "address",
          "name": "",
          "type": "address"
        }
      ],
      "payable": false,
      "stateMutability": "view",
      "type": "function"
    },
    {
      "constant": true,
      "inputs": [
        {
          "internalType": "address",
          "name": "_addr",
          "type": "address"
        }
      ],
      "name": "getMassetPrice",
      "outputs": [
        {
          "internalType": "uint256",
          "name": "massetPrice",
          "type": "uint256"
        },
        {
          "internalType": "uint256",
          "name": "systokPrice",
          "type": "uint256"
        }
      ],
      "payable": false,
      "stateMutability": "view",
      "type": "function"
    },
    {
      "constant": true,
      "inputs": [],
      "name": "getSystokPrice",
      "outputs": [
        {
          "internalType": "uint256",
          "name": "",
          "type": "uint256"
        }
      ],
      "payable": false,
      "stateMutability": "view",
      "type": "function"
    }
  ],
  "bytecode": "0x6080604052624d544160e81b60045534801561001a57600080fd5b506106778061002a6000396000f3fe608060405234801561001057600080fd5b50600436106100575760003560e01c806301f9c64f1461005c5780636e1b1b801461009b5780638908a41a146100bf5780639b507fdc14610160578063aed4111514610193575b600080fd5b6100826004803603602081101561007257600080fd5b50356001600160a01b03166101ad565b6040805192835260208301919091528051918290030190f35b6100a361035a565b604080516001600160a01b039092168252519081900360200190f35b6100c7610369565b604051808060200180602001838103835285818151815260200191508051906020019060200280838360005b8381101561010b5781810151838201526020016100f3565b50505050905001838103825284818151815260200191508051906020019060200280838360005b8381101561014a578181015183820152602001610132565b5050505090500194505050505060405180910390f35b6101686103d7565b604080516001600160a01b039485168152928416602084015292168183015290519081900360600190f35b61019b6103f4565b60408051918252519081900360200190f35b600080806101c260058563ffffffff61040616565b90506101cc610624565b6101d4610624565b6002546040805180820182528581526004805460208301528251635b3e92f160e01b81526001600160a01b0390941693635b3e92f1939101908190839080838360005b8381101561022f578181015183820152602001610217565b5050505090500191505060806040518083038186803b15801561025157600080fd5b505afa158015610265573d6000803e3d6000fd5b505050506040513d601f19601f82011682018060405250608081101561028a57600080fd5b509150506040810160005b600281101561032e578281600281106102aa57fe5b602002015180156102d5575060008282600281106102c457fe5b602002015167ffffffffffffffff16115b610326576040805162461bcd60e51b815260206004820152601e60248201527f507269636573206d75737420657869737420616e642062652066726573680000604482015290519081900360640190fd5b600101610295565b50805160209091015167ffffffffffffffff64e8d4a51000928302811698929091021695509350505050565b6003546001600160a01b031681565b606080600561037781610425565b8154604080516020808402820181019092528281529184918301828280156103c857602002820191906000526020600020905b81546001600160a01b031681526001909101906020018083116103aa575b50505050509150915091509091565b6001546003546000546001600160a01b0392831693918316921690565b60006104016004546104c2565b905090565b6001600160a01b03166000908152600191909101602052604090205490565b80546040805182815260208084028201019091526060918015610452578160200160208202803883390190505b50905060005b81518110156104bc5782600101600084600001838154811061047657fe5b60009182526020808320909101546001600160a01b0316835282019290925260400190205482518390839081106104a957fe5b6020908102919091010152600101610458565b50919050565b60008060006104d084610582565b9150915060008111610529576040805162461bcd60e51b815260206004820152601a60248201527f5072696365206d75737420657869737420696e204f7261636c65000000000000604482015290519081900360640190fd5b8161057b576040805162461bcd60e51b815260206004820152601d60248201527f5072696365206d75737420626520667265736820696e204f7261636c65000000604482015290519081900360640190fd5b9392505050565b600254604080516247a61960e51b81526004810184905281516000938493849384936001600160a01b03909316926308f4c32092602480840193919291829003018186803b1580156105d357600080fd5b505afa1580156105e7573d6000803e3d6000fd5b505050506040513d60408110156105fd57600080fd5b508051602090910151909664e8d4a5100090910267ffffffffffffffff1695509350505050565b6040518060400160405280600290602082028038833950919291505056fea265627a7a72315820929f4dd0e4cef65d2e8e7b922eae7d2df9cea5dda852f567bbf7d99b5e57cf9764736f6c63430005100032",
  "source": "pragma solidity ^0.5.12;\n\nimport { ManagerState } from \"./ManagerState.sol\";\nimport { IOracleHub } from \"../interfaces/IOracleHub.sol\";\n\n/**\n * @title ManagerPortal\n * @dev Provides Massets with prices and general interface into system by\n * hooking into the current OracleHub Implementation and parsing the data\n */\ncontract ManagerPortal is ManagerState {\n\n    /**\n      * @dev Fetch relevant information used for setting up a Masset\n      * @return Systok address\n      * @return ForgeLib address\n      * @return Governance address\n      */\n    function getModuleAddresses()\n    external\n    view\n    returns(address, address, address) {\n        return (address(systok), address(forgeLib), address(governance));\n    }\n\n    /**\n      * @dev Fetch the price of a Masset from OracleHub\n      * Reverts if price is not available\n      * @param _addr Address of the Masset\n      * @return uint256 Price of Masset where $1 == 1e18\n      * @return uint256 Price of Systok where $1 == 1e18\n      */\n    function getMassetPrice(address _addr)\n    external\n    view\n    returns(uint256 massetPrice, uint256 systokPrice) {\n        // Get the relevant masset key\n        bytes32 key = massets.get(_addr);\n\n        // Fetch the prices where $1 == 1e6\n        (bool[2] memory isFresh, uint64[2] memory prices) = oracleHub.readPricePair([key, oracle_key_systok]);\n\n        // Validate state of the response\n        require(prices.length == 2, \"Must return valid pair\");\n        for(uint i = 0; i < prices.length; i++){\n          require(isFresh[i] && prices[i] > 0, \"Prices must exist and be fresh\");\n        }\n\n        // Cast prices into relevant format\n        return (prices[0] * 1e12, prices[1] * 1e12);\n    }\n\n    /**\n      * @dev Fetch the price of Systok from OracleHub\n      * Reverts if price is not available\n      * @return uint256 Price of Systok where $1 == 1e18\n      */\n    function getSystokPrice()\n    external\n    view\n    returns(uint256) {\n        return _mustGetPriceFromOracle(oracle_key_systok);\n    }\n\n    /**\n      * @dev Fetch a price from OracleHub - revert if specified conditions are not met\n      * @param _key Identifier of the asset\n      * @return uint256 Price of asset where $1 == 1e18\n      */\n    function _mustGetPriceFromOracle(bytes32 _key)\n    internal\n    view\n    returns(uint256) {\n        (bool isFresh, uint256 price) = _getPriceFromOracle(_key);\n        require(price > 0, \"Price must exist in Oracle\");\n        require(isFresh, \"Price must be fresh in Oracle\");\n        return price;\n    }\n\n    /**\n      * @dev Fetch a price from OracleHub - revert if specified conditions are not met\n      * @param _key Identifier of the asset\n      * @return bool isFresh price is fresh\n      * @return uint256 Price of asset where $1 == 1e18\n      */\n    function _getPriceFromOracle(bytes32 _key)\n    internal\n    view\n    returns(bool, uint256) {\n        // Get price as 1e6\n        (bool isFresh, uint64 price) = oracleHub.readPrice(_key);\n        // Convert price from 1e6 to 1e18\n        return (isFresh, price * 1e12);\n    }\n\n}",
  "sourcePath": "/Users/james/mstable/mStable-contracts/contracts/manager/ManagerPortal.sol",
  "compiler": {
    "name": "solc",
    "version": "0.5.16+commit.9c3226ce.Emscripten.clang"
  },
  "schemaVersion": "3.0.23",
  "updatedAt": "2020-02-06T13:06:09.510Z",
  "devdoc": {
    "details": "Provides Massets with prices and general interface into system by hooking into the current OracleHub Implementation and parsing the data",
    "methods": {
      "getMassetPrice(address)": {
        "details": "Fetch the price of a Masset from OracleHub Reverts if price is not available",
        "params": {
          "_addr": "Address of the Masset"
        },
        "return": "uint256 Price of Masset where $1 == 1e18uint256 Price of Systok where $1 == 1e18"
      },
      "getMassets()": {
        "details": "Get the addresses and oracle keys for all the Massets",
        "return": "bytes32 Array of Masset identifiers"
      },
      "getModuleAddresses()": {
        "details": "Fetch relevant information used for setting up a Masset",
        "return": "Systok addressForgeLib addressGovernance address"
      },
      "getSystokPrice()": {
        "details": "Fetch the price of Systok from OracleHub Reverts if price is not available",
        "return": "uint256 Price of Systok where $1 == 1e18"
      }
    },
    "title": "ManagerPortal"
  },
  "userdoc": {
    "methods": {}
  }
}