{
  "contractName": "MassetBasket",
  "abi": [
    {
      "inputs": [
        {
          "internalType": "address",
          "name": "_nexus",
          "type": "address"
        },
        {
          "internalType": "address[]",
          "name": "_bassets",
          "type": "address[]"
        },
        {
          "internalType": "bytes32[]",
          "name": "_keys",
          "type": "bytes32[]"
        },
        {
          "internalType": "uint256[]",
          "name": "_weights",
          "type": "uint256[]"
        },
        {
          "internalType": "uint256[]",
          "name": "_multiples",
          "type": "uint256[]"
        }
      ],
      "payable": false,
      "stateMutability": "nonpayable",
      "type": "constructor"
    },
    {
      "anonymous": false,
      "inputs": [
        {
          "indexed": true,
          "internalType": "address[]",
          "name": "bassets",
          "type": "address[]"
        },
        {
          "indexed": false,
          "internalType": "uint256[]",
          "name": "maxWeights",
          "type": "uint256[]"
        }
      ],
      "name": "BasketWeightsUpdated",
      "type": "event"
    },
    {
      "anonymous": false,
      "inputs": [
        {
          "indexed": true,
          "internalType": "address",
          "name": "basset",
          "type": "address"
        }
      ],
      "name": "BassetAdded",
      "type": "event"
    },
    {
      "anonymous": false,
      "inputs": [
        {
          "indexed": true,
          "internalType": "address",
          "name": "basset",
          "type": "address"
        }
      ],
      "name": "BassetRemoved",
      "type": "event"
    },
    {
      "anonymous": false,
      "inputs": [
        {
          "indexed": false,
          "internalType": "address",
          "name": "feePool",
          "type": "address"
        }
      ],
      "name": "FeeRecipientChanged",
      "type": "event"
    },
    {
      "anonymous": false,
      "inputs": [
        {
          "indexed": false,
          "internalType": "uint256",
          "name": "fee",
          "type": "uint256"
        }
      ],
      "name": "RedemptionFeeChanged",
      "type": "event"
    },
    {
      "constant": true,
      "inputs": [],
      "name": "Key_Governance",
      "outputs": [
        {
          "internalType": "bytes32",
          "name": "",
          "type": "bytes32"
        }
      ],
      "payable": false,
      "stateMutability": "view",
      "type": "function"
    },
    {
      "constant": true,
      "inputs": [],
      "name": "Key_Governor",
      "outputs": [
        {
          "internalType": "bytes32",
          "name": "",
          "type": "bytes32"
        }
      ],
      "payable": false,
      "stateMutability": "view",
      "type": "function"
    },
    {
      "constant": true,
      "inputs": [],
      "name": "Key_Manager",
      "outputs": [
        {
          "internalType": "bytes32",
          "name": "",
          "type": "bytes32"
        }
      ],
      "payable": false,
      "stateMutability": "view",
      "type": "function"
    },
    {
      "constant": true,
      "inputs": [],
      "name": "Key_Nexus",
      "outputs": [
        {
          "internalType": "bytes32",
          "name": "",
          "type": "bytes32"
        }
      ],
      "payable": false,
      "stateMutability": "view",
      "type": "function"
    },
    {
      "constant": true,
      "inputs": [],
      "name": "Key_OracleHub",
      "outputs": [
        {
          "internalType": "bytes32",
          "name": "",
          "type": "bytes32"
        }
      ],
      "payable": false,
      "stateMutability": "view",
      "type": "function"
    },
    {
      "constant": true,
      "inputs": [],
      "name": "Key_Recollateraliser",
      "outputs": [
        {
          "internalType": "bytes32",
          "name": "",
          "type": "bytes32"
        }
      ],
      "payable": false,
      "stateMutability": "view",
      "type": "function"
    },
    {
      "constant": true,
      "inputs": [],
      "name": "Key_Staking",
      "outputs": [
        {
          "internalType": "bytes32",
          "name": "",
          "type": "bytes32"
        }
      ],
      "payable": false,
      "stateMutability": "view",
      "type": "function"
    },
    {
      "constant": true,
      "inputs": [],
      "name": "Key_Systok",
      "outputs": [
        {
          "internalType": "bytes32",
          "name": "",
          "type": "bytes32"
        }
      ],
      "payable": false,
      "stateMutability": "view",
      "type": "function"
    },
    {
      "constant": true,
      "inputs": [],
      "name": "basket",
      "outputs": [
        {
          "internalType": "bool",
          "name": "failed",
          "type": "bool"
        },
        {
          "internalType": "uint256",
          "name": "collateralisationRatio",
          "type": "uint256"
        }
      ],
      "payable": false,
      "stateMutability": "view",
      "type": "function"
    },
    {
      "constant": true,
      "inputs": [],
      "name": "feePool",
      "outputs": [
        {
          "internalType": "address",
          "name": "",
          "type": "address"
        }
      ],
      "payable": false,
      "stateMutability": "view",
      "type": "function"
    },
    {
      "constant": true,
      "inputs": [],
      "name": "forgeValidator",
      "outputs": [
        {
          "internalType": "contract IForgeValidator",
          "name": "",
          "type": "address"
        }
      ],
      "payable": false,
      "stateMutability": "view",
      "type": "function"
    },
    {
      "constant": false,
      "inputs": [],
      "name": "lockForgeValidator",
      "outputs": [],
      "payable": false,
      "stateMutability": "nonpayable",
      "type": "function"
    },
    {
      "constant": true,
      "inputs": [],
      "name": "measurementMultipleEnabled",
      "outputs": [
        {
          "internalType": "bool",
          "name": "",
          "type": "bool"
        }
      ],
      "payable": false,
      "stateMutability": "view",
      "type": "function"
    },
    {
      "constant": true,
      "inputs": [],
      "name": "nexus",
      "outputs": [
        {
          "internalType": "contract INexus",
          "name": "",
          "type": "address"
        }
      ],
      "payable": false,
      "stateMutability": "view",
      "type": "function"
    },
    {
      "constant": true,
      "inputs": [],
      "name": "redemptionFee",
      "outputs": [
        {
          "internalType": "uint256",
          "name": "",
          "type": "uint256"
        }
      ],
      "payable": false,
      "stateMutability": "view",
      "type": "function"
    },
    {
      "constant": false,
      "inputs": [
        {
          "internalType": "address",
          "name": "_feePool",
          "type": "address"
        }
      ],
      "name": "setFeePool",
      "outputs": [],
      "payable": false,
      "stateMutability": "nonpayable",
      "type": "function"
    },
    {
      "constant": false,
      "inputs": [
        {
          "internalType": "uint256",
          "name": "_redemptionFee",
          "type": "uint256"
        }
      ],
      "name": "setRedemptionFee",
      "outputs": [],
      "payable": false,
      "stateMutability": "nonpayable",
      "type": "function"
    },
    {
      "constant": false,
      "inputs": [
        {
          "internalType": "address",
          "name": "_newForgeValidator",
          "type": "address"
        }
      ],
      "name": "upgradeForgeValidator",
      "outputs": [],
      "payable": false,
      "stateMutability": "nonpayable",
      "type": "function"
    },
    {
      "constant": false,
      "inputs": [
        {
          "internalType": "address",
          "name": "_basset",
          "type": "address"
        },
        {
          "internalType": "bool",
          "name": "_belowPeg",
          "type": "bool"
        }
      ],
      "name": "handlePegLoss",
      "outputs": [
        {
          "internalType": "bool",
          "name": "alreadyActioned",
          "type": "bool"
        }
      ],
      "payable": false,
      "stateMutability": "nonpayable",
      "type": "function"
    },
    {
      "constant": false,
      "inputs": [
        {
          "internalType": "address",
          "name": "_basset",
          "type": "address"
        }
      ],
      "name": "negatePegLoss",
      "outputs": [],
      "payable": false,
      "stateMutability": "nonpayable",
      "type": "function"
    },
    {
      "constant": false,
      "inputs": [
        {
          "internalType": "address",
          "name": "_basset",
          "type": "address"
        },
        {
          "internalType": "address",
          "name": "_recollateraliser",
          "type": "address"
        }
      ],
      "name": "initiateRecol",
      "outputs": [],
      "payable": false,
      "stateMutability": "nonpayable",
      "type": "function"
    },
    {
      "constant": false,
      "inputs": [
        {
          "internalType": "address",
          "name": "_basset",
          "type": "address"
        },
        {
          "internalType": "bytes32",
          "name": "_key",
          "type": "bytes32"
        },
        {
          "internalType": "uint256",
          "name": "_measurementMultiple",
          "type": "uint256"
        }
      ],
      "name": "addBasset",
      "outputs": [],
      "payable": false,
      "stateMutability": "nonpayable",
      "type": "function"
    },
    {
      "constant": false,
      "inputs": [
        {
          "internalType": "address",
          "name": "_basset",
          "type": "address"
        },
        {
          "internalType": "bytes32",
          "name": "_key",
          "type": "bytes32"
        }
      ],
      "name": "addBasset",
      "outputs": [],
      "payable": false,
      "stateMutability": "nonpayable",
      "type": "function"
    },
    {
      "constant": false,
      "inputs": [
        {
          "internalType": "address",
          "name": "_assetToRemove",
          "type": "address"
        }
      ],
      "name": "removeBasset",
      "outputs": [
        {
          "internalType": "bool",
          "name": "removed",
          "type": "bool"
        }
      ],
      "payable": false,
      "stateMutability": "nonpayable",
      "type": "function"
    },
    {
      "constant": false,
      "inputs": [
        {
          "internalType": "address[]",
          "name": "_bassets",
          "type": "address[]"
        },
        {
          "internalType": "uint256[]",
          "name": "_weights",
          "type": "uint256[]"
        }
      ],
      "name": "setBasketWeights",
      "outputs": [],
      "payable": false,
      "stateMutability": "nonpayable",
      "type": "function"
    },
    {
      "constant": true,
      "inputs": [],
      "name": "getBasket",
      "outputs": [
        {
          "internalType": "address[]",
          "name": "expiredBassets",
          "type": "address[]"
        },
        {
          "internalType": "bool",
          "name": "failed",
          "type": "bool"
        },
        {
          "internalType": "uint256",
          "name": "collateralisationRatio",
          "type": "uint256"
        }
      ],
      "payable": false,
      "stateMutability": "view",
      "type": "function"
    },
    {
      "constant": true,
      "inputs": [],
      "name": "getBassets",
      "outputs": [
        {
          "internalType": "address[]",
          "name": "addresses",
          "type": "address[]"
        },
        {
          "internalType": "bytes32[]",
          "name": "keys",
          "type": "bytes32[]"
        },
        {
          "internalType": "uint256[]",
          "name": "ratios",
          "type": "uint256[]"
        },
        {
          "internalType": "uint256[]",
          "name": "targets",
          "type": "uint256[]"
        },
        {
          "internalType": "uint256[]",
          "name": "vaults",
          "type": "uint256[]"
        },
        {
          "internalType": "enum MassetStructs.BassetStatus[]",
          "name": "statuses",
          "type": "uint8[]"
        }
      ],
      "payable": false,
      "stateMutability": "view",
      "type": "function"
    },
    {
      "constant": true,
      "inputs": [
        {
          "internalType": "address",
          "name": "_basset",
          "type": "address"
        }
      ],
      "name": "getBasset",
      "outputs": [
        {
          "internalType": "address",
          "name": "addr",
          "type": "address"
        },
        {
          "internalType": "bytes32",
          "name": "key",
          "type": "bytes32"
        },
        {
          "internalType": "uint256",
          "name": "ratio",
          "type": "uint256"
        },
        {
          "internalType": "uint256",
          "name": "maxWeight",
          "type": "uint256"
        },
        {
          "internalType": "uint256",
          "name": "vaultBalance",
          "type": "uint256"
        },
        {
          "internalType": "enum MassetStructs.BassetStatus",
          "name": "status",
          "type": "uint8"
        }
      ],
      "payable": false,
      "stateMutability": "view",
      "type": "function"
    },
    {
      "constant": true,
      "inputs": [],
      "name": "getAllBassetsAddress",
      "outputs": [
        {
          "internalType": "address[]",
          "name": "",
          "type": "address[]"
        }
      ],
      "payable": false,
      "stateMutability": "view",
      "type": "function"
    }
  ],
  "bytecode": "0x60806040526001805460ff60a01b191690553480156200001e57600080fd5b506040516200408e3803806200408e833981016040819052620000419162000ad2565b600080546001600160a01b0319166001600160a01b0387161790558351620000865760405162461bcd60e51b81526004016200007d9062001169565b60405180910390fd5b80516009805460ff1916911515919091179055670de0b6b3a764000060085566470de4df82000060035560005b8451811015620001425762000139858281518110620000ce57fe5b6020026020010151858381518110620000e357fe5b602090810291909101015160095460ff1662000114576200010e6200016360201b62001abd1760201c565b6200012a565b8484815181106200012157fe5b60200260200101515b6001600160e01b036200016b16565b600101620000b3565b506200015884836001600160e01b03620003de16565b505050505062001302565b6305f5e10090565b6001600160a01b038316620001945760405162461bcd60e51b81526004016200007d90620011e7565b6000620001aa846001600160e01b036200065516565b5090508015620001ce5760405162461bcd60e51b81526004016200007d90620011f9565b6000620001e685620006d560201b62001b151760201c565b90506000620002058260126200079d60201b62001bcb1790919060201c565b905060006200022682600a0a86620007c860201b62001bf31790919060201c565b600480546001600160a01b038a81166000818152600560208181526040808420879055805160c0810182529485529084018e8152908401888152606085018481526080860185815260a087018681526001808b01808d559b90975287517f8a35acfbc15ff81a39ae7d344fd709f28e8600b4aa8c65c6b64bfe7fe36bd19b6006909b029a8b0180546001600160a01b03191691909a1617895593517f8a35acfbc15ff81a39ae7d344fd709f28e8600b4aa8c65c6b64bfe7fe36bd19c8a015591517f8a35acfbc15ff81a39ae7d344fd709f28e8600b4aa8c65c6b64bfe7fe36bd19d890155517f8a35acfbc15ff81a39ae7d344fd709f28e8600b4aa8c65c6b64bfe7fe36bd19e880155517f8a35acfbc15ff81a39ae7d344fd709f28e8600b4aa8c65c6b64bfe7fe36bd19f870155517f8a35acfbc15ff81a39ae7d344fd709f28e8600b4aa8c65c6b64bfe7fe36bd1a09095018054979850959692959394939260ff1916919084908111156200039957fe5b0217905550506040516001600160a01b038a1692507fa83f9302fa4684335dd26b1bdd925929618565fa0f22bd9e91ab01753d8bf13c9150600090a250505050505050565b815181518114620004035760405162461bcd60e51b81526004016200007d9062001133565b6004548114620004275760405162461bcd60e51b81526004016200007d906200118d565b60006200043f836200080f60201b62001ac51760201c565b9050620004566200085e60201b62001b091760201c565b811015620004785760405162461bcd60e51b81526004016200007d90620011c3565b60005b82811015620005fd5760008582815181106200049357fe5b6020026020010151905060046000018281548110620004ae57fe5b60009182526020909120600690910201546001600160a01b03828116911614620004ec5760405162461bcd60e51b81526004016200007d90620011d5565b6000858381518110620004fb57fe5b60200260200101519050600060058111156200051357fe5b60048054859081106200052257fe5b60009182526020909120600560069092020181015460ff16908111156200054557fe5b1415620005b057620005616200085e60201b62001b091760201c565b811115620005835760405162461bcd60e51b81526004016200007d9062001121565b80600460000184815481106200059557fe5b906000526020600020906006020160030181905550620005f2565b6004805484908110620005bf57fe5b9060005260206000209060060201600301548114620005f25760405162461bcd60e51b81526004016200007d90620011b1565b50506001016200047b565b50836040516200060e9190620010f2565b60405180910390207fbe2adf2902216365c5c656d48909da65fad401f809e4351cdbcfcac406745669846040516200064791906200110e565b60405180910390a250505050565b6001600160a01b03811660009081526005602052604081205480620006cb576004546200068857506000905080620006d0565b826001600160a01b03166004600001600081548110620006a457fe5b600091825260208220600690910201546001600160a01b03169190911492509050620006d0565b600191505b915091565b60408051600481526024810182526020810180516001600160e01b031663313ce56760e01b179052905160009182916001600160a01b038516916200071a9162001100565b6000604051808303816000865af19150503d806000811462000759576040519150601f19603f3d011682016040523d82523d6000602084013e6200075e565b606091505b5050905080620007825760405162461bcd60e51b81526004016200007d9062001157565b62000796836001600160e01b036200086a16565b9392505050565b600082821115620007c25760405162461bcd60e51b81526004016200007d906200120b565b50900390565b600082620007d95750600062000809565b5081810281838281620007e857fe5b0414620008095760405162461bcd60e51b81526004016200007d9062001145565b92915050565b80516000908190815b818110156200085557600062000849848784815181106200083557fe5b60200260200101516200090a60201b60201c565b93505060010162000818565b50909392505050565b670de0b6b3a764000090565b600080826001600160a01b031663313ce5676040518163ffffffff1660e01b815260040160206040518083038186803b158015620008a757600080fd5b505afa158015620008bc573d6000803e3d6000fd5b505050506040513d601f19601f82011682018060405250620008e2919081019062000bb2565b60ff16905060008111620008095760405162461bcd60e51b81526004016200007d906200119f565b80820182811015620008095760405162461bcd60e51b81526004016200007d906200117b565b80516200080981620012d2565b600082601f8301126200094f57600080fd5b815162000966620009608262001244565b6200121d565b915081818352602084019350602081019050838560208402820111156200098c57600080fd5b60005b83811015620009bc5781620009a5888262000930565b84525060209283019291909101906001016200098f565b5050505092915050565b600082601f830112620009d857600080fd5b8151620009e9620009608262001244565b9150818183526020840193506020810190508385602084028201111562000a0f57600080fd5b60005b83811015620009bc578162000a28888262000ab8565b845250602092830192919091019060010162000a12565b600082601f83011262000a5157600080fd5b815162000a62620009608262001244565b9150818183526020840193506020810190508385602084028201111562000a8857600080fd5b60005b83811015620009bc578162000aa1888262000ab8565b845250602092830192919091019060010162000a8b565b80516200080981620012ec565b80516200080981620012f7565b600080600080600060a0868803121562000aeb57600080fd5b600062000af9888862000930565b95505060208601516001600160401b0381111562000b1657600080fd5b62000b24888289016200093d565b94505060408601516001600160401b0381111562000b4157600080fd5b62000b4f88828901620009c6565b93505060608601516001600160401b0381111562000b6c57600080fd5b62000b7a8882890162000a3f565b92505060808601516001600160401b0381111562000b9757600080fd5b62000ba58882890162000a3f565b9150509295509295909350565b60006020828403121562000bc557600080fd5b600062000bd3848462000ac5565b949350505050565b600062000be9838362000bff565b505060200190565b600062000be98383620010e7565b62000c0a816200127d565b82525050565b600062000c1d826200126b565b62000c2981856200126f565b935062000c368362001265565b8060005b8381101562000c6a57815162000c51888262000bdb565b975062000c5e8362001265565b92505060010162000c3a565b509495945050505050565b600062000c82826200126b565b62000c8e818562001274565b935062000c9b8362001265565b8060005b8381101562000c6a57815162000cb6888262000bf1565b975062000cc38362001265565b92505060010162000c9f565b600062000cdc826200126b565b62000ce881856200126f565b935062000cfa8185602086016200129f565b9290920192915050565b600062000d13602c8362001274565b7f417373657420776569676874206d757374206265206c657373207468616e206f81526b7220657175616c20746f203160a01b602082015260400192915050565b600062000d6360238362001274565b7f4d757374206265206d61746368696e672062617373657420646174612061727281526261797360e81b602082015260400192915050565b600062000daa60238362001274565b7f537461626c654d6174683a206d756c7469706c69636174696f6e206f766572668152626c6f7760e81b602082015260400192915050565b600062000df160248362001274565b7f546f6b656e20636f6e7472616374206d75737420737570706f727420646563698152636d616c7360e01b602082015260400192915050565b600062000e39602c8362001274565b7f4d75737420696e697469616c69736520746865206261736b657420776974682081526b736f6d65206241737365747360a01b602082015260400192915050565b600062000e8960118362001274565b704d757374206e6f74206f766572666c6f7760781b815260200192915050565b600062000eb860278362001274565b7f4d757374206265206d61746368696e67206578697374696e67206261736b6574815266081b185e5bdd5d60ca1b602082015260400192915050565b600062000f0360298362001274565b7f546f6b656e206d75737420686176652031206f72206d6f726520646563696d618152683610383630b1b2b99760b91b602082015260400192915050565b600062000f50602e8362001274565b7f43616e6e6f74206368616e676520776569676874696e677320666f722073756681526d666572696e67204261737365747360901b602082015260400192915050565b600062000fa260248362001274565b7f4261736b657420776569676874206d75737420746f74616c203e2031303025208152633d3d203160e01b602082015260400192915050565b600062000fea60288362001274565b7f426173736574206d75737420626520726570726573656e7465642073796d6d6581526774726963616c6c7960c01b602082015260400192915050565b600062001036601c8362001274565b7f41737365742061646472657373206d7573742062652076616c69642e00000000815260200192915050565b60006200107160268362001274565b7f41737365742063616e6e6f7420616c726561647920626520696e20746865206281526530b9b5b2ba1760d11b602082015260400192915050565b6000620010bb60208362001274565b7f537461626c654d6174683a207375627472616374696f6e206f766572666c6f77815260200192915050565b62000c0a816200128a565b600062000796828462000c10565b600062000796828462000ccf565b6020808252810162000796818462000c75565b60208082528101620008098162000d04565b60208082528101620008098162000d54565b60208082528101620008098162000d9b565b60208082528101620008098162000de2565b60208082528101620008098162000e2a565b60208082528101620008098162000e7a565b60208082528101620008098162000ea9565b60208082528101620008098162000ef4565b60208082528101620008098162000f41565b60208082528101620008098162000f93565b60208082528101620008098162000fdb565b60208082528101620008098162001027565b60208082528101620008098162001062565b602080825281016200080981620010ac565b6040518181016001600160401b03811182821017156200123c57600080fd5b604052919050565b60006001600160401b038211156200125b57600080fd5b5060209081020190565b60200190565b5190565b919050565b90815260200190565b600062000809826200128d565b90565b6001600160a01b031690565b60ff1690565b60005b83811015620012bc578181015183820152602001620012a2565b83811115620012cc576000848401525b50505050565b620012dd816200127d565b8114620012e957600080fd5b50565b620012dd816200128a565b620012dd8162001299565b612d7c80620013126000396000f3fe608060405234801561001057600080fd5b50600436106101cf5760003560e01c80638904b55611610104578063ae2efd91116100a2578063e551784111610071578063e551784114610389578063edc832b314610391578063f3bdedd2146103a7578063fefd2c1c146103af576101cf565b8063ae2efd911461035a578063b97e0ac614610362578063cd6ef2b01461036a578063d7d5226614610381576101cf565b8063a3f5c1d2116100de578063a3f5c1d214610315578063a78ed11c1461032a578063a962527a14610332578063ae2e933b14610345576101cf565b80638904b556146102dc578063905e8914146102ef57806396c1139f14610302576101cf565b8063458f5815116101715780635d864ced1161014b5780635d864ced146102b15780635eae58b9146102b95780637b4aec79146102c15780637dbc1df0146102c9576101cf565b8063458f58151461028c5780634fa167901461029457806350cf430c1461029c576101cf565b806319db2228116101ad57806319db2228146102275780631d3ce3981461023a57806326bbe60a146102545780633e37bcbc14610267576101cf565b806309f2a983146101d45780630aa8d59a146101fd5780630b2d850114610212575b600080fd5b6101e76101e2366004611da8565b6103c2565b6040516101f49190612a61565b60405180910390f35b61020561043b565b6040516101f49190612a7d565b610225610220366004611ed3565b610449565b005b610225610235366004611da8565b610517565b6102426105dc565b6040516101f4969594939291906129a2565b610225610262366004611da8565b6107c9565b61027a610275366004611da8565b610884565b6040516101f49695949392919061291c565b6102056108d9565b6102056108df565b6102a46108ee565b6040516101f49190612991565b61022561098e565b6102056109ec565b6102056109f9565b6102256102d7366004611f61565b610a07565b6102256102ea366004611da8565b610aad565b6101e76102fd366004611e26565b610bcd565b610225610310366004611e86565b610d2d565b61031d610db5565b6040516101f49190612a8b565b6101e7610dc4565b610225610340366004611e56565b610dcd565b61034d610e61565b6040516101f4919061290e565b610205610e70565b610205610e87565b610372610e97565b6040516101f493929190612a23565b61031d610f13565b610205610f22565b610399610f2e565b6040516101f4929190612a6f565b610205610f3d565b6102256103bd366004611dec565b610f4e565b60075460009060ff16156103f15760405162461bcd60e51b81526004016103e890612c19565b60405180910390fd5b6103f961113e565b6001600160a01b0316336001600160a01b0316146104295760405162461bcd60e51b81526004016103e890612af9565b610432826111cf565b5060015b919050565b665374616b696e6760c81b81565b61045161113e565b6001600160a01b0316336001600160a01b0316146104815760405162461bcd60e51b81526004016103e890612af9565b60075460ff16156104a45760405162461bcd60e51b81526004016103e890612c19565b6105118484808060200260200160405190810160405280939291908181526020018383602002808284376000920191909152505060408051602080880282810182019093528782529093508792508691829185019084908082843760009201919091525061147892505050565b50505050565b336105206116a6565b6001600160a01b0316148061054457503361053961113e565b6001600160a01b0316145b6105605760405162461bcd60e51b81526004016103e890612bc9565b6001600160a01b0381166105865760405162461bcd60e51b81526004016103e890612bd9565b600280546001600160a01b0319166001600160a01b0383161790556040517f167cccccc6e9b2892a740ec13fc1e51d3de8ea384f25bd87fee7412d588637e2906105d190839061290e565b60405180910390a150565b60045460408051828152602080840282010190915260609182918291829182918291818015610615578160200160208202803883390190505b50965080604051908082528060200260200182016040528015610642578160200160208202803883390190505b5095508060405190808252806020026020018201604052801561066f578160200160208202803883390190505b5094508060405190808252806020026020018201604052801561069c578160200160208202803883390190505b509350806040519080825280602002602001820160405280156106c9578160200160208202803883390190505b509250806040519080825280602002602001820160405280156106f6578160200160208202803883390190505b50915060005b818110156107bf5761070d816116e1565b8d878151811061071957fe5b602002602001018d888151811061072c57fe5b602002602001018d898151811061073f57fe5b602002602001018d8a8151811061075257fe5b602002602001018d8b8151811061076557fe5b602002602001018d8c8151811061077857fe5b6020026020010186600581111561078b57fe5b600581111561079657fe5b9052959095529490935293909252929092526001600160a01b03909216909152506001016106fc565b5050909192939495565b336107d26116a6565b6001600160a01b031614806107f65750336107eb61113e565b6001600160a01b0316145b6108125760405162461bcd60e51b81526004016103e890612bc9565b600154600160a01b900460ff161561083c5760405162461bcd60e51b81526004016103e890612b29565b6001600160a01b0381166108625760405162461bcd60e51b81526004016103e890612b19565b600180546001600160a01b0319166001600160a01b0392909216919091179055565b600080600080600080600080610899896117af565b91509150816108ba5760405162461bcd60e51b81526004016103e890612c09565b6108c3816116e1565b949e939d50919b50995097509095509350505050565b60035481565b6723b7bb32b93737b960c11b81565b600454604080518281526020808402820101909152606091908290828015610920578160200160208202803883390190505b50905060005b8281101561098757600480548290811061093c57fe5b600091825260209091206006909102015482516001600160a01b039091169083908390811061096757fe5b6001600160a01b0390921660209283029190910190910152600101610926565b5091505090565b336109976116a6565b6001600160a01b031614806109bb5750336109b061113e565b6001600160a01b0316145b6109d75760405162461bcd60e51b81526004016103e890612bc9565b6001805460ff60a01b1916600160a01b179055565b65537973746f6b60d01b81565b6626b0b730b3b2b960c91b81565b33610a106116a6565b6001600160a01b03161480610a34575033610a2961113e565b6001600160a01b0316145b610a505760405162461bcd60e51b81526004016103e890612bc9565b6702c68af0bb140000811115610a785760405162461bcd60e51b81526004016103e890612ab9565b60038190556040517f4dbf9634a3aaf3bc15ab627faeaac7c6b0a4754ead77206f1c11277356f2878f906105d1908390612a7d565b610ab56116a6565b6001600160a01b0316336001600160a01b031614610ae55760405162461bcd60e51b81526004016103e890612c49565b600080610af1836117af565b9150915081610b125760405162461bcd60e51b81526004016103e890612b79565b60016004805483908110610b2257fe5b60009182526020909120600560069092020181015460ff1690811115610b4457fe5b1480610b7f575060026004805483908110610b5b57fe5b60009182526020909120600560069092020181015460ff1690811115610b7d57fe5b145b15610bc857600060046000018281548110610b9657fe5b906000526020600020906006020160050160006101000a81548160ff02191690836005811115610bc257fe5b02179055505b505050565b6000610bd76116a6565b6001600160a01b0316336001600160a01b031614610c075760405162461bcd60e51b81526004016103e890612c49565b60075460ff1615610c2a5760405162461bcd60e51b81526004016103e890612c19565b600080610c36856117af565b9150915081610c575760405162461bcd60e51b81526004016103e890612b79565b600060046000018281548110610c6957fe5b6000918252602082206005600690920201015460ff16915085610c8d576002610c90565b60015b9050806005811115610c9e57fe5b826005811115610caa57fe5b1480610cba5750610cba8261182a565b15610ccc576001945050505050610d27565b8060046000018481548110610cdd57fe5b906000526020600020906006020160050160006101000a81548160ff02191690836005811115610d0957fe5b02179055506001816005811115610d1c57fe5b505060009450505050505b92915050565b610d3561113e565b6001600160a01b0316336001600160a01b031614610d655760405162461bcd60e51b81526004016103e890612af9565b60075460ff1615610d885760405162461bcd60e51b81526004016103e890612c19565b60095460ff16610daa5760405162461bcd60e51b81526004016103e890612bb9565b610bc883838361187c565b6000546001600160a01b031681565b60095460ff1681565b610dd561113e565b6001600160a01b0316336001600160a01b031614610e055760405162461bcd60e51b81526004016103e890612af9565b60075460ff1615610e285760405162461bcd60e51b81526004016103e890612c19565b60095460ff1615610e4b5760405162461bcd60e51b81526004016103e890612bb9565b610e5d8282610e58611abd565b61187c565b5050565b6002546001600160a01b031681565b6f2932b1b7b63630ba32b930b634b9b2b960811b81565b6827b930b1b632a43ab160b91b81565b600754600854600680546040805160208084028201810190925282815260609560009586959460ff909216939092918591830182828015610f0157602002820191906000526020600020905b81546001600160a01b03168152600190910190602001808311610ee3575b50505050509250925092509250909192565b6001546001600160a01b031681565b644e6578757360d81b81565b60075460085460ff9091169082565b69476f7665726e616e636560b01b81565b610f566116a6565b6001600160a01b0316336001600160a01b031614610f865760405162461bcd60e51b81526004016103e890612c49565b60075460ff1615610fa95760405162461bcd60e51b81526004016103e890612c19565b600080610fb5846117af565b9150915081610fd65760405162461bcd60e51b81526004016103e890612b79565b600080610fe2836116e1565b9550955050505050610ff38161182a565b156110105760405162461bcd60e51b81526004016103e890612ae9565b600082116110305760405162461bcd60e51b81526004016103e890612c59565b60036004600001848154811061104257fe5b906000526020600020906006020160050160006101000a81548160ff0219169083600581111561106e57fe5b021790555060006004600001848154811061108557fe5b906000526020600020906006020160040181905550856001600160a01b031663095ea7b386846040518363ffffffff1660e01b81526004016110c8929190612976565b602060405180830381600087803b1580156110e257600080fd5b505af11580156110f6573d6000803e3d6000fd5b505050506040513d601f19601f8201168201806040525061111a9190810190611f43565b6111365760405162461bcd60e51b81526004016103e890612b49565b505050505050565b600080546040516385acd64160e01b81526001600160a01b03909116906385acd6419061117a906723b7bb32b93737b960c11b90600401612a7d565b60206040518083038186803b15801561119257600080fd5b505afa1580156111a6573d6000803e3d6000fd5b505050506040513d601f19601f820116820180604052506111ca9190810190611dce565b905090565b6000806111db836117af565b91509150816111fc5760405162461bcd60e51b81526004016103e890612b69565b600454611207611cea565b600480548490811061121557fe5b60009182526020918290206040805160c081018252600690930290910180546001600160a01b03168352600181015493830193909352600283015490820152600382015460608201526004820154608082015260058083015491929160a084019160ff9091169081111561128557fe5b600581111561129057fe5b9052506080810151909150156112b85760405162461bcd60e51b81526004016103e890612bf9565b60038160a0015160058111156112ca57fe5b14156112e85760405162461bcd60e51b81526004016103e890612be9565b6004805460001984019081106112fa57fe5b90600052602060002090600602016004600001848154811061131857fe5b60009182526020909120825460069092020180546001600160a01b0319166001600160a01b0390921691909117815560018083015481830155600280840154908301556003808401549083015560048084015490830155600580840154818401805460ff90921693909260ff1990921691849081111561139457fe5b02179055505060048054909150806113a857fe5b60008281526020808220600660001990940184810290910180546001600160a01b0319908116825560018281018690556002830186905560038301869055600483018690556005928301805460ff19169055929096556001600160a01b038b1680855292526040808420849055845491820185559383527ff652222313e28459528d920b65115c16c04f3efc82aaedc97be59f3f377c0d3f018054909416811790935590517f1e5281bbecf5c15104f9e35265dbe738c1cd2597613cbf4a0a51713448bc13b99190a25050505050565b81518151811461149a5760405162461bcd60e51b81526004016103e890612aa9565b60045481146114bb5760405162461bcd60e51b81526004016103e890612b39565b60006114c683611ac5565b90506114d0611b09565b8110156114ef5760405162461bcd60e51b81526004016103e890612b99565b60005b8281101561165257600085828151811061150857fe5b602002602001015190506004600001828154811061152257fe5b60009182526020909120600690910201546001600160a01b0382811691161461155d5760405162461bcd60e51b81526004016103e890612ba9565b600085838151811061156b57fe5b602002602001015190506000600581111561158257fe5b600480548590811061159057fe5b60009182526020909120600560069092020181015460ff16908111156115b257fe5b141561160a576115c0611b09565b8111156115df5760405162461bcd60e51b81526004016103e890612a99565b80600460000184815481106115f057fe5b906000526020600020906006020160030181905550611648565b600480548490811061161857fe5b90600052602060002090600602016003015481146116485760405162461bcd60e51b81526004016103e890612b89565b50506001016114f2565b508360405161166191906128f6565b60405180910390207fbe2adf2902216365c5c656d48909da65fad401f809e4351cdbcfcac406745669846040516116989190612a50565b60405180910390a250505050565b600080546040516385acd64160e01b81526001600160a01b03909116906385acd6419061117a906626b0b730b3b2b960c91b90600401612a7d565b6000806000806000806116f2611cea565b600480548990811061170057fe5b60009182526020918290206040805160c081018252600690930290910180546001600160a01b03168352600181015493830193909352600283015490820152600382015460608201526004820154608082015260058083015491929160a084019160ff9091169081111561177057fe5b600581111561177b57fe5b9052508051602082015160408301516060840151608085015160a090950151939d929c50909a509850919650945092505050565b6001600160a01b03811660009081526005602052604081205480611820576004546117df57506000905080611825565b826001600160a01b031660046000016000815481106117fa57fe5b600091825260208220600690910201546001600160a01b03169190911492509050611825565b600191505b915091565b6000600382600581111561183a57fe5b14806118515750600482600581111561184f57fe5b145b806118675750600582600581111561186557fe5b145b1561187457506001610436565b506000919050565b6001600160a01b0383166118a25760405162461bcd60e51b81526004016103e890612c29565b60006118ad846117af565b50905080156118ce5760405162461bcd60e51b81526004016103e890612c39565b60006118d985611b15565b905060006118ee60128363ffffffff611bcb16565b9050600061190685600a84900a63ffffffff611bf316565b600480546001600160a01b038a81166000818152600560208181526040808420879055805160c0810182529485529084018e8152908401888152606085018481526080860185815260a087018681526001808b01808d559b90975287517f8a35acfbc15ff81a39ae7d344fd709f28e8600b4aa8c65c6b64bfe7fe36bd19b6006909b029a8b0180546001600160a01b03191691909a1617895593517f8a35acfbc15ff81a39ae7d344fd709f28e8600b4aa8c65c6b64bfe7fe36bd19c8a015591517f8a35acfbc15ff81a39ae7d344fd709f28e8600b4aa8c65c6b64bfe7fe36bd19d890155517f8a35acfbc15ff81a39ae7d344fd709f28e8600b4aa8c65c6b64bfe7fe36bd19e880155517f8a35acfbc15ff81a39ae7d344fd709f28e8600b4aa8c65c6b64bfe7fe36bd19f870155517f8a35acfbc15ff81a39ae7d344fd709f28e8600b4aa8c65c6b64bfe7fe36bd1a09095018054979850959692959394939260ff191691908490811115611a7857fe5b0217905550506040516001600160a01b038a1692507fa83f9302fa4684335dd26b1bdd925929618565fa0f22bd9e91ab01753d8bf13c9150600090a250505050505050565b6305f5e10090565b80516000908190815b81811015611b00576000611af584878481518110611ae857fe5b6020026020010151611c2e565b935050600101611ace565b50909392505050565b670de0b6b3a764000090565b60408051600481526024810182526020810180516001600160e01b031663313ce56760e01b179052905160009182916001600160a01b03851691611b5891612902565b6000604051808303816000865af19150503d8060008114611b95576040519150601f19603f3d011682016040523d82523d6000602084013e611b9a565b606091505b5050905080611bbb5760405162461bcd60e51b81526004016103e890612ad9565b611bc483611c51565b9392505050565b600082821115611bed5760405162461bcd60e51b81526004016103e890612c69565b50900390565b600082611c0257506000610d27565b5081810281838281611c1057fe5b0414610d275760405162461bcd60e51b81526004016103e890612ac9565b80820182811015610d275760405162461bcd60e51b81526004016103e890612b09565b600080826001600160a01b031663313ce5676040518163ffffffff1660e01b815260040160206040518083038186803b158015611c8d57600080fd5b505afa158015611ca1573d6000803e3d6000fd5b505050506040513d601f19601f82011682018060405250611cc59190810190611f7f565b60ff16905060008111610d275760405162461bcd60e51b81526004016103e890612b59565b6040805160c08101825260008082526020820181905291810182905260608101829052608081018290529060a082015290565b8035610d2781612d0a565b8051610d2781612d0a565b60008083601f840112611d4557600080fd5b50813567ffffffffffffffff811115611d5d57600080fd5b602083019150836020820283011115611d7557600080fd5b9250929050565b8035610d2781612d1e565b8051610d2781612d1e565b8035610d2781612d27565b8051610d2781612d30565b600060208284031215611dba57600080fd5b6000611dc68484611d1d565b949350505050565b600060208284031215611de057600080fd5b6000611dc68484611d28565b60008060408385031215611dff57600080fd5b6000611e0b8585611d1d565b9250506020611e1c85828601611d1d565b9150509250929050565b60008060408385031215611e3957600080fd5b6000611e458585611d1d565b9250506020611e1c85828601611d7c565b60008060408385031215611e6957600080fd5b6000611e758585611d1d565b9250506020611e1c85828601611d92565b600080600060608486031215611e9b57600080fd5b6000611ea78686611d1d565b9350506020611eb886828701611d92565b9250506040611ec986828701611d92565b9150509250925092565b60008060008060408587031215611ee957600080fd5b843567ffffffffffffffff811115611f0057600080fd5b611f0c87828801611d33565b9450945050602085013567ffffffffffffffff811115611f2b57600080fd5b611f3787828801611d33565b95989497509550505050565b600060208284031215611f5557600080fd5b6000611dc68484611d87565b600060208284031215611f7357600080fd5b6000611dc68484611d92565b600060208284031215611f9157600080fd5b6000611dc68484611d9d565b6000611fa98383611fc9565b505060200190565b6000611fa98383612172565b6000611fa983836121b3565b611fd281612c8c565b82525050565b6000611fe382612c7f565b611fed8185612c83565b9350611ff883612c79565b8060005b838110156120265781516120108882611f9d565b975061201b83612c79565b925050600101611ffc565b509495945050505050565b600061203c82612c7f565b6120468185610436565b935061205183612c79565b8060005b838110156120265781516120698882611f9d565b975061207483612c79565b925050600101612055565b600061208a82612c7f565b6120948185612c83565b935061209f83612c79565b8060005b838110156120265781516120b78882611fb1565b97506120c283612c79565b9250506001016120a3565b60006120d882612c7f565b6120e28185612c83565b93506120ed83612c79565b8060005b838110156120265781516121058882611fbd565b975061211083612c79565b9250506001016120f1565b600061212682612c7f565b6121308185612c83565b935061213b83612c79565b8060005b838110156120265781516121538882611fb1565b975061215e83612c79565b92505060010161213f565b611fd281612c97565b611fd281612c9c565b600061218682612c7f565b6121908185610436565b93506121a0818560208601612cd1565b9290920192915050565b611fd281612cbb565b611fd281612cc6565b60006121c9602c83612c83565b7f417373657420776569676874206d757374206265206c657373207468616e206f81526b7220657175616c20746f203160a01b602082015260400192915050565b6000612217602383612c83565b7f4d757374206265206d61746368696e672062617373657420646174612061727281526261797360e81b602082015260400192915050565b600061225c601783612c83565b7f526564656d7074696f6e20666565203e206d6178466565000000000000000000815260200192915050565b6000612295602383612c83565b7f537461626c654d6174683a206d756c7469706c69636174696f6e206f766572668152626c6f7760e81b602082015260400192915050565b60006122da602483612c83565b7f546f6b656e20636f6e7472616374206d75737420737570706f727420646563698152636d616c7360e01b602082015260400192915050565b6000612320601483612c83565b73496e76616c69642042617373657420737461746560601b815260200192915050565b6000612350601983612c83565b7f4f6e6c7920676f7665726e6f722063616e206578656375746500000000000000815260200192915050565b6000612389601183612c83565b704d757374206e6f74206f766572666c6f7760781b815260200192915050565b60006123b6601883612c83565b7f4d757374206265206e6f6e206e756c6c20616464726573730000000000000000815260200192915050565b60006123ef601a83612c83565b7f4d75737420626520616c6c6f77656420746f2075706772616465000000000000815260200192915050565b6000612428602783612c83565b7f4d757374206265206d61746368696e67206578697374696e67206261736b6574815266081b185e5bdd5d60ca1b602082015260400192915050565b6000612471601583612c83565b7410985cdcd95d08185c1c1c9bdd994819985a5b1959605a1b815260200192915050565b60006124a2602983612c83565b7f546f6b656e206d75737420686176652031206f72206d6f726520646563696d618152683610383630b1b2b99760b91b602082015260400192915050565b60006124ed601b83612c83565b7f4173736574206d7573742061707065617220696e204261736b65740000000000815260200192915050565b6000612526601b83612c83565b7f426173736574206d75737420657869737420696e204261736b65740000000000815260200192915050565b600061255f602e83612c83565b7f43616e6e6f74206368616e676520776569676874696e677320666f722073756681526d666572696e67204261737365747360901b602082015260400192915050565b60006125af602483612c83565b7f4261736b657420776569676874206d75737420746f74616c203e2031303025208152633d3d203160e01b602082015260400192915050565b60006125f5602883612c83565b7f426173736574206d75737420626520726570726573656e7465642073796d6d6581526774726963616c6c7960c01b602082015260400192915050565b600061263f602883612c83565b7f53706563696679696e67205f6d6561737572656d656e744d756c7469706c6520815267191a5cd8589b195960c21b602082015260400192915050565b6000612689601d83612c83565b7f4d757374206265206d616e61676572206f7220676f7665726e616e6365000000815260200192915050565b60006126c2601583612c83565b744d7573742062652076616c6964206164647265737360581b815260200192915050565b60006126f3601583612c83565b74426173736574206d7573742062652061637469766560581b815260200192915050565b6000612724602583612c83565b7f426173736574207661756c74206d75737420626520636f6d706c6574656c7920815264656d70747960d81b602082015260400192915050565b600061276b601183612c83565b7010985cdcd95d081b5d5cdd08195e1a5cdd607a1b815260200192915050565b6000612798601483612c83565b734261736b6574206d75737420626520616c69766560601b815260200192915050565b60006127c8601c83612c83565b7f41737365742061646472657373206d7573742062652076616c69642e00000000815260200192915050565b6000612801602683612c83565b7f41737365742063616e6e6f7420616c726561647920626520696e20746865206281526530b9b5b2ba1760d11b602082015260400192915050565b6000612849601883612c83565b7f4f6e6c79206d616e616765722063616e20657865637574650000000000000000815260200192915050565b6000612882602683612c83565b7f4d757374206861766520736f6d657468696e6720746f207265636f6c6c61746581526572616c69736560d01b602082015260400192915050565b60006128ca602083612c83565b7f537461626c654d6174683a207375627472616374696f6e206f766572666c6f77815260200192915050565b6000611bc48284612031565b6000611bc4828461217b565b60208101610d278284611fc9565b60c0810161292a8289611fc9565b6129376020830188612172565b6129446040830187612172565b6129516060830186612172565b61295e6080830185612172565b61296b60a08301846121b3565b979650505050505050565b604081016129848285611fc9565b611bc46020830184612172565b60208082528101611bc48184611fd8565b60c080825281016129b38189611fd8565b905081810360208301526129c7818861207f565b905081810360408301526129db818761211b565b905081810360608301526129ef818661211b565b90508181036080830152612a03818561211b565b905081810360a0830152612a1781846120cd565b98975050505050505050565b60608082528101612a348186611fd8565b9050612a436020830185612169565b611dc66040830184612172565b60208082528101611bc4818461211b565b60208101610d278284612169565b604081016129848285612169565b60208101610d278284612172565b60208101610d2782846121aa565b60208082528101610d27816121bc565b60208082528101610d278161220a565b60208082528101610d278161224f565b60208082528101610d2781612288565b60208082528101610d27816122cd565b60208082528101610d2781612313565b60208082528101610d2781612343565b60208082528101610d278161237c565b60208082528101610d27816123a9565b60208082528101610d27816123e2565b60208082528101610d278161241b565b60208082528101610d2781612464565b60208082528101610d2781612495565b60208082528101610d27816124e0565b60208082528101610d2781612519565b60208082528101610d2781612552565b60208082528101610d27816125a2565b60208082528101610d27816125e8565b60208082528101610d2781612632565b60208082528101610d278161267c565b60208082528101610d27816126b5565b60208082528101610d27816126e6565b60208082528101610d2781612717565b60208082528101610d278161275e565b60208082528101610d278161278b565b60208082528101610d27816127bb565b60208082528101610d27816127f4565b60208082528101610d278161283c565b60208082528101610d2781612875565b60208082528101610d27816128bd565b60200190565b5190565b90815260200190565b6000610d2782612ca9565b151590565b90565b8061043681612cfd565b6001600160a01b031690565b60ff1690565b6000610d2782612c8c565b6000610d2782612c9f565b60005b83811015612cec578181015183820152602001612cd4565b838111156105115750506000910152565b60068110612d0757fe5b50565b612d1381612c8c565b8114612d0757600080fd5b612d1381612c97565b612d1381612c9c565b612d1381612cb556fea365627a7a72315820b9934e23dde4cfd53253024ae488a56d97f88cf31627ce9a14b8727d3592c7ec6c6578706572696d656e74616cf564736f6c63430005100040",
  "source": "pragma solidity ^0.5.12;\npragma experimental ABIEncoderV2;\n\nimport { CommonHelpers } from \"../shared/libs/CommonHelpers.sol\";\n\nimport { IERC20 } from \"./mERC20/MassetToken.sol\";\nimport { MassetCore, IManager, ISystok, IForgeValidator, StableMath } from \"./MassetCore.sol\";\nimport { MassetStructs } from \"./shared/MassetStructs.sol\";\n\n/**\n * @title MassetBasket\n * @dev Manages the Masset Basket composition and acts as a cache to store the Basket Assets (Bassets)\n */\ncontract MassetBasket is MassetStructs, MassetCore {\n\n    /** @dev Struct holding Basket details */\n    Basket public basket;\n    bool public measurementMultipleEnabled;\n\n    /** @dev Forging events */\n    event BassetAdded(address indexed basset);\n    event BassetRemoved(address indexed basset);\n    event BasketWeightsUpdated(address[] indexed bassets, uint256[] maxWeights);\n\n    /** @dev constructor */\n    constructor(\n        address _nexus,\n        address[] memory _bassets,\n        bytes32[] memory _keys,\n        uint256[] memory _weights,\n        uint256[] memory _multiples\n    )\n        MassetCore(_nexus)\n        public\n    {\n        require(_bassets.length > 0, \"Must initialise the basket with some bAssets\");\n\n        measurementMultipleEnabled = _multiples.length > 0;\n        \n        // Defaults\n        basket.collateralisationRatio = 1e18;\n        redemptionFee = 2e16;\n\n        for (uint256 i = 0; i < _bassets.length; i++) {\n            _addBasset(_bassets[i], _keys[i], measurementMultipleEnabled ? _multiples[i] : StableMath.getRatio());\n        }\n        _setBasketWeights(_bassets, _weights);\n    }\n\n    modifier basketIsHealthy(){\n        require(!basket.failed, \"Basket must be alive\");\n        _;\n    }\n\n\n    /***************************************\n              RE-COLLATERALISATION\n    ****************************************/\n\n    /**\n      * @dev Executes the Auto Redistribution event by isolating the Basset from the Basket\n      * @param _basset Address of the ERC20 token to isolate\n      * @param _belowPeg Bool to describe whether the basset deviated below peg (t) or above (f)\n      * @return alreadyActioned Bool to show whether a Basset had already been actioned\n      */\n    function handlePegLoss(address _basset, bool _belowPeg)\n    external\n    onlyManager\n    basketIsHealthy\n    returns (bool alreadyActioned) {\n        (bool exists, uint i) = _isAssetInBasket(_basset);\n        require(exists, \"Basset must exist in Basket\");\n\n        BassetStatus oldStatus = basket.bassets[i].status;\n        BassetStatus newStatus = _belowPeg ? BassetStatus.BrokenBelowPeg : BassetStatus.BrokenAbovePeg;\n\n        if(oldStatus == newStatus ||\n          _bassetHasRecolled(oldStatus)) {\n            return true;\n        }\n\n        // If we need to update the status.. then do it\n        basket.bassets[i].status = newStatus;\n\n        if(newStatus == BassetStatus.BrokenBelowPeg) {\n          // REDISTRIBUTE THIS BASSET'S WEIGHT TO THE OTHER BASSETS?\n          // Good point\n        }\n        return false;\n    }\n\n    /**\n      * @dev Negates the isolation of a given Basset\n      * @param _basset Address of the Basset\n      */\n    function negatePegLoss(address _basset)\n    external\n    onlyManager {\n        (bool exists, uint i) = _isAssetInBasket(_basset);\n        require(exists, \"Basset must exist in Basket\");\n\n        if(basket.bassets[i].status == BassetStatus.BrokenBelowPeg ||\n          basket.bassets[i].status == BassetStatus.BrokenAbovePeg) {\n            basket.bassets[i].status = BassetStatus.Normal;\n        }\n    }\n\n    /**\n      * @dev Sends the affected Basset off to the Recollateraliser to be auctioned\n      * @param _basset Address of the Basset to isolate\n      * @param _recollateraliser Address of the recollateraliser, to which the tokens should be sent\n      */\n    function initiateRecol(address _basset, address _recollateraliser)\n    external\n    onlyManager\n    basketIsHealthy {\n        (bool exists, uint i) = _isAssetInBasket(_basset);\n        require(exists, \"Basset must exist in Basket\");\n\n        (, , , , uint256 vaultBalance, BassetStatus status) = _getBasset(i);\n        require(!_bassetHasRecolled(status), \"Invalid Basset state\");\n        // TODO - if vaultBalance is 0 and we want to recol, then just remove from Basket?\n        require(vaultBalance > 0, \"Must have something to recollateralise\");\n\n        basket.bassets[i].status = BassetStatus.Liquidating;\n        basket.bassets[i].vaultBalance = 0;\n\n        // Approve the recollateraliser to take the Basset\n        require(IERC20(_basset).approve(_recollateraliser, vaultBalance), \"Basset approve failed\");\n    }\n\n\n    /***************************************\n                BASKET ADJUSTMENTS\n    ****************************************/\n    \n\n    /**\n      * @dev External func to allow the Manager to conduct add operations on the Basket\n      * @param _basset Address of the ERC20 token to add to the Basket\n      * @param _key Bytes32 key that will be used to lookup price in Oracle\n      */\n    function addBasset(address _basset, bytes32 _key)\n    external\n    onlyGovernor\n    basketIsHealthy {\n        require(!measurementMultipleEnabled, \"Specifying _measurementMultiple disabled\");\n        _addBasset(_basset, _key, StableMath.getRatio());\n    }\n\n    /**\n      * @dev External func to allow the Manager to conduct add operations on the Basket\n      * @param _basset Address of the ERC20 token to add to the Basket\n      * @param _key Bytes32 key that will be used to lookup price in Oracle\n      * @param _measurementMultiple MeasurementMultiple of the Basset where 1:1 == 1e8\n      */\n    function addBasset(address _basset, bytes32 _key, uint256 _measurementMultiple)\n    external\n    onlyGovernor\n    basketIsHealthy {\n        require(measurementMultipleEnabled, \"Specifying _measurementMultiple disabled\");\n        _addBasset(_basset, _key, _measurementMultiple);\n    }\n\n    /**\n      * @dev Adds a basset to the Basket, fetching its decimals and calculating the Ratios\n      * @param _basset Address of the ERC20 token to add to the Basket\n      * @param _key Bytes32 key that will be used to lookup price in Oracle\n      * @param _measurementMultiple base 1e8 var to determine measurement ratio between basset:masset\n      * e.g. a Gold backed basset pegged to 1g where Masset is base 10g would be 1e7 (0.1:1)\n      * e.g. a USD backed basset pegged to 1 USD where Masset is pegged to 1 USD would be 1e8 (1:1)\n      */\n    function _addBasset(address _basset, bytes32 _key, uint256 _measurementMultiple)\n    internal {\n        require(_basset != address(0), \"Asset address must be valid.\");\n        (bool alreadyInBasket, ) = _isAssetInBasket(_basset);\n        require(!alreadyInBasket, \"Asset cannot already be in the basket.\");\n\n        // Check for ERC20 compatibility by forcing decimal retrieval\n        // Ultimate enforcement of Basset validity should service through governance\n        uint256 basset_decimals = CommonHelpers.mustGetDecimals(_basset);\n\n        uint256 delta = uint256(18).sub(basset_decimals);\n\n        uint256 ratio = _measurementMultiple.mul(10 ** delta);\n\n        basket.bassetsMap[_basset] = basket.bassets.length;\n\n        basket.bassets.push(Basset({\n            addr: _basset,\n            key: _key,\n            ratio: ratio,\n            maxWeight: 0,\n            vaultBalance: 0,\n            status: BassetStatus.Normal\n        }));\n\n\n        emit BassetAdded(_basset);\n    }\n\n    /**\n      * @dev Removes a specific Asset from the Basket, given that its target/collateral level is 0\n      * As this is a cleanup operation, anybody should be able to perform this task\n      * @param _assetToRemove The asset to remove from the basket\n      * @return bool To signify whether the asset was found and removed from the basket\n      */\n    function removeBasset(address _assetToRemove)\n    external\n    basketIsHealthy\n    onlyGovernor\n    returns (bool removed) {\n        _removeBasset(_assetToRemove);\n        return true;\n    }\n\n    function _removeBasset(address _assetToRemove)\n    internal {\n        (bool existsInBasket, uint index) = _isAssetInBasket(_assetToRemove);\n        require(existsInBasket, \"Asset must appear in Basket\");\n\n        uint len = basket.bassets.length;\n\n        Basset memory basset = basket.bassets[index];\n        // require(basset.maxWeight == 0, \"Basset must have a target weight of 0\");\n        require(basset.vaultBalance == 0, \"Basset vault must be completely empty\");\n        require(basset.status != BassetStatus.Liquidating, \"Basset must be active\");\n\n        basket.bassets[index] = basket.bassets[len-1];\n        basket.bassets.pop();\n\n        basket.bassetsMap[_assetToRemove] = 0;\n\n        basket.expiredBassets.push(_assetToRemove);\n\n        emit BassetRemoved(_assetToRemove);\n    }\n\n    /**\n      * @dev External call to set weightings of a new Basket\n      * @param _bassets Array of Basset addresses\n      * @param _weights Array of Basset weights - summing 100% where 100% == 1e18\n      */\n    function setBasketWeights(\n        address[] calldata _bassets,\n        uint256[] calldata _weights\n    )\n        external\n        onlyGovernor\n        basketIsHealthy\n    {\n        _setBasketWeights(_bassets, _weights);\n    }\n\n\n    /**\n      * @notice Sets new Basket weightings\n      * @dev Requires the Basket to be in a healthy state, i.e. no Broken assets\n      * @param _bassets Array of Basset addresses\n      * @param _weights Array of Basset weights - summing 100% where 100% == 1e18\n      */\n    function _setBasketWeights(\n        address[] memory _bassets,\n        uint256[] memory _weights\n    )\n        internal\n    {\n        uint256 bassetCount = _bassets.length;\n\n        require(bassetCount == _weights.length, \"Must be matching basset data arrays\");\n        require(bassetCount == basket.bassets.length, \"Must be matching existing basket layout\");\n\n        uint256 weightSum = CommonHelpers.sumOfArrayValues(_weights);\n        require(weightSum >= StableMath.getScale(), \"Basket weight must total > 100% == 1\");\n\n        for (uint256 i = 0; i < bassetCount; i++) {\n            address basset = _bassets[i];\n\n            require(basset == basket.bassets[i].addr, \"Basset must be represented symmetrically\");\n\n            uint256 bassetWeight = _weights[i];\n            if(basket.bassets[i].status == BassetStatus.Normal) {\n                require(bassetWeight >= 0, \"Weight must be positive\");\n                require(bassetWeight <= StableMath.getScale(), \"Asset weight must be less than or equal to 1\");\n                basket.bassets[i].maxWeight = bassetWeight;\n            } else {\n                require(bassetWeight == basket.bassets[i].maxWeight, \"Cannot change weightings for suffering Bassets\");\n            }\n        }\n\n        emit BasketWeightsUpdated(_bassets, _weights);\n    }\n\n\n    /***************************************\n                    GETTERS\n    ****************************************/\n\n    /**\n      * @dev Get basket details\n      * @return All the details\n      */\n    function getBasket()\n    external\n    view\n    returns (\n        address[] memory expiredBassets,\n        bool failed,\n        uint256 collateralisationRatio\n    ) {\n        return (basket.expiredBassets, basket.failed, basket.collateralisationRatio);\n    }\n\n    /**\n      * @dev Get all basket assets\n      * @return Struct array of all basket assets\n      */\n    function getBassets()\n    external\n    view\n    returns (\n        address[] memory addresses,\n        bytes32[] memory keys,\n        uint256[] memory ratios,\n        uint256[] memory targets,\n        uint256[] memory vaults,\n        BassetStatus[] memory statuses\n    ) {\n        uint256 len = basket.bassets.length;\n\n        addresses = new address[](len);\n        keys = new bytes32[](len);\n        ratios = new uint256[](len);\n        targets = new uint256[](len);\n        vaults = new uint256[](len);\n        statuses = new BassetStatus[](len);\n\n        for(uint i = 0; i < len; i++){\n            (addresses[i], keys[i], ratios[i], targets[i], vaults[i], statuses[i]) = _getBasset(i);\n        }\n    }\n\n    /**\n      * @dev Get all basket assets, failing if the Basset does not exist\n      * @return Struct array of all basket assets\n      */\n    function getBasset(address _basset)\n    public\n    view\n    returns (\n        address addr,\n        bytes32 key,\n        uint256 ratio,\n        uint256 maxWeight,\n        uint256 vaultBalance,\n        BassetStatus status\n    ) {\n        (bool exists, uint index) = _isAssetInBasket(_basset);\n        require(exists, \"Basset must exist\");\n        return _getBasset(index);\n    }\n\n    /**\n     * @dev Get all bAssets addresses\n     * @return return an array of bAssets addresses\n     */\n    function getAllBassetsAddress() public view returns (address[] memory) {\n        uint256 len = basket.bassets.length;\n        address[] memory bAssets = new address[](len);\n        for(uint256 i = 0; i < len; i++) {\n            bAssets[i] = basket.bassets[i].addr;\n        }\n        return bAssets;\n    }\n\n    /**\n      * @dev Get all basket assets\n      * @return Struct array of all basket assets\n      */\n    function _getBasset(uint256 _bassetIndex)\n    internal\n    view\n    returns (\n        address addr,\n        bytes32 key,\n        uint256 ratio,\n        uint256 maxWeight,\n        uint256 vaultBalance,\n        BassetStatus status\n    ) {\n        Basset memory b = basket.bassets[_bassetIndex];\n        return (b.addr, b.key, b.ratio, b.maxWeight, b.vaultBalance, b.status);\n    }\n\n\n    /**\n      * @dev Checks if a particular asset is in the basket\n      * @param _asset Address of Basset to look for\n      * @return bool to signal that the asset is in basket\n      * @return uint Index of the Basset\n      */\n    function _isAssetInBasket(address _asset)\n    internal\n    view\n    returns (bool exists, uint256 index) {\n        index = basket.bassetsMap[_asset];\n        if(index == 0) {\n            if(basket.bassets.length == 0){\n                return (false, 0);\n            }\n            return (basket.bassets[0].addr == _asset, 0);\n        }\n        return (true, index);\n    }\n\n    /**\n     * @notice Determine whether or not a Basset has already undergone re-collateralisation\n     */\n    function _bassetHasRecolled(BassetStatus _status)\n    internal\n    pure\n    returns (bool) {\n        if(_status == BassetStatus.Liquidating ||\n            _status == BassetStatus.Liquidated ||\n            _status == BassetStatus.Failed) {\n            return true;\n        }\n        return false;\n    }\n}\n",
  "sourcePath": "/Users/james/mstable/mStable-contracts/contracts/masset/MassetBasket.sol",
  "compiler": {
    "name": "solc",
    "version": "0.5.16+commit.9c3226ce.Emscripten.clang"
  },
  "schemaVersion": "3.0.23",
  "updatedAt": "2020-02-12T09:10:20.808Z",
  "devdoc": {
    "details": "Manages the Masset Basket composition and acts as a cache to store the Basket Assets (Bassets)",
    "methods": {
      "addBasset(address,bytes32)": {
        "details": "External func to allow the Manager to conduct add operations on the Basket",
        "params": {
          "_basset": "Address of the ERC20 token to add to the Basket",
          "_key": "Bytes32 key that will be used to lookup price in Oracle"
        }
      },
      "addBasset(address,bytes32,uint256)": {
        "details": "External func to allow the Manager to conduct add operations on the Basket",
        "params": {
          "_basset": "Address of the ERC20 token to add to the Basket",
          "_key": "Bytes32 key that will be used to lookup price in Oracle",
          "_measurementMultiple": "MeasurementMultiple of the Basset where 1:1 == 1e8"
        }
      },
      "constructor": {
        "details": "constructor "
      },
      "getAllBassetsAddress()": {
        "details": "Get all bAssets addresses",
        "return": "return an array of bAssets addresses"
      },
      "getBasket()": {
        "details": "Get basket details",
        "return": "All the details"
      },
      "getBasset(address)": {
        "details": "Get all basket assets, failing if the Basset does not exist",
        "return": "Struct array of all basket assets"
      },
      "getBassets()": {
        "details": "Get all basket assets",
        "return": "Struct array of all basket assets"
      },
      "handlePegLoss(address,bool)": {
        "details": "Executes the Auto Redistribution event by isolating the Basset from the Basket",
        "params": {
          "_basset": "Address of the ERC20 token to isolate",
          "_belowPeg": "Bool to describe whether the basset deviated below peg (t) or above (f)"
        },
        "return": "alreadyActioned Bool to show whether a Basset had already been actioned"
      },
      "initiateRecol(address,address)": {
        "details": "Sends the affected Basset off to the Recollateraliser to be auctioned",
        "params": {
          "_basset": "Address of the Basset to isolate",
          "_recollateraliser": "Address of the recollateraliser, to which the tokens should be sent"
        }
      },
      "lockForgeValidator()": {
        "details": "Locks the ForgeValidator into it's final form"
      },
      "negatePegLoss(address)": {
        "details": "Negates the isolation of a given Basset",
        "params": {
          "_basset": "Address of the Basset"
        }
      },
      "removeBasset(address)": {
        "details": "Removes a specific Asset from the Basket, given that its target/collateral level is 0 As this is a cleanup operation, anybody should be able to perform this task",
        "params": {
          "_assetToRemove": "The asset to remove from the basket"
        },
        "return": "bool To signify whether the asset was found and removed from the basket"
      },
      "setBasketWeights(address[],uint256[])": {
        "details": "External call to set weightings of a new Basket",
        "params": {
          "_bassets": "Array of Basset addresses",
          "_weights": "Array of Basset weights - summing 100% where 100% == 1e18"
        }
      },
      "setFeePool(address)": {
        "details": "Set the recipient address of forge fees",
        "params": {
          "_feePool": "Address of the fee pool"
        }
      },
      "setRedemptionFee(uint256)": {
        "details": "Set the ecosystem fee for redeeming a masset",
        "params": {
          "_redemptionFee": "Fee calculated in (%/100 * 1e18)"
        }
      },
      "upgradeForgeValidator(address)": {
        "details": "Upgrades the version of ForgeValidator protocol",
        "params": {
          "_newForgeValidator": "Address of the new ForgeValidator"
        }
      }
    },
    "title": "MassetBasket"
  },
  "userdoc": {
    "methods": {}
  }
}