{
  "contractName": "Masset",
  "abi": [
    {
      "inputs": [
        {
          "internalType": "string",
          "name": "_name",
          "type": "string"
        },
        {
          "internalType": "string",
          "name": "_symbol",
          "type": "string"
        },
        {
          "internalType": "address",
          "name": "_nexus",
          "type": "address"
        },
        {
          "internalType": "address[]",
          "name": "_bassets",
          "type": "address[]"
        },
        {
          "internalType": "bytes32[]",
          "name": "_bassetKeys",
          "type": "bytes32[]"
        },
        {
          "internalType": "uint256[]",
          "name": "_bassetWeights",
          "type": "uint256[]"
        },
        {
          "internalType": "uint256[]",
          "name": "_bassetMultiples",
          "type": "uint256[]"
        },
        {
          "internalType": "address",
          "name": "_feePool",
          "type": "address"
        },
        {
          "internalType": "address",
          "name": "_forgeValidator",
          "type": "address"
        }
      ],
      "payable": false,
      "stateMutability": "nonpayable",
      "type": "constructor"
    },
    {
      "anonymous": false,
      "inputs": [
        {
          "indexed": true,
          "internalType": "address",
          "name": "owner",
          "type": "address"
        },
        {
          "indexed": true,
          "internalType": "address",
          "name": "spender",
          "type": "address"
        },
        {
          "indexed": false,
          "internalType": "uint256",
          "name": "value",
          "type": "uint256"
        }
      ],
      "name": "Approval",
      "type": "event"
    },
    {
      "anonymous": false,
      "inputs": [
        {
          "indexed": true,
          "internalType": "address[]",
          "name": "bassets",
          "type": "address[]"
        },
        {
          "indexed": false,
          "internalType": "uint256[]",
          "name": "maxWeights",
          "type": "uint256[]"
        }
      ],
      "name": "BasketWeightsUpdated",
      "type": "event"
    },
    {
      "anonymous": false,
      "inputs": [
        {
          "indexed": true,
          "internalType": "address",
          "name": "basset",
          "type": "address"
        }
      ],
      "name": "BassetAdded",
      "type": "event"
    },
    {
      "anonymous": false,
      "inputs": [
        {
          "indexed": true,
          "internalType": "address",
          "name": "basset",
          "type": "address"
        }
      ],
      "name": "BassetRemoved",
      "type": "event"
    },
    {
      "anonymous": false,
      "inputs": [
        {
          "indexed": false,
          "internalType": "address",
          "name": "feePool",
          "type": "address"
        }
      ],
      "name": "FeeRecipientChanged",
      "type": "event"
    },
    {
      "anonymous": false,
      "inputs": [
        {
          "indexed": true,
          "internalType": "address",
          "name": "account",
          "type": "address"
        },
        {
          "indexed": false,
          "internalType": "uint256",
          "name": "massetQuantity",
          "type": "uint256"
        },
        {
          "indexed": false,
          "internalType": "uint256[]",
          "name": "bAssetQuantities",
          "type": "uint256[]"
        }
      ],
      "name": "Minted",
      "type": "event"
    },
    {
      "anonymous": false,
      "inputs": [
        {
          "indexed": true,
          "internalType": "address",
          "name": "account",
          "type": "address"
        },
        {
          "indexed": false,
          "internalType": "uint256",
          "name": "massetQuantity",
          "type": "uint256"
        },
        {
          "indexed": false,
          "internalType": "uint256",
          "name": "bAssetQuantity",
          "type": "uint256"
        }
      ],
      "name": "Minted",
      "type": "event"
    },
    {
      "anonymous": false,
      "inputs": [
        {
          "indexed": false,
          "internalType": "address",
          "name": "payer",
          "type": "address"
        },
        {
          "indexed": false,
          "internalType": "uint256",
          "name": "feeQuantity",
          "type": "uint256"
        },
        {
          "indexed": false,
          "internalType": "uint256",
          "name": "feeRate",
          "type": "uint256"
        }
      ],
      "name": "PaidFee",
      "type": "event"
    },
    {
      "anonymous": false,
      "inputs": [
        {
          "indexed": true,
          "internalType": "address",
          "name": "recipient",
          "type": "address"
        },
        {
          "indexed": false,
          "internalType": "address",
          "name": "redeemer",
          "type": "address"
        },
        {
          "indexed": false,
          "internalType": "uint256",
          "name": "massetQuantity",
          "type": "uint256"
        },
        {
          "indexed": false,
          "internalType": "uint256[]",
          "name": "bAssetQuantities",
          "type": "uint256[]"
        }
      ],
      "name": "Redeemed",
      "type": "event"
    },
    {
      "anonymous": false,
      "inputs": [
        {
          "indexed": true,
          "internalType": "address",
          "name": "recipient",
          "type": "address"
        },
        {
          "indexed": false,
          "internalType": "address",
          "name": "redeemer",
          "type": "address"
        },
        {
          "indexed": false,
          "internalType": "uint256",
          "name": "massetQuantity",
          "type": "uint256"
        },
        {
          "indexed": false,
          "internalType": "uint256",
          "name": "index",
          "type": "uint256"
        },
        {
          "indexed": false,
          "internalType": "uint256",
          "name": "bAssetQuantity",
          "type": "uint256"
        }
      ],
      "name": "RedeemedSingle",
      "type": "event"
    },
    {
      "anonymous": false,
      "inputs": [
        {
          "indexed": false,
          "internalType": "uint256",
          "name": "fee",
          "type": "uint256"
        }
      ],
      "name": "RedemptionFeeChanged",
      "type": "event"
    },
    {
      "anonymous": false,
      "inputs": [
        {
          "indexed": true,
          "internalType": "address",
          "name": "from",
          "type": "address"
        },
        {
          "indexed": true,
          "internalType": "address",
          "name": "to",
          "type": "address"
        },
        {
          "indexed": false,
          "internalType": "uint256",
          "name": "value",
          "type": "uint256"
        }
      ],
      "name": "Transfer",
      "type": "event"
    },
    {
      "constant": true,
      "inputs": [],
      "name": "Key_Governance",
      "outputs": [
        {
          "internalType": "bytes32",
          "name": "",
          "type": "bytes32"
        }
      ],
      "payable": false,
      "stateMutability": "view",
      "type": "function"
    },
    {
      "constant": true,
      "inputs": [],
      "name": "Key_Governor",
      "outputs": [
        {
          "internalType": "bytes32",
          "name": "",
          "type": "bytes32"
        }
      ],
      "payable": false,
      "stateMutability": "view",
      "type": "function"
    },
    {
      "constant": true,
      "inputs": [],
      "name": "Key_Manager",
      "outputs": [
        {
          "internalType": "bytes32",
          "name": "",
          "type": "bytes32"
        }
      ],
      "payable": false,
      "stateMutability": "view",
      "type": "function"
    },
    {
      "constant": true,
      "inputs": [],
      "name": "Key_Nexus",
      "outputs": [
        {
          "internalType": "bytes32",
          "name": "",
          "type": "bytes32"
        }
      ],
      "payable": false,
      "stateMutability": "view",
      "type": "function"
    },
    {
      "constant": true,
      "inputs": [],
      "name": "Key_OracleHub",
      "outputs": [
        {
          "internalType": "bytes32",
          "name": "",
          "type": "bytes32"
        }
      ],
      "payable": false,
      "stateMutability": "view",
      "type": "function"
    },
    {
      "constant": true,
      "inputs": [],
      "name": "Key_Recollateraliser",
      "outputs": [
        {
          "internalType": "bytes32",
          "name": "",
          "type": "bytes32"
        }
      ],
      "payable": false,
      "stateMutability": "view",
      "type": "function"
    },
    {
      "constant": true,
      "inputs": [],
      "name": "Key_Staking",
      "outputs": [
        {
          "internalType": "bytes32",
          "name": "",
          "type": "bytes32"
        }
      ],
      "payable": false,
      "stateMutability": "view",
      "type": "function"
    },
    {
      "constant": true,
      "inputs": [],
      "name": "Key_Systok",
      "outputs": [
        {
          "internalType": "bytes32",
          "name": "",
          "type": "bytes32"
        }
      ],
      "payable": false,
      "stateMutability": "view",
      "type": "function"
    },
    {
      "constant": false,
      "inputs": [
        {
          "internalType": "address",
          "name": "_basset",
          "type": "address"
        },
        {
          "internalType": "bytes32",
          "name": "_key",
          "type": "bytes32"
        },
        {
          "internalType": "uint256",
          "name": "_measurementMultiple",
          "type": "uint256"
        }
      ],
      "name": "addBasset",
      "outputs": [],
      "payable": false,
      "stateMutability": "nonpayable",
      "type": "function"
    },
    {
      "constant": false,
      "inputs": [
        {
          "internalType": "address",
          "name": "_basset",
          "type": "address"
        },
        {
          "internalType": "bytes32",
          "name": "_key",
          "type": "bytes32"
        }
      ],
      "name": "addBasset",
      "outputs": [],
      "payable": false,
      "stateMutability": "nonpayable",
      "type": "function"
    },
    {
      "constant": true,
      "inputs": [
        {
          "internalType": "address",
          "name": "owner",
          "type": "address"
        },
        {
          "internalType": "address",
          "name": "spender",
          "type": "address"
        }
      ],
      "name": "allowance",
      "outputs": [
        {
          "internalType": "uint256",
          "name": "",
          "type": "uint256"
        }
      ],
      "payable": false,
      "stateMutability": "view",
      "type": "function"
    },
    {
      "constant": false,
      "inputs": [
        {
          "internalType": "address",
          "name": "spender",
          "type": "address"
        },
        {
          "internalType": "uint256",
          "name": "value",
          "type": "uint256"
        }
      ],
      "name": "approve",
      "outputs": [
        {
          "internalType": "bool",
          "name": "",
          "type": "bool"
        }
      ],
      "payable": false,
      "stateMutability": "nonpayable",
      "type": "function"
    },
    {
      "constant": true,
      "inputs": [
        {
          "internalType": "address",
          "name": "account",
          "type": "address"
        }
      ],
      "name": "balanceOf",
      "outputs": [
        {
          "internalType": "uint256",
          "name": "",
          "type": "uint256"
        }
      ],
      "payable": false,
      "stateMutability": "view",
      "type": "function"
    },
    {
      "constant": true,
      "inputs": [],
      "name": "basket",
      "outputs": [
        {
          "internalType": "bool",
          "name": "failed",
          "type": "bool"
        },
        {
          "internalType": "uint256",
          "name": "collateralisationRatio",
          "type": "uint256"
        }
      ],
      "payable": false,
      "stateMutability": "view",
      "type": "function"
    },
    {
      "constant": false,
      "inputs": [
        {
          "internalType": "uint256",
          "name": "amount",
          "type": "uint256"
        }
      ],
      "name": "burn",
      "outputs": [],
      "payable": false,
      "stateMutability": "nonpayable",
      "type": "function"
    },
    {
      "constant": false,
      "inputs": [
        {
          "internalType": "address",
          "name": "account",
          "type": "address"
        },
        {
          "internalType": "uint256",
          "name": "amount",
          "type": "uint256"
        }
      ],
      "name": "burnFrom",
      "outputs": [],
      "payable": false,
      "stateMutability": "nonpayable",
      "type": "function"
    },
    {
      "constant": true,
      "inputs": [],
      "name": "decimals",
      "outputs": [
        {
          "internalType": "uint8",
          "name": "",
          "type": "uint8"
        }
      ],
      "payable": false,
      "stateMutability": "view",
      "type": "function"
    },
    {
      "constant": false,
      "inputs": [
        {
          "internalType": "address",
          "name": "spender",
          "type": "address"
        },
        {
          "internalType": "uint256",
          "name": "subtractedValue",
          "type": "uint256"
        }
      ],
      "name": "decreaseAllowance",
      "outputs": [
        {
          "internalType": "bool",
          "name": "",
          "type": "bool"
        }
      ],
      "payable": false,
      "stateMutability": "nonpayable",
      "type": "function"
    },
    {
      "constant": true,
      "inputs": [],
      "name": "feePool",
      "outputs": [
        {
          "internalType": "address",
          "name": "",
          "type": "address"
        }
      ],
      "payable": false,
      "stateMutability": "view",
      "type": "function"
    },
    {
      "constant": true,
      "inputs": [],
      "name": "forgeValidator",
      "outputs": [
        {
          "internalType": "contract IForgeValidator",
          "name": "",
          "type": "address"
        }
      ],
      "payable": false,
      "stateMutability": "view",
      "type": "function"
    },
    {
      "constant": true,
      "inputs": [],
      "name": "getAllBassetsAddress",
      "outputs": [
        {
          "internalType": "address[]",
          "name": "",
          "type": "address[]"
        }
      ],
      "payable": false,
      "stateMutability": "view",
      "type": "function"
    },
    {
      "constant": true,
      "inputs": [],
      "name": "getBasket",
      "outputs": [
        {
          "internalType": "address[]",
          "name": "expiredBassets",
          "type": "address[]"
        },
        {
          "internalType": "bool",
          "name": "failed",
          "type": "bool"
        },
        {
          "internalType": "uint256",
          "name": "collateralisationRatio",
          "type": "uint256"
        }
      ],
      "payable": false,
      "stateMutability": "view",
      "type": "function"
    },
    {
      "constant": true,
      "inputs": [
        {
          "internalType": "address",
          "name": "_basset",
          "type": "address"
        }
      ],
      "name": "getBasset",
      "outputs": [
        {
          "internalType": "address",
          "name": "addr",
          "type": "address"
        },
        {
          "internalType": "bytes32",
          "name": "key",
          "type": "bytes32"
        },
        {
          "internalType": "uint256",
          "name": "ratio",
          "type": "uint256"
        },
        {
          "internalType": "uint256",
          "name": "maxWeight",
          "type": "uint256"
        },
        {
          "internalType": "uint256",
          "name": "vaultBalance",
          "type": "uint256"
        },
        {
          "internalType": "enum MassetStructs.BassetStatus",
          "name": "status",
          "type": "uint8"
        }
      ],
      "payable": false,
      "stateMutability": "view",
      "type": "function"
    },
    {
      "constant": true,
      "inputs": [],
      "name": "getBassets",
      "outputs": [
        {
          "internalType": "address[]",
          "name": "addresses",
          "type": "address[]"
        },
        {
          "internalType": "bytes32[]",
          "name": "keys",
          "type": "bytes32[]"
        },
        {
          "internalType": "uint256[]",
          "name": "ratios",
          "type": "uint256[]"
        },
        {
          "internalType": "uint256[]",
          "name": "targets",
          "type": "uint256[]"
        },
        {
          "internalType": "uint256[]",
          "name": "vaults",
          "type": "uint256[]"
        },
        {
          "internalType": "enum MassetStructs.BassetStatus[]",
          "name": "statuses",
          "type": "uint8[]"
        }
      ],
      "payable": false,
      "stateMutability": "view",
      "type": "function"
    },
    {
      "constant": false,
      "inputs": [
        {
          "internalType": "address",
          "name": "_basset",
          "type": "address"
        },
        {
          "internalType": "bool",
          "name": "_belowPeg",
          "type": "bool"
        }
      ],
      "name": "handlePegLoss",
      "outputs": [
        {
          "internalType": "bool",
          "name": "alreadyActioned",
          "type": "bool"
        }
      ],
      "payable": false,
      "stateMutability": "nonpayable",
      "type": "function"
    },
    {
      "constant": false,
      "inputs": [
        {
          "internalType": "address",
          "name": "spender",
          "type": "address"
        },
        {
          "internalType": "uint256",
          "name": "addedValue",
          "type": "uint256"
        }
      ],
      "name": "increaseAllowance",
      "outputs": [
        {
          "internalType": "bool",
          "name": "",
          "type": "bool"
        }
      ],
      "payable": false,
      "stateMutability": "nonpayable",
      "type": "function"
    },
    {
      "constant": false,
      "inputs": [
        {
          "internalType": "address",
          "name": "_basset",
          "type": "address"
        },
        {
          "internalType": "address",
          "name": "_recollateraliser",
          "type": "address"
        }
      ],
      "name": "initiateRecol",
      "outputs": [],
      "payable": false,
      "stateMutability": "nonpayable",
      "type": "function"
    },
    {
      "constant": false,
      "inputs": [],
      "name": "lockForgeValidator",
      "outputs": [],
      "payable": false,
      "stateMutability": "nonpayable",
      "type": "function"
    },
    {
      "constant": true,
      "inputs": [],
      "name": "measurementMultipleEnabled",
      "outputs": [
        {
          "internalType": "bool",
          "name": "",
          "type": "bool"
        }
      ],
      "payable": false,
      "stateMutability": "view",
      "type": "function"
    },
    {
      "constant": true,
      "inputs": [],
      "name": "name",
      "outputs": [
        {
          "internalType": "string",
          "name": "",
          "type": "string"
        }
      ],
      "payable": false,
      "stateMutability": "view",
      "type": "function"
    },
    {
      "constant": false,
      "inputs": [
        {
          "internalType": "address",
          "name": "_basset",
          "type": "address"
        }
      ],
      "name": "negatePegLoss",
      "outputs": [],
      "payable": false,
      "stateMutability": "nonpayable",
      "type": "function"
    },
    {
      "constant": true,
      "inputs": [],
      "name": "nexus",
      "outputs": [
        {
          "internalType": "contract INexus",
          "name": "",
          "type": "address"
        }
      ],
      "payable": false,
      "stateMutability": "view",
      "type": "function"
    },
    {
      "constant": true,
      "inputs": [],
      "name": "redemptionFee",
      "outputs": [
        {
          "internalType": "uint256",
          "name": "",
          "type": "uint256"
        }
      ],
      "payable": false,
      "stateMutability": "view",
      "type": "function"
    },
    {
      "constant": false,
      "inputs": [
        {
          "internalType": "address",
          "name": "_assetToRemove",
          "type": "address"
        }
      ],
      "name": "removeBasset",
      "outputs": [
        {
          "internalType": "bool",
          "name": "removed",
          "type": "bool"
        }
      ],
      "payable": false,
      "stateMutability": "nonpayable",
      "type": "function"
    },
    {
      "constant": false,
      "inputs": [
        {
          "internalType": "address[]",
          "name": "_bassets",
          "type": "address[]"
        },
        {
          "internalType": "uint256[]",
          "name": "_weights",
          "type": "uint256[]"
        }
      ],
      "name": "setBasketWeights",
      "outputs": [],
      "payable": false,
      "stateMutability": "nonpayable",
      "type": "function"
    },
    {
      "constant": false,
      "inputs": [
        {
          "internalType": "address",
          "name": "_feePool",
          "type": "address"
        }
      ],
      "name": "setFeePool",
      "outputs": [],
      "payable": false,
      "stateMutability": "nonpayable",
      "type": "function"
    },
    {
      "constant": false,
      "inputs": [
        {
          "internalType": "uint256",
          "name": "_redemptionFee",
          "type": "uint256"
        }
      ],
      "name": "setRedemptionFee",
      "outputs": [],
      "payable": false,
      "stateMutability": "nonpayable",
      "type": "function"
    },
    {
      "constant": true,
      "inputs": [],
      "name": "symbol",
      "outputs": [
        {
          "internalType": "string",
          "name": "",
          "type": "string"
        }
      ],
      "payable": false,
      "stateMutability": "view",
      "type": "function"
    },
    {
      "constant": true,
      "inputs": [],
      "name": "totalSupply",
      "outputs": [
        {
          "internalType": "uint256",
          "name": "",
          "type": "uint256"
        }
      ],
      "payable": false,
      "stateMutability": "view",
      "type": "function"
    },
    {
      "constant": false,
      "inputs": [
        {
          "internalType": "address",
          "name": "recipient",
          "type": "address"
        },
        {
          "internalType": "uint256",
          "name": "amount",
          "type": "uint256"
        }
      ],
      "name": "transfer",
      "outputs": [
        {
          "internalType": "bool",
          "name": "",
          "type": "bool"
        }
      ],
      "payable": false,
      "stateMutability": "nonpayable",
      "type": "function"
    },
    {
      "constant": false,
      "inputs": [
        {
          "internalType": "address",
          "name": "sender",
          "type": "address"
        },
        {
          "internalType": "address",
          "name": "recipient",
          "type": "address"
        },
        {
          "internalType": "uint256",
          "name": "amount",
          "type": "uint256"
        }
      ],
      "name": "transferFrom",
      "outputs": [
        {
          "internalType": "bool",
          "name": "",
          "type": "bool"
        }
      ],
      "payable": false,
      "stateMutability": "nonpayable",
      "type": "function"
    },
    {
      "constant": false,
      "inputs": [
        {
          "internalType": "address",
          "name": "_newForgeValidator",
          "type": "address"
        }
      ],
      "name": "upgradeForgeValidator",
      "outputs": [],
      "payable": false,
      "stateMutability": "nonpayable",
      "type": "function"
    },
    {
      "constant": false,
      "inputs": [
        {
          "internalType": "address",
          "name": "_basset",
          "type": "address"
        },
        {
          "internalType": "uint256",
          "name": "_bassetQuantity",
          "type": "uint256"
        }
      ],
      "name": "mintSingle",
      "outputs": [
        {
          "internalType": "uint256",
          "name": "massetMinted",
          "type": "uint256"
        }
      ],
      "payable": false,
      "stateMutability": "nonpayable",
      "type": "function"
    },
    {
      "constant": false,
      "inputs": [
        {
          "internalType": "address",
          "name": "_basset",
          "type": "address"
        },
        {
          "internalType": "uint256",
          "name": "_bassetQuantity",
          "type": "uint256"
        },
        {
          "internalType": "address",
          "name": "_recipient",
          "type": "address"
        }
      ],
      "name": "mintSingleTo",
      "outputs": [
        {
          "internalType": "uint256",
          "name": "massetMinted",
          "type": "uint256"
        }
      ],
      "payable": false,
      "stateMutability": "nonpayable",
      "type": "function"
    },
    {
      "constant": false,
      "inputs": [
        {
          "internalType": "uint32",
          "name": "_bassetsBitmap",
          "type": "uint32"
        },
        {
          "internalType": "uint256[]",
          "name": "_bassetQuantity",
          "type": "uint256[]"
        },
        {
          "internalType": "address",
          "name": "_recipient",
          "type": "address"
        }
      ],
      "name": "mintBitmapTo",
      "outputs": [
        {
          "internalType": "uint256",
          "name": "massetMinted",
          "type": "uint256"
        }
      ],
      "payable": false,
      "stateMutability": "nonpayable",
      "type": "function"
    },
    {
      "constant": false,
      "inputs": [
        {
          "internalType": "address",
          "name": "_basset",
          "type": "address"
        },
        {
          "internalType": "uint256",
          "name": "_bassetQuantity",
          "type": "uint256"
        }
      ],
      "name": "redeemSingle",
      "outputs": [
        {
          "internalType": "uint256",
          "name": "massetRedeemed",
          "type": "uint256"
        }
      ],
      "payable": false,
      "stateMutability": "nonpayable",
      "type": "function"
    },
    {
      "constant": false,
      "inputs": [
        {
          "internalType": "address",
          "name": "_basset",
          "type": "address"
        },
        {
          "internalType": "uint256",
          "name": "_bassetQuantity",
          "type": "uint256"
        },
        {
          "internalType": "address",
          "name": "_recipient",
          "type": "address"
        }
      ],
      "name": "redeemSingleTo",
      "outputs": [
        {
          "internalType": "uint256",
          "name": "massetRedeemed",
          "type": "uint256"
        }
      ],
      "payable": false,
      "stateMutability": "nonpayable",
      "type": "function"
    },
    {
      "constant": false,
      "inputs": [
        {
          "internalType": "uint32",
          "name": "_bassetsBitmap",
          "type": "uint32"
        },
        {
          "internalType": "uint256[]",
          "name": "_bassetQuantities",
          "type": "uint256[]"
        },
        {
          "internalType": "address",
          "name": "_recipient",
          "type": "address"
        }
      ],
      "name": "redeemBitmapTo",
      "outputs": [
        {
          "internalType": "uint256",
          "name": "massetRedeemed",
          "type": "uint256"
        }
      ],
      "payable": false,
      "stateMutability": "nonpayable",
      "type": "function"
    },
    {
      "constant": true,
      "inputs": [],
      "name": "getBitmapForAllBassets",
      "outputs": [
        {
          "internalType": "uint32",
          "name": "bitmap",
          "type": "uint32"
        }
      ],
      "payable": false,
      "stateMutability": "view",
      "type": "function"
    },
    {
      "constant": true,
      "inputs": [
        {
          "internalType": "address[]",
          "name": "_bassets",
          "type": "address[]"
        }
      ],
      "name": "getBitmapFor",
      "outputs": [
        {
          "internalType": "uint32",
          "name": "bitmap",
          "type": "uint32"
        }
      ],
      "payable": false,
      "stateMutability": "view",
      "type": "function"
    },
    {
      "constant": true,
      "inputs": [
        {
          "internalType": "uint32",
          "name": "_bitmap",
          "type": "uint32"
        },
        {
          "internalType": "uint8",
          "name": "_size",
          "type": "uint8"
        }
      ],
      "name": "convertBitmapToBassetsAddress",
      "outputs": [
        {
          "internalType": "address[]",
          "name": "",
          "type": "address[]"
        }
      ],
      "payable": false,
      "stateMutability": "view",
      "type": "function"
    },
    {
      "constant": true,
      "inputs": [
        {
          "internalType": "uint32",
          "name": "_bitmap",
          "type": "uint32"
        },
        {
          "internalType": "uint8",
          "name": "_size",
          "type": "uint8"
        }
      ],
      "name": "convertBitmapToBassets",
      "outputs": [
        {
          "components": [
            {
              "internalType": "address",
              "name": "addr",
              "type": "address"
            },
            {
              "internalType": "bytes32",
              "name": "key",
              "type": "bytes32"
            },
            {
              "internalType": "uint256",
              "name": "ratio",
              "type": "uint256"
            },
            {
              "internalType": "uint256",
              "name": "maxWeight",
              "type": "uint256"
            },
            {
              "internalType": "uint256",
              "name": "vaultBalance",
              "type": "uint256"
            },
            {
              "internalType": "enum MassetStructs.BassetStatus",
              "name": "status",
              "type": "uint8"
            }
          ],
          "internalType": "struct MassetStructs.Basset[]",
          "name": "",
          "type": "tuple[]"
        },
        {
          "internalType": "uint8[]",
          "name": "",
          "type": "uint8[]"
        }
      ],
      "payable": false,
      "stateMutability": "view",
      "type": "function"
    },
    {
      "constant": false,
      "inputs": [
        {
          "internalType": "address",
          "name": "_basset",
          "type": "address"
        },
        {
          "internalType": "uint256",
          "name": "_unitsUnderCollateralised",
          "type": "uint256"
        }
      ],
      "name": "completeRecol",
      "outputs": [],
      "payable": false,
      "stateMutability": "nonpayable",
      "type": "function"
    }
  ],
  "bytecode": "0x60806040526007805460ff60a01b191690553480156200001e57600080fd5b5060405162006c5b38038062006c5b833981016040819052620000419162000c64565b868686868684808f8f6012828282826000908051906020019062000067929190620009ca565b5081516200007d906001906020850190620009ca565b506002805460ff191660ff929092169190911790555050600680546001600160a01b0319166001600160a01b0395909516949094179093555050855115159150620000e790505760405162461bcd60e51b8152600401620000de9062001381565b60405180910390fd5b8051600f805460ff1916911515919091179055670de0b6b3a7640000600e5566470de4df82000060095560005b8451811015620001a3576200019a8582815181106200012f57fe5b60200260200101518583815181106200014457fe5b6020908102919091010151600f5460ff1662000175576200016f620001fc60201b6200357a1760201c565b6200018b565b8484815181106200018257fe5b60200260200101515b6001600160e01b036200020516565b60010162000114565b50620001b984836001600160e01b036200047816565b5050600880546001600160a01b039687166001600160a01b0319918216179091556007805495909616941693909317909355506200153898505050505050505050565b6305f5e1005b90565b6001600160a01b0383166200022e5760405162461bcd60e51b8152600401620000de90620013ff565b600062000244846001600160e01b03620006ef16565b5090508015620002685760405162461bcd60e51b8152600401620000de9062001411565b600062000280856200076f60201b620039161760201c565b905060006200029f8260126200083760201b62002dc41790919060201c565b90506000620002c082600a0a866200086260201b620038a91790919060201c565b600a80546001600160a01b038a81166000818152600b60209081526040808320869055805160c0810182529384529083018d8152908301878152606084018381526080850184815260a086018581526001808a01808c559a90965286517fc65a7bb8d6351c1cf70c95a316cc6a92839c986682d98bc35f958f4883f9d2a86006909a02998a0180546001600160a01b0319169190991617885593517fc65a7bb8d6351c1cf70c95a316cc6a92839c986682d98bc35f958f4883f9d2a989015591517fc65a7bb8d6351c1cf70c95a316cc6a92839c986682d98bc35f958f4883f9d2aa880155517fc65a7bb8d6351c1cf70c95a316cc6a92839c986682d98bc35f958f4883f9d2ab870155517fc65a7bb8d6351c1cf70c95a316cc6a92839c986682d98bc35f958f4883f9d2ac860155517fc65a7bb8d6351c1cf70c95a316cc6a92839c986682d98bc35f958f4883f9d2ad9094018054969750949591949293929160ff1916908360058111156200043357fe5b0217905550506040516001600160a01b038a1692507fa83f9302fa4684335dd26b1bdd925929618565fa0f22bd9e91ab01753d8bf13c9150600090a250505050505050565b8151815181146200049d5760405162461bcd60e51b8152600401620000de906200134b565b600a548114620004c15760405162461bcd60e51b8152600401620000de90620013a5565b6000620004d983620008a960201b620038401760201c565b9050620004f0620008f860201b620038841760201c565b811015620005125760405162461bcd60e51b8152600401620000de90620013db565b60005b82811015620006975760008582815181106200052d57fe5b60200260200101519050600a60000182815481106200054857fe5b60009182526020909120600690910201546001600160a01b03828116911614620005865760405162461bcd60e51b8152600401620000de90620013ed565b60008583815181106200059557fe5b6020026020010151905060006005811115620005ad57fe5b600a805485908110620005bc57fe5b60009182526020909120600560069092020181015460ff1690811115620005df57fe5b14156200064a57620005fb620008f860201b620038841760201c565b8111156200061d5760405162461bcd60e51b8152600401620000de9062001339565b80600a60000184815481106200062f57fe5b9060005260206000209060060201600301819055506200068c565b600a8054849081106200065957fe5b90600052602060002090600602016003015481146200068c5760405162461bcd60e51b8152600401620000de90620013c9565b505060010162000515565b5083604051620006a891906200130a565b60405180910390207fbe2adf2902216365c5c656d48909da65fad401f809e4351cdbcfcac40674566984604051620006e1919062001326565b60405180910390a250505050565b6001600160a01b0381166000908152600b6020526040812054806200076557600a5462000722575060009050806200076a565b826001600160a01b0316600a6000016000815481106200073e57fe5b600091825260208220600690910201546001600160a01b031691909114925090506200076a565b600191505b915091565b60408051600481526024810182526020810180516001600160e01b031663313ce56760e01b179052905160009182916001600160a01b03851691620007b49162001318565b6000604051808303816000865af19150503d8060008114620007f3576040519150601f19603f3d011682016040523d82523d6000602084013e620007f8565b606091505b50509050806200081c5760405162461bcd60e51b8152600401620000de906200136f565b62000830836001600160e01b036200090416565b9392505050565b6000828211156200085c5760405162461bcd60e51b8152600401620000de9062001423565b50900390565b6000826200087357506000620008a3565b50818102818382816200088257fe5b0414620008a35760405162461bcd60e51b8152600401620000de906200135d565b92915050565b80516000908190815b81811015620008ef576000620008e384878481518110620008cf57fe5b6020026020010151620009a460201b60201c565b935050600101620008b2565b50909392505050565b670de0b6b3a764000090565b600080826001600160a01b031663313ce5676040518163ffffffff1660e01b815260040160206040518083038186803b1580156200094157600080fd5b505afa15801562000956573d6000803e3d6000fd5b505050506040513d601f19601f820116820180604052506200097c919081019062000dca565b60ff16905060008111620008a35760405162461bcd60e51b8152600401620000de90620013b7565b80820182811015620008a35760405162461bcd60e51b8152600401620000de9062001393565b828054600181600116156101000203166002900490600052602060002090601f016020900481019282601f1062000a0d57805160ff191683800117855562000a3d565b8280016001018555821562000a3d579182015b8281111562000a3d57825182559160200191906001019062000a20565b5062000a4b92915062000a4f565b5090565b6200020291905b8082111562000a4b576000815560010162000a56565b8051620008a38162001508565b600082601f83011262000a8b57600080fd5b815162000aa262000a9c826200145c565b62001435565b9150818183526020840193506020810190508385602084028201111562000ac857600080fd5b60005b8381101562000af8578162000ae1888262000a6c565b845250602092830192919091019060010162000acb565b5050505092915050565b600082601f83011262000b1457600080fd5b815162000b2562000a9c826200145c565b9150818183526020840193506020810190508385602084028201111562000b4b57600080fd5b60005b8381101562000af8578162000b64888262000bf4565b845250602092830192919091019060010162000b4e565b600082601f83011262000b8d57600080fd5b815162000b9e62000a9c826200145c565b9150818183526020840193506020810190508385602084028201111562000bc457600080fd5b60005b8381101562000af8578162000bdd888262000bf4565b845250602092830192919091019060010162000bc7565b8051620008a38162001522565b600082601f83011262000c1357600080fd5b815162000c2462000a9c826200147d565b9150808252602083016020830185838301111562000c4157600080fd5b62000c4e838284620014d5565b50505092915050565b8051620008a3816200152d565b60008060008060008060008060006101208a8c03121562000c8457600080fd5b89516001600160401b0381111562000c9b57600080fd5b62000ca98c828d0162000c01565b99505060208a01516001600160401b0381111562000cc657600080fd5b62000cd48c828d0162000c01565b985050604062000ce78c828d0162000a6c565b97505060608a01516001600160401b0381111562000d0457600080fd5b62000d128c828d0162000a79565b96505060808a01516001600160401b0381111562000d2f57600080fd5b62000d3d8c828d0162000b02565b95505060a08a01516001600160401b0381111562000d5a57600080fd5b62000d688c828d0162000b7b565b94505060c08a01516001600160401b0381111562000d8557600080fd5b62000d938c828d0162000b7b565b93505060e062000da68c828d0162000a6c565b92505061010062000dba8c828d0162000a6c565b9150509295985092959850929598565b60006020828403121562000ddd57600080fd5b600062000deb848462000c57565b949350505050565b600062000e01838362000e17565b505060200190565b600062000e018383620012ff565b62000e2281620014bd565b82525050565b600062000e3582620014ab565b62000e418185620014af565b935062000e4e83620014a5565b8060005b8381101562000e8257815162000e69888262000df3565b975062000e7683620014a5565b92505060010162000e52565b509495945050505050565b600062000e9a82620014ab565b62000ea68185620014b4565b935062000eb383620014a5565b8060005b8381101562000e8257815162000ece888262000e09565b975062000edb83620014a5565b92505060010162000eb7565b600062000ef482620014ab565b62000f008185620014af565b935062000f12818560208601620014d5565b9290920192915050565b600062000f2b602c83620014b4565b7f417373657420776569676874206d757374206265206c657373207468616e206f81526b7220657175616c20746f203160a01b602082015260400192915050565b600062000f7b602383620014b4565b7f4d757374206265206d61746368696e672062617373657420646174612061727281526261797360e81b602082015260400192915050565b600062000fc2602383620014b4565b7f537461626c654d6174683a206d756c7469706c69636174696f6e206f766572668152626c6f7760e81b602082015260400192915050565b600062001009602483620014b4565b7f546f6b656e20636f6e7472616374206d75737420737570706f727420646563698152636d616c7360e01b602082015260400192915050565b600062001051602c83620014b4565b7f4d75737420696e697469616c69736520746865206261736b657420776974682081526b736f6d65206241737365747360a01b602082015260400192915050565b6000620010a1601183620014b4565b704d757374206e6f74206f766572666c6f7760781b815260200192915050565b6000620010d0602783620014b4565b7f4d757374206265206d61746368696e67206578697374696e67206261736b6574815266081b185e5bdd5d60ca1b602082015260400192915050565b60006200111b602983620014b4565b7f546f6b656e206d75737420686176652031206f72206d6f726520646563696d618152683610383630b1b2b99760b91b602082015260400192915050565b600062001168602e83620014b4565b7f43616e6e6f74206368616e676520776569676874696e677320666f722073756681526d666572696e67204261737365747360901b602082015260400192915050565b6000620011ba602483620014b4565b7f4261736b657420776569676874206d75737420746f74616c203e2031303025208152633d3d203160e01b602082015260400192915050565b600062001202602883620014b4565b7f426173736574206d75737420626520726570726573656e7465642073796d6d6581526774726963616c6c7960c01b602082015260400192915050565b60006200124e601c83620014b4565b7f41737365742061646472657373206d7573742062652076616c69642e00000000815260200192915050565b600062001289602683620014b4565b7f41737365742063616e6e6f7420616c726561647920626520696e20746865206281526530b9b5b2ba1760d11b602082015260400192915050565b6000620012d3602083620014b4565b7f537461626c654d6174683a207375627472616374696f6e206f766572666c6f77815260200192915050565b62000e228162000202565b600062000830828462000e28565b600062000830828462000ee7565b6020808252810162000830818462000e8d565b60208082528101620008a38162000f1c565b60208082528101620008a38162000f6c565b60208082528101620008a38162000fb3565b60208082528101620008a38162000ffa565b60208082528101620008a38162001042565b60208082528101620008a38162001092565b60208082528101620008a381620010c1565b60208082528101620008a3816200110c565b60208082528101620008a38162001159565b60208082528101620008a381620011ab565b60208082528101620008a381620011f3565b60208082528101620008a3816200123f565b60208082528101620008a3816200127a565b60208082528101620008a381620012c4565b6040518181016001600160401b03811182821017156200145457600080fd5b604052919050565b60006001600160401b038211156200147357600080fd5b5060209081020190565b60006001600160401b038211156200149457600080fd5b506020601f91909101601f19160190565b60200190565b5190565b919050565b90815260200190565b60006001600160a01b038216620008a3565b60ff1690565b60005b83811015620014f2578181015183820152602001620014d8565b8381111562001502576000848401525b50505050565b6200151381620014bd565b81146200151f57600080fd5b50565b620015138162000202565b6200151381620014cf565b61571380620015486000396000f3fe608060405234801561001057600080fd5b50600436106103275760003560e01c8063677a8185116101b8578063a9059cbb11610104578063d7d52266116100a2578063edc832b31161007c578063edc832b31461068e578063f3bdedd2146106a4578063f9423e11146106ac578063fefd2c1c146106cd57610327565b8063d7d522661461066b578063dd62ed3e14610673578063e55178411461068657610327565b8063ae2efd91116100de578063ae2efd9114610631578063b97e0ac614610639578063cd6ef2b014610641578063d0305f1e1461065857610327565b8063a9059cbb146105f6578063a962527a14610609578063ae2e933b1461061c57610327565b80638904b5561161017157806396c1139f1161014b57806396c1139f146105b3578063a3f5c1d2146105c6578063a457c2d7146105db578063a78ed11c146105ee57610327565b80638904b55614610585578063905e89141461059857806395d89b41146105ab57610327565b8063677a81851461051e57806370a082311461053157806379cc6790146105445780637b4aec79146105575780637dbc1df01461055f5780638452e6641461057257610327565b80632e77c0c2116102775780634c257a231161023057806350cf430c1161020a57806350cf430c146104e657806351492f6b146104fb5780635d864ced1461050e5780635eae58b91461051657610327565b80634c257a23146104b85780634d8b06a7146104cb5780634fa16790146104de57610327565b80632e77c0c214610448578063313ce5671461045057806339509351146104655780633e37bcbc1461047857806342966c681461049d578063458f5815146104b057610327565b8063133c960c116102e457806319db2228116102be57806319db2228146103f55780631d3ce3981461040857806323b872dd1461042257806326bbe60a1461043557610327565b8063133c960c146103ba57806318160ddd146103da578063194f0d34146103e257610327565b806306fdde031461032c578063095ea7b31461034a57806309be58f81461036a57806309f2a9831461038a5780630aa8d59a1461039d5780630b2d8501146103a5575b600080fd5b6103346106e0565b60405161034191906151fd565b60405180910390f35b61035d610358366004613c86565b610776565b60405161034191906151c5565b61037d610378366004613c86565b61078d565b60405161034191906151e1565b61035d610398366004613b93565b6107a1565b61037d61081a565b6103b86103b3366004613d6d565b610828565b005b6103cd6103c8366004613d2b565b6108f6565b6040516103419190615579565b61037d610962565b61037d6103f0366004613c86565b610968565b6103b8610403366004613b93565b610975565b610410610a3a565b60405161034196959493929190615053565b61035d610430366004613c09565b610c27565b6103b8610443366004613b93565b610c7e565b6103cd610d39565b610458610d68565b6040516103419190615587565b61035d610473366004613c86565b610d71565b61048b610486366004613b93565b610dad565b60405161034196959493929190614fb2565b6103b86104ab366004613dfb565b610e02565b61037d610e0f565b61037d6104c6366004613ce8565b610e15565b61037d6104d9366004613e67565b610e2a565b61037d610e74565b6104ee610e83565b6040516103419190615042565b61037d610509366004613ce8565b610f23565b6103b8610f30565b61037d610f8e565b6103b861052c366004613c86565b610f9b565b61037d61053f366004613b93565b6111fc565b6103b8610552366004613c86565b611217565b61037d611225565b6103b861056d366004613dfb565b611233565b6104ee610580366004613ed1565b6112d9565b6103b8610593366004613b93565b6113a9565b61035d6105a6366004613c56565b6114c9565b610334611627565b6103b86105c1366004613cb6565b611687565b6105ce61170f565b60405161034191906151ef565b61035d6105e9366004613c86565b61171e565b61035d61175a565b61035d610604366004613c86565b611763565b6103b8610617366004613c86565b611770565b610624611800565b6040516103419190614f01565b61037d61180f565b61037d611826565b610649611836565b604051610341939291906150d4565b61037d610666366004613e67565b6118b2565b6105ce611bd4565b61037d610681366004613bcf565b611be3565b61037d611c0e565b610696611c1a565b6040516103419291906151d3565b61037d611c29565b6106bf6106ba366004613ed1565b611c3a565b6040516103419291906150f4565b6103b86106db366004613bcf565b611d73565b60008054604080516020601f600260001961010060018816150201909516949094049384018190048102820181019092528281526060939092909183018282801561076c5780601f106107415761010080835404028352916020019161076c565b820191906000526020600020905b81548152906001019060200180831161074f57829003601f168201915b5050505050905090565b6000610783338484611f63565b5060015b92915050565b600061079a838333612017565b9392505050565b600d5460009060ff16156107d05760405162461bcd60e51b81526004016107c79061547e565b60405180910390fd5b6107d86122f9565b6001600160a01b0316336001600160a01b0316146108085760405162461bcd60e51b81526004016107c7906152be565b6108118261238a565b5060015b919050565b665374616b696e6760c81b81565b6108306122f9565b6001600160a01b0316336001600160a01b0316146108605760405162461bcd60e51b81526004016107c7906152be565b600d5460ff16156108835760405162461bcd60e51b81526004016107c79061547e565b6108f08484808060200260200160405190810160405280939291908181526020018383602002808284376000920191909152505060408051602080880282810182019093528782529093508792508691829185019084908082843760009201919091525061263892505050565b50505050565b6000805b63ffffffff811683111561095b5760008061093a86868563ffffffff1681811061092057fe5b90506020020160206109359190810190613b93565b612866565b9150915081156109515760ff811660020a93909317925b50506001016108fa565b5092915050565b60055490565b600061079a8383336128e1565b3361097e612bbf565b6001600160a01b031614806109a25750336109976122f9565b6001600160a01b0316145b6109be5760405162461bcd60e51b81526004016107c79061542e565b6001600160a01b0381166109e45760405162461bcd60e51b81526004016107c79061543e565b600880546001600160a01b0319166001600160a01b0383161790556040517f167cccccc6e9b2892a740ec13fc1e51d3de8ea384f25bd87fee7412d588637e290610a2f908390614f01565b60405180910390a150565b600a5460408051828152602080840282010190915260609182918291829182918291818015610a73578160200160208202803883390190505b50965080604051908082528060200260200182016040528015610aa0578160200160208202803883390190505b50955080604051908082528060200260200182016040528015610acd578160200160208202803883390190505b50945080604051908082528060200260200182016040528015610afa578160200160208202803883390190505b50935080604051908082528060200260200182016040528015610b27578160200160208202803883390190505b50925080604051908082528060200260200182016040528015610b54578160200160208202803883390190505b50915060005b81811015610c1d57610b6b81612bfa565b8d8781518110610b7757fe5b602002602001018d8881518110610b8a57fe5b602002602001018d8981518110610b9d57fe5b602002602001018d8a81518110610bb057fe5b602002602001018d8b81518110610bc357fe5b602002602001018d8c81518110610bd657fe5b60200260200101866005811115610be957fe5b6005811115610bf457fe5b9052959095529490935293909252929092526001600160a01b0390921690915250600101610b5a565b5050909192939495565b6000610c34848484612cc8565b6001600160a01b038416600090815260046020908152604080832033808552925290912054610c74918691610c6f908663ffffffff612dc416565b611f63565b5060019392505050565b33610c87612bbf565b6001600160a01b03161480610cab575033610ca06122f9565b6001600160a01b0316145b610cc75760405162461bcd60e51b81526004016107c79061542e565b600754600160a01b900460ff1615610cf15760405162461bcd60e51b81526004016107c7906152fe565b6001600160a01b038116610d175760405162461bcd60e51b81526004016107c7906152de565b600780546001600160a01b0319166001600160a01b0392909216919091179055565b6000805b600a5463ffffffff82161015610d645763ffffffff811660020a9190911790600101610d3d565b5090565b60025460ff1690565b3360008181526004602090815260408083206001600160a01b03871684529091528120549091610783918590610c6f908663ffffffff612dec16565b600080600080600080600080610dc289612866565b9150915081610de35760405162461bcd60e51b81526004016107c79061546e565b610dec81612bfa565b949e939d50919b50995097509095509350505050565b610e0c3382612e0f565b50565b60095481565b6000610e228484846128e1565b949350505050565b6000610e6b85858580806020026020016040519081016040528093929190818152602001838360200280828437600092019190915250879250612ecc915050565b95945050505050565b6723b7bb32b93737b960c11b81565b600a54604080518281526020808402820101909152606091908290828015610eb5578160200160208202803883390190505b50905060005b82811015610f1c57600a805482908110610ed157fe5b600091825260209091206006909102015482516001600160a01b0390911690839083908110610efc57fe5b6001600160a01b0390921660209283029190910190910152600101610ebb565b5091505090565b6000610e22848484612017565b33610f39612bbf565b6001600160a01b03161480610f5d575033610f526122f9565b6001600160a01b0316145b610f795760405162461bcd60e51b81526004016107c79061542e565b6007805460ff60a01b1916600160a01b179055565b65537973746f6b60d01b81565b610fa3612bbf565b6001600160a01b0316336001600160a01b031614610fd35760405162461bcd60e51b81526004016107c7906154ae565b600080610fdf84612866565b91509150816110005760405162461bcd60e51b81526004016107c79061538e565b600061100b82612bfa565b95506003945061101b9350505050565b81600581111561102757fe5b146110445760405162461bcd60e51b81526004016107c7906152ae565b6000600a600001838154811061105657fe5b9060005260206000209060060201600301819055506000600a600001838154811061107d57fe5b600091825260209091206004600690920201015583156111a9576000306001600160a01b03166318160ddd6040518163ffffffff1660e01b815260040160206040518083038186803b1580156110d257600080fd5b505afa1580156110e6573d6000803e3d6000fd5b505050506040513d601f19601f8201168201806040525061110a9190810190613e19565b600e5490915060009061112490839063ffffffff6131a816565b90506111468261113a838963ffffffff612dc416565b9063ffffffff6131bd16565b600e55600a8054600591908690811061115b57fe5b906000526020600020906006020160050160006101000a81548160ff0219169083600581111561118757fe5b0217905550600d805460ff191660011790556111a28761238a565b50506111f5565b6004600a60000183815481106111bb57fe5b906000526020600020906006020160050160006101000a81548160ff021916908360058111156111e757fe5b02179055506111f58561238a565b5050505050565b6001600160a01b031660009081526003602052604090205490565b61122182826131de565b5050565b6626b0b730b3b2b960c91b81565b3361123c612bbf565b6001600160a01b031614806112605750336112556122f9565b6001600160a01b0316145b61127c5760405162461bcd60e51b81526004016107c79061542e565b6702c68af0bb1400008111156112a45760405162461bcd60e51b81526004016107c79061523e565b60098190556040517f4dbf9634a3aaf3bc15ab627faeaac7c6b0a4754ead77206f1c11277356f2878f90610a2f9083906151e1565b6060806112e68484613223565b905060608360ff16604051908082528060200260200182016040528015611317578160200160208202803883390190505b50905060005b82518160ff1610156113a057600a600001838260ff168151811061133d57fe5b602002602001015160ff168154811061135257fe5b600091825260209091206006909102015482516001600160a01b0390911690839060ff841690811061138057fe5b6001600160a01b039092166020928302919091019091015260010161131d565b50949350505050565b6113b1612bbf565b6001600160a01b0316336001600160a01b0316146113e15760405162461bcd60e51b81526004016107c7906154ae565b6000806113ed83612866565b915091508161140e5760405162461bcd60e51b81526004016107c79061538e565b6001600a80548390811061141e57fe5b60009182526020909120600560069092020181015460ff169081111561144057fe5b148061147b57506002600a80548390811061145757fe5b60009182526020909120600560069092020181015460ff169081111561147957fe5b145b156114c4576000600a600001828154811061149257fe5b906000526020600020906006020160050160006101000a81548160ff021916908360058111156114be57fe5b02179055505b505050565b60006114d3612bbf565b6001600160a01b0316336001600160a01b0316146115035760405162461bcd60e51b81526004016107c7906154ae565b600d5460ff16156115265760405162461bcd60e51b81526004016107c79061547e565b60008061153285612866565b91509150816115535760405162461bcd60e51b81526004016107c79061538e565b6000600a600001828154811061156557fe5b6000918252602082206005600690920201015460ff1691508561158957600261158c565b60015b905080600581111561159a57fe5b8260058111156115a657fe5b14806115b657506115b6826132e7565b156115c8576001945050505050610787565b80600a60000184815481106115d957fe5b906000526020600020906006020160050160006101000a81548160ff0219169083600581111561160557fe5b0217905550600181600581111561161857fe5b50600098975050505050505050565b60018054604080516020601f6002600019610100878916150201909516949094049384018190048102820181019092528281526060939092909183018282801561076c5780601f106107415761010080835404028352916020019161076c565b61168f6122f9565b6001600160a01b0316336001600160a01b0316146116bf5760405162461bcd60e51b81526004016107c7906152be565b600d5460ff16156116e25760405162461bcd60e51b81526004016107c79061547e565b600f5460ff166117045760405162461bcd60e51b81526004016107c7906153fe565b6114c4838383613339565b6006546001600160a01b031681565b3360008181526004602090815260408083206001600160a01b03871684529091528120549091610783918590610c6f908663ffffffff612dc416565b600f5460ff1681565b6000610783338484612cc8565b6117786122f9565b6001600160a01b0316336001600160a01b0316146117a85760405162461bcd60e51b81526004016107c7906152be565b600d5460ff16156117cb5760405162461bcd60e51b81526004016107c79061547e565b600f5460ff16156117ee5760405162461bcd60e51b81526004016107c7906153fe565b61122182826117fb61357a565b613339565b6008546001600160a01b031681565b6f2932b1b7b63630ba32b930b634b9b2b960811b81565b6827b930b1b632a43ab160b91b81565b600d54600e54600c80546040805160208084028201810190925282815260609560009586959460ff9092169390929185918301828280156118a057602002820191906000526020600020905b81546001600160a01b03168152600190910190602001808311611882575b50505050509250925092509250909192565b60006001600160a01b0382166118da5760405162461bcd60e51b81526004016107c79061541e565b826060806118e88884611c3a565b600754600d549294509092506001600160a01b0316906301eb1ec890600a9060ff16611912610962565b858c8c6040518763ffffffff1660e01b815260040161193696959493929190615119565b60006040518083038186803b15801561194e57600080fd5b505afa158015611962573d6000803e3d6000fd5b5060009250829150505b84811015611a6257600089898381811061198257fe5b905060200201351115611a5a5760006119cd8583815181106119a057fe5b6020026020010151604001518b8b858181106119b857fe5b9050602002013561358290919063ffffffff16565b90506119df838263ffffffff612dec16565b9250611a1d8a8a848181106119f057fe5b90506020020135868481518110611a0357fe5b602002602001015160800151612dc490919063ffffffff16565b600a600001858481518110611a2e57fe5b602002602001015160ff1681548110611a4357fe5b906000526020600020906006020160040181905550505b60010161196c565b50611a6d81336135bb565b600e54611a8190829063ffffffff6131bd16565b9050611a8d3382612e0f565b60005b84811015611b80576000898983818110611aa657fe5b905060200201351115611b7857838181518110611abf57fe5b6020026020010151600001516001600160a01b031663a9059cbb888b8b85818110611ae657fe5b905060200201356040518363ffffffff1660e01b8152600401611b0a92919061500c565b602060405180830381600087803b158015611b2457600080fd5b505af1158015611b38573d6000803e3d6000fd5b505050506040513d601f19601f82011682018060405250611b5c9190810190613ddd565b611b785760405162461bcd60e51b81526004016107c79061525e565b600101611a90565b50856001600160a01b03167fc7fcc6bd320aad050209d36569123a0fe001546ec1d361d6ebabf456b9c8ab2933838b8b604051611bc09493929190614f37565b60405180910390a298975050505050505050565b6007546001600160a01b031681565b6001600160a01b03918216600090815260046020908152604080832093909416825291909152205490565b644e6578757360d81b81565b600d54600e5460ff9091169082565b69476f7665726e616e636560b01b81565b6060806060611c498585613223565b905060608460ff16604051908082528060200260200182016040528015611c8a57816020015b611c77613abb565b815260200190600190039081611c6f5790505b50905060005b82518160ff161015611d6657600a600001838260ff1681518110611cb057fe5b602002602001015160ff1681548110611cc557fe5b60009182526020918290206040805160c081018252600690930290910180546001600160a01b03168352600181015493830193909352600283015490820152600382015460608201526004820154608082015260058083015491929160a084019160ff90911690811115611d3557fe5b6005811115611d4057fe5b81525050828260ff1681518110611d5357fe5b6020908102919091010152600101611c90565b50925090505b9250929050565b611d7b612bbf565b6001600160a01b0316336001600160a01b031614611dab5760405162461bcd60e51b81526004016107c7906154ae565b600d5460ff1615611dce5760405162461bcd60e51b81526004016107c79061547e565b600080611dda84612866565b9150915081611dfb5760405162461bcd60e51b81526004016107c79061538e565b600080611e0783612bfa565b9550955050505050611e18816132e7565b15611e355760405162461bcd60e51b81526004016107c7906152ae565b60008211611e555760405162461bcd60e51b81526004016107c7906154be565b6003600a6000018481548110611e6757fe5b906000526020600020906006020160050160006101000a81548160ff02191690836005811115611e9357fe5b02179055506000600a6000018481548110611eaa57fe5b906000526020600020906006020160040181905550856001600160a01b031663095ea7b386846040518363ffffffff1660e01b8152600401611eed92919061500c565b602060405180830381600087803b158015611f0757600080fd5b505af1158015611f1b573d6000803e3d6000fd5b505050506040513d601f19601f82011682018060405250611f3f9190810190613ddd565b611f5b5760405162461bcd60e51b81526004016107c79061531e565b505050505050565b6001600160a01b038316611f895760405162461bcd60e51b81526004016107c79061540e565b6001600160a01b038216611faf5760405162461bcd60e51b81526004016107c79061526e565b6001600160a01b0380841660008181526004602090815260408083209487168084529490915290819020849055517f8c5be1e5ebec7d5bd14f71427d1e84f3dd0314c0f7b2291e5b200ac8c7c3b9259061200a9085906151e1565b60405180910390a3505050565b600d5460009060ff161561203d5760405162461bcd60e51b81526004016107c79061547e565b6001600160a01b0382166120635760405162461bcd60e51b81526004016107c79061541e565b600083116120835760405162461bcd60e51b81526004016107c7906152ee565b60008061208f86612866565b91509150816120b05760405162461bcd60e51b81526004016107c79061528e565b6120b8613abb565b600a8054839081106120c657fe5b60009182526020918290206040805160c081018252600690930290910180546001600160a01b03168352600181015493830193909352600283015490820152600382015460608201526004820154608082015260058083015491929160a084019160ff9091169081111561213657fe5b600581111561214157fe5b9052506007549091506001600160a01b031663c5c49217612160610962565b83896040518463ffffffff1660e01b815260040161218093929190615542565b60006040518083038186803b15801561219857600080fd5b505afa1580156121ac573d6000803e3d6000fd5b50506040516323b872dd60e01b81526001600160a01b038a1692506323b872dd91506121e090339030908b90600401614f0f565b602060405180830381600087803b1580156121fa57600080fd5b505af115801561220e573d6000803e3d6000fd5b505050506040513d601f19601f820116820180604052506122329190810190613ddd565b61224e5760405162461bcd60e51b81526004016107c79061536e565b6080810151612263908763ffffffff612dec16565b600a80548490811061227157fe5b906000526020600020906006020160040181905550600061229f82604001518861377b90919063ffffffff16565b90506122ab868261378c565b856001600160a01b03167f25b428dfde728ccfaddad7e29e4ac23c24ed7fd1a6e3e3f91894a9a073f5dfff82896040516122e692919061556b565b60405180910390a2979650505050505050565b6006546040516385acd64160e01b81526000916001600160a01b0316906385acd64190612335906723b7bb32b93737b960c11b906004016151e1565b60206040518083038186803b15801561234d57600080fd5b505afa158015612361573d6000803e3d6000fd5b505050506040513d601f19601f820116820180604052506123859190810190613bb1565b905090565b60008061239683612866565b91509150816123b75760405162461bcd60e51b81526004016107c79061535e565b600a546123c2613abb565b600a8054849081106123d057fe5b60009182526020918290206040805160c081018252600690930290910180546001600160a01b03168352600181015493830193909352600283015490820152600382015460608201526004820154608082015260058083015491929160a084019160ff9091169081111561244057fe5b600581111561244b57fe5b9052506080810151909150156124735760405162461bcd60e51b81526004016107c79061545e565b60038160a00151600581111561248557fe5b14156124a35760405162461bcd60e51b81526004016107c79061544e565b600a805460001984019081106124b557fe5b9060005260206000209060060201600a60000184815481106124d357fe5b60009182526020909120825460069092020180546001600160a01b0319166001600160a01b0390921691909117815560018083015481830155600280840154908301556003808401549083015560048084015490830155600580840154818401805460ff90921693909260ff1990921691849081111561254f57fe5b021790555050600a80549091508061256357fe5b6000828152602080822060066000199094019384020180546001600160a01b0319908116825560018281018590556002830185905560038301859055600483018590556005909201805460ff19169055939094556001600160a01b038916808352600b9091526040808320839055600c8054958601815583527fdf6966c971051c3d54ec59162606531493a51404a002842f56009d7e5cf4a8c790940180549093168117909255915190917f1e5281bbecf5c15104f9e35265dbe738c1cd2597613cbf4a0a51713448bc13b991a25050505050565b81518151811461265a5760405162461bcd60e51b81526004016107c79061522e565b600a54811461267b5760405162461bcd60e51b81526004016107c79061530e565b600061268683613840565b9050612690613884565b8110156126af5760405162461bcd60e51b81526004016107c7906153ae565b60005b828110156128125760008582815181106126c857fe5b60200260200101519050600a60000182815481106126e257fe5b60009182526020909120600690910201546001600160a01b0382811691161461271d5760405162461bcd60e51b81526004016107c7906153ce565b600085838151811061272b57fe5b602002602001015190506000600581111561274257fe5b600a80548590811061275057fe5b60009182526020909120600560069092020181015460ff169081111561277257fe5b14156127ca57612780613884565b81111561279f5760405162461bcd60e51b81526004016107c79061520e565b80600a60000184815481106127b057fe5b906000526020600020906006020160030181905550612808565b600a8054849081106127d857fe5b90600052602060002090600602016003015481146128085760405162461bcd60e51b81526004016107c79061539e565b50506001016126b2565b50836040516128219190614ee9565b60405180910390207fbe2adf2902216365c5c656d48909da65fad401f809e4351cdbcfcac4067456698460405161285891906151b4565b60405180910390a250505050565b6001600160a01b0381166000908152600b6020526040812054806128d757600a54612896575060009050806128dc565b826001600160a01b0316600a6000016000815481106128b157fe5b600091825260208220600690910201546001600160a01b031691909114925090506128dc565b600191505b915091565b60006001600160a01b0382166129095760405162461bcd60e51b81526004016107c79061541e565b600083116129295760405162461bcd60e51b81526004016107c7906152ee565b60008061293586612866565b91509150816129565760405162461bcd60e51b81526004016107c79061528e565b61295e613abb565b600a80548390811061296c57fe5b60009182526020918290206040805160c081018252600690930290910180546001600160a01b03168352600181015493830193909352600283015490820152600382015460608201526004820154608082015260058083015491929160a084019160ff909116908111156129dc57fe5b60058111156129e757fe5b905250600754600d549192506001600160a01b0316906399d50af890600a9060ff16612a11610962565b868b6040518663ffffffff1660e01b8152600401612a3395949392919061516d565b60006040518083038186803b158015612a4b57600080fd5b505afa158015612a5f573d6000803e3d6000fd5b505050506000612a7c82604001518861358290919063ffffffff16565b6080830151909150612a94908863ffffffff612dc416565b600a805485908110612aa257fe5b906000526020600020906006020160040181905550612ac181336135bb565b600e54612ad590829063ffffffff6131bd16565b9050612ae13382612e0f565b815160405163a9059cbb60e01b81526001600160a01b039091169063a9059cbb90612b129089908b9060040161500c565b602060405180830381600087803b158015612b2c57600080fd5b505af1158015612b40573d6000803e3d6000fd5b505050506040513d601f19601f82011682018060405250612b649190810190613ddd565b612b805760405162461bcd60e51b81526004016107c79061525e565b856001600160a01b03167fe104dfafc38c27fc264e02c2493a5b90e7f43c722ce7770bfa0e3441df06f4053383868b6040516122e69493929190614f6f565b6006546040516385acd64160e01b81526000916001600160a01b0316906385acd64190612335906626b0b730b3b2b960c91b906004016151e1565b600080600080600080612c0b613abb565b600a805489908110612c1957fe5b60009182526020918290206040805160c081018252600690930290910180546001600160a01b03168352600181015493830193909352600283015490820152600382015460608201526004820154608082015260058083015491929160a084019160ff90911690811115612c8957fe5b6005811115612c9457fe5b9052508051602082015160408301516060840151608085015160a090950151939d929c50909a509850919650945092505050565b6001600160a01b038316612cee5760405162461bcd60e51b81526004016107c7906153de565b6001600160a01b038216612d145760405162461bcd60e51b81526004016107c79061521e565b6001600160a01b038316600090815260036020526040902054612d3d908263ffffffff612dc416565b6001600160a01b038085166000908152600360205260408082209390935590841681522054612d72908263ffffffff612dec16565b6001600160a01b0380841660008181526003602052604090819020939093559151908516907fddf252ad1be2c89b69c2b068fc378daa952ba7f163c4a11628f55a4df523b3ef9061200a9085906151e1565b600082821115612de65760405162461bcd60e51b81526004016107c7906154de565b50900390565b818101828110156107875760405162461bcd60e51b81526004016107c79061534e565b6001600160a01b038216612e355760405162461bcd60e51b81526004016107c79061537e565b600554612e48908263ffffffff612dc416565b6005556001600160a01b038216600090815260036020526040902054612e74908263ffffffff612dc416565b6001600160a01b0383166000818152600360205260408082209390935591517fddf252ad1be2c89b69c2b068fc378daa952ba7f163c4a11628f55a4df523b3ef90612ec09085906151e1565b60405180910390a35050565b600d5460009060ff1615612ef25760405162461bcd60e51b81526004016107c79061547e565b6001600160a01b038216612f185760405162461bcd60e51b81526004016107c79061541e565b8251606080612f278784611c3a565b60075491935091506001600160a01b03166345a30635612f45610962565b84896040518463ffffffff1660e01b8152600401612f65939291906154ee565b60006040518083038186803b158015612f7d57600080fd5b505afa158015612f91573d6000803e3d6000fd5b5060009250829150505b84811015613142576000888281518110612fb157fe5b6020026020010151111561313a57612fc7613abb565b848281518110612fd357fe5b6020026020010151905080600001516001600160a01b03166323b872dd33308c8681518110612ffe57fe5b60200260200101516040518463ffffffff1660e01b815260040161302493929190614f0f565b602060405180830381600087803b15801561303e57600080fd5b505af1158015613052573d6000803e3d6000fd5b505050506040513d601f19601f820116820180604052506130769190810190613ddd565b6130925760405162461bcd60e51b81526004016107c79061536e565b6130bc8983815181106130a157fe5b60200260200101518260800151612dec90919063ffffffff16565b600a6000018584815181106130cd57fe5b602002602001015160ff16815481106130e257fe5b906000526020600020906006020160040181905550600061312382604001518b858151811061310d57fe5b602002602001015161377b90919063ffffffff16565b9050613135848263ffffffff612dec16565b935050505b600101612f9b565b50600081116131635760405162461bcd60e51b81526004016107c79061529e565b61316d868261378c565b856001600160a01b03167fff0a1dc048ef1a5e9e2845c6bb6cafd8b8531f3cb15368f4a708dec7d7bc789f82896040516122e6929190615522565b600061079a8383670de0b6b3a7640000613890565b6000806131d284670de0b6b3a76400006138a9565b9050610e2281846138e4565b6131e88282612e0f565b6001600160a01b038216600090815260046020908152604080832033808552925290912054611221918491610c6f908563ffffffff612dc416565b6060808260ff16604051908082528060200260200182016040528015613253578160200160208202803883390190505b50600a54909150600090815b818160ff1610156132b75760ff811660020a878116600163ffffffff8216106132ad5782868680600101975060ff168151811061329857fe5b602002602001019060ff16908160ff16815250505b505060010161325f565b508460ff168260ff16146132dd5760405162461bcd60e51b81526004016107c79061532e565b5090949350505050565b600060038260058111156132f757fe5b148061330e5750600482600581111561330c57fe5b145b806133245750600582600581111561332257fe5b145b1561333157506001610815565b506000919050565b6001600160a01b03831661335f5760405162461bcd60e51b81526004016107c79061548e565b600061336a84612866565b509050801561338b5760405162461bcd60e51b81526004016107c79061549e565b600061339685613916565b905060006133ab60128363ffffffff612dc416565b905060006133c385600a84900a63ffffffff6138a916565b600a80546001600160a01b038a81166000818152600b60209081526040808320869055805160c0810182529384529083018d8152908301878152606084018381526080850184815260a086018581526001808a01808c559a90965286517fc65a7bb8d6351c1cf70c95a316cc6a92839c986682d98bc35f958f4883f9d2a86006909a02998a0180546001600160a01b0319169190991617885593517fc65a7bb8d6351c1cf70c95a316cc6a92839c986682d98bc35f958f4883f9d2a989015591517fc65a7bb8d6351c1cf70c95a316cc6a92839c986682d98bc35f958f4883f9d2aa880155517fc65a7bb8d6351c1cf70c95a316cc6a92839c986682d98bc35f958f4883f9d2ab870155517fc65a7bb8d6351c1cf70c95a316cc6a92839c986682d98bc35f958f4883f9d2ac860155517fc65a7bb8d6351c1cf70c95a316cc6a92839c986682d98bc35f958f4883f9d2ad9094018054969750949591949293929160ff19169083600581111561353557fe5b0217905550506040516001600160a01b038a1692507fa83f9302fa4684335dd26b1bdd925929618565fa0f22bd9e91ab01753d8bf13c9150600090a250505050505050565b6305f5e10090565b60008061358f84846138a9565b905060006135ab826135a66305f5e1006001612dc4565b612dec565b9050610e6b816305f5e1006138e4565b60095480156114c4576000806135cf612bbf565b6001600160a01b03166301f9c64f306040518263ffffffff1660e01b81526004016135fa9190614f01565b604080518083038186803b15801561361157600080fd5b505afa158015613625573d6000803e3d6000fd5b505050506040513d601f19601f820116820180604052506136499190810190613e37565b90925090506000613660848763ffffffff6131a816565b90506000613674828563ffffffff6131a816565b90506000613688828563ffffffff6131bd16565b90506136926139c5565b6008546040516323b872dd60e01b81526001600160a01b03928316926323b872dd926136c8928c92909116908690600401614fa4565b602060405180830381600087803b1580156136e257600080fd5b505af11580156136f6573d6000803e3d6000fd5b505050506040513d601f19601f8201168201806040525061371a9190810190613ddd565b6137365760405162461bcd60e51b81526004016107c7906153be565b7fc110f1fa8eb59796a89e21b621b8ab1512d82b9049a6b324aadfe4a78de6f94187828860405161376993929190615027565b60405180910390a15050505050505050565b600061079a83836305f5e100613890565b6001600160a01b0382166137b25760405162461bcd60e51b81526004016107c7906154ce565b6005546137c5908263ffffffff612dec16565b6005556001600160a01b0382166000908152600360205260409020546137f1908263ffffffff612dec16565b6001600160a01b0383166000818152600360205260408082209390935591519091907fddf252ad1be2c89b69c2b068fc378daa952ba7f163c4a11628f55a4df523b3ef90612ec09085906151e1565b80516000908190815b8181101561387b5760006138708487848151811061386357fe5b60200260200101516139ff565b935050600101613849565b50909392505050565b670de0b6b3a764000090565b60008061389d85856138a9565b9050610e6b81846138e4565b6000826138b857506000610787565b50818102818382816138c657fe5b04146107875760405162461bcd60e51b81526004016107c79061524e565b60008082116139055760405162461bcd60e51b81526004016107c7906153ee565b81838161390e57fe5b049392505050565b60408051600481526024810182526020810180516001600160e01b031663313ce56760e01b179052905160009182916001600160a01b0385169161395991614ef5565b6000604051808303816000865af19150503d8060008114613996576040519150601f19603f3d011682016040523d82523d6000602084013e61399b565b606091505b50509050806139bc5760405162461bcd60e51b81526004016107c79061527e565b61079a83613a22565b6006546040516385acd64160e01b81526000916001600160a01b0316906385acd641906123359065537973746f6b60d01b906004016151e1565b808201828110156107875760405162461bcd60e51b81526004016107c7906152ce565b600080826001600160a01b031663313ce5676040518163ffffffff1660e01b815260040160206040518083038186803b158015613a5e57600080fd5b505afa158015613a72573d6000803e3d6000fd5b505050506040513d601f19601f82011682018060405250613a969190810190613f01565b60ff169050600081116107875760405162461bcd60e51b81526004016107c79061533e565b6040805160c08101825260008082526020820181905291810182905260608101829052608081018290529060a082015290565b803561078781615698565b805161078781615698565b60008083601f840112613b1657600080fd5b50813567ffffffffffffffff811115613b2e57600080fd5b602083019150836020820283011115611d6c57600080fd5b8035610787816156ac565b8051610787816156ac565b8035610787816156b5565b8051610787816156b5565b8035610787816156be565b8035610787816156c7565b8051610787816156c7565b600060208284031215613ba557600080fd5b6000610e228484613aee565b600060208284031215613bc357600080fd5b6000610e228484613af9565b60008060408385031215613be257600080fd5b6000613bee8585613aee565b9250506020613bff85828601613aee565b9150509250929050565b600080600060608486031215613c1e57600080fd5b6000613c2a8686613aee565b9350506020613c3b86828701613aee565b9250506040613c4c86828701613b5c565b9150509250925092565b60008060408385031215613c6957600080fd5b6000613c758585613aee565b9250506020613bff85828601613b46565b60008060408385031215613c9957600080fd5b6000613ca58585613aee565b9250506020613bff85828601613b5c565b600080600060608486031215613ccb57600080fd5b6000613cd78686613aee565b9350506020613c3b86828701613b5c565b600080600060608486031215613cfd57600080fd5b6000613d098686613aee565b9350506020613d1a86828701613b5c565b9250506040613c4c86828701613aee565b60008060208385031215613d3e57600080fd5b823567ffffffffffffffff811115613d5557600080fd5b613d6185828601613b04565b92509250509250929050565b60008060008060408587031215613d8357600080fd5b843567ffffffffffffffff811115613d9a57600080fd5b613da687828801613b04565b9450945050602085013567ffffffffffffffff811115613dc557600080fd5b613dd187828801613b04565b95989497509550505050565b600060208284031215613def57600080fd5b6000610e228484613b51565b600060208284031215613e0d57600080fd5b6000610e228484613b5c565b600060208284031215613e2b57600080fd5b6000610e228484613b67565b60008060408385031215613e4a57600080fd5b6000613e568585613b67565b9250506020613bff85828601613b67565b60008060008060608587031215613e7d57600080fd5b6000613e898787613b72565b945050602085013567ffffffffffffffff811115613ea657600080fd5b613eb287828801613b04565b93509350506040613ec587828801613aee565b91505092959194509250565b60008060408385031215613ee457600080fd5b6000613ef08585613b72565b9250506020613bff85828601613b7d565b600060208284031215613f1357600080fd5b6000610e228484613b88565b6000613f2b8383613f86565b505060200190565b6000613f2b838361424b565b6000613f2b838361428c565b6000613f578383614dbc565b505060c00190565b6000613f578383614e2c565b6000613f2b8383614ee0565b613f80816155f6565b82525050565b613f80816155d3565b6000613f9a826155a7565b613fa481856155b5565b9350613faf83615595565b8060005b83811015613fdd578151613fc78882613f1f565b9750613fd283615595565b925050600101613fb3565b509495945050505050565b6000613ff3826155a7565b613ffd8185610815565b935061400883615595565b8060005b83811015613fdd5781516140208882613f1f565b975061402b83615595565b92505060010161400c565b6000614041826155a7565b61404b81856155b5565b935061405683615595565b8060005b83811015613fdd57815161406e8882613f33565b975061407983615595565b92505060010161405a565b600061408f826155a7565b61409981856155b5565b93506140a483615595565b8060005b83811015613fdd5781516140bc8882613f3f565b97506140c783615595565b9250506001016140a8565b60006140dd826155a7565b6140e781856155b5565b93506140f283615595565b8060005b83811015613fdd57815161410a8882613f4b565b975061411583615595565b9250506001016140f6565b600061412b826155ab565b61413581856155b5565b93506141408361559b565b8060005b83811015613fdd57816141578882613f5f565b9750614162836155af565b925050600101614144565b600061417983856155b5565b93506001600160fb1b0383111561418f57600080fd5b6020830292506141a0838584615613565b50500190565b60006141b1826155a7565b6141bb81856155b5565b93506141c683615595565b8060005b83811015613fdd5781516141de8882613f33565b97506141e983615595565b9250506001016141ca565b60006141ff826155a7565b61420981856155b5565b935061421483615595565b8060005b83811015613fdd57815161422c8882613f6b565b975061423783615595565b925050600101614218565b613f80816155de565b613f80816155ca565b600061425f826155a7565b6142698185610815565b935061427981856020860161561f565b9290920192915050565b613f80816155fd565b613f8081615608565b60006142a0826155a7565b6142aa81856155b5565b93506142ba81856020860161561f565b6142c381615684565b9093019392505050565b60006142da602c836155b5565b7f417373657420776569676874206d757374206265206c657373207468616e206f81526b7220657175616c20746f203160a01b602082015260400192915050565b60006143286023836155b5565b7f45524332303a207472616e7366657220746f20746865207a65726f206164647281526265737360e81b602082015260400192915050565b600061436d6023836155b5565b7f4d757374206265206d61746368696e672062617373657420646174612061727281526261797360e81b602082015260400192915050565b60006143b26017836155b5565b7f526564656d7074696f6e20666565203e206d6178466565000000000000000000815260200192915050565b60006143eb6023836155b5565b7f537461626c654d6174683a206d756c7469706c69636174696f6e206f766572668152626c6f7760e81b602082015260400192915050565b6000614430601b836155b5565b7f4d757374206265207375636365737366756c207472616e736665720000000000815260200192915050565b60006144696022836155b5565b7f45524332303a20617070726f766520746f20746865207a65726f206164647265815261737360f01b602082015260400192915050565b60006144ad6024836155b5565b7f546f6b656e20636f6e7472616374206d75737420737570706f727420646563698152636d616c7360e01b602082015260400192915050565b60006144f36014836155b5565b7318905cdcd95d08191bd95cdb89dd08195e1a5cdd60621b815260200192915050565b6000614523601a836155b5565b7f4e6f206d6173736574207175616e7469747920746f206d696e74000000000000815260200192915050565b600061455c6014836155b5565b73496e76616c69642042617373657420737461746560601b815260200192915050565b600061458c6019836155b5565b7f4f6e6c7920676f7665726e6f722063616e206578656375746500000000000000815260200192915050565b60006145c56011836155b5565b704d757374206e6f74206f766572666c6f7760781b815260200192915050565b60006145f26018836155b5565b7f4d757374206265206e6f6e206e756c6c20616464726573730000000000000000815260200192915050565b600061462b6016836155b5565b7505175616e74697479206d757374206e6f7420626520360541b815260200192915050565b600061465d601a836155b5565b7f4d75737420626520616c6c6f77656420746f2075706772616465000000000000815260200192915050565b60006146966027836155b5565b7f4d757374206265206d61746368696e67206578697374696e67206261736b6574815266081b185e5bdd5d60ca1b602082015260400192915050565b60006146df6015836155b5565b7410985cdcd95d08185c1c1c9bdd994819985a5b1959605a1b815260200192915050565b60006147106018836155b5565b7f466f756e6420696e636f727265637420656c656d656e74730000000000000000815260200192915050565b60006147496029836155b5565b7f546f6b656e206d75737420686176652031206f72206d6f726520646563696d618152683610383630b1b2b99760b91b602082015260400192915050565b6000614794601d836155b5565b7f537461626c654d6174683a206164646974696f6e206f766572666c6f77000000815260200192915050565b60006147cd601b836155b5565b7f4173736574206d7573742061707065617220696e204261736b65740000000000815260200192915050565b60006148066016836155b5565b7510985cdcd95d081d1c985b9cd9995c8819985a5b195960521b815260200192915050565b60006148386021836155b5565b7f45524332303a206275726e2066726f6d20746865207a65726f206164647265738152607360f81b602082015260400192915050565b600061487b601b836155b5565b7f426173736574206d75737420657869737420696e204261736b65740000000000815260200192915050565b60006148b4602e836155b5565b7f43616e6e6f74206368616e676520776569676874696e677320666f722073756681526d666572696e67204261737365747360901b602082015260400192915050565b60006149046024836155b5565b7f4261736b657420776569676874206d75737420746f74616c203e2031303025208152633d3d203160e01b602082015260400192915050565b600061494a601e836155b5565b7f4d757374206265207375636365737366756c20666565207061796d656e740000815260200192915050565b60006149836028836155b5565b7f426173736574206d75737420626520726570726573656e7465642073796d6d6581526774726963616c6c7960c01b602082015260400192915050565b60006149cd6025836155b5565b7f45524332303a207472616e736665722066726f6d20746865207a65726f206164815264647265737360d81b602082015260400192915050565b6000614a14601c836155b5565b7f537461626c654d6174683a206469766973696f6e206279207a65726f00000000815260200192915050565b6000614a4d6028836155b5565b7f53706563696679696e67205f6d6561737572656d656e744d756c7469706c6520815267191a5cd8589b195960c21b602082015260400192915050565b6000614a976024836155b5565b7f45524332303a20617070726f76652066726f6d20746865207a65726f206164648152637265737360e01b602082015260400192915050565b6000614add6019836155b5565b7f526563697069656e74206d757374206e6f742062652030783000000000000000815260200192915050565b6000614b16601d836155b5565b7f4d757374206265206d616e61676572206f7220676f7665726e616e6365000000815260200192915050565b6000614b4f6015836155b5565b744d7573742062652076616c6964206164647265737360581b815260200192915050565b6000614b806015836155b5565b74426173736574206d7573742062652061637469766560581b815260200192915050565b6000614bb16025836155b5565b7f426173736574207661756c74206d75737420626520636f6d706c6574656c7920815264656d70747960d81b602082015260400192915050565b6000614bf86011836155b5565b7010985cdcd95d081b5d5cdd08195e1a5cdd607a1b815260200192915050565b6000614c256014836155b5565b734261736b6574206d75737420626520616c69766560601b815260200192915050565b6000614c55601c836155b5565b7f41737365742061646472657373206d7573742062652076616c69642e00000000815260200192915050565b6000614c8e6026836155b5565b7f41737365742063616e6e6f7420616c726561647920626520696e20746865206281526530b9b5b2ba1760d11b602082015260400192915050565b6000614cd66018836155b5565b7f4f6e6c79206d616e616765722063616e20657865637574650000000000000000815260200192915050565b6000614d0f6026836155b5565b7f4d757374206861766520736f6d657468696e6720746f207265636f6c6c61746581526572616c69736560d01b602082015260400192915050565b6000614d57601f836155b5565b7f45524332303a206d696e7420746f20746865207a65726f206164647265737300815260200192915050565b6000614d906020836155b5565b7f537461626c654d6174683a207375627472616374696f6e206f766572666c6f77815260200192915050565b805160c0830190614dcd8482613f86565b506020820151614de0602085018261424b565b506040820151614df3604085018261424b565b506060820151614e06606085018261424b565b506080820151614e19608085018261424b565b5060a08201516108f060a085018261428c565b805460c0830190614e3c8161564b565b614e468582613f86565b50506001820154614e568161565e565b614e63602086018261424b565b50506002820154614e738161565e565b614e80604086018261424b565b50506003820154614e908161565e565b614e9d606086018261424b565b50506004820154614ead8161565e565b614eba608086018261424b565b50506005820154614eca81615671565b6111f560a086018261428c565b613f80816155ed565b613f80816155cd565b600061079a8284613fe8565b600061079a8284614254565b602081016107878284613f86565b60608101614f1d8286613f77565b614f2a6020830185613f86565b610e22604083018461424b565b60608101614f458287613f77565b614f52602083018661424b565b8181036040830152614f6581848661416d565b9695505050505050565b60808101614f7d8287613f77565b614f8a602083018661424b565b614f97604083018561424b565b610e6b606083018461424b565b60608101614f1d8286613f86565b60c08101614fc08289613f86565b614fcd602083018861424b565b614fda604083018761424b565b614fe7606083018661424b565b614ff4608083018561424b565b61500160a083018461428c565b979650505050505050565b6040810161501a8285613f86565b61079a602083018461424b565b606081016150358286613f86565b614f2a602083018561424b565b6020808252810161079a8184613f8f565b60c080825281016150648189613f8f565b905081810360208301526150788188614036565b9050818103604083015261508c81876141a6565b905081810360608301526150a081866141a6565b905081810360808301526150b481856141a6565b905081810360a08301526150c88184614084565b98975050505050505050565b606080825281016150e58186613f8f565b9050614f2a6020830185614242565b6040808252810161510581856140d2565b90508181036020830152610e2281846141f4565b60a0808252810161512a8189614120565b90506151396020830188614242565b615146604083018761424b565b818103606083015261515881866141f4565b905081810360808301526150c881848661416d565b60a0808252810161517e8188614120565b905061518d6020830187614242565b61519a604083018661424b565b6151a7606083018561424b565b614f65608083018461424b565b6020808252810161079a81846141a6565b602081016107878284614242565b6040810161501a8285614242565b60208101610787828461424b565b602081016107878284614283565b6020808252810161079a8184614295565b60208082528101610787816142cd565b602080825281016107878161431b565b6020808252810161078781614360565b60208082528101610787816143a5565b60208082528101610787816143de565b6020808252810161078781614423565b602080825281016107878161445c565b60208082528101610787816144a0565b60208082528101610787816144e6565b6020808252810161078781614516565b602080825281016107878161454f565b602080825281016107878161457f565b60208082528101610787816145b8565b60208082528101610787816145e5565b602080825281016107878161461e565b6020808252810161078781614650565b6020808252810161078781614689565b60208082528101610787816146d2565b6020808252810161078781614703565b602080825281016107878161473c565b6020808252810161078781614787565b60208082528101610787816147c0565b60208082528101610787816147f9565b602080825281016107878161482b565b602080825281016107878161486e565b60208082528101610787816148a7565b60208082528101610787816148f7565b602080825281016107878161493d565b6020808252810161078781614976565b60208082528101610787816149c0565b6020808252810161078781614a07565b6020808252810161078781614a40565b6020808252810161078781614a8a565b6020808252810161078781614ad0565b6020808252810161078781614b09565b6020808252810161078781614b42565b6020808252810161078781614b73565b6020808252810161078781614ba4565b6020808252810161078781614beb565b6020808252810161078781614c18565b6020808252810161078781614c48565b6020808252810161078781614c81565b6020808252810161078781614cc9565b6020808252810161078781614d02565b6020808252810161078781614d4a565b6020808252810161078781614d83565b606081016154fc828661424b565b818103602083015261550e81856140d2565b90508181036040830152610e6b81846141a6565b60408101615530828561424b565b8181036020830152610e2281846141a6565b6101008101615551828661424b565b61555e6020830185614dbc565b610e2260e083018461424b565b6040810161501a828561424b565b602081016107878284614ed7565b602081016107878284614ee0565b60200190565b60009081526020902090565b5190565b5490565b60060190565b90815260200190565b6001600160a01b031690565b90565b60ff1690565b6000610787826155be565b151590565b806108158161568e565b63ffffffff1690565b6000610787825b6000610787826155d3565b6000610787826155e3565b82818337506000910152565b60005b8381101561563a578181015183820152602001615622565b838111156108f05750506000910152565b6000610787615659836155ca565b6155be565b600061078761566c836155ca565b6155ca565b600061078761567f836155ca565b6155cd565b601f01601f191690565b60068110610e0c57fe5b6156a1816155d3565b8114610e0c57600080fd5b6156a1816155de565b6156a1816155ca565b6156a1816155ed565b6156a1816155cd56fea365627a7a72315820ea9e290feedb16620b4aed2d213e4f0dac4f48620455d98cccda46304219576a6c6578706572696d656e74616cf564736f6c63430005100040",
  "source": "pragma solidity ^0.5.12;\npragma experimental ABIEncoderV2;\n\nimport { IMasset } from \"../interfaces/IMasset.sol\";\n\nimport { MassetBasket, IManager, ISystok, IForgeValidator, IERC20 } from \"./MassetBasket.sol\";\nimport { MassetToken } from \"./mERC20/MassetToken.sol\";\n\n/**\n  * @title Masset\n  * @author Stability Labs Pty Ltd\n  * @dev Base layer functionality for the Masset\n  */\ncontract Masset is IMasset, MassetToken, MassetBasket {\n\n    /** @dev Forging events */\n    event Minted(address indexed account, uint256 massetQuantity, uint256[] bAssetQuantities);\n    event Minted(address indexed account, uint256 massetQuantity, uint256 bAssetQuantity);\n    event PaidFee(address payer, uint256 feeQuantity, uint256 feeRate);\n    event Redeemed(address indexed recipient, address redeemer, uint256 massetQuantity, uint256[] bAssetQuantities);\n    event RedeemedSingle(address indexed recipient, address redeemer, uint256 massetQuantity, uint256 index, uint256 bAssetQuantity);\n\n\n    /** @dev constructor */\n    constructor (\n        string memory _name,\n        string memory _symbol,\n        address _nexus,\n        address[] memory _bassets,\n        bytes32[] memory _bassetKeys,\n        uint256[] memory _bassetWeights,\n        uint256[] memory _bassetMultiples,\n        address _feePool,\n        address _forgeValidator\n    )\n        MassetToken(\n            _name,\n            _symbol,\n            18\n        )\n        MassetBasket(\n          _nexus,\n          _bassets,\n          _bassetKeys,\n          _bassetWeights,\n          _bassetMultiples\n        )\n        public\n    {\n        feePool = _feePool;\n        forgeValidator = IForgeValidator(_forgeValidator);\n    }\n\n    /***************************************\n                MINTING (PUBLIC)\n    ****************************************/\n\n    /**\n     * @dev Mint a single bAsset\n     * @param _basset bAsset address to mint\n     * @param _bassetQuantity bAsset quantity to mint\n     * @return returns the number of newly minted mAssets\n     */\n    function mintSingle(\n        address _basset,\n        uint256 _bassetQuantity\n    )\n        external\n        returns (uint256 massetMinted)\n    {\n        return _mintTo(_basset, _bassetQuantity, msg.sender);\n    }\n\n    /**\n     * @dev Mint a single bAsset\n     * @param _basset bAsset address to mint\n     * @param _bassetQuantity bAsset quantity to mint\n     * @param _recipient receipient of the newly minted mAsset tokens\n     * @return returns the number of newly minted mAssets\n     */\n    function mintSingleTo(\n        address _basset,\n        uint256 _bassetQuantity,\n        address _recipient\n    )\n        external\n        returns (uint256 massetMinted)\n    {\n        return _mintTo(_basset, _bassetQuantity, _recipient);\n    }\n\n    /**\n     * @dev Mint with bAsset addresses in bitmap\n     * @param _bassetsBitmap bAssets index in bitmap\n     * @param _bassetQuantity bAsset's quantity to send\n     * @return massetMinted returns the number of newly minted mAssets\n     */\n    function mintBitmapTo(\n        uint32 _bassetsBitmap,\n        uint256[] calldata _bassetQuantity,\n        address _recipient\n    )\n        external\n        returns(uint256 massetMinted)\n    {\n        return _mintTo(_bassetsBitmap, _bassetQuantity, _recipient);\n    }\n\n    /***************************************\n              MINTING (INTERNAL)\n    ****************************************/\n\n    /**\n     * @dev Mints a number of Massets based on a Basset user sends\n     * @param _basset Address of Basset user sends\n     * @param _bassetQuantity Exact units of Basset user wants to send to contract\n     * @param _recipient Address to which the Masset should be minted\n     */\n    function _mintTo(\n        address _basset,\n        uint256 _bassetQuantity,\n        address _recipient\n    )\n        internal\n        basketIsHealthy\n        returns (uint256 massetMinted)\n    {\n        require(_recipient != address(0), \"Recipient must not be 0x0\");\n        require(_bassetQuantity > 0, \"Quantity must not be 0\");\n\n        (bool exists, uint256 i) = _isAssetInBasket(_basset);\n        require(exists, \"bAsset doesn't exist\");\n\n        Basset memory b = basket.bassets[i];\n\n        forgeValidator.validateMint(totalSupply(), b, _bassetQuantity);\n\n        require(IERC20(_basset).transferFrom(msg.sender, address(this), _bassetQuantity), \"Basset transfer failed\");\n\n        basket.bassets[i].vaultBalance = b.vaultBalance.add(_bassetQuantity);\n        // ratioedBasset is the number of masset quantity to mint\n        uint256 ratioedBasset = _bassetQuantity.mulRatioTruncate(b.ratio);\n\n        // Mint the Masset\n        _mint(_recipient, ratioedBasset);\n        emit Minted(_recipient, ratioedBasset, _bassetQuantity);\n\n        return ratioedBasset;\n    }\n\n    /**\n      * @dev Mints a number of Massets based on the sum of the value of the Bassets\n      * @param _bassetsBitmap bits set in bitmap represent position of bAssets to use\n      * @param _bassetQuantity Exact units of Bassets to mint\n      * @param _recipient Address to which the Masset should be minted\n      * @return number of newly minted mAssets\n      */\n    function _mintTo(\n        uint32 _bassetsBitmap,\n        uint256[] memory _bassetQuantity,\n        address _recipient\n    )\n        internal\n        basketIsHealthy\n        returns (uint256 massetMinted)\n    {\n        require(_recipient != address(0), \"Recipient must not be 0x0\");\n        uint256 len = _bassetQuantity.length;\n\n        // Load only needed bAssets in array\n        (Basset[] memory bAssets, uint8[] memory indexes)\n            = convertBitmapToBassets(_bassetsBitmap, uint8(len));\n\n        // Validate the proposed mint\n        forgeValidator.validateMint(totalSupply(), bAssets, _bassetQuantity);\n\n        uint256 massetQuantity = 0;\n\n        // Transfer the Bassets to this contract, update storage and calc MassetQ\n        for(uint256 j = 0; j < len; j++){\n            if(_bassetQuantity[j] > 0){\n                // bAsset == bAssets[j] == basket.bassets[indexes[j]]\n                Basset memory bAsset = bAssets[j];\n\n                require(IERC20(bAsset.addr).transferFrom(msg.sender, address(this), _bassetQuantity[j]), \"Basset transfer failed\");\n                basket.bassets[indexes[j]].vaultBalance = bAsset.vaultBalance.add(_bassetQuantity[j]);\n\n                uint ratioedBasset = _bassetQuantity[j].mulRatioTruncate(bAsset.ratio);\n                massetQuantity = massetQuantity.add(ratioedBasset);\n            }\n        }\n\n        require(massetQuantity > 0, \"No masset quantity to mint\");\n\n        // Mint the Masset\n        _mint(_recipient, massetQuantity);\n        emit Minted(_recipient, massetQuantity, _bassetQuantity);\n\n        return massetQuantity;\n    }\n\n    /***************************************\n              REDEMPTION (PUBLIC)\n    ****************************************/\n\n    /**\n      * @dev Redeems a certain quantity of Bassets, in exchange for burning the relative Masset quantity from the User\n      * @param _bassetQuantity Exact quantities of Bassets to redeem\n      */\n    function redeemSingle(\n        address _basset,\n        uint256 _bassetQuantity\n    )\n        external\n        returns (uint256 massetRedeemed)\n    {\n        return _redeem(_basset, _bassetQuantity, msg.sender);\n    }\n\n\n    function redeemSingleTo(\n        address _basset,\n        uint256 _bassetQuantity,\n        address _recipient\n    )\n        external\n        returns (uint256 massetRedeemed)\n    {\n        return _redeem(_basset, _bassetQuantity, _recipient);\n    }\n\n\n    /**\n      * @dev Redeems a certain quantity of Bassets, in exchange for burning the relative Masset quantity from the User\n      * @param _bassetQuantities Exact quantities of Bassets to redeem\n      * @param _recipient Account to which the redeemed Bassets should be sent\n      */\n    function redeemBitmapTo(\n        uint32 _bassetsBitmap,\n        uint256[] calldata _bassetQuantities,\n        address _recipient\n    )\n        external\n        returns (uint256 massetRedeemed)\n    {\n        require(_recipient != address(0), \"Recipient must not be 0x0\");\n        uint256 redemptionAssetCount = _bassetQuantities.length;\n\n        // Load only needed bAssets in array\n        (Basset[] memory bAssets, uint8[] memory indexes)\n            = convertBitmapToBassets(_bassetsBitmap, uint8(redemptionAssetCount));\n\n        forgeValidator.validateRedemption(basket.bassets, basket.failed, totalSupply(), indexes, _bassetQuantities);\n\n        uint256 massetQuantity = 0;\n\n        // Calc MassetQ and update the Vault\n        for(uint i = 0; i < redemptionAssetCount; i++){\n            if(_bassetQuantities[i] > 0){\n                uint ratioedBasset = _bassetQuantities[i].mulRatioTruncateCeil(bAssets[i].ratio);\n                massetQuantity = massetQuantity.add(ratioedBasset);\n\n                // bAsset == bAssets[i] == basket.bassets[indexes[i]]\n                basket.bassets[indexes[i]].vaultBalance = bAssets[i].vaultBalance.sub(_bassetQuantities[i]);\n            }\n        }\n\n        // Pay the redemption fee\n        _payRedemptionFee(massetQuantity, msg.sender);\n\n        // Ensure payout is relevant to collateralisation ratio (if ratio is 90%, we burn more)\n        massetQuantity = massetQuantity.divPrecisely(basket.collateralisationRatio);\n\n        // Burn the Masset\n        _burn(msg.sender, massetQuantity);\n\n        // Transfer the Bassets to the user\n        for(uint i = 0; i < redemptionAssetCount; i++){\n            if(_bassetQuantities[i] > 0){\n                require(IERC20(bAssets[i].addr).transfer(_recipient, _bassetQuantities[i]), \"Must be successful transfer\");\n            }\n        }\n\n        emit Redeemed(_recipient, msg.sender, massetQuantity, _bassetQuantities);\n        return massetQuantity;\n    }\n\n    /***************************************\n              REDEMPTION (INTERNAL)\n    ****************************************/\n\n    /**\n      * @dev Redeems a certain quantity of Bassets, in exchange for burning the relative Masset quantity from the User\n      * @param _bassetQuantity Exact quantities of Bassets to redeem\n      * @param _recipient Account to which the redeemed Bassets should be sent\n      */\n    function _redeem(\n        address _basset,\n        uint256 _bassetQuantity,\n        address _recipient\n    )\n        internal\n        returns (uint256 massetRedeemed)\n    {\n        require(_recipient != address(0), \"Recipient must not be 0x0\");\n        require(_bassetQuantity > 0, \"Quantity must not be 0\");\n\n        (bool exists, uint256 i) = _isAssetInBasket(_basset);\n        require(exists, \"bAsset doesn't exist\");\n\n        Basset memory b = basket.bassets[i];\n\n        forgeValidator.validateRedemption(basket.bassets, basket.failed, totalSupply(), i, _bassetQuantity);\n\n        uint256 massetQuantity = _bassetQuantity.mulRatioTruncateCeil(b.ratio);\n\n        basket.bassets[i].vaultBalance = b.vaultBalance.sub(_bassetQuantity);\n\n        // Pay the redemption fee\n        _payRedemptionFee(massetQuantity, msg.sender);\n\n        // Ensure payout is relevant to collateralisation ratio (if ratio is 90%, we burn more)\n        massetQuantity = massetQuantity.divPrecisely(basket.collateralisationRatio);\n\n        // Burn the Masset\n        _burn(msg.sender, massetQuantity);\n\n        // Transfer the Bassets to the user\n        require(IERC20(b.addr).transfer(_recipient, _bassetQuantity), \"Must be successful transfer\");\n\n        emit RedeemedSingle(_recipient, msg.sender, massetQuantity, i, _bassetQuantity);\n        return massetQuantity;\n    }\n    /**\n     * @dev Pay the forging fee by burning Systok\n     * @param _quantity Exact amount of Masset being forged\n     * @param _payer Address who is liable for the fee\n     */\n    function _payRedemptionFee(uint256 _quantity, address _payer)\n    private {\n\n        uint256 feeRate = redemptionFee;\n\n        if(feeRate > 0){\n            (uint256 ownPrice, uint256 systokPrice) = IManager(_manager()).getMassetPrice(address(this));\n\n            // e.g. for 500 massets.\n            // feeRate == 1% == 1e16. _quantity == 5e20.\n            uint256 amountOfMassetSubjectToFee = feeRate.mulTruncate(_quantity);\n\n            // amountOfMassetSubjectToFee == 5e18\n            // ownPrice == $1 == 1e18.\n            uint256 feeAmountInDollars = amountOfMassetSubjectToFee.mulTruncate(ownPrice);\n\n            // feeAmountInDollars == $5 == 5e18\n            // systokPrice == $20 == 20e18\n            // do feeAmount*1e18 / systokPrice\n            uint256 feeAmountInSystok = feeAmountInDollars.divPrecisely(systokPrice);\n\n            // feeAmountInSystok == 0.25e18 == 25e16\n            require(ISystok(_systok()).transferFrom(_payer, feePool, feeAmountInSystok), \"Must be successful fee payment\");\n\n            emit PaidFee(_payer, feeAmountInSystok, feeRate);\n        }\n    }\n\n    /***************************************\n                    HELPERS\n    ****************************************/\n\n    /**\n     * @dev Get bitmap for all bAsset addresses\n     * @return bitmap with bits set according to bAsset address position\n     */\n    function getBitmapForAllBassets() external view returns (uint32 bitmap) {\n        //TODO bassets array should not have more than 32 items\n        for(uint32 i = 0; i < basket.bassets.length; i++) {\n            bitmap |= uint32(2)**i;\n        }\n    }\n\n    /**\n     * @dev Returns the bitmap for given bAssets addresses\n     * @param _bassets bAsset addresses for which bitmap is needed\n     * @return bitmap with bits set according to bAsset address position\n     */\n    function getBitmapFor(address[] calldata _bassets) external view returns (uint32 bitmap) {\n        for(uint32 i = 0; i < _bassets.length; i++) {\n            (bool exist, uint256 idx) = _isAssetInBasket(_bassets[i]);\n            if(exist) bitmap |= uint32(2)**uint8(idx);\n        }\n    }\n\n    /**\n     * @dev Convert bitmap representing bAssets location to bAssets addresses\n     * @param _bitmap bits set in bitmap represents which bAssets to use\n     * @param _size size of bAssets array\n     * @return array of bAssets array\n     */\n    function convertBitmapToBassetsAddress(uint32 _bitmap, uint8 _size) public view returns (address[] memory) {\n        uint8[] memory indexes = _convertBitmapToIndexArr(_bitmap, _size);\n        address[] memory bAssets = new address[](_size);\n        for(uint8 i = 0; i < indexes.length; i++) {\n            bAssets[i] = basket.bassets[indexes[i]].addr;\n        }\n        return bAssets;\n    }\n\n    /**\n     * @dev Convert bitmap representing bAssets location to Bassets array\n     * @param _bitmap bits set in bitmap represents which bAssets to use\n     * @param _size size of bAssets array\n     * @return array of Basset array\n     */\n    function convertBitmapToBassets(\n        uint32 _bitmap,\n        uint8 _size\n    )\n        public\n        view\n        returns (Basset[] memory, uint8[] memory)\n    {\n        uint8[] memory indexes = _convertBitmapToIndexArr(_bitmap, _size);\n        Basset[] memory bAssets = new Basset[](_size);\n        for(uint8 i = 0; i < indexes.length; i++) {\n            bAssets[i] = basket.bassets[indexes[i]];\n        }\n        return (bAssets, indexes);\n    }\n\n\n    /**\n     * @dev Convert the given bitmap into an array representing bAssets index location in the array\n     * @param _bitmap bits set in bitmap represents which bAssets to use\n     * @param _size size of the bassetsQuantity array\n     * @return array having indexes of each bAssets\n     */\n    function _convertBitmapToIndexArr(uint32 _bitmap, uint8 _size) internal view returns (uint8[] memory) {\n        uint8[] memory indexes = new uint8[](_size);\n        uint8 idx = 0;\n        // Assume there are 4 bAssets in array\n        // size = 2\n        // bitmap  = 00000000 00000000 00000000 00001010\n        // mask    = 00000000 00000000 00000000 00001000 //mask for 4th pos\n        //isBitSet = 00000000 00000000 00000000 00001000 //checking 4th pos\n        // indexes = [1, 3]\n        uint256 len = basket.bassets.length;\n        for(uint8 i = 0; i < len; i++) {\n            uint32 mask = uint32(2)**i;\n            uint32 isBitSet = _bitmap & mask;\n            if(isBitSet >= 1) indexes[idx++] = i;\n        }\n        require(idx == _size, \"Found incorrect elements\");\n        return indexes;\n    }\n\n\n    /***************************************\n                  MANAGEMENT\n    ****************************************/\n\n    /**\n      * @dev Completes the auctioning process for a given Basset\n      * @param _basset Address of the ERC20 token to isolate\n      * @param _unitsUnderCollateralised Masset units that we failed to recollateralise\n      */\n    function completeRecol(address _basset, uint256 _unitsUnderCollateralised)\n    external\n    onlyManager {\n        (bool exists, uint i) = _isAssetInBasket(_basset);\n        require(exists, \"Basset must exist in Basket\");\n\n        (, , , , , BassetStatus status) = _getBasset(i);\n        require(status == BassetStatus.Liquidating, \"Invalid Basset state\");\n        basket.bassets[i].maxWeight = 0;\n        basket.bassets[i].vaultBalance = 0;\n\n        if(_unitsUnderCollateralised > 0){\n            uint256 massetSupply = this.totalSupply();\n            // e.g. 1. c = 100e24 * 1e18 = 100e24\n            // e.g. 2. c = 100e24 * 9e17 =  90e24\n            uint256 collateralisedMassets = massetSupply.mulTruncate(basket.collateralisationRatio);\n            // e.g. 1. c = (100e24 - 5e24)*1e18 / 100e24 = 95e42/100e24 = 95e16\n            // e.g. 2. c = ( 90e24 - 5e24)*1e18 / 100e24 = 85e16\n            basket.collateralisationRatio = (collateralisedMassets.sub(_unitsUnderCollateralised)).divPrecisely(massetSupply);\n            basket.bassets[i].status = BassetStatus.Failed;\n            basket.failed = true;\n            _removeBasset(_basset);\n        } else {\n            basket.bassets[i].status = BassetStatus.Liquidated;\n            _removeBasset(_basset);\n        }\n    }\n\n}\n",
  "sourcePath": "/Users/james/mstable/mStable-contracts/contracts/masset/Masset.sol",
  "compiler": {
    "name": "solc",
    "version": "0.5.16+commit.9c3226ce.Emscripten.clang"
  },
  "schemaVersion": "3.0.23",
  "updatedAt": "2020-02-12T09:10:20.781Z",
  "devdoc": {
    "author": "Stability Labs Pty Ltd",
    "details": "Base layer functionality for the Masset",
    "methods": {
      "addBasset(address,bytes32)": {
        "details": "External func to allow the Manager to conduct add operations on the Basket",
        "params": {
          "_basset": "Address of the ERC20 token to add to the Basket",
          "_key": "Bytes32 key that will be used to lookup price in Oracle"
        }
      },
      "addBasset(address,bytes32,uint256)": {
        "details": "External func to allow the Manager to conduct add operations on the Basket",
        "params": {
          "_basset": "Address of the ERC20 token to add to the Basket",
          "_key": "Bytes32 key that will be used to lookup price in Oracle",
          "_measurementMultiple": "MeasurementMultiple of the Basset where 1:1 == 1e8"
        }
      },
      "burn(uint256)": {
        "details": "Destoys `amount` tokens from the caller.     * See `ERC20._burn`."
      },
      "burnFrom(address,uint256)": {
        "details": "See `ERC20._burnFrom`."
      },
      "completeRecol(address,uint256)": {
        "details": "Completes the auctioning process for a given Basset",
        "params": {
          "_basset": "Address of the ERC20 token to isolate",
          "_unitsUnderCollateralised": "Masset units that we failed to recollateralise"
        }
      },
      "constructor": {
        "details": "constructor "
      },
      "convertBitmapToBassets(uint32,uint8)": {
        "details": "Convert bitmap representing bAssets location to Bassets array",
        "params": {
          "_bitmap": "bits set in bitmap represents which bAssets to use",
          "_size": "size of bAssets array"
        },
        "return": "array of Basset array"
      },
      "convertBitmapToBassetsAddress(uint32,uint8)": {
        "details": "Convert bitmap representing bAssets location to bAssets addresses",
        "params": {
          "_bitmap": "bits set in bitmap represents which bAssets to use",
          "_size": "size of bAssets array"
        },
        "return": "array of bAssets array"
      },
      "decimals()": {
        "details": "Returns the number of decimals used to get its user representation."
      },
      "getAllBassetsAddress()": {
        "details": "Get all bAssets addresses",
        "return": "return an array of bAssets addresses"
      },
      "getBasket()": {
        "details": "Get basket details",
        "return": "All the details"
      },
      "getBasset(address)": {
        "details": "Get all basket assets, failing if the Basset does not exist",
        "return": "Struct array of all basket assets"
      },
      "getBassets()": {
        "details": "Get all basket assets",
        "return": "Struct array of all basket assets"
      },
      "getBitmapFor(address[])": {
        "details": "Returns the bitmap for given bAssets addresses",
        "params": {
          "_bassets": "bAsset addresses for which bitmap is needed"
        },
        "return": "bitmap with bits set according to bAsset address position"
      },
      "getBitmapForAllBassets()": {
        "details": "Get bitmap for all bAsset addresses",
        "return": "bitmap with bits set according to bAsset address position"
      },
      "handlePegLoss(address,bool)": {
        "details": "Executes the Auto Redistribution event by isolating the Basset from the Basket",
        "params": {
          "_basset": "Address of the ERC20 token to isolate",
          "_belowPeg": "Bool to describe whether the basset deviated below peg (t) or above (f)"
        },
        "return": "alreadyActioned Bool to show whether a Basset had already been actioned"
      },
      "initiateRecol(address,address)": {
        "details": "Sends the affected Basset off to the Recollateraliser to be auctioned",
        "params": {
          "_basset": "Address of the Basset to isolate",
          "_recollateraliser": "Address of the recollateraliser, to which the tokens should be sent"
        }
      },
      "lockForgeValidator()": {
        "details": "Locks the ForgeValidator into it's final form"
      },
      "mintBitmapTo(uint32,uint256[],address)": {
        "details": "Mint with bAsset addresses in bitmap",
        "params": {
          "_bassetQuantity": "bAsset's quantity to send",
          "_bassetsBitmap": "bAssets index in bitmap"
        },
        "return": "massetMinted returns the number of newly minted mAssets"
      },
      "mintSingle(address,uint256)": {
        "details": "Mint a single bAsset",
        "params": {
          "_basset": "bAsset address to mint",
          "_bassetQuantity": "bAsset quantity to mint"
        },
        "return": "returns the number of newly minted mAssets"
      },
      "mintSingleTo(address,uint256,address)": {
        "details": "Mint a single bAsset",
        "params": {
          "_basset": "bAsset address to mint",
          "_bassetQuantity": "bAsset quantity to mint",
          "_recipient": "receipient of the newly minted mAsset tokens"
        },
        "return": "returns the number of newly minted mAssets"
      },
      "name()": {
        "details": "Returns the name of the token."
      },
      "negatePegLoss(address)": {
        "details": "Negates the isolation of a given Basset",
        "params": {
          "_basset": "Address of the Basset"
        }
      },
      "redeemBitmapTo(uint32,uint256[],address)": {
        "details": "Redeems a certain quantity of Bassets, in exchange for burning the relative Masset quantity from the User",
        "params": {
          "_bassetQuantities": "Exact quantities of Bassets to redeem",
          "_recipient": "Account to which the redeemed Bassets should be sent"
        }
      },
      "redeemSingle(address,uint256)": {
        "details": "Redeems a certain quantity of Bassets, in exchange for burning the relative Masset quantity from the User",
        "params": {
          "_bassetQuantity": "Exact quantities of Bassets to redeem"
        }
      },
      "removeBasset(address)": {
        "details": "Removes a specific Asset from the Basket, given that its target/collateral level is 0 As this is a cleanup operation, anybody should be able to perform this task",
        "params": {
          "_assetToRemove": "The asset to remove from the basket"
        },
        "return": "bool To signify whether the asset was found and removed from the basket"
      },
      "setBasketWeights(address[],uint256[])": {
        "details": "External call to set weightings of a new Basket",
        "params": {
          "_bassets": "Array of Basset addresses",
          "_weights": "Array of Basset weights - summing 100% where 100% == 1e18"
        }
      },
      "setFeePool(address)": {
        "details": "Set the recipient address of forge fees",
        "params": {
          "_feePool": "Address of the fee pool"
        }
      },
      "setRedemptionFee(uint256)": {
        "details": "Set the ecosystem fee for redeeming a masset",
        "params": {
          "_redemptionFee": "Fee calculated in (%/100 * 1e18)"
        }
      },
      "symbol()": {
        "details": "Returns the symbol of the token"
      },
      "upgradeForgeValidator(address)": {
        "details": "Upgrades the version of ForgeValidator protocol",
        "params": {
          "_newForgeValidator": "Address of the new ForgeValidator"
        }
      }
    },
    "title": "Masset"
  },
  "userdoc": {
    "methods": {}
  }
}