{
  "contractName": "MassetBasket",
  "abi": [
    {
      "inputs": [
        {
          "internalType": "address",
          "name": "_nexus",
          "type": "address"
        },
        {
          "internalType": "address[]",
          "name": "_bassets",
          "type": "address[]"
        },
        {
          "internalType": "bytes32[]",
          "name": "_keys",
          "type": "bytes32[]"
        },
        {
          "internalType": "uint256[]",
          "name": "_weights",
          "type": "uint256[]"
        },
        {
          "internalType": "uint256[]",
          "name": "_multiples",
          "type": "uint256[]"
        }
      ],
      "payable": false,
      "stateMutability": "nonpayable",
      "type": "constructor"
    },
    {
      "anonymous": false,
      "inputs": [
        {
          "indexed": true,
          "internalType": "address[]",
          "name": "bassets",
          "type": "address[]"
        },
        {
          "indexed": false,
          "internalType": "uint256[]",
          "name": "maxWeights",
          "type": "uint256[]"
        }
      ],
      "name": "BasketWeightsUpdated",
      "type": "event"
    },
    {
      "anonymous": false,
      "inputs": [
        {
          "indexed": true,
          "internalType": "address",
          "name": "basset",
          "type": "address"
        }
      ],
      "name": "BassetAdded",
      "type": "event"
    },
    {
      "anonymous": false,
      "inputs": [
        {
          "indexed": true,
          "internalType": "address",
          "name": "basset",
          "type": "address"
        }
      ],
      "name": "BassetRemoved",
      "type": "event"
    },
    {
      "anonymous": false,
      "inputs": [
        {
          "indexed": false,
          "internalType": "address",
          "name": "feePool",
          "type": "address"
        }
      ],
      "name": "FeeRecipientChanged",
      "type": "event"
    },
    {
      "anonymous": false,
      "inputs": [
        {
          "indexed": false,
          "internalType": "uint256",
          "name": "fee",
          "type": "uint256"
        }
      ],
      "name": "RedemptionFeeChanged",
      "type": "event"
    },
    {
      "constant": true,
      "inputs": [],
      "name": "Key_Governance",
      "outputs": [
        {
          "internalType": "bytes32",
          "name": "",
          "type": "bytes32"
        }
      ],
      "payable": false,
      "stateMutability": "view",
      "type": "function"
    },
    {
      "constant": true,
      "inputs": [],
      "name": "Key_Manager",
      "outputs": [
        {
          "internalType": "bytes32",
          "name": "",
          "type": "bytes32"
        }
      ],
      "payable": false,
      "stateMutability": "view",
      "type": "function"
    },
    {
      "constant": true,
      "inputs": [],
      "name": "Key_Nexus",
      "outputs": [
        {
          "internalType": "bytes32",
          "name": "",
          "type": "bytes32"
        }
      ],
      "payable": false,
      "stateMutability": "view",
      "type": "function"
    },
    {
      "constant": true,
      "inputs": [],
      "name": "Key_OracleHub",
      "outputs": [
        {
          "internalType": "bytes32",
          "name": "",
          "type": "bytes32"
        }
      ],
      "payable": false,
      "stateMutability": "view",
      "type": "function"
    },
    {
      "constant": true,
      "inputs": [],
      "name": "Key_Recollateraliser",
      "outputs": [
        {
          "internalType": "bytes32",
          "name": "",
          "type": "bytes32"
        }
      ],
      "payable": false,
      "stateMutability": "view",
      "type": "function"
    },
    {
      "constant": true,
      "inputs": [],
      "name": "Key_Staking",
      "outputs": [
        {
          "internalType": "bytes32",
          "name": "",
          "type": "bytes32"
        }
      ],
      "payable": false,
      "stateMutability": "view",
      "type": "function"
    },
    {
      "constant": true,
      "inputs": [],
      "name": "Key_Systok",
      "outputs": [
        {
          "internalType": "bytes32",
          "name": "",
          "type": "bytes32"
        }
      ],
      "payable": false,
      "stateMutability": "view",
      "type": "function"
    },
    {
      "constant": true,
      "inputs": [],
      "name": "basket",
      "outputs": [
        {
          "internalType": "bool",
          "name": "failed",
          "type": "bool"
        },
        {
          "internalType": "uint256",
          "name": "collateralisationRatio",
          "type": "uint256"
        }
      ],
      "payable": false,
      "stateMutability": "view",
      "type": "function"
    },
    {
      "constant": true,
      "inputs": [],
      "name": "feePool",
      "outputs": [
        {
          "internalType": "address",
          "name": "",
          "type": "address"
        }
      ],
      "payable": false,
      "stateMutability": "view",
      "type": "function"
    },
    {
      "constant": true,
      "inputs": [],
      "name": "forgeValidator",
      "outputs": [
        {
          "internalType": "contract IForgeValidator",
          "name": "",
          "type": "address"
        }
      ],
      "payable": false,
      "stateMutability": "view",
      "type": "function"
    },
    {
      "constant": false,
      "inputs": [],
      "name": "lockForgeValidator",
      "outputs": [],
      "payable": false,
      "stateMutability": "nonpayable",
      "type": "function"
    },
    {
      "constant": true,
      "inputs": [],
      "name": "measurementMultipleEnabled",
      "outputs": [
        {
          "internalType": "bool",
          "name": "",
          "type": "bool"
        }
      ],
      "payable": false,
      "stateMutability": "view",
      "type": "function"
    },
    {
      "constant": true,
      "inputs": [],
      "name": "nexus",
      "outputs": [
        {
          "internalType": "contract INexus",
          "name": "",
          "type": "address"
        }
      ],
      "payable": false,
      "stateMutability": "view",
      "type": "function"
    },
    {
      "constant": true,
      "inputs": [],
      "name": "redemptionFee",
      "outputs": [
        {
          "internalType": "uint256",
          "name": "",
          "type": "uint256"
        }
      ],
      "payable": false,
      "stateMutability": "view",
      "type": "function"
    },
    {
      "constant": false,
      "inputs": [
        {
          "internalType": "address",
          "name": "_feePool",
          "type": "address"
        }
      ],
      "name": "setFeePool",
      "outputs": [],
      "payable": false,
      "stateMutability": "nonpayable",
      "type": "function"
    },
    {
      "constant": false,
      "inputs": [
        {
          "internalType": "uint256",
          "name": "_redemptionFee",
          "type": "uint256"
        }
      ],
      "name": "setRedemptionFee",
      "outputs": [],
      "payable": false,
      "stateMutability": "nonpayable",
      "type": "function"
    },
    {
      "constant": false,
      "inputs": [
        {
          "internalType": "address",
          "name": "_newForgeValidator",
          "type": "address"
        }
      ],
      "name": "upgradeForgeValidator",
      "outputs": [],
      "payable": false,
      "stateMutability": "nonpayable",
      "type": "function"
    },
    {
      "constant": false,
      "inputs": [
        {
          "internalType": "address",
          "name": "_basset",
          "type": "address"
        },
        {
          "internalType": "bool",
          "name": "_belowPeg",
          "type": "bool"
        }
      ],
      "name": "handlePegLoss",
      "outputs": [
        {
          "internalType": "bool",
          "name": "alreadyActioned",
          "type": "bool"
        }
      ],
      "payable": false,
      "stateMutability": "nonpayable",
      "type": "function"
    },
    {
      "constant": false,
      "inputs": [
        {
          "internalType": "address",
          "name": "_basset",
          "type": "address"
        }
      ],
      "name": "negatePegLoss",
      "outputs": [],
      "payable": false,
      "stateMutability": "nonpayable",
      "type": "function"
    },
    {
      "constant": false,
      "inputs": [
        {
          "internalType": "address",
          "name": "_basset",
          "type": "address"
        },
        {
          "internalType": "address",
          "name": "_recollateraliser",
          "type": "address"
        }
      ],
      "name": "initiateRecol",
      "outputs": [],
      "payable": false,
      "stateMutability": "nonpayable",
      "type": "function"
    },
    {
      "constant": false,
      "inputs": [
        {
          "internalType": "address",
          "name": "_basset",
          "type": "address"
        },
        {
          "internalType": "bytes32",
          "name": "_key",
          "type": "bytes32"
        },
        {
          "internalType": "uint256",
          "name": "_measurementMultiple",
          "type": "uint256"
        }
      ],
      "name": "addBasset",
      "outputs": [],
      "payable": false,
      "stateMutability": "nonpayable",
      "type": "function"
    },
    {
      "constant": false,
      "inputs": [
        {
          "internalType": "address",
          "name": "_basset",
          "type": "address"
        },
        {
          "internalType": "bytes32",
          "name": "_key",
          "type": "bytes32"
        }
      ],
      "name": "addBasset",
      "outputs": [],
      "payable": false,
      "stateMutability": "nonpayable",
      "type": "function"
    },
    {
      "constant": false,
      "inputs": [
        {
          "internalType": "address",
          "name": "_assetToRemove",
          "type": "address"
        }
      ],
      "name": "removeBasset",
      "outputs": [
        {
          "internalType": "bool",
          "name": "removed",
          "type": "bool"
        }
      ],
      "payable": false,
      "stateMutability": "nonpayable",
      "type": "function"
    },
    {
      "constant": false,
      "inputs": [
        {
          "internalType": "address[]",
          "name": "_bassets",
          "type": "address[]"
        },
        {
          "internalType": "uint256[]",
          "name": "_weights",
          "type": "uint256[]"
        }
      ],
      "name": "setBasketWeights",
      "outputs": [],
      "payable": false,
      "stateMutability": "nonpayable",
      "type": "function"
    },
    {
      "constant": true,
      "inputs": [],
      "name": "getBasket",
      "outputs": [
        {
          "internalType": "address[]",
          "name": "expiredBassets",
          "type": "address[]"
        },
        {
          "internalType": "bool",
          "name": "failed",
          "type": "bool"
        },
        {
          "internalType": "uint256",
          "name": "collateralisationRatio",
          "type": "uint256"
        }
      ],
      "payable": false,
      "stateMutability": "view",
      "type": "function"
    },
    {
      "constant": true,
      "inputs": [],
      "name": "getBassets",
      "outputs": [
        {
          "internalType": "address[]",
          "name": "addresses",
          "type": "address[]"
        },
        {
          "internalType": "bytes32[]",
          "name": "keys",
          "type": "bytes32[]"
        },
        {
          "internalType": "uint256[]",
          "name": "ratios",
          "type": "uint256[]"
        },
        {
          "internalType": "uint256[]",
          "name": "targets",
          "type": "uint256[]"
        },
        {
          "internalType": "uint256[]",
          "name": "vaults",
          "type": "uint256[]"
        },
        {
          "internalType": "enum MassetStructs.BassetStatus[]",
          "name": "statuses",
          "type": "uint8[]"
        }
      ],
      "payable": false,
      "stateMutability": "view",
      "type": "function"
    },
    {
      "constant": true,
      "inputs": [
        {
          "internalType": "address",
          "name": "_basset",
          "type": "address"
        }
      ],
      "name": "getBasset",
      "outputs": [
        {
          "internalType": "address",
          "name": "addr",
          "type": "address"
        },
        {
          "internalType": "bytes32",
          "name": "key",
          "type": "bytes32"
        },
        {
          "internalType": "uint256",
          "name": "ratio",
          "type": "uint256"
        },
        {
          "internalType": "uint256",
          "name": "maxWeight",
          "type": "uint256"
        },
        {
          "internalType": "uint256",
          "name": "vaultBalance",
          "type": "uint256"
        },
        {
          "internalType": "enum MassetStructs.BassetStatus",
          "name": "status",
          "type": "uint8"
        }
      ],
      "payable": false,
      "stateMutability": "view",
      "type": "function"
    },
    {
      "constant": true,
      "inputs": [],
      "name": "getAllBassetsAddress",
      "outputs": [
        {
          "internalType": "address[]",
          "name": "",
          "type": "address[]"
        }
      ],
      "payable": false,
      "stateMutability": "view",
      "type": "function"
    }
  ],
  "bytecode": "0x60806040526001805460ff60a01b191690553480156200001e57600080fd5b506040516200407f3803806200407f833981016040819052620000419162000ad2565b600080546001600160a01b0319166001600160a01b0387161790558351620000865760405162461bcd60e51b81526004016200007d9062001169565b60405180910390fd5b80516009805460ff1916911515919091179055670de0b6b3a764000060085566470de4df82000060035560005b8451811015620001425762000139858281518110620000ce57fe5b6020026020010151858381518110620000e357fe5b602090810291909101015160095460ff1662000114576200010e6200016360201b62001aae1760201c565b6200012a565b8484815181106200012157fe5b60200260200101515b6001600160e01b036200016b16565b600101620000b3565b506200015884836001600160e01b03620003de16565b505050505062001302565b6305f5e10090565b6001600160a01b038316620001945760405162461bcd60e51b81526004016200007d90620011e7565b6000620001aa846001600160e01b036200065516565b5090508015620001ce5760405162461bcd60e51b81526004016200007d90620011f9565b6000620001e685620006d560201b62001b061760201c565b90506000620002058260126200079d60201b62001bbc1790919060201c565b905060006200022682600a0a86620007c860201b62001be41790919060201c565b600480546001600160a01b038a81166000818152600560208181526040808420879055805160c0810182529485529084018e8152908401888152606085018481526080860185815260a087018681526001808b01808d559b90975287517f8a35acfbc15ff81a39ae7d344fd709f28e8600b4aa8c65c6b64bfe7fe36bd19b6006909b029a8b0180546001600160a01b03191691909a1617895593517f8a35acfbc15ff81a39ae7d344fd709f28e8600b4aa8c65c6b64bfe7fe36bd19c8a015591517f8a35acfbc15ff81a39ae7d344fd709f28e8600b4aa8c65c6b64bfe7fe36bd19d890155517f8a35acfbc15ff81a39ae7d344fd709f28e8600b4aa8c65c6b64bfe7fe36bd19e880155517f8a35acfbc15ff81a39ae7d344fd709f28e8600b4aa8c65c6b64bfe7fe36bd19f870155517f8a35acfbc15ff81a39ae7d344fd709f28e8600b4aa8c65c6b64bfe7fe36bd1a09095018054979850959692959394939260ff1916919084908111156200039957fe5b0217905550506040516001600160a01b038a1692507fa83f9302fa4684335dd26b1bdd925929618565fa0f22bd9e91ab01753d8bf13c9150600090a250505050505050565b815181518114620004035760405162461bcd60e51b81526004016200007d9062001133565b6004548114620004275760405162461bcd60e51b81526004016200007d906200118d565b60006200043f836200080f60201b62001ab61760201c565b9050620004566200085e60201b62001afa1760201c565b811015620004785760405162461bcd60e51b81526004016200007d90620011c3565b60005b82811015620005fd5760008582815181106200049357fe5b6020026020010151905060046000018281548110620004ae57fe5b60009182526020909120600690910201546001600160a01b03828116911614620004ec5760405162461bcd60e51b81526004016200007d90620011d5565b6000858381518110620004fb57fe5b60200260200101519050600060058111156200051357fe5b60048054859081106200052257fe5b60009182526020909120600560069092020181015460ff16908111156200054557fe5b1415620005b057620005616200085e60201b62001afa1760201c565b811115620005835760405162461bcd60e51b81526004016200007d9062001121565b80600460000184815481106200059557fe5b906000526020600020906006020160030181905550620005f2565b6004805484908110620005bf57fe5b9060005260206000209060060201600301548114620005f25760405162461bcd60e51b81526004016200007d90620011b1565b50506001016200047b565b50836040516200060e9190620010f2565b60405180910390207fbe2adf2902216365c5c656d48909da65fad401f809e4351cdbcfcac406745669846040516200064791906200110e565b60405180910390a250505050565b6001600160a01b03811660009081526005602052604081205480620006cb576004546200068857506000905080620006d0565b826001600160a01b03166004600001600081548110620006a457fe5b600091825260208220600690910201546001600160a01b03169190911492509050620006d0565b600191505b915091565b60408051600481526024810182526020810180516001600160e01b031663313ce56760e01b179052905160009182916001600160a01b038516916200071a9162001100565b6000604051808303816000865af19150503d806000811462000759576040519150601f19603f3d011682016040523d82523d6000602084013e6200075e565b606091505b5050905080620007825760405162461bcd60e51b81526004016200007d9062001157565b62000796836001600160e01b036200086a16565b9392505050565b600082821115620007c25760405162461bcd60e51b81526004016200007d906200120b565b50900390565b600082620007d95750600062000809565b5081810281838281620007e857fe5b0414620008095760405162461bcd60e51b81526004016200007d9062001145565b92915050565b80516000908190815b818110156200085557600062000849848784815181106200083557fe5b60200260200101516200090a60201b60201c565b93505060010162000818565b50909392505050565b670de0b6b3a764000090565b600080826001600160a01b031663313ce5676040518163ffffffff1660e01b815260040160206040518083038186803b158015620008a757600080fd5b505afa158015620008bc573d6000803e3d6000fd5b505050506040513d601f19601f82011682018060405250620008e2919081019062000bb2565b60ff16905060008111620008095760405162461bcd60e51b81526004016200007d906200119f565b80820182811015620008095760405162461bcd60e51b81526004016200007d906200117b565b80516200080981620012d2565b600082601f8301126200094f57600080fd5b815162000966620009608262001244565b6200121d565b915081818352602084019350602081019050838560208402820111156200098c57600080fd5b60005b83811015620009bc5781620009a5888262000930565b84525060209283019291909101906001016200098f565b5050505092915050565b600082601f830112620009d857600080fd5b8151620009e9620009608262001244565b9150818183526020840193506020810190508385602084028201111562000a0f57600080fd5b60005b83811015620009bc578162000a28888262000ab8565b845250602092830192919091019060010162000a12565b600082601f83011262000a5157600080fd5b815162000a62620009608262001244565b9150818183526020840193506020810190508385602084028201111562000a8857600080fd5b60005b83811015620009bc578162000aa1888262000ab8565b845250602092830192919091019060010162000a8b565b80516200080981620012ec565b80516200080981620012f7565b600080600080600060a0868803121562000aeb57600080fd5b600062000af9888862000930565b95505060208601516001600160401b0381111562000b1657600080fd5b62000b24888289016200093d565b94505060408601516001600160401b0381111562000b4157600080fd5b62000b4f88828901620009c6565b93505060608601516001600160401b0381111562000b6c57600080fd5b62000b7a8882890162000a3f565b92505060808601516001600160401b0381111562000b9757600080fd5b62000ba58882890162000a3f565b9150509295509295909350565b60006020828403121562000bc557600080fd5b600062000bd3848462000ac5565b949350505050565b600062000be9838362000bff565b505060200190565b600062000be98383620010e7565b62000c0a816200127d565b82525050565b600062000c1d826200126b565b62000c2981856200126f565b935062000c368362001265565b8060005b8381101562000c6a57815162000c51888262000bdb565b975062000c5e8362001265565b92505060010162000c3a565b509495945050505050565b600062000c82826200126b565b62000c8e818562001274565b935062000c9b8362001265565b8060005b8381101562000c6a57815162000cb6888262000bf1565b975062000cc38362001265565b92505060010162000c9f565b600062000cdc826200126b565b62000ce881856200126f565b935062000cfa8185602086016200129f565b9290920192915050565b600062000d13602c8362001274565b7f417373657420776569676874206d757374206265206c657373207468616e206f81526b7220657175616c20746f203160a01b602082015260400192915050565b600062000d6360238362001274565b7f4d757374206265206d61746368696e672062617373657420646174612061727281526261797360e81b602082015260400192915050565b600062000daa60238362001274565b7f537461626c654d6174683a206d756c7469706c69636174696f6e206f766572668152626c6f7760e81b602082015260400192915050565b600062000df160248362001274565b7f546f6b656e20636f6e7472616374206d75737420737570706f727420646563698152636d616c7360e01b602082015260400192915050565b600062000e39602c8362001274565b7f4d75737420696e697469616c69736520746865206261736b657420776974682081526b736f6d65206241737365747360a01b602082015260400192915050565b600062000e8960118362001274565b704d757374206e6f74206f766572666c6f7760781b815260200192915050565b600062000eb860278362001274565b7f4d757374206265206d61746368696e67206578697374696e67206261736b6574815266081b185e5bdd5d60ca1b602082015260400192915050565b600062000f0360298362001274565b7f546f6b656e206d75737420686176652031206f72206d6f726520646563696d618152683610383630b1b2b99760b91b602082015260400192915050565b600062000f50602e8362001274565b7f43616e6e6f74206368616e676520776569676874696e677320666f722073756681526d666572696e67204261737365747360901b602082015260400192915050565b600062000fa260248362001274565b7f4261736b657420776569676874206d75737420746f74616c203e2031303025208152633d3d203160e01b602082015260400192915050565b600062000fea60288362001274565b7f426173736574206d75737420626520726570726573656e7465642073796d6d6581526774726963616c6c7960c01b602082015260400192915050565b600062001036601c8362001274565b7f41737365742061646472657373206d7573742062652076616c69642e00000000815260200192915050565b60006200107160268362001274565b7f41737365742063616e6e6f7420616c726561647920626520696e20746865206281526530b9b5b2ba1760d11b602082015260400192915050565b6000620010bb60208362001274565b7f537461626c654d6174683a207375627472616374696f6e206f766572666c6f77815260200192915050565b62000c0a816200128a565b600062000796828462000c10565b600062000796828462000ccf565b6020808252810162000796818462000c75565b60208082528101620008098162000d04565b60208082528101620008098162000d54565b60208082528101620008098162000d9b565b60208082528101620008098162000de2565b60208082528101620008098162000e2a565b60208082528101620008098162000e7a565b60208082528101620008098162000ea9565b60208082528101620008098162000ef4565b60208082528101620008098162000f41565b60208082528101620008098162000f93565b60208082528101620008098162000fdb565b60208082528101620008098162001027565b60208082528101620008098162001062565b602080825281016200080981620010ac565b6040518181016001600160401b03811182821017156200123c57600080fd5b604052919050565b60006001600160401b038211156200125b57600080fd5b5060209081020190565b60200190565b5190565b919050565b90815260200190565b600062000809826200128d565b90565b6001600160a01b031690565b60ff1690565b60005b83811015620012bc578181015183820152602001620012a2565b83811115620012cc576000848401525b50505050565b620012dd816200127d565b8114620012e957600080fd5b50565b620012dd816200128a565b620012dd8162001299565b612d6d80620013126000396000f3fe608060405234801561001057600080fd5b50600436106101c45760003560e01c8063905e8914116100f9578063b97e0ac611610097578063e551784111610071578063e551784114610376578063edc832b31461037e578063f3bdedd214610394578063fefd2c1c1461039c576101c4565b8063b97e0ac61461034f578063cd6ef2b014610357578063d7d522661461036e576101c4565b8063a78ed11c116100d3578063a78ed11c14610317578063a962527a1461031f578063ae2e933b14610332578063ae2efd9114610347576101c4565b8063905e8914146102dc57806396c1139f146102ef578063a3f5c1d214610302576101c4565b8063458f5815116101665780635eae58b9116101405780635eae58b9146102a65780637b4aec79146102ae5780637dbc1df0146102b65780638904b556146102c9576101c4565b8063458f58151461028157806350cf430c146102895780635d864ced1461029e576101c4565b806319db2228116101a257806319db22281461021c5780631d3ce3981461022f57806326bbe60a146102495780633e37bcbc1461025c576101c4565b806309f2a983146101c95780630aa8d59a146101f25780630b2d850114610207575b600080fd5b6101dc6101d7366004611d99565b6103af565b6040516101e99190612a52565b60405180910390f35b6101fa610428565b6040516101e99190612a6e565b61021a610215366004611ec4565b610436565b005b61021a61022a366004611d99565b610504565b6102376105c9565b6040516101e996959493929190612993565b61021a610257366004611d99565b6107b6565b61026f61026a366004611d99565b610871565b6040516101e99695949392919061290d565b6101fa6108c6565b6102916108cc565b6040516101e99190612982565b61021a61096c565b6101fa6109ca565b6101fa6109d7565b61021a6102c4366004611f52565b6109e5565b61021a6102d7366004611d99565b610a8b565b6101dc6102ea366004611e17565b610bab565b61021a6102fd366004611e77565b610d0b565b61030a610d93565b6040516101e99190612a7c565b6101dc610da2565b61021a61032d366004611e47565b610dab565b61033a610e3f565b6040516101e991906128ff565b6101fa610e4e565b6101fa610e65565b61035f610e75565b6040516101e993929190612a14565b61030a610ef1565b6101fa610f00565b610386610f0c565b6040516101e9929190612a60565b6101fa610f1b565b61021a6103aa366004611ddd565b610f2c565b60075460009060ff16156103de5760405162461bcd60e51b81526004016103d590612c0a565b60405180910390fd5b6103e661111c565b6001600160a01b0316336001600160a01b0316146104165760405162461bcd60e51b81526004016103d590612aea565b61041f826111a8565b5060015b919050565b665374616b696e6760c81b81565b61043e61111c565b6001600160a01b0316336001600160a01b03161461046e5760405162461bcd60e51b81526004016103d590612aea565b60075460ff16156104915760405162461bcd60e51b81526004016103d590612c0a565b6104fe8484808060200260200160405190810160405280939291908181526020018383602002808284376000920191909152505060408051602080880282810182019093528782529093508792508691829185019084908082843760009201919091525061145192505050565b50505050565b3361050d61167f565b6001600160a01b0316148061053157503361052661111c565b6001600160a01b0316145b61054d5760405162461bcd60e51b81526004016103d590612bba565b6001600160a01b0381166105735760405162461bcd60e51b81526004016103d590612bca565b600280546001600160a01b0319166001600160a01b0383161790556040517f167cccccc6e9b2892a740ec13fc1e51d3de8ea384f25bd87fee7412d588637e2906105be9083906128ff565b60405180910390a150565b60045460408051828152602080840282010190915260609182918291829182918291818015610602578160200160208202803883390190505b5096508060405190808252806020026020018201604052801561062f578160200160208202803883390190505b5095508060405190808252806020026020018201604052801561065c578160200160208202803883390190505b50945080604051908082528060200260200182016040528015610689578160200160208202803883390190505b509350806040519080825280602002602001820160405280156106b6578160200160208202803883390190505b509250806040519080825280602002602001820160405280156106e3578160200160208202803883390190505b50915060005b818110156107ac576106fa816116d2565b8d878151811061070657fe5b602002602001018d888151811061071957fe5b602002602001018d898151811061072c57fe5b602002602001018d8a8151811061073f57fe5b602002602001018d8b8151811061075257fe5b602002602001018d8c8151811061076557fe5b6020026020010186600581111561077857fe5b600581111561078357fe5b9052959095529490935293909252929092526001600160a01b03909216909152506001016106e9565b5050909192939495565b336107bf61167f565b6001600160a01b031614806107e35750336107d861111c565b6001600160a01b0316145b6107ff5760405162461bcd60e51b81526004016103d590612bba565b600154600160a01b900460ff16156108295760405162461bcd60e51b81526004016103d590612b1a565b6001600160a01b03811661084f5760405162461bcd60e51b81526004016103d590612b0a565b600180546001600160a01b0319166001600160a01b0392909216919091179055565b600080600080600080600080610886896117a0565b91509150816108a75760405162461bcd60e51b81526004016103d590612bfa565b6108b0816116d2565b949e939d50919b50995097509095509350505050565b60035481565b6004546040805182815260208084028201019091526060919082908280156108fe578160200160208202803883390190505b50905060005b8281101561096557600480548290811061091a57fe5b600091825260209091206006909102015482516001600160a01b039091169083908390811061094557fe5b6001600160a01b0390921660209283029190910190910152600101610904565b5091505090565b3361097561167f565b6001600160a01b0316148061099957503361098e61111c565b6001600160a01b0316145b6109b55760405162461bcd60e51b81526004016103d590612bba565b6001805460ff60a01b1916600160a01b179055565b65537973746f6b60d01b81565b6626b0b730b3b2b960c91b81565b336109ee61167f565b6001600160a01b03161480610a12575033610a0761111c565b6001600160a01b0316145b610a2e5760405162461bcd60e51b81526004016103d590612bba565b6702c68af0bb140000811115610a565760405162461bcd60e51b81526004016103d590612aaa565b60038190556040517f4dbf9634a3aaf3bc15ab627faeaac7c6b0a4754ead77206f1c11277356f2878f906105be908390612a6e565b610a9361167f565b6001600160a01b0316336001600160a01b031614610ac35760405162461bcd60e51b81526004016103d590612c3a565b600080610acf836117a0565b9150915081610af05760405162461bcd60e51b81526004016103d590612b6a565b60016004805483908110610b0057fe5b60009182526020909120600560069092020181015460ff1690811115610b2257fe5b1480610b5d575060026004805483908110610b3957fe5b60009182526020909120600560069092020181015460ff1690811115610b5b57fe5b145b15610ba657600060046000018281548110610b7457fe5b906000526020600020906006020160050160006101000a81548160ff02191690836005811115610ba057fe5b02179055505b505050565b6000610bb561167f565b6001600160a01b0316336001600160a01b031614610be55760405162461bcd60e51b81526004016103d590612c3a565b60075460ff1615610c085760405162461bcd60e51b81526004016103d590612c0a565b600080610c14856117a0565b9150915081610c355760405162461bcd60e51b81526004016103d590612b6a565b600060046000018281548110610c4757fe5b6000918252602082206005600690920201015460ff16915085610c6b576002610c6e565b60015b9050806005811115610c7c57fe5b826005811115610c8857fe5b1480610c985750610c988261181b565b15610caa576001945050505050610d05565b8060046000018481548110610cbb57fe5b906000526020600020906006020160050160006101000a81548160ff02191690836005811115610ce757fe5b02179055506001816005811115610cfa57fe5b505060009450505050505b92915050565b610d1361111c565b6001600160a01b0316336001600160a01b031614610d435760405162461bcd60e51b81526004016103d590612aea565b60075460ff1615610d665760405162461bcd60e51b81526004016103d590612c0a565b60095460ff16610d885760405162461bcd60e51b81526004016103d590612baa565b610ba683838361186d565b6000546001600160a01b031681565b60095460ff1681565b610db361111c565b6001600160a01b0316336001600160a01b031614610de35760405162461bcd60e51b81526004016103d590612aea565b60075460ff1615610e065760405162461bcd60e51b81526004016103d590612c0a565b60095460ff1615610e295760405162461bcd60e51b81526004016103d590612baa565b610e3b8282610e36611aae565b61186d565b5050565b6002546001600160a01b031681565b6f2932b1b7b63630ba32b930b634b9b2b960811b81565b6827b930b1b632a43ab160b91b81565b600754600854600680546040805160208084028201810190925282815260609560009586959460ff909216939092918591830182828015610edf57602002820191906000526020600020905b81546001600160a01b03168152600190910190602001808311610ec1575b50505050509250925092509250909192565b6001546001600160a01b031681565b644e6578757360d81b81565b60075460085460ff9091169082565b69476f7665726e616e636560b01b81565b610f3461167f565b6001600160a01b0316336001600160a01b031614610f645760405162461bcd60e51b81526004016103d590612c3a565b60075460ff1615610f875760405162461bcd60e51b81526004016103d590612c0a565b600080610f93846117a0565b9150915081610fb45760405162461bcd60e51b81526004016103d590612b6a565b600080610fc0836116d2565b9550955050505050610fd18161181b565b15610fee5760405162461bcd60e51b81526004016103d590612ada565b6000821161100e5760405162461bcd60e51b81526004016103d590612c4a565b60036004600001848154811061102057fe5b906000526020600020906006020160050160006101000a81548160ff0219169083600581111561104c57fe5b021790555060006004600001848154811061106357fe5b906000526020600020906006020160040181905550856001600160a01b031663095ea7b386846040518363ffffffff1660e01b81526004016110a6929190612967565b602060405180830381600087803b1580156110c057600080fd5b505af11580156110d4573d6000803e3d6000fd5b505050506040513d601f19601f820116820180604052506110f89190810190611f34565b6111145760405162461bcd60e51b81526004016103d590612b3a565b505050505050565b60008060009054906101000a90046001600160a01b03166001600160a01b0316630c340a246040518163ffffffff1660e01b815260040160206040518083038186803b15801561116b57600080fd5b505afa15801561117f573d6000803e3d6000fd5b505050506040513d601f19601f820116820180604052506111a39190810190611dbf565b905090565b6000806111b4836117a0565b91509150816111d55760405162461bcd60e51b81526004016103d590612b5a565b6004546111e0611cdb565b60048054849081106111ee57fe5b60009182526020918290206040805160c081018252600690930290910180546001600160a01b03168352600181015493830193909352600283015490820152600382015460608201526004820154608082015260058083015491929160a084019160ff9091169081111561125e57fe5b600581111561126957fe5b9052506080810151909150156112915760405162461bcd60e51b81526004016103d590612bea565b60038160a0015160058111156112a357fe5b14156112c15760405162461bcd60e51b81526004016103d590612bda565b6004805460001984019081106112d357fe5b9060005260206000209060060201600460000184815481106112f157fe5b60009182526020909120825460069092020180546001600160a01b0319166001600160a01b0390921691909117815560018083015481830155600280840154908301556003808401549083015560048084015490830155600580840154818401805460ff90921693909260ff1990921691849081111561136d57fe5b021790555050600480549091508061138157fe5b60008281526020808220600660001990940184810290910180546001600160a01b0319908116825560018281018690556002830186905560038301869055600483018690556005928301805460ff19169055929096556001600160a01b038b1680855292526040808420849055845491820185559383527ff652222313e28459528d920b65115c16c04f3efc82aaedc97be59f3f377c0d3f018054909416811790935590517f1e5281bbecf5c15104f9e35265dbe738c1cd2597613cbf4a0a51713448bc13b99190a25050505050565b8151815181146114735760405162461bcd60e51b81526004016103d590612a9a565b60045481146114945760405162461bcd60e51b81526004016103d590612b2a565b600061149f83611ab6565b90506114a9611afa565b8110156114c85760405162461bcd60e51b81526004016103d590612b8a565b60005b8281101561162b5760008582815181106114e157fe5b60200260200101519050600460000182815481106114fb57fe5b60009182526020909120600690910201546001600160a01b038281169116146115365760405162461bcd60e51b81526004016103d590612b9a565b600085838151811061154457fe5b602002602001015190506000600581111561155b57fe5b600480548590811061156957fe5b60009182526020909120600560069092020181015460ff169081111561158b57fe5b14156115e357611599611afa565b8111156115b85760405162461bcd60e51b81526004016103d590612a8a565b80600460000184815481106115c957fe5b906000526020600020906006020160030181905550611621565b60048054849081106115f157fe5b90600052602060002090600602016003015481146116215760405162461bcd60e51b81526004016103d590612b7a565b50506001016114cb565b508360405161163a91906128e7565b60405180910390207fbe2adf2902216365c5c656d48909da65fad401f809e4351cdbcfcac406745669846040516116719190612a41565b60405180910390a250505050565b600080546040516385acd64160e01b81526001600160a01b03909116906385acd641906116ba906626b0b730b3b2b960c91b90600401612a6e565b60206040518083038186803b15801561116b57600080fd5b6000806000806000806116e3611cdb565b60048054899081106116f157fe5b60009182526020918290206040805160c081018252600690930290910180546001600160a01b03168352600181015493830193909352600283015490820152600382015460608201526004820154608082015260058083015491929160a084019160ff9091169081111561176157fe5b600581111561176c57fe5b9052508051602082015160408301516060840151608085015160a090950151939d929c50909a509850919650945092505050565b6001600160a01b03811660009081526005602052604081205480611811576004546117d057506000905080611816565b826001600160a01b031660046000016000815481106117eb57fe5b600091825260208220600690910201546001600160a01b03169190911492509050611816565b600191505b915091565b6000600382600581111561182b57fe5b14806118425750600482600581111561184057fe5b145b806118585750600582600581111561185657fe5b145b1561186557506001610423565b506000919050565b6001600160a01b0383166118935760405162461bcd60e51b81526004016103d590612c1a565b600061189e846117a0565b50905080156118bf5760405162461bcd60e51b81526004016103d590612c2a565b60006118ca85611b06565b905060006118df60128363ffffffff611bbc16565b905060006118f785600a84900a63ffffffff611be416565b600480546001600160a01b038a81166000818152600560208181526040808420879055805160c0810182529485529084018e8152908401888152606085018481526080860185815260a087018681526001808b01808d559b90975287517f8a35acfbc15ff81a39ae7d344fd709f28e8600b4aa8c65c6b64bfe7fe36bd19b6006909b029a8b0180546001600160a01b03191691909a1617895593517f8a35acfbc15ff81a39ae7d344fd709f28e8600b4aa8c65c6b64bfe7fe36bd19c8a015591517f8a35acfbc15ff81a39ae7d344fd709f28e8600b4aa8c65c6b64bfe7fe36bd19d890155517f8a35acfbc15ff81a39ae7d344fd709f28e8600b4aa8c65c6b64bfe7fe36bd19e880155517f8a35acfbc15ff81a39ae7d344fd709f28e8600b4aa8c65c6b64bfe7fe36bd19f870155517f8a35acfbc15ff81a39ae7d344fd709f28e8600b4aa8c65c6b64bfe7fe36bd1a09095018054979850959692959394939260ff191691908490811115611a6957fe5b0217905550506040516001600160a01b038a1692507fa83f9302fa4684335dd26b1bdd925929618565fa0f22bd9e91ab01753d8bf13c9150600090a250505050505050565b6305f5e10090565b80516000908190815b81811015611af1576000611ae684878481518110611ad957fe5b6020026020010151611c1f565b935050600101611abf565b50909392505050565b670de0b6b3a764000090565b60408051600481526024810182526020810180516001600160e01b031663313ce56760e01b179052905160009182916001600160a01b03851691611b49916128f3565b6000604051808303816000865af19150503d8060008114611b86576040519150601f19603f3d011682016040523d82523d6000602084013e611b8b565b606091505b5050905080611bac5760405162461bcd60e51b81526004016103d590612aca565b611bb583611c42565b9392505050565b600082821115611bde5760405162461bcd60e51b81526004016103d590612c5a565b50900390565b600082611bf357506000610d05565b5081810281838281611c0157fe5b0414610d055760405162461bcd60e51b81526004016103d590612aba565b80820182811015610d055760405162461bcd60e51b81526004016103d590612afa565b600080826001600160a01b031663313ce5676040518163ffffffff1660e01b815260040160206040518083038186803b158015611c7e57600080fd5b505afa158015611c92573d6000803e3d6000fd5b505050506040513d601f19601f82011682018060405250611cb69190810190611f70565b60ff16905060008111610d055760405162461bcd60e51b81526004016103d590612b4a565b6040805160c08101825260008082526020820181905291810182905260608101829052608081018290529060a082015290565b8035610d0581612cfb565b8051610d0581612cfb565b60008083601f840112611d3657600080fd5b50813567ffffffffffffffff811115611d4e57600080fd5b602083019150836020820283011115611d6657600080fd5b9250929050565b8035610d0581612d0f565b8051610d0581612d0f565b8035610d0581612d18565b8051610d0581612d21565b600060208284031215611dab57600080fd5b6000611db78484611d0e565b949350505050565b600060208284031215611dd157600080fd5b6000611db78484611d19565b60008060408385031215611df057600080fd5b6000611dfc8585611d0e565b9250506020611e0d85828601611d0e565b9150509250929050565b60008060408385031215611e2a57600080fd5b6000611e368585611d0e565b9250506020611e0d85828601611d6d565b60008060408385031215611e5a57600080fd5b6000611e668585611d0e565b9250506020611e0d85828601611d83565b600080600060608486031215611e8c57600080fd5b6000611e988686611d0e565b9350506020611ea986828701611d83565b9250506040611eba86828701611d83565b9150509250925092565b60008060008060408587031215611eda57600080fd5b843567ffffffffffffffff811115611ef157600080fd5b611efd87828801611d24565b9450945050602085013567ffffffffffffffff811115611f1c57600080fd5b611f2887828801611d24565b95989497509550505050565b600060208284031215611f4657600080fd5b6000611db78484611d78565b600060208284031215611f6457600080fd5b6000611db78484611d83565b600060208284031215611f8257600080fd5b6000611db78484611d8e565b6000611f9a8383611fba565b505060200190565b6000611f9a8383612163565b6000611f9a83836121a4565b611fc381612c7d565b82525050565b6000611fd482612c70565b611fde8185612c74565b9350611fe983612c6a565b8060005b838110156120175781516120018882611f8e565b975061200c83612c6a565b925050600101611fed565b509495945050505050565b600061202d82612c70565b6120378185610423565b935061204283612c6a565b8060005b8381101561201757815161205a8882611f8e565b975061206583612c6a565b925050600101612046565b600061207b82612c70565b6120858185612c74565b935061209083612c6a565b8060005b838110156120175781516120a88882611fa2565b97506120b383612c6a565b925050600101612094565b60006120c982612c70565b6120d38185612c74565b93506120de83612c6a565b8060005b838110156120175781516120f68882611fae565b975061210183612c6a565b9250506001016120e2565b600061211782612c70565b6121218185612c74565b935061212c83612c6a565b8060005b838110156120175781516121448882611fa2565b975061214f83612c6a565b925050600101612130565b611fc381612c88565b611fc381612c8d565b600061217782612c70565b6121818185610423565b9350612191818560208601612cc2565b9290920192915050565b611fc381612cac565b611fc381612cb7565b60006121ba602c83612c74565b7f417373657420776569676874206d757374206265206c657373207468616e206f81526b7220657175616c20746f203160a01b602082015260400192915050565b6000612208602383612c74565b7f4d757374206265206d61746368696e672062617373657420646174612061727281526261797360e81b602082015260400192915050565b600061224d601783612c74565b7f526564656d7074696f6e20666565203e206d6178466565000000000000000000815260200192915050565b6000612286602383612c74565b7f537461626c654d6174683a206d756c7469706c69636174696f6e206f766572668152626c6f7760e81b602082015260400192915050565b60006122cb602483612c74565b7f546f6b656e20636f6e7472616374206d75737420737570706f727420646563698152636d616c7360e01b602082015260400192915050565b6000612311601483612c74565b73496e76616c69642042617373657420737461746560601b815260200192915050565b6000612341601983612c74565b7f4f6e6c7920676f7665726e6f722063616e206578656375746500000000000000815260200192915050565b600061237a601183612c74565b704d757374206e6f74206f766572666c6f7760781b815260200192915050565b60006123a7601883612c74565b7f4d757374206265206e6f6e206e756c6c20616464726573730000000000000000815260200192915050565b60006123e0601a83612c74565b7f4d75737420626520616c6c6f77656420746f2075706772616465000000000000815260200192915050565b6000612419602783612c74565b7f4d757374206265206d61746368696e67206578697374696e67206261736b6574815266081b185e5bdd5d60ca1b602082015260400192915050565b6000612462601583612c74565b7410985cdcd95d08185c1c1c9bdd994819985a5b1959605a1b815260200192915050565b6000612493602983612c74565b7f546f6b656e206d75737420686176652031206f72206d6f726520646563696d618152683610383630b1b2b99760b91b602082015260400192915050565b60006124de601b83612c74565b7f4173736574206d7573742061707065617220696e204261736b65740000000000815260200192915050565b6000612517601b83612c74565b7f426173736574206d75737420657869737420696e204261736b65740000000000815260200192915050565b6000612550602e83612c74565b7f43616e6e6f74206368616e676520776569676874696e677320666f722073756681526d666572696e67204261737365747360901b602082015260400192915050565b60006125a0602483612c74565b7f4261736b657420776569676874206d75737420746f74616c203e2031303025208152633d3d203160e01b602082015260400192915050565b60006125e6602883612c74565b7f426173736574206d75737420626520726570726573656e7465642073796d6d6581526774726963616c6c7960c01b602082015260400192915050565b6000612630602883612c74565b7f53706563696679696e67205f6d6561737572656d656e744d756c7469706c6520815267191a5cd8589b195960c21b602082015260400192915050565b600061267a601d83612c74565b7f4d757374206265206d616e61676572206f7220676f7665726e616e6365000000815260200192915050565b60006126b3601583612c74565b744d7573742062652076616c6964206164647265737360581b815260200192915050565b60006126e4601583612c74565b74426173736574206d7573742062652061637469766560581b815260200192915050565b6000612715602583612c74565b7f426173736574207661756c74206d75737420626520636f6d706c6574656c7920815264656d70747960d81b602082015260400192915050565b600061275c601183612c74565b7010985cdcd95d081b5d5cdd08195e1a5cdd607a1b815260200192915050565b6000612789601483612c74565b734261736b6574206d75737420626520616c69766560601b815260200192915050565b60006127b9601c83612c74565b7f41737365742061646472657373206d7573742062652076616c69642e00000000815260200192915050565b60006127f2602683612c74565b7f41737365742063616e6e6f7420616c726561647920626520696e20746865206281526530b9b5b2ba1760d11b602082015260400192915050565b600061283a601883612c74565b7f4f6e6c79206d616e616765722063616e20657865637574650000000000000000815260200192915050565b6000612873602683612c74565b7f4d757374206861766520736f6d657468696e6720746f207265636f6c6c61746581526572616c69736560d01b602082015260400192915050565b60006128bb602083612c74565b7f537461626c654d6174683a207375627472616374696f6e206f766572666c6f77815260200192915050565b6000611bb58284612022565b6000611bb5828461216c565b60208101610d058284611fba565b60c0810161291b8289611fba565b6129286020830188612163565b6129356040830187612163565b6129426060830186612163565b61294f6080830185612163565b61295c60a08301846121a4565b979650505050505050565b604081016129758285611fba565b611bb56020830184612163565b60208082528101611bb58184611fc9565b60c080825281016129a48189611fc9565b905081810360208301526129b88188612070565b905081810360408301526129cc818761210c565b905081810360608301526129e0818661210c565b905081810360808301526129f4818561210c565b905081810360a0830152612a0881846120be565b98975050505050505050565b60608082528101612a258186611fc9565b9050612a34602083018561215a565b611db76040830184612163565b60208082528101611bb5818461210c565b60208101610d05828461215a565b60408101612975828561215a565b60208101610d058284612163565b60208101610d05828461219b565b60208082528101610d05816121ad565b60208082528101610d05816121fb565b60208082528101610d0581612240565b60208082528101610d0581612279565b60208082528101610d05816122be565b60208082528101610d0581612304565b60208082528101610d0581612334565b60208082528101610d058161236d565b60208082528101610d058161239a565b60208082528101610d05816123d3565b60208082528101610d058161240c565b60208082528101610d0581612455565b60208082528101610d0581612486565b60208082528101610d05816124d1565b60208082528101610d058161250a565b60208082528101610d0581612543565b60208082528101610d0581612593565b60208082528101610d05816125d9565b60208082528101610d0581612623565b60208082528101610d058161266d565b60208082528101610d05816126a6565b60208082528101610d05816126d7565b60208082528101610d0581612708565b60208082528101610d058161274f565b60208082528101610d058161277c565b60208082528101610d05816127ac565b60208082528101610d05816127e5565b60208082528101610d058161282d565b60208082528101610d0581612866565b60208082528101610d05816128ae565b60200190565b5190565b90815260200190565b6000610d0582612c9a565b151590565b90565b8061042381612cee565b6001600160a01b031690565b60ff1690565b6000610d0582612c7d565b6000610d0582612c90565b60005b83811015612cdd578181015183820152602001612cc5565b838111156104fe5750506000910152565b60068110612cf857fe5b50565b612d0481612c7d565b8114612cf857600080fd5b612d0481612c88565b612d0481612c8d565b612d0481612ca656fea365627a7a72315820587195e560a594e6d4f8f39006d2e77f8192b54910c59e604e3e774ef021bfb76c6578706572696d656e74616cf564736f6c63430005100040",
  "source": "pragma solidity ^0.5.12;\npragma experimental ABIEncoderV2;\n\nimport { CommonHelpers } from \"../shared/libs/CommonHelpers.sol\";\n\nimport { IERC20 } from \"./mERC20/MassetToken.sol\";\nimport { MassetCore, IManager, ISystok, IForgeValidator, StableMath } from \"./MassetCore.sol\";\nimport { MassetStructs } from \"./shared/MassetStructs.sol\";\n\n/**\n * @title MassetBasket\n * @dev Manages the Masset Basket composition and acts as a cache to store the Basket Assets (Bassets)\n */\ncontract MassetBasket is MassetStructs, MassetCore {\n\n    /** @dev Struct holding Basket details */\n    Basket public basket;\n    bool public measurementMultipleEnabled;\n\n    /** @dev Forging events */\n    event BassetAdded(address indexed basset);\n    event BassetRemoved(address indexed basset);\n    event BasketWeightsUpdated(address[] indexed bassets, uint256[] maxWeights);\n\n    /** @dev constructor */\n    constructor(\n        address _nexus,\n        address[] memory _bassets,\n        bytes32[] memory _keys,\n        uint256[] memory _weights,\n        uint256[] memory _multiples\n    )\n        MassetCore(_nexus)\n        public\n    {\n        require(_bassets.length > 0, \"Must initialise the basket with some bAssets\");\n\n        measurementMultipleEnabled = _multiples.length > 0;\n        \n        // Defaults\n        basket.collateralisationRatio = 1e18;\n        redemptionFee = 2e16;\n\n        for (uint256 i = 0; i < _bassets.length; i++) {\n            _addBasset(_bassets[i], _keys[i], measurementMultipleEnabled ? _multiples[i] : StableMath.getRatio());\n        }\n        _setBasketWeights(_bassets, _weights);\n    }\n\n    modifier basketIsHealthy(){\n        require(!basket.failed, \"Basket must be alive\");\n        _;\n    }\n\n\n    /***************************************\n              RE-COLLATERALISATION\n    ****************************************/\n\n    /**\n      * @dev Executes the Auto Redistribution event by isolating the Basset from the Basket\n      * @param _basset Address of the ERC20 token to isolate\n      * @param _belowPeg Bool to describe whether the basset deviated below peg (t) or above (f)\n      * @return alreadyActioned Bool to show whether a Basset had already been actioned\n      */\n    function handlePegLoss(address _basset, bool _belowPeg)\n    external\n    onlyManager\n    basketIsHealthy\n    returns (bool alreadyActioned) {\n        (bool exists, uint i) = _isAssetInBasket(_basset);\n        require(exists, \"Basset must exist in Basket\");\n\n        BassetStatus oldStatus = basket.bassets[i].status;\n        BassetStatus newStatus = _belowPeg ? BassetStatus.BrokenBelowPeg : BassetStatus.BrokenAbovePeg;\n\n        if(oldStatus == newStatus ||\n          _bassetHasRecolled(oldStatus)) {\n            return true;\n        }\n\n        // If we need to update the status.. then do it\n        basket.bassets[i].status = newStatus;\n\n        if(newStatus == BassetStatus.BrokenBelowPeg) {\n          // REDISTRIBUTE THIS BASSET'S WEIGHT TO THE OTHER BASSETS?\n          // Good point\n        }\n        return false;\n    }\n\n    /**\n      * @dev Negates the isolation of a given Basset\n      * @param _basset Address of the Basset\n      */\n    function negatePegLoss(address _basset)\n    external\n    onlyManager {\n        (bool exists, uint i) = _isAssetInBasket(_basset);\n        require(exists, \"Basset must exist in Basket\");\n\n        if(basket.bassets[i].status == BassetStatus.BrokenBelowPeg ||\n          basket.bassets[i].status == BassetStatus.BrokenAbovePeg) {\n            basket.bassets[i].status = BassetStatus.Normal;\n        }\n    }\n\n    /**\n      * @dev Sends the affected Basset off to the Recollateraliser to be auctioned\n      * @param _basset Address of the Basset to isolate\n      * @param _recollateraliser Address of the recollateraliser, to which the tokens should be sent\n      */\n    function initiateRecol(address _basset, address _recollateraliser)\n    external\n    onlyManager\n    basketIsHealthy {\n        (bool exists, uint i) = _isAssetInBasket(_basset);\n        require(exists, \"Basset must exist in Basket\");\n\n        (, , , , uint256 vaultBalance, BassetStatus status) = _getBasset(i);\n        require(!_bassetHasRecolled(status), \"Invalid Basset state\");\n        // TODO - if vaultBalance is 0 and we want to recol, then just remove from Basket?\n        require(vaultBalance > 0, \"Must have something to recollateralise\");\n\n        basket.bassets[i].status = BassetStatus.Liquidating;\n        basket.bassets[i].vaultBalance = 0;\n\n        // Approve the recollateraliser to take the Basset\n        require(IERC20(_basset).approve(_recollateraliser, vaultBalance), \"Basset approve failed\");\n    }\n\n\n    /***************************************\n                BASKET ADJUSTMENTS\n    ****************************************/\n    \n\n    /**\n      * @dev External func to allow the Manager to conduct add operations on the Basket\n      * @param _basset Address of the ERC20 token to add to the Basket\n      * @param _key Bytes32 key that will be used to lookup price in Oracle\n      */\n    function addBasset(address _basset, bytes32 _key)\n    external\n    onlyGovernor\n    basketIsHealthy {\n        require(!measurementMultipleEnabled, \"Specifying _measurementMultiple disabled\");\n        _addBasset(_basset, _key, StableMath.getRatio());\n    }\n\n    /**\n      * @dev External func to allow the Manager to conduct add operations on the Basket\n      * @param _basset Address of the ERC20 token to add to the Basket\n      * @param _key Bytes32 key that will be used to lookup price in Oracle\n      * @param _measurementMultiple MeasurementMultiple of the Basset where 1:1 == 1e8\n      */\n    function addBasset(address _basset, bytes32 _key, uint256 _measurementMultiple)\n    external\n    onlyGovernor\n    basketIsHealthy {\n        require(measurementMultipleEnabled, \"Specifying _measurementMultiple disabled\");\n        _addBasset(_basset, _key, _measurementMultiple);\n    }\n\n    /**\n      * @dev Adds a basset to the Basket, fetching its decimals and calculating the Ratios\n      * @param _basset Address of the ERC20 token to add to the Basket\n      * @param _key Bytes32 key that will be used to lookup price in Oracle\n      * @param _measurementMultiple base 1e8 var to determine measurement ratio between basset:masset\n      * e.g. a Gold backed basset pegged to 1g where Masset is base 10g would be 1e7 (0.1:1)\n      * e.g. a USD backed basset pegged to 1 USD where Masset is pegged to 1 USD would be 1e8 (1:1)\n      */\n    function _addBasset(address _basset, bytes32 _key, uint256 _measurementMultiple)\n    internal {\n        require(_basset != address(0), \"Asset address must be valid.\");\n        (bool alreadyInBasket, ) = _isAssetInBasket(_basset);\n        require(!alreadyInBasket, \"Asset cannot already be in the basket.\");\n\n        // Check for ERC20 compatibility by forcing decimal retrieval\n        // Ultimate enforcement of Basset validity should service through governance\n        uint256 basset_decimals = CommonHelpers.mustGetDecimals(_basset);\n\n        uint256 delta = uint256(18).sub(basset_decimals);\n\n        uint256 ratio = _measurementMultiple.mul(10 ** delta);\n\n        basket.bassetsMap[_basset] = basket.bassets.length;\n\n        basket.bassets.push(Basset({\n            addr: _basset,\n            key: _key,\n            ratio: ratio,\n            maxWeight: 0,\n            vaultBalance: 0,\n            status: BassetStatus.Normal\n        }));\n\n\n        emit BassetAdded(_basset);\n    }\n\n    /**\n      * @dev Removes a specific Asset from the Basket, given that its target/collateral level is 0\n      * As this is a cleanup operation, anybody should be able to perform this task\n      * @param _assetToRemove The asset to remove from the basket\n      * @return bool To signify whether the asset was found and removed from the basket\n      */\n    function removeBasset(address _assetToRemove)\n    external\n    basketIsHealthy\n    onlyGovernor\n    returns (bool removed) {\n        _removeBasset(_assetToRemove);\n        return true;\n    }\n\n    function _removeBasset(address _assetToRemove)\n    internal {\n        (bool existsInBasket, uint index) = _isAssetInBasket(_assetToRemove);\n        require(existsInBasket, \"Asset must appear in Basket\");\n\n        uint len = basket.bassets.length;\n\n        Basset memory basset = basket.bassets[index];\n        // require(basset.maxWeight == 0, \"Basset must have a target weight of 0\");\n        require(basset.vaultBalance == 0, \"Basset vault must be completely empty\");\n        require(basset.status != BassetStatus.Liquidating, \"Basset must be active\");\n\n        basket.bassets[index] = basket.bassets[len-1];\n        basket.bassets.pop();\n\n        basket.bassetsMap[_assetToRemove] = 0;\n\n        basket.expiredBassets.push(_assetToRemove);\n\n        emit BassetRemoved(_assetToRemove);\n    }\n\n    /**\n      * @dev External call to set weightings of a new Basket\n      * @param _bassets Array of Basset addresses\n      * @param _weights Array of Basset weights - summing 100% where 100% == 1e18\n      */\n    function setBasketWeights(\n        address[] calldata _bassets,\n        uint256[] calldata _weights\n    )\n        external\n        onlyGovernor\n        basketIsHealthy\n    {\n        _setBasketWeights(_bassets, _weights);\n    }\n\n\n    /**\n      * @notice Sets new Basket weightings\n      * @dev Requires the Basket to be in a healthy state, i.e. no Broken assets\n      * @param _bassets Array of Basset addresses\n      * @param _weights Array of Basset weights - summing 100% where 100% == 1e18\n      */\n    function _setBasketWeights(\n        address[] memory _bassets,\n        uint256[] memory _weights\n    )\n        internal\n    {\n        uint256 bassetCount = _bassets.length;\n\n        require(bassetCount == _weights.length, \"Must be matching basset data arrays\");\n        require(bassetCount == basket.bassets.length, \"Must be matching existing basket layout\");\n\n        uint256 weightSum = CommonHelpers.sumOfArrayValues(_weights);\n        require(weightSum >= StableMath.getScale(), \"Basket weight must total > 100% == 1\");\n\n        for (uint256 i = 0; i < bassetCount; i++) {\n            address basset = _bassets[i];\n\n            require(basset == basket.bassets[i].addr, \"Basset must be represented symmetrically\");\n\n            uint256 bassetWeight = _weights[i];\n            if(basket.bassets[i].status == BassetStatus.Normal) {\n                require(bassetWeight >= 0, \"Weight must be positive\");\n                require(bassetWeight <= StableMath.getScale(), \"Asset weight must be less than or equal to 1\");\n                basket.bassets[i].maxWeight = bassetWeight;\n            } else {\n                require(bassetWeight == basket.bassets[i].maxWeight, \"Cannot change weightings for suffering Bassets\");\n            }\n        }\n\n        emit BasketWeightsUpdated(_bassets, _weights);\n    }\n\n\n    /***************************************\n                    GETTERS\n    ****************************************/\n\n    /**\n      * @dev Get basket details\n      * @return All the details\n      */\n    function getBasket()\n    external\n    view\n    returns (\n        address[] memory expiredBassets,\n        bool failed,\n        uint256 collateralisationRatio\n    ) {\n        return (basket.expiredBassets, basket.failed, basket.collateralisationRatio);\n    }\n\n    /**\n      * @dev Get all basket assets\n      * @return Struct array of all basket assets\n      */\n    function getBassets()\n    external\n    view\n    returns (\n        address[] memory addresses,\n        bytes32[] memory keys,\n        uint256[] memory ratios,\n        uint256[] memory targets,\n        uint256[] memory vaults,\n        BassetStatus[] memory statuses\n    ) {\n        uint256 len = basket.bassets.length;\n\n        addresses = new address[](len);\n        keys = new bytes32[](len);\n        ratios = new uint256[](len);\n        targets = new uint256[](len);\n        vaults = new uint256[](len);\n        statuses = new BassetStatus[](len);\n\n        for(uint i = 0; i < len; i++){\n            (addresses[i], keys[i], ratios[i], targets[i], vaults[i], statuses[i]) = _getBasset(i);\n        }\n    }\n\n    /**\n      * @dev Get all basket assets, failing if the Basset does not exist\n      * @return Struct array of all basket assets\n      */\n    function getBasset(address _basset)\n    public\n    view\n    returns (\n        address addr,\n        bytes32 key,\n        uint256 ratio,\n        uint256 maxWeight,\n        uint256 vaultBalance,\n        BassetStatus status\n    ) {\n        (bool exists, uint index) = _isAssetInBasket(_basset);\n        require(exists, \"Basset must exist\");\n        return _getBasset(index);\n    }\n\n    /**\n     * @dev Get all bAssets addresses\n     * @return return an array of bAssets addresses\n     */\n    function getAllBassetsAddress() public view returns (address[] memory) {\n        uint256 len = basket.bassets.length;\n        address[] memory bAssets = new address[](len);\n        for(uint256 i = 0; i < len; i++) {\n            bAssets[i] = basket.bassets[i].addr;\n        }\n        return bAssets;\n    }\n\n    /**\n      * @dev Get all basket assets\n      * @return Struct array of all basket assets\n      */\n    function _getBasset(uint256 _bassetIndex)\n    internal\n    view\n    returns (\n        address addr,\n        bytes32 key,\n        uint256 ratio,\n        uint256 maxWeight,\n        uint256 vaultBalance,\n        BassetStatus status\n    ) {\n        Basset memory b = basket.bassets[_bassetIndex];\n        return (b.addr, b.key, b.ratio, b.maxWeight, b.vaultBalance, b.status);\n    }\n\n\n    /**\n      * @dev Checks if a particular asset is in the basket\n      * @param _asset Address of Basset to look for\n      * @return bool to signal that the asset is in basket\n      * @return uint Index of the Basset\n      */\n    function _isAssetInBasket(address _asset)\n    internal\n    view\n    returns (bool exists, uint256 index) {\n        index = basket.bassetsMap[_asset];\n        if(index == 0) {\n            if(basket.bassets.length == 0){\n                return (false, 0);\n            }\n            return (basket.bassets[0].addr == _asset, 0);\n        }\n        return (true, index);\n    }\n\n    /**\n     * @notice Determine whether or not a Basset has already undergone re-collateralisation\n     */\n    function _bassetHasRecolled(BassetStatus _status)\n    internal\n    pure\n    returns (bool) {\n        if(_status == BassetStatus.Liquidating ||\n            _status == BassetStatus.Liquidated ||\n            _status == BassetStatus.Failed) {\n            return true;\n        }\n        return false;\n    }\n}\n",
  "sourcePath": "/home/alex/projects/stability-labs/mstable/mstable-contracts/contracts/masset/MassetBasket.sol",
  "compiler": {
    "name": "solc",
    "version": "0.5.16+commit.9c3226ce.Emscripten.clang"
  },
  "schemaVersion": "3.0.23",
  "updatedAt": "2020-02-17T19:56:32.831Z",
  "devdoc": {
    "details": "Manages the Masset Basket composition and acts as a cache to store the Basket Assets (Bassets)",
    "methods": {
      "addBasset(address,bytes32)": {
        "details": "External func to allow the Manager to conduct add operations on the Basket",
        "params": {
          "_basset": "Address of the ERC20 token to add to the Basket",
          "_key": "Bytes32 key that will be used to lookup price in Oracle"
        }
      },
      "addBasset(address,bytes32,uint256)": {
        "details": "External func to allow the Manager to conduct add operations on the Basket",
        "params": {
          "_basset": "Address of the ERC20 token to add to the Basket",
          "_key": "Bytes32 key that will be used to lookup price in Oracle",
          "_measurementMultiple": "MeasurementMultiple of the Basset where 1:1 == 1e8"
        }
      },
      "constructor": {
        "details": "constructor "
      },
      "getAllBassetsAddress()": {
        "details": "Get all bAssets addresses",
        "return": "return an array of bAssets addresses"
      },
      "getBasket()": {
        "details": "Get basket details",
        "return": "All the details"
      },
      "getBasset(address)": {
        "details": "Get all basket assets, failing if the Basset does not exist",
        "return": "Struct array of all basket assets"
      },
      "getBassets()": {
        "details": "Get all basket assets",
        "return": "Struct array of all basket assets"
      },
      "handlePegLoss(address,bool)": {
        "details": "Executes the Auto Redistribution event by isolating the Basset from the Basket",
        "params": {
          "_basset": "Address of the ERC20 token to isolate",
          "_belowPeg": "Bool to describe whether the basset deviated below peg (t) or above (f)"
        },
        "return": "alreadyActioned Bool to show whether a Basset had already been actioned"
      },
      "initiateRecol(address,address)": {
        "details": "Sends the affected Basset off to the Recollateraliser to be auctioned",
        "params": {
          "_basset": "Address of the Basset to isolate",
          "_recollateraliser": "Address of the recollateraliser, to which the tokens should be sent"
        }
      },
      "lockForgeValidator()": {
        "details": "Locks the ForgeValidator into it's final form"
      },
      "negatePegLoss(address)": {
        "details": "Negates the isolation of a given Basset",
        "params": {
          "_basset": "Address of the Basset"
        }
      },
      "removeBasset(address)": {
        "details": "Removes a specific Asset from the Basket, given that its target/collateral level is 0 As this is a cleanup operation, anybody should be able to perform this task",
        "params": {
          "_assetToRemove": "The asset to remove from the basket"
        },
        "return": "bool To signify whether the asset was found and removed from the basket"
      },
      "setBasketWeights(address[],uint256[])": {
        "details": "External call to set weightings of a new Basket",
        "params": {
          "_bassets": "Array of Basset addresses",
          "_weights": "Array of Basset weights - summing 100% where 100% == 1e18"
        }
      },
      "setFeePool(address)": {
        "details": "Set the recipient address of forge fees",
        "params": {
          "_feePool": "Address of the fee pool"
        }
      },
      "setRedemptionFee(uint256)": {
        "details": "Set the ecosystem fee for redeeming a masset",
        "params": {
          "_redemptionFee": "Fee calculated in (%/100 * 1e18)"
        }
      },
      "upgradeForgeValidator(address)": {
        "details": "Upgrades the version of ForgeValidator protocol",
        "params": {
          "_newForgeValidator": "Address of the new ForgeValidator"
        }
      }
    },
    "title": "MassetBasket"
  },
  "userdoc": {
    "methods": {}
  }
}