{
  "contractName": "MassetCore",
  "abi": [
    {
      "inputs": [
        {
          "internalType": "address",
          "name": "_nexus",
          "type": "address"
        }
      ],
      "payable": false,
      "stateMutability": "nonpayable",
      "type": "constructor"
    },
    {
      "anonymous": false,
      "inputs": [
        {
          "indexed": false,
          "internalType": "address",
          "name": "feePool",
          "type": "address"
        }
      ],
      "name": "FeeRecipientChanged",
      "type": "event"
    },
    {
      "anonymous": false,
      "inputs": [
        {
          "indexed": false,
          "internalType": "uint256",
          "name": "fee",
          "type": "uint256"
        }
      ],
      "name": "RedemptionFeeChanged",
      "type": "event"
    },
    {
      "constant": true,
      "inputs": [],
      "name": "Key_Governance",
      "outputs": [
        {
          "internalType": "bytes32",
          "name": "",
          "type": "bytes32"
        }
      ],
      "payable": false,
      "stateMutability": "view",
      "type": "function"
    },
    {
      "constant": true,
      "inputs": [],
      "name": "Key_Manager",
      "outputs": [
        {
          "internalType": "bytes32",
          "name": "",
          "type": "bytes32"
        }
      ],
      "payable": false,
      "stateMutability": "view",
      "type": "function"
    },
    {
      "constant": true,
      "inputs": [],
      "name": "Key_Nexus",
      "outputs": [
        {
          "internalType": "bytes32",
          "name": "",
          "type": "bytes32"
        }
      ],
      "payable": false,
      "stateMutability": "view",
      "type": "function"
    },
    {
      "constant": true,
      "inputs": [],
      "name": "Key_OracleHub",
      "outputs": [
        {
          "internalType": "bytes32",
          "name": "",
          "type": "bytes32"
        }
      ],
      "payable": false,
      "stateMutability": "view",
      "type": "function"
    },
    {
      "constant": true,
      "inputs": [],
      "name": "Key_Recollateraliser",
      "outputs": [
        {
          "internalType": "bytes32",
          "name": "",
          "type": "bytes32"
        }
      ],
      "payable": false,
      "stateMutability": "view",
      "type": "function"
    },
    {
      "constant": true,
      "inputs": [],
      "name": "Key_Staking",
      "outputs": [
        {
          "internalType": "bytes32",
          "name": "",
          "type": "bytes32"
        }
      ],
      "payable": false,
      "stateMutability": "view",
      "type": "function"
    },
    {
      "constant": true,
      "inputs": [],
      "name": "Key_Systok",
      "outputs": [
        {
          "internalType": "bytes32",
          "name": "",
          "type": "bytes32"
        }
      ],
      "payable": false,
      "stateMutability": "view",
      "type": "function"
    },
    {
      "constant": true,
      "inputs": [],
      "name": "feePool",
      "outputs": [
        {
          "internalType": "address",
          "name": "",
          "type": "address"
        }
      ],
      "payable": false,
      "stateMutability": "view",
      "type": "function"
    },
    {
      "constant": true,
      "inputs": [],
      "name": "forgeValidator",
      "outputs": [
        {
          "internalType": "contract IForgeValidator",
          "name": "",
          "type": "address"
        }
      ],
      "payable": false,
      "stateMutability": "view",
      "type": "function"
    },
    {
      "constant": true,
      "inputs": [],
      "name": "nexus",
      "outputs": [
        {
          "internalType": "contract INexus",
          "name": "",
          "type": "address"
        }
      ],
      "payable": false,
      "stateMutability": "view",
      "type": "function"
    },
    {
      "constant": true,
      "inputs": [],
      "name": "redemptionFee",
      "outputs": [
        {
          "internalType": "uint256",
          "name": "",
          "type": "uint256"
        }
      ],
      "payable": false,
      "stateMutability": "view",
      "type": "function"
    },
    {
      "constant": false,
      "inputs": [
        {
          "internalType": "address",
          "name": "_newForgeValidator",
          "type": "address"
        }
      ],
      "name": "upgradeForgeValidator",
      "outputs": [],
      "payable": false,
      "stateMutability": "nonpayable",
      "type": "function"
    },
    {
      "constant": false,
      "inputs": [],
      "name": "lockForgeValidator",
      "outputs": [],
      "payable": false,
      "stateMutability": "nonpayable",
      "type": "function"
    },
    {
      "constant": false,
      "inputs": [
        {
          "internalType": "address",
          "name": "_feePool",
          "type": "address"
        }
      ],
      "name": "setFeePool",
      "outputs": [],
      "payable": false,
      "stateMutability": "nonpayable",
      "type": "function"
    },
    {
      "constant": false,
      "inputs": [
        {
          "internalType": "uint256",
          "name": "_redemptionFee",
          "type": "uint256"
        }
      ],
      "name": "setRedemptionFee",
      "outputs": [],
      "payable": false,
      "stateMutability": "nonpayable",
      "type": "function"
    }
  ],
  "bytecode": "0x60806040526001805460ff60a01b1916905534801561001d57600080fd5b506040516108103803806108108339818101604052602081101561004057600080fd5b5051600080546001600160a01b039092166001600160a01b031990921691909117905561079e806100726000396000f3fe608060405234801561001057600080fd5b50600436106100f55760003560e01c80637dbc1df011610097578063b97e0ac611610066578063b97e0ac6146101d3578063d7d52266146101db578063e5517841146101e3578063f3bdedd2146101eb576100f5565b80637dbc1df014610182578063a3f5c1d21461019f578063ae2e933b146101c3578063ae2efd91146101cb576100f5565b8063458f5815116100d3578063458f5815146101625780635d864ced1461016a5780635eae58b9146101725780637b4aec791461017a576100f5565b80630aa8d59a146100fa57806319db22281461011457806326bbe60a1461013c575b600080fd5b6101026101f3565b60408051918252519081900360200190f35b61013a6004803603602081101561012a57600080fd5b50356001600160a01b0316610201565b005b61013a6004803603602081101561015257600080fd5b50356001600160a01b0316610314565b61010261045c565b61013a610462565b6101026104e3565b6101026104f0565b61013a6004803603602081101561019857600080fd5b50356104fe565b6101a7610602565b604080516001600160a01b039092168252519081900360200190f35b6101a7610611565b610102610620565b610102610637565b6101a7610647565b610102610656565b610102610662565b665374616b696e6760c81b81565b3361020a610673565b6001600160a01b0316148061022e5750336102236106fa565b6001600160a01b0316145b61026d576040805162461bcd60e51b815260206004820152601d602482015260008051602061074a833981519152604482015290519081900360640190fd5b6001600160a01b0381166102c0576040805162461bcd60e51b81526020600482015260156024820152744d7573742062652076616c6964206164647265737360581b604482015290519081900360640190fd5b600280546001600160a01b0383166001600160a01b0319909116811790915560408051918252517f167cccccc6e9b2892a740ec13fc1e51d3de8ea384f25bd87fee7412d588637e29181900360200190a150565b3361031d610673565b6001600160a01b031614806103415750336103366106fa565b6001600160a01b0316145b610380576040805162461bcd60e51b815260206004820152601d602482015260008051602061074a833981519152604482015290519081900360640190fd5b600154600160a01b900460ff16156103df576040805162461bcd60e51b815260206004820152601a60248201527f4d75737420626520616c6c6f77656420746f2075706772616465000000000000604482015290519081900360640190fd5b6001600160a01b03811661043a576040805162461bcd60e51b815260206004820152601860248201527f4d757374206265206e6f6e206e756c6c20616464726573730000000000000000604482015290519081900360640190fd5b600180546001600160a01b0319166001600160a01b0392909216919091179055565b60035481565b3361046b610673565b6001600160a01b0316148061048f5750336104846106fa565b6001600160a01b0316145b6104ce576040805162461bcd60e51b815260206004820152601d602482015260008051602061074a833981519152604482015290519081900360640190fd5b6001805460ff60a01b1916600160a01b179055565b65537973746f6b60d01b81565b6626b0b730b3b2b960c91b81565b33610507610673565b6001600160a01b0316148061052b5750336105206106fa565b6001600160a01b0316145b61056a576040805162461bcd60e51b815260206004820152601d602482015260008051602061074a833981519152604482015290519081900360640190fd5b6702c68af0bb1400008111156105c7576040805162461bcd60e51b815260206004820152601760248201527f526564656d7074696f6e20666565203e206d6178466565000000000000000000604482015290519081900360640190fd5b60038190556040805182815290517f4dbf9634a3aaf3bc15ab627faeaac7c6b0a4754ead77206f1c11277356f2878f9181900360200190a150565b6000546001600160a01b031681565b6002546001600160a01b031681565b6f2932b1b7b63630ba32b930b634b9b2b960811b81565b6827b930b1b632a43ab160b91b81565b6001546001600160a01b031681565b644e6578757360d81b81565b69476f7665726e616e636560b01b81565b60008054604080516385acd64160e01b81526626b0b730b3b2b960c91b600482015290516001600160a01b03909216916385acd64191602480820192602092909190829003018186803b1580156106c957600080fd5b505afa1580156106dd573d6000803e3d6000fd5b505050506040513d60208110156106f357600080fd5b5051905090565b60008060009054906101000a90046001600160a01b03166001600160a01b0316630c340a246040518163ffffffff1660e01b815260040160206040518083038186803b1580156106c957600080fdfe4d757374206265206d616e61676572206f7220676f7665726e616e6365000000a265627a7a723158205f76ce52c1440851ba5cb66297ae953f2dc70251c4a7a28546aea44d250c4ff164736f6c63430005100032",
  "source": "pragma solidity ^0.5.12;\n\nimport { IManager } from \"../interfaces/IManager.sol\";\nimport { ISystok } from \"../interfaces/ISystok.sol\";\nimport { IForgeValidator } from \"./forge-validator/IForgeValidator.sol\";\n\nimport { StableMath } from \"../shared/math/StableMath.sol\";\nimport { Module } from \"../shared/Module.sol\";\n\n/**\n * @title MassetCore\n * @dev Core fields and accessors for Masset to conduct Admin\n */\ncontract MassetCore is Module {\n\n    using StableMath for uint256;\n\n    /** @dev Modules */\n    IForgeValidator public forgeValidator;\n    bool internal forgeValidatorLocked = false;\n\n    /** @dev FeePool */\n    address public feePool;\n\n    /** @dev Meta information for ecosystem fees */\n    uint256 public redemptionFee;\n\n    /** @dev Maximum minting/redemption fee */\n    uint256 internal constant maxFee = 2e17;\n\n    /** @dev Events to emit */\n    event RedemptionFeeChanged(uint256 fee);\n    event FeeRecipientChanged(address feePool);\n\n    constructor(address _nexus) Module(_nexus) public {}\n\n    /**\n      * @dev Verifies that the caller either Manager or Gov\n      */\n    modifier managerOrGovernor() {\n        require(_manager() == msg.sender || _governor() == msg.sender, \"Must be manager or governance\");\n        _;\n    }\n\n    /**\n      * @dev Upgrades the version of ForgeValidator protocol\n      * @param _newForgeValidator Address of the new ForgeValidator\n      */\n    function upgradeForgeValidator(address _newForgeValidator)\n    external\n    managerOrGovernor {\n        require(!forgeValidatorLocked, \"Must be allowed to upgrade\");\n        require(_newForgeValidator != address(0), \"Must be non null address\");\n        forgeValidator = IForgeValidator(_newForgeValidator);\n    }\n\n    /**\n      * @dev Locks the ForgeValidator into it's final form\n      */\n    function lockForgeValidator()\n    external\n    managerOrGovernor {\n        forgeValidatorLocked = true;\n    }\n\n    /**\n      * @dev Set the recipient address of forge fees\n      * @param _feePool Address of the fee pool\n      */\n    function setFeePool(address _feePool)\n    external\n    managerOrGovernor {\n        require(_feePool != address(0), \"Must be valid address\");\n        feePool = _feePool;\n        emit FeeRecipientChanged(_feePool);\n    }\n\n\n    /**\n      * @dev Set the ecosystem fee for redeeming a masset\n      * @param _redemptionFee Fee calculated in (%/100 * 1e18)\n      */\n    function setRedemptionFee(uint256 _redemptionFee)\n    external\n    managerOrGovernor {\n        require(_redemptionFee <= maxFee, \"Redemption fee > maxFee\");\n        redemptionFee = _redemptionFee;\n        emit RedemptionFeeChanged(_redemptionFee);\n    }\n}\n",
  "sourcePath": "/home/alex/projects/stability-labs/mstable/mstable-contracts/contracts/masset/MassetCore.sol",
  "compiler": {
    "name": "solc",
    "version": "0.5.16+commit.9c3226ce.Emscripten.clang"
  },
  "schemaVersion": "3.0.23",
  "updatedAt": "2020-02-17T19:56:32.840Z",
  "devdoc": {
    "details": "Core fields and accessors for Masset to conduct Admin",
    "methods": {
      "lockForgeValidator()": {
        "details": "Locks the ForgeValidator into it's final form"
      },
      "setFeePool(address)": {
        "details": "Set the recipient address of forge fees",
        "params": {
          "_feePool": "Address of the fee pool"
        }
      },
      "setRedemptionFee(uint256)": {
        "details": "Set the ecosystem fee for redeeming a masset",
        "params": {
          "_redemptionFee": "Fee calculated in (%/100 * 1e18)"
        }
      },
      "upgradeForgeValidator(address)": {
        "details": "Upgrades the version of ForgeValidator protocol",
        "params": {
          "_newForgeValidator": "Address of the new ForgeValidator"
        }
      }
    },
    "title": "MassetCore"
  },
  "userdoc": {
    "methods": {}
  }
}