{
  "contractName": "MassetFactory",
  "abi": [
    {
      "anonymous": false,
      "inputs": [
        {
          "indexed": true,
          "internalType": "bytes32",
          "name": "key",
          "type": "bytes32"
        },
        {
          "indexed": false,
          "internalType": "address",
          "name": "addr",
          "type": "address"
        }
      ],
      "name": "MassetAdded",
      "type": "event"
    },
    {
      "anonymous": false,
      "inputs": [
        {
          "indexed": true,
          "internalType": "bytes32",
          "name": "key",
          "type": "bytes32"
        },
        {
          "indexed": false,
          "internalType": "address",
          "name": "addr",
          "type": "address"
        }
      ],
      "name": "MassetEjected",
      "type": "event"
    },
    {
      "constant": true,
      "inputs": [],
      "name": "forgeLib",
      "outputs": [
        {
          "internalType": "address",
          "name": "",
          "type": "address"
        }
      ],
      "payable": false,
      "stateMutability": "view",
      "type": "function"
    },
    {
      "constant": true,
      "inputs": [],
      "name": "getMassets",
      "outputs": [
        {
          "internalType": "address[]",
          "name": "addr",
          "type": "address[]"
        },
        {
          "internalType": "bytes32[]",
          "name": "keys",
          "type": "bytes32[]"
        }
      ],
      "payable": false,
      "stateMutability": "view",
      "type": "function"
    },
    {
      "constant": false,
      "inputs": [
        {
          "internalType": "bytes32",
          "name": "_massetKey",
          "type": "bytes32"
        },
        {
          "internalType": "address",
          "name": "_masset",
          "type": "address"
        }
      ],
      "name": "addMasset",
      "outputs": [
        {
          "internalType": "address",
          "name": "",
          "type": "address"
        }
      ],
      "payable": false,
      "stateMutability": "nonpayable",
      "type": "function"
    },
    {
      "constant": false,
      "inputs": [
        {
          "internalType": "address",
          "name": "_masset",
          "type": "address"
        }
      ],
      "name": "ejectMasset",
      "outputs": [],
      "payable": false,
      "stateMutability": "nonpayable",
      "type": "function"
    }
  ],
  "bytecode": "0x6080604052624d544160e81b60045534801561001a57600080fd5b506107dd8061002a6000396000f3fe608060405234801561001057600080fd5b506004361061004c5760003560e01c80634c7e06a5146100515780636e1b1b80146100665780638908a41a14610084578063b8fc19571461009a575b600080fd5b61006461005f36600461054b565b6100ad565b005b61006e610185565b60405161007b9190610703565b60405180910390f35b61008c610194565b60405161007b929190610711565b61006e6100a8366004610571565b610202565b6000546001600160a01b031633146100e05760405162461bcd60e51b81526004016100d790610746565b60405180910390fd5b6001600160a01b0381166101065760405162461bcd60e51b81526004016100d790610736565b600061011960058363ffffffff6102a616565b9050806101385760405162461bcd60e51b81526004016100d790610736565b61014960058363ffffffff6102c516565b807f53833a8e3695b7a7ed65575d04bcbbd45546c0992abda788723b6a2bc5ec0178836040516101799190610703565b60405180910390a25050565b6003546001600160a01b031681565b60608060056101a281610315565b8154604080516020808402820181019092528281529184918301828280156101f357602002820191906000526020600020905b81546001600160a01b031681526001909101906020018083116101d5575b50505050509150915091509091565b600080546001600160a01b0316331461022d5760405162461bcd60e51b81526004016100d790610746565b6001600160a01b0382166102535760405162461bcd60e51b81526004016100d790610736565b6102656005838563ffffffff6103b216565b827fec3e610db6ddb8c3fd224816464f695ab8977b6780a5aba102505ad544c3433e836040516102959190610703565b60405180910390a250805b92915050565b6001600160a01b03166000908152600191909101602052604090205490565b6001600160a01b038116600090815260018301602052604090205415610311576102f5828263ffffffff61043416565b6001600160a01b03811660009081526001830160205260408120555b5050565b80546040805182815260208084028201019091526060918015610342578160200160208202803883390190505b50905060005b81518110156103ac5782600101600084600001838154811061036657fe5b60009182526020808320909101546001600160a01b03168352820192909252604001902054825183908390811061039957fe5b6020908102919091010152600101610348565b50919050565b806103c6576103c183836102c5565b61042f565b6001600160a01b03821660009081526001840160205260409020546104115782546001810184556000848152602090200180546001600160a01b0319166001600160a01b0384161790555b6001600160a01b038216600090815260018401602052604090208190555b505050565b60005b825481101561042f57816001600160a01b031683828154811061045657fe5b6000918252602090912001546001600160a01b031614156104ed5782548390600019810190811061048357fe5b9060005260206000200160009054906101000a90046001600160a01b03168382815481106104ad57fe5b600091825260209091200180546001600160a01b0319166001600160a01b039290921691909117905582546104e68460001983016104f5565b5050610311565b600101610437565b81548183558181111561042f5760008381526020902061042f91810190830161053291905b8082111561052e576000815560010161051a565b5090565b90565b80356102a08161077a565b80356102a081610791565b60006020828403121561055d57600080fd5b60006105698484610535565b949350505050565b6000806040838503121561058457600080fd5b60006105908585610540565b92505060206105a185828601610535565b9150509250929050565b60006105b783836105cb565b505060200190565b60006105b78383610681565b6105d481610769565b82525050565b60006105e58261075c565b6105ef8185610760565b93506105fa83610756565b8060005b8381101561062857815161061288826105ab565b975061061d83610756565b9250506001016105fe565b509495945050505050565b600061063e8261075c565b6106488185610760565b935061065383610756565b8060005b8381101561062857815161066b88826105bf565b975061067683610756565b925050600101610657565b6105d481610532565b6000610697602a83610760565b7f4d6173736574206d7573742062652061207265666572656e63656420696d706c81526932b6b2b73a30ba34b7b760b11b602082015260400192915050565b60006106e3601183610760565b7027b7363c903a34329033b7bb32b93737b960791b815260200192915050565b602081016102a082846105cb565b6040808252810161072281856105da565b905081810360208301526105698184610633565b602080825281016102a08161068a565b602080825281016102a0816106d6565b60200190565b5190565b90815260200190565b60006001600160a01b0382166102a0565b61078381610769565b811461078e57600080fd5b50565b6107838161053256fea365627a7a72315820a902d0452f2fe291c6473e5699563249066dc62fba2298f25f8eb26107daa9da6c6578706572696d656e74616cf564736f6c63430005100040",
  "source": "pragma solidity ^0.5.12;\npragma experimental ABIEncoderV2;\n\nimport { ManagerState, IMasset, IManager } from \"./ManagerState.sol\";\n\nimport { DictionaryBtoA } from \"../shared/libs/DictionaryBtoA.sol\";\n\n\n/**\n * @title MassetFactory\n * @dev This Factory creates and manages mStable Assets under direction of the governor\n * It also allows governor to add or remove specific MassetFactories from the stack, allowing\n * the creation of various types of Massets\n */\ncontract MassetFactory is ManagerState {\n\n    /** @dev Custom dictionary for managing data structures */\n    using DictionaryBtoA for DictionaryBtoA.Bytes32ToAddress;\n\n    /** @dev Events to emit */\n    event MassetAdded(bytes32 indexed key, address addr);\n    event MassetEjected(bytes32 indexed key, address addr);\n\n\n    /**\n      * @dev Adds an already and initialised Masset to the stack, storing the relevant data in the ManagerState\n      * @param _massetKey     Key identifier for the Masset\n      * @param _masset        Address of the Masset contract\n      * @return               Address of new Masset\n      */\n    function addMasset(\n        bytes32 _massetKey,\n        address _masset\n    )\n        external\n        onlyGovernance\n        returns (address)\n    {\n        require(_masset != address(0), \"Masset must be a referenced implementation\");\n\n        massets.add(_masset, _massetKey);\n\n        emit MassetAdded(_massetKey, _masset);\n        return _masset;\n    }\n\n    /**\n      * @dev Removes a Masset from the system and thus releases from recollateraliastion protection\n      * @param _masset        Address of the Masset contract\n      */\n    function ejectMasset(\n        address _masset\n    )\n        external\n        onlyGovernance\n    {\n        require(_masset != address(0), \"Masset must be a referenced implementation\");\n        bytes32 key = massets.get(_masset);\n        require(key != bytes32(0x0), \"Masset must be a referenced implementation\");\n\n        massets.remove(_masset);\n\n        emit MassetEjected(key, _masset);\n    }\n}",
  "sourcePath": "/Users/james/mstable/mStable-contracts/contracts/manager/MassetFactory.sol",
  "compiler": {
    "name": "solc",
    "version": "0.5.16+commit.9c3226ce.Emscripten.clang"
  },
  "schemaVersion": "3.0.23",
  "updatedAt": "2020-02-06T13:06:09.516Z",
  "devdoc": {
    "details": "This Factory creates and manages mStable Assets under direction of the governor It also allows governor to add or remove specific MassetFactories from the stack, allowing the creation of various types of Massets",
    "methods": {
      "addMasset(bytes32,address)": {
        "details": "Adds an already and initialised Masset to the stack, storing the relevant data in the ManagerState",
        "params": {
          "_masset": "Address of the Masset contract",
          "_massetKey": "Key identifier for the Masset"
        },
        "return": "Address of new Masset"
      },
      "ejectMasset(address)": {
        "details": "Removes a Masset from the system and thus releases from recollateraliastion protection",
        "params": {
          "_masset": "Address of the Masset contract"
        }
      },
      "getMassets()": {
        "details": "Get the addresses and oracle keys for all the Massets",
        "return": "bytes32 Array of Masset identifiers"
      }
    },
    "title": "MassetFactory"
  },
  "userdoc": {
    "methods": {}
  }
}