{
  "contractName": "MGLD",
  "abi": [
    {
      "inputs": [
        {
          "internalType": "address",
          "name": "_nexus",
          "type": "address"
        },
        {
          "internalType": "address[]",
          "name": "_bassets",
          "type": "address[]"
        },
        {
          "internalType": "bytes32[]",
          "name": "_bassetKeys",
          "type": "bytes32[]"
        },
        {
          "internalType": "uint256[]",
          "name": "_bassetWeights",
          "type": "uint256[]"
        },
        {
          "internalType": "uint256[]",
          "name": "_measurementMultiples",
          "type": "uint256[]"
        },
        {
          "internalType": "address",
          "name": "_feePool",
          "type": "address"
        },
        {
          "internalType": "address",
          "name": "_forgeValidator",
          "type": "address"
        }
      ],
      "payable": false,
      "stateMutability": "nonpayable",
      "type": "constructor"
    },
    {
      "anonymous": false,
      "inputs": [
        {
          "indexed": true,
          "internalType": "address",
          "name": "owner",
          "type": "address"
        },
        {
          "indexed": true,
          "internalType": "address",
          "name": "spender",
          "type": "address"
        },
        {
          "indexed": false,
          "internalType": "uint256",
          "name": "value",
          "type": "uint256"
        }
      ],
      "name": "Approval",
      "type": "event"
    },
    {
      "anonymous": false,
      "inputs": [
        {
          "indexed": true,
          "internalType": "address[]",
          "name": "bassets",
          "type": "address[]"
        },
        {
          "indexed": false,
          "internalType": "uint256[]",
          "name": "maxWeights",
          "type": "uint256[]"
        }
      ],
      "name": "BasketWeightsUpdated",
      "type": "event"
    },
    {
      "anonymous": false,
      "inputs": [
        {
          "indexed": true,
          "internalType": "address",
          "name": "basset",
          "type": "address"
        }
      ],
      "name": "BassetAdded",
      "type": "event"
    },
    {
      "anonymous": false,
      "inputs": [
        {
          "indexed": true,
          "internalType": "address",
          "name": "basset",
          "type": "address"
        }
      ],
      "name": "BassetRemoved",
      "type": "event"
    },
    {
      "anonymous": false,
      "inputs": [
        {
          "indexed": false,
          "internalType": "address",
          "name": "feePool",
          "type": "address"
        }
      ],
      "name": "FeeRecipientChanged",
      "type": "event"
    },
    {
      "anonymous": false,
      "inputs": [
        {
          "indexed": true,
          "internalType": "address",
          "name": "account",
          "type": "address"
        },
        {
          "indexed": false,
          "internalType": "uint256",
          "name": "massetQuantity",
          "type": "uint256"
        },
        {
          "indexed": false,
          "internalType": "uint256[]",
          "name": "bAssetQuantities",
          "type": "uint256[]"
        }
      ],
      "name": "Minted",
      "type": "event"
    },
    {
      "anonymous": false,
      "inputs": [
        {
          "indexed": true,
          "internalType": "address",
          "name": "account",
          "type": "address"
        },
        {
          "indexed": false,
          "internalType": "uint256",
          "name": "massetQuantity",
          "type": "uint256"
        },
        {
          "indexed": false,
          "internalType": "uint256",
          "name": "bAssetQuantity",
          "type": "uint256"
        }
      ],
      "name": "Minted",
      "type": "event"
    },
    {
      "anonymous": false,
      "inputs": [
        {
          "indexed": false,
          "internalType": "address",
          "name": "payer",
          "type": "address"
        },
        {
          "indexed": false,
          "internalType": "uint256",
          "name": "feeQuantity",
          "type": "uint256"
        },
        {
          "indexed": false,
          "internalType": "uint256",
          "name": "feeRate",
          "type": "uint256"
        }
      ],
      "name": "PaidFee",
      "type": "event"
    },
    {
      "anonymous": false,
      "inputs": [
        {
          "indexed": true,
          "internalType": "address",
          "name": "recipient",
          "type": "address"
        },
        {
          "indexed": false,
          "internalType": "address",
          "name": "redeemer",
          "type": "address"
        },
        {
          "indexed": false,
          "internalType": "uint256",
          "name": "massetQuantity",
          "type": "uint256"
        },
        {
          "indexed": false,
          "internalType": "uint256[]",
          "name": "bAssetQuantities",
          "type": "uint256[]"
        }
      ],
      "name": "Redeemed",
      "type": "event"
    },
    {
      "anonymous": false,
      "inputs": [
        {
          "indexed": true,
          "internalType": "address",
          "name": "recipient",
          "type": "address"
        },
        {
          "indexed": false,
          "internalType": "address",
          "name": "redeemer",
          "type": "address"
        },
        {
          "indexed": false,
          "internalType": "uint256",
          "name": "massetQuantity",
          "type": "uint256"
        },
        {
          "indexed": false,
          "internalType": "uint256",
          "name": "index",
          "type": "uint256"
        },
        {
          "indexed": false,
          "internalType": "uint256",
          "name": "bAssetQuantity",
          "type": "uint256"
        }
      ],
      "name": "RedeemedSingle",
      "type": "event"
    },
    {
      "anonymous": false,
      "inputs": [
        {
          "indexed": false,
          "internalType": "uint256",
          "name": "fee",
          "type": "uint256"
        }
      ],
      "name": "RedemptionFeeChanged",
      "type": "event"
    },
    {
      "anonymous": false,
      "inputs": [
        {
          "indexed": true,
          "internalType": "address",
          "name": "from",
          "type": "address"
        },
        {
          "indexed": true,
          "internalType": "address",
          "name": "to",
          "type": "address"
        },
        {
          "indexed": false,
          "internalType": "uint256",
          "name": "value",
          "type": "uint256"
        }
      ],
      "name": "Transfer",
      "type": "event"
    },
    {
      "constant": true,
      "inputs": [],
      "name": "Key_Governance",
      "outputs": [
        {
          "internalType": "bytes32",
          "name": "",
          "type": "bytes32"
        }
      ],
      "payable": false,
      "stateMutability": "view",
      "type": "function"
    },
    {
      "constant": true,
      "inputs": [],
      "name": "Key_Manager",
      "outputs": [
        {
          "internalType": "bytes32",
          "name": "",
          "type": "bytes32"
        }
      ],
      "payable": false,
      "stateMutability": "view",
      "type": "function"
    },
    {
      "constant": true,
      "inputs": [],
      "name": "Key_Nexus",
      "outputs": [
        {
          "internalType": "bytes32",
          "name": "",
          "type": "bytes32"
        }
      ],
      "payable": false,
      "stateMutability": "view",
      "type": "function"
    },
    {
      "constant": true,
      "inputs": [],
      "name": "Key_OracleHub",
      "outputs": [
        {
          "internalType": "bytes32",
          "name": "",
          "type": "bytes32"
        }
      ],
      "payable": false,
      "stateMutability": "view",
      "type": "function"
    },
    {
      "constant": true,
      "inputs": [],
      "name": "Key_Recollateraliser",
      "outputs": [
        {
          "internalType": "bytes32",
          "name": "",
          "type": "bytes32"
        }
      ],
      "payable": false,
      "stateMutability": "view",
      "type": "function"
    },
    {
      "constant": true,
      "inputs": [],
      "name": "Key_Staking",
      "outputs": [
        {
          "internalType": "bytes32",
          "name": "",
          "type": "bytes32"
        }
      ],
      "payable": false,
      "stateMutability": "view",
      "type": "function"
    },
    {
      "constant": true,
      "inputs": [],
      "name": "Key_Systok",
      "outputs": [
        {
          "internalType": "bytes32",
          "name": "",
          "type": "bytes32"
        }
      ],
      "payable": false,
      "stateMutability": "view",
      "type": "function"
    },
    {
      "constant": false,
      "inputs": [
        {
          "internalType": "address",
          "name": "_basset",
          "type": "address"
        },
        {
          "internalType": "bytes32",
          "name": "_key",
          "type": "bytes32"
        },
        {
          "internalType": "uint256",
          "name": "_measurementMultiple",
          "type": "uint256"
        }
      ],
      "name": "addBasset",
      "outputs": [],
      "payable": false,
      "stateMutability": "nonpayable",
      "type": "function"
    },
    {
      "constant": false,
      "inputs": [
        {
          "internalType": "address",
          "name": "_basset",
          "type": "address"
        },
        {
          "internalType": "bytes32",
          "name": "_key",
          "type": "bytes32"
        }
      ],
      "name": "addBasset",
      "outputs": [],
      "payable": false,
      "stateMutability": "nonpayable",
      "type": "function"
    },
    {
      "constant": true,
      "inputs": [
        {
          "internalType": "address",
          "name": "owner",
          "type": "address"
        },
        {
          "internalType": "address",
          "name": "spender",
          "type": "address"
        }
      ],
      "name": "allowance",
      "outputs": [
        {
          "internalType": "uint256",
          "name": "",
          "type": "uint256"
        }
      ],
      "payable": false,
      "stateMutability": "view",
      "type": "function"
    },
    {
      "constant": false,
      "inputs": [
        {
          "internalType": "address",
          "name": "spender",
          "type": "address"
        },
        {
          "internalType": "uint256",
          "name": "value",
          "type": "uint256"
        }
      ],
      "name": "approve",
      "outputs": [
        {
          "internalType": "bool",
          "name": "",
          "type": "bool"
        }
      ],
      "payable": false,
      "stateMutability": "nonpayable",
      "type": "function"
    },
    {
      "constant": true,
      "inputs": [
        {
          "internalType": "address",
          "name": "account",
          "type": "address"
        }
      ],
      "name": "balanceOf",
      "outputs": [
        {
          "internalType": "uint256",
          "name": "",
          "type": "uint256"
        }
      ],
      "payable": false,
      "stateMutability": "view",
      "type": "function"
    },
    {
      "constant": true,
      "inputs": [],
      "name": "basket",
      "outputs": [
        {
          "internalType": "bool",
          "name": "failed",
          "type": "bool"
        },
        {
          "internalType": "uint256",
          "name": "collateralisationRatio",
          "type": "uint256"
        }
      ],
      "payable": false,
      "stateMutability": "view",
      "type": "function"
    },
    {
      "constant": false,
      "inputs": [
        {
          "internalType": "uint256",
          "name": "amount",
          "type": "uint256"
        }
      ],
      "name": "burn",
      "outputs": [],
      "payable": false,
      "stateMutability": "nonpayable",
      "type": "function"
    },
    {
      "constant": false,
      "inputs": [
        {
          "internalType": "address",
          "name": "account",
          "type": "address"
        },
        {
          "internalType": "uint256",
          "name": "amount",
          "type": "uint256"
        }
      ],
      "name": "burnFrom",
      "outputs": [],
      "payable": false,
      "stateMutability": "nonpayable",
      "type": "function"
    },
    {
      "constant": false,
      "inputs": [
        {
          "internalType": "address",
          "name": "_basset",
          "type": "address"
        },
        {
          "internalType": "uint256",
          "name": "_unitsUnderCollateralised",
          "type": "uint256"
        }
      ],
      "name": "completeRecol",
      "outputs": [],
      "payable": false,
      "stateMutability": "nonpayable",
      "type": "function"
    },
    {
      "constant": true,
      "inputs": [
        {
          "internalType": "uint32",
          "name": "_bitmap",
          "type": "uint32"
        },
        {
          "internalType": "uint8",
          "name": "_size",
          "type": "uint8"
        }
      ],
      "name": "convertBitmapToBassets",
      "outputs": [
        {
          "components": [
            {
              "internalType": "address",
              "name": "addr",
              "type": "address"
            },
            {
              "internalType": "bytes32",
              "name": "key",
              "type": "bytes32"
            },
            {
              "internalType": "uint256",
              "name": "ratio",
              "type": "uint256"
            },
            {
              "internalType": "uint256",
              "name": "maxWeight",
              "type": "uint256"
            },
            {
              "internalType": "uint256",
              "name": "vaultBalance",
              "type": "uint256"
            },
            {
              "internalType": "enum MassetStructs.BassetStatus",
              "name": "status",
              "type": "uint8"
            }
          ],
          "internalType": "struct MassetStructs.Basset[]",
          "name": "",
          "type": "tuple[]"
        },
        {
          "internalType": "uint8[]",
          "name": "",
          "type": "uint8[]"
        }
      ],
      "payable": false,
      "stateMutability": "view",
      "type": "function"
    },
    {
      "constant": true,
      "inputs": [
        {
          "internalType": "uint32",
          "name": "_bitmap",
          "type": "uint32"
        },
        {
          "internalType": "uint8",
          "name": "_size",
          "type": "uint8"
        }
      ],
      "name": "convertBitmapToBassetsAddress",
      "outputs": [
        {
          "internalType": "address[]",
          "name": "",
          "type": "address[]"
        }
      ],
      "payable": false,
      "stateMutability": "view",
      "type": "function"
    },
    {
      "constant": true,
      "inputs": [],
      "name": "decimals",
      "outputs": [
        {
          "internalType": "uint8",
          "name": "",
          "type": "uint8"
        }
      ],
      "payable": false,
      "stateMutability": "view",
      "type": "function"
    },
    {
      "constant": false,
      "inputs": [
        {
          "internalType": "address",
          "name": "spender",
          "type": "address"
        },
        {
          "internalType": "uint256",
          "name": "subtractedValue",
          "type": "uint256"
        }
      ],
      "name": "decreaseAllowance",
      "outputs": [
        {
          "internalType": "bool",
          "name": "",
          "type": "bool"
        }
      ],
      "payable": false,
      "stateMutability": "nonpayable",
      "type": "function"
    },
    {
      "constant": true,
      "inputs": [],
      "name": "feePool",
      "outputs": [
        {
          "internalType": "address",
          "name": "",
          "type": "address"
        }
      ],
      "payable": false,
      "stateMutability": "view",
      "type": "function"
    },
    {
      "constant": true,
      "inputs": [],
      "name": "forgeValidator",
      "outputs": [
        {
          "internalType": "contract IForgeValidator",
          "name": "",
          "type": "address"
        }
      ],
      "payable": false,
      "stateMutability": "view",
      "type": "function"
    },
    {
      "constant": true,
      "inputs": [],
      "name": "getAllBassetsAddress",
      "outputs": [
        {
          "internalType": "address[]",
          "name": "",
          "type": "address[]"
        }
      ],
      "payable": false,
      "stateMutability": "view",
      "type": "function"
    },
    {
      "constant": true,
      "inputs": [],
      "name": "getBasket",
      "outputs": [
        {
          "internalType": "address[]",
          "name": "expiredBassets",
          "type": "address[]"
        },
        {
          "internalType": "bool",
          "name": "failed",
          "type": "bool"
        },
        {
          "internalType": "uint256",
          "name": "collateralisationRatio",
          "type": "uint256"
        }
      ],
      "payable": false,
      "stateMutability": "view",
      "type": "function"
    },
    {
      "constant": true,
      "inputs": [
        {
          "internalType": "address",
          "name": "_basset",
          "type": "address"
        }
      ],
      "name": "getBasset",
      "outputs": [
        {
          "internalType": "address",
          "name": "addr",
          "type": "address"
        },
        {
          "internalType": "bytes32",
          "name": "key",
          "type": "bytes32"
        },
        {
          "internalType": "uint256",
          "name": "ratio",
          "type": "uint256"
        },
        {
          "internalType": "uint256",
          "name": "maxWeight",
          "type": "uint256"
        },
        {
          "internalType": "uint256",
          "name": "vaultBalance",
          "type": "uint256"
        },
        {
          "internalType": "enum MassetStructs.BassetStatus",
          "name": "status",
          "type": "uint8"
        }
      ],
      "payable": false,
      "stateMutability": "view",
      "type": "function"
    },
    {
      "constant": true,
      "inputs": [],
      "name": "getBassets",
      "outputs": [
        {
          "internalType": "address[]",
          "name": "addresses",
          "type": "address[]"
        },
        {
          "internalType": "bytes32[]",
          "name": "keys",
          "type": "bytes32[]"
        },
        {
          "internalType": "uint256[]",
          "name": "ratios",
          "type": "uint256[]"
        },
        {
          "internalType": "uint256[]",
          "name": "targets",
          "type": "uint256[]"
        },
        {
          "internalType": "uint256[]",
          "name": "vaults",
          "type": "uint256[]"
        },
        {
          "internalType": "enum MassetStructs.BassetStatus[]",
          "name": "statuses",
          "type": "uint8[]"
        }
      ],
      "payable": false,
      "stateMutability": "view",
      "type": "function"
    },
    {
      "constant": true,
      "inputs": [
        {
          "internalType": "address[]",
          "name": "_bassets",
          "type": "address[]"
        }
      ],
      "name": "getBitmapFor",
      "outputs": [
        {
          "internalType": "uint32",
          "name": "bitmap",
          "type": "uint32"
        }
      ],
      "payable": false,
      "stateMutability": "view",
      "type": "function"
    },
    {
      "constant": true,
      "inputs": [],
      "name": "getBitmapForAllBassets",
      "outputs": [
        {
          "internalType": "uint32",
          "name": "bitmap",
          "type": "uint32"
        }
      ],
      "payable": false,
      "stateMutability": "view",
      "type": "function"
    },
    {
      "constant": false,
      "inputs": [
        {
          "internalType": "address",
          "name": "_basset",
          "type": "address"
        },
        {
          "internalType": "bool",
          "name": "_belowPeg",
          "type": "bool"
        }
      ],
      "name": "handlePegLoss",
      "outputs": [
        {
          "internalType": "bool",
          "name": "alreadyActioned",
          "type": "bool"
        }
      ],
      "payable": false,
      "stateMutability": "nonpayable",
      "type": "function"
    },
    {
      "constant": false,
      "inputs": [
        {
          "internalType": "address",
          "name": "spender",
          "type": "address"
        },
        {
          "internalType": "uint256",
          "name": "addedValue",
          "type": "uint256"
        }
      ],
      "name": "increaseAllowance",
      "outputs": [
        {
          "internalType": "bool",
          "name": "",
          "type": "bool"
        }
      ],
      "payable": false,
      "stateMutability": "nonpayable",
      "type": "function"
    },
    {
      "constant": false,
      "inputs": [
        {
          "internalType": "address",
          "name": "_basset",
          "type": "address"
        },
        {
          "internalType": "address",
          "name": "_recollateraliser",
          "type": "address"
        }
      ],
      "name": "initiateRecol",
      "outputs": [],
      "payable": false,
      "stateMutability": "nonpayable",
      "type": "function"
    },
    {
      "constant": false,
      "inputs": [],
      "name": "lockForgeValidator",
      "outputs": [],
      "payable": false,
      "stateMutability": "nonpayable",
      "type": "function"
    },
    {
      "constant": true,
      "inputs": [],
      "name": "measurementMultipleEnabled",
      "outputs": [
        {
          "internalType": "bool",
          "name": "",
          "type": "bool"
        }
      ],
      "payable": false,
      "stateMutability": "view",
      "type": "function"
    },
    {
      "constant": false,
      "inputs": [
        {
          "internalType": "uint32",
          "name": "_bassetsBitmap",
          "type": "uint32"
        },
        {
          "internalType": "uint256[]",
          "name": "_bassetQuantity",
          "type": "uint256[]"
        },
        {
          "internalType": "address",
          "name": "_recipient",
          "type": "address"
        }
      ],
      "name": "mintBitmapTo",
      "outputs": [
        {
          "internalType": "uint256",
          "name": "massetMinted",
          "type": "uint256"
        }
      ],
      "payable": false,
      "stateMutability": "nonpayable",
      "type": "function"
    },
    {
      "constant": false,
      "inputs": [
        {
          "internalType": "address",
          "name": "_basset",
          "type": "address"
        },
        {
          "internalType": "uint256",
          "name": "_bassetQuantity",
          "type": "uint256"
        }
      ],
      "name": "mintSingle",
      "outputs": [
        {
          "internalType": "uint256",
          "name": "massetMinted",
          "type": "uint256"
        }
      ],
      "payable": false,
      "stateMutability": "nonpayable",
      "type": "function"
    },
    {
      "constant": false,
      "inputs": [
        {
          "internalType": "address",
          "name": "_basset",
          "type": "address"
        },
        {
          "internalType": "uint256",
          "name": "_bassetQuantity",
          "type": "uint256"
        },
        {
          "internalType": "address",
          "name": "_recipient",
          "type": "address"
        }
      ],
      "name": "mintSingleTo",
      "outputs": [
        {
          "internalType": "uint256",
          "name": "massetMinted",
          "type": "uint256"
        }
      ],
      "payable": false,
      "stateMutability": "nonpayable",
      "type": "function"
    },
    {
      "constant": true,
      "inputs": [],
      "name": "name",
      "outputs": [
        {
          "internalType": "string",
          "name": "",
          "type": "string"
        }
      ],
      "payable": false,
      "stateMutability": "view",
      "type": "function"
    },
    {
      "constant": false,
      "inputs": [
        {
          "internalType": "address",
          "name": "_basset",
          "type": "address"
        }
      ],
      "name": "negatePegLoss",
      "outputs": [],
      "payable": false,
      "stateMutability": "nonpayable",
      "type": "function"
    },
    {
      "constant": true,
      "inputs": [],
      "name": "nexus",
      "outputs": [
        {
          "internalType": "contract INexus",
          "name": "",
          "type": "address"
        }
      ],
      "payable": false,
      "stateMutability": "view",
      "type": "function"
    },
    {
      "constant": false,
      "inputs": [
        {
          "internalType": "uint32",
          "name": "_bassetsBitmap",
          "type": "uint32"
        },
        {
          "internalType": "uint256[]",
          "name": "_bassetQuantities",
          "type": "uint256[]"
        },
        {
          "internalType": "address",
          "name": "_recipient",
          "type": "address"
        }
      ],
      "name": "redeemBitmapTo",
      "outputs": [
        {
          "internalType": "uint256",
          "name": "massetRedeemed",
          "type": "uint256"
        }
      ],
      "payable": false,
      "stateMutability": "nonpayable",
      "type": "function"
    },
    {
      "constant": false,
      "inputs": [
        {
          "internalType": "address",
          "name": "_basset",
          "type": "address"
        },
        {
          "internalType": "uint256",
          "name": "_bassetQuantity",
          "type": "uint256"
        }
      ],
      "name": "redeemSingle",
      "outputs": [
        {
          "internalType": "uint256",
          "name": "massetRedeemed",
          "type": "uint256"
        }
      ],
      "payable": false,
      "stateMutability": "nonpayable",
      "type": "function"
    },
    {
      "constant": false,
      "inputs": [
        {
          "internalType": "address",
          "name": "_basset",
          "type": "address"
        },
        {
          "internalType": "uint256",
          "name": "_bassetQuantity",
          "type": "uint256"
        },
        {
          "internalType": "address",
          "name": "_recipient",
          "type": "address"
        }
      ],
      "name": "redeemSingleTo",
      "outputs": [
        {
          "internalType": "uint256",
          "name": "massetRedeemed",
          "type": "uint256"
        }
      ],
      "payable": false,
      "stateMutability": "nonpayable",
      "type": "function"
    },
    {
      "constant": true,
      "inputs": [],
      "name": "redemptionFee",
      "outputs": [
        {
          "internalType": "uint256",
          "name": "",
          "type": "uint256"
        }
      ],
      "payable": false,
      "stateMutability": "view",
      "type": "function"
    },
    {
      "constant": false,
      "inputs": [
        {
          "internalType": "address",
          "name": "_assetToRemove",
          "type": "address"
        }
      ],
      "name": "removeBasset",
      "outputs": [
        {
          "internalType": "bool",
          "name": "removed",
          "type": "bool"
        }
      ],
      "payable": false,
      "stateMutability": "nonpayable",
      "type": "function"
    },
    {
      "constant": false,
      "inputs": [
        {
          "internalType": "address[]",
          "name": "_bassets",
          "type": "address[]"
        },
        {
          "internalType": "uint256[]",
          "name": "_weights",
          "type": "uint256[]"
        }
      ],
      "name": "setBasketWeights",
      "outputs": [],
      "payable": false,
      "stateMutability": "nonpayable",
      "type": "function"
    },
    {
      "constant": false,
      "inputs": [
        {
          "internalType": "address",
          "name": "_feePool",
          "type": "address"
        }
      ],
      "name": "setFeePool",
      "outputs": [],
      "payable": false,
      "stateMutability": "nonpayable",
      "type": "function"
    },
    {
      "constant": false,
      "inputs": [
        {
          "internalType": "uint256",
          "name": "_redemptionFee",
          "type": "uint256"
        }
      ],
      "name": "setRedemptionFee",
      "outputs": [],
      "payable": false,
      "stateMutability": "nonpayable",
      "type": "function"
    },
    {
      "constant": true,
      "inputs": [],
      "name": "symbol",
      "outputs": [
        {
          "internalType": "string",
          "name": "",
          "type": "string"
        }
      ],
      "payable": false,
      "stateMutability": "view",
      "type": "function"
    },
    {
      "constant": true,
      "inputs": [],
      "name": "totalSupply",
      "outputs": [
        {
          "internalType": "uint256",
          "name": "",
          "type": "uint256"
        }
      ],
      "payable": false,
      "stateMutability": "view",
      "type": "function"
    },
    {
      "constant": false,
      "inputs": [
        {
          "internalType": "address",
          "name": "recipient",
          "type": "address"
        },
        {
          "internalType": "uint256",
          "name": "amount",
          "type": "uint256"
        }
      ],
      "name": "transfer",
      "outputs": [
        {
          "internalType": "bool",
          "name": "",
          "type": "bool"
        }
      ],
      "payable": false,
      "stateMutability": "nonpayable",
      "type": "function"
    },
    {
      "constant": false,
      "inputs": [
        {
          "internalType": "address",
          "name": "sender",
          "type": "address"
        },
        {
          "internalType": "address",
          "name": "recipient",
          "type": "address"
        },
        {
          "internalType": "uint256",
          "name": "amount",
          "type": "uint256"
        }
      ],
      "name": "transferFrom",
      "outputs": [
        {
          "internalType": "bool",
          "name": "",
          "type": "bool"
        }
      ],
      "payable": false,
      "stateMutability": "nonpayable",
      "type": "function"
    },
    {
      "constant": false,
      "inputs": [
        {
          "internalType": "address",
          "name": "_newForgeValidator",
          "type": "address"
        }
      ],
      "name": "upgradeForgeValidator",
      "outputs": [],
      "payable": false,
      "stateMutability": "nonpayable",
      "type": "function"
    }
  ],
  "bytecode": "0x60806040526007805460ff60a01b191690553480156200001e57600080fd5b5060405162006ba938038062006ba9833981016040819052620000419162000c5e565b6040518060400160405280600c81526020016b1b54dd18589b194811dbdb1960a21b815250604051806040016040528060048152602001631b51d31160e21b81525088888888888888868686868684808f8f60128282828260009080519060200190620000b092919062000a1a565b508151620000c690600190602085019062000a1a565b506002805460ff191660ff929092169190911790555050600680546001600160a01b0319166001600160a01b03959095169490941790935550508551151591506200013090505760405162461bcd60e51b8152600401620001279062001320565b60405180910390fd5b8051600f805460ff1916911515919091179055670de0b6b3a7640000600e5566470de4df82000060095560005b8451811015620001ec57620001e38582815181106200017857fe5b60200260200101518583815181106200018d57fe5b6020908102919091010151600f5460ff16620001be57620001b86200024c60201b620035511760201c565b620001d4565b848481518110620001cb57fe5b60200260200101515b6001600160e01b036200025516565b6001016200015d565b506200020284836001600160e01b03620004c816565b5050600880546001600160a01b039687166001600160a01b031991821617909155600780549590961694169390931790935550620014af9f50505050505050505050505050505050565b6305f5e1005b90565b6001600160a01b0383166200027e5760405162461bcd60e51b815260040162000127906200139e565b600062000294846001600160e01b036200073f16565b5090508015620002b85760405162461bcd60e51b81526004016200012790620013b0565b6000620002d085620007bf60201b620038ed1760201c565b90506000620002ef8260126200088760201b62002d9b1790919060201c565b905060006200031082600a0a86620008b260201b620038801790919060201c565b600a80546001600160a01b038a81166000818152600b60209081526040808320869055805160c0810182529384529083018d8152908301878152606084018381526080850184815260a086018581526001808a01808c559a90965286517fc65a7bb8d6351c1cf70c95a316cc6a92839c986682d98bc35f958f4883f9d2a86006909a02998a0180546001600160a01b0319169190991617885593517fc65a7bb8d6351c1cf70c95a316cc6a92839c986682d98bc35f958f4883f9d2a989015591517fc65a7bb8d6351c1cf70c95a316cc6a92839c986682d98bc35f958f4883f9d2aa880155517fc65a7bb8d6351c1cf70c95a316cc6a92839c986682d98bc35f958f4883f9d2ab870155517fc65a7bb8d6351c1cf70c95a316cc6a92839c986682d98bc35f958f4883f9d2ac860155517fc65a7bb8d6351c1cf70c95a316cc6a92839c986682d98bc35f958f4883f9d2ad9094018054969750949591949293929160ff1916908360058111156200048357fe5b0217905550506040516001600160a01b038a1692507fa83f9302fa4684335dd26b1bdd925929618565fa0f22bd9e91ab01753d8bf13c9150600090a250505050505050565b815181518114620004ed5760405162461bcd60e51b81526004016200012790620012ea565b600a548114620005115760405162461bcd60e51b8152600401620001279062001344565b60006200052983620008f960201b620038171760201c565b9050620005406200094860201b6200385b1760201c565b811015620005625760405162461bcd60e51b815260040162000127906200137a565b60005b82811015620006e75760008582815181106200057d57fe5b60200260200101519050600a60000182815481106200059857fe5b60009182526020909120600690910201546001600160a01b03828116911614620005d65760405162461bcd60e51b815260040162000127906200138c565b6000858381518110620005e557fe5b6020026020010151905060006005811115620005fd57fe5b600a8054859081106200060c57fe5b60009182526020909120600560069092020181015460ff16908111156200062f57fe5b14156200069a576200064b6200094860201b6200385b1760201c565b8111156200066d5760405162461bcd60e51b81526004016200012790620012d8565b80600a60000184815481106200067f57fe5b906000526020600020906006020160030181905550620006dc565b600a805484908110620006a957fe5b9060005260206000209060060201600301548114620006dc5760405162461bcd60e51b8152600401620001279062001368565b505060010162000565565b5083604051620006f89190620012a9565b60405180910390207fbe2adf2902216365c5c656d48909da65fad401f809e4351cdbcfcac40674566984604051620007319190620012c5565b60405180910390a250505050565b6001600160a01b0381166000908152600b602052604081205480620007b557600a546200077257506000905080620007ba565b826001600160a01b0316600a6000016000815481106200078e57fe5b600091825260208220600690910201546001600160a01b03169190911492509050620007ba565b600191505b915091565b60408051600481526024810182526020810180516001600160e01b031663313ce56760e01b179052905160009182916001600160a01b038516916200080491620012b7565b6000604051808303816000865af19150503d806000811462000843576040519150601f19603f3d011682016040523d82523d6000602084013e62000848565b606091505b50509050806200086c5760405162461bcd60e51b815260040162000127906200130e565b62000880836001600160e01b036200095416565b9392505050565b600082821115620008ac5760405162461bcd60e51b81526004016200012790620013c2565b50900390565b600082620008c357506000620008f3565b5081810281838281620008d257fe5b0414620008f35760405162461bcd60e51b81526004016200012790620012fc565b92915050565b80516000908190815b818110156200093f57600062000933848784815181106200091f57fe5b6020026020010151620009f460201b60201c565b93505060010162000902565b50909392505050565b670de0b6b3a764000090565b600080826001600160a01b031663313ce5676040518163ffffffff1660e01b815260040160206040518083038186803b1580156200099157600080fd5b505afa158015620009a6573d6000803e3d6000fd5b505050506040513d601f19601f82011682018060405250620009cc919081019062000d69565b60ff16905060008111620008f35760405162461bcd60e51b8152600401620001279062001356565b80820182811015620008f35760405162461bcd60e51b8152600401620001279062001332565b828054600181600116156101000203166002900490600052602060002090601f016020900481019282601f1062000a5d57805160ff191683800117855562000a8d565b8280016001018555821562000a8d579182015b8281111562000a8d57825182559160200191906001019062000a70565b5062000a9b92915062000a9f565b5090565b6200025291905b8082111562000a9b576000815560010162000aa6565b8051620008f3816200147f565b600082601f83011262000adb57600080fd5b815162000af262000aec82620013fb565b620013d4565b9150818183526020840193506020810190508385602084028201111562000b1857600080fd5b60005b8381101562000b48578162000b31888262000abc565b845250602092830192919091019060010162000b1b565b5050505092915050565b600082601f83011262000b6457600080fd5b815162000b7562000aec82620013fb565b9150818183526020840193506020810190508385602084028201111562000b9b57600080fd5b60005b8381101562000b48578162000bb4888262000c44565b845250602092830192919091019060010162000b9e565b600082601f83011262000bdd57600080fd5b815162000bee62000aec82620013fb565b9150818183526020840193506020810190508385602084028201111562000c1457600080fd5b60005b8381101562000b48578162000c2d888262000c44565b845250602092830192919091019060010162000c17565b8051620008f38162001499565b8051620008f381620014a4565b600080600080600080600060e0888a03121562000c7a57600080fd5b600062000c888a8a62000abc565b97505060208801516001600160401b0381111562000ca557600080fd5b62000cb38a828b0162000ac9565b96505060408801516001600160401b0381111562000cd057600080fd5b62000cde8a828b0162000b52565b95505060608801516001600160401b0381111562000cfb57600080fd5b62000d098a828b0162000bcb565b94505060808801516001600160401b0381111562000d2657600080fd5b62000d348a828b0162000bcb565b93505060a062000d478a828b0162000abc565b92505060c062000d5a8a828b0162000abc565b91505092959891949750929550565b60006020828403121562000d7c57600080fd5b600062000d8a848462000c51565b949350505050565b600062000da0838362000db6565b505060200190565b600062000da083836200129e565b62000dc18162001434565b82525050565b600062000dd48262001422565b62000de0818562001426565b935062000ded836200141c565b8060005b8381101562000e2157815162000e08888262000d92565b975062000e15836200141c565b92505060010162000df1565b509495945050505050565b600062000e398262001422565b62000e4581856200142b565b935062000e52836200141c565b8060005b8381101562000e2157815162000e6d888262000da8565b975062000e7a836200141c565b92505060010162000e56565b600062000e938262001422565b62000e9f818562001426565b935062000eb18185602086016200144c565b9290920192915050565b600062000eca602c836200142b565b7f417373657420776569676874206d757374206265206c657373207468616e206f81526b7220657175616c20746f203160a01b602082015260400192915050565b600062000f1a6023836200142b565b7f4d757374206265206d61746368696e672062617373657420646174612061727281526261797360e81b602082015260400192915050565b600062000f616023836200142b565b7f537461626c654d6174683a206d756c7469706c69636174696f6e206f766572668152626c6f7760e81b602082015260400192915050565b600062000fa86024836200142b565b7f546f6b656e20636f6e7472616374206d75737420737570706f727420646563698152636d616c7360e01b602082015260400192915050565b600062000ff0602c836200142b565b7f4d75737420696e697469616c69736520746865206261736b657420776974682081526b736f6d65206241737365747360a01b602082015260400192915050565b6000620010406011836200142b565b704d757374206e6f74206f766572666c6f7760781b815260200192915050565b60006200106f6027836200142b565b7f4d757374206265206d61746368696e67206578697374696e67206261736b6574815266081b185e5bdd5d60ca1b602082015260400192915050565b6000620010ba6029836200142b565b7f546f6b656e206d75737420686176652031206f72206d6f726520646563696d618152683610383630b1b2b99760b91b602082015260400192915050565b600062001107602e836200142b565b7f43616e6e6f74206368616e676520776569676874696e677320666f722073756681526d666572696e67204261737365747360901b602082015260400192915050565b6000620011596024836200142b565b7f4261736b657420776569676874206d75737420746f74616c203e2031303025208152633d3d203160e01b602082015260400192915050565b6000620011a16028836200142b565b7f426173736574206d75737420626520726570726573656e7465642073796d6d6581526774726963616c6c7960c01b602082015260400192915050565b6000620011ed601c836200142b565b7f41737365742061646472657373206d7573742062652076616c69642e00000000815260200192915050565b6000620012286026836200142b565b7f41737365742063616e6e6f7420616c726561647920626520696e20746865206281526530b9b5b2ba1760d11b602082015260400192915050565b6000620012726020836200142b565b7f537461626c654d6174683a207375627472616374696f6e206f766572666c6f77815260200192915050565b62000dc18162000252565b600062000880828462000dc7565b600062000880828462000e86565b6020808252810162000880818462000e2c565b60208082528101620008f38162000ebb565b60208082528101620008f38162000f0b565b60208082528101620008f38162000f52565b60208082528101620008f38162000f99565b60208082528101620008f38162000fe1565b60208082528101620008f38162001031565b60208082528101620008f38162001060565b60208082528101620008f381620010ab565b60208082528101620008f381620010f8565b60208082528101620008f3816200114a565b60208082528101620008f38162001192565b60208082528101620008f381620011de565b60208082528101620008f38162001219565b60208082528101620008f38162001263565b6040518181016001600160401b0381118282101715620013f357600080fd5b604052919050565b60006001600160401b038211156200141257600080fd5b5060209081020190565b60200190565b5190565b919050565b90815260200190565b60006001600160a01b038216620008f3565b60ff1690565b60005b83811015620014695781810151838201526020016200144f565b8381111562001479576000848401525b50505050565b6200148a8162001434565b81146200149657600080fd5b50565b6200148a8162000252565b6200148a8162001446565b6156ea80620014bf6000396000f3fe608060405234801561001057600080fd5b506004361061030c5760003560e01c806370a082311161019d578063a962527a116100e9578063d7d52266116100a2578063edc832b31161007c578063edc832b31461066b578063f3bdedd214610681578063f9423e1114610689578063fefd2c1c146106aa5761030c565b8063d7d5226614610648578063dd62ed3e14610650578063e5517841146106635761030c565b8063a962527a146105e6578063ae2e933b146105f9578063ae2efd911461060e578063b97e0ac614610616578063cd6ef2b01461061e578063d0305f1e146106355761030c565b8063905e891411610156578063a3f5c1d211610130578063a3f5c1d2146105a3578063a457c2d7146105b8578063a78ed11c146105cb578063a9059cbb146105d35761030c565b8063905e89141461057557806395d89b411461058857806396c1139f146105905761030c565b806370a082311461050e57806379cc6790146105215780637b4aec79146105345780637dbc1df01461053c5780638452e6641461054f5780638904b556146105625761030c565b80632e77c0c21161025c5780634c257a231161021557806351492f6b116101ef57806351492f6b146104d85780635d864ced146104eb5780635eae58b9146104f3578063677a8185146104fb5761030c565b80634c257a231461049d5780634d8b06a7146104b057806350cf430c146104c35761030c565b80632e77c0c21461042d578063313ce56714610435578063395093511461044a5780633e37bcbc1461045d57806342966c6814610482578063458f5815146104955761030c565b8063133c960c116102c957806319db2228116102a357806319db2228146103da5780631d3ce398146103ed57806323b872dd1461040757806326bbe60a1461041a5761030c565b8063133c960c1461039f57806318160ddd146103bf578063194f0d34146103c75761030c565b806306fdde0314610311578063095ea7b31461032f57806309be58f81461034f57806309f2a9831461036f5780630aa8d59a146103825780630b2d85011461038a575b600080fd5b6103196106bd565b60405161032691906151d4565b60405180910390f35b61034261033d366004613c5d565b610753565b604051610326919061519c565b61036261035d366004613c5d565b61076a565b60405161032691906151b8565b61034261037d366004613b6a565b61077e565b6103626107f7565b61039d610398366004613d44565b610805565b005b6103b26103ad366004613d02565b6108d3565b6040516103269190615550565b61036261093f565b6103626103d5366004613c5d565b610945565b61039d6103e8366004613b6a565b610952565b6103f5610a17565b6040516103269695949392919061502a565b610342610415366004613be0565b610c04565b61039d610428366004613b6a565b610c5b565b6103b2610d16565b61043d610d45565b604051610326919061555e565b610342610458366004613c5d565b610d4e565b61047061046b366004613b6a565b610d8a565b60405161032696959493929190614f89565b61039d610490366004613dd2565b610ddf565b610362610dec565b6103626104ab366004613cbf565b610df2565b6103626104be366004613e3e565b610e07565b6104cb610e51565b6040516103269190615019565b6103626104e6366004613cbf565b610ef1565b61039d610efe565b610362610f5c565b61039d610509366004613c5d565b610f69565b61036261051c366004613b6a565b6111ca565b61039d61052f366004613c5d565b6111e5565b6103626111f3565b61039d61054a366004613dd2565b611201565b6104cb61055d366004613ea8565b6112a7565b61039d610570366004613b6a565b611377565b610342610583366004613c2d565b611497565b6103196115f5565b61039d61059e366004613c8d565b611655565b6105ab6116dd565b60405161032691906151c6565b6103426105c6366004613c5d565b6116ec565b610342611728565b6103426105e1366004613c5d565b611731565b61039d6105f4366004613c5d565b61173e565b6106016117ce565b6040516103269190614ed8565b6103626117dd565b6103626117f4565b610626611804565b604051610326939291906150ab565b610362610643366004613e3e565b611880565b6105ab611ba2565b61036261065e366004613ba6565b611bb1565b610362611bdc565b610673611be8565b6040516103269291906151aa565b610362611bf7565b61069c610697366004613ea8565b611c08565b6040516103269291906150cb565b61039d6106b8366004613ba6565b611d41565b60008054604080516020601f60026000196101006001881615020190951694909404938401819004810282018101909252828152606093909290918301828280156107495780601f1061071e57610100808354040283529160200191610749565b820191906000526020600020905b81548152906001019060200180831161072c57829003601f168201915b5050505050905090565b6000610760338484611f31565b5060015b92915050565b6000610777838333611fe5565b9392505050565b600d5460009060ff16156107ad5760405162461bcd60e51b81526004016107a490615455565b60405180910390fd5b6107b56122c7565b6001600160a01b0316336001600160a01b0316146107e55760405162461bcd60e51b81526004016107a490615295565b6107ee82612349565b5060015b919050565b665374616b696e6760c81b81565b61080d6122c7565b6001600160a01b0316336001600160a01b03161461083d5760405162461bcd60e51b81526004016107a490615295565b600d5460ff16156108605760405162461bcd60e51b81526004016107a490615455565b6108cd848480806020026020016040519081016040528093929190818152602001838360200280828437600092019190915250506040805160208088028281018201909352878252909350879250869182918501908490808284376000920191909152506125f792505050565b50505050565b6000805b63ffffffff81168311156109385760008061091786868563ffffffff168181106108fd57fe5b90506020020160206109129190810190613b6a565b612825565b91509150811561092e5760ff811660020a93909317925b50506001016108d7565b5092915050565b60055490565b60006107778383336128a0565b3361095b612b7e565b6001600160a01b0316148061097f5750336109746122c7565b6001600160a01b0316145b61099b5760405162461bcd60e51b81526004016107a490615405565b6001600160a01b0381166109c15760405162461bcd60e51b81526004016107a490615415565b600880546001600160a01b0319166001600160a01b0383161790556040517f167cccccc6e9b2892a740ec13fc1e51d3de8ea384f25bd87fee7412d588637e290610a0c908390614ed8565b60405180910390a150565b600a5460408051828152602080840282010190915260609182918291829182918291818015610a50578160200160208202803883390190505b50965080604051908082528060200260200182016040528015610a7d578160200160208202803883390190505b50955080604051908082528060200260200182016040528015610aaa578160200160208202803883390190505b50945080604051908082528060200260200182016040528015610ad7578160200160208202803883390190505b50935080604051908082528060200260200182016040528015610b04578160200160208202803883390190505b50925080604051908082528060200260200182016040528015610b31578160200160208202803883390190505b50915060005b81811015610bfa57610b4881612bd1565b8d8781518110610b5457fe5b602002602001018d8881518110610b6757fe5b602002602001018d8981518110610b7a57fe5b602002602001018d8a81518110610b8d57fe5b602002602001018d8b81518110610ba057fe5b602002602001018d8c81518110610bb357fe5b60200260200101866005811115610bc657fe5b6005811115610bd157fe5b9052959095529490935293909252929092526001600160a01b0390921690915250600101610b37565b5050909192939495565b6000610c11848484612c9f565b6001600160a01b038416600090815260046020908152604080832033808552925290912054610c51918691610c4c908663ffffffff612d9b16565b611f31565b5060019392505050565b33610c64612b7e565b6001600160a01b03161480610c88575033610c7d6122c7565b6001600160a01b0316145b610ca45760405162461bcd60e51b81526004016107a490615405565b600754600160a01b900460ff1615610cce5760405162461bcd60e51b81526004016107a4906152d5565b6001600160a01b038116610cf45760405162461bcd60e51b81526004016107a4906152b5565b600780546001600160a01b0319166001600160a01b0392909216919091179055565b6000805b600a5463ffffffff82161015610d415763ffffffff811660020a9190911790600101610d1a565b5090565b60025460ff1690565b3360008181526004602090815260408083206001600160a01b03871684529091528120549091610760918590610c4c908663ffffffff612dc316565b600080600080600080600080610d9f89612825565b9150915081610dc05760405162461bcd60e51b81526004016107a490615445565b610dc981612bd1565b949e939d50919b50995097509095509350505050565b610de93382612de6565b50565b60095481565b6000610dff8484846128a0565b949350505050565b6000610e4885858580806020026020016040519081016040528093929190818152602001838360200280828437600092019190915250879250612ea3915050565b95945050505050565b600a54604080518281526020808402820101909152606091908290828015610e83578160200160208202803883390190505b50905060005b82811015610eea57600a805482908110610e9f57fe5b600091825260209091206006909102015482516001600160a01b0390911690839083908110610eca57fe5b6001600160a01b0390921660209283029190910190910152600101610e89565b5091505090565b6000610dff848484611fe5565b33610f07612b7e565b6001600160a01b03161480610f2b575033610f206122c7565b6001600160a01b0316145b610f475760405162461bcd60e51b81526004016107a490615405565b6007805460ff60a01b1916600160a01b179055565b65537973746f6b60d01b81565b610f71612b7e565b6001600160a01b0316336001600160a01b031614610fa15760405162461bcd60e51b81526004016107a490615485565b600080610fad84612825565b9150915081610fce5760405162461bcd60e51b81526004016107a490615365565b6000610fd982612bd1565b955060039450610fe99350505050565b816005811115610ff557fe5b146110125760405162461bcd60e51b81526004016107a490615285565b6000600a600001838154811061102457fe5b9060005260206000209060060201600301819055506000600a600001838154811061104b57fe5b60009182526020909120600460069092020101558315611177576000306001600160a01b03166318160ddd6040518163ffffffff1660e01b815260040160206040518083038186803b1580156110a057600080fd5b505afa1580156110b4573d6000803e3d6000fd5b505050506040513d601f19601f820116820180604052506110d89190810190613df0565b600e549091506000906110f290839063ffffffff61317f16565b905061111482611108838963ffffffff612d9b16565b9063ffffffff61319416565b600e55600a8054600591908690811061112957fe5b906000526020600020906006020160050160006101000a81548160ff0219169083600581111561115557fe5b0217905550600d805460ff1916600117905561117087612349565b50506111c3565b6004600a600001838154811061118957fe5b906000526020600020906006020160050160006101000a81548160ff021916908360058111156111b557fe5b02179055506111c385612349565b5050505050565b6001600160a01b031660009081526003602052604090205490565b6111ef82826131b5565b5050565b6626b0b730b3b2b960c91b81565b3361120a612b7e565b6001600160a01b0316148061122e5750336112236122c7565b6001600160a01b0316145b61124a5760405162461bcd60e51b81526004016107a490615405565b6702c68af0bb1400008111156112725760405162461bcd60e51b81526004016107a490615215565b60098190556040517f4dbf9634a3aaf3bc15ab627faeaac7c6b0a4754ead77206f1c11277356f2878f90610a0c9083906151b8565b6060806112b484846131fa565b905060608360ff166040519080825280602002602001820160405280156112e5578160200160208202803883390190505b50905060005b82518160ff16101561136e57600a600001838260ff168151811061130b57fe5b602002602001015160ff168154811061132057fe5b600091825260209091206006909102015482516001600160a01b0390911690839060ff841690811061134e57fe5b6001600160a01b03909216602092830291909101909101526001016112eb565b50949350505050565b61137f612b7e565b6001600160a01b0316336001600160a01b0316146113af5760405162461bcd60e51b81526004016107a490615485565b6000806113bb83612825565b91509150816113dc5760405162461bcd60e51b81526004016107a490615365565b6001600a8054839081106113ec57fe5b60009182526020909120600560069092020181015460ff169081111561140e57fe5b148061144957506002600a80548390811061142557fe5b60009182526020909120600560069092020181015460ff169081111561144757fe5b145b15611492576000600a600001828154811061146057fe5b906000526020600020906006020160050160006101000a81548160ff0219169083600581111561148c57fe5b02179055505b505050565b60006114a1612b7e565b6001600160a01b0316336001600160a01b0316146114d15760405162461bcd60e51b81526004016107a490615485565b600d5460ff16156114f45760405162461bcd60e51b81526004016107a490615455565b60008061150085612825565b91509150816115215760405162461bcd60e51b81526004016107a490615365565b6000600a600001828154811061153357fe5b6000918252602082206005600690920201015460ff1691508561155757600261155a565b60015b905080600581111561156857fe5b82600581111561157457fe5b14806115845750611584826132be565b15611596576001945050505050610764565b80600a60000184815481106115a757fe5b906000526020600020906006020160050160006101000a81548160ff021916908360058111156115d357fe5b021790555060018160058111156115e657fe5b50600098975050505050505050565b60018054604080516020601f600260001961010087891615020190951694909404938401819004810282018101909252828152606093909290918301828280156107495780601f1061071e57610100808354040283529160200191610749565b61165d6122c7565b6001600160a01b0316336001600160a01b03161461168d5760405162461bcd60e51b81526004016107a490615295565b600d5460ff16156116b05760405162461bcd60e51b81526004016107a490615455565b600f5460ff166116d25760405162461bcd60e51b81526004016107a4906153d5565b611492838383613310565b6006546001600160a01b031681565b3360008181526004602090815260408083206001600160a01b03871684529091528120549091610760918590610c4c908663ffffffff612d9b16565b600f5460ff1681565b6000610760338484612c9f565b6117466122c7565b6001600160a01b0316336001600160a01b0316146117765760405162461bcd60e51b81526004016107a490615295565b600d5460ff16156117995760405162461bcd60e51b81526004016107a490615455565b600f5460ff16156117bc5760405162461bcd60e51b81526004016107a4906153d5565b6111ef82826117c9613551565b613310565b6008546001600160a01b031681565b6f2932b1b7b63630ba32b930b634b9b2b960811b81565b6827b930b1b632a43ab160b91b81565b600d54600e54600c80546040805160208084028201810190925282815260609560009586959460ff90921693909291859183018282801561186e57602002820191906000526020600020905b81546001600160a01b03168152600190910190602001808311611850575b50505050509250925092509250909192565b60006001600160a01b0382166118a85760405162461bcd60e51b81526004016107a4906153f5565b826060806118b68884611c08565b600754600d549294509092506001600160a01b0316906301eb1ec890600a9060ff166118e061093f565b858c8c6040518763ffffffff1660e01b8152600401611904969594939291906150f0565b60006040518083038186803b15801561191c57600080fd5b505afa158015611930573d6000803e3d6000fd5b5060009250829150505b84811015611a3057600089898381811061195057fe5b905060200201351115611a2857600061199b85838151811061196e57fe5b6020026020010151604001518b8b8581811061198657fe5b9050602002013561355990919063ffffffff16565b90506119ad838263ffffffff612dc316565b92506119eb8a8a848181106119be57fe5b905060200201358684815181106119d157fe5b602002602001015160800151612d9b90919063ffffffff16565b600a6000018584815181106119fc57fe5b602002602001015160ff1681548110611a1157fe5b906000526020600020906006020160040181905550505b60010161193a565b50611a3b8133613592565b600e54611a4f90829063ffffffff61319416565b9050611a5b3382612de6565b60005b84811015611b4e576000898983818110611a7457fe5b905060200201351115611b4657838181518110611a8d57fe5b6020026020010151600001516001600160a01b031663a9059cbb888b8b85818110611ab457fe5b905060200201356040518363ffffffff1660e01b8152600401611ad8929190614fe3565b602060405180830381600087803b158015611af257600080fd5b505af1158015611b06573d6000803e3d6000fd5b505050506040513d601f19601f82011682018060405250611b2a9190810190613db4565b611b465760405162461bcd60e51b81526004016107a490615235565b600101611a5e565b50856001600160a01b03167fc7fcc6bd320aad050209d36569123a0fe001546ec1d361d6ebabf456b9c8ab2933838b8b604051611b8e9493929190614f0e565b60405180910390a298975050505050505050565b6007546001600160a01b031681565b6001600160a01b03918216600090815260046020908152604080832093909416825291909152205490565b644e6578757360d81b81565b600d54600e5460ff9091169082565b69476f7665726e616e636560b01b81565b6060806060611c1785856131fa565b905060608460ff16604051908082528060200260200182016040528015611c5857816020015b611c45613a92565b815260200190600190039081611c3d5790505b50905060005b82518160ff161015611d3457600a600001838260ff1681518110611c7e57fe5b602002602001015160ff1681548110611c9357fe5b60009182526020918290206040805160c081018252600690930290910180546001600160a01b03168352600181015493830193909352600283015490820152600382015460608201526004820154608082015260058083015491929160a084019160ff90911690811115611d0357fe5b6005811115611d0e57fe5b81525050828260ff1681518110611d2157fe5b6020908102919091010152600101611c5e565b50925090505b9250929050565b611d49612b7e565b6001600160a01b0316336001600160a01b031614611d795760405162461bcd60e51b81526004016107a490615485565b600d5460ff1615611d9c5760405162461bcd60e51b81526004016107a490615455565b600080611da884612825565b9150915081611dc95760405162461bcd60e51b81526004016107a490615365565b600080611dd583612bd1565b9550955050505050611de6816132be565b15611e035760405162461bcd60e51b81526004016107a490615285565b60008211611e235760405162461bcd60e51b81526004016107a490615495565b6003600a6000018481548110611e3557fe5b906000526020600020906006020160050160006101000a81548160ff02191690836005811115611e6157fe5b02179055506000600a6000018481548110611e7857fe5b906000526020600020906006020160040181905550856001600160a01b031663095ea7b386846040518363ffffffff1660e01b8152600401611ebb929190614fe3565b602060405180830381600087803b158015611ed557600080fd5b505af1158015611ee9573d6000803e3d6000fd5b505050506040513d601f19601f82011682018060405250611f0d9190810190613db4565b611f295760405162461bcd60e51b81526004016107a4906152f5565b505050505050565b6001600160a01b038316611f575760405162461bcd60e51b81526004016107a4906153e5565b6001600160a01b038216611f7d5760405162461bcd60e51b81526004016107a490615245565b6001600160a01b0380841660008181526004602090815260408083209487168084529490915290819020849055517f8c5be1e5ebec7d5bd14f71427d1e84f3dd0314c0f7b2291e5b200ac8c7c3b92590611fd89085906151b8565b60405180910390a3505050565b600d5460009060ff161561200b5760405162461bcd60e51b81526004016107a490615455565b6001600160a01b0382166120315760405162461bcd60e51b81526004016107a4906153f5565b600083116120515760405162461bcd60e51b81526004016107a4906152c5565b60008061205d86612825565b915091508161207e5760405162461bcd60e51b81526004016107a490615265565b612086613a92565b600a80548390811061209457fe5b60009182526020918290206040805160c081018252600690930290910180546001600160a01b03168352600181015493830193909352600283015490820152600382015460608201526004820154608082015260058083015491929160a084019160ff9091169081111561210457fe5b600581111561210f57fe5b9052506007549091506001600160a01b031663c5c4921761212e61093f565b83896040518463ffffffff1660e01b815260040161214e93929190615519565b60006040518083038186803b15801561216657600080fd5b505afa15801561217a573d6000803e3d6000fd5b50506040516323b872dd60e01b81526001600160a01b038a1692506323b872dd91506121ae90339030908b90600401614ee6565b602060405180830381600087803b1580156121c857600080fd5b505af11580156121dc573d6000803e3d6000fd5b505050506040513d601f19601f820116820180604052506122009190810190613db4565b61221c5760405162461bcd60e51b81526004016107a490615345565b6080810151612231908763ffffffff612dc316565b600a80548490811061223f57fe5b906000526020600020906006020160040181905550600061226d82604001518861375290919063ffffffff16565b90506122798682613763565b856001600160a01b03167f25b428dfde728ccfaddad7e29e4ac23c24ed7fd1a6e3e3f91894a9a073f5dfff82896040516122b4929190615542565b60405180910390a2979650505050505050565b6006546040805163030d028960e21b815290516000926001600160a01b031691630c340a24916004808301926020929190829003018186803b15801561230c57600080fd5b505afa158015612320573d6000803e3d6000fd5b505050506040513d601f19601f820116820180604052506123449190810190613b88565b905090565b60008061235583612825565b91509150816123765760405162461bcd60e51b81526004016107a490615335565b600a54612381613a92565b600a80548490811061238f57fe5b60009182526020918290206040805160c081018252600690930290910180546001600160a01b03168352600181015493830193909352600283015490820152600382015460608201526004820154608082015260058083015491929160a084019160ff909116908111156123ff57fe5b600581111561240a57fe5b9052506080810151909150156124325760405162461bcd60e51b81526004016107a490615435565b60038160a00151600581111561244457fe5b14156124625760405162461bcd60e51b81526004016107a490615425565b600a8054600019840190811061247457fe5b9060005260206000209060060201600a600001848154811061249257fe5b60009182526020909120825460069092020180546001600160a01b0319166001600160a01b0390921691909117815560018083015481830155600280840154908301556003808401549083015560048084015490830155600580840154818401805460ff90921693909260ff1990921691849081111561250e57fe5b021790555050600a80549091508061252257fe5b6000828152602080822060066000199094019384020180546001600160a01b0319908116825560018281018590556002830185905560038301859055600483018590556005909201805460ff19169055939094556001600160a01b038916808352600b9091526040808320839055600c8054958601815583527fdf6966c971051c3d54ec59162606531493a51404a002842f56009d7e5cf4a8c790940180549093168117909255915190917f1e5281bbecf5c15104f9e35265dbe738c1cd2597613cbf4a0a51713448bc13b991a25050505050565b8151815181146126195760405162461bcd60e51b81526004016107a490615205565b600a54811461263a5760405162461bcd60e51b81526004016107a4906152e5565b600061264583613817565b905061264f61385b565b81101561266e5760405162461bcd60e51b81526004016107a490615385565b60005b828110156127d157600085828151811061268757fe5b60200260200101519050600a60000182815481106126a157fe5b60009182526020909120600690910201546001600160a01b038281169116146126dc5760405162461bcd60e51b81526004016107a4906153a5565b60008583815181106126ea57fe5b602002602001015190506000600581111561270157fe5b600a80548590811061270f57fe5b60009182526020909120600560069092020181015460ff169081111561273157fe5b14156127895761273f61385b565b81111561275e5760405162461bcd60e51b81526004016107a4906151e5565b80600a600001848154811061276f57fe5b9060005260206000209060060201600301819055506127c7565b600a80548490811061279757fe5b90600052602060002090600602016003015481146127c75760405162461bcd60e51b81526004016107a490615375565b5050600101612671565b50836040516127e09190614ec0565b60405180910390207fbe2adf2902216365c5c656d48909da65fad401f809e4351cdbcfcac40674566984604051612817919061518b565b60405180910390a250505050565b6001600160a01b0381166000908152600b60205260408120548061289657600a546128555750600090508061289b565b826001600160a01b0316600a60000160008154811061287057fe5b600091825260208220600690910201546001600160a01b0316919091149250905061289b565b600191505b915091565b60006001600160a01b0382166128c85760405162461bcd60e51b81526004016107a4906153f5565b600083116128e85760405162461bcd60e51b81526004016107a4906152c5565b6000806128f486612825565b91509150816129155760405162461bcd60e51b81526004016107a490615265565b61291d613a92565b600a80548390811061292b57fe5b60009182526020918290206040805160c081018252600690930290910180546001600160a01b03168352600181015493830193909352600283015490820152600382015460608201526004820154608082015260058083015491929160a084019160ff9091169081111561299b57fe5b60058111156129a657fe5b905250600754600d549192506001600160a01b0316906399d50af890600a9060ff166129d061093f565b868b6040518663ffffffff1660e01b81526004016129f2959493929190615144565b60006040518083038186803b158015612a0a57600080fd5b505afa158015612a1e573d6000803e3d6000fd5b505050506000612a3b82604001518861355990919063ffffffff16565b6080830151909150612a53908863ffffffff612d9b16565b600a805485908110612a6157fe5b906000526020600020906006020160040181905550612a808133613592565b600e54612a9490829063ffffffff61319416565b9050612aa03382612de6565b815160405163a9059cbb60e01b81526001600160a01b039091169063a9059cbb90612ad19089908b90600401614fe3565b602060405180830381600087803b158015612aeb57600080fd5b505af1158015612aff573d6000803e3d6000fd5b505050506040513d601f19601f82011682018060405250612b239190810190613db4565b612b3f5760405162461bcd60e51b81526004016107a490615235565b856001600160a01b03167fe104dfafc38c27fc264e02c2493a5b90e7f43c722ce7770bfa0e3441df06f4053383868b6040516122b49493929190614f46565b6006546040516385acd64160e01b81526000916001600160a01b0316906385acd64190612bb9906626b0b730b3b2b960c91b906004016151b8565b60206040518083038186803b15801561230c57600080fd5b600080600080600080612be2613a92565b600a805489908110612bf057fe5b60009182526020918290206040805160c081018252600690930290910180546001600160a01b03168352600181015493830193909352600283015490820152600382015460608201526004820154608082015260058083015491929160a084019160ff90911690811115612c6057fe5b6005811115612c6b57fe5b9052508051602082015160408301516060840151608085015160a090950151939d929c50909a509850919650945092505050565b6001600160a01b038316612cc55760405162461bcd60e51b81526004016107a4906153b5565b6001600160a01b038216612ceb5760405162461bcd60e51b81526004016107a4906151f5565b6001600160a01b038316600090815260036020526040902054612d14908263ffffffff612d9b16565b6001600160a01b038085166000908152600360205260408082209390935590841681522054612d49908263ffffffff612dc316565b6001600160a01b0380841660008181526003602052604090819020939093559151908516907fddf252ad1be2c89b69c2b068fc378daa952ba7f163c4a11628f55a4df523b3ef90611fd89085906151b8565b600082821115612dbd5760405162461bcd60e51b81526004016107a4906154b5565b50900390565b818101828110156107645760405162461bcd60e51b81526004016107a490615325565b6001600160a01b038216612e0c5760405162461bcd60e51b81526004016107a490615355565b600554612e1f908263ffffffff612d9b16565b6005556001600160a01b038216600090815260036020526040902054612e4b908263ffffffff612d9b16565b6001600160a01b0383166000818152600360205260408082209390935591517fddf252ad1be2c89b69c2b068fc378daa952ba7f163c4a11628f55a4df523b3ef90612e979085906151b8565b60405180910390a35050565b600d5460009060ff1615612ec95760405162461bcd60e51b81526004016107a490615455565b6001600160a01b038216612eef5760405162461bcd60e51b81526004016107a4906153f5565b8251606080612efe8784611c08565b60075491935091506001600160a01b03166345a30635612f1c61093f565b84896040518463ffffffff1660e01b8152600401612f3c939291906154c5565b60006040518083038186803b158015612f5457600080fd5b505afa158015612f68573d6000803e3d6000fd5b5060009250829150505b84811015613119576000888281518110612f8857fe5b6020026020010151111561311157612f9e613a92565b848281518110612faa57fe5b6020026020010151905080600001516001600160a01b03166323b872dd33308c8681518110612fd557fe5b60200260200101516040518463ffffffff1660e01b8152600401612ffb93929190614ee6565b602060405180830381600087803b15801561301557600080fd5b505af1158015613029573d6000803e3d6000fd5b505050506040513d601f19601f8201168201806040525061304d9190810190613db4565b6130695760405162461bcd60e51b81526004016107a490615345565b61309389838151811061307857fe5b60200260200101518260800151612dc390919063ffffffff16565b600a6000018584815181106130a457fe5b602002602001015160ff16815481106130b957fe5b90600052602060002090600602016004018190555060006130fa82604001518b85815181106130e457fe5b602002602001015161375290919063ffffffff16565b905061310c848263ffffffff612dc316565b935050505b600101612f72565b506000811161313a5760405162461bcd60e51b81526004016107a490615275565b6131448682613763565b856001600160a01b03167fff0a1dc048ef1a5e9e2845c6bb6cafd8b8531f3cb15368f4a708dec7d7bc789f82896040516122b49291906154f9565b60006107778383670de0b6b3a7640000613867565b6000806131a984670de0b6b3a7640000613880565b9050610dff81846138bb565b6131bf8282612de6565b6001600160a01b0382166000908152600460209081526040808320338085529252909120546111ef918491610c4c908563ffffffff612d9b16565b6060808260ff1660405190808252806020026020018201604052801561322a578160200160208202803883390190505b50600a54909150600090815b818160ff16101561328e5760ff811660020a878116600163ffffffff8216106132845782868680600101975060ff168151811061326f57fe5b602002602001019060ff16908160ff16815250505b5050600101613236565b508460ff168260ff16146132b45760405162461bcd60e51b81526004016107a490615305565b5090949350505050565b600060038260058111156132ce57fe5b14806132e5575060048260058111156132e357fe5b145b806132fb575060058260058111156132f957fe5b145b15613308575060016107f2565b506000919050565b6001600160a01b0383166133365760405162461bcd60e51b81526004016107a490615465565b600061334184612825565b50905080156133625760405162461bcd60e51b81526004016107a490615475565b600061336d856138ed565b9050600061338260128363ffffffff612d9b16565b9050600061339a85600a84900a63ffffffff61388016565b600a80546001600160a01b038a81166000818152600b60209081526040808320869055805160c0810182529384529083018d8152908301878152606084018381526080850184815260a086018581526001808a01808c559a90965286517fc65a7bb8d6351c1cf70c95a316cc6a92839c986682d98bc35f958f4883f9d2a86006909a02998a0180546001600160a01b0319169190991617885593517fc65a7bb8d6351c1cf70c95a316cc6a92839c986682d98bc35f958f4883f9d2a989015591517fc65a7bb8d6351c1cf70c95a316cc6a92839c986682d98bc35f958f4883f9d2aa880155517fc65a7bb8d6351c1cf70c95a316cc6a92839c986682d98bc35f958f4883f9d2ab870155517fc65a7bb8d6351c1cf70c95a316cc6a92839c986682d98bc35f958f4883f9d2ac860155517fc65a7bb8d6351c1cf70c95a316cc6a92839c986682d98bc35f958f4883f9d2ad9094018054969750949591949293929160ff19169083600581111561350c57fe5b0217905550506040516001600160a01b038a1692507fa83f9302fa4684335dd26b1bdd925929618565fa0f22bd9e91ab01753d8bf13c9150600090a250505050505050565b6305f5e10090565b6000806135668484613880565b905060006135828261357d6305f5e1006001612d9b565b612dc3565b9050610e48816305f5e1006138bb565b6009548015611492576000806135a6612b7e565b6001600160a01b03166301f9c64f306040518263ffffffff1660e01b81526004016135d19190614ed8565b604080518083038186803b1580156135e857600080fd5b505afa1580156135fc573d6000803e3d6000fd5b505050506040513d601f19601f820116820180604052506136209190810190613e0e565b90925090506000613637848763ffffffff61317f16565b9050600061364b828563ffffffff61317f16565b9050600061365f828563ffffffff61319416565b905061366961399c565b6008546040516323b872dd60e01b81526001600160a01b03928316926323b872dd9261369f928c92909116908690600401614f7b565b602060405180830381600087803b1580156136b957600080fd5b505af11580156136cd573d6000803e3d6000fd5b505050506040513d601f19601f820116820180604052506136f19190810190613db4565b61370d5760405162461bcd60e51b81526004016107a490615395565b7fc110f1fa8eb59796a89e21b621b8ab1512d82b9049a6b324aadfe4a78de6f94187828860405161374093929190614ffe565b60405180910390a15050505050505050565b600061077783836305f5e100613867565b6001600160a01b0382166137895760405162461bcd60e51b81526004016107a4906154a5565b60055461379c908263ffffffff612dc316565b6005556001600160a01b0382166000908152600360205260409020546137c8908263ffffffff612dc316565b6001600160a01b0383166000818152600360205260408082209390935591519091907fddf252ad1be2c89b69c2b068fc378daa952ba7f163c4a11628f55a4df523b3ef90612e979085906151b8565b80516000908190815b818110156138525760006138478487848151811061383a57fe5b60200260200101516139d6565b935050600101613820565b50909392505050565b670de0b6b3a764000090565b6000806138748585613880565b9050610e4881846138bb565b60008261388f57506000610764565b508181028183828161389d57fe5b04146107645760405162461bcd60e51b81526004016107a490615225565b60008082116138dc5760405162461bcd60e51b81526004016107a4906153c5565b8183816138e557fe5b049392505050565b60408051600481526024810182526020810180516001600160e01b031663313ce56760e01b179052905160009182916001600160a01b0385169161393091614ecc565b6000604051808303816000865af19150503d806000811461396d576040519150601f19603f3d011682016040523d82523d6000602084013e613972565b606091505b50509050806139935760405162461bcd60e51b81526004016107a490615255565b610777836139f9565b6006546040516385acd64160e01b81526000916001600160a01b0316906385acd64190612bb99065537973746f6b60d01b906004016151b8565b808201828110156107645760405162461bcd60e51b81526004016107a4906152a5565b600080826001600160a01b031663313ce5676040518163ffffffff1660e01b815260040160206040518083038186803b158015613a3557600080fd5b505afa158015613a49573d6000803e3d6000fd5b505050506040513d601f19601f82011682018060405250613a6d9190810190613ed8565b60ff169050600081116107645760405162461bcd60e51b81526004016107a490615315565b6040805160c08101825260008082526020820181905291810182905260608101829052608081018290529060a082015290565b80356107648161566f565b80516107648161566f565b60008083601f840112613aed57600080fd5b50813567ffffffffffffffff811115613b0557600080fd5b602083019150836020820283011115611d3a57600080fd5b803561076481615683565b805161076481615683565b80356107648161568c565b80516107648161568c565b803561076481615695565b80356107648161569e565b80516107648161569e565b600060208284031215613b7c57600080fd5b6000610dff8484613ac5565b600060208284031215613b9a57600080fd5b6000610dff8484613ad0565b60008060408385031215613bb957600080fd5b6000613bc58585613ac5565b9250506020613bd685828601613ac5565b9150509250929050565b600080600060608486031215613bf557600080fd5b6000613c018686613ac5565b9350506020613c1286828701613ac5565b9250506040613c2386828701613b33565b9150509250925092565b60008060408385031215613c4057600080fd5b6000613c4c8585613ac5565b9250506020613bd685828601613b1d565b60008060408385031215613c7057600080fd5b6000613c7c8585613ac5565b9250506020613bd685828601613b33565b600080600060608486031215613ca257600080fd5b6000613cae8686613ac5565b9350506020613c1286828701613b33565b600080600060608486031215613cd457600080fd5b6000613ce08686613ac5565b9350506020613cf186828701613b33565b9250506040613c2386828701613ac5565b60008060208385031215613d1557600080fd5b823567ffffffffffffffff811115613d2c57600080fd5b613d3885828601613adb565b92509250509250929050565b60008060008060408587031215613d5a57600080fd5b843567ffffffffffffffff811115613d7157600080fd5b613d7d87828801613adb565b9450945050602085013567ffffffffffffffff811115613d9c57600080fd5b613da887828801613adb565b95989497509550505050565b600060208284031215613dc657600080fd5b6000610dff8484613b28565b600060208284031215613de457600080fd5b6000610dff8484613b33565b600060208284031215613e0257600080fd5b6000610dff8484613b3e565b60008060408385031215613e2157600080fd5b6000613e2d8585613b3e565b9250506020613bd685828601613b3e565b60008060008060608587031215613e5457600080fd5b6000613e608787613b49565b945050602085013567ffffffffffffffff811115613e7d57600080fd5b613e8987828801613adb565b93509350506040613e9c87828801613ac5565b91505092959194509250565b60008060408385031215613ebb57600080fd5b6000613ec78585613b49565b9250506020613bd685828601613b54565b600060208284031215613eea57600080fd5b6000610dff8484613b5f565b6000613f028383613f5d565b505060200190565b6000613f028383614222565b6000613f028383614263565b6000613f2e8383614d93565b505060c00190565b6000613f2e8383614e03565b6000613f028383614eb7565b613f57816155cd565b82525050565b613f57816155aa565b6000613f718261557e565b613f7b818561558c565b9350613f868361556c565b8060005b83811015613fb4578151613f9e8882613ef6565b9750613fa98361556c565b925050600101613f8a565b509495945050505050565b6000613fca8261557e565b613fd481856107f2565b9350613fdf8361556c565b8060005b83811015613fb4578151613ff78882613ef6565b97506140028361556c565b925050600101613fe3565b60006140188261557e565b614022818561558c565b935061402d8361556c565b8060005b83811015613fb45781516140458882613f0a565b97506140508361556c565b925050600101614031565b60006140668261557e565b614070818561558c565b935061407b8361556c565b8060005b83811015613fb45781516140938882613f16565b975061409e8361556c565b92505060010161407f565b60006140b48261557e565b6140be818561558c565b93506140c98361556c565b8060005b83811015613fb45781516140e18882613f22565b97506140ec8361556c565b9250506001016140cd565b600061410282615582565b61410c818561558c565b935061411783615572565b8060005b83811015613fb4578161412e8882613f36565b975061413983615586565b92505060010161411b565b6000614150838561558c565b93506001600160fb1b0383111561416657600080fd5b6020830292506141778385846155ea565b50500190565b60006141888261557e565b614192818561558c565b935061419d8361556c565b8060005b83811015613fb45781516141b58882613f0a565b97506141c08361556c565b9250506001016141a1565b60006141d68261557e565b6141e0818561558c565b93506141eb8361556c565b8060005b83811015613fb45781516142038882613f42565b975061420e8361556c565b9250506001016141ef565b613f57816155b5565b613f57816155a1565b60006142368261557e565b61424081856107f2565b93506142508185602086016155f6565b9290920192915050565b613f57816155d4565b613f57816155df565b60006142778261557e565b614281818561558c565b93506142918185602086016155f6565b61429a8161565b565b9093019392505050565b60006142b1602c8361558c565b7f417373657420776569676874206d757374206265206c657373207468616e206f81526b7220657175616c20746f203160a01b602082015260400192915050565b60006142ff60238361558c565b7f45524332303a207472616e7366657220746f20746865207a65726f206164647281526265737360e81b602082015260400192915050565b600061434460238361558c565b7f4d757374206265206d61746368696e672062617373657420646174612061727281526261797360e81b602082015260400192915050565b600061438960178361558c565b7f526564656d7074696f6e20666565203e206d6178466565000000000000000000815260200192915050565b60006143c260238361558c565b7f537461626c654d6174683a206d756c7469706c69636174696f6e206f766572668152626c6f7760e81b602082015260400192915050565b6000614407601b8361558c565b7f4d757374206265207375636365737366756c207472616e736665720000000000815260200192915050565b600061444060228361558c565b7f45524332303a20617070726f766520746f20746865207a65726f206164647265815261737360f01b602082015260400192915050565b600061448460248361558c565b7f546f6b656e20636f6e7472616374206d75737420737570706f727420646563698152636d616c7360e01b602082015260400192915050565b60006144ca60148361558c565b7318905cdcd95d08191bd95cdb89dd08195e1a5cdd60621b815260200192915050565b60006144fa601a8361558c565b7f4e6f206d6173736574207175616e7469747920746f206d696e74000000000000815260200192915050565b600061453360148361558c565b73496e76616c69642042617373657420737461746560601b815260200192915050565b600061456360198361558c565b7f4f6e6c7920676f7665726e6f722063616e206578656375746500000000000000815260200192915050565b600061459c60118361558c565b704d757374206e6f74206f766572666c6f7760781b815260200192915050565b60006145c960188361558c565b7f4d757374206265206e6f6e206e756c6c20616464726573730000000000000000815260200192915050565b600061460260168361558c565b7505175616e74697479206d757374206e6f7420626520360541b815260200192915050565b6000614634601a8361558c565b7f4d75737420626520616c6c6f77656420746f2075706772616465000000000000815260200192915050565b600061466d60278361558c565b7f4d757374206265206d61746368696e67206578697374696e67206261736b6574815266081b185e5bdd5d60ca1b602082015260400192915050565b60006146b660158361558c565b7410985cdcd95d08185c1c1c9bdd994819985a5b1959605a1b815260200192915050565b60006146e760188361558c565b7f466f756e6420696e636f727265637420656c656d656e74730000000000000000815260200192915050565b600061472060298361558c565b7f546f6b656e206d75737420686176652031206f72206d6f726520646563696d618152683610383630b1b2b99760b91b602082015260400192915050565b600061476b601d8361558c565b7f537461626c654d6174683a206164646974696f6e206f766572666c6f77000000815260200192915050565b60006147a4601b8361558c565b7f4173736574206d7573742061707065617220696e204261736b65740000000000815260200192915050565b60006147dd60168361558c565b7510985cdcd95d081d1c985b9cd9995c8819985a5b195960521b815260200192915050565b600061480f60218361558c565b7f45524332303a206275726e2066726f6d20746865207a65726f206164647265738152607360f81b602082015260400192915050565b6000614852601b8361558c565b7f426173736574206d75737420657869737420696e204261736b65740000000000815260200192915050565b600061488b602e8361558c565b7f43616e6e6f74206368616e676520776569676874696e677320666f722073756681526d666572696e67204261737365747360901b602082015260400192915050565b60006148db60248361558c565b7f4261736b657420776569676874206d75737420746f74616c203e2031303025208152633d3d203160e01b602082015260400192915050565b6000614921601e8361558c565b7f4d757374206265207375636365737366756c20666565207061796d656e740000815260200192915050565b600061495a60288361558c565b7f426173736574206d75737420626520726570726573656e7465642073796d6d6581526774726963616c6c7960c01b602082015260400192915050565b60006149a460258361558c565b7f45524332303a207472616e736665722066726f6d20746865207a65726f206164815264647265737360d81b602082015260400192915050565b60006149eb601c8361558c565b7f537461626c654d6174683a206469766973696f6e206279207a65726f00000000815260200192915050565b6000614a2460288361558c565b7f53706563696679696e67205f6d6561737572656d656e744d756c7469706c6520815267191a5cd8589b195960c21b602082015260400192915050565b6000614a6e60248361558c565b7f45524332303a20617070726f76652066726f6d20746865207a65726f206164648152637265737360e01b602082015260400192915050565b6000614ab460198361558c565b7f526563697069656e74206d757374206e6f742062652030783000000000000000815260200192915050565b6000614aed601d8361558c565b7f4d757374206265206d616e61676572206f7220676f7665726e616e6365000000815260200192915050565b6000614b2660158361558c565b744d7573742062652076616c6964206164647265737360581b815260200192915050565b6000614b5760158361558c565b74426173736574206d7573742062652061637469766560581b815260200192915050565b6000614b8860258361558c565b7f426173736574207661756c74206d75737420626520636f6d706c6574656c7920815264656d70747960d81b602082015260400192915050565b6000614bcf60118361558c565b7010985cdcd95d081b5d5cdd08195e1a5cdd607a1b815260200192915050565b6000614bfc60148361558c565b734261736b6574206d75737420626520616c69766560601b815260200192915050565b6000614c2c601c8361558c565b7f41737365742061646472657373206d7573742062652076616c69642e00000000815260200192915050565b6000614c6560268361558c565b7f41737365742063616e6e6f7420616c726561647920626520696e20746865206281526530b9b5b2ba1760d11b602082015260400192915050565b6000614cad60188361558c565b7f4f6e6c79206d616e616765722063616e20657865637574650000000000000000815260200192915050565b6000614ce660268361558c565b7f4d757374206861766520736f6d657468696e6720746f207265636f6c6c61746581526572616c69736560d01b602082015260400192915050565b6000614d2e601f8361558c565b7f45524332303a206d696e7420746f20746865207a65726f206164647265737300815260200192915050565b6000614d6760208361558c565b7f537461626c654d6174683a207375627472616374696f6e206f766572666c6f77815260200192915050565b805160c0830190614da48482613f5d565b506020820151614db76020850182614222565b506040820151614dca6040850182614222565b506060820151614ddd6060850182614222565b506080820151614df06080850182614222565b5060a08201516108cd60a0850182614263565b805460c0830190614e1381615622565b614e1d8582613f5d565b50506001820154614e2d81615635565b614e3a6020860182614222565b50506002820154614e4a81615635565b614e576040860182614222565b50506003820154614e6781615635565b614e746060860182614222565b50506004820154614e8481615635565b614e916080860182614222565b50506005820154614ea181615648565b6111c360a0860182614263565b613f57816155c4565b613f57816155a4565b60006107778284613fbf565b6000610777828461422b565b602081016107648284613f5d565b60608101614ef48286613f4e565b614f016020830185613f5d565b610dff6040830184614222565b60608101614f1c8287613f4e565b614f296020830186614222565b8181036040830152614f3c818486614144565b9695505050505050565b60808101614f548287613f4e565b614f616020830186614222565b614f6e6040830185614222565b610e486060830184614222565b60608101614ef48286613f5d565b60c08101614f978289613f5d565b614fa46020830188614222565b614fb16040830187614222565b614fbe6060830186614222565b614fcb6080830185614222565b614fd860a0830184614263565b979650505050505050565b60408101614ff18285613f5d565b6107776020830184614222565b6060810161500c8286613f5d565b614f016020830185614222565b602080825281016107778184613f66565b60c0808252810161503b8189613f66565b9050818103602083015261504f818861400d565b90508181036040830152615063818761417d565b90508181036060830152615077818661417d565b9050818103608083015261508b818561417d565b905081810360a083015261509f818461405b565b98975050505050505050565b606080825281016150bc8186613f66565b9050614f016020830185614219565b604080825281016150dc81856140a9565b90508181036020830152610dff81846141cb565b60a0808252810161510181896140f7565b90506151106020830188614219565b61511d6040830187614222565b818103606083015261512f81866141cb565b9050818103608083015261509f818486614144565b60a0808252810161515581886140f7565b90506151646020830187614219565b6151716040830186614222565b61517e6060830185614222565b614f3c6080830184614222565b60208082528101610777818461417d565b602081016107648284614219565b60408101614ff18285614219565b602081016107648284614222565b60208101610764828461425a565b60208082528101610777818461426c565b60208082528101610764816142a4565b60208082528101610764816142f2565b6020808252810161076481614337565b602080825281016107648161437c565b60208082528101610764816143b5565b60208082528101610764816143fa565b6020808252810161076481614433565b6020808252810161076481614477565b60208082528101610764816144bd565b60208082528101610764816144ed565b6020808252810161076481614526565b6020808252810161076481614556565b602080825281016107648161458f565b60208082528101610764816145bc565b60208082528101610764816145f5565b6020808252810161076481614627565b6020808252810161076481614660565b60208082528101610764816146a9565b60208082528101610764816146da565b6020808252810161076481614713565b602080825281016107648161475e565b6020808252810161076481614797565b60208082528101610764816147d0565b6020808252810161076481614802565b6020808252810161076481614845565b602080825281016107648161487e565b60208082528101610764816148ce565b6020808252810161076481614914565b602080825281016107648161494d565b6020808252810161076481614997565b60208082528101610764816149de565b6020808252810161076481614a17565b6020808252810161076481614a61565b6020808252810161076481614aa7565b6020808252810161076481614ae0565b6020808252810161076481614b19565b6020808252810161076481614b4a565b6020808252810161076481614b7b565b6020808252810161076481614bc2565b6020808252810161076481614bef565b6020808252810161076481614c1f565b6020808252810161076481614c58565b6020808252810161076481614ca0565b6020808252810161076481614cd9565b6020808252810161076481614d21565b6020808252810161076481614d5a565b606081016154d38286614222565b81810360208301526154e581856140a9565b90508181036040830152610e48818461417d565b604081016155078285614222565b8181036020830152610dff818461417d565b61010081016155288286614222565b6155356020830185614d93565b610dff60e0830184614222565b60408101614ff18285614222565b602081016107648284614eae565b602081016107648284614eb7565b60200190565b60009081526020902090565b5190565b5490565b60060190565b90815260200190565b6001600160a01b031690565b90565b60ff1690565b600061076482615595565b151590565b806107f281615665565b63ffffffff1690565b6000610764825b6000610764826155aa565b6000610764826155ba565b82818337506000910152565b60005b838110156156115781810151838201526020016155f9565b838111156108cd5750506000910152565b6000610764615630836155a1565b615595565b6000610764615643836155a1565b6155a1565b6000610764615656836155a1565b6155a4565b601f01601f191690565b60068110610de957fe5b615678816155aa565b8114610de957600080fd5b615678816155b5565b615678816155a1565b615678816155c4565b615678816155a456fea365627a7a723158203d9926b0def2c1ceb6acc5f1572a38080deabc39050e22a779f176cd5c62383c6c6578706572696d656e74616cf564736f6c63430005100040",
  "source": "pragma solidity ^0.5.12;\npragma experimental ABIEncoderV2;\nimport { Masset } from \"./Masset.sol\";\n\n/**\n  * @title mGLD\n  * @author Stability Labs Pty Ltd\n  * @dev Base layer functionality for the Masset\n  */\ncontract MGLD is Masset {\n\n    /** @dev constructor */\n    constructor (\n        address _nexus,\n        address[] memory _bassets,\n        bytes32[] memory _bassetKeys,\n        uint256[] memory _bassetWeights,\n        uint256[] memory _measurementMultiples,\n        address _feePool,\n        address _forgeValidator\n    )\n        Masset(\n            \"mStable Gold\",\n            \"mGLD\",\n            _nexus,\n            _bassets,\n            _bassetKeys,\n            _bassetWeights,\n            _measurementMultiples,\n            _feePool,\n            _forgeValidator\n        )\n        public\n    {\n        // basket.hasFeesEnabled = true;\n    }\n\n    // TODO - Override or separate out 'Minting' functions here -\n    // Minting volume for mGLD relies on subtracting the transfer/demourrage fees first\n}",
  "sourcePath": "/home/alex/projects/stability-labs/mstable/mstable-contracts/contracts/masset/mGLD.sol",
  "compiler": {
    "name": "solc",
    "version": "0.5.16+commit.9c3226ce.Emscripten.clang"
  },
  "schemaVersion": "3.0.23",
  "updatedAt": "2020-02-17T19:56:32.870Z",
  "devdoc": {
    "author": "Stability Labs Pty Ltd",
    "details": "Base layer functionality for the Masset",
    "methods": {
      "addBasset(address,bytes32)": {
        "details": "External func to allow the Manager to conduct add operations on the Basket",
        "params": {
          "_basset": "Address of the ERC20 token to add to the Basket",
          "_key": "Bytes32 key that will be used to lookup price in Oracle"
        }
      },
      "addBasset(address,bytes32,uint256)": {
        "details": "External func to allow the Manager to conduct add operations on the Basket",
        "params": {
          "_basset": "Address of the ERC20 token to add to the Basket",
          "_key": "Bytes32 key that will be used to lookup price in Oracle",
          "_measurementMultiple": "MeasurementMultiple of the Basset where 1:1 == 1e8"
        }
      },
      "burn(uint256)": {
        "details": "Destoys `amount` tokens from the caller.     * See `ERC20._burn`."
      },
      "burnFrom(address,uint256)": {
        "details": "See `ERC20._burnFrom`."
      },
      "completeRecol(address,uint256)": {
        "details": "Completes the auctioning process for a given Basset",
        "params": {
          "_basset": "Address of the ERC20 token to isolate",
          "_unitsUnderCollateralised": "Masset units that we failed to recollateralise"
        }
      },
      "constructor": {
        "details": "constructor "
      },
      "convertBitmapToBassets(uint32,uint8)": {
        "details": "Convert bitmap representing bAssets location to Bassets array",
        "params": {
          "_bitmap": "bits set in bitmap represents which bAssets to use",
          "_size": "size of bAssets array"
        },
        "return": "array of Basset array"
      },
      "convertBitmapToBassetsAddress(uint32,uint8)": {
        "details": "Convert bitmap representing bAssets location to bAssets addresses",
        "params": {
          "_bitmap": "bits set in bitmap represents which bAssets to use",
          "_size": "size of bAssets array"
        },
        "return": "array of bAssets array"
      },
      "decimals()": {
        "details": "Returns the number of decimals used to get its user representation."
      },
      "getAllBassetsAddress()": {
        "details": "Get all bAssets addresses",
        "return": "return an array of bAssets addresses"
      },
      "getBasket()": {
        "details": "Get basket details",
        "return": "All the details"
      },
      "getBasset(address)": {
        "details": "Get all basket assets, failing if the Basset does not exist",
        "return": "Struct array of all basket assets"
      },
      "getBassets()": {
        "details": "Get all basket assets",
        "return": "Struct array of all basket assets"
      },
      "getBitmapFor(address[])": {
        "details": "Returns the bitmap for given bAssets addresses",
        "params": {
          "_bassets": "bAsset addresses for which bitmap is needed"
        },
        "return": "bitmap with bits set according to bAsset address position"
      },
      "getBitmapForAllBassets()": {
        "details": "Get bitmap for all bAsset addresses",
        "return": "bitmap with bits set according to bAsset address position"
      },
      "handlePegLoss(address,bool)": {
        "details": "Executes the Auto Redistribution event by isolating the Basset from the Basket",
        "params": {
          "_basset": "Address of the ERC20 token to isolate",
          "_belowPeg": "Bool to describe whether the basset deviated below peg (t) or above (f)"
        },
        "return": "alreadyActioned Bool to show whether a Basset had already been actioned"
      },
      "initiateRecol(address,address)": {
        "details": "Sends the affected Basset off to the Recollateraliser to be auctioned",
        "params": {
          "_basset": "Address of the Basset to isolate",
          "_recollateraliser": "Address of the recollateraliser, to which the tokens should be sent"
        }
      },
      "lockForgeValidator()": {
        "details": "Locks the ForgeValidator into it's final form"
      },
      "mintBitmapTo(uint32,uint256[],address)": {
        "details": "Mint with bAsset addresses in bitmap",
        "params": {
          "_bassetQuantity": "bAsset's quantity to send",
          "_bassetsBitmap": "bAssets index in bitmap"
        },
        "return": "massetMinted returns the number of newly minted mAssets"
      },
      "mintSingle(address,uint256)": {
        "details": "Mint a single bAsset",
        "params": {
          "_basset": "bAsset address to mint",
          "_bassetQuantity": "bAsset quantity to mint"
        },
        "return": "returns the number of newly minted mAssets"
      },
      "mintSingleTo(address,uint256,address)": {
        "details": "Mint a single bAsset",
        "params": {
          "_basset": "bAsset address to mint",
          "_bassetQuantity": "bAsset quantity to mint",
          "_recipient": "receipient of the newly minted mAsset tokens"
        },
        "return": "returns the number of newly minted mAssets"
      },
      "name()": {
        "details": "Returns the name of the token."
      },
      "negatePegLoss(address)": {
        "details": "Negates the isolation of a given Basset",
        "params": {
          "_basset": "Address of the Basset"
        }
      },
      "redeemBitmapTo(uint32,uint256[],address)": {
        "details": "Redeems a certain quantity of Bassets, in exchange for burning the relative Masset quantity from the User",
        "params": {
          "_bassetQuantities": "Exact quantities of Bassets to redeem",
          "_recipient": "Account to which the redeemed Bassets should be sent"
        }
      },
      "redeemSingle(address,uint256)": {
        "details": "Redeems a certain quantity of Bassets, in exchange for burning the relative Masset quantity from the User",
        "params": {
          "_bassetQuantity": "Exact quantities of Bassets to redeem"
        }
      },
      "removeBasset(address)": {
        "details": "Removes a specific Asset from the Basket, given that its target/collateral level is 0 As this is a cleanup operation, anybody should be able to perform this task",
        "params": {
          "_assetToRemove": "The asset to remove from the basket"
        },
        "return": "bool To signify whether the asset was found and removed from the basket"
      },
      "setBasketWeights(address[],uint256[])": {
        "details": "External call to set weightings of a new Basket",
        "params": {
          "_bassets": "Array of Basset addresses",
          "_weights": "Array of Basset weights - summing 100% where 100% == 1e18"
        }
      },
      "setFeePool(address)": {
        "details": "Set the recipient address of forge fees",
        "params": {
          "_feePool": "Address of the fee pool"
        }
      },
      "setRedemptionFee(uint256)": {
        "details": "Set the ecosystem fee for redeeming a masset",
        "params": {
          "_redemptionFee": "Fee calculated in (%/100 * 1e18)"
        }
      },
      "symbol()": {
        "details": "Returns the symbol of the token"
      },
      "upgradeForgeValidator(address)": {
        "details": "Upgrades the version of ForgeValidator protocol",
        "params": {
          "_newForgeValidator": "Address of the new ForgeValidator"
        }
      }
    },
    "title": "mGLD"
  },
  "userdoc": {
    "methods": {}
  }
}