{
  "contractName": "MinterRole",
  "abi": [
    {
      "anonymous": false,
      "inputs": [
        {
          "indexed": true,
          "internalType": "address",
          "name": "account",
          "type": "address"
        }
      ],
      "name": "MinterAdded",
      "type": "event"
    },
    {
      "anonymous": false,
      "inputs": [
        {
          "indexed": true,
          "internalType": "address",
          "name": "account",
          "type": "address"
        }
      ],
      "name": "MinterRemoved",
      "type": "event"
    },
    {
      "constant": true,
      "inputs": [
        {
          "internalType": "address",
          "name": "account",
          "type": "address"
        }
      ],
      "name": "isMinter",
      "outputs": [
        {
          "internalType": "bool",
          "name": "",
          "type": "bool"
        }
      ],
      "payable": false,
      "stateMutability": "view",
      "type": "function"
    }
  ],
  "bytecode": "0x608060405234801561001057600080fd5b50610120806100206000396000f3fe6080604052348015600f57600080fd5b506004361060285760003560e01c8063aa271e1a14602d575b600080fd5b605060048036036020811015604157600080fd5b50356001600160a01b03166064565b604080519115158252519081900360200190f35b60006001600160a01b03821660aa5760405162461bcd60e51b81526004018080602001828103825260228152602001806100ca6022913960400191505060405180910390fd5b506001600160a01b031660009081526020819052604090205460ff169056fe526f6c65733a206163636f756e7420697320746865207a65726f2061646472657373a265627a7a72315820d2bf301a7a9749f93c6928349a579e3b12a107d7d4929cf6a675242a2f1cb0bb64736f6c63430005100032",
  "source": "pragma solidity ^0.5.12;\n\nimport { ERC20Burnable } from \"openzeppelin-solidity/contracts/token/ERC20/ERC20Burnable.sol\";\nimport { ERC20Detailed } from \"openzeppelin-solidity/contracts/token/ERC20/ERC20Detailed.sol\";\nimport { ERC20 } from \"openzeppelin-solidity/contracts/token/ERC20/ERC20.sol\";\n\n/**\n * @dev Consolidation of OpenZeppelin's 'Roles' and 'MinterRole' into one\n */\ncontract MinterRole {\n    event MinterAdded(address indexed account);\n    event MinterRemoved(address indexed account);\n\n    mapping (address => bool) private _minters;\n\n    modifier onlyMinter() {\n        require(isMinter(msg.sender), \"MinterRole: caller does not have the Minter role\");\n        _;\n    }\n\n    function isMinter(address account) public view returns (bool) {\n        require(account != address(0), \"Roles: account is the zero address\");\n        return _minters[account];\n    }\n\n    function _addMinter(address account) internal {\n        if(!isMinter(account)){\n            _minters[account] = true;\n            emit MinterAdded(account);\n        }\n    }\n\n    function _removeMinter(address account) internal {\n        if(isMinter(account)){\n            _minters[account] = false;\n            emit MinterRemoved(account);\n        }\n    }\n}\n\n\n/**\n * @dev Extension of `ERC20` that adds a set of accounts with the `MinterRole`,\n * which have permission to mint (create) new tokens as they see fit.\n */\ncontract ERC20Mintable is ERC20, MinterRole {\n    /**\n     * @dev See `ERC20._mint`.\n     */\n    function mint(address account, uint256 amount) public onlyMinter returns (bool) {\n        _mint(account, amount);\n        return true;\n    }\n}\n\n/**\n * @title MetaToken (MTA)\n * @dev MTA is used throughout the mStable Standard; namely through governance,\n *      forging and re-collateralisation\n */\ncontract MetaToken is ERC20Burnable, ERC20Detailed, ERC20Mintable {\n\n    /**\n      * @dev Initialises basic ERC20 token and mints core supply\n      */\n    constructor (\n        address _initialRecipient\n    )\n        public\n        ERC20Detailed(\n            \"mStable Meta\",\n            \"MTA\",\n            18\n        )\n    {\n        uint initialSupply = 100000000 * (10 ** 18);\n        _mint(_initialRecipient, initialSupply);\n    }\n}\n\n",
  "sourcePath": "/Users/james/mstable/mStable-contracts/contracts/systok/MetaToken.sol",
  "compiler": {
    "name": "solc",
    "version": "0.5.16+commit.9c3226ce.Emscripten.clang"
  },
  "schemaVersion": "3.0.23",
  "updatedAt": "2020-02-05T09:31:38.611Z",
  "devdoc": {
    "details": "Consolidation of OpenZeppelin's 'Roles' and 'MinterRole' into one",
    "methods": {}
  },
  "userdoc": {
    "methods": {}
  }
}