{
  "contractName": "MockERC20Factory",
  "abi": [
    {
      "constant": false,
      "inputs": [
        {
          "internalType": "string",
          "name": "_name",
          "type": "string"
        },
        {
          "internalType": "string",
          "name": "_symbol",
          "type": "string"
        },
        {
          "internalType": "uint8",
          "name": "_decimals",
          "type": "uint8"
        },
        {
          "internalType": "uint256",
          "name": "_supply",
          "type": "uint256"
        }
      ],
      "name": "create",
      "outputs": [
        {
          "internalType": "address",
          "name": "",
          "type": "address"
        }
      ],
      "payable": false,
      "stateMutability": "nonpayable",
      "type": "function"
    }
  ],
  "bytecode": "0x608060405234801561001057600080fd5b50610fc0806100206000396000f3fe608060405234801561001057600080fd5b506004361061002b5760003560e01c8063831e80f214610030575b600080fd5b6101656004803603608081101561004657600080fd5b81019060208101813564010000000081111561006157600080fd5b82018360208201111561007357600080fd5b8035906020019184600183028401116401000000008311171561009557600080fd5b91908080601f01602080910402602001604051908101604052809392919081815260200183838082843760009201919091525092959493602081019350359150506401000000008111156100e857600080fd5b8201836020820111156100fa57600080fd5b8035906020019184600183028401116401000000008311171561011c57600080fd5b91908080601f0160208091040260200160405190810160405280939291908181526020018383808284376000920191909152509295505060ff8335169350505060200135610181565b604080516001600160a01b039092168252519081900360200190f35b6000808585853386604051610195906102ad565b60ff841660408201526001600160a01b03831660608201526080810182905260a08082528651908201528551819060208083019160c08401918a019080838360005b838110156101ef5781810151838201526020016101d7565b50505050905090810190601f16801561021c5780820380516001836020036101000a031916815260200191505b50838103825287518152875160209182019189019080838360005b8381101561024f578181015183820152602001610237565b50505050905090810190601f16801561027c5780820380516001836020036101000a031916815260200191505b50975050505050505050604051809103906000f0801580156102a2573d6000803e3d6000fd5b509695505050505050565b610cd1806102bb8339019056fe60806040523480156200001157600080fd5b5060405162000cd138038062000cd1833981810160405260a08110156200003757600080fd5b81019080805160405193929190846401000000008211156200005857600080fd5b9083019060208201858111156200006e57600080fd5b82516401000000008111828201881017156200008957600080fd5b82525081516020918201929091019080838360005b83811015620000b85781810151838201526020016200009e565b50505050905090810190601f168015620000e65780820380516001836020036101000a031916815260200191505b50604052602001805160405193929190846401000000008211156200010a57600080fd5b9083019060208201858111156200012057600080fd5b82516401000000008111828201881017156200013b57600080fd5b82525081516020918201929091019080838360005b838110156200016a57818101518382015260200162000150565b50505050905090810190601f168015620001985780820380516001836020036101000a031916815260200191505b506040908152602082810151918301516060909301518751929550929350869186918691620001ce916003919086019062000376565b508151620001e490600490602085019062000376565b506005805460ff191660ff9290921691909117905550620002089050828262000213565b50505050506200041b565b6001600160a01b0382166200026f576040805162461bcd60e51b815260206004820152601f60248201527f45524332303a206d696e7420746f20746865207a65726f206164647265737300604482015290519081900360640190fd5b6200028b816002546200031460201b620007821790919060201c565b6002556001600160a01b03821660009081526020818152604090912054620002be9183906200078262000314821b17901c565b6001600160a01b0383166000818152602081815260408083209490945583518581529351929391927fddf252ad1be2c89b69c2b068fc378daa952ba7f163c4a11628f55a4df523b3ef9281900390910190a35050565b6000828201838110156200036f576040805162461bcd60e51b815260206004820152601b60248201527f536166654d6174683a206164646974696f6e206f766572666c6f770000000000604482015290519081900360640190fd5b9392505050565b828054600181600116156101000203166002900490600052602060002090601f016020900481019282601f10620003b957805160ff1916838001178555620003e9565b82800160010185558215620003e9579182015b82811115620003e9578251825591602001919060010190620003cc565b50620003f7929150620003fb565b5090565b6200041891905b80821115620003f7576000815560010162000402565b90565b6108a6806200042b6000396000f3fe608060405234801561001057600080fd5b50600436106100a95760003560e01c8063395093511161007157806339509351146101d957806370a082311461020557806395d89b411461022b578063a457c2d714610233578063a9059cbb1461025f578063dd62ed3e1461028b576100a9565b806306fdde03146100ae578063095ea7b31461012b57806318160ddd1461016b57806323b872dd14610185578063313ce567146101bb575b600080fd5b6100b66102b9565b6040805160208082528351818301528351919283929083019185019080838360005b838110156100f05781810151838201526020016100d8565b50505050905090810190601f16801561011d5780820380516001836020036101000a031916815260200191505b509250505060405180910390f35b6101576004803603604081101561014157600080fd5b506001600160a01b03813516906020013561034f565b604080519115158252519081900360200190f35b610173610365565b60408051918252519081900360200190f35b6101576004803603606081101561019b57600080fd5b506001600160a01b0381358116916020810135909116906040013561036b565b6101c36103c2565b6040805160ff9092168252519081900360200190f35b610157600480360360408110156101ef57600080fd5b506001600160a01b0381351690602001356103cb565b6101736004803603602081101561021b57600080fd5b50356001600160a01b0316610407565b6100b6610422565b6101576004803603604081101561024957600080fd5b506001600160a01b038135169060200135610483565b6101576004803603604081101561027557600080fd5b506001600160a01b0381351690602001356104bf565b610173600480360360408110156102a157600080fd5b506001600160a01b03813581169160200135166104cc565b60038054604080516020601f60026000196101006001881615020190951694909404938401819004810282018101909252828152606093909290918301828280156103455780601f1061031a57610100808354040283529160200191610345565b820191906000526020600020905b81548152906001019060200180831161032857829003601f168201915b5050505050905090565b600061035c3384846104f7565b50600192915050565b60025490565b60006103788484846105e3565b6001600160a01b0384166000908152600160209081526040808320338085529252909120546103b89186916103b3908663ffffffff61072516565b6104f7565b5060019392505050565b60055460ff1690565b3360008181526001602090815260408083206001600160a01b0387168452909152812054909161035c9185906103b3908663ffffffff61078216565b6001600160a01b031660009081526020819052604090205490565b60048054604080516020601f60026000196101006001881615020190951694909404938401819004810282018101909252828152606093909290918301828280156103455780601f1061031a57610100808354040283529160200191610345565b3360008181526001602090815260408083206001600160a01b0387168452909152812054909161035c9185906103b3908663ffffffff61072516565b600061035c3384846105e3565b6001600160a01b03918216600090815260016020908152604080832093909416825291909152205490565b6001600160a01b03831661053c5760405162461bcd60e51b815260040180806020018281038252602481526020018061084e6024913960400191505060405180910390fd5b6001600160a01b0382166105815760405162461bcd60e51b81526004018080602001828103825260228152602001806108076022913960400191505060405180910390fd5b6001600160a01b03808416600081815260016020908152604080832094871680845294825291829020859055815185815291517f8c5be1e5ebec7d5bd14f71427d1e84f3dd0314c0f7b2291e5b200ac8c7c3b9259281900390910190a3505050565b6001600160a01b0383166106285760405162461bcd60e51b81526004018080602001828103825260258152602001806108296025913960400191505060405180910390fd5b6001600160a01b03821661066d5760405162461bcd60e51b81526004018080602001828103825260238152602001806107e46023913960400191505060405180910390fd5b6001600160a01b038316600090815260208190526040902054610696908263ffffffff61072516565b6001600160a01b0380851660009081526020819052604080822093909355908416815220546106cb908263ffffffff61078216565b6001600160a01b038084166000818152602081815260409182902094909455805185815290519193928716927fddf252ad1be2c89b69c2b068fc378daa952ba7f163c4a11628f55a4df523b3ef92918290030190a3505050565b60008282111561077c576040805162461bcd60e51b815260206004820152601e60248201527f536166654d6174683a207375627472616374696f6e206f766572666c6f770000604482015290519081900360640190fd5b50900390565b6000828201838110156107dc576040805162461bcd60e51b815260206004820152601b60248201527f536166654d6174683a206164646974696f6e206f766572666c6f770000000000604482015290519081900360640190fd5b939250505056fe45524332303a207472616e7366657220746f20746865207a65726f206164647265737345524332303a20617070726f766520746f20746865207a65726f206164647265737345524332303a207472616e736665722066726f6d20746865207a65726f206164647265737345524332303a20617070726f76652066726f6d20746865207a65726f2061646472657373a265627a7a7231582084337a15208a81ee8a63babfd84dcb914e1258604fa05da3486f462502585f4864736f6c63430005100032a265627a7a72315820e34a88d768113469a3fd39afe1f7672bffbeeaca4ffb7d08efc7decd9451736b64736f6c63430005100032",
  "source": "pragma solidity ^0.5.12;\n\nimport \"./ERC20Mock.sol\";\n\ncontract MockERC20Factory {\n    function create (\n        string memory _name,\n        string memory _symbol,\n        uint8 _decimals,\n        uint256 _supply\n    )\n        public\n        returns (address)\n    {\n        ERC20Mock newToken = new ERC20Mock(\n            _name,\n            _symbol,\n            _decimals,\n            msg.sender,\n            _supply\n        );\n\n        return address(newToken);\n    }\n}",
  "sourcePath": "/Users/james/mstable/mStable-contracts/contracts/z_mocks/bassets/MockERC20Factory.sol",
  "compiler": {
    "name": "solc",
    "version": "0.5.16+commit.9c3226ce.Emscripten.clang"
  },
  "schemaVersion": "3.0.23",
  "updatedAt": "2020-02-05T09:31:38.618Z",
  "devdoc": {
    "methods": {}
  },
  "userdoc": {
    "methods": {}
  }
}