{
  "contractName": "MockPub",
  "abi": [
    {
      "constant": true,
      "inputs": [],
      "name": "Key_Governance",
      "outputs": [
        {
          "internalType": "bytes32",
          "name": "",
          "type": "bytes32"
        }
      ],
      "payable": false,
      "stateMutability": "view",
      "type": "function"
    },
    {
      "constant": true,
      "inputs": [],
      "name": "Key_Manager",
      "outputs": [
        {
          "internalType": "bytes32",
          "name": "",
          "type": "bytes32"
        }
      ],
      "payable": false,
      "stateMutability": "view",
      "type": "function"
    },
    {
      "constant": true,
      "inputs": [],
      "name": "Key_Nexus",
      "outputs": [
        {
          "internalType": "bytes32",
          "name": "",
          "type": "bytes32"
        }
      ],
      "payable": false,
      "stateMutability": "view",
      "type": "function"
    },
    {
      "constant": true,
      "inputs": [],
      "name": "Key_OracleHub",
      "outputs": [
        {
          "internalType": "bytes32",
          "name": "",
          "type": "bytes32"
        }
      ],
      "payable": false,
      "stateMutability": "view",
      "type": "function"
    },
    {
      "constant": true,
      "inputs": [],
      "name": "Key_Recollateraliser",
      "outputs": [
        {
          "internalType": "bytes32",
          "name": "",
          "type": "bytes32"
        }
      ],
      "payable": false,
      "stateMutability": "view",
      "type": "function"
    },
    {
      "constant": true,
      "inputs": [],
      "name": "Key_Systok",
      "outputs": [
        {
          "internalType": "bytes32",
          "name": "",
          "type": "bytes32"
        }
      ],
      "payable": false,
      "stateMutability": "view",
      "type": "function"
    },
    {
      "constant": true,
      "inputs": [
        {
          "internalType": "bytes32",
          "name": "_key",
          "type": "bytes32"
        }
      ],
      "name": "getModule",
      "outputs": [
        {
          "internalType": "address",
          "name": "",
          "type": "address"
        }
      ],
      "payable": false,
      "stateMutability": "view",
      "type": "function"
    },
    {
      "constant": true,
      "inputs": [],
      "name": "getModules",
      "outputs": [
        {
          "internalType": "uint256",
          "name": "count",
          "type": "uint256"
        },
        {
          "internalType": "bytes32[]",
          "name": "keys",
          "type": "bytes32[]"
        },
        {
          "internalType": "address[]",
          "name": "addresses",
          "type": "address[]"
        }
      ],
      "payable": false,
      "stateMutability": "view",
      "type": "function"
    },
    {
      "constant": false,
      "inputs": [],
      "name": "createModuleA",
      "outputs": [
        {
          "internalType": "contract ModuleA",
          "name": "",
          "type": "address"
        }
      ],
      "payable": false,
      "stateMutability": "nonpayable",
      "type": "function"
    },
    {
      "constant": false,
      "inputs": [],
      "name": "createModuleB",
      "outputs": [
        {
          "internalType": "contract ModuleB",
          "name": "",
          "type": "address"
        }
      ],
      "payable": false,
      "stateMutability": "nonpayable",
      "type": "function"
    },
    {
      "constant": false,
      "inputs": [],
      "name": "createModuleC",
      "outputs": [
        {
          "internalType": "contract ModuleC",
          "name": "",
          "type": "address"
        }
      ],
      "payable": false,
      "stateMutability": "nonpayable",
      "type": "function"
    }
  ],
  "bytecode": "0x608060405234801561001057600080fd5b506116cd806100206000396000f3fe608060405234801561001057600080fd5b50600436106100a95760003560e01c8063ae2efd9111610071578063ae2efd9114610119578063b2494df314610121578063b5fddc37146101c9578063b97e0ac6146101d1578063e5517841146101d9578063f3bdedd2146101e1576100a9565b806326b33a8c146100ae5780635eae58b9146100d257806377fccbf6146100ec5780637b4aec79146100f457806385acd641146100fc575b600080fd5b6100b66101e9565b604080516001600160a01b039092168252519081900360200190f35b6100da610244565b60408051918252519081900360200190f35b6100b6610251565b6100da6102a7565b6100b66004803603602081101561011257600080fd5b50356102b5565b6100da6102d0565b6101296102e7565b604051808481526020018060200180602001838103835285818151815260200191508051906020019060200280838360005b8381101561017357818101518382015260200161015b565b50505050905001838103825284818151815260200191508051906020019060200280838360005b838110156101b257818101518382015260200161019a565b505050509050019550505050505060405180910390f35b6100b66103f3565b6100da610449565b6100da610459565b6100da610465565b600080306040516101f990610707565b6001600160a01b03909116815260405190819003602001906000f080158015610226573d6000803e3d6000fd5b50905061023f664d6f64756c654360c81b826001610476565b905090565b65537973746f6b60d01b81565b6000803060405161026190610714565b6001600160a01b03909116815260405190819003602001906000f08015801561028e573d6000803e3d6000fd5b50905061023f6626b7b23ab632a160c91b826001610476565b6626b0b730b3b2b960c91b81565b6000908152600260205260409020546001600160a01b031690565b6f2932b1b7b63630ba32b930b634b9b2b960811b81565b6000546040805182815260208084028201019091526060908190838015610318578160200160208202803883390190505b50915082604051908082528060200260200182016040528015610345578160200160208202803883390190505b50905060005b838110156103ed57600080548290811061036157fe5b906000526020600020015483828151811061037857fe5b6020026020010181815250506002600084838151811061039457fe5b6020026020010151815260200190815260200160002060000160009054906101000a90046001600160a01b03168282815181106103cd57fe5b6001600160a01b039092166020928302919091019091015260010161034b565b50909192565b6000803060405161040390610721565b6001600160a01b03909116815260405190819003602001906000f080158015610430573d6000803e3d6000fd5b50905061023f664d6f64756c654160c81b826001610476565b6827b930b1b632a43ab160b91b81565b644e6578757360d81b81565b69476f7665726e616e636560b01b81565b8261047f61072e565b50600081815260026020908152604091829020825160608101845290546001600160a01b038116825260ff600160a01b82048116151593830193909352600160a81b90049091161580159282019290925290610522576040805162461bcd60e51b815260206004820152601760248201527f4d6f64756c65206d75737420626520756e6c6f636b6564000000000000000000604482015290519081900360640190fd5b60005b6000548110156106255761053761072e565b6002600080600001848154811061054a57fe5b600091825260208083209091015483528281019390935260409182019020815160608101835290546001600160a01b038116825260ff600160a01b820481161515948301859052600160a81b9091041615159181019190915291506105af575061061d565b80516040805163c097b1fb60e01b8152600481018a90526001600160a01b0389811660248301529151919092169163c097b1fb91604480830192600092919082900301818387803b15801561060357600080fd5b505af1158015610617573d6000803e3d6000fd5b50505050505b600101610525565b5061063760008663ffffffff6106b616565b5050604080516060810182526001600160a01b0393841681529115156020808401918252600084840181815296815260029091529190912091518254915194511515600160a81b0260ff60a81b19951515600160a01b0260ff60a01b19929095166001600160a01b031990931692909217169290921792909216179055565b600081815260018301602052604090205460ff16156106d457610703565b60008181526001838101602090815260408320805460ff19168317905584549182018555848352909120018190555b5050565b6104808061074f83390190565b61052280610bcf83390190565b6105a8806110f183390190565b60408051606081018252600080825260208201819052918101919091529056fe608060405234801561001057600080fd5b506040516104803803806104808339818101604052602081101561003357600080fd5b5051600080546001600160a01b0319166001600160a01b03831690811782556040805163b2494df360e01b81529051849392606092839263b2494df391600480820192889290919082900301818387803b15801561009057600080fd5b505af11580156100a4573d6000803e3d6000fd5b505050506040513d6000823e601f3d908101601f1916820160405260608110156100cd57600080fd5b8151602083018051604051929492938301929190846401000000008211156100f457600080fd5b90830190602082018581111561010957600080fd5b825186602082028301116401000000008211171561012657600080fd5b82525081516020918201928201910280838360005b8381101561015357818101518382015260200161013b565b505050509050016040526020018051604051939291908464010000000082111561017c57600080fd5b90830190602082018581111561019157600080fd5b82518660208202830111640100000000821117156101ae57600080fd5b82525081516020918201928201910280838360005b838110156101db5781810151838201526020016101c3565b5050505090500160405250505092509250925060008090505b8381101561023a5761023283828151811061020b57fe5b602002602001015183838151811061021f57fe5b602002602001015161024560201b60201c565b6001016101f4565b505050505050610249565b5050565b610228806102586000396000f3fe608060405234801561001057600080fd5b506004361061007d5760003560e01c8063b97e0ac61161005b578063b97e0ac6146100ac578063c097b1fb146100b4578063e5517841146100e2578063f3bdedd2146100ea5761007d565b80635eae58b9146100825780637b4aec791461009c578063ae2efd91146100a4575b600080fd5b61008a6100f2565b60408051918252519081900360200190f35b61008a6100ff565b61008a61010d565b61008a610124565b6100e0600480360360408110156100ca57600080fd5b50803590602001356001600160a01b0316610134565b005b61008a6101b3565b61008a6101bf565b65537973746f6b60d01b81565b6626b0b730b3b2b960c91b81565b6f2932b1b7b63630ba32b930b634b9b2b960811b81565b6827b930b1b632a43ab160b91b81565b6000546001600160a01b0316331461017d5760405162461bcd60e51b81526004018080602001828103825260238152602001806101d16023913960400191505060405180910390fd5b644e6578757360d81b8214156101a957600080546001600160a01b0319166001600160a01b0383161790555b6101af82825b5050565b644e6578757360d81b81565b69476f7665726e616e636560b01b8156fe4f6e6c79207075626c6973686572206d61792063616c6c2074686973206d6574686f64a265627a7a723158209e12bd28ee78b507b3bcd496d99f431b169a4d9ad6b837a1fdf939fb3912485e64736f6c63430005100032608060405234801561001057600080fd5b506040516105223803806105228339818101604052602081101561003357600080fd5b5051600080546001600160a01b0319166001600160a01b03831690811782556040805163b2494df360e01b81529051849392606092839263b2494df391600480820192889290919082900301818387803b15801561009057600080fd5b505af11580156100a4573d6000803e3d6000fd5b505050506040513d6000823e601f3d908101601f1916820160405260608110156100cd57600080fd5b8151602083018051604051929492938301929190846401000000008211156100f457600080fd5b90830190602082018581111561010957600080fd5b825186602082028301116401000000008211171561012657600080fd5b82525081516020918201928201910280838360005b8381101561015357818101518382015260200161013b565b505050509050016040526020018051604051939291908464010000000082111561017c57600080fd5b90830190602082018581111561019157600080fd5b82518660208202830111640100000000821117156101ae57600080fd5b82525081516020918201928201910280838360005b838110156101db5781810151838201526020016101c3565b5050505090500160405250505092509250925060008090505b8381101561023a5761023283828151811061020b57fe5b602002602001015183838151811061021f57fe5b602002602001015161024560201b60201c565b6001016101f4565b505050505050610277565b664d6f64756c654360c81b82141561027357600180546001600160a01b0319166001600160a01b0383161790555b5050565b61029c806102866000396000f3fe608060405234801561001057600080fd5b50600436106100885760003560e01c8063b97e0ac61161005b578063b97e0ac6146100db578063c097b1fb146100e3578063e551784114610111578063f3bdedd21461011957610088565b806332e06dd51461008d5780635eae58b9146100b15780637b4aec79146100cb578063ae2efd91146100d3575b600080fd5b610095610121565b604080516001600160a01b039092168252519081900360200190f35b6100b9610130565b60408051918252519081900360200190f35b6100b961013d565b6100b961014b565b6100b9610162565b61010f600480360360408110156100f957600080fd5b50803590602001356001600160a01b0316610172565b005b6100b96101f5565b6100b9610201565b6001546001600160a01b031681565b65537973746f6b60d01b81565b6626b0b730b3b2b960c91b81565b6f2932b1b7b63630ba32b930b634b9b2b960811b81565b6827b930b1b632a43ab160b91b81565b6000546001600160a01b031633146101bb5760405162461bcd60e51b81526004018080602001828103825260238152602001806102456023913960400191505060405180910390fd5b644e6578757360d81b8214156101e757600080546001600160a01b0319166001600160a01b0383161790555b6101f18282610212565b5050565b644e6578757360d81b81565b69476f7665726e616e636560b01b81565b664d6f64756c654360c81b8214156101f157600180546001600160a01b0319166001600160a01b0383161790556101f156fe4f6e6c79207075626c6973686572206d61792063616c6c2074686973206d6574686f64a265627a7a72315820420e41f7f4ed9e99f6d0e40aec1ff613b74638ef5d0cbe441454020052013fec64736f6c63430005100032608060405234801561001057600080fd5b506040516105a83803806105a88339818101604052602081101561003357600080fd5b5051600080546001600160a01b0319166001600160a01b03831690811782556040805163b2494df360e01b81529051849392606092839263b2494df391600480820192889290919082900301818387803b15801561009057600080fd5b505af11580156100a4573d6000803e3d6000fd5b505050506040513d6000823e601f3d908101601f1916820160405260608110156100cd57600080fd5b8151602083018051604051929492938301929190846401000000008211156100f457600080fd5b90830190602082018581111561010957600080fd5b825186602082028301116401000000008211171561012657600080fd5b82525081516020918201928201910280838360005b8381101561015357818101518382015260200161013b565b505050509050016040526020018051604051939291908464010000000082111561017c57600080fd5b90830190602082018581111561019157600080fd5b82518660208202830111640100000000821117156101ae57600080fd5b82525081516020918201928201910280838360005b838110156101db5781810151838201526020016101c3565b5050505090500160405250505092509250925060008090505b8381101561023a5761023283828151811061020b57fe5b602002602001015183838151811061021f57fe5b602002602001015161024560201b60201c565b6001016101f4565b5050505050506102a9565b6626b7b23ab632a160c91b82141561027757600180546001600160a01b0319166001600160a01b0383161790556102a5565b664d6f64756c654360c81b8214156102a557600280546001600160a01b0319166001600160a01b0383161790555b5050565b6102f0806102b86000396000f3fe608060405234801561001057600080fd5b50600436106100935760003560e01c8063b97e0ac611610066578063b97e0ac6146100e6578063c097b1fb146100ee578063e55178411461011c578063f3bdedd214610124578063fd29bc1c1461012c57610093565b806332e06dd5146100985780635eae58b9146100bc5780637b4aec79146100d6578063ae2efd91146100de575b600080fd5b6100a0610134565b604080516001600160a01b039092168252519081900360200190f35b6100c4610143565b60408051918252519081900360200190f35b6100c4610150565b6100c461015e565b6100c4610175565b61011a6004803603604081101561010457600080fd5b50803590602001356001600160a01b0316610185565b005b6100c4610208565b6100c4610214565b6100a0610225565b6002546001600160a01b031681565b65537973746f6b60d01b81565b6626b0b730b3b2b960c91b81565b6f2932b1b7b63630ba32b930b634b9b2b960811b81565b6827b930b1b632a43ab160b91b81565b6000546001600160a01b031633146101ce5760405162461bcd60e51b81526004018080602001828103825260238152602001806102996023913960400191505060405180910390fd5b644e6578757360d81b8214156101fa57600080546001600160a01b0319166001600160a01b0383161790555b6102048282610234565b5050565b644e6578757360d81b81565b69476f7665726e616e636560b01b81565b6001546001600160a01b031681565b6626b7b23ab632a160c91b82141561026657600180546001600160a01b0319166001600160a01b038316179055610204565b664d6f64756c654360c81b82141561020457600280546001600160a01b0319166001600160a01b03831617905561020456fe4f6e6c79207075626c6973686572206d61792063616c6c2074686973206d6574686f64a265627a7a72315820c6324acff609af467bac61759bdf82c4208c2087a4110723618740024f65b92164736f6c63430005100032a265627a7a723158200156cb98424cb4fc766dc981c8c620e895c82b232733cb997189ec7b895343ec64736f6c63430005100032",
  "source": "pragma solidity ^0.5.0;\n\nimport \"../../../contracts/shared/pubsub/ModulePub.sol\";\nimport \"./MockShared.sol\";\n\nimport \"./ModuleA.sol\";\nimport \"./ModuleB.sol\";\nimport \"./ModuleC.sol\";\n\ncontract MockPub is ModulePub, MockShared {\n    function createModuleA() external returns(ModuleA) {\n        ModuleA a = new ModuleA(address(this));\n        _publishModule(ModuleKeyA, address(a), true);\n        return a;\n    }\n\n    function createModuleB() external returns(ModuleB) {\n        ModuleB b = new ModuleB(address(this));\n        _publishModule(ModuleKeyB, address(b), true);\n        return b;\n    }\n\n    function createModuleC() external returns (ModuleC) {\n        ModuleC c = new ModuleC(address(this));\n        _publishModule(ModuleKeyC, address(c), true);\n        return c;\n    }\n}",
  "sourcePath": "/Users/james/mstable/mStable-contracts/contracts/z_mocks/shared/MockPub.sol",
  "compiler": {
    "name": "solc",
    "version": "0.5.16+commit.9c3226ce.Emscripten.clang"
  },
  "schemaVersion": "3.0.23",
  "updatedAt": "2020-02-05T09:31:38.651Z",
  "devdoc": {
    "methods": {
      "getModule(bytes32)": {
        "details": "Gets the current address of a particular module",
        "params": {
          "_key": "Bytes32 key of the target module"
        },
        "return": "Current address of the module"
      },
      "getModules()": {
        "details": "Gets all active modules in the system",
        "return": "uint256 count of all modulesbytes32[] keys of all modulesaddress[] current addresses of all modules"
      }
    }
  },
  "userdoc": {
    "methods": {}
  }
}