{
  "contractName": "MockGovernable",
  "abi": [
    {
      "anonymous": false,
      "inputs": [
        {
          "indexed": true,
          "internalType": "address",
          "name": "previousGovernor",
          "type": "address"
        },
        {
          "indexed": true,
          "internalType": "address",
          "name": "newGovernor",
          "type": "address"
        }
      ],
      "name": "GovernorChanged",
      "type": "event"
    },
    {
      "constant": false,
      "inputs": [
        {
          "internalType": "address",
          "name": "_newGovernor",
          "type": "address"
        }
      ],
      "name": "changeGovernor",
      "outputs": [],
      "payable": false,
      "stateMutability": "nonpayable",
      "type": "function"
    },
    {
      "constant": true,
      "inputs": [],
      "name": "governor",
      "outputs": [
        {
          "internalType": "address",
          "name": "",
          "type": "address"
        }
      ],
      "payable": false,
      "stateMutability": "view",
      "type": "function"
    },
    {
      "constant": true,
      "inputs": [],
      "name": "isGovernor",
      "outputs": [
        {
          "internalType": "bool",
          "name": "",
          "type": "bool"
        }
      ],
      "payable": false,
      "stateMutability": "view",
      "type": "function"
    }
  ],
  "bytecode": "0x60806040819052600080546001600160a01b03191633178082556001600160a01b0316917fde4b3f61490b74c0ed6237523974fe299126bbbf8a8a7482fd220104c59b0c84908290a3610244806100576000396000f3fe608060405234801561001057600080fd5b50600436106100415760003560e01c80630c340a2414610046578063c7af33521461006a578063e4c0aaf414610086575b600080fd5b61004e6100ae565b604080516001600160a01b039092168252519081900360200190f35b6100726100bd565b604080519115158252519081900360200190f35b6100ac6004803603602081101561009c57600080fd5b50356001600160a01b03166100ce565b005b6000546001600160a01b031690565b6000546001600160a01b0316331490565b6100d66100bd565b6101115760405162461bcd60e51b81526004018080602001828103825260268152602001806101be6026913960400191505060405180910390fd5b61011a8161011d565b50565b6001600160a01b0381166101625760405162461bcd60e51b815260040180806020018281038252602c8152602001806101e4602c913960400191505060405180910390fd5b600080546040516001600160a01b03808516939216917fde4b3f61490b74c0ed6237523974fe299126bbbf8a8a7482fd220104c59b0c8491a3600080546001600160a01b0319166001600160a01b039290921691909117905556fe476f7665726e61626c653a2063616c6c6572206973206e6f742074686520476f7665726e6f72476f7665726e61626c653a206e657720476f7665726e6f7220697320746865207a65726f2061646472657373a265627a7a72315820f8da90d530b4d13d0ff683c59306c1ed24d91e37cd00e4a1ec3a2bd1351c1d0f64736f6c63430005100032",
  "source": "pragma solidity ^0.5.12;\n\nimport { Governable } from \"../../governance/Governable.sol\";\n\ncontract MockGovernable is Governable {\n\n}",
  "sourcePath": "/home/alex/projects/stability-labs/mstable/mstable-contracts/contracts/z_mocks/governance/MockGovernable.sol",
  "compiler": {
    "name": "solc",
    "version": "0.5.16+commit.9c3226ce.Emscripten.clang"
  },
  "schemaVersion": "3.0.23",
  "updatedAt": "2020-02-17T19:56:32.957Z",
  "devdoc": {
    "methods": {
      "changeGovernor(address)": {
        "details": "Transfers Governance of the contract to a new account (`newGovernor`). Can only be called by the current Governor.",
        "params": {
          "_newGovernor": "Address of the new Governor"
        }
      },
      "governor()": {
        "details": "Returns the address of the current Governor."
      },
      "isGovernor()": {
        "details": "Returns true if the caller is the current Governor."
      }
    }
  },
  "userdoc": {
    "methods": {}
  }
}