{
  "contractName": "ModuleB",
  "abi": [
    {
      "inputs": [
        {
          "internalType": "address",
          "name": "_pub",
          "type": "address"
        }
      ],
      "payable": false,
      "stateMutability": "nonpayable",
      "type": "constructor"
    },
    {
      "constant": true,
      "inputs": [],
      "name": "Key_Governance",
      "outputs": [
        {
          "internalType": "bytes32",
          "name": "",
          "type": "bytes32"
        }
      ],
      "payable": false,
      "stateMutability": "view",
      "type": "function"
    },
    {
      "constant": true,
      "inputs": [],
      "name": "Key_Manager",
      "outputs": [
        {
          "internalType": "bytes32",
          "name": "",
          "type": "bytes32"
        }
      ],
      "payable": false,
      "stateMutability": "view",
      "type": "function"
    },
    {
      "constant": true,
      "inputs": [],
      "name": "Key_Nexus",
      "outputs": [
        {
          "internalType": "bytes32",
          "name": "",
          "type": "bytes32"
        }
      ],
      "payable": false,
      "stateMutability": "view",
      "type": "function"
    },
    {
      "constant": true,
      "inputs": [],
      "name": "Key_OracleHub",
      "outputs": [
        {
          "internalType": "bytes32",
          "name": "",
          "type": "bytes32"
        }
      ],
      "payable": false,
      "stateMutability": "view",
      "type": "function"
    },
    {
      "constant": true,
      "inputs": [],
      "name": "Key_Recollateraliser",
      "outputs": [
        {
          "internalType": "bytes32",
          "name": "",
          "type": "bytes32"
        }
      ],
      "payable": false,
      "stateMutability": "view",
      "type": "function"
    },
    {
      "constant": true,
      "inputs": [],
      "name": "Key_Systok",
      "outputs": [
        {
          "internalType": "bytes32",
          "name": "",
          "type": "bytes32"
        }
      ],
      "payable": false,
      "stateMutability": "view",
      "type": "function"
    },
    {
      "constant": true,
      "inputs": [],
      "name": "moduleC",
      "outputs": [
        {
          "internalType": "contract ModuleC",
          "name": "",
          "type": "address"
        }
      ],
      "payable": false,
      "stateMutability": "view",
      "type": "function"
    },
    {
      "constant": false,
      "inputs": [
        {
          "internalType": "bytes32",
          "name": "_key",
          "type": "bytes32"
        },
        {
          "internalType": "address",
          "name": "_newAddress",
          "type": "address"
        }
      ],
      "name": "updateModule",
      "outputs": [],
      "payable": false,
      "stateMutability": "nonpayable",
      "type": "function"
    }
  ],
  "bytecode": "0x608060405234801561001057600080fd5b506040516105223803806105228339818101604052602081101561003357600080fd5b5051600080546001600160a01b0319166001600160a01b03831690811782556040805163b2494df360e01b81529051849392606092839263b2494df391600480820192889290919082900301818387803b15801561009057600080fd5b505af11580156100a4573d6000803e3d6000fd5b505050506040513d6000823e601f3d908101601f1916820160405260608110156100cd57600080fd5b8151602083018051604051929492938301929190846401000000008211156100f457600080fd5b90830190602082018581111561010957600080fd5b825186602082028301116401000000008211171561012657600080fd5b82525081516020918201928201910280838360005b8381101561015357818101518382015260200161013b565b505050509050016040526020018051604051939291908464010000000082111561017c57600080fd5b90830190602082018581111561019157600080fd5b82518660208202830111640100000000821117156101ae57600080fd5b82525081516020918201928201910280838360005b838110156101db5781810151838201526020016101c3565b5050505090500160405250505092509250925060008090505b8381101561023a5761023283828151811061020b57fe5b602002602001015183838151811061021f57fe5b602002602001015161024560201b60201c565b6001016101f4565b505050505050610277565b664d6f64756c654360c81b82141561027357600180546001600160a01b0319166001600160a01b0383161790555b5050565b61029c806102866000396000f3fe608060405234801561001057600080fd5b50600436106100885760003560e01c8063b97e0ac61161005b578063b97e0ac6146100db578063c097b1fb146100e3578063e551784114610111578063f3bdedd21461011957610088565b806332e06dd51461008d5780635eae58b9146100b15780637b4aec79146100cb578063ae2efd91146100d3575b600080fd5b610095610121565b604080516001600160a01b039092168252519081900360200190f35b6100b9610130565b60408051918252519081900360200190f35b6100b961013d565b6100b961014b565b6100b9610162565b61010f600480360360408110156100f957600080fd5b50803590602001356001600160a01b0316610172565b005b6100b96101f5565b6100b9610201565b6001546001600160a01b031681565b65537973746f6b60d01b81565b6626b0b730b3b2b960c91b81565b6f2932b1b7b63630ba32b930b634b9b2b960811b81565b6827b930b1b632a43ab160b91b81565b6000546001600160a01b031633146101bb5760405162461bcd60e51b81526004018080602001828103825260238152602001806102456023913960400191505060405180910390fd5b644e6578757360d81b8214156101e757600080546001600160a01b0319166001600160a01b0383161790555b6101f18282610212565b5050565b644e6578757360d81b81565b69476f7665726e616e636560b01b81565b664d6f64756c654360c81b8214156101f157600180546001600160a01b0319166001600160a01b0383161790556101f156fe4f6e6c79207075626c6973686572206d61792063616c6c2074686973206d6574686f64a265627a7a72315820420e41f7f4ed9e99f6d0e40aec1ff613b74638ef5d0cbe441454020052013fec64736f6c63430005100032",
  "source": "pragma solidity ^0.5.0;\n\nimport \"../../../contracts/shared/pubsub/ModuleSub.sol\";\nimport \"./MockShared.sol\";\nimport \"./ModuleC.sol\";\n\ncontract ModuleB is ModuleSub, MockShared {\n\n    ModuleC public moduleC;\n\n    constructor(address _pub) ModuleSub(_pub) public {}\n    \n    function _internalUpdateModule(bytes32 _key, address _newAddress) internal {\n        if (_key == ModuleKeyC) {\n            moduleC = ModuleC(_newAddress);\n            return;\n        }\n    }\n\n}",
  "sourcePath": "/Users/james/mstable/mStable-contracts/contracts/z_mocks/shared/ModuleB.sol",
  "compiler": {
    "name": "solc",
    "version": "0.5.16+commit.9c3226ce.Emscripten.clang"
  },
  "schemaVersion": "3.0.23",
  "updatedAt": "2020-02-05T09:31:38.657Z",
  "devdoc": {
    "methods": {
      "updateModule(bytes32,address)": {
        "details": "Higher order function to allow for module updates only via publisher",
        "params": {
          "_key": "Key of the new module",
          "_newAddress": "Address of the new module"
        }
      }
    }
  },
  "userdoc": {
    "methods": {}
  }
}