{
  "contractName": "ModuleKeys",
  "abi": [
    {
      "constant": true,
      "inputs": [],
      "name": "Key_Governance",
      "outputs": [
        {
          "internalType": "bytes32",
          "name": "",
          "type": "bytes32"
        }
      ],
      "payable": false,
      "stateMutability": "view",
      "type": "function"
    },
    {
      "constant": true,
      "inputs": [],
      "name": "Key_Manager",
      "outputs": [
        {
          "internalType": "bytes32",
          "name": "",
          "type": "bytes32"
        }
      ],
      "payable": false,
      "stateMutability": "view",
      "type": "function"
    },
    {
      "constant": true,
      "inputs": [],
      "name": "Key_Nexus",
      "outputs": [
        {
          "internalType": "bytes32",
          "name": "",
          "type": "bytes32"
        }
      ],
      "payable": false,
      "stateMutability": "view",
      "type": "function"
    },
    {
      "constant": true,
      "inputs": [],
      "name": "Key_OracleHub",
      "outputs": [
        {
          "internalType": "bytes32",
          "name": "",
          "type": "bytes32"
        }
      ],
      "payable": false,
      "stateMutability": "view",
      "type": "function"
    },
    {
      "constant": true,
      "inputs": [],
      "name": "Key_Recollateraliser",
      "outputs": [
        {
          "internalType": "bytes32",
          "name": "",
          "type": "bytes32"
        }
      ],
      "payable": false,
      "stateMutability": "view",
      "type": "function"
    },
    {
      "constant": true,
      "inputs": [],
      "name": "Key_Staking",
      "outputs": [
        {
          "internalType": "bytes32",
          "name": "",
          "type": "bytes32"
        }
      ],
      "payable": false,
      "stateMutability": "view",
      "type": "function"
    },
    {
      "constant": true,
      "inputs": [],
      "name": "Key_Systok",
      "outputs": [
        {
          "internalType": "bytes32",
          "name": "",
          "type": "bytes32"
        }
      ],
      "payable": false,
      "stateMutability": "view",
      "type": "function"
    }
  ],
  "bytecode": "0x608060405234801561001057600080fd5b5061016e806100206000396000f3fe608060405234801561001057600080fd5b506004361061007d5760003560e01c8063ae2efd911161005b578063ae2efd91146100ac578063b97e0ac6146100b4578063e5517841146100bc578063f3bdedd2146100c45761007d565b80630aa8d59a146100825780635eae58b91461009c5780637b4aec79146100a4575b600080fd5b61008a6100cc565b60408051918252519081900360200190f35b61008a6100da565b61008a6100e7565b61008a6100f5565b61008a61010c565b61008a61011c565b61008a610128565b665374616b696e6760c81b81565b65537973746f6b60d01b81565b6626b0b730b3b2b960c91b81565b6f2932b1b7b63630ba32b930b634b9b2b960811b81565b6827b930b1b632a43ab160b91b81565b644e6578757360d81b81565b69476f7665726e616e636560b01b8156fea265627a7a7231582080242e7420b054c0c1dea4fcd61221a037d42b8cd4e94ff3c7158d942889105f64736f6c63430005100032",
  "source": "pragma solidity ^0.5.12;\n\n/**\n  * @title ModuleKeys\n  * @dev Provides system wide access to the byte32 represntations of system modules\n  * This allows each system module to be able to reference and update one another in a friendly way\n  */\ncontract ModuleKeys {\n    bytes32 constant public Key_Nexus = \"Nexus\";\n\n    bytes32 constant public Key_Governance = \"Governance\";\n    \n    bytes32 constant public Key_Staking = \"Staking\";\n\n    bytes32 constant public Key_Systok = \"Systok\";\n\n    bytes32 constant public Key_OracleHub = \"OracleHub\";\n\n    bytes32 constant public Key_Manager = \"Manager\";\n\n    bytes32 constant public Key_Recollateraliser = \"Recollateraliser\";\n}",
  "sourcePath": "/home/alex/projects/stability-labs/mstable/mstable-contracts/contracts/shared/ModuleKeys.sol",
  "compiler": {
    "name": "solc",
    "version": "0.5.16+commit.9c3226ce.Emscripten.clang"
  },
  "schemaVersion": "3.0.23",
  "updatedAt": "2020-02-17T19:56:32.913Z",
  "devdoc": {
    "details": "Provides system wide access to the byte32 represntations of system modules This allows each system module to be able to reference and update one another in a friendly way",
    "methods": {},
    "title": "ModuleKeys"
  },
  "userdoc": {
    "methods": {}
  }
}