{
  "contractName": "Nexus",
  "abi": [
    {
      "inputs": [
        {
          "internalType": "address",
          "name": "_governor",
          "type": "address"
        }
      ],
      "payable": false,
      "stateMutability": "nonpayable",
      "type": "constructor"
    },
    {
      "anonymous": false,
      "inputs": [
        {
          "indexed": true,
          "internalType": "address",
          "name": "governor",
          "type": "address"
        },
        {
          "indexed": true,
          "internalType": "address",
          "name": "proposed",
          "type": "address"
        }
      ],
      "name": "GovernorChangeCancelled",
      "type": "event"
    },
    {
      "anonymous": false,
      "inputs": [
        {
          "indexed": true,
          "internalType": "address",
          "name": "previous",
          "type": "address"
        },
        {
          "indexed": true,
          "internalType": "address",
          "name": "newGovernor",
          "type": "address"
        }
      ],
      "name": "GovernorChangeClaimed",
      "type": "event"
    },
    {
      "anonymous": false,
      "inputs": [
        {
          "indexed": true,
          "internalType": "address",
          "name": "governor",
          "type": "address"
        },
        {
          "indexed": true,
          "internalType": "address",
          "name": "proposed",
          "type": "address"
        }
      ],
      "name": "GovernorChangeRequested",
      "type": "event"
    },
    {
      "anonymous": false,
      "inputs": [
        {
          "indexed": true,
          "internalType": "address",
          "name": "previousGovernor",
          "type": "address"
        },
        {
          "indexed": true,
          "internalType": "address",
          "name": "newGovernor",
          "type": "address"
        }
      ],
      "name": "GovernorChanged",
      "type": "event"
    },
    {
      "anonymous": false,
      "inputs": [
        {
          "indexed": true,
          "internalType": "bytes32",
          "name": "key",
          "type": "bytes32"
        },
        {
          "indexed": false,
          "internalType": "address",
          "name": "addr",
          "type": "address"
        },
        {
          "indexed": false,
          "internalType": "bool",
          "name": "isLocked",
          "type": "bool"
        }
      ],
      "name": "ModuleAdded",
      "type": "event"
    },
    {
      "anonymous": false,
      "inputs": [
        {
          "indexed": true,
          "internalType": "bytes32",
          "name": "key",
          "type": "bytes32"
        },
        {
          "indexed": false,
          "internalType": "address",
          "name": "addr",
          "type": "address"
        },
        {
          "indexed": false,
          "internalType": "uint256",
          "name": "timestamp",
          "type": "uint256"
        }
      ],
      "name": "ModuleCancelled",
      "type": "event"
    },
    {
      "anonymous": false,
      "inputs": [
        {
          "indexed": true,
          "internalType": "bytes32",
          "name": "key",
          "type": "bytes32"
        },
        {
          "indexed": false,
          "internalType": "address",
          "name": "addr",
          "type": "address"
        },
        {
          "indexed": false,
          "internalType": "uint256",
          "name": "timestamp",
          "type": "uint256"
        }
      ],
      "name": "ModuleLockCancelled",
      "type": "event"
    },
    {
      "anonymous": false,
      "inputs": [
        {
          "indexed": true,
          "internalType": "bytes32",
          "name": "key",
          "type": "bytes32"
        },
        {
          "indexed": false,
          "internalType": "address",
          "name": "addr",
          "type": "address"
        },
        {
          "indexed": false,
          "internalType": "bool",
          "name": "isLocked",
          "type": "bool"
        }
      ],
      "name": "ModuleLockEnabled",
      "type": "event"
    },
    {
      "anonymous": false,
      "inputs": [
        {
          "indexed": true,
          "internalType": "bytes32",
          "name": "key",
          "type": "bytes32"
        },
        {
          "indexed": false,
          "internalType": "address",
          "name": "addr",
          "type": "address"
        },
        {
          "indexed": false,
          "internalType": "uint256",
          "name": "timestamp",
          "type": "uint256"
        }
      ],
      "name": "ModuleLockRequested",
      "type": "event"
    },
    {
      "anonymous": false,
      "inputs": [
        {
          "indexed": true,
          "internalType": "bytes32",
          "name": "key",
          "type": "bytes32"
        },
        {
          "indexed": false,
          "internalType": "address",
          "name": "addr",
          "type": "address"
        },
        {
          "indexed": false,
          "internalType": "uint256",
          "name": "timestamp",
          "type": "uint256"
        }
      ],
      "name": "ModuleRequested",
      "type": "event"
    },
    {
      "constant": true,
      "inputs": [],
      "name": "Key_Governance",
      "outputs": [
        {
          "internalType": "bytes32",
          "name": "",
          "type": "bytes32"
        }
      ],
      "payable": false,
      "stateMutability": "view",
      "type": "function"
    },
    {
      "constant": true,
      "inputs": [],
      "name": "Key_Manager",
      "outputs": [
        {
          "internalType": "bytes32",
          "name": "",
          "type": "bytes32"
        }
      ],
      "payable": false,
      "stateMutability": "view",
      "type": "function"
    },
    {
      "constant": true,
      "inputs": [],
      "name": "Key_Nexus",
      "outputs": [
        {
          "internalType": "bytes32",
          "name": "",
          "type": "bytes32"
        }
      ],
      "payable": false,
      "stateMutability": "view",
      "type": "function"
    },
    {
      "constant": true,
      "inputs": [],
      "name": "Key_OracleHub",
      "outputs": [
        {
          "internalType": "bytes32",
          "name": "",
          "type": "bytes32"
        }
      ],
      "payable": false,
      "stateMutability": "view",
      "type": "function"
    },
    {
      "constant": true,
      "inputs": [],
      "name": "Key_Recollateraliser",
      "outputs": [
        {
          "internalType": "bytes32",
          "name": "",
          "type": "bytes32"
        }
      ],
      "payable": false,
      "stateMutability": "view",
      "type": "function"
    },
    {
      "constant": true,
      "inputs": [],
      "name": "Key_Staking",
      "outputs": [
        {
          "internalType": "bytes32",
          "name": "",
          "type": "bytes32"
        }
      ],
      "payable": false,
      "stateMutability": "view",
      "type": "function"
    },
    {
      "constant": true,
      "inputs": [],
      "name": "Key_Systok",
      "outputs": [
        {
          "internalType": "bytes32",
          "name": "",
          "type": "bytes32"
        }
      ],
      "payable": false,
      "stateMutability": "view",
      "type": "function"
    },
    {
      "constant": true,
      "inputs": [],
      "name": "UPGRADE_DELAY",
      "outputs": [
        {
          "internalType": "uint256",
          "name": "",
          "type": "uint256"
        }
      ],
      "payable": false,
      "stateMutability": "view",
      "type": "function"
    },
    {
      "constant": false,
      "inputs": [],
      "name": "cancelGovernorChange",
      "outputs": [],
      "payable": false,
      "stateMutability": "nonpayable",
      "type": "function"
    },
    {
      "constant": false,
      "inputs": [
        {
          "internalType": "address",
          "name": "",
          "type": "address"
        }
      ],
      "name": "changeGovernor",
      "outputs": [],
      "payable": false,
      "stateMutability": "nonpayable",
      "type": "function"
    },
    {
      "constant": false,
      "inputs": [],
      "name": "claimGovernorChange",
      "outputs": [],
      "payable": false,
      "stateMutability": "nonpayable",
      "type": "function"
    },
    {
      "constant": true,
      "inputs": [],
      "name": "delay",
      "outputs": [
        {
          "internalType": "uint256",
          "name": "",
          "type": "uint256"
        }
      ],
      "payable": false,
      "stateMutability": "view",
      "type": "function"
    },
    {
      "constant": true,
      "inputs": [],
      "name": "governor",
      "outputs": [
        {
          "internalType": "address",
          "name": "",
          "type": "address"
        }
      ],
      "payable": false,
      "stateMutability": "view",
      "type": "function"
    },
    {
      "constant": true,
      "inputs": [],
      "name": "initialized",
      "outputs": [
        {
          "internalType": "bool",
          "name": "",
          "type": "bool"
        }
      ],
      "payable": false,
      "stateMutability": "view",
      "type": "function"
    },
    {
      "constant": true,
      "inputs": [],
      "name": "isGovernor",
      "outputs": [
        {
          "internalType": "bool",
          "name": "",
          "type": "bool"
        }
      ],
      "payable": false,
      "stateMutability": "view",
      "type": "function"
    },
    {
      "constant": true,
      "inputs": [
        {
          "internalType": "bytes32",
          "name": "",
          "type": "bytes32"
        }
      ],
      "name": "modules",
      "outputs": [
        {
          "internalType": "address",
          "name": "addr",
          "type": "address"
        },
        {
          "internalType": "bool",
          "name": "isLocked",
          "type": "bool"
        }
      ],
      "payable": false,
      "stateMutability": "view",
      "type": "function"
    },
    {
      "constant": true,
      "inputs": [],
      "name": "proposedGovernor",
      "outputs": [
        {
          "internalType": "address",
          "name": "",
          "type": "address"
        }
      ],
      "payable": false,
      "stateMutability": "view",
      "type": "function"
    },
    {
      "constant": true,
      "inputs": [
        {
          "internalType": "bytes32",
          "name": "",
          "type": "bytes32"
        },
        {
          "internalType": "address",
          "name": "",
          "type": "address"
        }
      ],
      "name": "proposedLockModules",
      "outputs": [
        {
          "internalType": "uint256",
          "name": "",
          "type": "uint256"
        }
      ],
      "payable": false,
      "stateMutability": "view",
      "type": "function"
    },
    {
      "constant": true,
      "inputs": [
        {
          "internalType": "bytes32",
          "name": "",
          "type": "bytes32"
        },
        {
          "internalType": "address",
          "name": "",
          "type": "address"
        }
      ],
      "name": "proposedModules",
      "outputs": [
        {
          "internalType": "uint256",
          "name": "",
          "type": "uint256"
        }
      ],
      "payable": false,
      "stateMutability": "view",
      "type": "function"
    },
    {
      "constant": false,
      "inputs": [
        {
          "internalType": "address",
          "name": "_proposedGovernor",
          "type": "address"
        }
      ],
      "name": "requestGovernorChange",
      "outputs": [],
      "payable": false,
      "stateMutability": "nonpayable",
      "type": "function"
    },
    {
      "constant": true,
      "inputs": [],
      "name": "requestTime",
      "outputs": [
        {
          "internalType": "uint256",
          "name": "",
          "type": "uint256"
        }
      ],
      "payable": false,
      "stateMutability": "view",
      "type": "function"
    },
    {
      "constant": false,
      "inputs": [
        {
          "internalType": "bytes32[]",
          "name": "_keys",
          "type": "bytes32[]"
        },
        {
          "internalType": "address[]",
          "name": "_addresses",
          "type": "address[]"
        },
        {
          "internalType": "bool[]",
          "name": "_isLocked",
          "type": "bool[]"
        }
      ],
      "name": "initialize",
      "outputs": [
        {
          "internalType": "bool",
          "name": "",
          "type": "bool"
        }
      ],
      "payable": false,
      "stateMutability": "nonpayable",
      "type": "function"
    },
    {
      "constant": false,
      "inputs": [
        {
          "internalType": "bytes32",
          "name": "_key",
          "type": "bytes32"
        },
        {
          "internalType": "address",
          "name": "_addr",
          "type": "address"
        }
      ],
      "name": "requestModule",
      "outputs": [],
      "payable": false,
      "stateMutability": "nonpayable",
      "type": "function"
    },
    {
      "constant": false,
      "inputs": [
        {
          "internalType": "bytes32",
          "name": "_key",
          "type": "bytes32"
        },
        {
          "internalType": "address",
          "name": "_addr",
          "type": "address"
        }
      ],
      "name": "cancelProposedModule",
      "outputs": [],
      "payable": false,
      "stateMutability": "nonpayable",
      "type": "function"
    },
    {
      "constant": false,
      "inputs": [
        {
          "internalType": "bytes32",
          "name": "_key",
          "type": "bytes32"
        },
        {
          "internalType": "address",
          "name": "_addr",
          "type": "address"
        }
      ],
      "name": "addProposedModule",
      "outputs": [],
      "payable": false,
      "stateMutability": "nonpayable",
      "type": "function"
    },
    {
      "constant": false,
      "inputs": [
        {
          "internalType": "bytes32[]",
          "name": "_keys",
          "type": "bytes32[]"
        },
        {
          "internalType": "address[]",
          "name": "_addrs",
          "type": "address[]"
        }
      ],
      "name": "addProposedModules",
      "outputs": [],
      "payable": false,
      "stateMutability": "nonpayable",
      "type": "function"
    },
    {
      "constant": false,
      "inputs": [
        {
          "internalType": "bytes32",
          "name": "_key",
          "type": "bytes32"
        }
      ],
      "name": "requestLockModule",
      "outputs": [],
      "payable": false,
      "stateMutability": "nonpayable",
      "type": "function"
    },
    {
      "constant": false,
      "inputs": [
        {
          "internalType": "bytes32",
          "name": "_key",
          "type": "bytes32"
        }
      ],
      "name": "cancelLockModule",
      "outputs": [],
      "payable": false,
      "stateMutability": "nonpayable",
      "type": "function"
    },
    {
      "constant": false,
      "inputs": [
        {
          "internalType": "bytes32",
          "name": "_key",
          "type": "bytes32"
        }
      ],
      "name": "lockModule",
      "outputs": [
        {
          "internalType": "bool",
          "name": "",
          "type": "bool"
        }
      ],
      "payable": false,
      "stateMutability": "nonpayable",
      "type": "function"
    },
    {
      "constant": false,
      "inputs": [
        {
          "internalType": "bytes32",
          "name": "_key",
          "type": "bytes32"
        }
      ],
      "name": "isModuleExist",
      "outputs": [
        {
          "internalType": "bool",
          "name": "",
          "type": "bool"
        }
      ],
      "payable": false,
      "stateMutability": "nonpayable",
      "type": "function"
    },
    {
      "constant": true,
      "inputs": [
        {
          "internalType": "bytes32",
          "name": "_key",
          "type": "bytes32"
        }
      ],
      "name": "getModule",
      "outputs": [
        {
          "internalType": "address",
          "name": "addr",
          "type": "address"
        }
      ],
      "payable": false,
      "stateMutability": "view",
      "type": "function"
    }
  ],
  "bytecode": "0x60806040526007805460ff191690553480156200001b57600080fd5b506040516200201b3803806200201b833981810160405260208110156200004157600080fd5b5051600080546001600160a01b0319163317808255604051839262093a809284926001600160a01b0391909116919060008051602062001fcf833981519152908290a362000098816001600160e01b036200011916565b5060008111620000ef576040805162461bcd60e51b815260206004820152601f60248201527f44656c6179206d7573742062652067726561746572207468656e207a65726f00604482015290519081900360640190fd5b6002555062000112644e6578757360d81b3060006001600160e01b03620001aa16565b5062000218565b6001600160a01b038116620001605760405162461bcd60e51b815260040180806020018281038252602c81526020018062001fef602c913960400191505060405180910390fd5b600080546040516001600160a01b038085169392169160008051602062001fcf83398151915291a3600080546001600160a01b0319166001600160a01b0392909216919091179055565b60008381526004602090815260409182902080546001600160a01b0319166001600160a01b038616908117909155825190815283151591810191909152815185927f7bf901a62d0edd068a4e74518eb8241133713d384171c7d0a3b7f6eb5c04095d928290030190a2505050565b611da780620002286000396000f3fe608060405234801561001057600080fd5b50600436106101e55760003560e01c806389f24cc21161010f578063c4d822a2116100a2578063e551784111610071578063e551784114610538578063efa2f3a214610540578063f00055671461055d578063f3bdedd21461066b576101e5565b8063c4d822a2146104d6578063c7af335214610502578063d7fd0e771461050a578063e4c0aaf414610512576101e5565b8063ad339d7a116100de578063ad339d7a1461047e578063ae2efd9114610486578063b0b6cc1a1461048e578063b97e0ac6146104ce576101e5565b806389f24cc2146104255780638a11a370146104515780638c33c19c1461045957806397f5fea614610461576101e5565b806347fe8b1d116101875780636d4e1991116101565780636d4e1991146103c65780637b4aec79146103e357806385acd641146103eb578063879bfd7314610408576101e5565b806347fe8b1d146103825780635eae58b91461038a5780636a42b8f8146103925780636c4d48a21461039a576101e5565b80630aa8d59a116101c35780630aa8d59a146102fc5780630c340a2414610316578063158ef93e1461033a5780631ffeebd114610356576101e5565b80630231c960146101ea578063091113f114610218578063099c47bc146102d6575b600080fd5b6102166004803603604081101561020057600080fd5b50803590602001356001600160a01b0316610673565b005b6102166004803603604081101561022e57600080fd5b810190602081018135600160201b81111561024857600080fd5b82018360208201111561025a57600080fd5b803590602001918460208302840111600160201b8311171561027b57600080fd5b919390929091602081019035600160201b81111561029857600080fd5b8201836020820111156102aa57600080fd5b803590602001918460208302840111600160201b831117156102cb57600080fd5b5090925090506107d5565b610216600480360360208110156102ec57600080fd5b50356001600160a01b03166109e1565b610304610a34565b60408051918252519081900360200190f35b61031e610a42565b604080516001600160a01b039092168252519081900360200190f35b610342610a51565b604080519115158252519081900360200190f35b6103046004803603604081101561036c57600080fd5b50803590602001356001600160a01b0316610a5a565b610304610a77565b610304610a7e565b610304610a8b565b610216600480360360408110156103b057600080fd5b50803590602001356001600160a01b0316610a91565b610342600480360360208110156103dc57600080fd5b5035610cce565b610304610e57565b61031e6004803603602081101561040157600080fd5b5035610e65565b6103426004803603602081101561041e57600080fd5b5035610e80565b6102166004803603604081101561043b57600080fd5b50803590602001356001600160a01b0316610ebc565b61031e610ff3565b610216611002565b6102166004803603602081101561047757600080fd5b5035611054565b610216611273565b610304611334565b6104ab600480360360208110156104a457600080fd5b503561134b565b604080516001600160a01b03909316835290151560208301528051918290030190f35b610304611372565b610304600480360360408110156104ec57600080fd5b50803590602001356001600160a01b0316611382565b61034261139f565b6103046113b0565b6102166004803603602081101561052857600080fd5b50356001600160a01b03166113b6565b610304611430565b6102166004803603602081101561055657600080fd5b503561143c565b6103426004803603606081101561057357600080fd5b810190602081018135600160201b81111561058d57600080fd5b82018360208201111561059f57600080fd5b803590602001918460208302840111600160201b831117156105c057600080fd5b919390929091602081019035600160201b8111156105dd57600080fd5b8201836020820111156105ef57600080fd5b803590602001918460208302840111600160201b8311171561061057600080fd5b919390929091602081019035600160201b81111561062d57600080fd5b82018360208201111561063f57600080fd5b803590602001918460208302840111600160201b8311171561066057600080fd5b5090925090506115a8565b610304611784565b61067b61139f565b6106b65760405162461bcd60e51b8152600401808060200182810382526026815260200180611c6d6026913960400191505060405180910390fd5b60075460ff166106fb576040805162461bcd60e51b81526020600482015260156024820152600080516020611ce4833981519152604482015290519081900360640190fd5b60008281526005602090815260408083206001600160a01b038516845290915290205480610770576040805162461bcd60e51b815260206004820152601960248201527f50726f706f736564206d6f64756c65206e6f7420666f756e6400000000000000604482015290519081900360640190fd5b60008381526005602090815260408083206001600160a01b038616808552908352818420939093558051928352908201839052805185927f9a9da73201774c2c683d90bd09675343b3d5f4e57808515cdf8f236769974a3a92908290030190a2505050565b6107dd61139f565b6108185760405162461bcd60e51b8152600401808060200182810382526026815260200180611c6d6026913960400191505060405180910390fd5b60075460ff1661085d576040805162461bcd60e51b81526020600482015260156024820152600080516020611ce4833981519152604482015290519081900360640190fd5b82806108a3576040805162461bcd60e51b815260206004820152601060248201526f4b65797320617272617920656d70747960801b604482015290519081900360640190fd5b8082146108eb576040805162461bcd60e51b8152602060048201526011602482015270496e73756666656369656e74206461746160781b604482015290519081900360640190fd5b60005b818110156109d957600086868381811061090457fe5b905060200201359050600085858481811061091b57fe5b60008581526005602090815260408083206001600160a01b039483029690960135939093168083529490522054919250610956905081611795565b6109a0576040805162461bcd60e51b81526020600482015260166024820152752ab833b930b232903232b630bc903737ba1037bb32b960511b604482015290519081900360640190fd5b6109ac838360006117c2565b5060009182526005602090815260408084206001600160a01b0390931684529190528120556001016108ee565b505050505050565b6109e961139f565b610a245760405162461bcd60e51b8152600401808060200182810382526026815260200180611c6d6026913960400191505060405180910390fd5b42600355610a3181611830565b50565b665374616b696e6760c81b81565b6000546001600160a01b031690565b60075460ff1681565b600560209081526000928352604080842090915290825290205481565b62093a8081565b65537973746f6b60d01b81565b60025481565b610a9961139f565b610ad45760405162461bcd60e51b8152600401808060200182810382526026815260200180611c6d6026913960400191505060405180910390fd5b60075460ff16610b19576040805162461bcd60e51b81526020600482015260156024820152600080516020611ce4833981519152604482015290519081900360640190fd5b81610b62576040805162461bcd60e51b81526020600482015260146024820152734b6579206d757374206e6f74206265207a65726f60601b604482015290519081900360640190fd5b6001600160a01b038116610ba75760405162461bcd60e51b8152600401808060200182810382526027815260200180611cbd6027913960400191505060405180910390fd5b610bb082610e80565b15610bf9576040805162461bcd60e51b8152602060048201526014602482015273135bd91d5b1948185b1c9958591e48195e1a5cdd60621b604482015290519081900360640190fd5b60008281526005602090815260408083206001600160a01b0385168452909152902054610c67576040805162461bcd60e51b8152602060048201526017602482015276135bd91d5b1948185b1c9958591e481c1c9bdc1bdcd959604a1b604482015290519081900360640190fd5b60008281526005602090815260408083206001600160a01b038516808552908352928190204290819055815193845291830191909152805184927ff4e416fb76f62cb5822033698b3d56b096e3c25ae251de84454eb17d689aa40b92908290030190a25050565b6000610cd861139f565b610d135760405162461bcd60e51b8152600401808060200182810382526026815260200180611c6d6026913960400191505060405180910390fd5b60075460ff16610d58576040805162461bcd60e51b81526020600482015260156024820152600080516020611ce4833981519152604482015290519081900360640190fd5b600082815260046020908152604080832054600683528184206001600160a01b03909116808552925290912054610d8e81611795565b610dd0576040805162461bcd60e51b815260206004820152600e60248201526d2232b630bc903737ba1037bb32b960911b604482015290519081900360640190fd5b6000848152600460209081526040808320805460ff60a01b1916600160a01b179055600682528083206001600160a01b038616808552908352818420939093558051928352600191830191909152805186927f7ae6ff56892b2739d3f4f3188142f507d22d1c9be4d217054bca96f6c83ff42892908290030190a26001925050505b919050565b6626b0b730b3b2b960c91b81565b6000908152600460205260409020546001600160a01b031690565b60008115801590610ea757506000828152600460205260409020546001600160a01b031615155b15610eb457506001610e52565b506000919050565b610ec461139f565b610eff5760405162461bcd60e51b8152600401808060200182810382526026815260200180611c6d6026913960400191505060405180910390fd5b60075460ff16610f44576040805162461bcd60e51b81526020600482015260156024820152600080516020611ce4833981519152604482015290519081900360640190fd5b60008281526005602090815260408083206001600160a01b0385168452909152902054610f7090611795565b610fc1576040805162461bcd60e51b815260206004820152601d60248201527f4d6f64756c6520757067726164652064656c6179206e6f74206f766572000000604482015290519081900360640190fd5b610fcd828260006117c2565b60009182526005602090815260408084206001600160a01b039093168452919052812055565b6001546001600160a01b031681565b61100a61139f565b6110455760405162461bcd60e51b8152600401808060200182810382526026815260200180611c6d6026913960400191505060405180910390fd5b6000600355611052611974565b565b61105c61139f565b6110975760405162461bcd60e51b8152600401808060200182810382526026815260200180611c6d6026913960400191505060405180910390fd5b60075460ff166110dc576040805162461bcd60e51b81526020600482015260156024820152600080516020611ce4833981519152604482015290519081900360640190fd5b6110e581610e80565b611129576040805162461bcd60e51b815260206004820152601060248201526f135bd91d5b19481b9bdd08195e1a5cdd60821b604482015290519081900360640190fd5b600081815260046020526040902054600160a01b900460ff1615611194576040805162461bcd60e51b815260206004820152601760248201527f4d6f64756c65206d75737420626520756e6c6f636b6564000000000000000000604482015290519081900360640190fd5b600081815260046020908152604080832054600683528184206001600160a01b0390911680855292529091205461120c576040805162461bcd60e51b8152602060048201526017602482015276135bd91d5b1948185b1c9958591e481c1c9bdc1bdcd959604a1b604482015290519081900360640190fd5b60008281526006602090815260408083206001600160a01b038516808552908352928190204290819055815193845291830191909152805184927febd720067de202b158554e185a5211f86b0b8c70aa7bf7043852751cf88ed71f92908290030190a25050565b6001546001600160a01b031633146112bc5760405162461bcd60e51b8152600401808060200182810382526021815260200180611d306021913960400191505060405180910390fd5b6002546003546112d19163ffffffff611a6f16565b421015611325576040805162461bcd60e51b815260206004820152601f60248201527f476f7665726e6f722063616e6e6f7420636c61696d206f776e65727368697000604482015290519081900360640190fd5b61132d611ad0565b6000600355565b6f2932b1b7b63630ba32b930b634b9b2b960811b81565b6004602052600090815260409020546001600160a01b03811690600160a01b900460ff1682565b6827b930b1b632a43ab160b91b81565b600660209081526000928352604080842090915290825290205481565b6000546001600160a01b0316331490565b60035481565b6113be61139f565b6113f95760405162461bcd60e51b8152600401808060200182810382526026815260200180611c6d6026913960400191505060405180910390fd5b60405162461bcd60e51b8152600401808060200182810382526025815260200180611c486025913960400191505060405180910390fd5b644e6578757360d81b81565b61144461139f565b61147f5760405162461bcd60e51b8152600401808060200182810382526026815260200180611c6d6026913960400191505060405180910390fd5b60075460ff166114c4576040805162461bcd60e51b81526020600482015260156024820152600080516020611ce4833981519152604482015290519081900360640190fd5b600081815260046020908152604080832054600683528184206001600160a01b0390911680855292529091205480611543576040805162461bcd60e51b815260206004820152601d60248201527f4d6f64756c65206c6f636b2072657175657374206e6f7420666f756e64000000604482015290519081900360640190fd5b60008381526006602090815260408083206001600160a01b038616808552908352818420939093558051928352908201839052805185927f0240d7bbf0f97b5bd7bc45c64fc5e7b0c3ec910c0942cde7b08da74fe570937992908290030190a2505050565b60006115b261139f565b6115ed5760405162461bcd60e51b8152600401808060200182810382526026815260200180611c6d6026913960400191505060405180910390fd5b60075460ff1615611645576040805162461bcd60e51b815260206004820152601c60248201527f4e6578757320697320616c726561647920696e697469616c697a656400000000604482015290519081900360640190fd5b858061168b576040805162461bcd60e51b815260206004820152601060248201526f139bc81ad95e5cc81c1c9bdd9a59195960821b604482015290519081900360640190fd5b8085146116c95760405162461bcd60e51b8152600401808060200182810382526022815260200180611d516022913960400191505060405180910390fd5b8083146117075760405162461bcd60e51b8152600401808060200182810382526023815260200180611c256023913960400191505060405180910390fd5b60005b818110156117665761175e89898381811061172157fe5b9050602002013588888481811061173457fe5b905060200201356001600160a01b031687878581811061175057fe5b9050602002013515156117c2565b60010161170a565b50506007805460ff1916600190811790915590509695505050505050565b69476f7665726e616e636560b01b81565b60008082118015610ea757506117b48262093a8063ffffffff611a6f16565b4210610eb457506001610e52565b60008381526004602090815260409182902080546001600160a01b0319166001600160a01b038616908117909155825190815283151591810191909152815185927f7bf901a62d0edd068a4e74518eb8241133713d384171c7d0a3b7f6eb5c04095d928290030190a2505050565b61183861139f565b6118735760405162461bcd60e51b8152600401808060200182810382526026815260200180611c6d6026913960400191505060405180910390fd5b6001600160a01b0381166118b85760405162461bcd60e51b815260040180806020018281038252602a815260200180611c93602a913960400191505060405180910390fd5b6001546001600160a01b031615611916576040805162461bcd60e51b815260206004820152601d60248201527f50726f706f73656420676f7665726e6f7220616c726561647920736574000000604482015290519081900360640190fd5b600180546001600160a01b0319166001600160a01b03831690811790915561193c610a42565b6001600160a01b03167fa48c163cc46eb28aba8bdb525da18f15a83020cc18f439c933d79ea3ad9b50bb60405160405180910390a350565b61197c61139f565b6119b75760405162461bcd60e51b8152600401808060200182810382526026815260200180611c6d6026913960400191505060405180910390fd5b6001546001600160a01b0316611a14576040805162461bcd60e51b815260206004820152601960248201527f50726f706f73656420476f7665726e6f72206e6f742073657400000000000000604482015290519081900360640190fd5b6001546001600160a01b0316611a28610a42565b6001600160a01b03167f2f7bb10f75b8694ea78291d7ca4c9f2a75bc45f0f97046164ad3ee984bdf4bba60405160405180910390a3600180546001600160a01b0319169055565b600082820183811015611ac9576040805162461bcd60e51b815260206004820152601b60248201527f536166654d6174683a206164646974696f6e206f766572666c6f770000000000604482015290519081900360640190fd5b9392505050565b6001546001600160a01b03163314611b195760405162461bcd60e51b8152600401808060200182810382526021815260200180611d306021913960400191505060405180910390fd5b600154611b2e906001600160a01b0316611b84565b611b36610a42565b6001546040516001600160a01b0392831692909116907f6898bac81eb5fd0fc83271b744dfb186bba5a0ad4ac339fa0d824faad5ace18290600090a3600180546001600160a01b0319169055565b6001600160a01b038116611bc95760405162461bcd60e51b815260040180806020018281038252602c815260200180611d04602c913960400191505060405180910390fd5b600080546040516001600160a01b03808516939216917fde4b3f61490b74c0ed6237523974fe299126bbbf8a8a7482fd220104c59b0c8491a3600080546001600160a01b0319166001600160a01b039290921691909117905556fe496e73756666656369656e74206c6f636b6564207374617475732070726f7669646564446972656374206368616e6765206f6620476f7665726e6f72206e6f7420616c6c6f776564476f7665726e61626c653a2063616c6c6572206973206e6f742074686520476f7665726e6f7250726f706f73656420676f7665726e6f7220697320746865207a65726f207a65726f20616464726573734d6f64756c652061646472657373206d757374206e6f74206265207a65726f20616464726573734e65787573206e6f7420696e697469616c697a65640000000000000000000000476f7665726e61626c653a206e657720476f7665726e6f7220697320746865207a65726f206164647265737353656e646572206973206e6f7420612070726f706f73656420676f7665726e6f72496e73756666656369656e74206164647265737320646174612070726f7669646564a265627a7a72315820d3dcaa55075f84dc1e59fff92bb4005271b38d0a6cd233263094b5a0b2a2be3f64736f6c63430005100032de4b3f61490b74c0ed6237523974fe299126bbbf8a8a7482fd220104c59b0c84476f7665726e61626c653a206e657720476f7665726e6f7220697320746865207a65726f2061646472657373",
  "source": "pragma solidity ^0.5.12;\n\nimport { INexus } from \"../interfaces/INexus.sol\";\nimport { ModuleKeys } from \"../shared/ModuleKeys.sol\";\nimport { Set } from \"../shared/libs/Set.sol\";\nimport { DelayedClaimableGovernance } from \"../governance/DelayedClaimableGovernance.sol\";\n\n/**\n * @title Nexus\n * @dev The Nexus is mStable's Kernel, and allows the publishing and propagating\n * of new system Modules. Other Modules will subscribe to Nexus for reads and updates\n */\ncontract Nexus is INexus, ModuleKeys, DelayedClaimableGovernance {\n\n    event ModuleRequested(bytes32 indexed key, address addr, uint256 timestamp);\n    event ModuleCancelled(bytes32 indexed key, address addr, uint256 timestamp);\n    event ModuleAdded(bytes32 indexed key, address addr, bool isLocked);\n\n    event ModuleLockRequested(bytes32 indexed key, address addr, uint256 timestamp);\n    event ModuleLockCancelled(bytes32 indexed key, address addr, uint256 timestamp);\n    event ModuleLockEnabled(bytes32 indexed key, address addr, bool isLocked);\n\n\n    /** @dev Struct to store Module props */\n    struct Module {\n        address addr;   // Module address\n        bool isLocked;  // Module lock status\n    }\n\n    /** @dev Storage architecture for keeping module information */\n    mapping(bytes32 => Module) public modules;\n\n    /** @dev Proposed modules */\n    mapping (bytes32 => mapping(address => uint256)) public proposedModules;\n\n    mapping (bytes32 => mapping(address => uint256)) public proposedLockModules;\n\n    /** @dev 1 week delayed upgrade period  */\n    uint256 public constant UPGRADE_DELAY = 1 weeks;\n\n    /** Init flag to allow add modules at the time of deplyment without delay */\n    bool public initialized = false;\n\n\n    /** @dev Initialises the Nexus and adds the core data to the Kernel (itself and governor) */\n    constructor(address _governor)\n    public\n    DelayedClaimableGovernance(_governor, UPGRADE_DELAY) {\n        //TODO: Is Nexus Locked when init???\n        _publishModule(Key_Nexus, address(this), false);\n    }\n\n\n    /***************************************\n                  MODIFIERS\n    ****************************************/\n    modifier whenInitialized() {\n        require(initialized, \"Nexus not initialized\");\n        _;\n    }\n\n    modifier whenNotInitialized() {\n        require(!initialized, \"Nexus is already initialized\");\n        _;\n    }\n\n    /**\n      * @dev Adds multiple new modules to the system to initialize the\n      * Nexus contract with default modules.\n      * @param _keys Keys of the new modules in bytes32 form\n      * @param _addresses Contract addresses of the new modules\n      * @param _isLocked IsLocked flag for the new modules\n      * @return bool Success of publishing new Modules\n      */\n    function initialize(\n        bytes32[] calldata _keys,\n        address[] calldata _addresses,\n        bool[] calldata _isLocked\n    )\n    external\n    onlyGovernor\n    whenNotInitialized\n    returns (bool) {\n        uint256 len = _keys.length;\n        require(len > 0, \"No keys provided\");\n        require(len == _addresses.length, \"Insuffecient address data provided\");\n        require(len == _isLocked.length, \"Insuffecient locked status provided\");\n\n        for(uint i = 0 ; i < len; i++) {\n            _publishModule(_keys[i], _addresses[i], _isLocked[i]);\n        }\n\n        initialized = true;\n        return true;\n    }\n\n\n\n    /***************************************\n                    ADDING\n    ****************************************/\n\n    /**\n     * @dev Request Nexus to add a module\n     */\n    function requestModule(bytes32 _key, address _addr)\n    external\n    onlyGovernor\n    whenInitialized {\n        require(_key != 0, \"Key must not be zero\");\n        require(_addr != address(0), \"Module address must not be zero address\");\n        require(isModuleExist(_key) == false, \"Module already exist\");\n        require(proposedModules[_key][_addr] > 0, \"Module already proposed\");\n\n        proposedModules[_key][_addr] = now;\n        emit ModuleRequested(_key, _addr, now);\n    }\n\n    function cancelProposedModule(bytes32 _key, address _addr)\n    external\n    onlyGovernor\n    whenInitialized {\n        uint256 timestamp = proposedModules[_key][_addr];\n        require(timestamp > 0, \"Proposed module not found\");\n        delete proposedModules[_key][_addr];\n        emit ModuleCancelled(_key, _addr, timestamp);\n    }\n\n    // TODO There could be two different modules with different keys having the\n    // same address of their module. Need to find a solution to not have same\n    // address again for two different module\n\n    function addProposedModule(bytes32 _key, address _addr)\n    external\n    onlyGovernor\n    whenInitialized {\n        require(isDelayOver(proposedModules[_key][_addr]), \"Module upgrade delay not over\");\n        _publishModule(_key, _addr, false);\n        delete proposedModules[_key][_addr];\n    }\n\n    function addProposedModules(bytes32[] calldata _keys, address[] calldata _addrs)\n    external\n    onlyGovernor\n    whenInitialized {\n        uint256 len = _keys.length;\n        require(len > 0, \"Keys array empty\");\n        require(len == _addrs.length, \"Insuffecient data\");\n\n        for(uint i = 0 ; i < len; i++) {\n            bytes32 key = _keys[i];\n            address addr = _addrs[i];\n            uint256 timestamp = proposedModules[key][addr];\n            require(isDelayOver(timestamp), \"Upgrade delay not over\");\n            _publishModule(key, addr, false);\n            delete proposedModules[key][addr];\n        }\n    }\n\n\n\n    /**\n      * @dev Internal func to publish a module and broadcast to subscribers\n      * @param _key Key of the new module in bytes32 form\n      * @param _addr Contract address of the new module\n      */\n    function _publishModule(bytes32 _key, address _addr, bool _isLocked) internal {\n        modules[_key].addr = _addr;\n        emit ModuleAdded(_key, _addr, _isLocked);\n    }\n\n\n    /***************************************\n                    LOCKING\n    ****************************************/\n\n    function requestLockModule(bytes32 _key)\n    external\n    onlyGovernor\n    whenInitialized {\n        require(isModuleExist(_key), \"Module not exist\");\n        require(!modules[_key].isLocked, \"Module must be unlocked\");\n        address addr = modules[_key].addr;\n        require(proposedLockModules[_key][addr] > 0, \"Module already proposed\");\n\n        proposedLockModules[_key][addr] = now;\n        emit ModuleLockRequested(_key, addr, now);\n    }\n\n    function cancelLockModule(bytes32 _key) external onlyGovernor whenInitialized {\n        address addr = modules[_key].addr;\n        uint256 timestamp = proposedLockModules[_key][addr];\n        require(timestamp > 0, \"Module lock request not found\");\n        delete proposedLockModules[_key][addr];\n        emit ModuleLockCancelled(_key, addr, timestamp);\n    }\n\n    /**\n      * @dev Permanently lock a module to its current settings\n      * @param _key Bytes32 key of the module\n      */\n    function lockModule(bytes32 _key)\n    external\n    onlyGovernor\n    whenInitialized\n    returns (bool) {\n        address addr = modules[_key].addr;\n        uint256 timestamp = proposedLockModules[_key][addr];\n        require(isDelayOver(timestamp), \"Delay not over\");\n        modules[_key].isLocked = true;\n\n        delete proposedLockModules[_key][addr];\n        emit ModuleLockEnabled(_key, addr, true);\n        //TODO Do we need boolean return???\n        return true;\n    }\n\n    function isModuleExist(bytes32 _key) public returns (bool) {\n        if(_key != 0 && modules[_key].addr != address(0))\n            return true;\n        return false;\n    }\n\n    function getModule(bytes32 _key) public view returns (address addr) {\n        addr = modules[_key].addr;\n    }\n\n    function isDelayOver(uint256 _timestamp) private view returns (bool) {\n        if(_timestamp > 0 && now >= _timestamp.add(UPGRADE_DELAY))\n            return true;\n        return false;\n    }\n\n}",
  "sourcePath": "/home/alex/projects/stability-labs/mstable/mstable-contracts/contracts/nexus/Nexus.sol",
  "compiler": {
    "name": "solc",
    "version": "0.5.16+commit.9c3226ce.Emscripten.clang"
  },
  "schemaVersion": "3.0.23",
  "updatedAt": "2020-02-17T19:56:32.879Z",
  "devdoc": {
    "details": "The Nexus is mStable's Kernel, and allows the publishing and propagating of new system Modules. Other Modules will subscribe to Nexus for reads and updates",
    "methods": {
      "constructor": {
        "details": "Initialises the Nexus and adds the core data to the Kernel (itself and governor) "
      },
      "governor()": {
        "details": "Returns the address of the current Governor."
      },
      "initialize(bytes32[],address[],bool[])": {
        "details": "Adds multiple new modules to the system to initialize the Nexus contract with default modules.",
        "params": {
          "_addresses": "Contract addresses of the new modules",
          "_isLocked": "IsLocked flag for the new modules",
          "_keys": "Keys of the new modules in bytes32 form"
        },
        "return": "bool Success of publishing new Modules"
      },
      "isGovernor()": {
        "details": "Returns true if the caller is the current Governor."
      },
      "lockModule(bytes32)": {
        "details": "Permanently lock a module to its current settings",
        "params": {
          "_key": "Bytes32 key of the module"
        }
      },
      "requestModule(bytes32,address)": {
        "details": "Request Nexus to add a module"
      }
    },
    "title": "Nexus"
  },
  "userdoc": {
    "methods": {
      "requestLockModule(bytes32)": {
        "notice": "************************************* LOCKING***************************************"
      }
    }
  }
}