{
  "contractName": "NexusMock",
  "abi": [
    {
      "inputs": [
        {
          "internalType": "address",
          "name": "_governor",
          "type": "address"
        }
      ],
      "payable": false,
      "stateMutability": "nonpayable",
      "type": "constructor"
    },
    {
      "anonymous": false,
      "inputs": [
        {
          "indexed": false,
          "internalType": "bytes32",
          "name": "key",
          "type": "bytes32"
        },
        {
          "indexed": false,
          "internalType": "address",
          "name": "addr",
          "type": "address"
        }
      ],
      "name": "ModuleAdded",
      "type": "event"
    },
    {
      "constant": true,
      "inputs": [],
      "name": "Key_Governance",
      "outputs": [
        {
          "internalType": "bytes32",
          "name": "",
          "type": "bytes32"
        }
      ],
      "payable": false,
      "stateMutability": "view",
      "type": "function"
    },
    {
      "constant": true,
      "inputs": [],
      "name": "Key_Governor",
      "outputs": [
        {
          "internalType": "bytes32",
          "name": "",
          "type": "bytes32"
        }
      ],
      "payable": false,
      "stateMutability": "view",
      "type": "function"
    },
    {
      "constant": true,
      "inputs": [],
      "name": "Key_Manager",
      "outputs": [
        {
          "internalType": "bytes32",
          "name": "",
          "type": "bytes32"
        }
      ],
      "payable": false,
      "stateMutability": "view",
      "type": "function"
    },
    {
      "constant": true,
      "inputs": [],
      "name": "Key_Nexus",
      "outputs": [
        {
          "internalType": "bytes32",
          "name": "",
          "type": "bytes32"
        }
      ],
      "payable": false,
      "stateMutability": "view",
      "type": "function"
    },
    {
      "constant": true,
      "inputs": [],
      "name": "Key_OracleHub",
      "outputs": [
        {
          "internalType": "bytes32",
          "name": "",
          "type": "bytes32"
        }
      ],
      "payable": false,
      "stateMutability": "view",
      "type": "function"
    },
    {
      "constant": true,
      "inputs": [],
      "name": "Key_Recollateraliser",
      "outputs": [
        {
          "internalType": "bytes32",
          "name": "",
          "type": "bytes32"
        }
      ],
      "payable": false,
      "stateMutability": "view",
      "type": "function"
    },
    {
      "constant": true,
      "inputs": [],
      "name": "Key_Staking",
      "outputs": [
        {
          "internalType": "bytes32",
          "name": "",
          "type": "bytes32"
        }
      ],
      "payable": false,
      "stateMutability": "view",
      "type": "function"
    },
    {
      "constant": true,
      "inputs": [],
      "name": "Key_Systok",
      "outputs": [
        {
          "internalType": "bytes32",
          "name": "",
          "type": "bytes32"
        }
      ],
      "payable": false,
      "stateMutability": "view",
      "type": "function"
    },
    {
      "constant": false,
      "inputs": [
        {
          "internalType": "bytes32",
          "name": "_key",
          "type": "bytes32"
        },
        {
          "internalType": "address",
          "name": "_addr",
          "type": "address"
        }
      ],
      "name": "addModule",
      "outputs": [
        {
          "internalType": "bool",
          "name": "",
          "type": "bool"
        }
      ],
      "payable": false,
      "stateMutability": "nonpayable",
      "type": "function"
    },
    {
      "constant": false,
      "inputs": [
        {
          "internalType": "bytes32[]",
          "name": "_keys",
          "type": "bytes32[]"
        },
        {
          "internalType": "address[]",
          "name": "_addresses",
          "type": "address[]"
        }
      ],
      "name": "addModules",
      "outputs": [
        {
          "internalType": "bool",
          "name": "",
          "type": "bool"
        }
      ],
      "payable": false,
      "stateMutability": "nonpayable",
      "type": "function"
    },
    {
      "constant": true,
      "inputs": [
        {
          "internalType": "bytes32",
          "name": "_key",
          "type": "bytes32"
        }
      ],
      "name": "getModule",
      "outputs": [
        {
          "internalType": "address",
          "name": "",
          "type": "address"
        }
      ],
      "payable": false,
      "stateMutability": "view",
      "type": "function"
    },
    {
      "constant": false,
      "inputs": [
        {
          "internalType": "bytes32",
          "name": "_key",
          "type": "bytes32"
        }
      ],
      "name": "lockModule",
      "outputs": [
        {
          "internalType": "bool",
          "name": "",
          "type": "bool"
        }
      ],
      "payable": false,
      "stateMutability": "nonpayable",
      "type": "function"
    }
  ],
  "bytecode": "0x608060405234801561001057600080fd5b506040516109453803806109458339818101604052602081101561003357600080fd5b5051806001600160a01b03811661007b5760405162461bcd60e51b81526004018080602001828103825260228152602001806109236022913960400191505060405180910390fd5b6100996723b7bb32b93737b960c11b826001600160e01b036100bb16565b6100b4644e6578757360d81b306001600160e01b036100bb16565b5050610196565b816100c461017f565b50600081815260208181526040918290208251808401909352546001600160a01b0381168352600160a01b900460ff161580159183019190915261014f576040805162461bcd60e51b815260206004820152601760248201527f4d6f64756c65206d75737420626520756e6c6f636b6564000000000000000000604482015290519081900360640190fd5b505060009182526020829052604090912080546001600160a01b0319166001600160a01b03909216919091179055565b604080518082019091526000808252602082015290565b61077e806101a56000396000f3fe608060405234801561001057600080fd5b50600436106100b45760003560e01c806385acd6411161007157806385acd641146101485780639ee64c9514610181578063ae2efd9114610243578063b97e0ac61461024b578063e551784114610253578063f3bdedd21461025b576100b4565b80630aa8d59a146100b957806335324eee146100d35780634fa16790146101135780635eae58b91461011b5780636d4e1991146101235780637b4aec7914610140575b600080fd5b6100c1610263565b60408051918252519081900360200190f35b6100ff600480360360408110156100e957600080fd5b50803590602001356001600160a01b0316610271565b604080519115158252519081900360200190f35b6100c1610302565b6100c1610311565b6100ff6004803603602081101561013957600080fd5b503561031e565b6100c1610451565b6101656004803603602081101561015e57600080fd5b503561045f565b604080516001600160a01b039092168252519081900360200190f35b6100ff6004803603604081101561019757600080fd5b8101906020810181356401000000008111156101b257600080fd5b8201836020820111156101c457600080fd5b803590602001918460208302840111640100000000831117156101e657600080fd5b91939092909160208101903564010000000081111561020457600080fd5b82018360208201111561021657600080fd5b8035906020019184602083028401116401000000008311171561023857600080fd5b5090925090506104cf565b6100c1610602565b6100c1610619565b6100c1610629565b6100c1610635565b665374616b696e6760c81b81565b6723b7bb32b93737b960c11b600090815260208190527f35c0dc02a769e17be3e333bd7125e9326e4f8f9b3a5401f90bf40f8c6ceb4b2e546001600160a01b031633146102ef5760405162461bcd60e51b815260040180806020018281038252602e81526020018061071c602e913960400191505060405180910390fd5b6102f98383610646565b50600192915050565b6723b7bb32b93737b960c11b81565b65537973746f6b60d01b81565b6723b7bb32b93737b960c11b600090815260208190527f35c0dc02a769e17be3e333bd7125e9326e4f8f9b3a5401f90bf40f8c6ceb4b2e546001600160a01b0316331461039c5760405162461bcd60e51b815260040180806020018281038252602e81526020018061071c602e913960400191505060405180910390fd5b816103a5610704565b50600081815260208181526040918290208251808401909352546001600160a01b0381168352600160a01b900460ff161580159183019190915261042a576040805162461bcd60e51b8152602060048201526017602482015276135bd91d5b19481b5d5cdd081899481d5b9b1bd8dad959604a1b604482015290519081900360640190fd5b5050506000908152602081905260409020805460ff60a01b1916600160a01b179055600190565b6626b0b730b3b2b960c91b81565b6000818152602081905260408120546001600160a01b0316806104c9576040805162461bcd60e51b815260206004820152601e60248201527f4d75737420686176652076616c6964206d6f64756c6520616464726573730000604482015290519081900360640190fd5b92915050565b6723b7bb32b93737b960c11b600090815260208190527f35c0dc02a769e17be3e333bd7125e9326e4f8f9b3a5401f90bf40f8c6ceb4b2e546001600160a01b0316331461054d5760405162461bcd60e51b815260040180806020018281038252602e81526020018061071c602e913960400191505060405180910390fd5b8382811461057c576040805162461bcd60e51b8152602060048201526000602482015290519081900360640190fd5b600081116105ab576040805162461bcd60e51b8152602060048201526000602482015290519081900360640190fd5b60005b818110156105f5576105ed8787838181106105c557fe5b905060200201358686848181106105d857fe5b905060200201356001600160a01b0316610646565b6001016105ae565b5060019695505050505050565b6f2932b1b7b63630ba32b930b634b9b2b960811b81565b6827b930b1b632a43ab160b91b81565b644e6578757360d81b81565b69476f7665726e616e636560b01b81565b8161064f610704565b50600081815260208181526040918290208251808401909352546001600160a01b0381168352600160a01b900460ff16158015918301919091526106d4576040805162461bcd60e51b8152602060048201526017602482015276135bd91d5b19481b5d5cdd081899481d5b9b1bd8dad959604a1b604482015290519081900360640190fd5b505060009182526020829052604090912080546001600160a01b0319166001600160a01b03909216919091179055565b60408051808201909152600080825260208201529056fe4f6e6c792074686520676f7665726e616e6365206d617920706572666f726d2074686973206f7065726174696f6ea265627a7a723158208a8b0be8d285d0c8344b27def64cb95c27d94ad9d129986b1ad786563ea9738964736f6c6343000510003243616e27742073657420676f7665726e6f7220746f207a65726f2061646472657373",
  "source": "\npragma solidity ^0.5.12;\n\nimport { Nexus } from \"../../nexus/Nexus.sol\";\n\n/**\n * @title NexusMock\n */\ncontract NexusMock is Nexus {\n\n\n    constructor(\n        address _governor\n    )\n        Nexus(\n            _governor\n        )\n        public\n    {}\n\n}\n",
  "sourcePath": "/Users/james/mstable/mStable-contracts/contracts/z_mocks/nexus/NexusMock.sol",
  "compiler": {
    "name": "solc",
    "version": "0.5.16+commit.9c3226ce.Emscripten.clang"
  },
  "schemaVersion": "3.0.23",
  "updatedAt": "2020-02-08T14:40:09.428Z",
  "devdoc": {
    "methods": {
      "addModule(bytes32,address)": {
        "details": "Adds a new module to the system or updates existing",
        "params": {
          "_addr": "Contract address of the new module",
          "_key": "Key of the new module in bytes32 form"
        },
        "return": "bool Success of publishing new Module"
      },
      "addModules(bytes32[],address[])": {
        "details": "Adds multiple new modules to the system",
        "params": {
          "_addresses": "Contract addresses of the new modules",
          "_keys": "Keys of the new modules in bytes32 form"
        },
        "return": "bool Success of publishing new Modules"
      },
      "lockModule(bytes32)": {
        "details": "Permanently lock a module to its current settings",
        "params": {
          "_key": "Bytes32 key of the module"
        }
      }
    },
    "title": "NexusMock"
  },
  "userdoc": {
    "methods": {
      "getModule(bytes32)": {
        "notice": "************************************* READING***************************************"
      }
    }
  }
}