{
  "contractName": "OracleHub",
  "abi": [
    {
      "inputs": [
        {
          "internalType": "address",
          "name": "_governance",
          "type": "address"
        },
        {
          "internalType": "address",
          "name": "_nexus",
          "type": "address"
        },
        {
          "internalType": "contract OracleHubPriceData",
          "name": "_data",
          "type": "address"
        },
        {
          "internalType": "address[]",
          "name": "_sources",
          "type": "address[]"
        }
      ],
      "payable": false,
      "stateMutability": "nonpayable",
      "type": "constructor"
    },
    {
      "anonymous": false,
      "inputs": [
        {
          "indexed": true,
          "internalType": "bytes32",
          "name": "key",
          "type": "bytes32"
        },
        {
          "indexed": false,
          "internalType": "address",
          "name": "newAddress",
          "type": "address"
        }
      ],
      "name": "ModuleUpdated",
      "type": "event"
    },
    {
      "anonymous": false,
      "inputs": [
        {
          "indexed": false,
          "internalType": "bytes32",
          "name": "symbol",
          "type": "bytes32"
        },
        {
          "indexed": false,
          "internalType": "uint64",
          "name": "price",
          "type": "uint64"
        }
      ],
      "name": "Price",
      "type": "event"
    },
    {
      "constant": true,
      "inputs": [],
      "name": "Key_Governance",
      "outputs": [
        {
          "internalType": "bytes32",
          "name": "",
          "type": "bytes32"
        }
      ],
      "payable": false,
      "stateMutability": "view",
      "type": "function"
    },
    {
      "constant": true,
      "inputs": [],
      "name": "Key_Manager",
      "outputs": [
        {
          "internalType": "bytes32",
          "name": "",
          "type": "bytes32"
        }
      ],
      "payable": false,
      "stateMutability": "view",
      "type": "function"
    },
    {
      "constant": true,
      "inputs": [],
      "name": "Key_Nexus",
      "outputs": [
        {
          "internalType": "bytes32",
          "name": "",
          "type": "bytes32"
        }
      ],
      "payable": false,
      "stateMutability": "view",
      "type": "function"
    },
    {
      "constant": true,
      "inputs": [],
      "name": "Key_OracleHub",
      "outputs": [
        {
          "internalType": "bytes32",
          "name": "",
          "type": "bytes32"
        }
      ],
      "payable": false,
      "stateMutability": "view",
      "type": "function"
    },
    {
      "constant": true,
      "inputs": [],
      "name": "Key_Recollateraliser",
      "outputs": [
        {
          "internalType": "bytes32",
          "name": "",
          "type": "bytes32"
        }
      ],
      "payable": false,
      "stateMutability": "view",
      "type": "function"
    },
    {
      "constant": true,
      "inputs": [],
      "name": "Key_Systok",
      "outputs": [
        {
          "internalType": "bytes32",
          "name": "",
          "type": "bytes32"
        }
      ],
      "payable": false,
      "stateMutability": "view",
      "type": "function"
    },
    {
      "constant": true,
      "inputs": [],
      "name": "data",
      "outputs": [
        {
          "internalType": "contract OracleHubData",
          "name": "",
          "type": "address"
        }
      ],
      "payable": false,
      "stateMutability": "view",
      "type": "function"
    },
    {
      "constant": true,
      "inputs": [
        {
          "internalType": "bytes32",
          "name": "",
          "type": "bytes32"
        }
      ],
      "name": "prices",
      "outputs": [
        {
          "internalType": "uint64",
          "name": "",
          "type": "uint64"
        }
      ],
      "payable": false,
      "stateMutability": "view",
      "type": "function"
    },
    {
      "constant": true,
      "inputs": [
        {
          "internalType": "uint256",
          "name": "",
          "type": "uint256"
        }
      ],
      "name": "sources",
      "outputs": [
        {
          "internalType": "address",
          "name": "",
          "type": "address"
        }
      ],
      "payable": false,
      "stateMutability": "view",
      "type": "function"
    },
    {
      "constant": false,
      "inputs": [
        {
          "internalType": "bytes32",
          "name": "_key",
          "type": "bytes32"
        },
        {
          "internalType": "address",
          "name": "_newAddress",
          "type": "address"
        }
      ],
      "name": "updateModule",
      "outputs": [],
      "payable": false,
      "stateMutability": "nonpayable",
      "type": "function"
    },
    {
      "constant": true,
      "inputs": [
        {
          "internalType": "bytes32",
          "name": "_key",
          "type": "bytes32"
        }
      ],
      "name": "readPrice",
      "outputs": [
        {
          "internalType": "bool",
          "name": "",
          "type": "bool"
        },
        {
          "internalType": "uint64",
          "name": "",
          "type": "uint64"
        }
      ],
      "payable": false,
      "stateMutability": "view",
      "type": "function"
    },
    {
      "constant": true,
      "inputs": [
        {
          "internalType": "bytes32[2]",
          "name": "_keys",
          "type": "bytes32[2]"
        }
      ],
      "name": "readPricePair",
      "outputs": [
        {
          "internalType": "bool[2]",
          "name": "_isFresh",
          "type": "bool[2]"
        },
        {
          "internalType": "uint64[2]",
          "name": "_prices",
          "type": "uint64[2]"
        }
      ],
      "payable": false,
      "stateMutability": "view",
      "type": "function"
    },
    {
      "constant": false,
      "inputs": [
        {
          "internalType": "address",
          "name": "_newSource",
          "type": "address"
        }
      ],
      "name": "addSource",
      "outputs": [],
      "payable": false,
      "stateMutability": "nonpayable",
      "type": "function"
    },
    {
      "constant": false,
      "inputs": [
        {
          "internalType": "bytes[]",
          "name": "messages",
          "type": "bytes[]"
        },
        {
          "internalType": "bytes[]",
          "name": "signatures",
          "type": "bytes[]"
        },
        {
          "internalType": "bytes32[]",
          "name": "symbols",
          "type": "bytes32[]"
        }
      ],
      "name": "postPrices",
      "outputs": [],
      "payable": false,
      "stateMutability": "nonpayable",
      "type": "function"
    },
    {
      "constant": true,
      "inputs": [
        {
          "internalType": "bytes32",
          "name": "symbol",
          "type": "bytes32"
        },
        {
          "internalType": "address[]",
          "name": "sources_",
          "type": "address[]"
        }
      ],
      "name": "medianPrice",
      "outputs": [
        {
          "internalType": "uint64",
          "name": "median",
          "type": "uint64"
        }
      ],
      "payable": false,
      "stateMutability": "view",
      "type": "function"
    }
  ],
  "bytecode": "0x60806040523480156200001157600080fd5b506040516200166e3803806200166e8339810160408190526200003491620003d0565b600080546001600160a01b0319166001600160a01b038416179055805183908190849084906200006c9060019060208401906200020d565b50505080600260006101000a8154816001600160a01b0302191690836001600160a01b031602179055506000606080836001600160a01b031663b2494df36040518163ffffffff1660e01b8152600401600060405180830381600087803b158015620000d757600080fd5b505af1158015620000ec573d6000803e3d6000fd5b505050506040513d6000823e601f3d908101601f1916820160405262000116919081019062000452565b9194509250905060005b838110156200016c57620001638382815181106200013a57fe5b60200260200101518383815181106200014f57fe5b60200260200101516200019d60201b60201c565b60010162000120565b5050600380546001600160a01b0319166001600160a01b039990991698909817909755506200059595505050505050565b817ff0d0fe9ecd941ad0096a6b95e0998ddcd76ba6a240a106fef284fc2d4f0caa4182604051620001cf9190620004e7565b60405180910390a269476f7665726e616e636560b01b8214156200020957600380546001600160a01b0319166001600160a01b0383161790555b5050565b82805482825590600052602060002090810192821562000265579160200282015b828111156200026557825182546001600160a01b0319166001600160a01b039091161782556020909201916001909101906200022e565b506200027392915062000277565b5090565b6200029e91905b80821115620002735780546001600160a01b03191681556001016200027e565b90565b8051620002ae8162000565565b92915050565b600082601f830112620002c657600080fd5b8151620002dd620002d7826200051e565b620004f7565b915081818352602084019350602081019050838560208402820111156200030357600080fd5b60005b838110156200033357816200031c8882620002a1565b845250602092830192919091019060010162000306565b5050505092915050565b600082601f8301126200034f57600080fd5b815162000360620002d7826200051e565b915081818352602084019350602081019050838560208402820111156200038657600080fd5b60005b838110156200033357816200039f8882620003b6565b845250602092830192919091019060010162000389565b8051620002ae816200057f565b8051620002ae816200058a565b60008060008060808587031215620003e757600080fd5b6000620003f58787620002a1565b94505060206200040887828801620002a1565b93505060406200041b87828801620003c3565b92505060608501516001600160401b038111156200043857600080fd5b6200044687828801620002b4565b91505092959194509250565b6000806000606084860312156200046857600080fd5b6000620004768686620003b6565b93505060208401516001600160401b038111156200049357600080fd5b620004a1868287016200033d565b92505060408401516001600160401b03811115620004be57600080fd5b620004cc86828701620002b4565b9150509250925092565b620004e1816200053f565b82525050565b60208101620002ae8284620004d6565b6040518181016001600160401b03811182821017156200051657600080fd5b604052919050565b60006001600160401b038211156200053557600080fd5b5060209081020190565b6000620002ae8262000559565b6000620002ae826200053f565b6001600160a01b031690565b62000570816200053f565b81146200057c57600080fd5b50565b62000570816200029e565b62000570816200054c565b6110c980620005a56000396000f3fe608060405234801561001057600080fd5b50600436106100f55760003560e01c80638d0f55f911610097578063b97e0ac611610066578063b97e0ac6146101fa578063c097b1fb14610202578063e551784114610215578063f3bdedd21461021d576100f5565b80638d0f55f9146101ac578063a3663d37146101bf578063ae2efd91146101df578063b6d4d147146101e7576100f5565b80635eae58b9116100d35780635eae58b91461015a57806360846bc61461016f57806373d4a13a1461018f5780637b4aec79146101a4576100f5565b806308f4c320146100fa5780632a142b0b146101245780635b3e92f114610139575b600080fd5b61010d610108366004610b97565b610225565b60405161011b929190610eed565b60405180910390f35b610137610132366004610ab5565b610245565b005b61014c610147366004610adb565b6102c9565b60405161011b929190610ed2565b61016261035e565b60405161011b9190610f08565b61018261017d366004610b97565b61036b565b60405161011b9190610fa3565b610197610386565b60405161011b9190610f55565b610162610395565b6101376101ba366004610af9565b6103a3565b6101d26101cd366004610b97565b610605565b60405161011b9190610ea2565b61016261062c565b6101826101f5366004610c0d565b610643565b610162610797565b610137610210366004610bd3565b6107a7565b61016261080b565b610162610817565b6000818152600460205260409020546001906001600160401b0316915091565b6003546001600160a01b031633146102785760405162461bcd60e51b815260040161026f90610f83565b60405180910390fd5b6001805480820182556000919091527fb10e2d527612073b26eecdfd717e6a320cf44b4afac2b0732d9fcbe2b7fa0cf60180546001600160a01b0319166001600160a01b0392909216919091179055565b6102d1610993565b6102d9610993565b60005b6002811015610358576001600460008684600281106102f757fe5b602090810291909101358252810191909152604001600020546001600160401b031684836002811061032557fe5b6020020184846002811061033557fe5b6001600160401b03909316602093909302019190915290151590526001016102dc565b50915091565b65537973746f6b60d01b81565b6004602052600090815260409020546001600160401b031681565b6000546001600160a01b031681565b6626b0b730b3b2b960c91b81565b8483146103c25760405162461bcd60e51b815260040161026f90610f73565b60005b85811015610504576000546001600160a01b03166338636e9a8888848181106103ea57fe5b602002820190508035601e193684900301811261040657600080fd5b909101602081019150356001600160401b0381111561042457600080fd5b3681900382131561043457600080fd5b88888681811061044057fe5b602002820190508035601e193684900301811261045c57600080fd5b909101602081019150356001600160401b0381111561047a57600080fd5b3681900382131561048a57600080fd5b6040518563ffffffff1660e01b81526004016104a99493929190610f24565b602060405180830381600087803b1580156104c357600080fd5b505af11580156104d7573d6000803e3d6000fd5b505050506040513d601f19601f820116820180604052506104fb9190810190610bb5565b506001016103c5565b5060005b818110156105fc57600083838381811061051e57fe5b905060200201359050600061058d82600180548060200260200160405190810160405280929190818152602001828054801561058357602002820191906000526020600020905b81546001600160a01b03168152600190910190602001808311610565575b5050505050610643565b60008381526004602052604090819020805467ffffffffffffffff19166001600160401b038416179055519091507fe399d968bb02c19e67a017e9b405161ce424aa0be4d35b2f9cc7610a81c1d38a906105ea9084908490610f16565b60405180910390a15050600101610508565b50505050505050565b6001818154811061061257fe5b6000918252602090912001546001600160a01b0316905081565b6f2932b1b7b63630ba32b930b634b9b2b960811b81565b6000808251116106655760405162461bcd60e51b815260040161026f90610f93565b8151604080518281526020808402820101909152606090828015610693578160200160208202803883390190505b50905060005b828110156107665760005485516001600160a01b039091169063a1aaf6c7908790849081106106c457fe5b6020026020010151886040518363ffffffff1660e01b81526004016106ea929190610eb0565b60206040518083038186803b15801561070257600080fd5b505afa158015610716573d6000803e3d6000fd5b505050506040513d601f19601f8201168201806040525061073a9190810190610c54565b82828151811061074657fe5b6001600160401b0390921660209283029190910190910152600101610699565b50606061077282610828565b905080600284048151811061078357fe5b602002602001015193505050505b92915050565b6827b930b1b632a43ab160b91b81565b6002546001600160a01b031633146107d15760405162461bcd60e51b815260040161026f90610f63565b644e6578757360d81b8214156107fd57600280546001600160a01b0319166001600160a01b0383161790555b6108078282610925565b5050565b644e6578757360d81b81565b69476f7665726e616e636560b01b81565b805160609060005b8181101561091d57600181015b828110156109145784818151811061085157fe5b60200260200101516001600160401b031685838151811061086e57fe5b60200260200101516001600160401b0316111561090c57600085838151811061089357fe5b602002602001015190508582815181106108a957fe5b60200260200101518684815181106108bd57fe5b60200260200101906001600160401b031690816001600160401b031681525050808683815181106108ea57fe5b60200260200101906001600160401b031690816001600160401b031681525050505b60010161083d565b50600101610830565b509192915050565b817ff0d0fe9ecd941ad0096a6b95e0998ddcd76ba6a240a106fef284fc2d4f0caa41826040516109559190610ea2565b60405180910390a269476f7665726e616e636560b01b82141561080757600380546001600160a01b0383166001600160a01b03199091161790555050565b60405180604001604052806002906020820280388339509192915050565b80356107918161105d565b600082601f8301126109cd57600080fd5b81356109e06109db82610fd7565b610fb1565b91508181835260208401935060208101905083856020840282011115610a0557600080fd5b60005b83811015610a315781610a1b88826109b1565b8452506020928301929190910190600101610a08565b5050505092915050565b806040810183101561079157600080fd5b60008083601f840112610a5e57600080fd5b5081356001600160401b03811115610a7557600080fd5b602083019150836020820283011115610a8d57600080fd5b9250929050565b803561079181611074565b805161079181611074565b80516107918161107d565b600060208284031215610ac757600080fd5b6000610ad384846109b1565b949350505050565b600060408284031215610aed57600080fd5b6000610ad38484610a3b565b60008060008060008060608789031215610b1257600080fd5b86356001600160401b03811115610b2857600080fd5b610b3489828a01610a4c565b965096505060208701356001600160401b03811115610b5257600080fd5b610b5e89828a01610a4c565b945094505060408701356001600160401b03811115610b7c57600080fd5b610b8889828a01610a4c565b92509250509295509295509295565b600060208284031215610ba957600080fd5b6000610ad38484610a94565b600060208284031215610bc757600080fd5b6000610ad38484610a9f565b60008060408385031215610be657600080fd5b6000610bf28585610a94565b9250506020610c03858286016109b1565b9150509250929050565b60008060408385031215610c2057600080fd5b6000610c2c8585610a94565b92505060208301356001600160401b03811115610c4857600080fd5b610c03858286016109bc565b600060208284031215610c6657600080fd5b6000610ad38484610aaa565b6000610c7e8383610d41565b505060200190565b6000610c7e8383610e99565b610c9b81611014565b82525050565b610caa81610ffa565b610cb48184611006565b9250610cbf82610ff7565b8060005b83811015610ced578151610cd78782610c72565b9650610ce283611000565b925050600101610cc3565b505050505050565b610cfe81610ffa565b610d088184611006565b9250610d1382610ff7565b8060005b83811015610ced578151610d2b8782610c86565b9650610d3683611000565b925050600101610d17565b610c9b8161101f565b610c9b81610ff7565b6000610d5f838561100b565b9350610d6c838584611047565b610d7583611053565b9093019392505050565b610c9b8161103c565b6000610d9560238361100b565b7f4f6e6c79207075626c6973686572206d61792063616c6c2074686973206d65748152621a1bd960ea1b602082015260400192915050565b6000610dda60238361100b565b7f6d6573736167657320616e64207369676e617475726573206d75737420626520815262313a3160e81b602082015260400192915050565b6000610e1f602c8361100b565b7f4f6e6c792074686520676f7665726e6f72206d617920706572666f726d20746881526b34b99037b832b930ba34b7b760a11b602082015260400192915050565b6000610e6d601e8361100b565b7f736f7572636573206c697374206d757374206e6f7420626520656d7074790000815260200192915050565b610c9b81611030565b602081016107918284610c92565b60408101610ebe8285610c92565b610ecb6020830184610d4a565b9392505050565b60808101610ee08285610ca1565b610ecb6040830184610cf5565b60408101610efb8285610d41565b610ecb6020830184610e99565b602081016107918284610d4a565b60408101610efb8285610d4a565b60408082528101610f36818688610d53565b90508181036020830152610f4b818486610d53565b9695505050505050565b602081016107918284610d7f565b6020808252810161079181610d88565b6020808252810161079181610dcd565b6020808252810161079181610e12565b6020808252810161079181610e60565b602081016107918284610e99565b6040518181016001600160401b0381118282101715610fcf57600080fd5b604052919050565b60006001600160401b03821115610fed57600080fd5b5060209081020190565b90565b50600290565b60200190565b919050565b90815260200190565b600061079182611024565b151590565b6001600160a01b031690565b6001600160401b031690565b600061079182611014565b82818337506000910152565b601f01601f191690565b61106681611014565b811461107157600080fd5b50565b61106681610ff7565b6110668161103056fea365627a7a72315820b446365d065879f8adaa458eefa66933781605d63fe35bfeb8b5e3c88e43e3266c6578706572696d656e74616cf564736f6c63430005100040",
  "source": "\npragma solidity ^0.5.12;\npragma experimental ABIEncoderV2;\n\nimport { ModuleSub } from \"../../shared/pubsub/ModuleSub.sol\";\n\nimport { IOracleHub } from \"../../interfaces/IOracleHub.sol\";\n\nimport { OracleHubModule } from \"../OracleHubModule.sol\";\nimport { OracleHubView } from \"./OracleHubView.sol\";\nimport { OracleHubPriceData } from \"./data/OracleHubPriceData.sol\";\n\n/**\n * @notice mStable OracleHub\n * @author Stability Labs, based on compound-finance/open-oracle/DelFiPrice.sol\n *\n *\n *    TODO ----------------------- This can be simplified so much\n *    If our initial OracleHub is only going to trust ONE single price provider\n *    Then we should simply post/read straight from the data pool.. and skip medianization\n *\n */\ncontract OracleHub is IOracleHub, OracleHubView, OracleHubModule {\n\n    /**\n     * @notice The event emitted when a price is written to storage\n     */\n    event Price(bytes32 symbol, uint64 price);\n\n    /**\n     * @notice The mapping of medianized prices per symbol\n     */\n    mapping(bytes32 => uint64) public prices;\n\n    constructor(\n        address _governance,\n        address _nexus,\n        OracleHubPriceData _data,\n        address[] memory _sources\n    )\n        OracleHubView(_data, _sources)\n        OracleHubModule(_nexus)\n        public\n    {\n        governance = _governance;\n    }\n\n    /** @dev Verifies that the caller is the System Governor as defined in the module mapping */\n    modifier onlyGovernance() {\n        require(governance == msg.sender, \"Only the governor may perform this operation\");\n        _;\n    }\n\n\n    /**\n     * @dev Read a medianized price from our storage\n     * @param _key Key of the asset to read price\n     * @return bool price is fresh\n     * @return uint64 Price as $1 == 1e6\n     */\n    function readPrice(bytes32 _key)\n    external\n    view\n    returns(bool, uint64) {\n        return (true, prices[_key]);\n    }\n\n    /**\n     * @dev Read a medianized price from our storage\n     * @param _keys Keys of the asset to read price\n     * @return bool price is fresh\n     * @return uint64 Price as $1 == 1e6\n     */\n    function readPricePair(bytes32[2] calldata _keys)\n    external\n    view\n    returns(bool[2] memory _isFresh, uint64[2] memory _prices) {\n        require(_keys.length == 2,  \"Valid array\");\n        for(uint i = 0; i < 2; i++){\n          (_isFresh[i], _prices[i]) = (true, prices[_keys[i]]);\n        }\n    }\n\n    /**\n     * @dev Whitelist a source for use in medianizing\n     * @param _newSource Address of the whitelisted source\n     */\n    function addSource(address _newSource)\n    external\n    onlyGovernance {\n        sources.push(_newSource);\n    }\n\n    /**\n     * @notice Primary entry point to post and recalculate prices\n     * @dev We let anyone pay to post anything, but only sources count for prices.\n     * @param messages The messages to post to the oracle\n     * @param signatures The signatures for the corresponding messages\n     */\n    function postPrices(\n        bytes[] calldata messages,\n        bytes[] calldata signatures,\n        bytes32[] calldata symbols\n    ) external {\n        require(messages.length == signatures.length, \"messages and signatures must be 1:1\");\n\n        // Post the messages, whatever they are\n        for (uint i = 0; i < messages.length; i++) {\n            OracleHubPriceData(address(data)).put(messages[i], signatures[i]);\n        }\n\n        // Recalculate the asset prices for the symbols to update\n        for (uint i = 0; i < symbols.length; i++) {\n            bytes32 symbol = symbols[i];\n\n            // Calculate the median price, write to storage, and emit an event\n            uint64 price = medianPrice(symbol, sources);\n            prices[symbol] = price;\n            emit Price(symbol, price);\n        }\n    }\n\n    /**\n     * @notice Calculates the median price over any set of sources\n     * @param symbol The symbol to calculate the median price of\n     * @param sources_ The sources to use when calculating the median price\n     * @return median The median price over the set of sources\n     */\n    function medianPrice(bytes32 symbol, address[] memory sources_)\n    public\n    view\n    returns (uint64 median) {\n        require(sources_.length > 0, \"sources list must not be empty\");\n\n        uint N = sources_.length;\n        uint64[] memory postedPrices = new uint64[](N);\n        for (uint i = 0; i < N; i++) {\n            postedPrices[i] = OracleHubPriceData(address(data)).getPrice(sources_[i], symbol);\n        }\n\n        uint64[] memory sortedPrices = sort(postedPrices);\n        return sortedPrices[N / 2];\n    }\n\n    /**\n     * @notice Helper to sort an array of uints\n     * @param array Array of integers to sort\n     * @return The sorted array of integers\n     */\n    function sort(uint64[] memory array)\n    private\n    pure\n    returns (uint64[] memory) {\n        uint N = array.length;\n        for (uint i = 0; i < N; i++) {\n            for (uint j = i + 1; j < N; j++) {\n                if (array[i] > array[j]) {\n                    uint64 tmp = array[i];\n                    array[i] = array[j];\n                    array[j] = tmp;\n                }\n            }\n        }\n        return array;\n    }\n}",
  "sourcePath": "/Users/james/mstable/mStable-contracts/contracts/oracle-hub/open-oracle/OracleHub.sol",
  "compiler": {
    "name": "solc",
    "version": "0.5.16+commit.9c3226ce.Emscripten.clang"
  },
  "schemaVersion": "3.0.23",
  "updatedAt": "2020-02-05T09:31:38.524Z",
  "devdoc": {
    "author": "Stability Labs, based on compound-finance/open-oracle/DelFiPrice.sol *   TODO ----------------------- This can be simplified so much   If our initial OracleHub is only going to trust ONE single price provider   Then we should simply post/read straight from the data pool.. and skip medianization ",
    "methods": {
      "addSource(address)": {
        "details": "Whitelist a source for use in medianizing",
        "params": {
          "_newSource": "Address of the whitelisted source"
        }
      },
      "medianPrice(bytes32,address[])": {
        "params": {
          "sources_": "The sources to use when calculating the median price",
          "symbol": "The symbol to calculate the median price of"
        },
        "return": "median The median price over the set of sources"
      },
      "postPrices(bytes[],bytes[],bytes32[])": {
        "details": "We let anyone pay to post anything, but only sources count for prices.",
        "params": {
          "messages": "The messages to post to the oracle",
          "signatures": "The signatures for the corresponding messages"
        }
      },
      "readPrice(bytes32)": {
        "details": "Read a medianized price from our storage",
        "params": {
          "_key": "Key of the asset to read price"
        },
        "return": "bool price is freshuint64 Price as $1 == 1e6"
      },
      "readPricePair(bytes32[2])": {
        "details": "Read a medianized price from our storage",
        "params": {
          "_keys": "Keys of the asset to read price"
        },
        "return": "bool price is freshuint64 Price as $1 == 1e6"
      },
      "updateModule(bytes32,address)": {
        "details": "Higher order function to allow for module updates only via publisher",
        "params": {
          "_key": "Key of the new module",
          "_newAddress": "Address of the new module"
        }
      }
    }
  },
  "userdoc": {
    "methods": {
      "medianPrice(bytes32,address[])": {
        "notice": "Calculates the median price over any set of sources"
      },
      "postPrices(bytes[],bytes[],bytes32[])": {
        "notice": "Primary entry point to post and recalculate prices"
      }
    },
    "notice": "mStable OracleHub"
  }
}