{
  "contractName": "OracleHubPriceData",
  "abi": [
    {
      "anonymous": false,
      "inputs": [
        {
          "indexed": true,
          "internalType": "address",
          "name": "source",
          "type": "address"
        },
        {
          "indexed": false,
          "internalType": "bytes32",
          "name": "key",
          "type": "bytes32"
        },
        {
          "indexed": false,
          "internalType": "uint64",
          "name": "timestamp",
          "type": "uint64"
        },
        {
          "indexed": false,
          "internalType": "uint64",
          "name": "value",
          "type": "uint64"
        }
      ],
      "name": "Write",
      "type": "event"
    },
    {
      "constant": true,
      "inputs": [
        {
          "internalType": "bytes",
          "name": "message",
          "type": "bytes"
        },
        {
          "internalType": "bytes",
          "name": "signature",
          "type": "bytes"
        }
      ],
      "name": "source",
      "outputs": [
        {
          "internalType": "address",
          "name": "",
          "type": "address"
        }
      ],
      "payable": false,
      "stateMutability": "pure",
      "type": "function"
    },
    {
      "constant": false,
      "inputs": [
        {
          "internalType": "bytes",
          "name": "message",
          "type": "bytes"
        },
        {
          "internalType": "bytes",
          "name": "signature",
          "type": "bytes"
        }
      ],
      "name": "put",
      "outputs": [
        {
          "internalType": "bytes32",
          "name": "",
          "type": "bytes32"
        }
      ],
      "payable": false,
      "stateMutability": "nonpayable",
      "type": "function"
    },
    {
      "constant": true,
      "inputs": [
        {
          "internalType": "address",
          "name": "source",
          "type": "address"
        },
        {
          "internalType": "bytes32",
          "name": "key",
          "type": "bytes32"
        }
      ],
      "name": "get",
      "outputs": [
        {
          "internalType": "uint64",
          "name": "",
          "type": "uint64"
        },
        {
          "internalType": "uint64",
          "name": "",
          "type": "uint64"
        }
      ],
      "payable": false,
      "stateMutability": "view",
      "type": "function"
    },
    {
      "constant": true,
      "inputs": [
        {
          "internalType": "address",
          "name": "source",
          "type": "address"
        },
        {
          "internalType": "bytes32",
          "name": "key",
          "type": "bytes32"
        }
      ],
      "name": "getPrice",
      "outputs": [
        {
          "internalType": "uint64",
          "name": "",
          "type": "uint64"
        }
      ],
      "payable": false,
      "stateMutability": "view",
      "type": "function"
    }
  ],
  "bytecode": "0x608060405234801561001057600080fd5b506109ca806100206000396000f3fe608060405234801561001057600080fd5b506004361061004c5760003560e01c806338636e9a14610051578063482a61931461007a5780637b82d74e1461009a578063a1aaf6c7146100bb575b600080fd5b61006461005f366004610555565b6100db565b60405161007191906107e1565b60405180910390f35b61008d6100883660046105c3565b6102e0565b60405161007191906107d3565b6100ad6100a83660046104ce565b61038e565b604051610071929190610873565b6100ce6100c93660046104ce565b6103cc565b6040516100719190610865565b60008061015186868080601f01602080910402602001604051908101604052809392919081815260200183838082843760009201919091525050604080516020601f8a0181900481028201810190925288815292508891508790819084018382808284376000920191909152506102e092505050565b9050606060008080610165898b018b610620565b935093509350935060405160200161017c906107c8565b60405160208183030381529060405280519060200120846040516020016101a39190610795565b60405160208183030381529060405280519060200120146101df5760405162461bcd60e51b81526004016101d690610855565b60405180910390fd5b6001600160a01b038516600090815260208181526040808320858452909152902080546001600160401b03808616911610156102cf576040805180820182526001600160401b03868116825284811660208084019182526001600160a01b038b1660008181528083528681208a82529092529085902093518454925167ffffffffffffffff19909316908416176fffffffffffffffff00000000000000001916600160401b92909316919091029190911790915590517fca4cce07f4eb88e631c216f94e3b08f1862a3facc1d328ad814750e7b56033c1906102c6908690889087906107ef565b60405180910390a25b50909450505050505b949350505050565b600080600080848060200190516102fa9190810190610508565b9250925092506000868051906020012060405160200161031a91906107a8565b604051602081830303815290604052805190602001209050600181838686604051600081526020016040526040516103559493929190610817565b6020604051602081039080840390855afa158015610377573d6000803e3d6000fd5b505050602060405103519450505050505b92915050565b6001600160a01b0382166000908152602081815260408083208484529091529020546001600160401b0380821691600160401b9004165b9250929050565b6001600160a01b03919091166000908152602081815260408083209383529290522054600160401b90046001600160401b031690565b803561038881610955565b80356103888161096c565b80516103888161096c565b60008083601f84011261043557600080fd5b5081356001600160401b0381111561044c57600080fd5b6020830191508360018202830111156103c557600080fd5b600082601f83011261047557600080fd5b8135610488610483826108b4565b61088e565b915080825260208301602083018583830111156104a457600080fd5b6104af838284610919565b50505092915050565b803561038881610975565b80516103888161097e565b600080604083850312156104e157600080fd5b60006104ed8585610402565b92505060206104fe8582860161040d565b9150509250929050565b60008060006060848603121561051d57600080fd5b60006105298686610418565b935050602061053a86828701610418565b925050604061054b868287016104c3565b9150509250925092565b6000806000806040858703121561056b57600080fd5b84356001600160401b0381111561058157600080fd5b61058d87828801610423565b945094505060208501356001600160401b038111156105ab57600080fd5b6105b787828801610423565b95989497509550505050565b600080604083850312156105d657600080fd5b82356001600160401b038111156105ec57600080fd5b6105f885828601610464565b92505060208301356001600160401b0381111561061457600080fd5b6104fe85828601610464565b6000806000806080858703121561063657600080fd5b84356001600160401b0381111561064c57600080fd5b61065887828801610464565b9450506020610669878288016104b8565b935050604061067a8782880161040d565b925050606061068b878288016104b8565b91505092959194509250565b6106a0816108ed565b82525050565b6106a0816108f8565b6106a06106bb826108f8565b6108f8565b60006106cb826108db565b6106d581856108e8565b93506106e5818560208601610925565b9290920192915050565b60006106fc601c836108e8565b7f19457468657265756d205369676e6564204d6573736167653a0a3332000000008152601c0192915050565b6000610735601d836108df565b7f4b696e64206f662064617461206d757374206265202770726963657327000000815260200192915050565b600061076e6006836108e8565b6570726963657360d01b815260060192915050565b6106a081610907565b6106a081610913565b60006107a182846106c0565b9392505050565b60006107b3826106ef565b91506107bf82846106af565b50602001919050565b600061038882610761565b602081016103888284610697565b6020810161038882846106a6565b606081016107fd82866106a6565b61080a6020830185610783565b6102d86040830184610783565b6080810161082582876106a6565b610832602083018661078c565b61083f60408301856106a6565b61084c60608301846106a6565b95945050505050565b6020808252810161038881610728565b602081016103888284610783565b604081016108818285610783565b6107a16020830184610783565b6040518181016001600160401b03811182821017156108ac57600080fd5b604052919050565b60006001600160401b038211156108ca57600080fd5b506020601f91909101601f19160190565b5190565b90815260200190565b919050565b6000610388826108fb565b90565b6001600160a01b031690565b6001600160401b031690565b60ff1690565b82818337506000910152565b60005b83811015610940578181015183820152602001610928565b8381111561094f576000848401525b50505050565b61095e816108ed565b811461096957600080fd5b50565b61095e816108f8565b61095e81610907565b61095e8161091356fea365627a7a7231582010acf5ac819d543ad310ffe5950f652492d9c45587553e1cc792477d2b83ef526c6578706572696d656e74616cf564736f6c63430005100040",
  "source": "\n/*\n * Based on compound-finance/open-oracle\n *\n * https://github.com/compound-finance/open-oracle\n */\n\n\npragma solidity ^0.5.12;\npragma experimental ABIEncoderV2;\n\nimport \"./OracleHubData.sol\";\n\n/**\n * @title The Oracle Hub Price Data Contract\n * @notice Values stored in this contract should represent a USD price with 6 decimals precision\n * @author Stability Labs. based on compound-finance/open-oracle/OpenOraclePriceData.sol\n */\ncontract OracleHubPriceData is OracleHubData {\n    /**\n     * @notice The event emitted when a source writes to its storage\n     */\n    event Write(address indexed source, bytes32 key, uint64 timestamp, uint64 value);\n\n    /**\n     * @notice The fundamental unit of storage for a reporter source\n     */\n    struct Datum {\n        uint64 timestamp;\n        uint64 value;\n    }\n\n    /**\n     * @notice The most recent authenticated data from all sources\n     * @dev This is private because dynamic mapping keys preclude auto-generated getters.\n     */\n    mapping(address => mapping(bytes32 => Datum)) private data;\n\n    /**\n     * @notice Write a bunch of signed datum to the authenticated storage mapping\n     * @param message The payload containing the timestamp, and (key, value) pairs\n     * @param signature The cryptographic signature of the message payload, authorizing the source to write\n     * @return The keys that were written\n     */\n    function put(bytes calldata message, bytes calldata signature) external returns (bytes32) {\n        // Recover the source address\n        address source = source(message, signature);\n\n        // Decode the message and check the kind\n        (string memory kind, uint64 timestamp, bytes32 key, uint64 value) = abi.decode(message, (string, uint64, bytes32, uint64));\n        require(keccak256(abi.encodePacked(kind)) == keccak256(abi.encodePacked(\"prices\")), \"Kind of data must be 'prices'\");\n\n        // Only update if newer than stored, according to source\n        Datum storage prior = data[source][key];\n        if (prior.timestamp < timestamp) {\n            data[source][key] = Datum(timestamp, value);\n            emit Write(source, key, timestamp, value);\n        }\n\n        return key;\n    }\n\n    /**\n     * @notice Read a single key from an authenticated source\n     * @param source The verifiable author of the data\n     * @param key The selector for the value to return\n     * @return The claimed Unix timestamp for the data and the price value (defaults to (0, 0))\n     */\n    function get(address source, bytes32 key) external view returns (uint64, uint64) {\n        Datum storage datum = data[source][key];\n        return (datum.timestamp, datum.value);\n    }\n\n    /**\n     * @notice Read only the value for a single key from an authenticated source\n     * @param source The verifiable author of the data\n     * @param key The selector for the value to return\n     * @return The price value (defaults to 0)\n     */\n    function getPrice(address source, bytes32 key) external view returns (uint64) {\n        return data[source][key].value;\n    }\n}\n",
  "sourcePath": "/Users/james/mstable/mStable-contracts/contracts/oracle-hub/open-oracle/data/OracleHubPriceData.sol",
  "compiler": {
    "name": "solc",
    "version": "0.5.16+commit.9c3226ce.Emscripten.clang"
  },
  "schemaVersion": "3.0.23",
  "updatedAt": "2020-02-06T13:43:23.244Z",
  "networkType": "ethereum",
  "devdoc": {
    "author": "Stability Labs. based on compound-finance/open-oracle/OpenOraclePriceData.sol",
    "methods": {
      "get(address,bytes32)": {
        "params": {
          "key": "The selector for the value to return",
          "source": "The verifiable author of the data"
        },
        "return": "The claimed Unix timestamp for the data and the price value (defaults to (0, 0))"
      },
      "getPrice(address,bytes32)": {
        "params": {
          "key": "The selector for the value to return",
          "source": "The verifiable author of the data"
        },
        "return": "The price value (defaults to 0)"
      },
      "put(bytes,bytes)": {
        "params": {
          "message": "The payload containing the timestamp, and (key, value) pairs",
          "signature": "The cryptographic signature of the message payload, authorizing the source to write"
        },
        "return": "The keys that were written"
      },
      "source(bytes,bytes)": {
        "details": "Comparing to a claimed address would add nothing, as the caller could simply perform the recover and claim that address.",
        "params": {
          "message": "The data that was presumably signed",
          "signature": "The fingerprint of the data + private key"
        },
        "return": "The source address which signed the message, presumably"
      }
    },
    "title": "The Oracle Hub Price Data Contract"
  },
  "userdoc": {
    "methods": {
      "get(address,bytes32)": {
        "notice": "Read a single key from an authenticated source"
      },
      "getPrice(address,bytes32)": {
        "notice": "Read only the value for a single key from an authenticated source"
      },
      "put(bytes,bytes)": {
        "notice": "Write a bunch of signed datum to the authenticated storage mapping"
      },
      "source(bytes,bytes)": {
        "notice": "Recovers the source address which signed a message"
      }
    },
    "notice": "Values stored in this contract should represent a USD price with 6 decimals precision"
  }
}