{
  "contractName": "OracleHubView",
  "abi": [
    {
      "inputs": [
        {
          "internalType": "contract OracleHubData",
          "name": "data_",
          "type": "address"
        },
        {
          "internalType": "address[]",
          "name": "sources_",
          "type": "address[]"
        }
      ],
      "payable": false,
      "stateMutability": "nonpayable",
      "type": "constructor"
    },
    {
      "constant": true,
      "inputs": [],
      "name": "data",
      "outputs": [
        {
          "internalType": "contract OracleHubData",
          "name": "",
          "type": "address"
        }
      ],
      "payable": false,
      "stateMutability": "view",
      "type": "function"
    },
    {
      "constant": true,
      "inputs": [
        {
          "internalType": "uint256",
          "name": "",
          "type": "uint256"
        }
      ],
      "name": "sources",
      "outputs": [
        {
          "internalType": "address",
          "name": "",
          "type": "address"
        }
      ],
      "payable": false,
      "stateMutability": "view",
      "type": "function"
    }
  ],
  "bytecode": "0x608060405234801561001057600080fd5b5060405161040738038061040783398101604081905261002f9161018c565b600080546001600160a01b0319166001600160a01b038416179055805161005d906001906020840190610065565b505050610265565b8280548282559060005260206000209081019282156100ba579160200282015b828111156100ba57825182546001600160a01b0319166001600160a01b03909116178255602090920191600190910190610085565b506100c69291506100ca565b5090565b6100ee91905b808211156100c65780546001600160a01b03191681556001016100d0565b90565b80516100fc81610245565b92915050565b600082601f83011261011357600080fd5b815161012661012182610203565b6101dd565b9150818183526020840193506020810190508385602084028201111561014b57600080fd5b60005b83811015610177578161016188826100f1565b845250602092830192919091019060010161014e565b5050505092915050565b80516100fc8161025c565b6000806040838503121561019f57600080fd5b60006101ab8585610181565b92505060208301516001600160401b038111156101c757600080fd5b6101d385828601610102565b9150509250929050565b6040518181016001600160401b03811182821017156101fb57600080fd5b604052919050565b60006001600160401b0382111561021957600080fd5b5060209081020190565b60006100fc82610239565b60006100fc82610223565b6001600160a01b031690565b61024e81610223565b811461025957600080fd5b50565b61024e8161022e565b610193806102746000396000f3fe608060405234801561001057600080fd5b50600436106100365760003560e01c806373d4a13a1461003b578063a3663d3714610059575b600080fd5b610043610079565b604051610050919061010c565b60405180910390f35b61006c6100673660046100c0565b610088565b60405161005091906100fe565b6000546001600160a01b031681565b6001818154811061009557fe5b6000918252602090912001546001600160a01b0316905081565b80356100ba81610139565b92915050565b6000602082840312156100d257600080fd5b60006100de84846100af565b949350505050565b6100ef8161011a565b82525050565b6100ef8161012e565b602081016100ba82846100e6565b602081016100ba82846100f5565b60006001600160a01b0382166100ba565b90565b60006100ba8261011a565b6101428161012b565b811461014d57600080fd5b5056fea365627a7a723158202ec9a7f9a5816b136c21e19bfc77c734f22d25606a13403d869c84d14c6aa6366c6578706572696d656e74616cf564736f6c63430005100040",
  "source": "\n/*\n * Based on compound-finance/open-oracle\n *\n * https://github.com/compound-finance/open-oracle\n */\n\n\npragma solidity ^0.5.12;\npragma experimental ABIEncoderV2;\n\nimport { OracleHubData } from \"./data/OracleHubData.sol\";\n\n/**\n * @title The Open Hub View Base Contract\n * @author Stability Labs. based on compound-finance/open-oracle/OpenOracleView.sol\n */\ncontract OracleHubView {\n    /**\n     * @notice The Oracle Data Contract backing this View\n     */\n    OracleHubData public data;\n\n    /**\n     * @notice The static list of sources used by this View\n     * @dev Note that while it is possible to create a view with dynamic sources,\n     *  that would not conform to the Open Oracle Standard specification.\n     */\n    address[] public sources;\n\n    /**\n     * @notice Construct a view given the oracle backing address and the list of sources\n     * @dev According to the protocol, Views must be immutable to be considered conforming.\n     * @param data_ The address of the oracle data contract which is backing the view\n     * @param sources_ The list of source addresses to include in the aggregate value\n     */\n    constructor(OracleHubData data_, address[] memory sources_) public {\n        data = data_;\n        sources = sources_;\n    }\n}\n",
  "sourcePath": "/Users/james/mstable/mStable-contracts/contracts/oracle-hub/open-oracle/OracleHubView.sol",
  "compiler": {
    "name": "solc",
    "version": "0.5.16+commit.9c3226ce.Emscripten.clang"
  },
  "schemaVersion": "3.0.23",
  "updatedAt": "2020-02-05T09:31:38.531Z",
  "devdoc": {
    "author": "Stability Labs. based on compound-finance/open-oracle/OpenOracleView.sol",
    "methods": {
      "constructor": {
        "details": "According to the protocol, Views must be immutable to be considered conforming.",
        "params": {
          "data_": "The address of the oracle data contract which is backing the view",
          "sources_": "The list of source addresses to include in the aggregate value"
        }
      }
    },
    "title": "The Open Hub View Base Contract"
  },
  "userdoc": {
    "methods": {
      "constructor": "Construct a view given the oracle backing address and the list of sources"
    }
  }
}