{
  "contractName": "OracleHubData",
  "abi": [
    {
      "constant": true,
      "inputs": [
        {
          "internalType": "bytes",
          "name": "message",
          "type": "bytes"
        },
        {
          "internalType": "bytes",
          "name": "signature",
          "type": "bytes"
        }
      ],
      "name": "source",
      "outputs": [
        {
          "internalType": "address",
          "name": "",
          "type": "address"
        }
      ],
      "payable": false,
      "stateMutability": "pure",
      "type": "function"
    }
  ],
  "bytecode": "0x608060405234801561001057600080fd5b506103e1806100206000396000f3fe608060405234801561001057600080fd5b506004361061002b5760003560e01c8063482a619314610030575b600080fd5b61004361003e3660046101be565b610059565b60405161005091906102b2565b60405180910390f35b600080600080848060200190516100739190810190610171565b925092509250600086805190602001206040516020016100939190610292565b604051602081830303815290604052805190602001209050600181838686604051600081526020016040526040516100ce94939291906102c0565b6020604051602081039080840390855afa1580156100f0573d6000803e3d6000fd5b505050602060405103519450505050505b92915050565b80516101018161037e565b600082601f83011261012357600080fd5b813561013661013182610325565b6102fe565b9150808252602083016020830185838301111561015257600080fd5b61015d838284610372565b50505092915050565b805161010181610395565b60008060006060848603121561018657600080fd5b60006101928686610107565b93505060206101a386828701610107565b92505060406101b486828701610166565b9150509250925092565b600080604083850312156101d157600080fd5b823567ffffffffffffffff8111156101e857600080fd5b6101f485828601610112565b925050602083013567ffffffffffffffff81111561021157600080fd5b61021d85828601610112565b9150509250929050565b61023081610352565b82525050565b6102308161035d565b61023061024b8261035d565b61035d565b600061025d601c8361034d565b7f19457468657265756d205369676e6564204d6573736167653a0a3332000000008152601c0192915050565b6102308161036c565b600061029d82610250565b91506102a9828461023f565b50602001919050565b602081016101018284610227565b608081016102ce8287610236565b6102db6020830186610289565b6102e86040830185610236565b6102f56060830184610236565b95945050505050565b60405181810167ffffffffffffffff8111828210171561031d57600080fd5b604052919050565b600067ffffffffffffffff82111561033c57600080fd5b506020601f91909101601f19160190565b919050565b600061010182610360565b90565b6001600160a01b031690565b60ff1690565b82818337506000910152565b6103878161035d565b811461039257600080fd5b50565b6103878161036c56fea365627a7a7231582086928f054cbf1b3dc7c988a0e92c5cc1c76c9d233719a08e3c926fdeedfbb9676c6578706572696d656e74616cf564736f6c63430005100040",
  "source": "\n/*\n * Based on compound-finance/open-oracle\n *\n * https://github.com/compound-finance/open-oracle\n */\n\n\npragma solidity ^0.5.12;\npragma experimental ABIEncoderV2;\n\n/**\n * @title The OracleHub Data Base Contract\n * @author Stability Labs. based on compound-finance/open-oracle/OpenOracleData.sol\n */\ncontract OracleHubData {\n    /**\n     * @notice The event emitted when a source writes to its storage\n     */\n    //event Write(address indexed source, <Key> indexed key, string kind, uint64 timestamp, <Value> value);\n\n    /**\n     * @notice Write a bunch of signed datum to the authenticated storage mapping\n     * @param message The payload containing the timestamp, and (key, value) pairs\n     * @param signature The cryptographic signature of the message payload, authorizing the source to write\n     * @return The keys that were written\n     */\n    //function put(bytes calldata message, bytes calldata signature) external returns (<Key> memory);\n\n    /**\n     * @notice Read a single key with a pre-defined type signature from an authenticated source\n     * @param source The verifiable author of the data\n     * @param key The selector for the value to return\n     * @return The claimed Unix timestamp for the data and the encoded value (defaults to (0, 0x))\n     */\n    //function get(address source, <Key> key) external view returns (uint, <Value>);\n\n    /**\n     * @notice Recovers the source address which signed a message\n     * @dev Comparing to a claimed address would add nothing,\n     *  as the caller could simply perform the recover and claim that address.\n     * @param message The data that was presumably signed\n     * @param signature The fingerprint of the data + private key\n     * @return The source address which signed the message, presumably\n     */\n    function source(bytes memory message, bytes memory signature) public pure returns (address) {\n        (bytes32 r, bytes32 s, uint8 v) = abi.decode(signature, (bytes32, bytes32, uint8));\n        bytes32 hash = keccak256(abi.encodePacked(\"\\x19Ethereum Signed Message:\\n32\", keccak256(message)));\n        return ecrecover(hash, v, r, s);\n    }\n}\n",
  "sourcePath": "/Users/james/mstable/mStable-contracts/contracts/oracle-hub/open-oracle/data/OracleHubData.sol",
  "compiler": {
    "name": "solc",
    "version": "0.5.16+commit.9c3226ce.Emscripten.clang"
  },
  "schemaVersion": "3.0.23",
  "updatedAt": "2020-02-05T09:31:38.533Z",
  "devdoc": {
    "author": "Stability Labs. based on compound-finance/open-oracle/OpenOracleData.sol",
    "methods": {
      "source(bytes,bytes)": {
        "details": "Comparing to a claimed address would add nothing, as the caller could simply perform the recover and claim that address.",
        "params": {
          "message": "The data that was presumably signed",
          "signature": "The fingerprint of the data + private key"
        },
        "return": "The source address which signed the message, presumably"
      }
    },
    "title": "The OracleHub Data Base Contract"
  },
  "userdoc": {
    "methods": {
      "source(bytes,bytes)": {
        "notice": "Recovers the source address which signed a message"
      }
    }
  }
}