{
  "contractName": "OracleHubMock",
  "abi": [
    {
      "inputs": [
        {
          "internalType": "address",
          "name": "_governance",
          "type": "address"
        },
        {
          "internalType": "address",
          "name": "_nexus",
          "type": "address"
        },
        {
          "internalType": "contract OracleHubPriceData",
          "name": "_data",
          "type": "address"
        },
        {
          "internalType": "address[]",
          "name": "_sources",
          "type": "address[]"
        }
      ],
      "payable": false,
      "stateMutability": "nonpayable",
      "type": "constructor"
    },
    {
      "anonymous": false,
      "inputs": [
        {
          "indexed": true,
          "internalType": "bytes32",
          "name": "key",
          "type": "bytes32"
        },
        {
          "indexed": false,
          "internalType": "address",
          "name": "newAddress",
          "type": "address"
        }
      ],
      "name": "ModuleUpdated",
      "type": "event"
    },
    {
      "anonymous": false,
      "inputs": [
        {
          "indexed": false,
          "internalType": "bytes32",
          "name": "symbol",
          "type": "bytes32"
        },
        {
          "indexed": false,
          "internalType": "uint64",
          "name": "price",
          "type": "uint64"
        }
      ],
      "name": "Price",
      "type": "event"
    },
    {
      "constant": true,
      "inputs": [],
      "name": "Key_Governance",
      "outputs": [
        {
          "internalType": "bytes32",
          "name": "",
          "type": "bytes32"
        }
      ],
      "payable": false,
      "stateMutability": "view",
      "type": "function"
    },
    {
      "constant": true,
      "inputs": [],
      "name": "Key_Manager",
      "outputs": [
        {
          "internalType": "bytes32",
          "name": "",
          "type": "bytes32"
        }
      ],
      "payable": false,
      "stateMutability": "view",
      "type": "function"
    },
    {
      "constant": true,
      "inputs": [],
      "name": "Key_Nexus",
      "outputs": [
        {
          "internalType": "bytes32",
          "name": "",
          "type": "bytes32"
        }
      ],
      "payable": false,
      "stateMutability": "view",
      "type": "function"
    },
    {
      "constant": true,
      "inputs": [],
      "name": "Key_OracleHub",
      "outputs": [
        {
          "internalType": "bytes32",
          "name": "",
          "type": "bytes32"
        }
      ],
      "payable": false,
      "stateMutability": "view",
      "type": "function"
    },
    {
      "constant": true,
      "inputs": [],
      "name": "Key_Recollateraliser",
      "outputs": [
        {
          "internalType": "bytes32",
          "name": "",
          "type": "bytes32"
        }
      ],
      "payable": false,
      "stateMutability": "view",
      "type": "function"
    },
    {
      "constant": true,
      "inputs": [],
      "name": "Key_Systok",
      "outputs": [
        {
          "internalType": "bytes32",
          "name": "",
          "type": "bytes32"
        }
      ],
      "payable": false,
      "stateMutability": "view",
      "type": "function"
    },
    {
      "constant": false,
      "inputs": [
        {
          "internalType": "address",
          "name": "_newSource",
          "type": "address"
        }
      ],
      "name": "addSource",
      "outputs": [],
      "payable": false,
      "stateMutability": "nonpayable",
      "type": "function"
    },
    {
      "constant": true,
      "inputs": [],
      "name": "data",
      "outputs": [
        {
          "internalType": "contract OracleHubData",
          "name": "",
          "type": "address"
        }
      ],
      "payable": false,
      "stateMutability": "view",
      "type": "function"
    },
    {
      "constant": true,
      "inputs": [
        {
          "internalType": "bytes32",
          "name": "symbol",
          "type": "bytes32"
        },
        {
          "internalType": "address[]",
          "name": "sources_",
          "type": "address[]"
        }
      ],
      "name": "medianPrice",
      "outputs": [
        {
          "internalType": "uint64",
          "name": "median",
          "type": "uint64"
        }
      ],
      "payable": false,
      "stateMutability": "view",
      "type": "function"
    },
    {
      "constant": false,
      "inputs": [
        {
          "internalType": "bytes[]",
          "name": "messages",
          "type": "bytes[]"
        },
        {
          "internalType": "bytes[]",
          "name": "signatures",
          "type": "bytes[]"
        },
        {
          "internalType": "bytes32[]",
          "name": "symbols",
          "type": "bytes32[]"
        }
      ],
      "name": "postPrices",
      "outputs": [],
      "payable": false,
      "stateMutability": "nonpayable",
      "type": "function"
    },
    {
      "constant": true,
      "inputs": [
        {
          "internalType": "bytes32",
          "name": "",
          "type": "bytes32"
        }
      ],
      "name": "prices",
      "outputs": [
        {
          "internalType": "uint64",
          "name": "",
          "type": "uint64"
        }
      ],
      "payable": false,
      "stateMutability": "view",
      "type": "function"
    },
    {
      "constant": true,
      "inputs": [
        {
          "internalType": "bytes32",
          "name": "_key",
          "type": "bytes32"
        }
      ],
      "name": "readPrice",
      "outputs": [
        {
          "internalType": "bool",
          "name": "",
          "type": "bool"
        },
        {
          "internalType": "uint64",
          "name": "",
          "type": "uint64"
        }
      ],
      "payable": false,
      "stateMutability": "view",
      "type": "function"
    },
    {
      "constant": true,
      "inputs": [
        {
          "internalType": "bytes32[2]",
          "name": "_keys",
          "type": "bytes32[2]"
        }
      ],
      "name": "readPricePair",
      "outputs": [
        {
          "internalType": "bool[2]",
          "name": "_isFresh",
          "type": "bool[2]"
        },
        {
          "internalType": "uint64[2]",
          "name": "_prices",
          "type": "uint64[2]"
        }
      ],
      "payable": false,
      "stateMutability": "view",
      "type": "function"
    },
    {
      "constant": true,
      "inputs": [
        {
          "internalType": "uint256",
          "name": "",
          "type": "uint256"
        }
      ],
      "name": "sources",
      "outputs": [
        {
          "internalType": "address",
          "name": "",
          "type": "address"
        }
      ],
      "payable": false,
      "stateMutability": "view",
      "type": "function"
    },
    {
      "constant": false,
      "inputs": [
        {
          "internalType": "bytes32",
          "name": "_key",
          "type": "bytes32"
        },
        {
          "internalType": "address",
          "name": "_newAddress",
          "type": "address"
        }
      ],
      "name": "updateModule",
      "outputs": [],
      "payable": false,
      "stateMutability": "nonpayable",
      "type": "function"
    },
    {
      "constant": false,
      "inputs": [
        {
          "internalType": "uint64[]",
          "name": "values",
          "type": "uint64[]"
        },
        {
          "internalType": "bytes32[]",
          "name": "symbols",
          "type": "bytes32[]"
        }
      ],
      "name": "addMockPrices",
      "outputs": [],
      "payable": false,
      "stateMutability": "nonpayable",
      "type": "function"
    }
  ],
  "bytecode": "0x60806040523480156200001157600080fd5b506040516200181a3803806200181a8339810160408190526200003491620003dc565b600080546001600160a01b0319166001600160a01b0384161790558051849084908490849083908190849084906200007490600190602084019062000219565b50505080600260006101000a8154816001600160a01b0302191690836001600160a01b031602179055506000606080836001600160a01b031663b2494df36040518163ffffffff1660e01b8152600401600060405180830381600087803b158015620000df57600080fd5b505af1158015620000f4573d6000803e3d6000fd5b505050506040513d6000823e601f3d908101601f191682016040526200011e91908101906200045e565b9194509250905060005b8381101562000174576200016b8382815181106200014257fe5b60200260200101518383815181106200015757fe5b6020026020010151620001a960201b60201c565b60010162000128565b5050600380546001600160a01b0319166001600160a01b03999099169890981790975550620005a19950505050505050505050565b817ff0d0fe9ecd941ad0096a6b95e0998ddcd76ba6a240a106fef284fc2d4f0caa4182604051620001db9190620004f3565b60405180910390a269476f7665726e616e636560b01b8214156200021557600380546001600160a01b0319166001600160a01b0383161790555b5050565b82805482825590600052602060002090810192821562000271579160200282015b828111156200027157825182546001600160a01b0319166001600160a01b039091161782556020909201916001909101906200023a565b506200027f92915062000283565b5090565b620002aa91905b808211156200027f5780546001600160a01b03191681556001016200028a565b90565b8051620002ba8162000571565b92915050565b600082601f830112620002d257600080fd5b8151620002e9620002e3826200052a565b62000503565b915081818352602084019350602081019050838560208402820111156200030f57600080fd5b60005b838110156200033f5781620003288882620002ad565b845250602092830192919091019060010162000312565b5050505092915050565b600082601f8301126200035b57600080fd5b81516200036c620002e3826200052a565b915081818352602084019350602081019050838560208402820111156200039257600080fd5b60005b838110156200033f5781620003ab8882620003c2565b845250602092830192919091019060010162000395565b8051620002ba816200058b565b8051620002ba8162000596565b60008060008060808587031215620003f357600080fd5b6000620004018787620002ad565b94505060206200041487828801620002ad565b93505060406200042787828801620003cf565b92505060608501516001600160401b038111156200044457600080fd5b6200045287828801620002c0565b91505092959194509250565b6000806000606084860312156200047457600080fd5b6000620004828686620003c2565b93505060208401516001600160401b038111156200049f57600080fd5b620004ad8682870162000349565b92505060408401516001600160401b03811115620004ca57600080fd5b620004d886828701620002c0565b9150509250925092565b620004ed816200054b565b82525050565b60208101620002ba8284620004e2565b6040518181016001600160401b03811182821017156200052257600080fd5b604052919050565b60006001600160401b038211156200054157600080fd5b5060209081020190565b6000620002ba8262000565565b6000620002ba826200054b565b6001600160a01b031690565b6200057c816200054b565b81146200058857600080fd5b50565b6200057c81620002aa565b6200057c8162000558565b61126980620005b16000396000f3fe608060405234801561001057600080fd5b50600436106101005760003560e01c80639b05c8a211610097578063b97e0ac611610066578063b97e0ac614610218578063c097b1fb14610220578063e551784114610233578063f3bdedd21461023b57610100565b80639b05c8a2146101ca578063a3663d37146101dd578063ae2efd91146101fd578063b6d4d1471461020557610100565b806360846bc6116100d357806360846bc61461017a57806373d4a13a1461019a5780637b4aec79146101af5780638d0f55f9146101b757610100565b806308f4c320146101055780632a142b0b1461012f5780635b3e92f1146101445780635eae58b914610165575b600080fd5b610118610113366004610cd0565b610243565b60405161012692919061107d565b60405180910390f35b61014261013d366004610b80565b610263565b005b610157610152366004610ba6565b6102e7565b604051610126929190611062565b61016d61037c565b6040516101269190611098565b61018d610188366004610cd0565b610389565b6040516101269190611143565b6101a26103a4565b60405161012691906110e5565b61016d6103b3565b6101426101c5366004610bc4565b6103c1565b6101426101d8366004610c62565b610623565b6101f06101eb366004610cd0565b6106c5565b6040516101269190611032565b61016d6106ec565b61018d610213366004610d46565b610703565b61016d610857565b61014261022e366004610d0c565b610867565b61016d6108cb565b61016d6108d7565b6000818152600460205260409020546001906001600160401b0316915091565b6003546001600160a01b031633146102965760405162461bcd60e51b815260040161028d90611123565b60405180910390fd5b6001805480820182556000919091527fb10e2d527612073b26eecdfd717e6a320cf44b4afac2b0732d9fcbe2b7fa0cf60180546001600160a01b0319166001600160a01b0392909216919091179055565b6102ef610a53565b6102f7610a53565b60005b60028110156103765760016004600086846002811061031557fe5b602090810291909101358252810191909152604001600020546001600160401b031684836002811061034357fe5b6020020184846002811061035357fe5b6001600160401b03909316602093909302019190915290151590526001016102fa565b50915091565b65537973746f6b60d01b81565b6004602052600090815260409020546001600160401b031681565b6000546001600160a01b031681565b6626b0b730b3b2b960c91b81565b8483146103e05760405162461bcd60e51b815260040161028d90611113565b60005b85811015610522576000546001600160a01b03166338636e9a88888481811061040857fe5b602002820190508035601e193684900301811261042457600080fd5b909101602081019150356001600160401b0381111561044257600080fd5b3681900382131561045257600080fd5b88888681811061045e57fe5b602002820190508035601e193684900301811261047a57600080fd5b909101602081019150356001600160401b0381111561049857600080fd5b368190038213156104a857600080fd5b6040518563ffffffff1660e01b81526004016104c794939291906110b4565b602060405180830381600087803b1580156104e157600080fd5b505af11580156104f5573d6000803e3d6000fd5b505050506040513d601f19601f820116820180604052506105199190810190610cee565b506001016103e3565b5060005b8181101561061a57600083838381811061053c57fe5b90506020020135905060006105ab8260018054806020026020016040519081016040528092919081815260200182805480156105a157602002820191906000526020600020905b81546001600160a01b03168152600190910190602001808311610583575b5050505050610703565b60008381526004602052604090819020805467ffffffffffffffff19166001600160401b038416179055519091507fe399d968bb02c19e67a017e9b405161ce424aa0be4d35b2f9cc7610a81c1d38a9061060890849084906110a6565b60405180910390a15050600101610526565b50505050505050565b8281146106425760405162461bcd60e51b815260040161028d90611103565b60005b838110156106be5784848281811061065957fe5b905060200201602061066e9190810190610d8d565b6004600085858581811061067e57fe5b60209081029290920135835250810191909152604001600020805467ffffffffffffffff19166001600160401b0392909216919091179055600101610645565b5050505050565b600181815481106106d257fe5b6000918252602090912001546001600160a01b0316905081565b6f2932b1b7b63630ba32b930b634b9b2b960811b81565b6000808251116107255760405162461bcd60e51b815260040161028d90611133565b8151604080518281526020808402820101909152606090828015610753578160200160208202803883390190505b50905060005b828110156108265760005485516001600160a01b039091169063a1aaf6c79087908490811061078457fe5b6020026020010151886040518363ffffffff1660e01b81526004016107aa929190611040565b60206040518083038186803b1580156107c257600080fd5b505afa1580156107d6573d6000803e3d6000fd5b505050506040513d601f19601f820116820180604052506107fa9190810190610dab565b82828151811061080657fe5b6001600160401b0390921660209283029190910190910152600101610759565b506060610832826108e8565b905080600284048151811061084357fe5b602002602001015193505050505b92915050565b6827b930b1b632a43ab160b91b81565b6002546001600160a01b031633146108915760405162461bcd60e51b815260040161028d906110f3565b644e6578757360d81b8214156108bd57600280546001600160a01b0319166001600160a01b0383161790555b6108c782826109e5565b5050565b644e6578757360d81b81565b69476f7665726e616e636560b01b81565b805160609060005b818110156109dd57600181015b828110156109d45784818151811061091157fe5b60200260200101516001600160401b031685838151811061092e57fe5b60200260200101516001600160401b031611156109cc57600085838151811061095357fe5b6020026020010151905085828151811061096957fe5b602002602001015186848151811061097d57fe5b60200260200101906001600160401b031690816001600160401b031681525050808683815181106109aa57fe5b60200260200101906001600160401b031690816001600160401b031681525050505b6001016108fd565b506001016108f0565b509192915050565b817ff0d0fe9ecd941ad0096a6b95e0998ddcd76ba6a240a106fef284fc2d4f0caa4182604051610a159190611032565b60405180910390a269476f7665726e616e636560b01b8214156108c757600380546001600160a01b0383166001600160a01b03199091161790555050565b60405180604001604052806002906020820280388339509192915050565b8035610851816111fd565b600082601f830112610a8d57600080fd5b8135610aa0610a9b82611177565b611151565b91508181835260208401935060208101905083856020840282011115610ac557600080fd5b60005b83811015610af15781610adb8882610a71565b8452506020928301929190910190600101610ac8565b5050505092915050565b806040810183101561085157600080fd5b60008083601f840112610b1e57600080fd5b5081356001600160401b03811115610b3557600080fd5b602083019150836020820283011115610b4d57600080fd5b9250929050565b803561085181611214565b805161085181611214565b80356108518161121d565b80516108518161121d565b600060208284031215610b9257600080fd5b6000610b9e8484610a71565b949350505050565b600060408284031215610bb857600080fd5b6000610b9e8484610afb565b60008060008060008060608789031215610bdd57600080fd5b86356001600160401b03811115610bf357600080fd5b610bff89828a01610b0c565b965096505060208701356001600160401b03811115610c1d57600080fd5b610c2989828a01610b0c565b945094505060408701356001600160401b03811115610c4757600080fd5b610c5389828a01610b0c565b92509250509295509295509295565b60008060008060408587031215610c7857600080fd5b84356001600160401b03811115610c8e57600080fd5b610c9a87828801610b0c565b945094505060208501356001600160401b03811115610cb857600080fd5b610cc487828801610b0c565b95989497509550505050565b600060208284031215610ce257600080fd5b6000610b9e8484610b54565b600060208284031215610d0057600080fd5b6000610b9e8484610b5f565b60008060408385031215610d1f57600080fd5b6000610d2b8585610b54565b9250506020610d3c85828601610a71565b9150509250929050565b60008060408385031215610d5957600080fd5b6000610d658585610b54565b92505060208301356001600160401b03811115610d8157600080fd5b610d3c85828601610a7c565b600060208284031215610d9f57600080fd5b6000610b9e8484610b6a565b600060208284031215610dbd57600080fd5b6000610b9e8484610b75565b6000610dd58383610e98565b505060200190565b6000610dd58383611029565b610df2816111b4565b82525050565b610e018161119a565b610e0b81846111a6565b9250610e1682611197565b8060005b83811015610e44578151610e2e8782610dc9565b9650610e39836111a0565b925050600101610e1a565b505050505050565b610e558161119a565b610e5f81846111a6565b9250610e6a82611197565b8060005b83811015610e44578151610e828782610ddd565b9650610e8d836111a0565b925050600101610e6e565b610df2816111bf565b610df281611197565b6000610eb683856111ab565b9350610ec38385846111e7565b610ecc836111f3565b9093019392505050565b610df2816111dc565b6000610eec6023836111ab565b7f4f6e6c79207075626c6973686572206d61792063616c6c2074686973206d65748152621a1bd960ea1b602082015260400192915050565b6000610f31601e836111ab565b7f76616c75657320616e642073796d626f6c73206d75737420626520313a310000815260200192915050565b6000610f6a6023836111ab565b7f6d6573736167657320616e64207369676e617475726573206d75737420626520815262313a3160e81b602082015260400192915050565b6000610faf602c836111ab565b7f4f6e6c792074686520676f7665726e6f72206d617920706572666f726d20746881526b34b99037b832b930ba34b7b760a11b602082015260400192915050565b6000610ffd601e836111ab565b7f736f7572636573206c697374206d757374206e6f7420626520656d7074790000815260200192915050565b610df2816111d0565b602081016108518284610de9565b6040810161104e8285610de9565b61105b6020830184610ea1565b9392505050565b608081016110708285610df8565b61105b6040830184610e4c565b6040810161108b8285610e98565b61105b6020830184611029565b602081016108518284610ea1565b6040810161108b8285610ea1565b604080825281016110c6818688610eaa565b905081810360208301526110db818486610eaa565b9695505050505050565b602081016108518284610ed6565b6020808252810161085181610edf565b6020808252810161085181610f24565b6020808252810161085181610f5d565b6020808252810161085181610fa2565b6020808252810161085181610ff0565b602081016108518284611029565b6040518181016001600160401b038111828210171561116f57600080fd5b604052919050565b60006001600160401b0382111561118d57600080fd5b5060209081020190565b90565b50600290565b60200190565b919050565b90815260200190565b6000610851826111c4565b151590565b6001600160a01b031690565b6001600160401b031690565b6000610851826111b4565b82818337506000910152565b601f01601f191690565b611206816111b4565b811461121157600080fd5b50565b61120681611197565b611206816111d056fea365627a7a723158205942647551fe8fe8f72bea024c84c73e21906e9a628060c358a447f81646a3286c6578706572696d656e74616cf564736f6c63430005100040",
  "source": "\npragma solidity ^0.5.12;\npragma experimental ABIEncoderV2;\n\nimport { OracleHub, OracleHubPriceData } from \"../../oracle-hub/open-oracle/OracleHub.sol\";\n\n/**\n * @title OracleHubMock allows us to put custom price data into the Oracle without signing messages\n * @notice Values stored in this contract should represent a relative price to pegged asset\n * @author Stability Labs\n */\ncontract OracleHubMock is OracleHub {\n\n\n    constructor(\n        address _governance,\n        address _nexus,\n        OracleHubPriceData _data,\n        address[] memory _sources\n    )\n        OracleHub(\n            _governance,\n            _nexus,\n            _data,\n            _sources\n        )\n        public\n    {}\n\n\n    function addMockPrices(\n        uint64[] calldata values,\n        // uint64[] calldata timestamps,\n        bytes32[] calldata symbols\n    ) external {\n        require(values.length == symbols.length, \"values and symbols must be 1:1\");\n\n        // Recalculate the asset prices for the symbols to update\n        for (uint i = 0; i < values.length; i++) {\n            prices[symbols[i]] = values[i];\n        }\n    }\n\n}\n",
  "sourcePath": "/Users/james/mstable/mStable-contracts/contracts/z_mocks/oracles/OracleHubMock.sol",
  "compiler": {
    "name": "solc",
    "version": "0.5.16+commit.9c3226ce.Emscripten.clang"
  },
  "schemaVersion": "3.0.23",
  "updatedAt": "2020-02-05T09:31:38.645Z",
  "devdoc": {
    "author": "Stability Labs",
    "methods": {
      "addSource(address)": {
        "details": "Whitelist a source for use in medianizing",
        "params": {
          "_newSource": "Address of the whitelisted source"
        }
      },
      "medianPrice(bytes32,address[])": {
        "params": {
          "sources_": "The sources to use when calculating the median price",
          "symbol": "The symbol to calculate the median price of"
        },
        "return": "median The median price over the set of sources"
      },
      "postPrices(bytes[],bytes[],bytes32[])": {
        "details": "We let anyone pay to post anything, but only sources count for prices.",
        "params": {
          "messages": "The messages to post to the oracle",
          "signatures": "The signatures for the corresponding messages"
        }
      },
      "readPrice(bytes32)": {
        "details": "Read a medianized price from our storage",
        "params": {
          "_key": "Key of the asset to read price"
        },
        "return": "bool price is freshuint64 Price as $1 == 1e6"
      },
      "readPricePair(bytes32[2])": {
        "details": "Read a medianized price from our storage",
        "params": {
          "_keys": "Keys of the asset to read price"
        },
        "return": "bool price is freshuint64 Price as $1 == 1e6"
      },
      "updateModule(bytes32,address)": {
        "details": "Higher order function to allow for module updates only via publisher",
        "params": {
          "_key": "Key of the new module",
          "_newAddress": "Address of the new module"
        }
      }
    },
    "title": "OracleHubMock allows us to put custom price data into the Oracle without signing messages"
  },
  "userdoc": {
    "methods": {
      "medianPrice(bytes32,address[])": {
        "notice": "Calculates the median price over any set of sources"
      },
      "postPrices(bytes[],bytes[],bytes32[])": {
        "notice": "Primary entry point to post and recalculate prices"
      }
    },
    "notice": "Values stored in this contract should represent a relative price to pegged asset"
  }
}