{
  "contractName": "SimpleOracleHubMock",
  "abi": [
    {
      "inputs": [
        {
          "internalType": "address",
          "name": "_nexus",
          "type": "address"
        },
        {
          "internalType": "address",
          "name": "_source",
          "type": "address"
        }
      ],
      "payable": false,
      "stateMutability": "nonpayable",
      "type": "constructor"
    },
    {
      "anonymous": false,
      "inputs": [
        {
          "indexed": false,
          "internalType": "bytes32",
          "name": "symbol",
          "type": "bytes32"
        },
        {
          "indexed": false,
          "internalType": "uint64",
          "name": "timestamp",
          "type": "uint64"
        },
        {
          "indexed": false,
          "internalType": "uint64",
          "name": "price",
          "type": "uint64"
        }
      ],
      "name": "Price",
      "type": "event"
    },
    {
      "constant": true,
      "inputs": [],
      "name": "Key_Governance",
      "outputs": [
        {
          "internalType": "bytes32",
          "name": "",
          "type": "bytes32"
        }
      ],
      "payable": false,
      "stateMutability": "view",
      "type": "function"
    },
    {
      "constant": true,
      "inputs": [],
      "name": "Key_Governor",
      "outputs": [
        {
          "internalType": "bytes32",
          "name": "",
          "type": "bytes32"
        }
      ],
      "payable": false,
      "stateMutability": "view",
      "type": "function"
    },
    {
      "constant": true,
      "inputs": [],
      "name": "Key_Manager",
      "outputs": [
        {
          "internalType": "bytes32",
          "name": "",
          "type": "bytes32"
        }
      ],
      "payable": false,
      "stateMutability": "view",
      "type": "function"
    },
    {
      "constant": true,
      "inputs": [],
      "name": "Key_Nexus",
      "outputs": [
        {
          "internalType": "bytes32",
          "name": "",
          "type": "bytes32"
        }
      ],
      "payable": false,
      "stateMutability": "view",
      "type": "function"
    },
    {
      "constant": true,
      "inputs": [],
      "name": "Key_OracleHub",
      "outputs": [
        {
          "internalType": "bytes32",
          "name": "",
          "type": "bytes32"
        }
      ],
      "payable": false,
      "stateMutability": "view",
      "type": "function"
    },
    {
      "constant": true,
      "inputs": [],
      "name": "Key_Recollateraliser",
      "outputs": [
        {
          "internalType": "bytes32",
          "name": "",
          "type": "bytes32"
        }
      ],
      "payable": false,
      "stateMutability": "view",
      "type": "function"
    },
    {
      "constant": true,
      "inputs": [],
      "name": "Key_Staking",
      "outputs": [
        {
          "internalType": "bytes32",
          "name": "",
          "type": "bytes32"
        }
      ],
      "payable": false,
      "stateMutability": "view",
      "type": "function"
    },
    {
      "constant": true,
      "inputs": [],
      "name": "Key_Systok",
      "outputs": [
        {
          "internalType": "bytes32",
          "name": "",
          "type": "bytes32"
        }
      ],
      "payable": false,
      "stateMutability": "view",
      "type": "function"
    },
    {
      "constant": false,
      "inputs": [
        {
          "internalType": "address",
          "name": "_newSource",
          "type": "address"
        }
      ],
      "name": "changeSource",
      "outputs": [],
      "payable": false,
      "stateMutability": "nonpayable",
      "type": "function"
    },
    {
      "constant": true,
      "inputs": [],
      "name": "nexus",
      "outputs": [
        {
          "internalType": "contract INexus",
          "name": "",
          "type": "address"
        }
      ],
      "payable": false,
      "stateMutability": "view",
      "type": "function"
    },
    {
      "constant": false,
      "inputs": [
        {
          "internalType": "bytes[]",
          "name": "messages",
          "type": "bytes[]"
        },
        {
          "internalType": "bytes[]",
          "name": "signatures",
          "type": "bytes[]"
        }
      ],
      "name": "postPrices",
      "outputs": [],
      "payable": false,
      "stateMutability": "nonpayable",
      "type": "function"
    },
    {
      "constant": true,
      "inputs": [
        {
          "internalType": "bytes32",
          "name": "_key",
          "type": "bytes32"
        }
      ],
      "name": "readPrice",
      "outputs": [
        {
          "internalType": "bool",
          "name": "",
          "type": "bool"
        },
        {
          "internalType": "uint64",
          "name": "",
          "type": "uint64"
        }
      ],
      "payable": false,
      "stateMutability": "view",
      "type": "function"
    },
    {
      "constant": true,
      "inputs": [
        {
          "internalType": "bytes32[2]",
          "name": "_keys",
          "type": "bytes32[2]"
        }
      ],
      "name": "readPricePair",
      "outputs": [
        {
          "internalType": "bool[2]",
          "name": "_isFresh",
          "type": "bool[2]"
        },
        {
          "internalType": "uint64[2]",
          "name": "_prices",
          "type": "uint64[2]"
        }
      ],
      "payable": false,
      "stateMutability": "view",
      "type": "function"
    },
    {
      "constant": false,
      "inputs": [
        {
          "internalType": "uint64[]",
          "name": "values",
          "type": "uint64[]"
        },
        {
          "internalType": "uint64[]",
          "name": "timestamps",
          "type": "uint64[]"
        },
        {
          "internalType": "bytes32[]",
          "name": "symbols",
          "type": "bytes32[]"
        }
      ],
      "name": "addMockPrices",
      "outputs": [],
      "payable": false,
      "stateMutability": "nonpayable",
      "type": "function"
    }
  ],
  "bytecode": "0x60806040523480156200001157600080fd5b506040516200136038038062001360833981016040819052620000349162000079565b600080546001600160a01b039384166001600160a01b03199182161790915560028054929093169116179055620000e4565b80516200007381620000ca565b92915050565b600080604083850312156200008d57600080fd5b60006200009b858562000066565b9250506020620000ae8582860162000066565b9150509250929050565b60006001600160a01b03821662000073565b620000d581620000b8565b8114620000e157600080fd5b50565b61126c80620000f46000396000f3fe608060405234801561001057600080fd5b50600436106100ea5760003560e01c8063a3f5c1d21161008c578063c7c9f31211610066578063c7c9f312146101a1578063e5517841146101b4578063e93a6123146101bc578063f3bdedd2146101cf576100ea565b8063a3f5c1d21461017c578063ae2efd9114610191578063b97e0ac614610199576100ea565b80635b3e92f1116100c85780635b3e92f1146101365780635eae58b9146101575780637b4aec791461015f57806389e95e9614610167576100ea565b806308f4c320146100ef5780630aa8d59a146101195780634fa167901461012e575b600080fd5b6101026100fd366004610c04565b6101d7565b604051610110929190611033565b60405180910390f35b61012161024e565b604051610110919061104e565b61012161025c565b610149610144366004610ada565b61026b565b604051610110929190611018565b610121610363565b610121610370565b61017a610175366004610af8565b61037e565b005b6101846104d8565b60405161011091906110c2565b6101216104e7565b6101216104fe565b61017a6101af366004610b66565b61050e565b61012161061c565b61017a6101ca366004610a96565b610628565b610121610682565b6000806101e2610967565b5060008381526001602090815260408083208151808301909252546001600160401b03808216808452600160401b909204169282019290925291904211801561023c575062015180420382600001516001600160401b0316115b60209092015191935090915050915091565b665374616b696e6760c81b81565b6723b7bb32b93737b960c11b81565b61027361097e565b61027b61097e565b610289565b60405180910390fd5b60005b600281101561035d5761029d610967565b600160008684600281106102ad57fe5b60209081029190910135825281810192909252604090810160009081208251808401909352546001600160401b03808216808552600160401b90920416938301939093529092509042118015610314575062015180420382600001516001600160401b0316115b905080826020015186856002811061032857fe5b6020020186866002811061033857fe5b6001600160401b0390931660209390930201919091529015159052505060010161028c565b50915091565b65537973746f6b60d01b81565b6626b0b730b3b2b960c91b81565b82811461039d5760405162461bcd60e51b815260040161028090611110565b60005b838110156104d1576104c88585838181106103b757fe5b602002820190508035601e19368490030181126103d357600080fd5b909101602081019150356001600160401b038111156103f157600080fd5b3681900382131561040157600080fd5b8080601f01602080910402602001604051908101604052809392919081815260200183838082843760009201919091525087925086915085905081811061044457fe5b602002820190508035601e193684900301811261046057600080fd5b909101602081019150356001600160401b0381111561047e57600080fd5b3681900382131561048e57600080fd5b8080601f01602080910402602001604051908101604052809392919081815260200183838082843760009201919091525061069392505050565b506001016103a0565b5050505050565b6000546001600160a01b031681565b6f2932b1b7b63630ba32b930b634b9b2b960811b81565b6827b930b1b632a43ab160b91b81565b84811461052d5760405162461bcd60e51b8152600401610280906110f0565b60005b8581101561061357604051806040016040528086868481811061054f57fe5b90506020020160206105649190810190610ce6565b6001600160401b0316815260200188888481811061057e57fe5b90506020020160206105939190810190610ce6565b6001600160401b03169052600160008585858181106105ae57fe5b60209081029290920135835250818101929092526040016000208251815493909201516001600160401b03908116600160401b0267ffffffffffffffff60401b199190931667ffffffffffffffff199094169390931792909216179055600101610530565b50505050505050565b644e6578757360d81b81565b610630610829565b6001600160a01b0316336001600160a01b0316146106605760405162461bcd60e51b8152600401610280906110d0565b600280546001600160a01b0319166001600160a01b0392909216919091179055565b69476f7665726e616e636560b01b81565b6000806106a084846108ba565b6002549091506001600160a01b038083169116146106d05760405162461bcd60e51b8152600401610280906110e0565b60606000806000878060200190516106eb9190810190610c6f565b93509350935093506040516020016107029061100d565b60405160208183030381529060405280519060200120846040516020016107299190610fda565b604051602081830303815290604052805190602001201461075c5760405162461bcd60e51b815260040161028090611100565b600082815260016020526040902080546001600160401b038086169116101561081a576040805180820182526001600160401b03868116825284811660208084019182526000888152600190915284902092518354915167ffffffffffffffff199092169083161767ffffffffffffffff60401b1916600160401b9190921602179055517f8dd2455b6248e19da01f0b45dcf216ab2d16e36ce3108783e1b883d949a00e48906108119085908790869061105c565b60405180910390a15b50909450505050505b92915050565b600080546040516385acd64160e01b81526001600160a01b03909116906385acd64190610865906723b7bb32b93737b960c11b9060040161104e565b60206040518083038186803b15801561087d57600080fd5b505afa158015610891573d6000803e3d6000fd5b505050506040513d601f19601f820116820180604052506108b59190810190610abc565b905090565b600080600080848060200190516108d49190810190610c22565b925092509250600086805190602001206040516020016108f49190610fed565b6040516020818303038152906040528051906020012090506001818386866040516000815260200160405260405161092f9493929190611084565b6020604051602081039080840390855afa158015610951573d6000803e3d6000fd5b5050604051601f19015198975050505050505050565b604080518082019091526000808252602082015290565b60405180604001604052806002906020820280388339509192915050565b8035610823816111f7565b8051610823816111f7565b806040810183101561082357600080fd5b60008083601f8401126109d557600080fd5b5081356001600160401b038111156109ec57600080fd5b602083019150836020820283011115610a0457600080fd5b9250929050565b80356108238161120e565b80516108238161120e565b600082601f830112610a3257600080fd5b8151610a45610a4082611146565b611120565b91508082526020830160208301858383011115610a6157600080fd5b610a6c8382846111c7565b50505092915050565b803561082381611217565b805161082381611217565b805161082381611220565b600060208284031215610aa857600080fd5b6000610ab4848461099c565b949350505050565b600060208284031215610ace57600080fd5b6000610ab484846109a7565b600060408284031215610aec57600080fd5b6000610ab484846109b2565b60008060008060408587031215610b0e57600080fd5b84356001600160401b03811115610b2457600080fd5b610b30878288016109c3565b945094505060208501356001600160401b03811115610b4e57600080fd5b610b5a878288016109c3565b95989497509550505050565b60008060008060008060608789031215610b7f57600080fd5b86356001600160401b03811115610b9557600080fd5b610ba189828a016109c3565b965096505060208701356001600160401b03811115610bbf57600080fd5b610bcb89828a016109c3565b945094505060408701356001600160401b03811115610be957600080fd5b610bf589828a016109c3565b92509250509295509295509295565b600060208284031215610c1657600080fd5b6000610ab48484610a0b565b600080600060608486031215610c3757600080fd5b6000610c438686610a16565b9350506020610c5486828701610a16565b9250506040610c6586828701610a8b565b9150509250925092565b60008060008060808587031215610c8557600080fd5b84516001600160401b03811115610c9b57600080fd5b610ca787828801610a21565b9450506020610cb887828801610a80565b9350506040610cc987828801610a16565b9250506060610cda87828801610a80565b91505092959194509250565b600060208284031215610cf857600080fd5b6000610ab48484610a75565b6000610d108383610dc4565b505060200190565b6000610d108383610fc8565b610d2d81611170565b610d378184611180565b9250610d428261116d565b8060005b83811015610d70578151610d5a8782610d04565b9650610d658361117a565b925050600101610d46565b505050505050565b610d8181611170565b610d8b8184611180565b9250610d968261116d565b8060005b83811015610d70578151610dae8782610d18565b9650610db98361117a565b925050600101610d9a565b610dcd81611199565b82525050565b610dcd8161116d565b610dcd610de88261116d565b61116d565b610dcd816111bc565b6000610e0182611176565b610e0b8185611180565b9350610e1b8185602086016111c7565b9290920192915050565b6000610e32601c83611180565b7f19457468657265756d205369676e6564204d6573736167653a0a3332000000008152601c0192915050565b6000610e6b601983611185565b7f4f6e6c7920676f7665726e6f722063616e206578656375746500000000000000815260200192915050565b6000610ea4603683611185565b7f4f6e6c7920707269636573207369676e6564206279207468652076616c6964618152751d1959081cdbdd5c98d948185c9948185b1b1bddd95960521b602082015260400192915050565b6000610efc601e83611185565b7f76616c75657320616e642073796d626f6c73206d75737420626520313a310000815260200192915050565b6000610f35601d83611185565b7f4b696e64206f662064617461206d757374206265202770726963657327000000815260200192915050565b6000610f6e602383611185565b7f6d6573736167657320616e64207369676e617475726573206d75737420626520815262313a3160e81b602082015260400192915050565b6000610fb3600683611180565b6570726963657360d01b815260060192915050565b610dcd816111aa565b610dcd816111b6565b6000610fe68284610df6565b9392505050565b6000610ff882610e25565b91506110048284610ddc565b50602001919050565b600061082382610fa6565b608081016110268285610d24565b610fe66040830184610d78565b604081016110418285610dc4565b610fe66020830184610fc8565b602081016108238284610dd3565b6060810161106a8286610dd3565b6110776020830185610fc8565b610ab46040830184610fc8565b608081016110928287610dd3565b61109f6020830186610fd1565b6110ac6040830185610dd3565b6110b96060830184610dd3565b95945050505050565b602081016108238284610ded565b6020808252810161082381610e5e565b6020808252810161082381610e97565b6020808252810161082381610eef565b6020808252810161082381610f28565b6020808252810161082381610f61565b6040518181016001600160401b038111828210171561113e57600080fd5b604052919050565b60006001600160401b0382111561115c57600080fd5b506020601f91909101601f19160190565b90565b50600290565b5190565b60200190565b919050565b90815260200190565b60006108238261119e565b151590565b6001600160a01b031690565b6001600160401b031690565b60ff1690565b60006108238261118e565b60005b838110156111e25781810151838201526020016111ca565b838111156111f1576000848401525b50505050565b6112008161118e565b811461120b57600080fd5b50565b6112008161116d565b611200816111aa565b611200816111b656fea365627a7a723158209752aece95478be254c00e1c7c29644e63ec1270c6c64af9865bb0420bfb72e36c6578706572696d656e74616cf564736f6c63430005100040",
  "source": "\npragma solidity ^0.5.12;\npragma experimental ABIEncoderV2;\n\nimport { SimpleOracleHub } from \"../../oracle-hub/SimpleOracleHub.sol\";\n\n/**\n * @title OracleHubMock allows us to put custom price data into the Oracle without signing messages\n * @notice Values stored in this contract should represent a relative price to pegged asset\n * @author Stability Labs\n */\ncontract SimpleOracleHubMock is SimpleOracleHub {\n\n\n    constructor(\n        address _nexus,\n        address _source\n    )\n        SimpleOracleHub(\n            _nexus,\n            _source\n        )\n        public\n    {}\n\n\n    function addMockPrices(\n        uint64[] calldata values,\n        uint64[] calldata timestamps,\n        bytes32[] calldata symbols\n    ) external {\n        require(values.length == symbols.length, \"values and symbols must be 1:1\");\n\n        // Recalculate the asset prices for the symbols to update\n        for (uint i = 0; i < values.length; i++) {\n            data[symbols[i]] = Datum(timestamps[i], values[i]);\n        }\n    }\n\n}\n",
  "sourcePath": "/Users/james/mstable/mStable-contracts/contracts/z_mocks/oracles/SimpleOracleHubMock.sol",
  "compiler": {
    "name": "solc",
    "version": "0.5.16+commit.9c3226ce.Emscripten.clang"
  },
  "schemaVersion": "3.0.23",
  "updatedAt": "2020-02-08T14:40:09.429Z",
  "devdoc": {
    "author": "Stability Labs",
    "methods": {
      "changeSource(address)": {
        "details": "Whitelist a source for use in medianizing",
        "params": {
          "_newSource": "Address of the whitelisted source"
        }
      },
      "postPrices(bytes[],bytes[])": {
        "details": "Message must be signed by the validated source in order to be valid",
        "params": {
          "messages": "The messages to post to the oracle",
          "signatures": "The signatures for the corresponding messages"
        }
      },
      "readPrice(bytes32)": {
        "details": "Read a medianized price from our storage",
        "params": {
          "_key": "Key of the asset to read price"
        },
        "return": "bool price is freshuint64 Price as $1 == 1e6"
      },
      "readPricePair(bytes32[2])": {
        "details": "Read a medianized price from our storage",
        "params": {
          "_keys": "Keys of the asset to read price"
        },
        "return": "bool price is freshuint64 Price as $1 == 1e6"
      }
    },
    "title": "OracleHubMock allows us to put custom price data into the Oracle without signing messages"
  },
  "userdoc": {
    "methods": {
      "postPrices(bytes[],bytes[])": {
        "notice": "Primary entry point to post and recalculate prices"
      }
    },
    "notice": "Values stored in this contract should represent a relative price to pegged asset"
  }
}