{
  "contractName": "SimpleOracleHub",
  "abi": [
    {
      "inputs": [
        {
          "internalType": "address",
          "name": "_nexus",
          "type": "address"
        },
        {
          "internalType": "address",
          "name": "_source",
          "type": "address"
        }
      ],
      "payable": false,
      "stateMutability": "nonpayable",
      "type": "constructor"
    },
    {
      "anonymous": false,
      "inputs": [
        {
          "indexed": false,
          "internalType": "bytes32",
          "name": "symbol",
          "type": "bytes32"
        },
        {
          "indexed": false,
          "internalType": "uint64",
          "name": "timestamp",
          "type": "uint64"
        },
        {
          "indexed": false,
          "internalType": "uint64",
          "name": "price",
          "type": "uint64"
        }
      ],
      "name": "Price",
      "type": "event"
    },
    {
      "constant": true,
      "inputs": [],
      "name": "Key_Governance",
      "outputs": [
        {
          "internalType": "bytes32",
          "name": "",
          "type": "bytes32"
        }
      ],
      "payable": false,
      "stateMutability": "view",
      "type": "function"
    },
    {
      "constant": true,
      "inputs": [],
      "name": "Key_Governor",
      "outputs": [
        {
          "internalType": "bytes32",
          "name": "",
          "type": "bytes32"
        }
      ],
      "payable": false,
      "stateMutability": "view",
      "type": "function"
    },
    {
      "constant": true,
      "inputs": [],
      "name": "Key_Manager",
      "outputs": [
        {
          "internalType": "bytes32",
          "name": "",
          "type": "bytes32"
        }
      ],
      "payable": false,
      "stateMutability": "view",
      "type": "function"
    },
    {
      "constant": true,
      "inputs": [],
      "name": "Key_Nexus",
      "outputs": [
        {
          "internalType": "bytes32",
          "name": "",
          "type": "bytes32"
        }
      ],
      "payable": false,
      "stateMutability": "view",
      "type": "function"
    },
    {
      "constant": true,
      "inputs": [],
      "name": "Key_OracleHub",
      "outputs": [
        {
          "internalType": "bytes32",
          "name": "",
          "type": "bytes32"
        }
      ],
      "payable": false,
      "stateMutability": "view",
      "type": "function"
    },
    {
      "constant": true,
      "inputs": [],
      "name": "Key_Recollateraliser",
      "outputs": [
        {
          "internalType": "bytes32",
          "name": "",
          "type": "bytes32"
        }
      ],
      "payable": false,
      "stateMutability": "view",
      "type": "function"
    },
    {
      "constant": true,
      "inputs": [],
      "name": "Key_Staking",
      "outputs": [
        {
          "internalType": "bytes32",
          "name": "",
          "type": "bytes32"
        }
      ],
      "payable": false,
      "stateMutability": "view",
      "type": "function"
    },
    {
      "constant": true,
      "inputs": [],
      "name": "Key_Systok",
      "outputs": [
        {
          "internalType": "bytes32",
          "name": "",
          "type": "bytes32"
        }
      ],
      "payable": false,
      "stateMutability": "view",
      "type": "function"
    },
    {
      "constant": true,
      "inputs": [],
      "name": "nexus",
      "outputs": [
        {
          "internalType": "contract INexus",
          "name": "",
          "type": "address"
        }
      ],
      "payable": false,
      "stateMutability": "view",
      "type": "function"
    },
    {
      "constant": false,
      "inputs": [
        {
          "internalType": "address",
          "name": "_newSource",
          "type": "address"
        }
      ],
      "name": "changeSource",
      "outputs": [],
      "payable": false,
      "stateMutability": "nonpayable",
      "type": "function"
    },
    {
      "constant": true,
      "inputs": [
        {
          "internalType": "bytes32",
          "name": "_key",
          "type": "bytes32"
        }
      ],
      "name": "readPrice",
      "outputs": [
        {
          "internalType": "bool",
          "name": "",
          "type": "bool"
        },
        {
          "internalType": "uint64",
          "name": "",
          "type": "uint64"
        }
      ],
      "payable": false,
      "stateMutability": "view",
      "type": "function"
    },
    {
      "constant": true,
      "inputs": [
        {
          "internalType": "bytes32[2]",
          "name": "_keys",
          "type": "bytes32[2]"
        }
      ],
      "name": "readPricePair",
      "outputs": [
        {
          "internalType": "bool[2]",
          "name": "_isFresh",
          "type": "bool[2]"
        },
        {
          "internalType": "uint64[2]",
          "name": "_prices",
          "type": "uint64[2]"
        }
      ],
      "payable": false,
      "stateMutability": "view",
      "type": "function"
    },
    {
      "constant": false,
      "inputs": [
        {
          "internalType": "bytes[]",
          "name": "messages",
          "type": "bytes[]"
        },
        {
          "internalType": "bytes[]",
          "name": "signatures",
          "type": "bytes[]"
        }
      ],
      "name": "postPrices",
      "outputs": [],
      "payable": false,
      "stateMutability": "nonpayable",
      "type": "function"
    }
  ],
  "bytecode": "0x608060405234801561001057600080fd5b506040516200110a3803806200110a83398101604081905261003191610073565b600080546001600160a01b039384166001600160a01b031991821617909155600280549290931691161790556100d5565b805161006d816100be565b92915050565b6000806040838503121561008657600080fd5b60006100928585610062565b92505060206100a385828601610062565b9150509250929050565b60006001600160a01b03821661006d565b6100c7816100ad565b81146100d257600080fd5b50565b61102580620000e56000396000f3fe608060405234801561001057600080fd5b50600436106100cf5760003560e01c806389e95e961161008c578063b97e0ac611610066578063b97e0ac61461017e578063e551784114610186578063e93a61231461018e578063f3bdedd2146101a1576100cf565b806389e95e961461014c578063a3f5c1d214610161578063ae2efd9114610176576100cf565b806308f4c320146100d45780630aa8d59a146100fe5780634fa16790146101135780635b3e92f11461011b5780635eae58b91461013c5780637b4aec7914610144575b600080fd5b6100e76100e2366004610a24565b6101a9565b6040516100f5929190610dfc565b60405180910390f35b610106610220565b6040516100f59190610e17565b61010661022e565b61012e610129366004610998565b61023d565b6040516100f5929190610de1565b610106610335565b610106610342565b61015f61015a3660046109b6565b610350565b005b6101696104aa565b6040516100f59190610e8b565b6101066104b9565b6101066104d0565b6101066104e0565b61015f61019c366004610954565b6104ec565b610106610546565b6000806101b4610830565b5060008381526001602090815260408083208151808301909252546001600160401b03808216808452600160401b909204169282019290925291904211801561020e575062015180420382600001516001600160401b0316115b60209092015191935090915050915091565b665374616b696e6760c81b81565b6723b7bb32b93737b960c11b81565b610245610847565b61024d610847565b61025b565b60405180910390fd5b60005b600281101561032f5761026f610830565b6001600086846002811061027f57fe5b60209081029190910135825281810192909252604090810160009081208251808401909352546001600160401b03808216808552600160401b909204169383019390935290925090421180156102e6575062015180420382600001516001600160401b0316115b90508082602001518685600281106102fa57fe5b6020020186866002811061030a57fe5b6001600160401b0390931660209390930201919091529015159052505060010161025e565b50915091565b65537973746f6b60d01b81565b6626b0b730b3b2b960c91b81565b82811461036f5760405162461bcd60e51b815260040161025290610ec9565b60005b838110156104a35761049a85858381811061038957fe5b602002820190508035601e19368490030181126103a557600080fd5b909101602081019150356001600160401b038111156103c357600080fd5b368190038213156103d357600080fd5b8080601f01602080910402602001604051908101604052809392919081815260200183838082843760009201919091525087925086915085905081811061041657fe5b602002820190508035601e193684900301811261043257600080fd5b909101602081019150356001600160401b0381111561045057600080fd5b3681900382131561046057600080fd5b8080601f01602080910402602001604051908101604052809392919081815260200183838082843760009201919091525061055792505050565b50600101610372565b5050505050565b6000546001600160a01b031681565b6f2932b1b7b63630ba32b930b634b9b2b960811b81565b6827b930b1b632a43ab160b91b81565b644e6578757360d81b81565b6104f46106f2565b6001600160a01b0316336001600160a01b0316146105245760405162461bcd60e51b815260040161025290610e99565b600280546001600160a01b0319166001600160a01b0392909216919091179055565b69476f7665726e616e636560b01b81565b6000806105648484610783565b6002549091506001600160a01b038083169116146105945760405162461bcd60e51b815260040161025290610ea9565b60606000806000878060200190516105af9190810190610a8f565b93509350935093506040516020016105c690610dd6565b60405160208183030381529060405280519060200120846040516020016105ed9190610da3565b60405160208183030381529060405280519060200120146106205760405162461bcd60e51b815260040161025290610eb9565b600082815260016020526040902080546001600160401b03808616911610156106e3576040805180820182526001600160401b03868116825284811660208084019182526000888152600190915284902092518354915167ffffffffffffffff19909216908316176fffffffffffffffff00000000000000001916600160401b9190921602179055517f8dd2455b6248e19da01f0b45dcf216ab2d16e36ce3108783e1b883d949a00e48906106da90859087908690610e25565b60405180910390a15b50909450505050505b92915050565b600080546040516385acd64160e01b81526001600160a01b03909116906385acd6419061072e906723b7bb32b93737b960c11b90600401610e17565b60206040518083038186803b15801561074657600080fd5b505afa15801561075a573d6000803e3d6000fd5b505050506040513d601f19601f8201168201806040525061077e919081019061097a565b905090565b6000806000808480602001905161079d9190810190610a42565b925092509250600086805190602001206040516020016107bd9190610db6565b604051602081830303815290604052805190602001209050600181838686604051600081526020016040526040516107f89493929190610e4d565b6020604051602081039080840390855afa15801561081a573d6000803e3d6000fd5b5050604051601f19015198975050505050505050565b604080518082019091526000808252602082015290565b60405180604001604052806002906020820280388339509192915050565b80356106ec81610fb0565b80516106ec81610fb0565b80604081018310156106ec57600080fd5b60008083601f84011261089e57600080fd5b5081356001600160401b038111156108b557600080fd5b6020830191508360208202830111156108cd57600080fd5b9250929050565b80356106ec81610fc7565b80516106ec81610fc7565b600082601f8301126108fb57600080fd5b815161090e61090982610eff565b610ed9565b9150808252602083016020830185838301111561092a57600080fd5b610935838284610f80565b50505092915050565b80516106ec81610fd0565b80516106ec81610fd9565b60006020828403121561096657600080fd5b60006109728484610865565b949350505050565b60006020828403121561098c57600080fd5b60006109728484610870565b6000604082840312156109aa57600080fd5b6000610972848461087b565b600080600080604085870312156109cc57600080fd5b84356001600160401b038111156109e257600080fd5b6109ee8782880161088c565b945094505060208501356001600160401b03811115610a0c57600080fd5b610a188782880161088c565b95989497509550505050565b600060208284031215610a3657600080fd5b600061097284846108d4565b600080600060608486031215610a5757600080fd5b6000610a6386866108df565b9350506020610a74868287016108df565b9250506040610a8586828701610949565b9150509250925092565b60008060008060808587031215610aa557600080fd5b84516001600160401b03811115610abb57600080fd5b610ac7878288016108ea565b9450506020610ad88782880161093e565b9350506040610ae9878288016108df565b9250506060610afa8782880161093e565b91505092959194509250565b6000610b128383610bc6565b505060200190565b6000610b128383610d91565b610b2f81610f29565b610b398184610f39565b9250610b4482610f26565b8060005b83811015610b72578151610b5c8782610b06565b9650610b6783610f33565b925050600101610b48565b505050505050565b610b8381610f29565b610b8d8184610f39565b9250610b9882610f26565b8060005b83811015610b72578151610bb08782610b1a565b9650610bbb83610f33565b925050600101610b9c565b610bcf81610f52565b82525050565b610bcf81610f26565b610bcf610bea82610f26565b610f26565b610bcf81610f75565b6000610c0382610f2f565b610c0d8185610f39565b9350610c1d818560208601610f80565b9290920192915050565b6000610c34601c83610f39565b7f19457468657265756d205369676e6564204d6573736167653a0a3332000000008152601c0192915050565b6000610c6d601983610f3e565b7f4f6e6c7920676f7665726e6f722063616e206578656375746500000000000000815260200192915050565b6000610ca6603683610f3e565b7f4f6e6c7920707269636573207369676e6564206279207468652076616c6964618152751d1959081cdbdd5c98d948185c9948185b1b1bddd95960521b602082015260400192915050565b6000610cfe601d83610f3e565b7f4b696e64206f662064617461206d757374206265202770726963657327000000815260200192915050565b6000610d37602383610f3e565b7f6d6573736167657320616e64207369676e617475726573206d75737420626520815262313a3160e81b602082015260400192915050565b6000610d7c600683610f39565b6570726963657360d01b815260060192915050565b610bcf81610f63565b610bcf81610f6f565b6000610daf8284610bf8565b9392505050565b6000610dc182610c27565b9150610dcd8284610bde565b50602001919050565b60006106ec82610d6f565b60808101610def8285610b26565b610daf6040830184610b7a565b60408101610e0a8285610bc6565b610daf6020830184610d91565b602081016106ec8284610bd5565b60608101610e338286610bd5565b610e406020830185610d91565b6109726040830184610d91565b60808101610e5b8287610bd5565b610e686020830186610d9a565b610e756040830185610bd5565b610e826060830184610bd5565b95945050505050565b602081016106ec8284610bef565b602080825281016106ec81610c60565b602080825281016106ec81610c99565b602080825281016106ec81610cf1565b602080825281016106ec81610d2a565b6040518181016001600160401b0381118282101715610ef757600080fd5b604052919050565b60006001600160401b03821115610f1557600080fd5b506020601f91909101601f19160190565b90565b50600290565b5190565b60200190565b919050565b90815260200190565b60006106ec82610f57565b151590565b6001600160a01b031690565b6001600160401b031690565b60ff1690565b60006106ec82610f47565b60005b83811015610f9b578181015183820152602001610f83565b83811115610faa576000848401525b50505050565b610fb981610f47565b8114610fc457600080fd5b50565b610fb981610f26565b610fb981610f63565b610fb981610f6f56fea365627a7a72315820fc33acd9b3b78e4e8823b732f1f61fb048c352ed52274194dc76dd4cef37ff8d6c6578706572696d656e74616cf564736f6c63430005100040",
  "source": "\npragma solidity ^0.5.12;\npragma experimental ABIEncoderV2;\n\nimport { IOracleHub } from \"../interfaces/IOracleHub.sol\";\nimport { Module } from \"../shared/Module.sol\";\n\n/**\n * @notice mStable SimpleOracleHub\n * @author Stability Labs, based on compound-finance/open-oracle/DelFiPrice.sol\n */\ncontract SimpleOracleHub is IOracleHub, Module {\n\n    /**\n     * @notice The event emitted when a price is written to storage\n     */\n    event Price(bytes32 symbol, uint64 timestamp, uint64 price);\n\n    /**\n     * @notice The fundamental unit of storage for a reporter source\n     */\n    struct Datum {\n        uint64 timestamp;\n        uint64 value;\n    }\n\n    /**\n     * @notice The most recent authenticated data from all sources\n     * @dev This is private because dynamic mapping keys preclude auto-generated getters.\n     */\n    mapping(bytes32 => Datum) internal data;\n\n    address validatedSource;\n\n    constructor(\n        address _nexus,\n        address _source\n    )\n        Module(_nexus)\n        public\n    {\n        validatedSource = _source;\n    }\n\n    /**\n     * @dev Whitelist a source for use in medianizing\n     * @param _newSource Address of the whitelisted source\n     */\n    function changeSource(address _newSource)\n    external\n    onlyGovernor {\n        validatedSource = _newSource;\n    }\n\n\n    /***************************************\n                    READING\n    ****************************************/\n\n\n    /**\n     * @dev Read a medianized price from our storage\n     * @param _key Key of the asset to read price\n     * @return bool price is fresh\n     * @return uint64 Price as $1 == 1e6\n     */\n    function readPrice(bytes32 _key)\n    external\n    view\n    returns(bool, uint64) {\n        Datum memory m = data[_key];\n        bool isFresh = m.timestamp < now && m.timestamp > (now - 24 hours);\n        return (isFresh, m.value);\n    }\n\n    /**\n     * @dev Read a medianized price from our storage\n     * @param _keys Keys of the asset to read price\n     * @return bool price is fresh\n     * @return uint64 Price as $1 == 1e6\n     */\n    function readPricePair(bytes32[2] calldata _keys)\n    external\n    view\n    returns(bool[2] memory _isFresh, uint64[2] memory _prices) {\n        require(_keys.length == 2,  \"Valid array\");\n        for(uint i = 0; i < 2; i++){\n            Datum memory m = data[_keys[i]];\n            bool isFresh = m.timestamp < now && m.timestamp > (now - 24 hours);\n            (_isFresh[i], _prices[i]) = (isFresh, m.value);\n        }\n    }\n\n\n    /***************************************\n                    WRITING\n    ****************************************/\n\n    /**\n     * @notice Primary entry point to post and recalculate prices\n     * @dev Message must be signed by the validated source in order to be valid\n     * @param messages The messages to post to the oracle\n     * @param signatures The signatures for the corresponding messages\n     */\n    function postPrices(\n        bytes[] calldata messages,\n        bytes[] calldata signatures\n    ) external {\n        require(messages.length == signatures.length, \"messages and signatures must be 1:1\");\n\n        // Post the messages, whatever they are\n        for (uint i = 0; i < messages.length; i++) {\n            put(messages[i], signatures[i]);\n        }\n    }\n\n    /**\n     * @notice Write a bunch of signed datum to the authenticated storage mapping\n     * @param message The payload containing the timestamp, and (key, value) pairs\n     * @param signature The cryptographic signature of the message payload, authorizing the source to write\n     * @return The keys that were written\n     */\n    function put(bytes memory message, bytes memory signature) internal returns (bytes32) {\n        // Recover the source address\n        address _source = source(message, signature);\n\n        require(_source == validatedSource, \"Only prices signed by the validated source are allowed\");\n\n        // Decode the message and check the kind\n        (string memory kind, uint64 timestamp, bytes32 key, uint64 value) = abi.decode(message, (string, uint64, bytes32, uint64));\n        require(keccak256(abi.encodePacked(kind)) == keccak256(abi.encodePacked(\"prices\")), \"Kind of data must be 'prices'\");\n\n        // Only update if newer than stored, according to source\n        Datum storage prior = data[key];\n        if (prior.timestamp < timestamp) {\n            data[key] = Datum(timestamp, value);\n            emit Price(key, timestamp, value);\n        }\n\n        return key;\n    }\n\n    /**\n     * @notice Recovers the source address which signed a message\n     * @dev Comparing to a claimed address would add nothing,\n     *  as the caller could simply perform the recover and claim that address.\n     * @param message The data that was presumably signed\n     * @param signature The fingerprint of the data + private key\n     * @return The source address which signed the message, presumably\n     */\n    function source(bytes memory message, bytes memory signature) internal pure returns (address) {\n        (bytes32 r, bytes32 s, uint8 v) = abi.decode(signature, (bytes32, bytes32, uint8));\n        bytes32 hash = keccak256(abi.encodePacked(\"\\x19Ethereum Signed Message:\\n32\", keccak256(message)));\n        return ecrecover(hash, v, r, s);\n    }\n}",
  "sourcePath": "/Users/james/mstable/mStable-contracts/contracts/oracle-hub/SimpleOracleHub.sol",
  "compiler": {
    "name": "solc",
    "version": "0.5.16+commit.9c3226ce.Emscripten.clang"
  },
  "schemaVersion": "3.0.23",
  "updatedAt": "2020-02-08T14:41:21.418Z",
  "networkType": "ethereum",
  "devdoc": {
    "author": "Stability Labs, based on compound-finance/open-oracle/DelFiPrice.sol",
    "methods": {
      "changeSource(address)": {
        "details": "Whitelist a source for use in medianizing",
        "params": {
          "_newSource": "Address of the whitelisted source"
        }
      },
      "postPrices(bytes[],bytes[])": {
        "details": "Message must be signed by the validated source in order to be valid",
        "params": {
          "messages": "The messages to post to the oracle",
          "signatures": "The signatures for the corresponding messages"
        }
      },
      "readPrice(bytes32)": {
        "details": "Read a medianized price from our storage",
        "params": {
          "_key": "Key of the asset to read price"
        },
        "return": "bool price is freshuint64 Price as $1 == 1e6"
      },
      "readPricePair(bytes32[2])": {
        "details": "Read a medianized price from our storage",
        "params": {
          "_keys": "Keys of the asset to read price"
        },
        "return": "bool price is freshuint64 Price as $1 == 1e6"
      }
    }
  },
  "userdoc": {
    "methods": {
      "postPrices(bytes[],bytes[])": {
        "notice": "Primary entry point to post and recalculate prices"
      }
    },
    "notice": "mStable SimpleOracleHub"
  }
}