{
  "contractName": "SimpleOracleHub",
  "abi": [
    {
      "inputs": [
        {
          "internalType": "address",
          "name": "_nexus",
          "type": "address"
        },
        {
          "internalType": "address",
          "name": "_source",
          "type": "address"
        }
      ],
      "payable": false,
      "stateMutability": "nonpayable",
      "type": "constructor"
    },
    {
      "anonymous": false,
      "inputs": [
        {
          "indexed": false,
          "internalType": "bytes32",
          "name": "symbol",
          "type": "bytes32"
        },
        {
          "indexed": false,
          "internalType": "uint64",
          "name": "timestamp",
          "type": "uint64"
        },
        {
          "indexed": false,
          "internalType": "uint64",
          "name": "price",
          "type": "uint64"
        }
      ],
      "name": "Price",
      "type": "event"
    },
    {
      "constant": true,
      "inputs": [],
      "name": "Key_Governance",
      "outputs": [
        {
          "internalType": "bytes32",
          "name": "",
          "type": "bytes32"
        }
      ],
      "payable": false,
      "stateMutability": "view",
      "type": "function"
    },
    {
      "constant": true,
      "inputs": [],
      "name": "Key_Manager",
      "outputs": [
        {
          "internalType": "bytes32",
          "name": "",
          "type": "bytes32"
        }
      ],
      "payable": false,
      "stateMutability": "view",
      "type": "function"
    },
    {
      "constant": true,
      "inputs": [],
      "name": "Key_Nexus",
      "outputs": [
        {
          "internalType": "bytes32",
          "name": "",
          "type": "bytes32"
        }
      ],
      "payable": false,
      "stateMutability": "view",
      "type": "function"
    },
    {
      "constant": true,
      "inputs": [],
      "name": "Key_OracleHub",
      "outputs": [
        {
          "internalType": "bytes32",
          "name": "",
          "type": "bytes32"
        }
      ],
      "payable": false,
      "stateMutability": "view",
      "type": "function"
    },
    {
      "constant": true,
      "inputs": [],
      "name": "Key_Recollateraliser",
      "outputs": [
        {
          "internalType": "bytes32",
          "name": "",
          "type": "bytes32"
        }
      ],
      "payable": false,
      "stateMutability": "view",
      "type": "function"
    },
    {
      "constant": true,
      "inputs": [],
      "name": "Key_Staking",
      "outputs": [
        {
          "internalType": "bytes32",
          "name": "",
          "type": "bytes32"
        }
      ],
      "payable": false,
      "stateMutability": "view",
      "type": "function"
    },
    {
      "constant": true,
      "inputs": [],
      "name": "Key_Systok",
      "outputs": [
        {
          "internalType": "bytes32",
          "name": "",
          "type": "bytes32"
        }
      ],
      "payable": false,
      "stateMutability": "view",
      "type": "function"
    },
    {
      "constant": true,
      "inputs": [],
      "name": "nexus",
      "outputs": [
        {
          "internalType": "contract INexus",
          "name": "",
          "type": "address"
        }
      ],
      "payable": false,
      "stateMutability": "view",
      "type": "function"
    },
    {
      "constant": false,
      "inputs": [
        {
          "internalType": "address",
          "name": "_newSource",
          "type": "address"
        }
      ],
      "name": "changeSource",
      "outputs": [],
      "payable": false,
      "stateMutability": "nonpayable",
      "type": "function"
    },
    {
      "constant": true,
      "inputs": [
        {
          "internalType": "bytes32",
          "name": "_key",
          "type": "bytes32"
        }
      ],
      "name": "readPrice",
      "outputs": [
        {
          "internalType": "bool",
          "name": "",
          "type": "bool"
        },
        {
          "internalType": "uint64",
          "name": "",
          "type": "uint64"
        }
      ],
      "payable": false,
      "stateMutability": "view",
      "type": "function"
    },
    {
      "constant": true,
      "inputs": [
        {
          "internalType": "bytes32[2]",
          "name": "_keys",
          "type": "bytes32[2]"
        }
      ],
      "name": "readPricePair",
      "outputs": [
        {
          "internalType": "bool[2]",
          "name": "_isFresh",
          "type": "bool[2]"
        },
        {
          "internalType": "uint64[2]",
          "name": "_prices",
          "type": "uint64[2]"
        }
      ],
      "payable": false,
      "stateMutability": "view",
      "type": "function"
    },
    {
      "constant": false,
      "inputs": [
        {
          "internalType": "bytes[]",
          "name": "messages",
          "type": "bytes[]"
        },
        {
          "internalType": "bytes[]",
          "name": "signatures",
          "type": "bytes[]"
        }
      ],
      "name": "postPrices",
      "outputs": [],
      "payable": false,
      "stateMutability": "nonpayable",
      "type": "function"
    }
  ],
  "bytecode": "0x608060405234801561001057600080fd5b50604051620010d3380380620010d383398101604081905261003191610073565b600080546001600160a01b039384166001600160a01b031991821617909155600280549290931691161790556100d5565b805161006d816100be565b92915050565b6000806040838503121561008657600080fd5b60006100928585610062565b92505060206100a385828601610062565b9150509250929050565b60006001600160a01b03821661006d565b6100c7816100ad565b81146100d257600080fd5b50565b610fee80620000e56000396000f3fe608060405234801561001057600080fd5b50600436106100b45760003560e01c8063a3f5c1d211610071578063a3f5c1d21461013e578063ae2efd9114610153578063b97e0ac61461015b578063e551784114610163578063e93a61231461016b578063f3bdedd21461017e576100b4565b806308f4c320146100b95780630aa8d59a146100e35780635b3e92f1146100f85780635eae58b9146101195780637b4aec791461012157806389e95e9614610129575b600080fd5b6100cc6100c73660046109ed565b610186565b6040516100da929190610dc5565b60405180910390f35b6100eb6101fd565b6040516100da9190610de0565b61010b610106366004610961565b61020b565b6040516100da929190610daa565b6100eb610303565b6100eb610310565b61013c61013736600461097f565b61031e565b005b610146610478565b6040516100da9190610e54565b6100eb610487565b6100eb61049e565b6100eb6104ae565b61013c61017936600461091d565b6104ba565b6100eb610514565b6000806101916107f9565b5060008381526001602090815260408083208151808301909252546001600160401b03808216808452600160401b90920416928201929092529190421180156101eb575062015180420382600001516001600160401b0316115b60209092015191935090915050915091565b665374616b696e6760c81b81565b610213610810565b61021b610810565b610229565b60405180910390fd5b60005b60028110156102fd5761023d6107f9565b6001600086846002811061024d57fe5b60209081029190910135825281810192909252604090810160009081208251808401909352546001600160401b03808216808552600160401b909204169383019390935290925090421180156102b4575062015180420382600001516001600160401b0316115b90508082602001518685600281106102c857fe5b602002018686600281106102d857fe5b6001600160401b0390931660209390930201919091529015159052505060010161022c565b50915091565b65537973746f6b60d01b81565b6626b0b730b3b2b960c91b81565b82811461033d5760405162461bcd60e51b815260040161022090610e92565b60005b838110156104715761046885858381811061035757fe5b602002820190508035601e193684900301811261037357600080fd5b909101602081019150356001600160401b0381111561039157600080fd5b368190038213156103a157600080fd5b8080601f0160208091040260200160405190810160405280939291908181526020018383808284376000920191909152508792508691508590508181106103e457fe5b602002820190508035601e193684900301811261040057600080fd5b909101602081019150356001600160401b0381111561041e57600080fd5b3681900382131561042e57600080fd5b8080601f01602080910402602001604051908101604052809392919081815260200183838082843760009201919091525061052592505050565b50600101610340565b5050505050565b6000546001600160a01b031681565b6f2932b1b7b63630ba32b930b634b9b2b960811b81565b6827b930b1b632a43ab160b91b81565b644e6578757360d81b81565b6104c26106c0565b6001600160a01b0316336001600160a01b0316146104f25760405162461bcd60e51b815260040161022090610e62565b600280546001600160a01b0319166001600160a01b0392909216919091179055565b69476f7665726e616e636560b01b81565b600080610532848461074c565b6002549091506001600160a01b038083169116146105625760405162461bcd60e51b815260040161022090610e72565b606060008060008780602001905161057d9190810190610a58565b935093509350935060405160200161059490610d9f565b60405160208183030381529060405280519060200120846040516020016105bb9190610d6c565b60405160208183030381529060405280519060200120146105ee5760405162461bcd60e51b815260040161022090610e82565b600082815260016020526040902080546001600160401b03808616911610156106b1576040805180820182526001600160401b03868116825284811660208084019182526000888152600190915284902092518354915167ffffffffffffffff19909216908316176fffffffffffffffff00000000000000001916600160401b9190921602179055517f8dd2455b6248e19da01f0b45dcf216ab2d16e36ce3108783e1b883d949a00e48906106a890859087908690610dee565b60405180910390a15b50909450505050505b92915050565b60008060009054906101000a90046001600160a01b03166001600160a01b0316630c340a246040518163ffffffff1660e01b815260040160206040518083038186803b15801561070f57600080fd5b505afa158015610723573d6000803e3d6000fd5b505050506040513d601f19601f820116820180604052506107479190810190610943565b905090565b600080600080848060200190516107669190810190610a0b565b925092509250600086805190602001206040516020016107869190610d7f565b604051602081830303815290604052805190602001209050600181838686604051600081526020016040526040516107c19493929190610e16565b6020604051602081039080840390855afa1580156107e3573d6000803e3d6000fd5b5050604051601f19015198975050505050505050565b604080518082019091526000808252602082015290565b60405180604001604052806002906020820280388339509192915050565b80356106ba81610f79565b80516106ba81610f79565b80604081018310156106ba57600080fd5b60008083601f84011261086757600080fd5b5081356001600160401b0381111561087e57600080fd5b60208301915083602082028301111561089657600080fd5b9250929050565b80356106ba81610f90565b80516106ba81610f90565b600082601f8301126108c457600080fd5b81516108d76108d282610ec8565b610ea2565b915080825260208301602083018583830111156108f357600080fd5b6108fe838284610f49565b50505092915050565b80516106ba81610f99565b80516106ba81610fa2565b60006020828403121561092f57600080fd5b600061093b848461082e565b949350505050565b60006020828403121561095557600080fd5b600061093b8484610839565b60006040828403121561097357600080fd5b600061093b8484610844565b6000806000806040858703121561099557600080fd5b84356001600160401b038111156109ab57600080fd5b6109b787828801610855565b945094505060208501356001600160401b038111156109d557600080fd5b6109e187828801610855565b95989497509550505050565b6000602082840312156109ff57600080fd5b600061093b848461089d565b600080600060608486031215610a2057600080fd5b6000610a2c86866108a8565b9350506020610a3d868287016108a8565b9250506040610a4e86828701610912565b9150509250925092565b60008060008060808587031215610a6e57600080fd5b84516001600160401b03811115610a8457600080fd5b610a90878288016108b3565b9450506020610aa187828801610907565b9350506040610ab2878288016108a8565b9250506060610ac387828801610907565b91505092959194509250565b6000610adb8383610b8f565b505060200190565b6000610adb8383610d5a565b610af881610ef2565b610b028184610f02565b9250610b0d82610eef565b8060005b83811015610b3b578151610b258782610acf565b9650610b3083610efc565b925050600101610b11565b505050505050565b610b4c81610ef2565b610b568184610f02565b9250610b6182610eef565b8060005b83811015610b3b578151610b798782610ae3565b9650610b8483610efc565b925050600101610b65565b610b9881610f1b565b82525050565b610b9881610eef565b610b98610bb382610eef565b610eef565b610b9881610f3e565b6000610bcc82610ef8565b610bd68185610f02565b9350610be6818560208601610f49565b9290920192915050565b6000610bfd601c83610f02565b7f19457468657265756d205369676e6564204d6573736167653a0a3332000000008152601c0192915050565b6000610c36601983610f07565b7f4f6e6c7920676f7665726e6f722063616e206578656375746500000000000000815260200192915050565b6000610c6f603683610f07565b7f4f6e6c7920707269636573207369676e6564206279207468652076616c6964618152751d1959081cdbdd5c98d948185c9948185b1b1bddd95960521b602082015260400192915050565b6000610cc7601d83610f07565b7f4b696e64206f662064617461206d757374206265202770726963657327000000815260200192915050565b6000610d00602383610f07565b7f6d6573736167657320616e64207369676e617475726573206d75737420626520815262313a3160e81b602082015260400192915050565b6000610d45600683610f02565b6570726963657360d01b815260060192915050565b610b9881610f2c565b610b9881610f38565b6000610d788284610bc1565b9392505050565b6000610d8a82610bf0565b9150610d968284610ba7565b50602001919050565b60006106ba82610d38565b60808101610db88285610aef565b610d786040830184610b43565b60408101610dd38285610b8f565b610d786020830184610d5a565b602081016106ba8284610b9e565b60608101610dfc8286610b9e565b610e096020830185610d5a565b61093b6040830184610d5a565b60808101610e248287610b9e565b610e316020830186610d63565b610e3e6040830185610b9e565b610e4b6060830184610b9e565b95945050505050565b602081016106ba8284610bb8565b602080825281016106ba81610c29565b602080825281016106ba81610c62565b602080825281016106ba81610cba565b602080825281016106ba81610cf3565b6040518181016001600160401b0381118282101715610ec057600080fd5b604052919050565b60006001600160401b03821115610ede57600080fd5b506020601f91909101601f19160190565b90565b50600290565b5190565b60200190565b919050565b90815260200190565b60006106ba82610f20565b151590565b6001600160a01b031690565b6001600160401b031690565b60ff1690565b60006106ba82610f10565b60005b83811015610f64578181015183820152602001610f4c565b83811115610f73576000848401525b50505050565b610f8281610f10565b8114610f8d57600080fd5b50565b610f8281610eef565b610f8281610f2c565b610f8281610f3856fea365627a7a7231582069d041c497b0021b994d43dd73782b0687ca768916e59db1399f34feca45724a6c6578706572696d656e74616cf564736f6c63430005100040",
  "source": "\npragma solidity ^0.5.12;\npragma experimental ABIEncoderV2;\n\nimport { IOracleHub } from \"../interfaces/IOracleHub.sol\";\nimport { Module } from \"../shared/Module.sol\";\n\n/**\n * @notice mStable SimpleOracleHub\n * @author Stability Labs, based on compound-finance/open-oracle/DelFiPrice.sol\n */\ncontract SimpleOracleHub is IOracleHub, Module {\n\n    /**\n     * @notice The event emitted when a price is written to storage\n     */\n    event Price(bytes32 symbol, uint64 timestamp, uint64 price);\n\n    /**\n     * @notice The fundamental unit of storage for a reporter source\n     */\n    struct Datum {\n        uint64 timestamp;\n        uint64 value;\n    }\n\n    /**\n     * @notice The most recent authenticated data from all sources\n     * @dev This is private because dynamic mapping keys preclude auto-generated getters.\n     */\n    mapping(bytes32 => Datum) internal data;\n\n    address validatedSource;\n\n    constructor(\n        address _nexus,\n        address _source\n    )\n        Module(_nexus)\n        public\n    {\n        validatedSource = _source;\n    }\n\n    /**\n     * @dev Whitelist a source for use in medianizing\n     * @param _newSource Address of the whitelisted source\n     */\n    function changeSource(address _newSource)\n    external\n    onlyGovernor {\n        validatedSource = _newSource;\n    }\n\n\n    /***************************************\n                    READING\n    ****************************************/\n\n\n    /**\n     * @dev Read a medianized price from our storage\n     * @param _key Key of the asset to read price\n     * @return bool price is fresh\n     * @return uint64 Price as $1 == 1e6\n     */\n    function readPrice(bytes32 _key)\n    external\n    view\n    returns(bool, uint64) {\n        Datum memory m = data[_key];\n        bool isFresh = m.timestamp < now && m.timestamp > (now - 24 hours);\n        return (isFresh, m.value);\n    }\n\n    /**\n     * @dev Read a medianized price from our storage\n     * @param _keys Keys of the asset to read price\n     * @return bool price is fresh\n     * @return uint64 Price as $1 == 1e6\n     */\n    function readPricePair(bytes32[2] calldata _keys)\n    external\n    view\n    returns(bool[2] memory _isFresh, uint64[2] memory _prices) {\n        require(_keys.length == 2,  \"Valid array\");\n        for(uint i = 0; i < 2; i++){\n            Datum memory m = data[_keys[i]];\n            bool isFresh = m.timestamp < now && m.timestamp > (now - 24 hours);\n            (_isFresh[i], _prices[i]) = (isFresh, m.value);\n        }\n    }\n\n\n    /***************************************\n                    WRITING\n    ****************************************/\n\n    /**\n     * @notice Primary entry point to post and recalculate prices\n     * @dev Message must be signed by the validated source in order to be valid\n     * @param messages The messages to post to the oracle\n     * @param signatures The signatures for the corresponding messages\n     */\n    function postPrices(\n        bytes[] calldata messages,\n        bytes[] calldata signatures\n    ) external {\n        require(messages.length == signatures.length, \"messages and signatures must be 1:1\");\n\n        // Post the messages, whatever they are\n        for (uint i = 0; i < messages.length; i++) {\n            put(messages[i], signatures[i]);\n        }\n    }\n\n    /**\n     * @notice Write a bunch of signed datum to the authenticated storage mapping\n     * @param message The payload containing the timestamp, and (key, value) pairs\n     * @param signature The cryptographic signature of the message payload, authorizing the source to write\n     * @return The keys that were written\n     */\n    function put(bytes memory message, bytes memory signature) internal returns (bytes32) {\n        // Recover the source address\n        address _source = source(message, signature);\n\n        require(_source == validatedSource, \"Only prices signed by the validated source are allowed\");\n\n        // Decode the message and check the kind\n        (string memory kind, uint64 timestamp, bytes32 key, uint64 value) = abi.decode(message, (string, uint64, bytes32, uint64));\n        require(keccak256(abi.encodePacked(kind)) == keccak256(abi.encodePacked(\"prices\")), \"Kind of data must be 'prices'\");\n\n        // Only update if newer than stored, according to source\n        Datum storage prior = data[key];\n        if (prior.timestamp < timestamp) {\n            data[key] = Datum(timestamp, value);\n            emit Price(key, timestamp, value);\n        }\n\n        return key;\n    }\n\n    /**\n     * @notice Recovers the source address which signed a message\n     * @dev Comparing to a claimed address would add nothing,\n     *  as the caller could simply perform the recover and claim that address.\n     * @param message The data that was presumably signed\n     * @param signature The fingerprint of the data + private key\n     * @return The source address which signed the message, presumably\n     */\n    function source(bytes memory message, bytes memory signature) internal pure returns (address) {\n        (bytes32 r, bytes32 s, uint8 v) = abi.decode(signature, (bytes32, bytes32, uint8));\n        bytes32 hash = keccak256(abi.encodePacked(\"\\x19Ethereum Signed Message:\\n32\", keccak256(message)));\n        return ecrecover(hash, v, r, s);\n    }\n}",
  "sourcePath": "/home/alex/projects/stability-labs/mstable/mstable-contracts/contracts/oracle-hub/SimpleOracleHub.sol",
  "compiler": {
    "name": "solc",
    "version": "0.5.16+commit.9c3226ce.Emscripten.clang"
  },
  "schemaVersion": "3.0.23",
  "updatedAt": "2020-02-17T19:56:32.888Z",
  "devdoc": {
    "author": "Stability Labs, based on compound-finance/open-oracle/DelFiPrice.sol",
    "methods": {
      "changeSource(address)": {
        "details": "Whitelist a source for use in medianizing",
        "params": {
          "_newSource": "Address of the whitelisted source"
        }
      },
      "postPrices(bytes[],bytes[])": {
        "details": "Message must be signed by the validated source in order to be valid",
        "params": {
          "messages": "The messages to post to the oracle",
          "signatures": "The signatures for the corresponding messages"
        }
      },
      "readPrice(bytes32)": {
        "details": "Read a medianized price from our storage",
        "params": {
          "_key": "Key of the asset to read price"
        },
        "return": "bool price is freshuint64 Price as $1 == 1e6"
      },
      "readPricePair(bytes32[2])": {
        "details": "Read a medianized price from our storage",
        "params": {
          "_keys": "Keys of the asset to read price"
        },
        "return": "bool price is freshuint64 Price as $1 == 1e6"
      }
    }
  },
  "userdoc": {
    "methods": {
      "postPrices(bytes[],bytes[])": {
        "notice": "Primary entry point to post and recalculate prices"
      }
    },
    "notice": "mStable SimpleOracleHub"
  }
}