{
  "contractName": "SimpleOracleHubMock",
  "abi": [
    {
      "inputs": [
        {
          "internalType": "address",
          "name": "_nexus",
          "type": "address"
        },
        {
          "internalType": "address",
          "name": "_source",
          "type": "address"
        }
      ],
      "payable": false,
      "stateMutability": "nonpayable",
      "type": "constructor"
    },
    {
      "anonymous": false,
      "inputs": [
        {
          "indexed": false,
          "internalType": "bytes32",
          "name": "symbol",
          "type": "bytes32"
        },
        {
          "indexed": false,
          "internalType": "uint64",
          "name": "timestamp",
          "type": "uint64"
        },
        {
          "indexed": false,
          "internalType": "uint64",
          "name": "price",
          "type": "uint64"
        }
      ],
      "name": "Price",
      "type": "event"
    },
    {
      "constant": true,
      "inputs": [],
      "name": "Key_Governance",
      "outputs": [
        {
          "internalType": "bytes32",
          "name": "",
          "type": "bytes32"
        }
      ],
      "payable": false,
      "stateMutability": "view",
      "type": "function"
    },
    {
      "constant": true,
      "inputs": [],
      "name": "Key_Manager",
      "outputs": [
        {
          "internalType": "bytes32",
          "name": "",
          "type": "bytes32"
        }
      ],
      "payable": false,
      "stateMutability": "view",
      "type": "function"
    },
    {
      "constant": true,
      "inputs": [],
      "name": "Key_Nexus",
      "outputs": [
        {
          "internalType": "bytes32",
          "name": "",
          "type": "bytes32"
        }
      ],
      "payable": false,
      "stateMutability": "view",
      "type": "function"
    },
    {
      "constant": true,
      "inputs": [],
      "name": "Key_OracleHub",
      "outputs": [
        {
          "internalType": "bytes32",
          "name": "",
          "type": "bytes32"
        }
      ],
      "payable": false,
      "stateMutability": "view",
      "type": "function"
    },
    {
      "constant": true,
      "inputs": [],
      "name": "Key_Recollateraliser",
      "outputs": [
        {
          "internalType": "bytes32",
          "name": "",
          "type": "bytes32"
        }
      ],
      "payable": false,
      "stateMutability": "view",
      "type": "function"
    },
    {
      "constant": true,
      "inputs": [],
      "name": "Key_Staking",
      "outputs": [
        {
          "internalType": "bytes32",
          "name": "",
          "type": "bytes32"
        }
      ],
      "payable": false,
      "stateMutability": "view",
      "type": "function"
    },
    {
      "constant": true,
      "inputs": [],
      "name": "Key_Systok",
      "outputs": [
        {
          "internalType": "bytes32",
          "name": "",
          "type": "bytes32"
        }
      ],
      "payable": false,
      "stateMutability": "view",
      "type": "function"
    },
    {
      "constant": false,
      "inputs": [
        {
          "internalType": "address",
          "name": "_newSource",
          "type": "address"
        }
      ],
      "name": "changeSource",
      "outputs": [],
      "payable": false,
      "stateMutability": "nonpayable",
      "type": "function"
    },
    {
      "constant": true,
      "inputs": [],
      "name": "nexus",
      "outputs": [
        {
          "internalType": "contract INexus",
          "name": "",
          "type": "address"
        }
      ],
      "payable": false,
      "stateMutability": "view",
      "type": "function"
    },
    {
      "constant": false,
      "inputs": [
        {
          "internalType": "bytes[]",
          "name": "messages",
          "type": "bytes[]"
        },
        {
          "internalType": "bytes[]",
          "name": "signatures",
          "type": "bytes[]"
        }
      ],
      "name": "postPrices",
      "outputs": [],
      "payable": false,
      "stateMutability": "nonpayable",
      "type": "function"
    },
    {
      "constant": true,
      "inputs": [
        {
          "internalType": "bytes32",
          "name": "_key",
          "type": "bytes32"
        }
      ],
      "name": "readPrice",
      "outputs": [
        {
          "internalType": "bool",
          "name": "",
          "type": "bool"
        },
        {
          "internalType": "uint64",
          "name": "",
          "type": "uint64"
        }
      ],
      "payable": false,
      "stateMutability": "view",
      "type": "function"
    },
    {
      "constant": true,
      "inputs": [
        {
          "internalType": "bytes32[2]",
          "name": "_keys",
          "type": "bytes32[2]"
        }
      ],
      "name": "readPricePair",
      "outputs": [
        {
          "internalType": "bool[2]",
          "name": "_isFresh",
          "type": "bool[2]"
        },
        {
          "internalType": "uint64[2]",
          "name": "_prices",
          "type": "uint64[2]"
        }
      ],
      "payable": false,
      "stateMutability": "view",
      "type": "function"
    },
    {
      "constant": false,
      "inputs": [
        {
          "internalType": "uint64[]",
          "name": "values",
          "type": "uint64[]"
        },
        {
          "internalType": "uint64[]",
          "name": "timestamps",
          "type": "uint64[]"
        },
        {
          "internalType": "bytes32[]",
          "name": "symbols",
          "type": "bytes32[]"
        }
      ],
      "name": "addMockPrices",
      "outputs": [],
      "payable": false,
      "stateMutability": "nonpayable",
      "type": "function"
    }
  ],
  "bytecode": "0x60806040523480156200001157600080fd5b506040516200132938038062001329833981016040819052620000349162000079565b600080546001600160a01b039384166001600160a01b03199182161790915560028054929093169116179055620000e4565b80516200007381620000ca565b92915050565b600080604083850312156200008d57600080fd5b60006200009b858562000066565b9250506020620000ae8582860162000066565b9150509250929050565b60006001600160a01b03821662000073565b620000d581620000b8565b8114620000e157600080fd5b50565b61123580620000f46000396000f3fe608060405234801561001057600080fd5b50600436106100cf5760003560e01c8063a3f5c1d21161008c578063c7c9f31211610066578063c7c9f3121461017e578063e551784114610191578063e93a612314610199578063f3bdedd2146101ac576100cf565b8063a3f5c1d214610159578063ae2efd911461016e578063b97e0ac614610176576100cf565b806308f4c320146100d45780630aa8d59a146100fe5780635b3e92f1146101135780635eae58b9146101345780637b4aec791461013c57806389e95e9614610144575b600080fd5b6100e76100e2366004610bcd565b6101b4565b6040516100f5929190610ffc565b60405180910390f35b61010661022b565b6040516100f59190611017565b610126610121366004610aa3565b610239565b6040516100f5929190610fe1565b610106610331565b61010661033e565b610157610152366004610ac1565b61034c565b005b6101616104a6565b6040516100f5919061108b565b6101066104b5565b6101066104cc565b61015761018c366004610b2f565b6104dc565b6101066105ea565b6101576101a7366004610a5f565b6105f6565b610106610650565b6000806101bf610930565b5060008381526001602090815260408083208151808301909252546001600160401b03808216808452600160401b9092041692820192909252919042118015610219575062015180420382600001516001600160401b0316115b60209092015191935090915050915091565b665374616b696e6760c81b81565b610241610947565b610249610947565b610257565b60405180910390fd5b60005b600281101561032b5761026b610930565b6001600086846002811061027b57fe5b60209081029190910135825281810192909252604090810160009081208251808401909352546001600160401b03808216808552600160401b909204169383019390935290925090421180156102e2575062015180420382600001516001600160401b0316115b90508082602001518685600281106102f657fe5b6020020186866002811061030657fe5b6001600160401b0390931660209390930201919091529015159052505060010161025a565b50915091565b65537973746f6b60d01b81565b6626b0b730b3b2b960c91b81565b82811461036b5760405162461bcd60e51b815260040161024e906110d9565b60005b8381101561049f5761049685858381811061038557fe5b602002820190508035601e19368490030181126103a157600080fd5b909101602081019150356001600160401b038111156103bf57600080fd5b368190038213156103cf57600080fd5b8080601f01602080910402602001604051908101604052809392919081815260200183838082843760009201919091525087925086915085905081811061041257fe5b602002820190508035601e193684900301811261042e57600080fd5b909101602081019150356001600160401b0381111561044c57600080fd5b3681900382131561045c57600080fd5b8080601f01602080910402602001604051908101604052809392919081815260200183838082843760009201919091525061066192505050565b5060010161036e565b5050505050565b6000546001600160a01b031681565b6f2932b1b7b63630ba32b930b634b9b2b960811b81565b6827b930b1b632a43ab160b91b81565b8481146104fb5760405162461bcd60e51b815260040161024e906110b9565b60005b858110156105e157604051806040016040528086868481811061051d57fe5b90506020020160206105329190810190610caf565b6001600160401b0316815260200188888481811061054c57fe5b90506020020160206105619190810190610caf565b6001600160401b031690526001600085858581811061057c57fe5b60209081029290920135835250818101929092526040016000208251815493909201516001600160401b03908116600160401b0267ffffffffffffffff60401b199190931667ffffffffffffffff1990941693909317929092161790556001016104fe565b50505050505050565b644e6578757360d81b81565b6105fe6107f7565b6001600160a01b0316336001600160a01b03161461062e5760405162461bcd60e51b815260040161024e90611099565b600280546001600160a01b0319166001600160a01b0392909216919091179055565b69476f7665726e616e636560b01b81565b60008061066e8484610883565b6002549091506001600160a01b0380831691161461069e5760405162461bcd60e51b815260040161024e906110a9565b60606000806000878060200190516106b99190810190610c38565b93509350935093506040516020016106d090610fd6565b60405160208183030381529060405280519060200120846040516020016106f79190610fa3565b604051602081830303815290604052805190602001201461072a5760405162461bcd60e51b815260040161024e906110c9565b600082815260016020526040902080546001600160401b03808616911610156107e8576040805180820182526001600160401b03868116825284811660208084019182526000888152600190915284902092518354915167ffffffffffffffff199092169083161767ffffffffffffffff60401b1916600160401b9190921602179055517f8dd2455b6248e19da01f0b45dcf216ab2d16e36ce3108783e1b883d949a00e48906107df90859087908690611025565b60405180910390a15b50909450505050505b92915050565b60008060009054906101000a90046001600160a01b03166001600160a01b0316630c340a246040518163ffffffff1660e01b815260040160206040518083038186803b15801561084657600080fd5b505afa15801561085a573d6000803e3d6000fd5b505050506040513d601f19601f8201168201806040525061087e9190810190610a85565b905090565b6000806000808480602001905161089d9190810190610beb565b925092509250600086805190602001206040516020016108bd9190610fb6565b604051602081830303815290604052805190602001209050600181838686604051600081526020016040526040516108f8949392919061104d565b6020604051602081039080840390855afa15801561091a573d6000803e3d6000fd5b5050604051601f19015198975050505050505050565b604080518082019091526000808252602082015290565b60405180604001604052806002906020820280388339509192915050565b80356107f1816111c0565b80516107f1816111c0565b80604081018310156107f157600080fd5b60008083601f84011261099e57600080fd5b5081356001600160401b038111156109b557600080fd5b6020830191508360208202830111156109cd57600080fd5b9250929050565b80356107f1816111d7565b80516107f1816111d7565b600082601f8301126109fb57600080fd5b8151610a0e610a098261110f565b6110e9565b91508082526020830160208301858383011115610a2a57600080fd5b610a35838284611190565b50505092915050565b80356107f1816111e0565b80516107f1816111e0565b80516107f1816111e9565b600060208284031215610a7157600080fd5b6000610a7d8484610965565b949350505050565b600060208284031215610a9757600080fd5b6000610a7d8484610970565b600060408284031215610ab557600080fd5b6000610a7d848461097b565b60008060008060408587031215610ad757600080fd5b84356001600160401b03811115610aed57600080fd5b610af98782880161098c565b945094505060208501356001600160401b03811115610b1757600080fd5b610b238782880161098c565b95989497509550505050565b60008060008060008060608789031215610b4857600080fd5b86356001600160401b03811115610b5e57600080fd5b610b6a89828a0161098c565b965096505060208701356001600160401b03811115610b8857600080fd5b610b9489828a0161098c565b945094505060408701356001600160401b03811115610bb257600080fd5b610bbe89828a0161098c565b92509250509295509295509295565b600060208284031215610bdf57600080fd5b6000610a7d84846109d4565b600080600060608486031215610c0057600080fd5b6000610c0c86866109df565b9350506020610c1d868287016109df565b9250506040610c2e86828701610a54565b9150509250925092565b60008060008060808587031215610c4e57600080fd5b84516001600160401b03811115610c6457600080fd5b610c70878288016109ea565b9450506020610c8187828801610a49565b9350506040610c92878288016109df565b9250506060610ca387828801610a49565b91505092959194509250565b600060208284031215610cc157600080fd5b6000610a7d8484610a3e565b6000610cd98383610d8d565b505060200190565b6000610cd98383610f91565b610cf681611139565b610d008184611149565b9250610d0b82611136565b8060005b83811015610d39578151610d238782610ccd565b9650610d2e83611143565b925050600101610d0f565b505050505050565b610d4a81611139565b610d548184611149565b9250610d5f82611136565b8060005b83811015610d39578151610d778782610ce1565b9650610d8283611143565b925050600101610d63565b610d9681611162565b82525050565b610d9681611136565b610d96610db182611136565b611136565b610d9681611185565b6000610dca8261113f565b610dd48185611149565b9350610de4818560208601611190565b9290920192915050565b6000610dfb601c83611149565b7f19457468657265756d205369676e6564204d6573736167653a0a3332000000008152601c0192915050565b6000610e3460198361114e565b7f4f6e6c7920676f7665726e6f722063616e206578656375746500000000000000815260200192915050565b6000610e6d60368361114e565b7f4f6e6c7920707269636573207369676e6564206279207468652076616c6964618152751d1959081cdbdd5c98d948185c9948185b1b1bddd95960521b602082015260400192915050565b6000610ec5601e8361114e565b7f76616c75657320616e642073796d626f6c73206d75737420626520313a310000815260200192915050565b6000610efe601d8361114e565b7f4b696e64206f662064617461206d757374206265202770726963657327000000815260200192915050565b6000610f3760238361114e565b7f6d6573736167657320616e64207369676e617475726573206d75737420626520815262313a3160e81b602082015260400192915050565b6000610f7c600683611149565b6570726963657360d01b815260060192915050565b610d9681611173565b610d968161117f565b6000610faf8284610dbf565b9392505050565b6000610fc182610dee565b9150610fcd8284610da5565b50602001919050565b60006107f182610f6f565b60808101610fef8285610ced565b610faf6040830184610d41565b6040810161100a8285610d8d565b610faf6020830184610f91565b602081016107f18284610d9c565b606081016110338286610d9c565b6110406020830185610f91565b610a7d6040830184610f91565b6080810161105b8287610d9c565b6110686020830186610f9a565b6110756040830185610d9c565b6110826060830184610d9c565b95945050505050565b602081016107f18284610db6565b602080825281016107f181610e27565b602080825281016107f181610e60565b602080825281016107f181610eb8565b602080825281016107f181610ef1565b602080825281016107f181610f2a565b6040518181016001600160401b038111828210171561110757600080fd5b604052919050565b60006001600160401b0382111561112557600080fd5b506020601f91909101601f19160190565b90565b50600290565b5190565b60200190565b919050565b90815260200190565b60006107f182611167565b151590565b6001600160a01b031690565b6001600160401b031690565b60ff1690565b60006107f182611157565b60005b838110156111ab578181015183820152602001611193565b838111156111ba576000848401525b50505050565b6111c981611157565b81146111d457600080fd5b50565b6111c981611136565b6111c981611173565b6111c98161117f56fea365627a7a723158203a6d6aaf10e42a61b52035d19cf72ce9ebbde13152fab236e9e617bb80074eaa6c6578706572696d656e74616cf564736f6c63430005100040",
  "source": "\npragma solidity ^0.5.12;\npragma experimental ABIEncoderV2;\n\nimport { SimpleOracleHub } from \"../../oracle-hub/SimpleOracleHub.sol\";\n\n/**\n * @title OracleHubMock allows us to put custom price data into the Oracle without signing messages\n * @notice Values stored in this contract should represent a relative price to pegged asset\n * @author Stability Labs\n */\ncontract SimpleOracleHubMock is SimpleOracleHub {\n\n\n    constructor(\n        address _nexus,\n        address _source\n    )\n        SimpleOracleHub(\n            _nexus,\n            _source\n        )\n        public\n    {}\n\n\n    function addMockPrices(\n        uint64[] calldata values,\n        uint64[] calldata timestamps,\n        bytes32[] calldata symbols\n    ) external {\n        require(values.length == symbols.length, \"values and symbols must be 1:1\");\n\n        // Recalculate the asset prices for the symbols to update\n        for (uint i = 0; i < values.length; i++) {\n            data[symbols[i]] = Datum(timestamps[i], values[i]);\n        }\n    }\n\n}\n",
  "sourcePath": "/home/alex/projects/stability-labs/mstable/mstable-contracts/contracts/z_mocks/oracles/SimpleOracleHubMock.sol",
  "compiler": {
    "name": "solc",
    "version": "0.5.16+commit.9c3226ce.Emscripten.clang"
  },
  "schemaVersion": "3.0.23",
  "updatedAt": "2020-02-17T19:56:32.959Z",
  "devdoc": {
    "author": "Stability Labs",
    "methods": {
      "changeSource(address)": {
        "details": "Whitelist a source for use in medianizing",
        "params": {
          "_newSource": "Address of the whitelisted source"
        }
      },
      "postPrices(bytes[],bytes[])": {
        "details": "Message must be signed by the validated source in order to be valid",
        "params": {
          "messages": "The messages to post to the oracle",
          "signatures": "The signatures for the corresponding messages"
        }
      },
      "readPrice(bytes32)": {
        "details": "Read a medianized price from our storage",
        "params": {
          "_key": "Key of the asset to read price"
        },
        "return": "bool price is freshuint64 Price as $1 == 1e6"
      },
      "readPricePair(bytes32[2])": {
        "details": "Read a medianized price from our storage",
        "params": {
          "_keys": "Keys of the asset to read price"
        },
        "return": "bool price is freshuint64 Price as $1 == 1e6"
      }
    },
    "title": "OracleHubMock allows us to put custom price data into the Oracle without signing messages"
  },
  "userdoc": {
    "methods": {
      "postPrices(bytes[],bytes[])": {
        "notice": "Primary entry point to post and recalculate prices"
      }
    },
    "notice": "Values stored in this contract should represent a relative price to pegged asset"
  }
}