{
  "contractName": "SystokMock",
  "abi": [
    {
      "inputs": [
        {
          "internalType": "contract INexus",
          "name": "_nexus",
          "type": "address"
        },
        {
          "internalType": "address",
          "name": "_initialRecipient",
          "type": "address"
        }
      ],
      "payable": false,
      "stateMutability": "nonpayable",
      "type": "constructor"
    },
    {
      "anonymous": false,
      "inputs": [
        {
          "indexed": true,
          "internalType": "address",
          "name": "owner",
          "type": "address"
        },
        {
          "indexed": true,
          "internalType": "address",
          "name": "spender",
          "type": "address"
        },
        {
          "indexed": false,
          "internalType": "uint256",
          "name": "value",
          "type": "uint256"
        }
      ],
      "name": "Approval",
      "type": "event"
    },
    {
      "anonymous": false,
      "inputs": [
        {
          "indexed": true,
          "internalType": "address",
          "name": "account",
          "type": "address"
        }
      ],
      "name": "MinterAdded",
      "type": "event"
    },
    {
      "anonymous": false,
      "inputs": [
        {
          "indexed": true,
          "internalType": "address",
          "name": "account",
          "type": "address"
        }
      ],
      "name": "MinterRemoved",
      "type": "event"
    },
    {
      "anonymous": false,
      "inputs": [
        {
          "indexed": true,
          "internalType": "bytes32",
          "name": "key",
          "type": "bytes32"
        },
        {
          "indexed": false,
          "internalType": "address",
          "name": "newAddress",
          "type": "address"
        }
      ],
      "name": "RecolUpdated",
      "type": "event"
    },
    {
      "anonymous": false,
      "inputs": [
        {
          "indexed": true,
          "internalType": "address",
          "name": "from",
          "type": "address"
        },
        {
          "indexed": true,
          "internalType": "address",
          "name": "to",
          "type": "address"
        },
        {
          "indexed": false,
          "internalType": "uint256",
          "name": "value",
          "type": "uint256"
        }
      ],
      "name": "Transfer",
      "type": "event"
    },
    {
      "constant": true,
      "inputs": [],
      "name": "Key_Governance",
      "outputs": [
        {
          "internalType": "bytes32",
          "name": "",
          "type": "bytes32"
        }
      ],
      "payable": false,
      "stateMutability": "view",
      "type": "function"
    },
    {
      "constant": true,
      "inputs": [],
      "name": "Key_Manager",
      "outputs": [
        {
          "internalType": "bytes32",
          "name": "",
          "type": "bytes32"
        }
      ],
      "payable": false,
      "stateMutability": "view",
      "type": "function"
    },
    {
      "constant": true,
      "inputs": [],
      "name": "Key_Nexus",
      "outputs": [
        {
          "internalType": "bytes32",
          "name": "",
          "type": "bytes32"
        }
      ],
      "payable": false,
      "stateMutability": "view",
      "type": "function"
    },
    {
      "constant": true,
      "inputs": [],
      "name": "Key_OracleHub",
      "outputs": [
        {
          "internalType": "bytes32",
          "name": "",
          "type": "bytes32"
        }
      ],
      "payable": false,
      "stateMutability": "view",
      "type": "function"
    },
    {
      "constant": true,
      "inputs": [],
      "name": "Key_Recollateraliser",
      "outputs": [
        {
          "internalType": "bytes32",
          "name": "",
          "type": "bytes32"
        }
      ],
      "payable": false,
      "stateMutability": "view",
      "type": "function"
    },
    {
      "constant": true,
      "inputs": [],
      "name": "Key_Systok",
      "outputs": [
        {
          "internalType": "bytes32",
          "name": "",
          "type": "bytes32"
        }
      ],
      "payable": false,
      "stateMutability": "view",
      "type": "function"
    },
    {
      "constant": true,
      "inputs": [
        {
          "internalType": "address",
          "name": "owner",
          "type": "address"
        },
        {
          "internalType": "address",
          "name": "spender",
          "type": "address"
        }
      ],
      "name": "allowance",
      "outputs": [
        {
          "internalType": "uint256",
          "name": "",
          "type": "uint256"
        }
      ],
      "payable": false,
      "stateMutability": "view",
      "type": "function"
    },
    {
      "constant": false,
      "inputs": [
        {
          "internalType": "address",
          "name": "spender",
          "type": "address"
        },
        {
          "internalType": "uint256",
          "name": "value",
          "type": "uint256"
        }
      ],
      "name": "approve",
      "outputs": [
        {
          "internalType": "bool",
          "name": "",
          "type": "bool"
        }
      ],
      "payable": false,
      "stateMutability": "nonpayable",
      "type": "function"
    },
    {
      "constant": true,
      "inputs": [
        {
          "internalType": "address",
          "name": "account",
          "type": "address"
        }
      ],
      "name": "balanceOf",
      "outputs": [
        {
          "internalType": "uint256",
          "name": "",
          "type": "uint256"
        }
      ],
      "payable": false,
      "stateMutability": "view",
      "type": "function"
    },
    {
      "constant": false,
      "inputs": [
        {
          "internalType": "uint256",
          "name": "amount",
          "type": "uint256"
        }
      ],
      "name": "burn",
      "outputs": [],
      "payable": false,
      "stateMutability": "nonpayable",
      "type": "function"
    },
    {
      "constant": false,
      "inputs": [
        {
          "internalType": "address",
          "name": "account",
          "type": "address"
        },
        {
          "internalType": "uint256",
          "name": "amount",
          "type": "uint256"
        }
      ],
      "name": "burnFrom",
      "outputs": [],
      "payable": false,
      "stateMutability": "nonpayable",
      "type": "function"
    },
    {
      "constant": true,
      "inputs": [],
      "name": "decimals",
      "outputs": [
        {
          "internalType": "uint8",
          "name": "",
          "type": "uint8"
        }
      ],
      "payable": false,
      "stateMutability": "view",
      "type": "function"
    },
    {
      "constant": false,
      "inputs": [
        {
          "internalType": "address",
          "name": "spender",
          "type": "address"
        },
        {
          "internalType": "uint256",
          "name": "subtractedValue",
          "type": "uint256"
        }
      ],
      "name": "decreaseAllowance",
      "outputs": [
        {
          "internalType": "bool",
          "name": "",
          "type": "bool"
        }
      ],
      "payable": false,
      "stateMutability": "nonpayable",
      "type": "function"
    },
    {
      "constant": false,
      "inputs": [
        {
          "internalType": "address",
          "name": "spender",
          "type": "address"
        },
        {
          "internalType": "uint256",
          "name": "addedValue",
          "type": "uint256"
        }
      ],
      "name": "increaseAllowance",
      "outputs": [
        {
          "internalType": "bool",
          "name": "",
          "type": "bool"
        }
      ],
      "payable": false,
      "stateMutability": "nonpayable",
      "type": "function"
    },
    {
      "constant": true,
      "inputs": [
        {
          "internalType": "address",
          "name": "account",
          "type": "address"
        }
      ],
      "name": "isMinter",
      "outputs": [
        {
          "internalType": "bool",
          "name": "",
          "type": "bool"
        }
      ],
      "payable": false,
      "stateMutability": "view",
      "type": "function"
    },
    {
      "constant": false,
      "inputs": [
        {
          "internalType": "address",
          "name": "account",
          "type": "address"
        },
        {
          "internalType": "uint256",
          "name": "amount",
          "type": "uint256"
        }
      ],
      "name": "mint",
      "outputs": [
        {
          "internalType": "bool",
          "name": "",
          "type": "bool"
        }
      ],
      "payable": false,
      "stateMutability": "nonpayable",
      "type": "function"
    },
    {
      "constant": true,
      "inputs": [],
      "name": "name",
      "outputs": [
        {
          "internalType": "string",
          "name": "",
          "type": "string"
        }
      ],
      "payable": false,
      "stateMutability": "view",
      "type": "function"
    },
    {
      "constant": true,
      "inputs": [],
      "name": "symbol",
      "outputs": [
        {
          "internalType": "string",
          "name": "",
          "type": "string"
        }
      ],
      "payable": false,
      "stateMutability": "view",
      "type": "function"
    },
    {
      "constant": true,
      "inputs": [],
      "name": "totalSupply",
      "outputs": [
        {
          "internalType": "uint256",
          "name": "",
          "type": "uint256"
        }
      ],
      "payable": false,
      "stateMutability": "view",
      "type": "function"
    },
    {
      "constant": false,
      "inputs": [
        {
          "internalType": "address",
          "name": "recipient",
          "type": "address"
        },
        {
          "internalType": "uint256",
          "name": "amount",
          "type": "uint256"
        }
      ],
      "name": "transfer",
      "outputs": [
        {
          "internalType": "bool",
          "name": "",
          "type": "bool"
        }
      ],
      "payable": false,
      "stateMutability": "nonpayable",
      "type": "function"
    },
    {
      "constant": false,
      "inputs": [
        {
          "internalType": "address",
          "name": "sender",
          "type": "address"
        },
        {
          "internalType": "address",
          "name": "recipient",
          "type": "address"
        },
        {
          "internalType": "uint256",
          "name": "amount",
          "type": "uint256"
        }
      ],
      "name": "transferFrom",
      "outputs": [
        {
          "internalType": "bool",
          "name": "",
          "type": "bool"
        }
      ],
      "payable": false,
      "stateMutability": "nonpayable",
      "type": "function"
    },
    {
      "constant": false,
      "inputs": [
        {
          "internalType": "bytes32",
          "name": "_key",
          "type": "bytes32"
        },
        {
          "internalType": "address",
          "name": "_newAddress",
          "type": "address"
        }
      ],
      "name": "updateModule",
      "outputs": [],
      "payable": false,
      "stateMutability": "nonpayable",
      "type": "function"
    }
  ],
  "bytecode": "0x60806040523480156200001157600080fd5b506040516200170938038062001709833981810160405260408110156200003757600080fd5b508051602091820151604080518082018252600c81526b6d537461626c65204d65746160a01b818601528151808301835260038152624d544160e81b95810195909552600080546001600160a01b0319166001600160a01b0386169081178255835163b2494df360e01b81529351959694958795879586959491936012938993926060928392909163b2494df3916004808301928892919082900301818387803b158015620000e557600080fd5b505af1158015620000fa573d6000803e3d6000fd5b505050506040513d6000823e601f3d908101601f1916820160405260608110156200012457600080fd5b8151602083018051604051929492938301929190846401000000008211156200014c57600080fd5b9083019060208201858111156200016257600080fd5b82518660208202830111640100000000821117156200018057600080fd5b82525081516020918201928201910280838360005b83811015620001af57818101518382015260200162000195565b5050505090500160405260200180516040519392919084640100000000821115620001d957600080fd5b908301906020820185811115620001ef57600080fd5b82518660208202830111640100000000821117156200020d57600080fd5b82525081516020918201928201910280838360005b838110156200023c57818101518382015260200162000222565b5050505090500160405250505092509250925060008090505b83811015620002a157620002988382815181106200026f57fe5b60200260200101518383815181106200028457fe5b60200260200101516200030d60201b60201c565b60010162000255565b50508551620002bb93506004925060208701915062000653565b508151620002d190600590602085019062000653565b506006805460ff191660ff92909216919091179055506a52b7d2dcc80cd2e40000009050620003018282620003bb565b505050505050620006f8565b6f2932b1b7b63630ba32b930b634b9b2b960811b821415620003b7576008546001600160a01b03168015620003505762000350816001600160e01b03620004c016565b600880546001600160a01b0319166001600160a01b038416179055620003768262000524565b604080516001600160a01b0384168152905184917f8b0aeac1536a24f354a73056f3c7b9a6b30a3151ab69a49f7bb04045468e57d9919081900360200190a2505b5050565b6001600160a01b03821662000417576040805162461bcd60e51b815260206004820152601f60248201527f45524332303a206d696e7420746f20746865207a65726f206164647265737300604482015290519081900360640190fd5b62000433816003546200058960201b62000ac51790919060201c565b6003556001600160a01b0382166000908152600160209081526040909120546200046891839062000ac562000589821b17901c565b6001600160a01b03831660008181526001602090815260408083209490945583518581529351929391927fddf252ad1be2c89b69c2b068fc378daa952ba7f163c4a11628f55a4df523b3ef9281900390910190a35050565b620004d4816001600160e01b03620005eb16565b1562000521576001600160a01b038116600081815260076020526040808220805460ff19169055517fe94479a9f7e1952cc78f2d6baab678adc1b772d936c6583def489e524cb666929190a25b50565b62000538816001600160e01b03620005eb16565b62000521576001600160a01b038116600081815260076020526040808220805460ff19166001179055517f6ae172837ea30b801fbfcdd4108aa1d5bf8ff775444fd70256b44e6bf3dfc3f69190a250565b600082820183811015620005e4576040805162461bcd60e51b815260206004820152601b60248201527f536166654d6174683a206164646974696f6e206f766572666c6f770000000000604482015290519081900360640190fd5b9392505050565b60006001600160a01b038216620006345760405162461bcd60e51b8152600401808060200182810382526022815260200180620016e76022913960400191505060405180910390fd5b506001600160a01b031660009081526007602052604090205460ff1690565b828054600181600116156101000203166002900490600052602060002090601f016020900481019282601f106200069657805160ff1916838001178555620006c6565b82800160010185558215620006c6579182015b82811115620006c6578251825591602001919060010190620006a9565b50620006d4929150620006d8565b5090565b620006f591905b80821115620006d45760008155600101620006df565b90565b610fdf80620007086000396000f3fe608060405234801561001057600080fd5b50600436106101425760003560e01c80637b4aec79116100b8578063ae2efd911161007c578063ae2efd91146103d1578063b97e0ac6146103d9578063c097b1fb146103e1578063dd62ed3e1461040d578063e55178411461043b578063f3bdedd21461044357610142565b80637b4aec791461034357806395d89b411461034b578063a457c2d714610353578063a9059cbb1461037f578063aa271e1a146103ab57610142565b8063395093511161010a578063395093511461027257806340c10f191461029e57806342966c68146102ca5780635eae58b9146102e957806370a08231146102f157806379cc67901461031757610142565b806306fdde0314610147578063095ea7b3146101c457806318160ddd1461020457806323b872dd1461021e578063313ce56714610254575b600080fd5b61014f61044b565b6040805160208082528351818301528351919283929083019185019080838360005b83811015610189578181015183820152602001610171565b50505050905090810190601f1680156101b65780820380516001836020036101000a031916815260200191505b509250505060405180910390f35b6101f0600480360360408110156101da57600080fd5b506001600160a01b0381351690602001356104e1565b604080519115158252519081900360200190f35b61020c6104f7565b60408051918252519081900360200190f35b6101f06004803603606081101561023457600080fd5b506001600160a01b038135811691602081013590911690604001356104fd565b61025c610554565b6040805160ff9092168252519081900360200190f35b6101f06004803603604081101561028857600080fd5b506001600160a01b03813516906020013561055d565b6101f0600480360360408110156102b457600080fd5b506001600160a01b038135169060200135610599565b6102e7600480360360208110156102e057600080fd5b50356105e9565b005b61020c6105f6565b61020c6004803603602081101561030757600080fd5b50356001600160a01b0316610603565b6102e76004803603604081101561032d57600080fd5b506001600160a01b03813516906020013561061e565b61020c61062c565b61014f61063a565b6101f06004803603604081101561036957600080fd5b506001600160a01b03813516906020013561069b565b6101f06004803603604081101561039557600080fd5b506001600160a01b0381351690602001356106d7565b6101f0600480360360208110156103c157600080fd5b50356001600160a01b03166106e4565b61020c61074a565b61020c610761565b6102e7600480360360408110156103f757600080fd5b50803590602001356001600160a01b0316610771565b61020c6004803603604081101561042357600080fd5b506001600160a01b03813581169160200135166107f0565b61020c61081b565b61020c610827565b60048054604080516020601f60026000196101006001881615020190951694909404938401819004810282018101909252828152606093909290918301828280156104d75780601f106104ac576101008083540402835291602001916104d7565b820191906000526020600020905b8154815290600101906020018083116104ba57829003601f168201915b5050505050905090565b60006104ee338484610838565b50600192915050565b60035490565b600061050a848484610924565b6001600160a01b03841660009081526002602090815260408083203380855292529091205461054a918691610545908663ffffffff610a6816565b610838565b5060019392505050565b60065460ff1690565b3360008181526002602090815260408083206001600160a01b038716845290915281205490916104ee918590610545908663ffffffff610ac516565b60006105a4336106e4565b6105df5760405162461bcd60e51b8152600401808060200182810382526030815260200180610eef6030913960400191505060405180910390fd5b6104ee8383610b26565b6105f33382610c18565b50565b65537973746f6b60d01b81565b6001600160a01b031660009081526001602052604090205490565b6106288282610cf3565b5050565b6626b0b730b3b2b960c91b81565b60058054604080516020601f60026000196101006001881615020190951694909404938401819004810282018101909252828152606093909290918301828280156104d75780601f106104ac576101008083540402835291602001916104d7565b3360008181526002602090815260408083206001600160a01b038716845290915281205490916104ee918590610545908663ffffffff610a6816565b60006104ee338484610924565b60006001600160a01b03821661072b5760405162461bcd60e51b8152600401808060200182810382526022815260200180610f1f6022913960400191505060405180910390fd5b506001600160a01b031660009081526007602052604090205460ff1690565b6f2932b1b7b63630ba32b930b634b9b2b960811b81565b6827b930b1b632a43ab160b91b81565b6000546001600160a01b031633146107ba5760405162461bcd60e51b8152600401808060200182810382526023815260200180610eaa6023913960400191505060405180910390fd5b644e6578757360d81b8214156107e657600080546001600160a01b0319166001600160a01b0383161790555b6106288282610d38565b6001600160a01b03918216600090815260026020908152604080832093909416825291909152205490565b644e6578757360d81b81565b69476f7665726e616e636560b01b81565b6001600160a01b03831661087d5760405162461bcd60e51b8152600401808060200182810382526024815260200180610f876024913960400191505060405180910390fd5b6001600160a01b0382166108c25760405162461bcd60e51b8152600401808060200182810382526022815260200180610ecd6022913960400191505060405180910390fd5b6001600160a01b03808416600081815260026020908152604080832094871680845294825291829020859055815185815291517f8c5be1e5ebec7d5bd14f71427d1e84f3dd0314c0f7b2291e5b200ac8c7c3b9259281900390910190a3505050565b6001600160a01b0383166109695760405162461bcd60e51b8152600401808060200182810382526025815260200180610f626025913960400191505060405180910390fd5b6001600160a01b0382166109ae5760405162461bcd60e51b8152600401808060200182810382526023815260200180610e876023913960400191505060405180910390fd5b6001600160a01b0383166000908152600160205260409020546109d7908263ffffffff610a6816565b6001600160a01b038085166000908152600160205260408082209390935590841681522054610a0c908263ffffffff610ac516565b6001600160a01b0380841660008181526001602090815260409182902094909455805185815290519193928716927fddf252ad1be2c89b69c2b068fc378daa952ba7f163c4a11628f55a4df523b3ef92918290030190a3505050565b600082821115610abf576040805162461bcd60e51b815260206004820152601e60248201527f536166654d6174683a207375627472616374696f6e206f766572666c6f770000604482015290519081900360640190fd5b50900390565b600082820183811015610b1f576040805162461bcd60e51b815260206004820152601b60248201527f536166654d6174683a206164646974696f6e206f766572666c6f770000000000604482015290519081900360640190fd5b9392505050565b6001600160a01b038216610b81576040805162461bcd60e51b815260206004820152601f60248201527f45524332303a206d696e7420746f20746865207a65726f206164647265737300604482015290519081900360640190fd5b600354610b94908263ffffffff610ac516565b6003556001600160a01b038216600090815260016020526040902054610bc0908263ffffffff610ac516565b6001600160a01b03831660008181526001602090815260408083209490945583518581529351929391927fddf252ad1be2c89b69c2b068fc378daa952ba7f163c4a11628f55a4df523b3ef9281900390910190a35050565b6001600160a01b038216610c5d5760405162461bcd60e51b8152600401808060200182810382526021815260200180610f416021913960400191505060405180910390fd5b600354610c70908263ffffffff610a6816565b6003556001600160a01b038216600090815260016020526040902054610c9c908263ffffffff610a6816565b6001600160a01b0383166000818152600160209081526040808320949094558351858152935191937fddf252ad1be2c89b69c2b068fc378daa952ba7f163c4a11628f55a4df523b3ef929081900390910190a35050565b610cfd8282610c18565b6001600160a01b038216600090815260026020908152604080832033808552925290912054610628918491610545908563ffffffff610a6816565b6f2932b1b7b63630ba32b930b634b9b2b960811b821415610628576008546001600160a01b03168015610d6e57610d6e81610dd6565b600880546001600160a01b0319166001600160a01b038416179055610d9282610e2d565b604080516001600160a01b0384168152905184917f8b0aeac1536a24f354a73056f3c7b9a6b30a3151ab69a49f7bb04045468e57d9919081900360200190a2505050565b610ddf816106e4565b156105f3576001600160a01b038116600081815260076020526040808220805460ff19169055517fe94479a9f7e1952cc78f2d6baab678adc1b772d936c6583def489e524cb666929190a250565b610e36816106e4565b6105f3576001600160a01b038116600081815260076020526040808220805460ff19166001179055517f6ae172837ea30b801fbfcdd4108aa1d5bf8ff775444fd70256b44e6bf3dfc3f69190a25056fe45524332303a207472616e7366657220746f20746865207a65726f20616464726573734f6e6c79207075626c6973686572206d61792063616c6c2074686973206d6574686f6445524332303a20617070726f766520746f20746865207a65726f20616464726573734d696e746572526f6c653a2063616c6c657220646f6573206e6f74206861766520746865204d696e74657220726f6c65526f6c65733a206163636f756e7420697320746865207a65726f206164647265737345524332303a206275726e2066726f6d20746865207a65726f206164647265737345524332303a207472616e736665722066726f6d20746865207a65726f206164647265737345524332303a20617070726f76652066726f6d20746865207a65726f2061646472657373a265627a7a72315820758b33b177a7cffec326c760e3f9f0cc8aabc61a9de6e169a686f471d6e22c3964736f6c63430005100032526f6c65733a206163636f756e7420697320746865207a65726f2061646472657373",
  "source": "\npragma solidity ^0.5.12;\n\nimport { Systok, INexus } from \"../../systok/Systok.sol\";\n\n/**\n * @title SystokMock\n */\ncontract SystokMock is Systok {\n\n\n    constructor(\n        INexus _nexus,\n        address _initialRecipient\n    )\n        Systok(\n            _nexus,\n            _initialRecipient\n        )\n        public\n    {}\n\n}\n",
  "sourcePath": "/Users/james/mstable/mStable-contracts/contracts/z_mocks/systok/SystokMock.sol",
  "compiler": {
    "name": "solc",
    "version": "0.5.16+commit.9c3226ce.Emscripten.clang"
  },
  "schemaVersion": "3.0.23",
  "updatedAt": "2020-02-05T09:31:38.660Z",
  "devdoc": {
    "methods": {
      "allowance(address,address)": {
        "details": "See `IERC20.allowance`."
      },
      "approve(address,uint256)": {
        "details": "See `IERC20.approve`.     * Requirements:     * - `spender` cannot be the zero address."
      },
      "balanceOf(address)": {
        "details": "See `IERC20.balanceOf`."
      },
      "burn(uint256)": {
        "details": "Destoys `amount` tokens from the caller.     * See `ERC20._burn`."
      },
      "burnFrom(address,uint256)": {
        "details": "See `ERC20._burnFrom`."
      },
      "decimals()": {
        "details": "Returns the number of decimals used to get its user representation. For example, if `decimals` equals `2`, a balance of `505` tokens should be displayed to a user as `5,05` (`505 / 10 ** 2`).     * Tokens usually opt for a value of 18, imitating the relationship between Ether and Wei.     * > Note that this information is only used for _display_ purposes: it in no way affects any of the arithmetic of the contract, including `IERC20.balanceOf` and `IERC20.transfer`."
      },
      "decreaseAllowance(address,uint256)": {
        "details": "Atomically decreases the allowance granted to `spender` by the caller.     * This is an alternative to `approve` that can be used as a mitigation for problems described in `IERC20.approve`.     * Emits an `Approval` event indicating the updated allowance.     * Requirements:     * - `spender` cannot be the zero address. - `spender` must have allowance for the caller of at least `subtractedValue`."
      },
      "increaseAllowance(address,uint256)": {
        "details": "Atomically increases the allowance granted to `spender` by the caller.     * This is an alternative to `approve` that can be used as a mitigation for problems described in `IERC20.approve`.     * Emits an `Approval` event indicating the updated allowance.     * Requirements:     * - `spender` cannot be the zero address."
      },
      "mint(address,uint256)": {
        "details": "See `ERC20._mint`."
      },
      "name()": {
        "details": "Returns the name of the token."
      },
      "symbol()": {
        "details": "Returns the symbol of the token, usually a shorter version of the name."
      },
      "totalSupply()": {
        "details": "See `IERC20.totalSupply`."
      },
      "transfer(address,uint256)": {
        "details": "See `IERC20.transfer`.     * Requirements:     * - `recipient` cannot be the zero address. - the caller must have a balance of at least `amount`."
      },
      "transferFrom(address,address,uint256)": {
        "details": "See `IERC20.transferFrom`.     * Emits an `Approval` event indicating the updated allowance. This is not required by the EIP. See the note at the beginning of `ERC20`;     * Requirements: - `sender` and `recipient` cannot be the zero address. - `sender` must have a balance of at least `value`. - the caller must have allowance for `sender`'s tokens of at least `amount`."
      },
      "updateModule(bytes32,address)": {
        "details": "Higher order function to allow for module updates only via publisher",
        "params": {
          "_key": "Key of the new module",
          "_newAddress": "Address of the new module"
        }
      }
    },
    "title": "SystokMock"
  },
  "userdoc": {
    "methods": {}
  }
}