{
  "contractName": "Systok",
  "abi": [
    {
      "inputs": [
        {
          "internalType": "address",
          "name": "_nexus",
          "type": "address"
        },
        {
          "internalType": "address",
          "name": "_initialRecipient",
          "type": "address"
        }
      ],
      "payable": false,
      "stateMutability": "nonpayable",
      "type": "constructor"
    },
    {
      "anonymous": false,
      "inputs": [
        {
          "indexed": true,
          "internalType": "address",
          "name": "owner",
          "type": "address"
        },
        {
          "indexed": true,
          "internalType": "address",
          "name": "spender",
          "type": "address"
        },
        {
          "indexed": false,
          "internalType": "uint256",
          "name": "value",
          "type": "uint256"
        }
      ],
      "name": "Approval",
      "type": "event"
    },
    {
      "anonymous": false,
      "inputs": [
        {
          "indexed": true,
          "internalType": "address",
          "name": "account",
          "type": "address"
        }
      ],
      "name": "MinterAdded",
      "type": "event"
    },
    {
      "anonymous": false,
      "inputs": [
        {
          "indexed": true,
          "internalType": "address",
          "name": "account",
          "type": "address"
        }
      ],
      "name": "MinterRemoved",
      "type": "event"
    },
    {
      "anonymous": false,
      "inputs": [
        {
          "indexed": true,
          "internalType": "address",
          "name": "from",
          "type": "address"
        },
        {
          "indexed": true,
          "internalType": "address",
          "name": "to",
          "type": "address"
        },
        {
          "indexed": false,
          "internalType": "uint256",
          "name": "value",
          "type": "uint256"
        }
      ],
      "name": "Transfer",
      "type": "event"
    },
    {
      "constant": true,
      "inputs": [],
      "name": "Key_Governance",
      "outputs": [
        {
          "internalType": "bytes32",
          "name": "",
          "type": "bytes32"
        }
      ],
      "payable": false,
      "stateMutability": "view",
      "type": "function"
    },
    {
      "constant": true,
      "inputs": [],
      "name": "Key_Manager",
      "outputs": [
        {
          "internalType": "bytes32",
          "name": "",
          "type": "bytes32"
        }
      ],
      "payable": false,
      "stateMutability": "view",
      "type": "function"
    },
    {
      "constant": true,
      "inputs": [],
      "name": "Key_Nexus",
      "outputs": [
        {
          "internalType": "bytes32",
          "name": "",
          "type": "bytes32"
        }
      ],
      "payable": false,
      "stateMutability": "view",
      "type": "function"
    },
    {
      "constant": true,
      "inputs": [],
      "name": "Key_OracleHub",
      "outputs": [
        {
          "internalType": "bytes32",
          "name": "",
          "type": "bytes32"
        }
      ],
      "payable": false,
      "stateMutability": "view",
      "type": "function"
    },
    {
      "constant": true,
      "inputs": [],
      "name": "Key_Recollateraliser",
      "outputs": [
        {
          "internalType": "bytes32",
          "name": "",
          "type": "bytes32"
        }
      ],
      "payable": false,
      "stateMutability": "view",
      "type": "function"
    },
    {
      "constant": true,
      "inputs": [],
      "name": "Key_Staking",
      "outputs": [
        {
          "internalType": "bytes32",
          "name": "",
          "type": "bytes32"
        }
      ],
      "payable": false,
      "stateMutability": "view",
      "type": "function"
    },
    {
      "constant": true,
      "inputs": [],
      "name": "Key_Systok",
      "outputs": [
        {
          "internalType": "bytes32",
          "name": "",
          "type": "bytes32"
        }
      ],
      "payable": false,
      "stateMutability": "view",
      "type": "function"
    },
    {
      "constant": true,
      "inputs": [
        {
          "internalType": "address",
          "name": "owner",
          "type": "address"
        },
        {
          "internalType": "address",
          "name": "spender",
          "type": "address"
        }
      ],
      "name": "allowance",
      "outputs": [
        {
          "internalType": "uint256",
          "name": "",
          "type": "uint256"
        }
      ],
      "payable": false,
      "stateMutability": "view",
      "type": "function"
    },
    {
      "constant": false,
      "inputs": [
        {
          "internalType": "address",
          "name": "spender",
          "type": "address"
        },
        {
          "internalType": "uint256",
          "name": "value",
          "type": "uint256"
        }
      ],
      "name": "approve",
      "outputs": [
        {
          "internalType": "bool",
          "name": "",
          "type": "bool"
        }
      ],
      "payable": false,
      "stateMutability": "nonpayable",
      "type": "function"
    },
    {
      "constant": true,
      "inputs": [
        {
          "internalType": "address",
          "name": "account",
          "type": "address"
        }
      ],
      "name": "balanceOf",
      "outputs": [
        {
          "internalType": "uint256",
          "name": "",
          "type": "uint256"
        }
      ],
      "payable": false,
      "stateMutability": "view",
      "type": "function"
    },
    {
      "constant": false,
      "inputs": [
        {
          "internalType": "uint256",
          "name": "amount",
          "type": "uint256"
        }
      ],
      "name": "burn",
      "outputs": [],
      "payable": false,
      "stateMutability": "nonpayable",
      "type": "function"
    },
    {
      "constant": false,
      "inputs": [
        {
          "internalType": "address",
          "name": "account",
          "type": "address"
        },
        {
          "internalType": "uint256",
          "name": "amount",
          "type": "uint256"
        }
      ],
      "name": "burnFrom",
      "outputs": [],
      "payable": false,
      "stateMutability": "nonpayable",
      "type": "function"
    },
    {
      "constant": true,
      "inputs": [],
      "name": "decimals",
      "outputs": [
        {
          "internalType": "uint8",
          "name": "",
          "type": "uint8"
        }
      ],
      "payable": false,
      "stateMutability": "view",
      "type": "function"
    },
    {
      "constant": false,
      "inputs": [
        {
          "internalType": "address",
          "name": "spender",
          "type": "address"
        },
        {
          "internalType": "uint256",
          "name": "subtractedValue",
          "type": "uint256"
        }
      ],
      "name": "decreaseAllowance",
      "outputs": [
        {
          "internalType": "bool",
          "name": "",
          "type": "bool"
        }
      ],
      "payable": false,
      "stateMutability": "nonpayable",
      "type": "function"
    },
    {
      "constant": false,
      "inputs": [
        {
          "internalType": "address",
          "name": "spender",
          "type": "address"
        },
        {
          "internalType": "uint256",
          "name": "addedValue",
          "type": "uint256"
        }
      ],
      "name": "increaseAllowance",
      "outputs": [
        {
          "internalType": "bool",
          "name": "",
          "type": "bool"
        }
      ],
      "payable": false,
      "stateMutability": "nonpayable",
      "type": "function"
    },
    {
      "constant": true,
      "inputs": [
        {
          "internalType": "address",
          "name": "account",
          "type": "address"
        }
      ],
      "name": "isMinter",
      "outputs": [
        {
          "internalType": "bool",
          "name": "",
          "type": "bool"
        }
      ],
      "payable": false,
      "stateMutability": "view",
      "type": "function"
    },
    {
      "constant": false,
      "inputs": [
        {
          "internalType": "address",
          "name": "account",
          "type": "address"
        },
        {
          "internalType": "uint256",
          "name": "amount",
          "type": "uint256"
        }
      ],
      "name": "mint",
      "outputs": [
        {
          "internalType": "bool",
          "name": "",
          "type": "bool"
        }
      ],
      "payable": false,
      "stateMutability": "nonpayable",
      "type": "function"
    },
    {
      "constant": true,
      "inputs": [],
      "name": "name",
      "outputs": [
        {
          "internalType": "string",
          "name": "",
          "type": "string"
        }
      ],
      "payable": false,
      "stateMutability": "view",
      "type": "function"
    },
    {
      "constant": true,
      "inputs": [],
      "name": "nexus",
      "outputs": [
        {
          "internalType": "contract INexus",
          "name": "",
          "type": "address"
        }
      ],
      "payable": false,
      "stateMutability": "view",
      "type": "function"
    },
    {
      "constant": true,
      "inputs": [],
      "name": "symbol",
      "outputs": [
        {
          "internalType": "string",
          "name": "",
          "type": "string"
        }
      ],
      "payable": false,
      "stateMutability": "view",
      "type": "function"
    },
    {
      "constant": true,
      "inputs": [],
      "name": "totalSupply",
      "outputs": [
        {
          "internalType": "uint256",
          "name": "",
          "type": "uint256"
        }
      ],
      "payable": false,
      "stateMutability": "view",
      "type": "function"
    },
    {
      "constant": false,
      "inputs": [
        {
          "internalType": "address",
          "name": "recipient",
          "type": "address"
        },
        {
          "internalType": "uint256",
          "name": "amount",
          "type": "uint256"
        }
      ],
      "name": "transfer",
      "outputs": [
        {
          "internalType": "bool",
          "name": "",
          "type": "bool"
        }
      ],
      "payable": false,
      "stateMutability": "nonpayable",
      "type": "function"
    },
    {
      "constant": false,
      "inputs": [
        {
          "internalType": "address",
          "name": "sender",
          "type": "address"
        },
        {
          "internalType": "address",
          "name": "recipient",
          "type": "address"
        },
        {
          "internalType": "uint256",
          "name": "amount",
          "type": "uint256"
        }
      ],
      "name": "transferFrom",
      "outputs": [
        {
          "internalType": "bool",
          "name": "",
          "type": "bool"
        }
      ],
      "payable": false,
      "stateMutability": "nonpayable",
      "type": "function"
    }
  ],
  "bytecode": "0x60806040523480156200001157600080fd5b506040516200113738038062001137833981810160405260408110156200003757600080fd5b508051602091820151604080518082018252600c81526b6d537461626c65204d65746160a01b818601908152825180840190935260038352624d544160e81b95830195909552600080546001600160a01b0319166001600160a01b0386161790558051939492938493919291601291620000b4916004916200026b565b508151620000ca9060059060208501906200026b565b506006805460ff191660ff92909216919091179055506a52b7d2dcc80cd2e40000009050620000fa828262000104565b5050505062000310565b6001600160a01b03821662000160576040805162461bcd60e51b815260206004820152601f60248201527f45524332303a206d696e7420746f20746865207a65726f206164647265737300604482015290519081900360640190fd5b6200017c816003546200020960201b62000a6e1790919060201c565b6003556001600160a01b038216600090815260016020908152604090912054620001b191839062000a6e62000209821b17901c565b6001600160a01b03831660008181526001602090815260408083209490945583518581529351929391927fddf252ad1be2c89b69c2b068fc378daa952ba7f163c4a11628f55a4df523b3ef9281900390910190a35050565b60008282018381101562000264576040805162461bcd60e51b815260206004820152601b60248201527f536166654d6174683a206164646974696f6e206f766572666c6f770000000000604482015290519081900360640190fd5b9392505050565b828054600181600116156101000203166002900490600052602060002090601f016020900481019282601f10620002ae57805160ff1916838001178555620002de565b82800160010185558215620002de579182015b82811115620002de578251825591602001919060010190620002c1565b50620002ec929150620002f0565b5090565b6200030d91905b80821115620002ec5760008155600101620002f7565b90565b610e1780620003206000396000f3fe608060405234801561001057600080fd5b506004361061014d5760003560e01c806379cc6790116100c3578063aa271e1a1161007c578063aa271e1a146103e2578063ae2efd9114610408578063b97e0ac614610410578063dd62ed3e14610418578063e551784114610446578063f3bdedd21461044e5761014d565b806379cc67901461032a5780637b4aec791461035657806395d89b411461035e578063a3f5c1d214610366578063a457c2d71461038a578063a9059cbb146103b65761014d565b8063313ce56711610115578063313ce56714610267578063395093511461028557806340c10f19146102b157806342966c68146102dd5780635eae58b9146102fc57806370a08231146103045761014d565b806306fdde0314610152578063095ea7b3146101cf5780630aa8d59a1461020f57806318160ddd1461022957806323b872dd14610231575b600080fd5b61015a610456565b6040805160208082528351818301528351919283929083019185019080838360005b8381101561019457818101518382015260200161017c565b50505050905090810190601f1680156101c15780820380516001836020036101000a031916815260200191505b509250505060405180910390f35b6101fb600480360360408110156101e557600080fd5b506001600160a01b0381351690602001356104ec565b604080519115158252519081900360200190f35b610217610502565b60408051918252519081900360200190f35b610217610510565b6101fb6004803603606081101561024757600080fd5b506001600160a01b03813581169160208101359091169060400135610516565b61026f61056d565b6040805160ff9092168252519081900360200190f35b6101fb6004803603604081101561029b57600080fd5b506001600160a01b038135169060200135610576565b6101fb600480360360408110156102c757600080fd5b506001600160a01b0381351690602001356105b2565b6102fa600480360360208110156102f357600080fd5b5035610602565b005b61021761060f565b6102176004803603602081101561031a57600080fd5b50356001600160a01b031661061c565b6102fa6004803603604081101561034057600080fd5b506001600160a01b038135169060200135610637565b610217610645565b61015a610653565b61036e6106b4565b604080516001600160a01b039092168252519081900360200190f35b6101fb600480360360408110156103a057600080fd5b506001600160a01b0381351690602001356106c3565b6101fb600480360360408110156103cc57600080fd5b506001600160a01b0381351690602001356106ff565b6101fb600480360360208110156103f857600080fd5b50356001600160a01b031661070c565b610217610772565b610217610789565b6102176004803603604081101561042e57600080fd5b506001600160a01b0381358116916020013516610799565b6102176107c4565b6102176107d0565b60048054604080516020601f60026000196101006001881615020190951694909404938401819004810282018101909252828152606093909290918301828280156104e25780601f106104b7576101008083540402835291602001916104e2565b820191906000526020600020905b8154815290600101906020018083116104c557829003601f168201915b5050505050905090565b60006104f93384846107e1565b50600192915050565b665374616b696e6760c81b81565b60035490565b60006105238484846108cd565b6001600160a01b03841660009081526002602090815260408083203380855292529091205461056391869161055e908663ffffffff610a1116565b6107e1565b5060019392505050565b60065460ff1690565b3360008181526002602090815260408083206001600160a01b038716845290915281205490916104f991859061055e908663ffffffff610a6e16565b60006105bd3361070c565b6105f85760405162461bcd60e51b8152600401808060200182810382526030815260200180610d276030913960400191505060405180910390fd5b6104f98383610acf565b61060c3382610bc1565b50565b65537973746f6b60d01b81565b6001600160a01b031660009081526001602052604090205490565b6106418282610c9c565b5050565b6626b0b730b3b2b960c91b81565b60058054604080516020601f60026000196101006001881615020190951694909404938401819004810282018101909252828152606093909290918301828280156104e25780601f106104b7576101008083540402835291602001916104e2565b6000546001600160a01b031681565b3360008181526002602090815260408083206001600160a01b038716845290915281205490916104f991859061055e908663ffffffff610a1116565b60006104f93384846108cd565b60006001600160a01b0382166107535760405162461bcd60e51b8152600401808060200182810382526022815260200180610d576022913960400191505060405180910390fd5b506001600160a01b031660009081526007602052604090205460ff1690565b6f2932b1b7b63630ba32b930b634b9b2b960811b81565b6827b930b1b632a43ab160b91b81565b6001600160a01b03918216600090815260026020908152604080832093909416825291909152205490565b644e6578757360d81b81565b69476f7665726e616e636560b01b81565b6001600160a01b0383166108265760405162461bcd60e51b8152600401808060200182810382526024815260200180610dbf6024913960400191505060405180910390fd5b6001600160a01b03821661086b5760405162461bcd60e51b8152600401808060200182810382526022815260200180610d056022913960400191505060405180910390fd5b6001600160a01b03808416600081815260026020908152604080832094871680845294825291829020859055815185815291517f8c5be1e5ebec7d5bd14f71427d1e84f3dd0314c0f7b2291e5b200ac8c7c3b9259281900390910190a3505050565b6001600160a01b0383166109125760405162461bcd60e51b8152600401808060200182810382526025815260200180610d9a6025913960400191505060405180910390fd5b6001600160a01b0382166109575760405162461bcd60e51b8152600401808060200182810382526023815260200180610ce26023913960400191505060405180910390fd5b6001600160a01b038316600090815260016020526040902054610980908263ffffffff610a1116565b6001600160a01b0380851660009081526001602052604080822093909355908416815220546109b5908263ffffffff610a6e16565b6001600160a01b0380841660008181526001602090815260409182902094909455805185815290519193928716927fddf252ad1be2c89b69c2b068fc378daa952ba7f163c4a11628f55a4df523b3ef92918290030190a3505050565b600082821115610a68576040805162461bcd60e51b815260206004820152601e60248201527f536166654d6174683a207375627472616374696f6e206f766572666c6f770000604482015290519081900360640190fd5b50900390565b600082820183811015610ac8576040805162461bcd60e51b815260206004820152601b60248201527f536166654d6174683a206164646974696f6e206f766572666c6f770000000000604482015290519081900360640190fd5b9392505050565b6001600160a01b038216610b2a576040805162461bcd60e51b815260206004820152601f60248201527f45524332303a206d696e7420746f20746865207a65726f206164647265737300604482015290519081900360640190fd5b600354610b3d908263ffffffff610a6e16565b6003556001600160a01b038216600090815260016020526040902054610b69908263ffffffff610a6e16565b6001600160a01b03831660008181526001602090815260408083209490945583518581529351929391927fddf252ad1be2c89b69c2b068fc378daa952ba7f163c4a11628f55a4df523b3ef9281900390910190a35050565b6001600160a01b038216610c065760405162461bcd60e51b8152600401808060200182810382526021815260200180610d796021913960400191505060405180910390fd5b600354610c19908263ffffffff610a1116565b6003556001600160a01b038216600090815260016020526040902054610c45908263ffffffff610a1116565b6001600160a01b0383166000818152600160209081526040808320949094558351858152935191937fddf252ad1be2c89b69c2b068fc378daa952ba7f163c4a11628f55a4df523b3ef929081900390910190a35050565b610ca68282610bc1565b6001600160a01b03821660009081526002602090815260408083203380855292529091205461064191849161055e908563ffffffff610a111656fe45524332303a207472616e7366657220746f20746865207a65726f206164647265737345524332303a20617070726f766520746f20746865207a65726f20616464726573734d696e746572526f6c653a2063616c6c657220646f6573206e6f74206861766520746865204d696e74657220726f6c65526f6c65733a206163636f756e7420697320746865207a65726f206164647265737345524332303a206275726e2066726f6d20746865207a65726f206164647265737345524332303a207472616e736665722066726f6d20746865207a65726f206164647265737345524332303a20617070726f76652066726f6d20746865207a65726f2061646472657373a265627a7a723158200cd691ff4b1c7b6a9361afd6f3c91d2b7f69f8308e303c1df71d2a61cc0a5dbe64736f6c63430005100032",
  "source": "pragma solidity ^0.5.12;\n\nimport { MetaToken } from \"./MetaToken.sol\";\nimport { Module } from \"../shared/Module.sol\";\n\nimport { INexus } from \"../interfaces/INexus.sol\";\nimport { ISystok } from \"../interfaces/ISystok.sol\";\n\n/**\n * @title Systok (System Token)\n * @author Stability Labs Pty Ltd.\n * @dev Implementation of Systok - the token used hroughout the mStable Standard;\n *      namely through governance, forging and re-collateralisation\n *\n * BURN/MINT PRIVS\n * Only Recollateraliser can mint new Meta post completed auction\n * Anyone can burn and burnFrom Meta, provided they have the allowance\n */\ncontract Systok is ISystok, Module, MetaToken {\n\n\n    /** @dev Events to emit */\n    // event RecolUpdated(bytes32 indexed key, address newAddress);\n\n\n    /** @dev Basic constructor to initialise the Systok */\n    constructor(\n        address _nexus,\n        address _initialRecipient\n    )\n        public\n        MetaToken(_initialRecipient)\n        Module(_nexus)\n    {\n    }\n\n    // /**\n    //   * @dev Internally handles updates to the system modules\n    //   * @param _key         Module key\n    //   * @param _newAddress  Address of the updated Module\n    //   */\n    // function _internalUpdateModule(bytes32 _key, address _newAddress)\n    // internal {\n\n    //     if (_key == Key_Recollateraliser) {\n    //         address old = address(recollateraliser);\n    //         // Remove privs from old recollateraliser\n    //         if(old != address(0)) {\n    //           _removeMinter(old);\n    //         }\n    //         recollateraliser = _newAddress;\n    //         _addMinter(_newAddress);\n\n    //         emit RecolUpdated(_key, _newAddress);\n    //     }\n    // }\n}",
  "sourcePath": "/home/alex/projects/stability-labs/mstable/mstable-contracts/contracts/systok/Systok.sol",
  "compiler": {
    "name": "solc",
    "version": "0.5.16+commit.9c3226ce.Emscripten.clang"
  },
  "schemaVersion": "3.0.23",
  "updatedAt": "2020-02-17T19:56:32.943Z",
  "devdoc": {
    "author": "Stability Labs Pty Ltd.",
    "details": "Implementation of Systok - the token used hroughout the mStable Standard;     namely through governance, forging and re-collateralisation * BURN/MINT PRIVS Only Recollateraliser can mint new Meta post completed auction Anyone can burn and burnFrom Meta, provided they have the allowance",
    "methods": {
      "allowance(address,address)": {
        "details": "See `IERC20.allowance`."
      },
      "approve(address,uint256)": {
        "details": "See `IERC20.approve`.     * Requirements:     * - `spender` cannot be the zero address."
      },
      "balanceOf(address)": {
        "details": "See `IERC20.balanceOf`."
      },
      "burn(uint256)": {
        "details": "Destoys `amount` tokens from the caller.     * See `ERC20._burn`."
      },
      "burnFrom(address,uint256)": {
        "details": "See `ERC20._burnFrom`."
      },
      "constructor": {
        "details": "Basic constructor to initialise the Systok "
      },
      "decimals()": {
        "details": "Returns the number of decimals used to get its user representation. For example, if `decimals` equals `2`, a balance of `505` tokens should be displayed to a user as `5,05` (`505 / 10 ** 2`).     * Tokens usually opt for a value of 18, imitating the relationship between Ether and Wei.     * > Note that this information is only used for _display_ purposes: it in no way affects any of the arithmetic of the contract, including `IERC20.balanceOf` and `IERC20.transfer`."
      },
      "decreaseAllowance(address,uint256)": {
        "details": "Atomically decreases the allowance granted to `spender` by the caller.     * This is an alternative to `approve` that can be used as a mitigation for problems described in `IERC20.approve`.     * Emits an `Approval` event indicating the updated allowance.     * Requirements:     * - `spender` cannot be the zero address. - `spender` must have allowance for the caller of at least `subtractedValue`."
      },
      "increaseAllowance(address,uint256)": {
        "details": "Atomically increases the allowance granted to `spender` by the caller.     * This is an alternative to `approve` that can be used as a mitigation for problems described in `IERC20.approve`.     * Emits an `Approval` event indicating the updated allowance.     * Requirements:     * - `spender` cannot be the zero address."
      },
      "mint(address,uint256)": {
        "details": "See `ERC20._mint`."
      },
      "name()": {
        "details": "Returns the name of the token."
      },
      "symbol()": {
        "details": "Returns the symbol of the token, usually a shorter version of the name."
      },
      "totalSupply()": {
        "details": "See `IERC20.totalSupply`."
      },
      "transfer(address,uint256)": {
        "details": "See `IERC20.transfer`.     * Requirements:     * - `recipient` cannot be the zero address. - the caller must have a balance of at least `amount`."
      },
      "transferFrom(address,address,uint256)": {
        "details": "See `IERC20.transferFrom`.     * Emits an `Approval` event indicating the updated allowance. This is not required by the EIP. See the note at the beginning of `ERC20`;     * Requirements: - `sender` and `recipient` cannot be the zero address. - `sender` must have a balance of at least `value`. - the caller must have allowance for `sender`'s tokens of at least `amount`."
      }
    },
    "title": "Systok (System Token)"
  },
  "userdoc": {
    "methods": {}
  }
}