{
  "contractName": "Systok",
  "abi": [
    {
      "inputs": [
        {
          "internalType": "address",
          "name": "_nexus",
          "type": "address"
        },
        {
          "internalType": "address",
          "name": "_initialRecipient",
          "type": "address"
        }
      ],
      "payable": false,
      "stateMutability": "nonpayable",
      "type": "constructor"
    },
    {
      "anonymous": false,
      "inputs": [
        {
          "indexed": true,
          "internalType": "address",
          "name": "owner",
          "type": "address"
        },
        {
          "indexed": true,
          "internalType": "address",
          "name": "spender",
          "type": "address"
        },
        {
          "indexed": false,
          "internalType": "uint256",
          "name": "value",
          "type": "uint256"
        }
      ],
      "name": "Approval",
      "type": "event"
    },
    {
      "anonymous": false,
      "inputs": [
        {
          "indexed": true,
          "internalType": "address",
          "name": "account",
          "type": "address"
        }
      ],
      "name": "MinterAdded",
      "type": "event"
    },
    {
      "anonymous": false,
      "inputs": [
        {
          "indexed": true,
          "internalType": "address",
          "name": "account",
          "type": "address"
        }
      ],
      "name": "MinterRemoved",
      "type": "event"
    },
    {
      "anonymous": false,
      "inputs": [
        {
          "indexed": true,
          "internalType": "address",
          "name": "from",
          "type": "address"
        },
        {
          "indexed": true,
          "internalType": "address",
          "name": "to",
          "type": "address"
        },
        {
          "indexed": false,
          "internalType": "uint256",
          "name": "value",
          "type": "uint256"
        }
      ],
      "name": "Transfer",
      "type": "event"
    },
    {
      "constant": true,
      "inputs": [],
      "name": "Key_Governance",
      "outputs": [
        {
          "internalType": "bytes32",
          "name": "",
          "type": "bytes32"
        }
      ],
      "payable": false,
      "stateMutability": "view",
      "type": "function"
    },
    {
      "constant": true,
      "inputs": [],
      "name": "Key_Governor",
      "outputs": [
        {
          "internalType": "bytes32",
          "name": "",
          "type": "bytes32"
        }
      ],
      "payable": false,
      "stateMutability": "view",
      "type": "function"
    },
    {
      "constant": true,
      "inputs": [],
      "name": "Key_Manager",
      "outputs": [
        {
          "internalType": "bytes32",
          "name": "",
          "type": "bytes32"
        }
      ],
      "payable": false,
      "stateMutability": "view",
      "type": "function"
    },
    {
      "constant": true,
      "inputs": [],
      "name": "Key_Nexus",
      "outputs": [
        {
          "internalType": "bytes32",
          "name": "",
          "type": "bytes32"
        }
      ],
      "payable": false,
      "stateMutability": "view",
      "type": "function"
    },
    {
      "constant": true,
      "inputs": [],
      "name": "Key_OracleHub",
      "outputs": [
        {
          "internalType": "bytes32",
          "name": "",
          "type": "bytes32"
        }
      ],
      "payable": false,
      "stateMutability": "view",
      "type": "function"
    },
    {
      "constant": true,
      "inputs": [],
      "name": "Key_Recollateraliser",
      "outputs": [
        {
          "internalType": "bytes32",
          "name": "",
          "type": "bytes32"
        }
      ],
      "payable": false,
      "stateMutability": "view",
      "type": "function"
    },
    {
      "constant": true,
      "inputs": [],
      "name": "Key_Staking",
      "outputs": [
        {
          "internalType": "bytes32",
          "name": "",
          "type": "bytes32"
        }
      ],
      "payable": false,
      "stateMutability": "view",
      "type": "function"
    },
    {
      "constant": true,
      "inputs": [],
      "name": "Key_Systok",
      "outputs": [
        {
          "internalType": "bytes32",
          "name": "",
          "type": "bytes32"
        }
      ],
      "payable": false,
      "stateMutability": "view",
      "type": "function"
    },
    {
      "constant": true,
      "inputs": [
        {
          "internalType": "address",
          "name": "owner",
          "type": "address"
        },
        {
          "internalType": "address",
          "name": "spender",
          "type": "address"
        }
      ],
      "name": "allowance",
      "outputs": [
        {
          "internalType": "uint256",
          "name": "",
          "type": "uint256"
        }
      ],
      "payable": false,
      "stateMutability": "view",
      "type": "function"
    },
    {
      "constant": false,
      "inputs": [
        {
          "internalType": "address",
          "name": "spender",
          "type": "address"
        },
        {
          "internalType": "uint256",
          "name": "value",
          "type": "uint256"
        }
      ],
      "name": "approve",
      "outputs": [
        {
          "internalType": "bool",
          "name": "",
          "type": "bool"
        }
      ],
      "payable": false,
      "stateMutability": "nonpayable",
      "type": "function"
    },
    {
      "constant": true,
      "inputs": [
        {
          "internalType": "address",
          "name": "account",
          "type": "address"
        }
      ],
      "name": "balanceOf",
      "outputs": [
        {
          "internalType": "uint256",
          "name": "",
          "type": "uint256"
        }
      ],
      "payable": false,
      "stateMutability": "view",
      "type": "function"
    },
    {
      "constant": false,
      "inputs": [
        {
          "internalType": "uint256",
          "name": "amount",
          "type": "uint256"
        }
      ],
      "name": "burn",
      "outputs": [],
      "payable": false,
      "stateMutability": "nonpayable",
      "type": "function"
    },
    {
      "constant": false,
      "inputs": [
        {
          "internalType": "address",
          "name": "account",
          "type": "address"
        },
        {
          "internalType": "uint256",
          "name": "amount",
          "type": "uint256"
        }
      ],
      "name": "burnFrom",
      "outputs": [],
      "payable": false,
      "stateMutability": "nonpayable",
      "type": "function"
    },
    {
      "constant": true,
      "inputs": [],
      "name": "decimals",
      "outputs": [
        {
          "internalType": "uint8",
          "name": "",
          "type": "uint8"
        }
      ],
      "payable": false,
      "stateMutability": "view",
      "type": "function"
    },
    {
      "constant": false,
      "inputs": [
        {
          "internalType": "address",
          "name": "spender",
          "type": "address"
        },
        {
          "internalType": "uint256",
          "name": "subtractedValue",
          "type": "uint256"
        }
      ],
      "name": "decreaseAllowance",
      "outputs": [
        {
          "internalType": "bool",
          "name": "",
          "type": "bool"
        }
      ],
      "payable": false,
      "stateMutability": "nonpayable",
      "type": "function"
    },
    {
      "constant": false,
      "inputs": [
        {
          "internalType": "address",
          "name": "spender",
          "type": "address"
        },
        {
          "internalType": "uint256",
          "name": "addedValue",
          "type": "uint256"
        }
      ],
      "name": "increaseAllowance",
      "outputs": [
        {
          "internalType": "bool",
          "name": "",
          "type": "bool"
        }
      ],
      "payable": false,
      "stateMutability": "nonpayable",
      "type": "function"
    },
    {
      "constant": true,
      "inputs": [
        {
          "internalType": "address",
          "name": "account",
          "type": "address"
        }
      ],
      "name": "isMinter",
      "outputs": [
        {
          "internalType": "bool",
          "name": "",
          "type": "bool"
        }
      ],
      "payable": false,
      "stateMutability": "view",
      "type": "function"
    },
    {
      "constant": false,
      "inputs": [
        {
          "internalType": "address",
          "name": "account",
          "type": "address"
        },
        {
          "internalType": "uint256",
          "name": "amount",
          "type": "uint256"
        }
      ],
      "name": "mint",
      "outputs": [
        {
          "internalType": "bool",
          "name": "",
          "type": "bool"
        }
      ],
      "payable": false,
      "stateMutability": "nonpayable",
      "type": "function"
    },
    {
      "constant": true,
      "inputs": [],
      "name": "name",
      "outputs": [
        {
          "internalType": "string",
          "name": "",
          "type": "string"
        }
      ],
      "payable": false,
      "stateMutability": "view",
      "type": "function"
    },
    {
      "constant": true,
      "inputs": [],
      "name": "nexus",
      "outputs": [
        {
          "internalType": "contract INexus",
          "name": "",
          "type": "address"
        }
      ],
      "payable": false,
      "stateMutability": "view",
      "type": "function"
    },
    {
      "constant": true,
      "inputs": [],
      "name": "symbol",
      "outputs": [
        {
          "internalType": "string",
          "name": "",
          "type": "string"
        }
      ],
      "payable": false,
      "stateMutability": "view",
      "type": "function"
    },
    {
      "constant": true,
      "inputs": [],
      "name": "totalSupply",
      "outputs": [
        {
          "internalType": "uint256",
          "name": "",
          "type": "uint256"
        }
      ],
      "payable": false,
      "stateMutability": "view",
      "type": "function"
    },
    {
      "constant": false,
      "inputs": [
        {
          "internalType": "address",
          "name": "recipient",
          "type": "address"
        },
        {
          "internalType": "uint256",
          "name": "amount",
          "type": "uint256"
        }
      ],
      "name": "transfer",
      "outputs": [
        {
          "internalType": "bool",
          "name": "",
          "type": "bool"
        }
      ],
      "payable": false,
      "stateMutability": "nonpayable",
      "type": "function"
    },
    {
      "constant": false,
      "inputs": [
        {
          "internalType": "address",
          "name": "sender",
          "type": "address"
        },
        {
          "internalType": "address",
          "name": "recipient",
          "type": "address"
        },
        {
          "internalType": "uint256",
          "name": "amount",
          "type": "uint256"
        }
      ],
      "name": "transferFrom",
      "outputs": [
        {
          "internalType": "bool",
          "name": "",
          "type": "bool"
        }
      ],
      "payable": false,
      "stateMutability": "nonpayable",
      "type": "function"
    }
  ],
  "bytecode": "0x60806040523480156200001157600080fd5b506040516200115938038062001159833981810160405260408110156200003757600080fd5b508051602091820151604080518082018252600c81526b6d537461626c65204d65746160a01b818601908152825180840190935260038352624d544160e81b95830195909552600080546001600160a01b0319166001600160a01b0386161790558051939492938493919291601291620000b4916004916200026b565b508151620000ca9060059060208501906200026b565b506006805460ff191660ff92909216919091179055506a52b7d2dcc80cd2e40000009050620000fa828262000104565b5050505062000310565b6001600160a01b03821662000160576040805162461bcd60e51b815260206004820152601f60248201527f45524332303a206d696e7420746f20746865207a65726f206164647265737300604482015290519081900360640190fd5b6200017c816003546200020960201b62000a901790919060201c565b6003556001600160a01b038216600090815260016020908152604090912054620001b191839062000a9062000209821b17901c565b6001600160a01b03831660008181526001602090815260408083209490945583518581529351929391927fddf252ad1be2c89b69c2b068fc378daa952ba7f163c4a11628f55a4df523b3ef9281900390910190a35050565b60008282018381101562000264576040805162461bcd60e51b815260206004820152601b60248201527f536166654d6174683a206164646974696f6e206f766572666c6f770000000000604482015290519081900360640190fd5b9392505050565b828054600181600116156101000203166002900490600052602060002090601f016020900481019282601f10620002ae57805160ff1916838001178555620002de565b82800160010185558215620002de579182015b82811115620002de578251825591602001919060010190620002c1565b50620002ec929150620002f0565b5090565b6200030d91905b80821115620002ec5760008155600101620002f7565b90565b610e3980620003206000396000f3fe608060405234801561001057600080fd5b50600436106101585760003560e01c806379cc6790116100c3578063aa271e1a1161007c578063aa271e1a146103f5578063ae2efd911461041b578063b97e0ac614610423578063dd62ed3e1461042b578063e551784114610459578063f3bdedd21461046157610158565b806379cc67901461033d5780637b4aec791461036957806395d89b4114610371578063a3f5c1d214610379578063a457c2d71461039d578063a9059cbb146103c957610158565b80633950935111610115578063395093511461029057806340c10f19146102bc57806342966c68146102e85780634fa16790146103075780635eae58b91461030f57806370a082311461031757610158565b806306fdde031461015d578063095ea7b3146101da5780630aa8d59a1461021a57806318160ddd1461023457806323b872dd1461023c578063313ce56714610272575b600080fd5b610165610469565b6040805160208082528351818301528351919283929083019185019080838360005b8381101561019f578181015183820152602001610187565b50505050905090810190601f1680156101cc5780820380516001836020036101000a031916815260200191505b509250505060405180910390f35b610206600480360360408110156101f057600080fd5b506001600160a01b0381351690602001356104ff565b604080519115158252519081900360200190f35b610222610515565b60408051918252519081900360200190f35b610222610523565b6102066004803603606081101561025257600080fd5b506001600160a01b03813581169160208101359091169060400135610529565b61027a610580565b6040805160ff9092168252519081900360200190f35b610206600480360360408110156102a657600080fd5b506001600160a01b038135169060200135610589565b610206600480360360408110156102d257600080fd5b506001600160a01b0381351690602001356105c5565b610305600480360360208110156102fe57600080fd5b5035610615565b005b610222610622565b610222610631565b6102226004803603602081101561032d57600080fd5b50356001600160a01b031661063e565b6103056004803603604081101561035357600080fd5b506001600160a01b038135169060200135610659565b610222610667565b610165610675565b6103816106d6565b604080516001600160a01b039092168252519081900360200190f35b610206600480360360408110156103b357600080fd5b506001600160a01b0381351690602001356106e5565b610206600480360360408110156103df57600080fd5b506001600160a01b038135169060200135610721565b6102066004803603602081101561040b57600080fd5b50356001600160a01b031661072e565b610222610794565b6102226107ab565b6102226004803603604081101561044157600080fd5b506001600160a01b03813581169160200135166107bb565b6102226107e6565b6102226107f2565b60048054604080516020601f60026000196101006001881615020190951694909404938401819004810282018101909252828152606093909290918301828280156104f55780601f106104ca576101008083540402835291602001916104f5565b820191906000526020600020905b8154815290600101906020018083116104d857829003601f168201915b5050505050905090565b600061050c338484610803565b50600192915050565b665374616b696e6760c81b81565b60035490565b60006105368484846108ef565b6001600160a01b038416600090815260026020908152604080832033808552925290912054610576918691610571908663ffffffff610a3316565b610803565b5060019392505050565b60065460ff1690565b3360008181526002602090815260408083206001600160a01b0387168452909152812054909161050c918590610571908663ffffffff610a9016565b60006105d03361072e565b61060b5760405162461bcd60e51b8152600401808060200182810382526030815260200180610d496030913960400191505060405180910390fd5b61050c8383610af1565b61061f3382610be3565b50565b6723b7bb32b93737b960c11b81565b65537973746f6b60d01b81565b6001600160a01b031660009081526001602052604090205490565b6106638282610cbe565b5050565b6626b0b730b3b2b960c91b81565b60058054604080516020601f60026000196101006001881615020190951694909404938401819004810282018101909252828152606093909290918301828280156104f55780601f106104ca576101008083540402835291602001916104f5565b6000546001600160a01b031681565b3360008181526002602090815260408083206001600160a01b0387168452909152812054909161050c918590610571908663ffffffff610a3316565b600061050c3384846108ef565b60006001600160a01b0382166107755760405162461bcd60e51b8152600401808060200182810382526022815260200180610d796022913960400191505060405180910390fd5b506001600160a01b031660009081526007602052604090205460ff1690565b6f2932b1b7b63630ba32b930b634b9b2b960811b81565b6827b930b1b632a43ab160b91b81565b6001600160a01b03918216600090815260026020908152604080832093909416825291909152205490565b644e6578757360d81b81565b69476f7665726e616e636560b01b81565b6001600160a01b0383166108485760405162461bcd60e51b8152600401808060200182810382526024815260200180610de16024913960400191505060405180910390fd5b6001600160a01b03821661088d5760405162461bcd60e51b8152600401808060200182810382526022815260200180610d276022913960400191505060405180910390fd5b6001600160a01b03808416600081815260026020908152604080832094871680845294825291829020859055815185815291517f8c5be1e5ebec7d5bd14f71427d1e84f3dd0314c0f7b2291e5b200ac8c7c3b9259281900390910190a3505050565b6001600160a01b0383166109345760405162461bcd60e51b8152600401808060200182810382526025815260200180610dbc6025913960400191505060405180910390fd5b6001600160a01b0382166109795760405162461bcd60e51b8152600401808060200182810382526023815260200180610d046023913960400191505060405180910390fd5b6001600160a01b0383166000908152600160205260409020546109a2908263ffffffff610a3316565b6001600160a01b0380851660009081526001602052604080822093909355908416815220546109d7908263ffffffff610a9016565b6001600160a01b0380841660008181526001602090815260409182902094909455805185815290519193928716927fddf252ad1be2c89b69c2b068fc378daa952ba7f163c4a11628f55a4df523b3ef92918290030190a3505050565b600082821115610a8a576040805162461bcd60e51b815260206004820152601e60248201527f536166654d6174683a207375627472616374696f6e206f766572666c6f770000604482015290519081900360640190fd5b50900390565b600082820183811015610aea576040805162461bcd60e51b815260206004820152601b60248201527f536166654d6174683a206164646974696f6e206f766572666c6f770000000000604482015290519081900360640190fd5b9392505050565b6001600160a01b038216610b4c576040805162461bcd60e51b815260206004820152601f60248201527f45524332303a206d696e7420746f20746865207a65726f206164647265737300604482015290519081900360640190fd5b600354610b5f908263ffffffff610a9016565b6003556001600160a01b038216600090815260016020526040902054610b8b908263ffffffff610a9016565b6001600160a01b03831660008181526001602090815260408083209490945583518581529351929391927fddf252ad1be2c89b69c2b068fc378daa952ba7f163c4a11628f55a4df523b3ef9281900390910190a35050565b6001600160a01b038216610c285760405162461bcd60e51b8152600401808060200182810382526021815260200180610d9b6021913960400191505060405180910390fd5b600354610c3b908263ffffffff610a3316565b6003556001600160a01b038216600090815260016020526040902054610c67908263ffffffff610a3316565b6001600160a01b0383166000818152600160209081526040808320949094558351858152935191937fddf252ad1be2c89b69c2b068fc378daa952ba7f163c4a11628f55a4df523b3ef929081900390910190a35050565b610cc88282610be3565b6001600160a01b038216600090815260026020908152604080832033808552925290912054610663918491610571908563ffffffff610a331656fe45524332303a207472616e7366657220746f20746865207a65726f206164647265737345524332303a20617070726f766520746f20746865207a65726f20616464726573734d696e746572526f6c653a2063616c6c657220646f6573206e6f74206861766520746865204d696e74657220726f6c65526f6c65733a206163636f756e7420697320746865207a65726f206164647265737345524332303a206275726e2066726f6d20746865207a65726f206164647265737345524332303a207472616e736665722066726f6d20746865207a65726f206164647265737345524332303a20617070726f76652066726f6d20746865207a65726f2061646472657373a265627a7a72315820eccef5be203718b11e7b164ea444ec3e93a38c8122a7b2447ee0a7607f61349764736f6c63430005100032",
  "source": "pragma solidity ^0.5.12;\n\nimport { MetaToken } from \"./MetaToken.sol\";\nimport { Module } from \"../shared/Module.sol\";\n\nimport { INexus } from \"../interfaces/INexus.sol\";\nimport { ISystok } from \"../interfaces/ISystok.sol\";\n\n/**\n * @title Systok (System Token)\n * @author Stability Labs Pty Ltd.\n * @dev Implementation of Systok - the token used hroughout the mStable Standard;\n *      namely through governance, forging and re-collateralisation\n *\n * BURN/MINT PRIVS\n * Only Recollateraliser can mint new Meta post completed auction\n * Anyone can burn and burnFrom Meta, provided they have the allowance\n */\ncontract Systok is ISystok, Module, MetaToken {\n\n\n    /** @dev Events to emit */\n    // event RecolUpdated(bytes32 indexed key, address newAddress);\n\n\n    /** @dev Basic constructor to initialise the Systok */\n    constructor(\n        address _nexus,\n        address _initialRecipient\n    )\n        public\n        MetaToken(_initialRecipient)\n        Module(_nexus)\n    {\n    }\n\n    // /**\n    //   * @dev Internally handles updates to the system modules\n    //   * @param _key         Module key\n    //   * @param _newAddress  Address of the updated Module\n    //   */\n    // function _internalUpdateModule(bytes32 _key, address _newAddress)\n    // internal {\n\n    //     if (_key == Key_Recollateraliser) {\n    //         address old = address(recollateraliser);\n    //         // Remove privs from old recollateraliser\n    //         if(old != address(0)) {\n    //           _removeMinter(old);\n    //         }\n    //         recollateraliser = _newAddress;\n    //         _addMinter(_newAddress);\n\n    //         emit RecolUpdated(_key, _newAddress);\n    //     }\n    // }\n}",
  "sourcePath": "/Users/james/mstable/mStable-contracts/contracts/systok/Systok.sol",
  "compiler": {
    "name": "solc",
    "version": "0.5.16+commit.9c3226ce.Emscripten.clang"
  },
  "schemaVersion": "3.0.23",
  "updatedAt": "2020-02-08T14:41:21.428Z",
  "networkType": "ethereum",
  "devdoc": {
    "author": "Stability Labs Pty Ltd.",
    "details": "Implementation of Systok - the token used hroughout the mStable Standard;     namely through governance, forging and re-collateralisation * BURN/MINT PRIVS Only Recollateraliser can mint new Meta post completed auction Anyone can burn and burnFrom Meta, provided they have the allowance",
    "methods": {
      "allowance(address,address)": {
        "details": "See `IERC20.allowance`."
      },
      "approve(address,uint256)": {
        "details": "See `IERC20.approve`.     * Requirements:     * - `spender` cannot be the zero address."
      },
      "balanceOf(address)": {
        "details": "See `IERC20.balanceOf`."
      },
      "burn(uint256)": {
        "details": "Destoys `amount` tokens from the caller.     * See `ERC20._burn`."
      },
      "burnFrom(address,uint256)": {
        "details": "See `ERC20._burnFrom`."
      },
      "constructor": {
        "details": "Basic constructor to initialise the Systok "
      },
      "decimals()": {
        "details": "Returns the number of decimals used to get its user representation. For example, if `decimals` equals `2`, a balance of `505` tokens should be displayed to a user as `5,05` (`505 / 10 ** 2`).     * Tokens usually opt for a value of 18, imitating the relationship between Ether and Wei.     * > Note that this information is only used for _display_ purposes: it in no way affects any of the arithmetic of the contract, including `IERC20.balanceOf` and `IERC20.transfer`."
      },
      "decreaseAllowance(address,uint256)": {
        "details": "Atomically decreases the allowance granted to `spender` by the caller.     * This is an alternative to `approve` that can be used as a mitigation for problems described in `IERC20.approve`.     * Emits an `Approval` event indicating the updated allowance.     * Requirements:     * - `spender` cannot be the zero address. - `spender` must have allowance for the caller of at least `subtractedValue`."
      },
      "increaseAllowance(address,uint256)": {
        "details": "Atomically increases the allowance granted to `spender` by the caller.     * This is an alternative to `approve` that can be used as a mitigation for problems described in `IERC20.approve`.     * Emits an `Approval` event indicating the updated allowance.     * Requirements:     * - `spender` cannot be the zero address."
      },
      "mint(address,uint256)": {
        "details": "See `ERC20._mint`."
      },
      "name()": {
        "details": "Returns the name of the token."
      },
      "symbol()": {
        "details": "Returns the symbol of the token, usually a shorter version of the name."
      },
      "totalSupply()": {
        "details": "See `IERC20.totalSupply`."
      },
      "transfer(address,uint256)": {
        "details": "See `IERC20.transfer`.     * Requirements:     * - `recipient` cannot be the zero address. - the caller must have a balance of at least `amount`."
      },
      "transferFrom(address,address,uint256)": {
        "details": "See `IERC20.transferFrom`.     * Emits an `Approval` event indicating the updated allowance. This is not required by the EIP. See the note at the beginning of `ERC20`;     * Requirements: - `sender` and `recipient` cannot be the zero address. - `sender` must have a balance of at least `value`. - the caller must have allowance for `sender`'s tokens of at least `amount`."
      }
    },
    "title": "Systok (System Token)"
  },
  "userdoc": {
    "methods": {}
  }
}